:040000006F108019E4
:1000040000000000000000006F0080086F00E02284
:1000140000000000000000000000000000000000DC
:1000240000000000000000000000000000000000CC
:100034006F004006000000006F00E00500000000B3
:100044006F0080056F0060056F0040056F0020059C
:100054006F0000056F00E0046F00C00400000000A2
:100064006F0060046F0040046F0020046F00000400
:100074006F0060236F00C003000000006F00600386
:100084006F0040036F0020036F0000036F00E00265
:1000940001A001A001A001A001A001A001A001A054
:1000A40001A001A001A001A001A001A001A001A044
:1000B40001A001A001A001A001A001A0B717004068
:1000C400130770052380E704130780FA2380E704ED
:1000D4002396A70223800704371700408347270588
:1000E400898BEDDF835707053717004083472705C2
:1000F400898BEDFF3717004083472705898BEDDF98
:10010400035507058280B7170040930670052380C6
:10011400D704130780FA2380E70403C6B7041376D1
:10012400F60DA385C70423800704137605022DC6A4
:1001340003C6A700118A0DE22380D7042380E704B5
:1001440003C7A700136747002385E7009307004B05
:1001540001000100FD17EDFFB7170040930670057D
:100164002380D704130780FA2380E7047D8923942E
:10017400A70001000100010001002380070423807F
:10018400D7042380E7049306100537270040A30310
:10019400D780238007048280137605046DDE03C6AE
:1001A400A700418A0DE22380D7042380E70403C714
:1001B400A700136707012385E7009307007D01006B
:1001C4000100FD17EDFFB71700409306700523806B
:1001D400D704130780FA7D892380E7041365050497
:1001E4002394A700010001000100010023800704FB
:1001F4002380D7042380E704930630053727004083
:1002040079B74111814601468145114506C6AD22A3
:10021400B7170040130770052380E704130780FA1B
:100224002380E70403C76704136717002383E704E5
:1002340023800704B2404101828081460146814502
:1002440011451D2AB7170040130770052380E704E2
:10025400130780FA2380E7047D572396E70203C738
:100264006704136717002383E7042380070401A0AE
:10027400BD473305F50201007D1575FD82804111EE
:1002840022C426C206C6AA84014463179400B2405D
:10029400224492444101828005041305803E4204B5
:1002A400C13F4180DDB7B71700401307000323881F
:1002B400E702854723AAF18E7300203023030480CC
:1002C40015472303E48001002302A480828083076E
:1002D4006480E3CE07FE2303048082808307648066
:1002E400E3CE07FE03454480828083076480E3CE27
:1002F40007FE2302A4808280411126C44AC24EC054
:1003040006C61377F50BAD47AA892E899544630673
:10031400F70019456537653F8D444E854537FD59CE
:10032400FD1463983401B240A24412498249410148
:100334008280135509011375F50F453F2209CDB786
:10034400011126CC06CEB704080051371545BD3738
:10035400713769372AC6A53F32459377150089EB73
:10036400136515001375F50FF240E24405618280B0
:10037400FD14E9FC0145CDBF397126DC4ADA4ED8BB
:1003840052D656D45AD25ED006DE62CE66CCB7E7D9
:1003940000E07D5783AA070022C603AA470023A0D2
:1003A400E71823A2E718B717004013077005238046
:1003B400E704130780FA2380E70483C74704930BF9
:1003C40075FFB684E20793FBFB0F8546AA892E8B43
:1003D400328937240040E187015763FA76016308C4
:1003E400D5008946130700026313D5000157D98F3E
:1003F40093F7F70FB71C00402382FC041147230333
:10040400E4801305F00F5D3D094CD13563697C111F
:10041400B70707003E9B378707007955637EEB02D9
:10042400B3079B00636AF702A9476399F90689E455
:100434008144713D26850DA0DA850945753D050980
:100444000345F9FFFD14050B4D3581C49377FB0F6C
:10045400FDF7FD3569FD7D55B7170040130770059D
:100464002380E704130780FA2380E70403C74704C3
:10047400418B2382E704F250B7E700E023A0571131
:1004840023A24711E25432445259C259325AA25A51
:10049400125B825B724CE24C21618280A5476395BA
:1004A400F90685691309F00FB3069900B3742B019B
:1004B400B6941349F9FFB3749900856B33796901D4
:1004C400416B9387F9FFB3F7270199E363FC340188
:1004D40093D94900C147E3E637FF99BF0569C1696C
:1004E4007D19D9B71305800D6388690113050002CE
:1004F4006384790113051008CA85FD3B913521DD1C
:100504004E99B3843441D9B7DA852D45F533CA946D
:10051400E30099F20509D933A30FA9FED5BF938748
:10052400F9FF93F7F70F636CFC0803C75C04B70784
:1005340008001377070219E3B78707007955E37DAD
:10054400FBF033079B00E3E9E7F089476390F90484
:100554008980D549E38E04ECDA850945713B11099C
:100564000327C9FF91472320E48003076480E34EF7
:1005740007FE23033481FD17EDFBFD14110B81C429
:100584009377FB0FE9FF6D3B71F5F1B58547E38781
:10059400F9F4DA852D458D339389F4FFE38A04E871
:1005A400353B93F7390091EB832604800327090038
:1005B40093074900E39FE6E63E89CE84F1BFB54741
:1005C4006396F9001305900BD5399DB5B147130512
:1005D400B00AE38BF9FE9947639EF902DA852D454B
:1005E400213B81448D4BA149D539639674018327FE
:1005F40004802320F9008504E39834FF83270480D2
:1006040013172B01635507002312F90015B5232294
:10061400F90039BD9D476399F90281451305B0047A
:10062400E139BD442320090023220900FD597D310D
:1006340093F77400CA9703C70700FD14398D23800C
:10064400A700E39634FFEDB3A1476392F904CD39D3
:100654008144630D0B008D479304C0036308FB00C2
:100664009304000563048B01930440041375C507C8
:10067400E30095DC19459931993905458131268581
:10068400AD3109459D316D39E31405DAE9B391477C
:100694006399F9001305600615311539130590099E
:1006A40025B7E38709D8F15469B319CDB7170040CA
:1006B400130770052380E704130780FA2380E704F7
:1006C4002396A70223800704828019C1814799E9F0
:1006D40082803387F500834607003307F5008507DA
:1006E4002300D700E397C7FEE5B719C1FD5781E999
:1006F4008280910503A7C5FF1105232EE5FE7D1613
:10070400E319F6FEF5B7797122D417340000130407
:1007140064B51C4006D626D24AD04ECE91C78297E5
:100724009737000023A007B45C4089CB03D5019020
:10073400AD3F5C40829703D52190853F1C40639C6C
:1007440007189737000083C777C5858B95C79737F8
:100754000000A38507C417370000034757C4914717
:1007640063FCE7007D2B9737000083C757C3F91755
:100774008A07A2979C4382979737000083C7C7C60E
:10078400918B89C7970001E0E780002D1C4491C339
:1007940082979387C18F984317360000034696AA21
:1007A4003E89973400009384E4A99737000083C7F7
:1007B40067A993961700BA9683D60600638306103A
:1007C4009737000083C707A863FBC70686073E97D1
:1007D400835507002310070003D501902EC6F13579
:1007E400938701919C43173500000345A5A5131772
:1007F4002500BA979C43B2458297AA8903D52190D4
:100804006D359737000083C7E7A313971700832735
:100814000900BA9703D70700B3E9E9002390370129
:1008240083C70400850793F7F70F17370000230BDE
:10083400F7A0173700000347F7A063E6E7009737F0
:100844000000238107A01C40D9E793878190984337
:100854003E8451C39737000083C7B7B491CB973711
:10086400000083C7D7B389E7970001E0E78060E31E
:100874001C4082972A8425C19C48AA9717370000F8
:10088400232AF79C9387C1909C43B1C703D5019059
:10089400293D228597F0FFDFE780802D9737000000
:1008A40093878796DC5389C797F0FFDFE78020069C
:1008B4002254B25092540259F24903D52190456111
:1008C400EDB3850793F7F70F97360000238CF69660
:1008D400E3EDC7ECF5B5B250225492540259F249F3
:1008E400456182809167B7C600409387373023A65D
:1008F400F6200F100000973700009387A794884FC5
:100904009387419F9C43316713073730F053B707F0
:100914001000FD17918F99833A0523A6E6205D8D7B
:1009240082804111B7170040985F3AC6945F3247FE
:10093400E39CE6FE324541018280411106C6D5376B
:100944009736000083C6868D858AB1C693073033F7
:100954003307F502B337F5023983CA07D98F17373E
:1009640000001307278E584B01456303F7023385B4
:10097400E740636BF70037653D0889C637856F0824
:1009840013050590198D3E95173700002326F78C23
:10099400B24041018280E5473307F502B337F502DF
:1009A4002583DE0765BF0327C50F8346B500973748
:1009B40000009387679E9C4F584393861602958246
:1009C4009043FD1693F6F60F10C3D04350C39047DF
:1009D40010C7D04750C7904B10CBD04B50CB904F43
:1009E40010CFD04F50CF91C6130707029387070249
:1009F400C1BF82808347E50193F7E70F91CB01459F
:100A040082800145B24022449244024941018280DD
:100A14008347F501EDF7834605010347850089CA3D
:100A24000346A5029727000083C7577F6367F60034
:100A340093770701E9D7814789CA83470515834618
:100A4400F514418BA207D58F01CB03474515834687
:100A540035152207558FBA97DDD3172700000347B2
:100A6400E77B41119316870106C622C426C24AC0F9
:100A7400E18663D506049387C71313D457009737C9
:100A840000009387E79CBC479724000083C4A479A3
:100A94007D5903A70708637327013A899C43F5FB33
:100AA400938741919C438297E36DA9F43305A94050
:100AB40026943334850013451400A9B7058B938716
:100AC400C71209CB8A071384F7039307D00733545B
:100AD400F40275B786071384F7019307D003C5BFE3
:100AE4005D7122DE1384419E3AD218403ED04ACA38
:100AF4001C5F86C696C499839AC29EC026DC2ADAF5
:100B04002ED832D636D442CE46CC72C876C67AC4F3
:100B14007EC2858B1389019EC1C31C5F973400007C
:100B24009384848793F7F7F91CDF9737000083C712
:100B3400A78693F707048DC3938741919C438297BB
:100B44009737000023A2A78683C7040093F7F70B07
:100B5400173700002302F784854717370000A30FD7
:100B6400F78283C7440093F7070481EF9387419F7B
:100B74009C43D844B8D3930700FC17370000230FD5
:100B8400F7808387640063D90700832709009C43A7
:100B9400173700002305F78018401C5F8583858B79
:100BA400C9CBF5571CDF0100010001000100010061
:100BB4000100010001000100010001000100010029
:100BC4000100010001000100010001000100010019
:100BD4000100010001000100010001000100010009
:100BE40001000100010001000100010001000100F9
:100BF40001000100010001000100010001000100E9
:100C040001000100010001000100010001000100D8
:100C140001000100010001000100010001000100C8
:100C24000100010001009387419F9C431307500476
:100C3400B8CB18401C5F9183858B89CFBD571CDFCF
:100C44009387419F9C4323A80704854717270000E7
:100C54002306F77483270900D8430583058B19C736
:100C6400D843759BD8C3D843799BD8C37254B64034
:100C7400A64216438643E2545255C2553256A256F2
:100C8400125782577248E2485249424EB24E224F9E
:100C9400924F6161730020309387419F94431727DB
:100CA40000001307676FBC5289CF83472700858BE9
:100CB40089EB83473700858BFDD797270000238F67
:100CC400076C82809387019F9C4399CB944BD04BB4
:100CD4009842518F98C294439C479842D98F9CC2A2
:100CE4009387419F9C4337C700401306C003A8CB9A
:100CF40093062003972500009385056A83278720A0
:100D0400C18393F7F7036369F60083278720C183C0
:100D140093F7F70363E6F60083C74500858BF9DF95
:100D240082809387419F9443172700001307C76667
:100D3400BC5289CB83470700858B91CB9727000052
:100D4400238E076497270000A38A07648280834761
:100D54001700858BF1DFDDB79387019F9C4399CB07
:100D6400944BD04B9842518F98C294439C479842DD
:100D7400D98F9CC29387419F944337C70040C14594
:100D8400A8CA654683278720C18393F7F70363FBCB
:100D9400F50083278720C18393F7F7036364F60084
:100DA400BC52EDF382801387419E1843AA87185FD3
:100DB4001583058B25EF0345150015051377C51F0E
:100DC40019C6B386E70083C626002300D60095C55E
:100DD4009726000083C6A65C93F606040945A1CABB
:100DE400B386E70083C63600054693F5F60663909E
:100DF400C504E206E18663CC06023385E700834737
:100E0400150003470500A20793F70770D98F1397BE
:100E1400070141839376074099C613670780239699
:100E2400E19E014582802396F19EE5BF05458280BF
:100E3400011136C89386419F2ECC8C423AC63EC4DB
:100E440098452ACE32CA9317070142C2C183137848
:100E5400172036853E86972600009386E653630462
:100E640008041377072061CF03C726001367170010
:100E7400172800002303E85213070019B8D11307F9
:100E840000F897250000238BE5501387419E0C43FF
:100E940037080010D855719B13672700D8D598419F
:100EA4003367070198C11377261005C3137606101C
:100EB40045CA03C706001367170017260000230D51
:100EC400E64C17270000231D074C83C6460093C732
:100ED400F7FFC207E206E186C183184163D1060227
:100EE4009396170163D7060830538D4663E9C6000D
:100EF4008546172600002303D64A3453FDFE972661
:100F04000000938666308386460163DD060093966F
:100F14000701C18663D506067053894663E4C6009B
:100F24007453FDFE14477245E245F58F1CC75246C3
:100F3400C2463247A247124805617300203003C7F6
:100F440016001367170097250000A387E5441727A9
:100F54000000230507441727000023130744A1B703
:100F640003C736001367170017260000A307E642DD
:100F740089BF8546172600002302D64249B7544745
:100F84001396060163510602B7061000FD1674D3CA
:100F9400972600009386062B944E8506172600009C
:100FA400232ED62A41B7A166D58FADBF17270000DF
:100FB400130747408346B7019727000083C7D742EA
:100FC400B69793F7F70FFD4663EAF6044C4B972662
:100FD4000000A381F63E9727000083C7B73D05476D
:100FE4003317F70097260000A380F6406D8F1DEF9E
:100FF4009726000083C6963FB3F6D7021305000276
:10100400814733D6F500058A13F8F70F09CE6399A3
:10101400E60097270000A38F0739828081177DB7E8
:1010240005071377F70F8507E39DA7FC8280938755
:10103400C19F9843B75702009387079F83260709E8
:101044001396560063580600832607091396660014
:1010540063440600FD17FDF3828051C9AA87014548
:10106400C9C98D07C207C183F19BC207C183130796
:101074004003636BF7021387C1A80843138741A891
:1010840014436396A602172700001307E717185B9B
:10109400014525C34111C20706C60545DD8D0297EA
:1010A400B240014541018280138781A8F9B70357F3
:1010B400650005EF035745006369F702B306F7407F
:1010C40021466370D6021041938687001D8FAA962D
:1010D400611790C22392E6002393060014C12312E1
:1010E400F5002313B50021058280084159BF01454D
:1010F4008280828001CD9387C1A803A807009387CB
:1011040041A88C430147C28763E3B70082809443BC
:10111400636FF50663EDA60613868700E368C5FED4
:1011240003D56700216605066317C50003C6419A07
:1011340005062382C19A2393070063840703138659
:1011440081A81042630FF6000356670019EA83D79B
:10115400470014C383564700B697A1072312F7002C
:10116400BA879843E304B7FA938681A89442E30FBD
:10117400D7F883566700D9FA83D647000356470049
:101184001843A106B2962392D70098C382803E8763
:04119400B6879DBFBE
:10119800974100209381815417710020130101E6C3
:1011A80013054000972500209385456517360020D4
:1011B8001306067E63FAC5008322050023A05500A6
:1011C80011059105E3EAC5FE17C5010013050535AC
:1011D800973500209385C57B1386018A63FAC5007D
:1011E8008322050023A0550011059105E3EAC5FEF9
:1011F8001385018A97650020938505B06377B5004C
:10120800232005001105E36DB5FE9302800873A045
:101218000230972200209382625E93E2120073905C
:10122800523097220000938222C5739012347300C3
:1012380020303D432A876373C3029377F700BDEFDD
:10124800ADE5937606FF3D8ABA960CC34CC30CC72E
:101258004CC74107E36BD7FE11E28280B306C34057
:101268008A069702000096966780A6002307B700B3
:10127800A306B7002306B700A305B7002305B700E8
:10128800A304B7002304B700A303B7002303B700E0
:10129800A302B7002302B700A301B7002301B700D8
:1012A800A300B7002300B700828093F5F50F93964B
:1012B8008500D58D93960501D58D61B79396270046
:1012C8009702000096968682E78086FA9680C11774
:1012D8001D8F3E96E374C3F8A5B7B717004003C740
:1012E80077051377E70FA38BE704130700F8A38D9F
:1012F800E7043D47238CE70413077003A38CE70436
:101308008280B717004003D587005D714EDE420525
:10131800418186C6A2C4A6C2CAC052DC56DA5AD8CF
:101328005ED662D466D26AD06ECE9377050C130768
:10133800000881496386E71813070004639AE714D5
:10134800B7240D8F7D8993840480B3D4A402916758
:10135800938707E8BE94A167938707D0B3D4F402B4
:10136800EF90517C97C701009387C7929043D4436D
:10137800EF901130EFA0813DAA8B939C040103D913
:10138800018A93DC0C0163150900056913090980BA
:10139800B7170040130770052380E704130780FA86
:1013A8002380E704B71A00400547939D0401096CA0
:1013B8002389E704514B01438145138D0A04130621
:1013C8007005930680FA094893DD0D01130C0C7122
:1013D800A9482300CD002300DD0023962A0323001B
:1013E8000D0083C72A05898BEDDF83D70A0583C7DC
:1013F8002A05898BEDFF83C72A05898BEDDF83D703
:101408000A052390218BC207C18333859741131A9C
:101418000501135A0A41630B0A143307BA02635EC3
:10142800070C05034203135303016368680C63D96F
:10143800050A3305B04093150501C185C204C18072
:1014480063D7450B0965130505713385A502B717E1
:101458000040130770052380E704130780FA2380F0
:10146800E704239637032380070433459502420592
:101478004181B640264496440649F259625AD25AE6
:10148800425BB25B225C925C025DF24D61618280DC
:10149800B1E3B77489097D8993840480B3C4A40235
:1014A8009167938707E8BE94A167938707D0B3C471
:1014B800F402EF90316797B701009387277E7DB5D7
:1014C80097B701009387C77C856483AB0700938433
:1014D800843865B5930B0000954445B53A89D5BD68
:1014E800B387FC40139A0701135A0A4181BF096563
:1014F800130505713305AA028DBF3385B74163E42F
:10150800FC003385FD40330585033344B50363C5CB
:10151800880013150401A9BF528532C636C4EFA04E
:101528008116DE85EF901167EFA0C10F1313050137
:10153800135303413307694042074183A2463246A9
:101548000948A948631AE9001307190063444001D0
:101558001307F9FF420741837D1B137BFB0FCA89E1
:10156800D285E31D0BF62390E18A65B7014511B7D3
:10157800B717004003D5870039715ECE4205418117
:1015880006DE22DC26DA4AD84ED652D456D25AD0B3
:1015980062CC66CA6AC86EC69377050C1307000842
:1015A800814B6388E71413070004639CE710B72492
:1015B8000D8F7D8993840480B3D4A40291679387A7
:1015C80007E8BE94A167938707D0B3D4F402EF90DD
:1015D800715597B701009387E76B9043D443EF9019
:1015E8003109EFA0A116AA89939A040103D9218A87
:1015F80093DA0A0163150900056913090980B71709
:101608000040130770052380E704130780FA23803E
:10161800E704139B04010547096A2389E704D14DB0
:10162800014D814C135B0B01130A0A714A859720FF
:101638000020E7806028330C5541420C135C0C41B4
:101648002391218B630A0C14B3079C0363D0070E04
:10165800050D420D135D0D01894763E9A70D63DA96
:101668000C0A33059041931C050193DC0C41C2041C
:10167800C18063D78C0B0965130505713385AC02EE
:10168800B7170040130770052380E704130780FA93
:101698002380E704239677032380070433459502C4
:1016A80042054181F2506254D2544259B259225AE9
:1016B800925A025BF24B624CD24C424DB24D2161C0
:1016C8008280B1E3B77489097D8993840480B3C4A7
:1016D800A4029167938707E8BE94A167938707D010
:1016E800B3C4F402EF90114497B701009387075BE6
:1016F800EDB597B701009387A759856483A90700BB
:1017080093848438D5B5930900009544F1BD3E898A
:1017180031BF3385AA40131C0501135C0C4181BFFE
:101728000965130505713305AC028DBF63FEAA0078
:101738003305654133054503A9473344650363C849
:10174800870013150401B1BF3305AB40E5B76285C7
:10175800EF907173CE85EF90F143EF90B16C131D4C
:101768000501135D0D41B307A941C207C183631A7F
:10177800F90093071900634480019307F9FFC20732
:10178800C1831387FDFF937DF70FCA8BE28CE3902B
:101798000DF82391F18A75B7014529B741112A83BC
:1017A800014E930E407E130F0019930F400663EB12
:1017B8006E0A9308001913034006B3781503854E83
:1017C8000D4FA14F337365020D891335150063E57D
:1017D800BE0C1308F6FF79467298420813580801A0
:1017E8003307C70213D61700BE0732976146B3F610
:1017F800C60213068070B386C6023697A166F58FB7
:1018080042075D8FB717004083C6F70293F60608B4
:10181800A307D1000346F10083C6F70293F6060832
:10182800E394C6FE8346F10093F6F60FF1DE9306C5
:1018380070052380D704930680FA2380D70423AA4F
:10184800070383C6170393E60608A388D702D8DBE5
:1018580003C7170313670704A388E7022380070455
:10186800410182807D133368E3039308E016630E19
:1018780008003368F3039308D016630808009378C8
:10188800330093B818009388D81633081E01131E26
:101898000801135E0E0121BF6393E50305486386C3
:1018A80008000148630303002A8871087298FD152F
:1018B800131E0801C205135E0E01C18109BF13F88A
:1018C800150063F4BF007908D5B713381800E5BFD1
:1018D800914763EEB70217B701001307A73C8A05C3
:1018E800BA959C41BA978287B717004003A7470B60
:1018F8001345F5FF698F23AAE70A03A7070B698F2A
:1019080023A8E70A03A7070A798D23A0A70A8280DC
:10191800B717004083A6470B1347F5FFF98E23AA94
:10192800D70A83A6070B558D23A8A70A83A6070AFB
:10193800758F23A0E70A8280B717004003A7470BDB
:10194800498F23AAE70A03A7070B1345F5FF45BFED
:10195800B717004083A6470B1347F5FF758F23AAD7
:10196800E70A03A7070A598D4DB7B717004003A721
:10197800470B498FEDB7B717004003D587004205DD
:1019880041819377050491EB9377F5013755E80189
:10199800130505803345F50282809377050C1307FC
:1019A80000046397E7009377F50137459C1CCDB792
:1019B8002165130505D08280B7F700E0C8439C472E
:1019C8008280814737370040A14663C4C70032850B
:1019D80082800345B740E38EA6FE3385F5000345B4
:1019E800050085072304A740CDB7411122C406C6C8
:1019F8002A8451372947B307E502B2408D83B3D70C
:101A0800870222449507B3D7E70237370040C20759
:101A1800C1832316F7404101828071654111130586
:101A2800052006C6D937B7370040130770F8238159
:101A3800E7400D47A381E74013070004A380E74070
:101A480005472387E740B240410182809387018B95
:101A58009C43411106C691C382979387418B9C434F
:101A680091C3829717370020035767479307C0121F
:101A780063F7E70403D541809306B01263E4A60434
:101A88009386C18A03A3060063070300B2401305C7
:101A9800C012410102830507098F3385A740E54736
:101AA8003305F5024207418309839307F7FF3E9503
:101AB8003345E5021375F50FB240410182801305E5
:101AC8004006DDBF0145CDBF03A84500411126C230
:101AD80006C622C48347180003480800A944A20781
:101AE800B3E70701C2070D68C187130828906396FA
:101AF800070385473284EF50D01CAA8419ED9387D9
:101B0800818A9C4399CB03451400034704002205AE
:101B1800598D1335150005058297B2402244268554
:101B28009244410182802D452DEFD841411122C4B4
:101B380026C206C68347170003470700B684A207D4
:101B4800D98F0D67930697A13284639CD702FD3D18
:101B58009737002083C787386376F50097370020CA
:101B6800238EA73685472390F4009737002083C734
:101B7800E7362300F4000145B24022449244410173
:101B88008280130787902945E398E7FECC4589476B
:101B98002390F4000946228597200020E780A03290
:101BA800D9BF828083474500858BBDC7011122CCF0
:101BB8002A84035525009385C1AA06CEEF50300B21
:101BC800058939C503552400014781460546ED4579
:101BD800EF50A0452AC60DCD97370020938747DBE5
:101BE80083D7A70201462C002314F100854723154B
:101BF800F1009737002083C7672E2300F5000355AF
:101C08002400EF60C06309C5ED452800EF50A059D6
:101C1800F24062440561828082804165411193856A
:101C2800C1AA7D1506C6EF706051B24097360020F4
:101C3800938606DB4146954517350020130545D5A3
:101C480041016F70C04423A4A18A8280411122C43B
:101C580006C6854709446313F50283470600014415
:101C68002382F18A17370020034747276378F70054
:101C780017050000130545F3EF9000732285B24065
:101C880022444101828085476303F50209C9094757
:101C98006304E5020D476308E5020945828097372A
:101CA800002083C7A7232380F500014582809387FE
:101CB800418A83C70700C5BF9737002083D7E7CD80
:101CC8002390F500DDB7138781800357070023921F
:101CD800E500173700201307A7CB8356A702035741
:101CE800A7032383F5002390D5002391E50075BF52
:101CF800411106C6A13B9737002083C7271E637C86
:101D0800F50097370020238BA71C17050000130543
:101D1800A5E9EF906069B2400145410182804167C1
:101D28007917630CE502411122C406C685472A8447
:101D3800639AF50022852244B2409385C1AA4101E5
:101D48006F70C03F89476396F5008545EF90406006
:101D580075D1B2402244410182808280CC41411138
:101D680006C6328503C6150083C5050022064D8EBA
:101D780042068D654186138875A2630C060F634879
:101D8800C804138845A26306060B634AC8009385F6
:101D980035A26309B60623900600294679A0138860
:101DA80055A26308060B938565A2E316B6FEC145E6
:101DB8001D4663ECE5064546198E63F3C7003E866B
:101DC8002390C60097B50100938505F089A813886C
:101DD80095A26300060F634E060B1388A5A2630A3B
:101DE800060F938505A5E318B6FA99451D4663EED7
:101DF800E502198E63F3C7003E862390C6009385DB
:101E0800018131A89D451D4663E1E5022146198EF1
:101E180063F3C7003E862390C6009385818BBA95ED
:101E280097200020E780200A0146B2403285410110
:101E38008280AD451D46E3EAE5FE3146198E63F31F
:101E4800C7003E862390C60097B50100938585EBB1
:101E5800F9B7B1451D46E3EAE5FC3546198E63F34B
:101E6800C7003E862390C60097B50100938585EA92
:101E78007DB7C1451D46E3EAE5FA4546198E63F389
:101E8800C7003E862390C60097B50100938505E5F7
:101E980079B7C1451D46E3EAE5F84546198E63F36F
:101EA800C7003E862390C60097B50100938585E755
:101EB800BDB7C1451D46E3EAE5F64546198E63F30D
:101EC800C7003E862390C60097B50100938545E27A
:101ED800B9B7B5451D46E3EAE5F43946198E63F30B
:101EE800C7003E862390C60097B501009385C5DCE0
:101EF8003DB797360020938666C24146CD451735D3
:101F080000201305A5AE6F70801882809387418DDD
:101F18009C4303C7818C83C6B18201E781473E8514
:101F2800828003D607006316A60003C66700E3088D
:101F3800D6FE7D171377F70FA107C5B7B2862E8691
:101F4800AA8517B50100130525DF6F9091290111A6
:101F5800930500030D4506CEEF20B07F93050005DD
:101F68001145EF20107F9305C0030545EF20707ED3
:101F780085471306F100854513055030A307F10086
:101F8800EF60F13AF240056182808547631AF500F7
:101F98001166130686A9894503C5918C6F10404ABE
:101FA80089476317F500894503C5918C6F10E05F79
:101FB800828085476398F50019E22381B18C238CD0
:101FC800C18C828009476399E50019E62381F18C69
:101FD80003D5018C6F00A07F82809387C18C9C43BE
:101FE800011122CC06CE2E8481CB9C4791C78297C3
:101FF800F2406244056182806C0013057040EF5026
:10200800815D324681452285EF50B175D5B74111C2
:102018009397050122C406C6C1872E8463DF070093
:1020280003C5918CEF00B07219C1EF00B06B216548
:10203800218DB24022444101828093F7150091CF4F
:1020480017360020130646AE9385C18103C5918CCF
:10205800EF60110113451400E9BF93F7250001450E
:10206800E9DB79311166130686A9894503C5918C88
:10207800EF10003D134524006DBF797126D24ECE76
:1020880006D622D44AD052CC9147AA84AE8963148A
:10209800F50483D7A5001306E100854513055030E4
:1020A8002390F18C230701002381018CEF603128F4
:1020B8009387C18C9C4391C7DC4781C7CE85268511
:1020C8008297B250225423A2918C02599254F24919
:1020D800624A456182801387418C1843E31AF7FCF2
:1020E800854503D5018C2539854503D5018CEF003D
:1020F800C073C16703DA018CF917631BFA02054440
:102108009305E100130550412381018CA385818249
:1021180023070100EF50214C8347E100B1E303C7D7
:10212800818D9147E316F7F81D35238C018C49B74B
:102138009387418D03A9070003C4818C69D0035597
:10214800290011C99305E100EF50F01709C54C4566
:102158005285EF60B07E7D141374F40F2109F9BF26
:102168009387018D9C4383C74700898BCDDB9305FB
:10217800000A0D45EF20F05D9305000A1145EF2098
:10218800505D81450545EF20D05C1306E10085458B
:102198001305503023078100EF60711949B7011109
:1021A800170500001305E5E606CE22CCEF10C05F48
:1021B8001384918C85471306F10085452300A400FC
:1021C80013054041A307F100EF50C1677D55EF406B
:1021D800302F7D55EF607073293B8134C12317057B
:1021E80000001305C5DA853417050000130525D24C
:1021F800E12B034504008545EF102014F2406244AA
:102208000561828023A6B18C23A8A18C828023AA91
:10221800B18C2384A18C82809387418C9C437971F3
:1022280006D622D426D24AD04ECE52CC1147639B32
:10223800E70483C7218C414481CF9387418D804334
:10224800B284B68983C7818C03C7B18299EB5544A0
:102258002285B250225492540259F249624A456189
:10226800828083464400639AA6008346540063969E
:10227800B600834664006380E606FD1793F7F70F00
:102288002104E9B709474144E384E7FC2C0013051E
:10229800504123040100EF500134834781008DCB66
:1022A800930500020D45EF20D04A93050003114520
:1022B800EF20304A95450545EF20B0498547300065
:1022C8008545130550302304F100EF60510649B7E6
:1022D800BD394144B5BF0355240093056100EF5053
:1022E800807E35D54C4503D5018CEF5040180589C3
:1022F80039DD1399040113590901014781464A86BA
:10230800ED4503D5018C035A0400EF4010522AC64C
:102318004D441DDD2686CE85231441012315210158
:1023280097200020E78020BA01462C0003D5018CB5
:10233800EF50F0702A84E30D05F0ED452800EF40DA
:10234800906639B7C841011122CC06CE32840346C3
:102358001500034505002206498E19CB0D681308A0
:10236800B8A42D4563090607F240624405618280DE
:102378000D651308D5A463000603130825A2630C92
:10238800060175781308E85C32984208135808016A
:10239800854863EE080303D5A50036C632C4BD36AA
:1023A800B24615C19387C18C9C432246834555008C
:1023B80003A30700A2876244F2400345450036871D
:1023C80085460561028323900600014571BF130805
:1023D800B5A46317060303D621831D45E376C7F822
:1023E800198E63D3C7003E86CC452390C6004206AB
:1023F8004182BA95228597200020E780C0ACF1B7CA
:102408009307A5A46318F60091472390F600114698
:10241800CC45CDB7930785906317F600894723907D
:10242800F6000946F5B79307E5A4631AF600DC45FC
:102438002390160183C707002300F40079B713051A
:102448007590E314A6F8D9BF011122CC06CE26CA8E
:102458004AC82317D1002D4429EBDC412E89B284C8
:1024680003C4170083C7070022045D8C8D67938619
:10247800D7A46306D400938627A3631FD402035509
:10248800A900693419E101440DA09387C18C9C43CC
:10249800834555000345450003A807002286A68703
:1024A8001307E100814602982A842285F24062449B
:1024B800D2444249056182809386C7A46314D4023A
:1024C8008357E10005473544E391E7FE03450600DD
:1024D80013040008E3EBA7FC9387C18C9C43DC43FF
:1024E800829755B793862790631AD4028356E100E2
:1024F8008547EF40107D2A844DF99387418D835697
:10250800A9009C4303C7818C3DDF03D627006302E3
:10251800D6047D171377F70FA107FDB79387E7A4B4
:10252800E313F4F68357E10005473544E39FE7F6E4
:102538000345060013040008E3E9A7F6DC452380F9
:10254800A7009387C18C9C433335A0000905DC4361
:1025580041BF1387C18C184303C5470083C5570083
:1025680083C714000328070003C70400A20789468D
:10257800D98FC207C18705476383E7008D460D667B
:10258800A6871307E10013062690029839BF411168
:1025980022C441641305F4FF9385C1AC06C626C264
:1025A8004AC0EF60B0391305F4FF9385C1AB972497
:1025B800002093842458EF60703897260020938673
:1025C80066714146E9452685EF60702CCC4C2A8916
:1025D8000945EFF04FEB1387018483460700938783
:1025E800C1830347170003C617001384C1AD83C511
:1025F8000700A306E40083D7A40CA30EE40003D7C6
:10260800A416A302C400A30AC40003D6A41323106B
:10261800F400231CE40083D7A40D1387818303D51A
:10262800A4102318C4000357070003D6A4142311C9
:10263800F40085472303F4002306D4002307F4009D
:102648002319C400230ED4002302B4002314A400C9
:10265800230AB40023150400230B0400231D0400DF
:10266800230F04002312E40203D7A418938541B072
:102678002303F4022310E402231104020D45EFF0B2
:102688008FE0A2851D456136B24022444A859244B6
:102698000249410182808D67138527A36301A6043F
:1026A8009387D7A40145631EF6008947639CF5000C
:1026B800854735456397F60083470700238FF18CDC
:1026C800014582808D472945E39DF5FE85473545BF
:1026D800E399F6FE83470700238EF18CD5B785472B
:1026E8003545E390F6FE83470700A38DF18CC9BFFB
:1026F8008D67138527A36308A6029387D7A463175A
:10270800F6028947639BF50083C7E18D2300F70034
:1027180085472390F600014582808D476398F50030
:1027280083C7C18DE5B783C7B18DCDB723900600A8
:10273800DDB70145828025E303A84500AE888347BD
:10274800180003480800A207B3E707010D68930EB5
:10275800F8A4639AD70391473548639FF60203A507
:10276800C8004111B285114606C697100020E780BF
:1027780080759387C18E9C4305458297B240014876
:102788004285410182809308289029486396170161
:1027980085476F4010532D4842858280416541111D
:1027A800938541B17D1506C6EF605019B240972652
:1027B80000209386E65841469945172500201305C1
:1027C800255241016F60B00C23A6A18E82800111B1
:1027D800938541B122CC06CE2A84EF405049058921
:1027E80029C1014781460546ED452285EF40F003A2
:1027F8002AC605C9972700209387874E83D7A70540
:1028080001462C002314F10085472315F10023000D
:1028180005002285EF50B02209C5ED452800EF409C
:102828009018F24062440561828041677917630C11
:10283800E502411122C406C685472A84639AF50039
:1028480022852244B240938541B141016F60100F47
:1028580089476396F5008545EF80902F75D1B24082
:102868002244410182808280411106C6EFE07FA99F
:10287800BD4763F4A700EFE0DFA8EFE07FCFBD47D7
:1028880063F4A700EFE0DFCEB24083D5218A03D5F9
:10289800018A41016F00D061411193962500AA85F4
:1028A8002D4506C697100020E780C02CB240014590
:1028B80041018280411122C426C24AC02A842E893D
:1028C800B284AA85930600200146254506C69710BE
:1028D8000020E780202A931629002686A28529450C
:1028E80097100020E7800029B24022449244024910
:1028F800014541018280011122CC06CE37140040E7
:1029080026CA4AC84EC652C483447405034AB4054D
:102918008349840503499405EFE03F9C8347A40558
:1029280093F4F40F137AFA0F93E71700230DF404C6
:1029380093F9F90F1379F90FB717004003C7A705E3
:10294800058B6DFF03D5C705A38D4705238C370578
:10295800A38C2705A38B9704F2406244D2444249D2
:10296800B249224A0561828041119397050122C428
:1029780006C6C1872E8463DB0700D12B11C19D23B6
:102988002165218DB24022444101828093F71500D0
:1029980013C51500E5FB9397250163D00702EF10D7
:1029A800E171D93537F60200130606E0896503C5DB
:1029B800018FEF00F0280965E9B7939715010145E4
:1029C800E3D207FC17A501001305C541EF900113D9
:1029D80013060064916503C5018FEF007026116529
:1029E8004DB71D71494697A501009385253B17A54D
:1029F80001001305256386CEEF00500E01E917A5E7
:102A080001001305E53AEF90610F01A037F700E0E8
:102A1800F9575CC7FD571CCB8566B7E700E023A0D4
:102A2800D7101306701010C3B8434146B0C323A093
:102A3800D718B8C3010001001306C0038145480830
:102A4800EF00B003972700209387877B3ECA8967EA
:102A580093870780231CF100ED47A301F102930738
:102A6800A0102312F102D1472303F102A167938733
:102A780007E03ECE97070000938747E2BEC497075A
:102A88000000938767E3BEC685472304F102B54774
:102A98002308F10297F7FFFF938747F23EDAB7F56D
:102AA800070097070000938747E53EDE81469707B2
:102AB80000009387A7DB7000E1051945BEC0971099
:102AC8000020E780200B58088147994670003E9601
:102AD8000346060085070507A30AC700E398D7FE43
:102AE800D24791C70357810185676373F70001A037
:102AF8004808EF00F04EAA8501C917A50100130583
:102B0800652CEF80116E01A0F6402561828041118D
:102B180017050000130585E506C622C4EF00D04856
:102B28001384018F2300A4002928034504002244AC
:102B3800B24037F60200130606E0896541016F00CE
:102B48003010411106C6B7170040130770052380DF
:102B5800E704130780FA2380E70403C7F702137713
:102B6800A70FA387E70203C7F70213672700A38706
:102B7800E702DD391305407E814701478146054656
:102B88008545EFE0BFC1B240014541016F00306D9E
:102B980082807D15954763E7A70C17A701001307E7
:102BA800A7240A053A951C41011106CEBA978287D7
:102BB8002C0013054030EF50D1692C000545EF304B
:102BC800900E17A5010013052525EF8031738DA8F8
:102BD80017A5010013054525CDBF83D7A5000D66B0
:102BE80013060620914503C56185239AF184EF00F9
:102BF800300517A5010013052524C1BF17A501003D
:102C080013054524D9B783C72500114717A5010027
:102C18001305C5246380E70419476396E70283C553
:102C2800650017A5010013052525EF80915B8547F1
:102C380030008545130550302304F100EF50316F03
:102C4800F240056182801547E393E7FE17A501006E
:102C580013054524EF80916AD9BF17A50100130514
:102C6800E524A5B7828001112305A100340021467F
:102C78008545014506CE23140100A305010002C6BF
:102C8800EFF08FD9F24005618280411106C622C457
:102C98003A883E8795EA32830D661306D6A42A8EB3
:102CA800AE88834608006319C30089476396F50018
:102CB80085473544639EF6022244B2401A86C6858B
:102CC800728541016FF03F9D85476398F600224465
:102CD800B240C28641016FF0BFA1894701446399A0
:102CE800F6001306401F894503C56185EF0040754E
:102CF8002285B24022444101828041119397050107
:102D080022C406C6C1872E8463DD070003C561851A
:102D18003D2C11C1C12A2165218DB24022444101B7
:102D2800828093F7150013C51500E5FB93F745005E
:102D380099CF83C761851307401F81462146A14566
:102D480003D54185EF50312B13454400F9B793F76C
:102D580025000145F9D303C57185313783C77185CE
:102D6800850793F7F70F7147636FF7000145A38B4A
:102D7800F184D53D1306007D894503C56185C925C4
:102D88001345240059BF9147D5B701111705000015
:102D98001305E5F606CE22CC26CAEF00F020938470
:102DA800618505442380A4007000854513055030D3
:102DB80023068100EF50B157138641849D451305C2
:102DC8006030EF50D15617260020130626F9F54536
:102DD80013057030EF50B15517A6010013064602CF
:102DE800D5450145EF30F05F8D47700091451305DB
:102DF80070402305F10023048100A305810002C669
:102E0800A3040100EF40112430008545130500405C
:102E1800EF40512313069100854513051040EF40FC
:102E280071221306A100854513052040EF4091212A
:102E38001306B100854513055040EF40B12099476E
:102E48007000854505452306F100EFE03FE0EFF00F
:102E58000FF497250020938565EF1385C184EFF063
:102E68006FBA03C504008545C929F2406244D244BB
:102E78000561828041111305800406C69710002061
:102E8800E78020A8371700408327870A8D45130558
:102E9800002093E707202324F70AEFE07FA3EFE061
:102EA800DFB717A501001305E517EF803145153E7B
:102EB800B939EF50916DEFF08FAEC13D97100020FA
:102EC800E7802004E5BF23AC05FE1C4191E7010023
:102ED80001000CC18280BA8703A787FF6DFF23AC6E
:102EE800B7FE82801DC18346E5FF1307F00F9147A7
:102EF800639EE600411106C697200020E780409FA8
:102F0800B24081473E854101828095473E85828057
:102F180001E9014582800145B24022444101828095
:102F2800411122C42A84210542059305D004418118
:102F380006C697200020E780009271DDFD57232008
:102F48000500231285002303F5002105F1B7138737
:102F5800818F1C43411122C426C24AC006C60144BF
:102F68000149BA8489E7A16589250DC401A803C769
:102F7800E7FF6318A7021DC8A165C12698408327EB
:102F880084FF6317E40223ACF18EFD57232C04FE63
:102F9800230FF4FE2285B2402244924402494101A3
:102FA800828011E03E8983A787FF6DBF3E84E5BF1D
:102FB800232CF9FED9BFA9C9411122C406C62A8407
:102FC8009747002083C797A72E856368F400193FA9
:102FD8000D45B24022444101828083A785FF99E7CD
:102FE80003C7E5FF9307F00F6305F700E53D1545B7
:102FF800CDB7238F85FE1385818FF1352285224435
:10300800B240A165410115AE1545828023AC018E01
:1030180082809387C1909C4399E33E85828003D741
:1030280027006316B70003C70700E308A7FEDC47BD
:10303800E5B74111939705014AC006C622C426C2C6
:10304800C1872E8963DE0700193711C1613D2165EB
:103058003345A900B240224492440249410182808A
:10306800AA860145E5D901443D47B3578940858B78
:1030780095CB938741908443BD4791E28147A297BE
:103088008E070545BE9433158500131405019C4031
:10309800C8404180829723A0040023A2040033453E
:1030A80024014DBF0504E312E4FC0144CDBF97475A
:1030B80000209387E7949C53411122C406C61384C9
:1030C800818595C7829723ACA1840840B747030040
:1030D8009387D73F3305F502B7A72600938737ECC8
:1030E800B24022443E9523ACA18441018280974797
:1030F80000209387A79418409C4BBA9723ACF1847F
:10310800E9B79387C18F90439746002083C61693EB
:10311800814713F7F70F6360D70A17470020034763
:1031280097A7914763E0E70A9747002083C747AB13
:10313800918BC9EB0111680006CE22CC26CAEFB0EC
:103148007068FD56630FD50C32479747002083C738
:10315800578C63F3E70C174700201307278E404767
:10316800174700200347078B6305D406058B21CF3B
:1031780051473304E40263F1870A97100020E7807F
:1031880000FAB2476373F400A28717470020034789
:103198005788998F3E95974700209387678683873E
:1031A800470163CD0702B707C0A86369F502B707EF
:1031B80040573E9525A08507139717003297035768
:1031C800E7FF21DB8280130790023304E4020580C5
:1031D8005DB762076187635707001D8D19E93705D9
:1031E800C0A801A8E37BF5FE3707C0A8B307F740DE
:1031F8003E95974700209387A780DC53829709ED77
:10320800974700209387C7989C4F99C7EF003126AE
:10321800EF00917EEF00111AF2406244D24405613A
:1032280082809747002093876781DC47E386A7FE63
:10323800173700201307C77C83464701BA84858A5D
:103248009DC65144338487029737002083C7777C13
:10325800E3F487FC97100020E78060EC97370020A4
:1032680083C7377B1D8C2295838744011DBF1304B8
:103278009002338487020580C1BF2A9609E58280BF
:103288000505A30FB5FEE31DC5FED5BF814733076E
:10329800F5000307070019E33E8582808507C5BF4F
:1032A80001112E8626CAAA84131506019305F00477
:1032B800418122CC06CE32C697100020E780A05963
:1032C8002A8419C53246A68597100020E780A0BF3A
:1032D8002285F2406244D2440561828081476314AA
:1032E800F600054582803307F5008507B386F500AB
:1032F8000347070083C6F6FFE383E6FE01458280A5
:103308009307F6FFBE952A966313C5008280FD15C4
:1033180083C715000505A30FF5FEFDB7814711E921
:10332800014582803307F50003470700E31AB7FE1B
:103338008507E319F6FE054582809737002083C785
:10334800F76F637FF5001387C18F93171500084344
:103358003E9583570500DD8D2310B5000145828019
:103368000D458280FD57011117370020232EF76C79
:103378009387C19022CC804326CA4AC84EC652C4FD
:1033880006CE56C22A898144973900209389496715
:10339800173A0020130A8A6A184481476374E900BF
:1033A800B307274103A749021CC409CB0327CA0056
:1033B80063F6E700173700202328F768A1E3835551
:1033C80024009DE55C44A1E423A6F190832AC4006F
:1033D800228597100020E780A051568455FCF240C2
:1033E8006244D2444249B249224A924A05618280E3
:1033F8000345040099375C4081CB1CC483572400E3
:10340800F1D3A2844044D9BF1C44CDDFC5BFDCC47E
:1034180075BF9737002083C777626371F5021387FA
:10342800C18F93171500084393C5F5FF3E95835741
:103438000500FD8D2310B500014582800D45828071
:103448009737002083C7975F6364F5000145828042
:10345800411122C426C24AC006C62A842E89B284D3
:103468004D3E01C504C505452DA0936504F0C20570
:10347800C181414597100020E780E03D0DE1973775
:1034880000209387E7579C5B81C7A28511458297E7
:103498000145B24022449244024941018280938707
:1034A800C1909C438DE323A6A19085472326050060
:1034B80004C52311250123008500A300F50023225C
:1034C800050055B7BA87D84775FFC8C7F9BF45C5BE
:1034D80039715AD0138B419022DC26DA4AD84ED65D
:1034E80052D45ECE66CA6AC86EC606DE56D262CCB2
:1034F8003689328AAE89AA8401445A8DB94D854BE2
:10350800F94C03270B00131C3400937AF40F6297CD
:103518001C43A9EF13B5FA0013451500B3978B00A8
:1035280063F65D01930714FFB397FB0093950701BA
:10353800C181528631371DC983270D000145E297A5
:1035480084C323A237016304090023005901F25000
:103558006254D2544259B259225A925A025BF24BDF
:10356800624CD24C424DB24D216182800504E31A6F
:1035780094F92145E9BF09458280411122C426C238
:103588004AC006C6AA842E8932845D3DCA8526852E
:10359800EFF03FA809C940C10145B2402244924416
:1035A8000249410182802145CDBF411122C426C272
:1035B8004AC006C6AA842E89EFF0BFA52A8419C17D
:1035C80023110500CA852685A935014511E019454D
:1035D800B240224492440249410182807547636B9C
:1035E800A704138741901443411126C29314350050
:1035F800A696944222C406C6AA873A84094595C667
:1036080013B5F7003947134515006373F700C5175D
:103618008545B395F500C205C181413F1C40014570
:10362800A69723A0070023A20700B2402244924491
:103638004101828009458280411106C6EFF07F9DD5
:1036480009C50845B240410182800145E5BFF547FB
:1036580063EDA704938741909C4313173500BA97ED
:103668009843894721C7011126CA06CE9334F5002D
:1036780022CCB94793C4140063F3A7004515054449
:103688003314A400420441802EC62685A2856D37D6
:103698008947324609C5A28526855D338147F240B0
:1036A8006244D2443E850561828089473E85828096
:1036B8002390A1902391B1908280411106C623A442
:1036C800A1900295B2409737002023A3A73801455F
:1036D80041018280994763E9B7008A05973700203E
:1036E8009387C737BE9588C18280411106C622C418
:1036F80026C2EF50817071468145173500201305A9
:10370800E535A53E173400201304443313060002A0
:10371800228581459D3623A6019023A401909737E1
:10372800002083C7A72F13D527008D8B3E958D4783
:103738003305F502994793051010938401913505D7
:103748001375F50F2301A4003305F5021305050FC2
:1037580097100020E780201023A2A190834724001F
:103768001305050F88C08A073E9523AEA18EEFF09A
:10377800FF89A12683471400984017060000130606
:10378800868B93962700BA9690C293862700850762
:1037980093F7F70FA300D400B24022448A07BA97E0
:1037A80090C39244410182809737002083C717292C
:1037B800173700200347A72863F1E7021387019111
:1037C80018439386170017360020A309D626939628
:1037D8002700369708C33E8582809307F00FE5BF20
:1037E8001C416387071441777D8FB70600208947FE
:1037F8006311D71403574500630D0712411122C402
:1038080019462A849305F00F590506C6EFF01FB133
:1038180005478D476309E5101306C0038145173531
:1038280000201305E51DEFF05FA51306C003A28570
:10383800173500201305C51C97000020E780A068F5
:10384800173700200357871C973700209387471B9B
:1038580019E713070020973600202399E61A17372F
:1038680000200347C71A11E7054797360020238031
:10387800E61A173700200347971911E76D4797365F
:103888000020A386E618173700200347671811E7BA
:10389800154797360020238DE61617370020034773
:1038A800371711E7054797360020A383E616173721
:1038B80000200347371619E703C70701973600208A
:1038C800A38AE614173700200347A71411E75147C6
:1038D80097360020238FE612173700200347271456
:1038E80019E71307800297360020238AE612173754
:1038F80000200347171219E71307D0029736002054
:10390800A389E6100347D40111E709479736002039
:10391800A386E6109C5791C7829797370020239279
:10392800A712E1338147B24022443E85410182809B
:1039380089473E858280011122CC06CE2A842EC674
:10394800EFF0EFF6B245F240818D33A5A50222953E
:1039580062441375F50F05618280011122CC06CEF1
:103968002A842EC6EFF0AFF4B245F240818D33A51C
:10397800A5022295624442054181056182800111B8
:1039880022CC06CE2A842EC6EFF06FF2B245F24062
:10399800818D33B5A50222956244056182809737EF
:1039A80000209387E705985725C3411122C426C2F2
:1039B80006C6BE84029717370020035787082A8453
:1039C80041C7BA876373A700AA87C207C183BA86AB
:1039D8006373E400A286C206C182958F514763557E
:1039E800F706DC5491C382978547173700202305D3
:1039F800F71AEF00A16C9737002023948704B24090
:103A080022449244410182809737002083C7C71817
:103A18009DE7973700209387A71783C797008507E7
:103A280093F7F70F17370020A308F716A18B9DC748
:103A38008547173700202311F7166F00E16D973778
:103A48000020A38B0714D5BF9737002083C7C7145E
:103A5800DDD72244B24092444101C5B782809737EE
:103A680000209387E7F9D857011122CC06CE3E846F
:103A780001C72AC60297324509CD23AAA190170586
:103A880000201305456B1539F24062440145056174
:103A980082808307440163DD07009737002023AB4A
:103AA80007FA970700209387A76323AAF190C1BF5D
:103AB800970700209387A766CDBF011122CC173442
:103AC80000201304E4F3084406CE26CA19E5054588
:103AD800F2406244D244056182805C58EDDB185C98
:103AE8007DD77000854582971844B247E301F7FEF9
:103AF8008357C40017350020034565F19305E0049A
:103B08003305F50297340020938444F3420541813C
:103B180097100020E78020D417370020232EA7F223
:103B28005DD59737002083D767EE17360020034608
:103B380006EE3306F6029305F00FEFF00FF4D04CC3
:103B480008449737002083D767EC08C297350020D0
:103B580083C5E5EBB385F5021C5C89818297C84C67
:103B680097100020E780C0D801459737002023A58B
:103B780007EEB9BF411122C417340020130444E8EA
:103B88001C4426C206C697340020938424EBADCB90
:103B98001C5CBDC7DC4C8DE78357C400173500207B
:103BA8000345E5E69305E0043305F5024205418146
:103BB80097100020E78020CA9737002023AEA7E897
:103BC800C84C1DCD9737002083D747E4173600200F
:103BD8000346E6E33306F6029305F00FEFF0EFE94C
:103BE800D04C08449737002083D747E208C297355E
:103BF800002083C5C5E1B385F5021C5C89818297E5
:103C0800C84C09C997100020E78080CE973700205C
:103C180023A407E4B2402244924401454101828032
:103C2800011126CA97340020938444E122CCC04C69
:103C38004EC652C456C206CE4AC8AA8AAE89328A2D
:103C480031EC173900201309A9DB8327890099E390
:103C5800A94471A08357C90017350020034525DB07
:103C68009305E0043305F5024205418197100020D1
:103C7800E78060BE2A8441C583274903C9C39735B5
:103C8800002083C5C5D817370020035727D8B38528
:103C9800E5022A86032589008981829791451307C1
:103CA800A005898193972500A29783C6070063958D
:103CB800E60483C61700639E560385058A054E866B
:103CC800A295528597000020E780E01FDC4C8144D4
:103CD80063878700228597100020E78060C1F24043
:103CE800624426854249D244B249224A924A056131
:103CF800828083D5270075B7DC4CE38B87F4228557
:103D080097100020E780C0BEA1B79737002093879F
:103D180027CF984729CB9C5FB9C785466315D5043B
:103D2800411122C417340020130444D1504C06C654
:103D38001DC69736002083D666CD9735002083C5EB
:103D480005CDB385D5023A8589818297484C97106D
:103D58000020E780E0B99737002023AF07CEB240B4
:103D6800224441018280828097370020938707CDC3
:103D7800D84F011122CC26CA4AC852C406CE4EC614
:103D88002A89AE8432843E8A35E7973900209389A0
:103D980029C783D7C90017350020034545C79305B0
:103DA800E0043305F5024205418197100020E780C1
:103DB80080AA9737002023A1A7CA2A8611E9294596
:103DC800F2406244D2444249B249224A05618280A3
:103DD80003A5890005C183A7490389CF973500202A
:103DE80083C5E5C217370020035747C2B385E502EC
:103DF800898182970325CA0191461308A005FD55BC
:103E080093D72600C207C183139727002A97034632
:103E18000700631B060383481700035627006393B4
:103E28002803B306D64063CD960085078A073E95DA
:103E38002686A28597000020E780E008014549B75B
:103E4800A300B700B2866DBF17360020035606BC24
:103E58009735002083C5A5BBB385C5023386960078
:103E68001106E3EEC5F413863400719A1106B29672
:103E780023000701A30027012311D7007DB7973737
:103E880000209387A7BBD44F8DCE91471306A0057A
:103E98009305F00F89838A07B69703D7270003C5D0
:103EA800070009830A073697631DC50003451700F5
:103EB8006316B500035727002391E70083D727002F
:103EC800D1BF01458280011106CE2EC6EF70803722
:103ED80001C9B245F2400355250005616FA060593C
:103EE800F240494505618280A380019423800194B2
:103EF80023A4019223A6019223A8019223AA019246
:103F080023A2019223A00192973700209387C7B676
:103F18003707B40098C33747A000D8C33707100045
:103F28009306070A94C7B7065000C106D4C793067C
:103F380007054107D8CB3707D007410798CF370780
:103F4800840398D337C70700130707B8D8D3416746
:103F580094CB93060701130717F8D8D7417723AEF8
:103F6800070094D798DB8280011126CAAA842145CC
:103F780022CC06CE2E8432C636C43AC2EFE05FF9B0
:103F88001DC9A24612473246930700FD2300F500DB
:103F98009947A30095002301F5002303D500A30347
:103FA800E5002312C500AA8522856244F240D24466
:103FB80005616FF04F80F2406244D244056182800F
:103FC80023A4A192828023A6A192828023A8A192F1
:103FD800828023AAA1928280011122CC4AC806CEEF
:103FE80026CA2A890144B30489006368B400F240F0
:103FF8006244D2444249056182802EC6EFF02F8B7D
:1040080093170501C183A183B2452380F400930768
:10401800140093F7F70F850463F9B700CA970904EA
:104028002380A7001374F40F7DBF3E847DBFC16752
:10403800173500200355E5A7FD176302F502411166
:1040480003C6C19C9385819306C6EF706009B24090
:10405800FD5717370020231EF7A441018280828074
:1040680009C925151375F50F1335850E1345150068
:1040780082800145828023800500F94763E2C708F2
:10408800797122D426D24ECE56CA5AC806D64AD0FC
:1040980052CC5EC63684B289AE8A2A8B814463FFCD
:1040A8003405B307940003CA070013891400137971
:1040B800F90F63050A04B3072A0163C1F904B307BA
:1040C800240183CB07005E85613F0DC99307FAFF82
:1040D8002380FA0063906B03130519002295B250F0
:1040E800225492540259F249624AD24A424BB24B84
:1040F80045618280D29493F4F40F55B70145C5B752
:1041080001458280411126C2AE8422C4973700201F
:1041180023A8C79A9737002023A2B79A9737002079
:1041280023ACA7982A8441469305F00F26854AC0F8
:1041380006C60549EFF08F9E631E250397370020BA
:104148009387C796884BC145413D41469305F00F7B
:104158002285EFF0AF9C8544631695022244973779
:1041680000209387A794B24092440249C847C145AA
:1041780041019DB5414681452685EFF02F9AE3160A
:1041880025FD6DBF414681452285EFF02F99E30754
:1041980095FCB24022449244024941018280411177
:1041A80022C426C22E84AA8413060002814517352C
:1041B80000201305A58F06C6EFF02F8C9737002037
:1041C800A387978EA387819CEFA0202C854719C1D0
:1041D80081474945B2402244173700202308F78C0D
:1041E800924441018280814781CD19C98547631B6B
:1041F800F50083C7550093E707FCA382F5008547C0
:104208003E85828089476317F50083C7550093F779
:10421800F703E5B70D478547E314E5FE03C75500E7
:104228001377F70313670704A382E500D1BF81471B
:104238008DC105C103C755009306000C8547137748
:10424800070C6308D700930600048D476303D70063
:1042580089473E858280411122C4005D06C626C278
:104268001DC8AA84085009C597000020E780406847
:10427800485009C597000020E7808067085409C5A1
:1042880097000020E780C066228597000020E7801D
:10429800206623AC0402B240224492444101828049
:1042A80009ED9737002083C787801735002013054D
:1042B800658181CB13858191828017350020130594
:1042C80065808280172500200345657E82809727B8
:1042D80000209387A77DC84782809727002093876F
:1042E800E77C884B8280972700209387277CDC4BCC
:1042F80088438280972700209387477BD84B1C43AD
:1043080085071CC3172500200345757A9307F00F0E
:104318006305F50091656FF04F828280011122CC10
:1043280006CE2E8432C6EF7020019147B245631F36
:10433800F500938741939C438DC303A30700630E45
:10434800030022856244F240056102839387C1928B
:104358009C4381C703A34700DDB7F240624405458B
:1043680005618280011122CC2A840355450006CEBE
:1043780026CA4AC84EC6EF60706435C52A89834488
:1043880005008349C500C13D4A85EF707054035547
:104398004400EF60F07583C70194B1CB639997042B
:1043A80083C511942685EFF01FB219E1238001948B
:1043B80003554400EF6050789147631FF500035799
:1043C80044009727002083D7C76E6317F700FD576F
:1043D80017270020231FF76CF2406244D244424959
:1043E800B2490561828081499304F00F6DB7930744
:1043F800F00FE38FF4FA8346640003564400034544
:1044080024004E87A685EFF03FB65DB779715EC68A
:10441800AA8B2E8552CC56CA5AC806D622D426D282
:104428004AD04ECEAE8A328B368AEF6030596DC193
:10443800045D2A89F1CC9C50614599C3130540035A
:104448009C5481C751054205418163050A007105E5
:1044580042054181DC5081C7590542054181EFE0A1
:104468003FAB2A8455C561468145EFE01FE1972996
:10447800002083C96963639409008349090093078D
:1044880000FD2300F400A947A30074012301F400F0
:10449800230364018C50231254011305840191C92C
:1044A80008C47146930A440397000020E780A0A13E
:1044B80056858C5491C948C45146930A45019700C2
:1044C8000020E78040A05685630C0A0008C87146A2
:1044D800D285930AC50197000020E780C09E5685C3
:1044E800CC5099C548C8594697000020E780A09D40
:1044F800A2854E85EFE03FAC2254B2509254F24967
:10450800624AD24A424BB24B4A8502594561A1B32D
:10451800B250225492540259F249624AD24A424B4A
:10452800B24B4561828001114EC6AA892E854AC8C0
:1045380006CE22CC26CA2E89EF60504831C5972472
:10454800002083C4645699E0834405001945EFE0D0
:104558003F9C2A8415C981451946EFE01FD293076D
:1045680000FD2300F400B947A30034012301F4003F
:1045780023122401A2856244F2404249B2492685A9
:10458800D24405616FE03FA3F2406244D2444249FD
:10459800B2490561828039715ECEAA8B2E8526DAF2
:1045A8004ED652D456D25AD006DE22DC4AD8AE8431
:1045B800328BB68A3A8ABE8942C6EF60304031C92A
:1045C8002A894145EFE0DF942A8421C54146814587
:1045D800EFE0BFCA172500200345054D19E1034543
:1045E8000900930700FD2300F400BD472301F400F0
:1045F800B247A30074012312940023046401A304A6
:10460800540123054401A30534015CC4A285EFE0ED
:104618009F9AF2506254D2544259B259225A925A2D
:10462800025BF24B21618280797126D2AA843945D6
:104638004AD04ECE06D622D42EC6B2893689EFE0AD
:104648003F8D21C1B2459307000D2310F500B147F6
:104658002A842312B5002301F500CE8519051946D1
:1046680097000020E780208623062401A285225493
:10467800B2500259F24913F5F40F925445616FE0B4
:104688009F93B250225492540259F2494561828054
:10469800172700200347B7419307F00F630DF7066C
:1046A800411126C2AA84394522C406C64AC0EFE091
:1046B8003F862A8439C9930700FD2300F500A3002B
:1046C800950023010500972500209385A53F0D053A
:1046D800194697F0FF1FE780007F1729002013096C
:1046E800E93C83578900A285172500200345353CFE
:1046F8002315F400834719002306F4002244B2402E
:104708009244024941016FE01F8BB2402244924417
:104718000249410182808280011156C2AA8A31452C
:1047280026CA4AC84EC652C406CE22CCAE84328AA5
:10473800B6893A89EFE0CFFD29C92A842685EF603A
:10474800F0271DCD03450500930700FD2300F40065
:104758009D47A30054012301F4002312940023135E
:1047680044012314340123152401A2856244F24034
:10477800D2444249B249224A924A05616FE0BF8356
:10478800172500200345B532C1B7F2406244D24430
:104798004249B249224A924A05618280397162CC03
:1047A8002A8C594526DA4AD84ED652D456D25AD0EF
:1047B8005ECE06DE22DCAE8432C636C4BA8B3E8BB1
:1047C800C28A468A8359010403494104EFE04FF441
:1047D80035C53246930700FDA2462300F5009547EC
:1047E800A301C500A30085012301F5002A84194609
:1047F8001105A9C2B68597F0FF1FE780C06C230694
:104808006401230A24012315740123175401231872
:10481800440123193401A2856254F2504259B25915
:10482800225A925A025BF24B624C2685D25421617D
:104838006FE06FF88145EFE05FA4D1B7F2506254A2
:10484800D2544259B259225A925A025BF24B624CE4
:10485800216182809727002083C767258DCB41116E
:10486800AA8519461385819106C697F0FF1FE78030
:104878008065938581911725002003454523EFF036
:104888009F96B2401385819141016F9090400145F8
:10489800828017270020034797219307F00F6305AD
:1048A800F708411126C2AA84294522C406C6EFE0AA
:1048B8002FE62A8429C1930700FD2300F500A147AC
:1048C8002301F500A3009500972700209387071E72
:1048D80083C72700938581911105A30FF5FE19461B
:1048E80097F0FF1FE780205EA2851725002003456B
:1048F800151CEFE04FEC172700200347471B8D4797
:10490800631FF700938701939C4391CB03A3870010
:10491800630703002244B240924441010283B2403B
:104928002244924441018280172700200347271818
:104938008D47631AF700938701939C4389C703A3A4
:104948008700E31D03FC8280797122D406D626D223
:104958004AD04ECE52CC094445C92A890355050090
:104968002E8A5144EF609005AA8459CD83C7F19CE3
:10497800FD1793F7F70F054749446377F70803478F
:10498800C500A1476314F70063100A089C5C4544FE
:10499800A5EF9165938545711305C0029700002026
:1049A800E78060EB88DCAA894D4439CD1306C00244
:1049B8008145EFE09F8C835709009386490036852F
:1049C8002391F90071469305490036C697F0FF1FF9
:1049D800E780604F89472380F90003C5C400B246C9
:1049E80003560900611583C5C19C13351500EF9066
:1049F80040092A8463060A00D2852685EF7070185C
:104A080001C42685EFF03F852285B2502254925486
:104A18000259F249624A4561828083C7F19CFD17B9
:104A280093F7F70F05476378F708894751C60111CF
:104A380022CC26CA4AC84EC652C406CEAA89368A8D
:104A4800B2842E89EF6080772A84D14729C94855D6
:104A580009C597000020E780A0E9F1452685EFE029
:104A68003F8448D4CD4705CD8346C40021478147BC
:104A7800639FE600630D0A000347A501035605017D
:104A880093062501AA854E85EF708007AA870347FC
:104A98004400630F0900136767002302E400F24033
:104AA8006244D2444249B249224A3E850561828025
:104AB80013674700DDB7C9473E858280E14763EB4E
:104AC800A70097270020938727FB06053E950355E7
:104AD8000500828041657D158280011122CC2A84DF
:104AE8002E8526CA06CEAE84EF60406D0DCDB74741
:104AF8000F009387F723094563E2870281450A85FA
:104B08004146EFE08FF7A685231081000A85418092
:104B180023018100A3010100EF801059F240624493
:104B2800D244056182804945D5BFA386A19C828075
:104B38006F80F06D797152CC2A8A328522D426D2C0
:104B48004AD04ECE56CA5AC85EC606D662C4AE8B86
:104B5800B28A368BBA843E89C2894684EF60006681
:104B680015C92A8C63140A0213774B008347450042
:104B780015CF93E727012302FC008DEC631C090283
:104B8800639A090205E8ED9B2302FC00832B8C0342
:104B9800639F0B06B250225492540259F249624A5A
:104BA800D24A424BB24B224C45618280F59B93E737
:104BB8000701D1B793E747002302FC0001CC1C484A
:104BC8004146A2852324FC0213058C0197F0FF1FA0
:104BD800E780602F63910B02D5D80325CC0209C565
:104BE80097000020E780C0D0F1452685EFE04FEB25
:104BF8002326AC0261BFE30B09F80325CC0209C5E3
:104C080097000020E780C0CEF1454A85C5B79DC40E
:104C180083A70B0299EB91659385357171459700D0
:104C28000020E78040C323A0AB0203A50B0219C5EF
:104C38007146A68597F0FF1FE780E0286388090280
:104C480083A74B0299EB9165938525715945970088
:104C58000020E78040C023A2AB0203A54B0219C580
:104C68005946CE8597F0FF1FE780E0251DC483A72E
:104C78008B0299EB9165938515715145970000203A
:104C8800E78060BD23A4AB0203A58B0219C551467A
:104C9800A28597F0FF1FE78000232254B250925458
:104CA800F249B24B224CCA865A860259424BD685E3
:104CB8005285D24A624A45616FF04FF5011126CA02
:104CC80052C406CE22CC4AC84EC62A8AAE84EF60A9
:104CD800E04E25C5AA893945EFE08FA32A8431CD56
:104CE80017290020034949DC6314090003C9090096
:104CF8009307000D2310F400AD472301F4009385BA
:104D0800690013053400194697F0FF1FE780A01BC0
:104D180093F71400858085882306F400A306940081
:104D280023154401A2856244F240D244B249224A82
:104D38004A85424905616FE00FA8F2406244D244B7
:104D48004249B249224A0561828093870192884389
:104D580001CD411106C697000020E78060B9B24036
:104D680023A00192410182808280011106CE22CCCB
:104D780026CA4AC82EC6EF60604439CDB245172905
:104D88000020034969D2AA840CD563140900034999
:104D980005004145EFE0CF972A841DCD9307000D0C
:104DA8002310F500A5472301F50083C75400938518
:104DB80064001105A30FF5FE194697F0FF1FE78061
:104DC80080109C54A285F2405CC46244D2444A8557
:104DD800424905616FE02F9EF2406244D244424945
:104DE80005618280797122D406D62A842EC6EF60A6
:104DF800E03C0DCD8346C5001147AA87494563931A
:104E0800E6029C5FB24599C383C567010808EF7045
:104E18004060978600009386C6E51008894522857C
:104E2800EF60D052B2502254456182805145DDBFB7
:104E380083C7F19CFD1793F7F70F0547637AF704CB
:104E4800894721CA411122C426C24AC006C6B28473
:104E58002E89EF60A0362A84D14705C5630809006A
:104E68008347450093E727002302F5004146A685BE
:104E78001305840197F0FF1FE780E0049C481CD4C9
:104E88008147B2402244924402493E8541018280D2
:104E9800C9473E858280797122D406D62A842EC6D7
:104EA800EF60C03101CDB2452285230EB1006C08F8
:104EB800EF70A049B2502254456182805145DDBF50
:104EC8006F60403DC1671387E7FF6394E5029387EE
:104ED800C1929C4391EB494582804945B2402244A6
:104EE800924402494101828003A30700E30503FEBF
:104EF8000283411122C426C24AC006C6FD172A8968
:104F08002E84B2846395F5029387C1929C4391CB1A
:104F18009C4381CB829711E523802195A3809194AE
:104F280075BFA6854A85EFE01FFA4DF9F5B72E85BE
:104F3800EF60C0285DD1834705000D45E39027FB4E
:104F480022852244B2400249A685924441016F90CD
:104F5800405261476362A7044111416722C406C6F3
:104F680026C27D172A8409456383E502C547AE84B6
:104F78006315F4002E85EF904057931714001724FB
:104F88000020130464AFA297239097000145B24014
:104F9800224492444101828009458280011106CE53
:104FA8002AC6EFE07FF4EF102004EF002076EF3000
:104FB800511F324597270020938747AF130700F00A
:104FC8002391E700238207007D579387C19CA38024
:104FD800E7002380A700F240954505616F405040E7
:104FE8005D7193970501CAC086C6A2C4A6C24EDEEB
:104FF80052DC56DA5AD85ED662D466D26AD0C187F5
:105008002E8963D8074C03C5C19CEFD05FF489642F
:10501800416A856A797B2A84938BD4007D1AA50A14
:10502800691B15E021653345A900B640264496441E
:105038000649F259625AD25A425BB25B225C925CD0
:10504800025D61618280834704001307200A639D23
:10505800E70003552400172C0020034C5CA522868A
:10506800D285EFF0AFAB3DAA1307100903CCD19C52
:105078006397E716834714001547639EE700228568
:10508800EFF04FAE2285EFD0FFE503C5C19CEFD00E
:105098001FEC2A8479B739476399E716035544000A
:1050A800631B55050C4483C90500639D09008505EC
:1050B80091C91946172500201305C5A097F0FF1FB1
:1050C800E78060E0172700200347479E854763185D
:1050D800F710638A0900972700202389079C4E85CB
:1050E800EFF00FDB45B78947172700202300F79C0F
:1050F800EF90E03941BF93872400631AF5068329AE
:105108008400638E090C83C709008DE383C72900D7
:1051180003C71900A207D98F17270020231CF79867
:1051280083C7390017270020A302F7981727002004
:105138000347C79789476314F70A83C7090081CBD8
:10514800972700202384079603C5090051BF8D4780
:105158009725002083C5959517250020035585952B
:10516800172700202304F794EF40902AF1BF938774
:1051780054006318F5001C4403C50700EFF06FF1F5
:1051880011B7B3076501C207C1831147636FF70001
:10519800938701939C43E38707EE9C43E38407EEE0
:1051A80022858297E31005EE1DA89387B400631F3C
:1051B800F500938781929C43E38607EC9C43E38345
:1051C80007ECA2851385B4008297E9BF9387C400D2
:1051D8006310F5021C4483C70700E38507EA9307B9
:1051E800F00FE301FCEAA2856285EFD0DFDC71BD38
:1051F8009387E400E315F5FE9387C1929C43E3830C
:1052080007E8DC43A285E9F3B5BD3D476397E704AA
:1052180003554400E30275FF93879401E30EF5FC00
:1052280093873401E31DF5FA9727002083D7678811
:10523800639E47019387C1929C43E38507E4DC435F
:10524800E38207E4A28513853401BDBF93874193A8
:105258009C43E38907E29C43E5B71307E003E39027
:10526800E7F88347240005476396E70E8347640001
:10527800138D0192F1E383270D00D5CB03CC0700F2
:10528800A14903457400930C8400E685EFE03FFADA
:1052980083474401A303A400835804010358E4008E
:1052A800035744002A86034534003EC2835724012D
:1052B800E686E2853EC0CE87EFF04FCE83473400C6
:1052C80095E7DD47835804010358E40083467400DA
:1052D800835544003EC283572401668705463EC075
:1052E8006285CE87EF60C01AA301A40083270D0052
:1052F80081C71145EFF07FA503C50194E30405D8E4
:1053080083C51194EFE03FBCE30E05D68346340015
:1053180093071003638AF600035644004E8783C53B
:1053280001943685EFE05FC423800194A1BB171C6C
:105338000020034CDC77A9B7938701939C43171C83
:105348000020034CDC7691498DDFDC439DDB014571
:10535800829705BF29476395E70A83476400938CC2
:105368000192C9E383A70C00ADCB03CC0700A14988
:1053780003467400834704028358C401058AA303C3
:10538800C4000358A40103574400034534003EC237
:105398008357E401130D8400EA863EC0E285CE8778
:1053A800EFF0CFBF8347340095E7DD478358C4014A
:1053B8000358A40183467400835544003EC28357B2
:1053C800E4016A8705463EC06285CE87EF60400CDF
:1053D800A301A40083A70C0021BF171C0020034CC5
:1053E8001C6D71B7938701939C43171C0020034CD5
:1053F8001C6C9149B5DFDC43A5DF014582978DBF61
:105408000947639DE700938781929C43E38C07C615
:10541800DC43E38907C622858297ADB12D4763999E
:10542800E700938781929C43E38E07C49C47D5B7D6
:105438000D476397E70022868D450355440015B153
:1054480019476395E7069305610113051031EF309D
:1054580041602C0813052031EF30A15F035664002A
:10546800835781010355440063E8C70083568400CD
:105478000357610163F7E60093050002EF90E0052A
:1054880011B16374E6002313E40063F4D700231416
:10549800F4000357C4008356A400035684008355C0
:1054A800640001488147EF900003E9BE1D47E39877
:1054B800E7D203574400E3E4E7D297170020938725
:1054C800276906073E9783576400F1172310F700F2
:1054D80039B393F7150081CF938781929C4389C78D
:1054E800DC4399C301458297134519003DBE93F7E4
:1054F800250081CF938701939C4389C7DC4399C3D7
:1055080005458297134529000DB693F745000145D7
:10551800E38D07B0938741929C4391CF8547171736
:1055280000202307F758938701939C4389C7DC43DE
:1055380099C3054582979717002093872757C8472F
:105548002C08EF80801F2808EFF0CFB097170020B5
:1055580083D7A75491CB130600643386C7029145BD
:1055680003C5C19CEFD0DFED134549007DBC411157
:1055780022C42A84554506C6EFF04FD4B335A0009F
:1055880022852244B24041016F80F071797122D4A2
:1055980006D68D472E84631FF50003D7A50083D652
:1055A800850003D665000345340083D54500EFF038
:1055B800AF9609A889671387D7006310E50403C568
:1055C800250019E58547B25022543E854561828001
:1055D800938701929443FDD603C6360083C506001F
:1055E800814802C202C00148814701479106EFF095
:1055F800EF9A0545EFF06FF5F1B71387E700E3037E
:10560800E5FC13873701631AE50003C525005DD95A
:10561800014781460146814559BFE507E304F5FA8C
:1056280041677D178147E310E5FA03C75500C9476D
:10563800E31AF7F883D6E50003D6C50003558400BE
:1056480083D5A500EF80F06A51C15D45EFF00FC723
:105658003335A000231CA1008345440003552400D2
:105668003008EF50502983578101A9FF6C081305B2
:105678001031EF30013E9305E10113052031EF3081
:10568800413D8357C101035784006374F700231415
:10569800F4008357E1010357A40063F4E7002315DE
:1056A800F400835584008357A40063F4B7002315DE
:1056B800B4000357E4008356C4000356A4000355FE
:1056C800240001488147EF80105FEDBD8547231C0A
:1056D800F10059B7C1671387E7FF639DE50093871A
:1056E80001929C4395C383C707000D47639CA7009D
:1056F8006F80B05BFD1749476396F5009387019269
:105708009C43FDF73A8582804947EDBF2386019483
:1057180023AA019423A80194971700209387073B95
:10572800170700001307E74798C317070000130778
:10573800074BD8C3170700001307675B98C7938701
:10574800419417070000130727F998C317070000AB
:10575800130707E4D8C3828079714AD01389419529
:105768008327090006D622D426D24ECE52CC56CA5A
:105778005AC881EF0545B250225492540259F24951
:10578800624AD24A424B45618280034705008547F9
:105798002A846301F7040346850093069500930560
:1057A800F1000545EFE03F8D814719C183470500AA
:1057B8008346040011476387E6021387019518435F
:1057C8008D4603471700630FD70089CF01CF11E536
:1057D800014555B781470145E1BF8546631DD7049B
:1057E8008D8BFDD703451400130B2400DA85EFE0F9
:1057F8001FA4A300A400832709002A8A81499304CF
:10580800F00FB1E3834604009147E383F6FC832756
:105818000900DDDF03C6C19401479305F00FE309D2
:10582800E6FABE84C10703C507FF6301B510050783
:105838001377F70FEDB78946E31CD7F8858B55B773
:10584800850993F9F90F83C7C194E3FDF9FA032594
:105858000900939A4900569583470500E38297FE0D
:1058680083471500E39E47FD1946DA850905EFD001
:10587800FFA679D58324090003470400D694D9D01C
:105888009147631CF706C84405C58347840003464F
:1058980005006306F606034704009147631DF706F3
:1058A800C84419C597F0FF1FE780800423A60400A9
:1058B8000345840091659385E571050597F0FF1F01
:1058C800E78060F905C5034704009147631EF704A4
:1058D800C8C483478400930594000505A30FF5FE0B
:1058E8000346840097E0FF1FE780E05D03458400DE
:1058F8003335A00049B588C48DA8884471B793058D
:1059080094000505EFD09F9D8547E316F5F85545AA
:10591800EFF0CF9ABDA8884441DD97F0FF1FE780DC
:1059280020FD23A4040069B788C465B72380D40088
:1059380083471400DA8513852400A380F4001946F0
:1059480097E0FF1FE7802058034584009165938501
:10595800F571050597F0FF1FE780E0EF05C50347E0
:1059680004009147E319F7F8C8C4834784009305F6
:1059780094000505A30FF5FE0346840097E0FF1F7A
:10598800E780605483478400E39607DE03450400FC
:105998007D1513351500C5B3011122CC138441952B
:1059A8001C4006CE26CA4AC84EC652C499CF2E8A73
:1059B800AA840149084063129902630C0A0497F00B
:1059C800FF1FE780E0F223AA0194F2406244D24428
:1059D8004249B249224A0561828093194900B307B6
:1059E8003501884709C997F0FF1FE78060F01C4020
:1059F800CE9723A407001C40CE97C84709C997F043
:105A0800FF1FE780E0EE1C40BE9923A609000509A8
:105A180055B745DD139644008145EFD01F861440E5
:105A280081477D5613F7F70FE37197FA13974700ED
:105A380036972300C7008507F5B7011152C4138AAA
:105A4800019583270A0006CE22CC26CA4AC84EC62C
:105A580056C25AC0C9CF2A89014419ED9387419586
:105A6800944399CA03C6C1942A8481479305F00FC9
:105A780013F7F70F6367C708131534002105EFD034
:105A88002FC9AA8401E92145EFD08FC8AA8421C56E
:105A980001444D49930700FD2380F4008547A38006
:105AA80024012381F400A38184005DC41389840048
:105AB80023A224018149938A4195130BF00F83C7D0
:105AC800C19463F3F90031E883270A00A68503C56A
