:040000006F108019E4
:1000040000000000000000006F0080086F00E02284
:1000140000000000000000000000000000000000DC
:1000240000000000000000000000000000000000CC
:100034006F004006000000006F00E00500000000B3
:100044006F0080056F0060056F0040056F0020059C
:100054006F0000056F00E0046F00C00400000000A2
:100064006F0060046F0040046F0020046F00000400
:100074006F0060236F00C003000000006F00600386
:100084006F0040036F0020036F0000036F00E00265
:1000940001A001A001A001A001A001A001A001A054
:1000A40001A001A001A001A001A001A001A001A044
:1000B40001A001A001A001A001A001A0B717004068
:1000C400130770052380E704130780FA2380E704ED
:1000D4002396A70223800704371700408347270588
:1000E400898BEDDF835707053717004083472705C2
:1000F400898BEDFF3717004083472705898BEDDF98
:10010400035507058280B7170040930670052380C6
:10011400D704130780FA2380E70403C6B7041376D1
:10012400F60DA385C70423800704137605022DC6A4
:1001340003C6A700118A0DE22380D7042380E704B5
:1001440003C7A700136747002385E7009307004B05
:1001540001000100FD17EDFFB7170040930670057D
:100164002380D704130780FA2380E7047D8923942E
:10017400A70001000100010001002380070423807F
:10018400D7042380E7049306100537270040A30310
:10019400D780238007048280137605046DDE03C6AE
:1001A400A700418A0DE22380D7042380E70403C714
:1001B400A700136707012385E7009307007D01006B
:1001C4000100FD17EDFFB71700409306700523806B
:1001D400D704130780FA7D892380E7041365050497
:1001E4002394A700010001000100010023800704FB
:1001F4002380D7042380E704930630053727004083
:1002040079B74111814601468145114506C6AD22A3
:10021400B7170040130770052380E704130780FA1B
:100224002380E70403C76704136717002383E704E5
:1002340023800704B2404101828081460146814502
:1002440011451D2AB7170040130770052380E704E2
:10025400130780FA2380E7047D572396E70203C738
:100264006704136717002383E7042380070401A0AE
:10027400BD473305F50201007D1575FD82804111EE
:1002840022C426C206C6AA84014463179400B2405D
:10029400224492444101828005041305803E4204B5
:1002A400C13F4180DDB7B71700401307000323881F
:1002B400E702854723A4F18E7300203023030480D2
:1002C40015472303E48001002302A480828083076E
:1002D4006480E3CE07FE2303048082808307648066
:1002E400E3CE07FE03454480828083076480E3CE27
:1002F40007FE2302A4808280411126C44AC24EC054
:1003040006C61377F50BAD47AA892E899544630673
:10031400F70019456537653F8D444E854537FD59CE
:10032400FD1463983401B240A24412498249410148
:100334008280135509011375F50F453F2209CDB786
:10034400011126CC06CEB704080051371545BD3738
:10035400713769372AC6A53F32459377150089EB73
:10036400136515001375F50FF240E24405618280B0
:10037400FD14E9FC0145CDBF397126DC4ADA4ED8BB
:1003840052D656D45AD25ED006DE62CE66CCB7E7D9
:1003940000E07D5783AA070022C603AA470023A0D2
:1003A400E71823A2E718B717004013077005238046
:1003B400E704130780FA2380E70483C74704930BF9
:1003C40075FFB684E20793FBFB0F8546AA892E8B43
:1003D400328937240040E187015763FA76016308C4
:1003E400D5008946130700026313D5000157D98F3E
:1003F40093F7F70FB71C00402382FC041147230333
:10040400E4801305F00F5D3D094CD13563697C111F
:10041400B70707003E9B378707007955637EEB02D9
:10042400B3079B00636AF702A9476399F90689E455
:100434008144713D26850DA0DA850945753D050980
:100444000345F9FFFD14050B4D3581C49377FB0F6C
:10045400FDF7FD3569FD7D55B7170040130770059D
:100464002380E704130780FA2380E70403C74704C3
:10047400418B2382E704F250B7E700E023A0571131
:1004840023A24711E25432445259C259325AA25A51
:10049400125B825B724CE24C21618280A5476395BA
:1004A400F90685691309F00FB3069900B3742B019B
:1004B400B6941349F9FFB3749900856B33796901D4
:1004C400416B9387F9FFB3F7270199E363FC340188
:1004D40093D94900C147E3E637FF99BF0569C1696C
:1004E4007D19D9B71305800D6388690113050002CE
:1004F4006384790113051008CA85FD3B913521DD1C
:100504004E99B3843441D9B7DA852D45F533CA946D
:10051400E30099F20509D933A30FA9FED5BF938748
:10052400F9FF93F7F70F636CFC0803C75C04B70784
:1005340008001377070219E3B78707007955E37DAD
:10054400FBF033079B00E3E9E7F089476390F90484
:100554008980D549E38E04ECDA850945713B11099C
:100564000327C9FF91472320E48003076480E34EF7
:1005740007FE23033481FD17EDFBFD14110B81C429
:100584009377FB0FE9FF6D3B71F5F1B58547E38781
:10059400F9F4DA852D458D339389F4FFE38A04E871
:1005A400353B93F7390091EB832604800327090038
:1005B40093074900E39FE6E63E89CE84F1BFB54741
:1005C4006396F9001305900BD5399DB5B147130512
:1005D400B00AE38BF9FE9947639EF902DA852D454B
:1005E400213B81448D4BA149D539639674018327FE
:1005F40004802320F9008504E39834FF83270480D2
:1006040013172B01635507002312F90015B5232294
:10061400F90039BD9D476399F90281451305B0047A
:10062400E139BD442320090023220900FD597D310D
:1006340093F77400CA9703C70700FD14398D23800C
:10064400A700E39634FFEDB3A1476392F904CD39D3
:100654008144630D0B008D479304C0036308FB00C2
:100664009304000563048B01930440041375C507C8
:10067400E30095DC19459931993905458131268581
:10068400AD3109459D316D39E31405DAE9B391477C
:100694006399F9001305600615311539130590099E
:1006A40025B7E38709D8F15469B319CDB7170040CA
:1006B400130770052380E704130780FA2380E704F7
:1006C4002396A70223800704828019C1814799E9F0
:1006D40082803387F500834607003307F5008507DA
:1006E4002300D700E397C7FEE5B719C1FD5781E999
:1006F4008280910503A7C5FF1105232EE5FE7D1613
:10070400E319F6FEF5B7797122D417340000130407
:10071400A4A91C4006D626D24AD04ECE91C78297B1
:100724009737000023A207A85C4089CB03D5418FEB
:10073400AD3F5C40829703D5618F853F1C40639C2D
:1007440007189737000083C7B7B9858B95C79737C4
:100754000000A38707B817370000034797B89147ED
:1007640063FCE7007D2B9737000083C797B7F91721
:100774008A07A2979C4382979737000083C707BBD9
:10078400918B89C7970001E0E78000211C4491C345
:1007940082979387018F9843173600000346D69EAD
:1007A4003E89973400009384249E9737000083C7C2
:1007B400A79D93961700BA9683D606006383061006
:1007C4009737000083C7479C63FBC70686073E979D
:1007D400835507002310070003D5418F2EC6F1353A
:1007E400938741909C43173500000345E5991317FF
:1007F4002500BA979C43B2458297AA8903D5618F95
:100804006D359737000083C7279813971700832700
:100814000900BA9703D70700B3E9E9002390370129
:1008240083C70400850793F7F70F17370000230DDC
:10083400F794173700000347379563E6E7009737C7
:100844000000238307941C40D9E79387C18F984302
:100854003E8451C39737000083C7F7A891CB9737DD
:10086400000083C717A889E7970001E0E78060D7F5
:100874001C4082972A8425C19C48AA9717370000F8
:10088400232CF790938701909C43B1C703D5418FE4
:10089400293D228597F0FFDFE7808021973700000C
:1008A4009387C78ADC5389C797F0FFDFE78020FA74
:1008B4002254B25092540259F24903D5618F4561D2
:1008C400EDB3850793F7F70F97360000238EF68A6A
:1008D400E3EDC7ECF5B5B250225492540259F249F3
:1008E400456182809167B7C600409387373023A65D
:1008F400F6200F100000973700009387E788884F91
:100904009387819E9C43316713073730F053B707B1
:100914001000FD17918F99833A0523A6E6205D8D7B
:1009240082804111B7170040985F3AC6945F3247FE
:10093400E39CE6FE324541018280411106C6D5376B
:100944009736000083C6C681858AB1C693073033C3
:100954003307F502B337F5023983CA07D98F17373E
:10096400000013076782584B01456303F702338580
:10097400E740636BF70037653D0889C637856F0824
:1009840013050590198D3E95173700002328F7802D
:10099400B24041018280E5473307F502B337F502DF
:1009A4002583DE0765BF0327C50F8346B500973748
:1009B40000009387A7929C4F584393861602958212
:1009C4009043FD1693F6F60F10C3D04350C39047DF
:1009D40010C7D04750C7904B10CBD04B50CB904F43
:1009E40010CFD04F50CF91C6130707029387070249
:1009F400C1BF82808347E50193F7E70F91CB01459F
:100A040082800145B24022449244024941018280DD
:100A14008347F501EDF7834605010347850089CA3D
:100A24000346A5029727000083C797736367F60000
:100A340093770701E9D7814789CA83470515834618
:100A4400F514418BA207D58F01CB03474515834687
:100A540035152207558FBA97DDD3172700000347B2
:100A6400277041119316870106C622C426C24AC0C4
:100A7400E18663D506049387C71313D457009737C9
:100A8400000093872791BC479724000083C4E46D3A
:100A94007D5903A70708637327013A899C43F5FB33
:100AA400938781909C438297E36DA9F43305A94011
:100AB40026943334850013451400A9B7058B938716
:100AC400C71209CB8A071384F7039307D00733545B
:100AD400F40275B786071384F7019307D003C5BFE3
:100AE4005D7122DE1384819D3AD218403ED04ACAF9
:100AF4001C5F86C696C499839AC29EC026DC2ADAF5
:100B04002ED832D636D442CE46CC72C876C67AC4F3
:100B14007EC2858B1389419DC1C31C5F972400004D
:100B24009384C47B93F7F7F91CDF9727000083C7EE
:100B3400E77A93F707048DC3938781909C43829748
:100B44009727000023A4A77A83C7040093F7F70B21
:100B5400172700002304F778854717270000A3010F
:100B6400F77883C7440093F7070481EF9387819E46
:100B74009C43D844B8D3930700FC172700002301F3
:100B8400F7768387640063D90700832709009C43B1
:100B9400172700002307F77418401C5F8583858B93
:100BA400C9CBF5571CDF0100010001000100010061
:100BB4000100010001000100010001000100010029
:100BC4000100010001000100010001000100010019
:100BD4000100010001000100010001000100010009
:100BE40001000100010001000100010001000100F9
:100BF40001000100010001000100010001000100E9
:100C040001000100010001000100010001000100D8
:100C140001000100010001000100010001000100C8
:100C24000100010001009387819E9C431307500437
:100C3400B8CB18401C5F9183858B89CFBD571CDFCF
:100C44009387819E9C4323A80704854717270000A8
:100C54002308F76883270900D8430583058B19C740
:100C6400D843759BD8C3D843799BD8C37254B64034
:100C7400A64216438643E2545255C2553256A256F2
:100C8400125782577248E2485249424EB24E224F9E
:100C9400924F6161730020309387819E944317279C
:100CA40000001307A763BC5289CF83472700858BB5
:100CB40089EB83473700858BFDD797270000238175
:100CC400076282809387419E9C4399CB944BD04B7F
:100CD4009842518F98C294439C479842D98F9CC2A2
:100CE4009387819E9C4337C700401306C003A8CB5B
:100CF40093062003972500009385455E832787206C
:100D0400C18393F7F7036369F60083278720C183C0
:100D140093F7F70363E6F60083C74500858BF9DF95
:100D240082809387819E9443172700001307075BF3
:100D3400BC5289CB83470700858B91CB9727000052
:100D44002380075A97270000A38C07588280834783
:100D54001700858BF1DFDDB79387419E9C4399CBC8
:100D6400944BD04B9842518F98C294439C479842DD
:100D7400D98F9CC29387819E944337C70040C14555
:100D8400A8CA654683278720C18393F7F70363FBCB
:100D9400F50083278720C18393F7F7036364F60084
:100DA400BC52EDF382801387819D1843AA87185F94
:100DB4001583058B25EF0345150015051377C51F0E
:100DC40019C6B386E70083C626002300D60095C55E
:100DD4009726000083C6E65093F606040945A1CA87
:100DE400B386E70083C63600054693F5F60663909E
:100DF400C504E206E18663CC06023385E700834737
:100E0400150003470500A20793F70770D98F1397BE
:100E1400070141839376074099C61367078023909F
:100E2400E19E014582802390F19EE5BF05458280C5
:100E3400011136C89386819E2ECC8C423AC63EC49C
:100E440098452ACE32CA9317070142C2C183137848
:100E5400172036853E86972600009386264863042D
:100E640008041377072061CF03C726001367170010
:100E7400172800002305E84613070019B8D1130703
:100E840000F897250000238DE5441387819D0C43CA
:100E940037080010D855719B13672700D8D598419F
:100EA4003367070198C11377261005C3137606101C
:100EB40045CA03C706001367170017260000230F4F
:100EC400E64017270000231F074083C6460093C748
:100ED400F7FFC207E206E186C183184163D1060227
:100EE4009396170163D7060830538D4663E9C6000D
:100EF4008546172600002305D63E3453FDFE97266B
:100F040000009386A6248386460163DD060093963B
:100F14000701C18663D506067053894663E4C6009B
:100F24007453FDFE14477245E245F58F1CC75246C3
:100F3400C2463247A247124805617300203003C7F6
:100F440016001367170097250000A389E5381727B3
:100F54000000230707381727000023150738A1B717
:100F640003C736001367170017260000A309E636E7
:100F740089BF8546172600002304D63649B754474F
:100F84001396060163510602B7061000FD1674D3CA
:100F9400972600009386461F944E85061726000068
:100FA4002320D62041B7A166D58FADBF17270000F7
:100FB400130787348346B7019727000083C7173781
:100FC400B69793F7F70FFD4663EAF6044C4B972662
:100FD4000000A383F6329727000083C7F731054743
:100FE4003317F70097260000A382F6346D8F1DEFA8
:100FF4009726000083C6D633B3F6D7021305000242
:10100400814733D6F500058A13F8F70F09CE6399A3
:10101400E60097270000A381072F828081177DB700
:1010240005071377F70F8507E39DA7FC8280938755
:10103400019F9843B75702009387079F83260709A8
:101044001396560063580600832607091396660014
:1010540063440600FD17FDF3828051C9AA87014548
:10106400C9C98D07C207C183F19BC207C183130796
:101074004003636BF702138701A80843138781A712
:1010840014436396A602172700001307270C185B66
:10109400014525C34111C20706C60545DD8D0297EA
:1010A400B2400145410182801387C1A7F9B70357B4
:1010B400650005EF035745006369F702B306F7407F
:1010C40021466370D6021041938687001D8FAA962D
:1010D400611790C22392E6002393060014C12312E1
:1010E400F5002313B50021058280084159BF01454D
:1010F4008280828001CD938701A803A8070093878B
:1011040081A78C430147C28763E3B700828094437D
:10111400636FF50663EDA60613868700E368C5FED4
:1011240003D56700216605066317C50003C68199C8
:101134000506238CC1982393070063840703138651
:10114400C1A71042630FF6000356670019EA83D75C
:10115400470014C383564700B697A1072312F7002C
:10116400BA879843E304B7FA9386C1A79442E30F7E
:10117400D7F883566700D9FA83D647000356470049
:101184001843A106B2962392D70098C382803E8763
:04119400B6879DBFBE
:10119800974100209381814C17710020130101E6CB
:1011A80013054000972500209385456517360020D4
:1011B8001306067E63FAC5008322050023A05500A6
:1011C80011059105E3EAC5FE17C5010013050529B8
:1011D800973500209385C57B1386818963FAC500FE
:1011E8008322050023A0550011059105E3EAC5FEF9
:1011F8001385818997650020938545A46377B50099
:10120800232005001105E36DB5FE9302800873A045
:101218000230972200209382625E93E2120073905C
:10122800523097220000938222B9739012347300CF
:1012380020303D432A876373C3029377F700BDEFDD
:10124800ADE5937606FF3D8ABA960CC34CC30CC72E
:101258004CC74107E36BD7FE11E28280B306C34057
:101268008A069702000096966780A6002307B700B3
:10127800A306B7002306B700A305B7002305B700E8
:10128800A304B7002304B700A303B7002303B700E0
:10129800A302B7002302B700A301B7002301B700D8
:1012A800A300B7002300B700828093F5F50F93964B
:1012B8008500D58D93960501D58D61B79396270046
:1012C8009702000096968682E78086FA9680C11774
:1012D8001D8F3E96E374C3F8A5B7B717004003C740
:1012E80077051377E70FA38BE704130700F8A38D9F
:1012F800E7043D47238CE70413077003A38CE70436
:101308008280B717004003D587005D714EDE420525
:10131800418186C6A2C4A6C2CAC052DC56DA5AD8CF
:101328005ED662D466D26AD06ECE9377050C130768
:10133800000881496386E71813070004639AE714D5
:10134800B7240D8F7D8993840480B3D4A402916758
:10135800938707E8BE94A167938707D0B3D4F402B4
:10136800EF90517097C701009387C7869043D44385
:10137800EF901124EFA08131AA8B939C040103D92B
:10138800818993DC0C01631509000569130909803B
:10139800B7170040130770052380E704130780FA86
:1013A8002380E704B71A00400547939D0401096CA0
:1013B8002389E704514B01438145138D0A04130621
:1013C8007005930680FA094893DD0D01130C0C7122
:1013D800A9482300CD002300DD0023962A0323001B
:1013E8000D0083C72A05898BEDDF83D70A0583C7DC
:1013F8002A05898BEDFF83C72A05898BEDDF83D703
:101408000A05239C2189C207C18333859741131A92
:101418000501135A0A41630B0A143307BA02635EC3
:10142800070C05034203135303016368680C63D96F
:10143800050A3305B04093150501C185C204C18072
:1014480063D7450B0965130505713385A502B717E1
:101458000040130770052380E704130780FA2380F0
:10146800E704239637032380070433459502420592
:101478004181B640264496440649F259625AD25AE6
:10148800425BB25B225C925C025DF24D61618280DC
:10149800B1E3B77489097D8993840480B3C4A40235
:1014A8009167938707E8BE94A167938707D0B3C471
:1014B800F402EF90315B97B70100938727727DB5EF
:1014C80097B701009387C770856483AB070093843F
:1014D800843865B5930B0000954445B53A89D5BD68
:1014E800B387FC40139A0701135A0A4181BF096563
:1014F800130505713305AA028DBF3385B74163E42F
:10150800FC003385FD40330585033344B50363C5CB
:10151800880013150401A9BF528532C636C4EFA04E
:10152800810ADE85EF90115BEFA0C103131305015B
:10153800135303413307694042074183A2463246A9
:101548000948A948631AE9001307190063444001D0
:101558001307F9FF420741837D1B137BFB0FCA89E1
:10156800D285E31D0BF6239CE18865B7014511B7C9
:10157800B717004003D5870039715ECE4205418117
:1015880006DE22DC26DA4AD84ED652D456D25AD0B3
:1015980062CC66CA6AC86EC69377050C1307000842
:1015A800814B6388E71413070004639CE710B72492
:1015B8000D8F7D8993840480B3D4A40291679387A7
:1015C80007E8BE94A167938707D0B3D4F402EF90DD
:1015D800714997B701009387E75F9043D443EF9031
:1015E800217DEFA0A10AAA89939A040103D9A189B0
:1015F80093DA0A0163150900056913090980B71709
:101608000040130770052380E704130780FA23803E
:10161800E704139B04010547096A2389E704D14DB0
:10162800014D814C135B0B01130A0A714A859720FF
:101638000020E7806028330C5541420C135C0C41B4
:10164800239D2189630A0C14B3079C0363D0070EFA
:10165800050D420D135D0D01894763E9A70D63DA96
:101668000C0A33059041931C050193DC0C41C2041C
:10167800C18063D78C0B0965130505713385AC02EE
:10168800B7170040130770052380E704130780FA93
:101698002380E704239677032380070433459502C4
:1016A80042054181F2506254D2544259B259225AE9
:1016B800925A025BF24B624CD24C424DB24D2161C0
:1016C8008280B1E3B77489097D8993840480B3C4A7
:1016D800A4029167938707E8BE94A167938707D010
:1016E800B3C4F402EF90113897B701009387074FFE
:1016F800EDB597B701009387A74D856483A90700C7
:1017080093848438D5B5930900009544F1BD3E898A
:1017180031BF3385AA40131C0501135C0C4181BFFE
:101728000965130505713305AC028DBF63FEAA0078
:101738003305654133054503A9473344650363C849
:10174800870013150401B1BF3305AB40E5B76285C7
:10175800EF907167CE85EF90F137EF90B160131D70
:101768000501135D0D41B307A941C207C183631A7F
:10177800F90093071900634480019307F9FFC20732
:10178800C1831387FDFF937DF70FCA8BE28CE3902B
:101798000DF8239DF18875B7014529B741112A83B2
:1017A800014E930E407E130F0019930F400663EB12
:1017B8006E0A9308001913034006B3781503854E83
:1017C8000D4FA14F337365020D891335150063E57D
:1017D800BE0C1308F6FF79467298420813580801A0
:1017E8003307C70213D61700BE0732976146B3F610
:1017F800C60213068070B386C6023697A166F58FB7
:1018080042075D8FB717004083C6F70293F60608B4
:10181800A307D1000346F10083C6F70293F6060832
:10182800E394C6FE8346F10093F6F60FF1DE9306C5
:1018380070052380D704930680FA2380D70423AA4F
:10184800070383C6170393E60608A388D702D8DBE5
:1018580003C7170313670704A388E7022380070455
:10186800410182807D133368E3039308E016630E19
:1018780008003368F3039308D016630808009378C8
:10188800330093B818009388D81633081E01131E26
:101898000801135E0E0121BF6393E50305486386C3
:1018A80008000148630303002A8871087298FD152F
:1018B800131E0801C205135E0E01C18109BF13F88A
:1018C800150063F4BF007908D5B713381800E5BFD1
:1018D800914763EEB70217B701001307A7308A05CF
:1018E800BA959C41BA978287B717004003A7470B60
:1018F8001345F5FF698F23AAE70A03A7070B698F2A
:1019080023A8E70A03A7070A798D23A0A70A8280DC
:10191800B717004083A6470B1347F5FFF98E23AA94
:10192800D70A83A6070B558D23A8A70A83A6070AFB
:10193800758F23A0E70A8280B717004003A7470BDB
:10194800498F23AAE70A03A7070B1345F5FF45BFED
:10195800B717004083A6470B1347F5FF758F23AAD7
:10196800E70A03A7070A598D4DB7B717004003A721
:10197800470B498FEDB7B717004003D587004205DD
:1019880041819377050491EB9377F5013755E80189
:10199800130505803345F50282809377050C1307FC
:1019A80000046397E7009377F50137459C1CCDB792
:1019B8002165130505D08280B7F700E0C8439C472E
:1019C8008280814737370040A14663C4C70032850B
:1019D80082800345B740E38EA6FE3385F5000345B4
:1019E800050085072304A740CDB7411122C406C6C8
:1019F8002A8451372947B307E502B2408D83B3D70C
:101A0800870222449507B3D7E70237370040C20759
:101A1800C1832316F7404101828071654111130586
:101A2800052006C6D937B7370040130770F8238159
:101A3800E7400D47A381E74013070004A380E74070
:101A480005472387E740B240410182809387818A16
:101A58009C43411106C691C382979387C18A9C43D0
:101A680091C38297173700200357673F9307C01227
:101A780063F7E70403D541809306B01263E4A60434
:101A88009386418A03A3060063070300B240130547
:101A9800C012410102830507098F3385A740E54736
:101AA8003305F5024207418309839307F7FF3E9503
:101AB8003345E5021375F50FB240410182801305E5
:101AC8004006DDBF0145CDBF03A84500411126C230
:101AD80006C622C48347180003480800A944A20781
:101AE800B3E70701C2070D68C187130828906396FA
:101AF800070385473284EF50D010AA8419ED9387E5
:101B0800018A9C4399CB034514000347040022052E
:101B1800598D1335150005058297B2402244268554
:101B28009244410182802D452DEFD841411122C4B4
:101B380026C206C68347170003470700B684A207D4
:101B4800D98F0D67930697A13284639CD702FD3D18
:101B58009737002083C787306376F50097370020D2
:101B6800238EA72E85472390F4009737002083C73C
:101B7800E72E2300F4000145B2402244924441017B
:101B88008280130787902945E398E7FECC4589476B
:101B98002390F4000946228597200020E780A03290
:101BA800D9BF828083474500858BBDC7011122CCF0
:101BB8002A8403552500938501AA06CEEF50207F7D
:101BC800058939C503552400014781460546ED4579
:101BD800EF50A0392AC60DCD97370020938747DBF1
:101BE80083D7A70201462C002314F100854723154B
:101BF800F1009737002083C767262300F5000355B7
:101C08002400EF60C05709C5ED452800EF50A04DEE
:101C1800F24062440561828082804165411193856A
:101C280001AA7D1506C6EF706045B24097360020C0
:101C3800938606DB4146954517350020130545D5A3
:101C480041016F70C03823A0A18A8280411122C44B
:101C580006C6854709446313F50283470600014415
:101C6800238EF188173700200347471F6378F70052
:101C780017050000130545F3EF9000672285B24071
:101C880022444101828085476303F50209C9094757
:101C98006304E5020D476308E5020945828097372A
:101CA800002083C7A71B2380F50001458280938706
:101CB800C18983C70700C5BF9737002083D7E7CD01
:101CC8002390F500DDB7138781800357070023921F
:101CD800E500173700201307A7CB8356A702035741
:101CE800A7032383F5002390D5002391E50075BF52
:101CF800411106C6A13B9737002083C72716637C8E
:101D0800F50097370020238BA7141705000013054B
:101D1800A5E9EF90605DB2400145410182804167CD
:101D28007917630CE502411122C406C685472A8447
:101D3800639AF50022852244B240938501AA4101A5
:101D48006F70C03389476396F5008545EF9040541E
:101D580075D1B2402244410182808280CC41411138
:101D680006C6328503C6150083C5050022064D8EBA
:101D780042068D654186138875A2630C060F634879
:101D8800C804138845A26306060B634AC8009385F6
:101D980035A26309B60623900600294679A0138860
:101DA80055A26308060B938565A2E316B6FEC145E6
:101DB8001D4663ECE5064546198E63F3C7003E866B
:101DC8002390C60097B50100938505E489A8138878
:101DD80095A26300060F634E060B1388A5A2630A3B
:101DE800060F938505A5E318B6FA99451D4663EED7
:101DF800E502198E63F3C7003E862390C6009385DB
:101E0800018131A89D451D4663E1E5022146198EF1
:101E180063F3C7003E862390C6009385018BBA956D
:101E280097200020E780200A0146B2403285410110
:101E38008280AD451D46E3EAE5FE3146198E63F31F
:101E4800C7003E862390C60097B50100938585DFBD
:101E5800F9B7B1451D46E3EAE5FC3546198E63F34B
:101E6800C7003E862390C60097B50100938585DE9E
:101E78007DB7C1451D46E3EAE5FA4546198E63F389
:101E8800C7003E862390C60097B50100938505D903
:101E980079B7C1451D46E3EAE5F84546198E63F36F
:101EA800C7003E862390C60097B50100938585DB61
:101EB800BDB7C1451D46E3EAE5F64546198E63F30D
:101EC800C7003E862390C60097B50100938545D686
:101ED800B9B7B5451D46E3EAE5F43946198E63F30B
:101EE800C7003E862390C60097B501009385C5D0EC
:101EF8003DB797360020938666C24146CD451735D3
:101F080000201305A5AE6F70800C82809387C18C6A
:101F18009C4303C7018C83C6B18201E781473E8594
:101F2800828003D607006316A60003C66700E3088D
:101F3800D6FE7D171377F70FA107C5B7B2862E8691
:101F4800AA8517B50100130525D36F90911D0111BE
:101F5800930500030D4506CEEF20B07393050005E9
:101F68001145EF2010739305C0030545EF207072EB
:101F780085471306F100854513055030A307F10086
:101F8800EF60F12EF240056182808547631AF50003
:101F98001166130686A9894503C5118C6F10403E4A
:101FA80089476317F500894503C5118C6F10E05305
:101FB800828085476398F50019E2238DB18A2388CA
:101FC800C18C828009476399E50019E6238DF18A5F
:101FD80003D5818B6F00E07382809387418C9C438B
:101FE800011122CC06CE2E8481CB9C4791C78297C3
:101FF800F2406244056182806C0013057040EF5026
:102008008151324681452285EF50B169D5B74111DA
:102018009397050122C406C6C1872E8463DF070093
:1020280003C5118CEF00B06619C1EF00B05F2165E0
:10203800218DB24022444101828093F7150091CF4F
:1020480017360020130646AE9385C18103C5118C4F
:10205800EF60017513451400E9BF93F725000145AA
:10206800E9DB79311166130686A9894503C5118C08
:10207800EF100031134524006DBF797126D24ECE82
:1020880006D622D44AD052CC9147AA84AE8963148A
:10209800F50483D7A5001306E100854513055030E4
:1020A800239CF18A23070100238D018AEF60311CEC
:1020B8009387418C9C4391C7DC4781C7CE85268591
:1020C8008297B250225423AE918A02599254F2490F
:1020D800624A456182801387C18B1843E31AF7FC73
:1020E800854503D5818B2539854503D5818B4125C8
:1020F800C16703DA818BF917631BFA02054493055C
:10210800E10013055041238D018AA38581822307AD
:102118000100EF5041408347E100B1E303C7018D5F
:102128009147E317F7F825352388018C51B7938732
:10213800C18C03A9070003C4018C69D00355290089
:1021480011C99305E100EF50100C09C54C455285A3
:10215800EF60D0727D141374F40F2109F9BF9387CF
:10216800818C9C4383C74700898BCDDB9305000A8C
:102178000D45EF2010529305000A1145EF207051CC
:1021880081450545EF20F0501306E100854513050C
:10219800503023078100EF60910D49B701111705F1
:1021A8000000130505E706CE22CCEF10E053138498
:1021B800118C85471306F10085452300A4001305FB
:1021C8004041A307F100EF50E15B7D55EF405023FC
:1021D8007D55EF609067313B89341923170500005E
:1021E8001305E5DA8D3417050000130545D2392BA0
:1021F800034504008545EF104008F240624405613C
:10220800828023A2B18C23A4A18C828023A6B18CC6
:102218002380A18C82809387C18B9C43797106D6D9
:1022280022D426D24AD04ECE52CC1147639BE70423
:1022380083C7A18B414481CF9387C18C8043B284EB
:10224800B68983C7018C03C7B18299EB55442285AF
:10225800B250225492540259F249624A456182802E
:1022680083464400639AA600834654006396B600EA
:10227800834664006380E606FD1793F7F70F210491
:10228800E9B709474144E384E7FC2C0013055041B2
:1022980023040100EF502128834781008DCB93054B
:1022A80000020D45EF20F03E930500031145EF2095
:1022B800503E95450545EF20D03D85473000854582
:1022C800130550302304F100EF60617A49B74131BA
:1022D8004144B5BF0355240093056100EF50A07237
:1022E80035D54C4503D5818BEF50600C058939DD18
:1022F8001399040113590901014781464A86ED459E
:1023080003D5818B035A0400EF4030462AC64D445A
:102318001DDD2686CE852314410123152101972032
:102328000020E78040BA01462C0003D5818BEF508E
:1023380010652A84E30D05F0ED452800EF40B05AFA
:1023480039B7C841011122CC06CE328403461500A4
:10235800034505002206498E19CB0D681308B8A459
:102368002D4563090607F2406244056182800D65C8
:102378001308D5A463000603130825A2630C0601FD
:1023880075781308E85C32984208135808018548A4
:1023980063EE080303D5A50036C632C4853EB246AF
:1023A80015C19387418C9C4322468345550003A35E
:1023B8000700A2876244F2400345450036878546F8
:1023C8000561028323900600014571BF1308B5A477
:1023D8006317060303D6E1821D45E376C7F8198E15
:1023E80063D3C7003E86CC452390C600420641828F
:1023F800BA95228597200020E780E0ACF1B79307D3
:10240800A5A46318F60091472390F6001146CC4521
:10241800CDB7930785906317F60089472390F60098
:102428000946F5B79307E5A4631AF600DC4523903F
:10243800160183C707002300F40079B713057590C8
:10244800E314A6F8D9BF011122CC06CE26CA4AC881
:102458002317D1002D4429EBDC412E89B28403C413
:10246800170083C7070022045D8C8D679386D7A465
:102478006306D400938627A3631FD4020355A900DB
:10248800713419E101440DA09387418C9C43834525
:1024980055000345450003A807002286A6871307B1
:1024A800E100814602982A842285F2406244D2449F
:1024B8004249056182809386C7A46314D402835776
:1024C800E10005473544E391E7FE034506001304A0
:1024D8000008E3EBA7FC9387418C9C43DC4382977D
:1024E80055B793862790631AD4028356E10085472F
:1024F800EF4030712A844DF99387C18C8356A90027
:102508009C4303C7018C3DDF03D627006302D60432
:102518007D171377F70FA107FDB79387E7A4E31398
:10252800F4F68357E10005473544E39FE7F6034592
:10253800060013040008E3E9A7F6DC452380A7009A
:102548009387418C9C433335A0000905DC4341BF88
:102558001387418C184303C5470083C5570083C7B9
:1025680014000328070003C70400A2078946D98F6F
:10257800C207C18705476383E7008D460D66A687B6
:102588001307E10013062690029839BF41654111EF
:10259800938501AB7D1506C622C426C24AC097247E
:1025A800002093842459EF60702D9726002093868D
:1025B800666A4146C9452685EF607021CC4C2A8958
:1025C8000945EFF04FEC9387818383D70700138485
:1025D80001AC138741832312F40083D7A40C03575B
:1025E8000700938501AD2310F40083D7A40D2316AB
:1025F800E40003D7A4102311F4000D4585472303F5
:10260800F4002314E4002307F40023150400EFF07A
:102618008FE7A2850D45DD3EB24022444A859244AB
:102628000249410182808D679387D7A40145631FC2
:10263800F6008D472945639BF50085473545639727
:10264800F6008347070001452389F18C82808D6756
:102658009387D7A4631EF6008D47639BF50083C755
:10266800218D2300F70085472390F60001458280DD
:1026780023900600E5BF0145828025E303A84500B5
:10268800AE888347180003480800A207B3E707018C
:102698000D68930EF8A4639AD70391473548639F52
:1026A800F60203A5C8004111B285114606C6972057
:1026B8000020E78040819387018E9C4305458297DF
:1026C800B2400148428541018280930828902948F8
:1026D8006396170185476F40D0522D484285828006
:1026E80041654111938581AD7D1506C6EF601019CE
:1026F800B240972600209386A65C41469945172547
:1027080000201305E55541016F60700C23A0A18ED0
:1027180082800111938581AD22CC06CE2A84EF40B8
:102728001049058929C1014781460546ED4522859D
:10273800EF40B0032AC605C9972700209387475260
:1027480083D7A70501462C002314F10085472315DC
:10275800F100230005002285EF50702209C5ED45E0
:102768002800EF405018F2406244056182804167BA
:102778007917630CE502411122C406C685472A84ED
:10278800639AF50022852244B240938581AD4101C8
:102798006F60D00E89476396F5008545EF80502F0E
:1027A80075D1B2402244410182808280411106C61F
:1027B800EFE03FB5BD4763F4A700EFE09FB4EFE05B
:1027C8003FDBBD4763F4A700EFE09FDAB24083D553
:1027D800A18903D5818941016F00906141119396C8
:1027E8002500AA852D4506C697100020E780803869
:1027F800B240014541018280411122C426C24AC02B
:102808002A842E89B284AA8593060020014625458C
:1028180006C697100020E780E03593162900268623
:10282800A285294597100020E780C034B240224491
:1028380092440249014541018280011122CC06CE11
:102848003714004026CA4AC84EC652C48344740589
:10285800034AB4058349840503499405EFE0FFA7BB
:102868008347A40593F4F40F137AFA0F93E717003C
:10287800230DF40493F9F90F1379F90FB7170040F2
:1028880003C7A705058B6DFF03D5C705A38D4705AE
:10289800238C3705A38C2705A38B9704F240624449
:1028A800D2444249B249224A056182804111939734
:1028B800050122C406C6C1872E8463DB0700C12B2D
:1028C80011C18D232165218DB240224441018280AE
:1028D80093F7150013C51500E5FB9397250163D001
:1028E8000702EF10A171D93537F60200130606E08A
:1028F800896503C5418EEF00B0280965E9B793974C
:1029080015010145E3D207FC17A50100130505428F
:10291800EF90C11213060064916503C5418EEF0064
:10292800302611654DB71D71494697A5010093855D
:10293800653B17A501001305656386CEEF00100EF1
:1029480001E917A501001305253BEF90210F01A010
:1029580037F700E0F9575CC7FD571CCB8566B7E72A
:1029680000E023A0D7101306701010C3B8434146E7
:10297800B0C323A0D718B8C3010001001306C003D1
:1029880081454808EF007003972700209387877BCD
:102998003ECA896793870780231CF100ED47A3018E
:1029A800F1029307A0102312F102D1472303F10289
:1029B800A167938707E03ECE97070000938747E219
:1029C800BEC497070000938767E3BEC68547230404
:1029D800F102B5472308F10297F7FFFF938707FE37
:1029E8003EDAB7F5070097070000938747E53EDE14
:1029F8008146970700009387A7DB7000E10519451A
:102A0800BEC097100020E780E01658088147994615
:102A180070003E960346060085070507A30AC7000F
:102A2800E398D7FED24791C703578101856763733F
:102A3800F70001A04808EF00B04EAA8501C917A504
:102A480001001305A52CEF80D16D01A0F64025618A
:102A58008280411117050000130585E506C622C4CA
:102A6800EF0090481384418E2300A40029280345D1
:102A780004002244B24037F60200130606E08965D6
:102A880041016F00F00F411106C6B7170040130748
:102A980070052380E704130780FA2380E70403C73F
:102AA800F7021377A70FA387E70203C7F702136795
:102AB8002700A387E702DD391305407E81470147D8
:102AC800814605468545EFE07FCDB240014541018D
:102AD8006F00F06C82807D15954763E7A70C17A7F8
:102AE80001001307E7240A053A951C41011106CE97
:102AF800BA9782872C0013054030EF5091692C005B
:102B08000545EF30500E17A5010013056525EF8028
:102B1800F1728DA817A5010013058525CDBF83D7B0
:102B2800A5000D6613060620914503C52185239847
:102B3800F184EF00F00417A5010013056524C1BF57
:102B480017A5010013058524D9B783C725001147A8
:102B580017A50100130505256380E7041947639647
:102B6800E70283C5650017A5010013056525EF80F9
:102B7800515B854730008545130550302304F1002B
:102B8800EF50F16EF240056182801547E393E7FE4E
:102B980017A5010013058524EF80516AD9BF17A531
:102BA800010013052525A5B782803A883E8781E66E
:102BB800834608008DBC85476394F600C28641BCF5
:102BC8008947639FF60041111306401F894503C5D5
:102BD800218506C6EF00C07AB240014541018280D6
:102BE8000145828001119397050122CC06CEC18749
:102BF8002E8463DD070003C52185512C11C11D24D6
:102C08002165218DF24062440561828093F71500A9
:102C180013C51500E5FB93F7450099CF83C72185B8
:102C28001307401F81462146A14503D50185EF5072
:102C3800913013454400F9B793F725000145F9D3BE
:102C480083C73185130730066379F7021387A7070F
:102C58009387A717A183A305F100340093074016B3
:102C68001946854505452316F1002314010023055F
:102C7800E100EFF04FDAA389018483C73185054766
:102C88002314E1001387A7079387A717A183A30538
:102C9800F10034009307401619468545054523057C
:102CA800E1002316F100EFF00FD79387318583C732
:102CB8000700130640068945910703C52185A389A6
:102CC800F1847D2D1345240035BF0111170500003F
:102CD800130585F106CE22CC26CAEF00F020938496
:102CE800218505442380A4007000854513055030D4
:102CF80023068100EF50B157138601849D451305C3
:102D08006030EF50D15617260020130626FDE945FE
:102D180013057030EF50B15517A601001306C6020F
:102D2800D5450145EF30F05F8D477000914513059B
:102D380070402305F10023048100A305810002C629
:102D4800A3040100EF40112430008545130500401D
:102D5800EF40512313069100854513051040EF40BD
:102D680071221306A100854513052040EF409121EB
:102D78001306B100854513055040EF40B12099472F
:102D88007000854505452306F100EFE03FECEFF0C4
:102D9800EFFF97250020938565F313858184EFF075
:102DA8004FC603C504008545C929F2406244D24490
:102DB8000561828041111305800406C69710002022
:102DC800E78020B4371700408327870A8D4513050D
:102DD800002093E707202324F70AEFE07FAFEFE016
:102DE800DFC317A5010013056518EF803145253E9F
:102DF8008D31EF50916DEFF06FBAC13D9710002003
:102E0800E7802010E5BF23AC05FE1C4191E70100D7
:102E180001000CC18280BA8703A787FF6DFF23AC2E
:102E2800B7FE82801DC18346E5FF1307F00F914767
:102E3800639EE600411106C697200020E78040AB5C
:102E4800B24081473E854101828095473E85828018
:102E580001E9014582800145B24022444101828056
:102E6800411122C42A84210542059305D0044181D9
:102E780006C697200020E780009E71DDFD572320BD
:102E88000500231285002303F5002105F1B71387F8
:102E9800C18E1C43411122C426C24AC006C6014441
:102EA8000149BA8489E7A16589250DC401A803C72A
:102EB800E7FF6318A7021DC8A165C12698408327AC
:102EC80084FF6317E40223A6F18EFD57232C04FE2A
:102ED800230FF4FE2285B240224492440249410164
:102EE800828011E03E8983A787FF6DBF3E84E5BFDE
:102EF800232CF9FED9BFA9C9411122C406C62A84C8
:102F08009747002083C7D7A72E856368F400193F29
:102F18000D45B24022444101828083A785FF99E78D
:102F280003C7E5FF9307F00F6305F700E53D154577
:102F3800CDB7238F85FE1385C18EF13522852244B6
:102F4800B240A165410115AE1545828023A6018EC8
:102F58008280938701909C4399E33E85828003D7C2
:102F680027006316B70003C70700E308A7FEDC477E
:102F7800E5B74111939705014AC006C622C426C287
:102F8800C1872E8963DE0700193711C1613D2165AC
:102F98003345A900B240224492440249410182804B
:102FA800AA860145E5D901443D47B3578940858B39
:102FB80095CB9387818F8443BD4791E28147A29740
:102FC8008E070545BE9433158500131405019C40F2
:102FD800C8404180829723A0040023A204003345FF
:102FE80024014DBF0504E312E4FC0144CDBF97471B
:102FF8000020938727959C53411122C406C6138449
:10300800418595C7829723AAA1840840B747030042
:103018009387D73F3305F502B7A72600938737EC88
:10302800B24022443E9523AAA18441018280974759
:1030380000209387E79418409C4BBA9723AAF18401
:10304800E9B79387018F90439746002083C656932C
:10305800814713F7F70F6360D70A17470020034724
:10306800D7A7914763E0E70A9747002083C787AB54
:10307800918BC9EB0111680006CE22CC26CAEFB0AD
:103088007068FD56630FD50C32479747002083C7F9
:10309800978C63F3E70C174700201307678E4047A8
:1030A800174700200347478B6305D406058B21CFBC
:1030B80051473304E40263F1870A97100020E78040
:1030C8000006B2476373F400A2871747002003473E
:1030D8009788998F3E95974700209387A78683877F
:1030E800470163CD0702B707C0A86369F502B707B0
:1030F80040573E9525A08507139717003297035729
:10310800E7FF21DB8280130790023304E402058085
:103118005DB762076187635707001D8D19E9370599
:10312800C0A801A8E37BF5FE3707C0A8B307F7409E
:103138003E95974700209387E780DC53829709EDF7
:1031480097470020938707999C4F99C7EF0031262E
:10315800EF00917EEF00111AF2406244D2440561FB
:103168008280974700209387A781DC47E386A7FEE4
:10317800173700201307077D83464701BA84858ADD
:103188009DC65144338487029737002083C7B77C94
:10319800E3F487FC97100020E78060F89737002059
:1031A80083C7777B1D8C2295838744011DBF130439
:1031B8009002338487020580C1BF2A9609E5828080
:1031C8000505A30FB5FEE31DC5FED5BF814733072F
:1031D800F5000307070019E33E8582808507C5BF10
:1031E80001112E8626CAAA84131506019305F00438
:1031F800418122CC06CE32C697100020E780A06518
:103208002A8419C53246A68597100020E780A0CBEE
:103218002285F2406244D24405618280814763146A
:10322800F600054582803307F5008507B386F5006B
:103238000347070083C6F6FFE383E6FE0145828065
:103248009307F6FFBE952A966313C5008280FD1585
:1032580083C715000505A30FF5FEFDB7814711E9E2
:10326800014582803307F50003470700E31AB7FEDC
:103278008507E319F6FE054582809737002083C746
:103288003770637FF5001387018F93171500084384
:103298003E9583570500DD8D2310B50001458280DA
:1032A8000D458280FD570111173700202320F76E46
:1032B8009387019022CC804326CA4AC84EC652C47E
:1032C80006CE56C22A898144973900209389896796
:1032D800173A0020130ACA6A184481476374E90040
:1032E800B307274103A749021CC409CB0327CA0017
:1032F80063F6E70017370020232AF768A1E3835510
:1033080024009DE55C44A1E423A0F190832AC40035
:10331800228597100020E780A05D568455FCF24076
:103328006244D2444249B249224A924A05618280A3
:103338000345040099375C4081CB1CC483572400A3
:10334800F1D3A2844044D9BF1C44CDDFC5BFDCC43F
:1033580075BF9737002083C7B7626371F50213877B
:10336800018F93171500084393C5F5FF3E958357C2
:103378000500FD8D2310B500014582800D45828032
:103388009737002083C7D75F6364F50001458280C3
:10339800411122C426C24AC006C62A842E89B28494
:1033A8004D3E01C504C505452DA0936504F0C20531
:1033B800C181414597100020E780E0490DE197372A
:1033C8000020938727589C5B81C7A2851145829767
:1033D8000145B240224492440249410182809387C8
:1033E80001909C438DE323A0A190854723260500E7
:1033F80004C52311250123008500A300F50023221D
:10340800050055B7BA87D84775FFC8C7F9BF45C57E
:1034180039715AD0138B818F22DC26DA4AD84ED6DE
:1034280052D45ECE66CA6AC86EC606DE56D262CC72
:103438003689328AAE89AA8401445A8DB94D854BA2
:10344800F94C03270B00131C3400937AF40F62978E
:103458001C43A9EF13B5FA0013451500B3978B0069
:1034680063F65D01930714FFB397FB00939507017B
:10347800C181528631371DC983270D000145E29766
:1034880084C323A237016304090023005901F250C1
:103498006254D2544259B259225A925A025BF24BA0
:1034A800624CD24C424DB24D216182800504E31A30
:1034B80094F92145E9BF09458280411122C426C2F9
:1034C8004AC006C6AA842E8932845D3DCA852685EF
:1034D800EFF03FA809C940C10145B24022449244D7
:1034E8000249410182802145CDBF411122C426C233
:1034F8004AC006C6AA842E89EFF0BFA52A8419C13E
:1035080023110500CA852685A935014511E019450D
:10351800B240224492440249410182807547636B5C
:10352800A7041387818F1443411126C293143500D1
:10353800A696944222C406C6AA873A84094595C627
:1035480013B5F7003947134515006373F700C5171E
:103558008545B395F500C205C181413F1C40014531
:10356800A69723A0070023A20700B2402244924452
:103578004101828009458280411106C6EFF07F9D96
:1035880009C50845B240410182800145E5BFF547BC
:1035980063EDA7049387818F9C4313173500BA976F
:1035A8009843894721C7011126CA06CE9334F500EE
:1035B80022CCB94793C4140063F3A700451505440A
:1035C8003314A400420441802EC62685A2856D3797
:1035D8008947324609C5A28526855D338147F24071
:1035E8006244D2443E850561828089473E85828057
:1035F800239AA18E239BB18E8280411106C623AEE9
:10360800A18E0295B2409737002023A5A73801451F
:1036180041018280994763E9B7008A0597370020FE
:1036280093870738BE9588C18280411106C622C497
:1036380026C2EF5081707146814517350020130569
:103648002536A53E173400201304843313060002E0
:10365800228581459D3623A0019023AE018E9737A0
:10366800002083C7E72F13D527008D8B3E958D4704
:103678003305F50299479305101093844190350559
:103688001375F50F2301A4003305F5021305050F83
:1036980097100020E780201C23ACA18E83472400CC
:1036A8001305050F88C08A073E9523A8A18EEFF061
:1036B800FF89A126834714009840170600001306C7
:1036C800868B93962700BA9690C293862700850723
:1036D80093F7F70FA300D400B24022448A07BA97A1
:1036E80090C39244410182809737002083C75729AD
:1036F800173700200347E72863F1E7021387419053
:1037080018439386170017360020A30BD6269396E6
:103718002700369708C33E8582809307F00FE5BFE0
:103728001C416387071441777D8FB70600208947BE
:103738006311D71403574500630D0712411122C4C2
:1037480019462A849305F00F590506C6EFF01FB1F4
:1037580005478D476309E5101306C00381451735F2
:1037680000201305251EEFF05FA51306C003A285F0
:10377800173500201305051D97000020E780A07469
:10378800173700200357C71C973700209387871BDC
:1037980019E71307002097360020239BE61A1737EE
:1037A80000200347071B11E70547973600202382AF
:1037B800E61A173700200347D71911E76D479736E0
:1037C8000020A388E618173700200347A71811E739
:1037D800154797360020238FE61617370020034732
:1037E800771711E7054797360020A385E6161737A0
:1037F80000200347771619E703C70701973600200B
:10380800A38CE614173700200347E71411E7514744
:10381800973600202381E6141737002003476714E2
:1038280019E71307800297360020238CE612173712
:1038380000200347571219E71307D00297360020D4
:10384800A38BE6100347D40111E7094797360020F8
:10385800A388E6109C5791C7829797370020239436
:10386800A712E1338147B24022443E85410182805C
:1038780089473E858280011122CC06CE2A842EC635
:10388800EFF0EFF6B245F240818D33A5A5022295FF
:1038980062441375F50F05618280011122CC06CEB2
:1038A8002A842EC6EFF0AFF4B245F240818D33A5DD
:1038B800A502229562444205418105618280011179
:1038C80022CC06CE2A842EC6EFF06FF2B245F24023
:1038D800818D33B5A50222956244056182809737B0
:1038E800002093872706985725C3411122C426C272
:1038F80006C6BE840297173700200357C7082A84D4
:1039080041C7BA876373A700AA87C207C183BA866B
:103918006373E400A286C206C182958F514763553E
:10392800F706DC5491C38297854717370020230791
:10393800F71AEF00A16C9737002023968704B2404E
:1039480022449244410182809737002083C7071997
:103958009DE7973700209387E71783C79700850768
:1039680093F7F70F17370020A30AF716A18B9DC707
:103978008547173700202313F7166F00E16D973737
:103988000020A38D0714D5BF9737002083C70715DC
:10399800DDD72244B24092444101C5B782809737AF
:1039A8000020938727FAD857011122CC06CE3E84EF
:1039B80001C72AC60297324509CD23A4A19017054D
:1039C8000020130545771539F24062440145056129
:1039D80082808307440163DD07009737002023AD09
:1039E80007FA970700209387A76F23A4F190C1BF18
:1039F800970700209387A772CDBF011122CC1734F7
:103A08000020130424F4084406CE26CA19E5054507
:103A1800F2406244D244056182805C58EDDB185C58
:103A28007DD77000854582971844B247E301F7FEB9
:103A38008357C400173500200345A5F19305E0041A
:103A48003305F50297340020938484F342054181BD
:103A580097100020E78020E0173700202320A7F4E4
:103A68005DD59737002083D7A7EE17360020034689
:103A780046EE3306F6029305F00FEFF00FF4D04C44
:103A880008449737002083D7A7EC08C29735002051
:103A980083C525ECB385F5021C5C89818297C84CE7
:103AA80097100020E780C0E401459737002023A73E
:103AB80007EEB9BF411122C417340020130484E86B
:103AC8001C4426C206C697340020938464EBADCB11
:103AD8001C5CBDC7DC4C8DE78357C400173500203C
:103AE800034525E79305E0043305F50242054181C6
:103AF80097100020E78020D69737002023A0A7EA58
:103B0800C84C1DCD9737002083D787E4173600208F
:103B1800034626E43306F6029305F00FEFF0EFE9CB
:103B2800D04C08449737002083D787E208C29735DE
:103B3800002083C505E2B385F5021C5C8981829764
:103B4800C84C09C997100020E78080DA9737002011
:103B580023A607E4B24022449244014541018280F1
:103B6800011126CA97340020938484E122CCC04CEA
:103B78004EC652C456C206CE4AC8AA8AAE89328AEE
:103B880031EC173900201309E9DB8327890099E311
:103B9800A94471A08357C90017350020034565DB88
:103BA8009305E0043305F502420541819710002092
:103BB800E78060CA2A8441C583274903C9C397356A
:103BC800002083C505D917370020035767D8B38568
:103BD800E5022A8603258900898182979145130782
:103BE800A005898193972500A29783C6070063954E
:103BF800E60483C61700639E560385058A054E862C
:103C0800A295528597000020E780E02BDC4C814488
:103C180063878700228597100020E78060CDF240F7
:103C2800624426854249D244B249224A924A0561F1
:103C3800828083D5270075B7DC4CE38B87F4228517
:103C480097100020E780C0CAA1B797370020938754
:103C580067CF984729CB9C5FB9C785466315D504BC
:103C6800411122C417340020130484D1504C06C6D5
:103C78001DC69736002083D6A6CD9735002083C56C
:103C880045CDB385D5023A8589818297484C9710EE
:103C98000020E780E0C59737002023A107D0B24075
:103CA800224441018280828097370020938747CD44
:103CB800D84F011122CC26CA4AC852C406CE4EC6D5
:103CC8002A89AE8432843E8A35E797390020938961
:103CD80069C783D7C90017350020034585C79305F1
:103CE800E0043305F5024205418197100020E78082
:103CF80080B69737002023A3A7CA2A8611E9294549
:103D0800F2406244D2444249B249224A0561828063
:103D180003A5890005C183A7490389CF97350020EA
:103D280083C525C317370020035787C2B385E5022B
:103D3800898182970325CA0191461308A005FD557C
:103D480093D72600C207C183139727002A970346F3
:103D58000700631B06038348170003562700639375
:103D68002803B306D64063CD960085078A073E959B
:103D78002686A28597000020E780E014014549B710
:103D8800A300B700B2866DBF17360020035646BCA5
:103D98009735002083C5E5BBB385C50233869600F9
:103DA8001106E3EEC5F413863400719A1106B29633
:103DB80023000701A30027012311D7007DB79737F8
:103DC80000209387E7BBD44F8DCE91471306A005FB
:103DD8009305F00F89838A07B69703D7270003C591
:103DE800070009830A073697631DC50003451700B6
:103DF8006316B500035727002391E70083D72700F0
:103E0800D1BF01458280011106CE2EC6EF708037E2
:103E180001C9B245F2400355250005616FA06059FC
:103E2800F240494505618280A38A0192238A019262
:103E380023AE019023A0019223A2019223A4019210
:103E480023AC019023AA019097370020938707B7E6
:103E58003707B40098C33747A000D8C33707100006
:103E68009306070A94C7B7065000C106D4C793063D
:103E780007054107D8CB3707D007410798CF370741
:103E8800840398D337C70700130707B8D8D3416707
:103E980094CB93060701130717F8D8D7417723AEB9
:103EA800070094D798DB8280011126CAAA8421458D
:103EB80022CC06CE2E8432C636C43AC2EFE05FF971
:103EC8001DC9A24612473246930700FD2300F5009C
:103ED8009947A30095002301F5002303D500A30308
:103EE800E5002312C500AA8522856244F240D24427
:103EF80005616FF04F80F2406244D24405618280D0
:103F080023AEA190828023A0A192828023A2A192B5
:103F1800828023A4A1928280011122CC4AC806CEB5
:103F280026CA2A890144B30489006368B400F240B0
:103F38006244D2444249056182802EC6EFF02F8B3D
:103F480093170501C183A183B2452380F400930729
:103F5800140093F7F70F850463F9B700CA970904AB
:103F68002380A7001374F40F7DBF3E847DBFC16713
:103F780017350020035525A8FD176302F5024111E6
:103F880003C6019C9385C19206C6EF706009B240D2
:103F9800FD57173700202310F7A641018280828041
:103FA80009C925151375F50F1335850E1345150029
:103FB80082800145828023800500F94763E2C708B3
:103FC800797122D426D24ECE56CA5AC806D64AD0BD
:103FD80052CC5EC63684B289AE8A2A8B814463FF8E
:103FE8003405B307940003CA070013891400137932
:103FF800F90F63050A04B3072A0163C1F904B3077B
:10400800240183CB07005E85613F0DC99307FAFF42
:104018002380FA0063906B03130519002295B250B0
:10402800225492540259F249624AD24A424BB24B44
:1040380045618280D29493F4F40F55B70145C5B712
:1040480001458280411126C2AE8422C497370020E0
:1040580023AAC79A9737002023A4B79A9737002036
:1040680023AEA7982A8441469305F00F26854AC0B7
:1040780006C60549EFF08F9E631E2503973700207B
:1040880093870797884BC145413D41469305F00FFB
:104098002285EFF0AF9C854463169502224497373A
:1040A80000209387E794B24092440249C847C1452B
:1040B80041019DB5414681452685EFF02F9AE316CB
:1040C80025FD6DBF414681452285EFF02F99E30715
:1040D80095FCB24022449244024941018280411138
:1040E80022C426C22E84AA841306000281451735ED
:1040F80000201305E58F06C6EFF02F8C97370020B8
:10410800A389978EA381819CEFA0202C854719C194
:1041180081474945B240224417370020230AF78CCB
:10412800924441018280814781CD19C98547631B2B
:10413800F50083C7550093E707FCA382F500854780
:104148003E85828089476317F50083C7550093F73A
:10415800F703E5B70D478547E314E5FE03C75500A8
:104168001377F70313670704A382E500D1BF8147DC
:104178008DC105C103C755009306000C8547137709
:10418800070C6308D700930600048D476303D70024
:1041980089473E858280411122C4005D06C626C239
:1041A8001DC8AA84085009C597000020E7804074FC
:1041B800485009C597000020E7808073085409C556
:1041C80097000020E780C072228597000020E780D2
:1041D800207223AC0402B2402244924441018280FE
:1041E80009ED9737002083C7C780173500201305CE
:1041F800A58181CB1385C1908280173500201305D6
:10420800A5808280172500200345A57E82809727F8
:1042180000209387E77DC8478280972700209387EF
:10422800277D884B8280972700209387677CDC4B0B
:1042380088438280972700209387877BD84B1C432D
:1042480085071CC3172500200345B57A9307F00F8F
:104258006305F50091656FF04F828280011122CCD1
:1042680006CE2E8432C6EF7020019147B245631FF7
:10427800F500938781929C438DC303A30700630EC7
:10428800030022856244F24005610283938701920C
:104298009C4381C703A34700DDB7F240624405454C
:1042A80005618280011122CC2A840355450006CE7F
:1042B80026CA4AC84EC6EF60706435C52A89834449
:1042C80005008349C500C13D4A85EF707054035508
:1042D8004400EF60F07583C74193B1CB63999704AD
:1042E80083C551932685EFF01FB219E1238A019205
:1042F80003554400EF6050789147631FF50003575A
:1043080044009727002083D7076F6317F700FD57EE
:10431800172700202311F76EF2406244D244424925
:10432800B2490561828081499304F00F6DB7930704
:10433800F00FE38FF4FA8346640003564400034504
:1043480024004E87A685EFF03FB65DB779715EC64B
:10435800AA8B2E8552CC56CA5AC806D622D426D243
:104368004AD04ECEAE8A328B368AEF6030596DC154
:10437800045D2A89F1CC9C50614599C3130540031B
:104388009C5481C751054205418163050A007105A6
:1043980042054181DC5081C7590542054181EFE062
:1043A8003FAB2A8455C561468145EFE01FE1972957
:1043B800002083C9A963639409008349090093070E
:1043C80000FD2300F400A947A30074012301F400B1
:1043D800230364018C50231254011305840191C9ED
:1043E80008C47146930A440397000020E780A0ADF3
:1043F80056858C5491C948C45146930A4501970083
:104408000020E78040AC5685630C0A0008C8714656
:10441800D285930AC50197000020E780C0AA568577
:10442800CC5099C548C8594697000020E780A0A9F4
:10443800A2854E85EFE03FAC2254B2509254F24927
:10444800624AD24A424BB24B4A8502594561A1B3EE
:10445800B250225492540259F249624AD24A424B0B
:10446800B24B4561828001114EC6AA892E854AC881
:1044780006CE22CC26CA2E89EF60504831C5972433
:10448800002083C4A45699E0834405001945EFE051
:104498003F9C2A8415C981451946EFE01FD293072E
:1044A80000FD2300F400B947A30034012301F40000
:1044B80023122401A2856244F2404249B24926856A
:1044C800D24405616FE03FA3F2406244D2444249BE
:1044D800B2490561828039715ECEAA8B2E8526DAB3
:1044E8004ED652D456D25AD006DE22DC4AD8AE84F2
:1044F800328BB68A3A8ABE8942C6EF60304031C9EB
:104508002A894145EFE0DF942A8421C54146814547
:10451800EFE0BFCA172500200345454D19E10345C3
:104528000900930700FD2300F400BD472301F400B0
:10453800B247A30074012312940023046401A30466
:10454800540123054401A30534015CC4A285EFE0AE
:104558009F9AF2506254D2544259B259225A925AEE
:10456800025BF24B21618280797126D2AA84394597
:104578004AD04ECE06D622D42EC6B2893689EFE06E
:104588003F8D21C1B2459307000D2310F500B147B7
:104598002A842312B5002301F500CE851905194692
:1045A80097000020E780209223062401A285225448
:1045B800B2500259F24913F5F40F925445616FE075
:1045C8009F93B250225492540259F2494561828015
:1045D800172700200347F7419307F00F630DF706ED
:1045E800411126C2AA84394522C406C64AC0EFE052
:1045F8003F862A8439C9930700FD2300F500A300EC
:10460800950023010500972500209385E53F0D05BA
:10461800194697000020E780008B1729002013090E
:10462800293D83578900A285172500200345753C3D
:104638002315F400834719002306F4002244B240EE
:104648009244024941016FE01F8BB24022449244D8
:104658000249410182808280011156C2AA8A3145ED
:1046680026CA4AC84EC652C406CE22CCAE84328A66
:10467800B6893A89EFE0CFFD29C92A842685EF60FB
:10468800F0271DCD03450500930700FD2300F40026
:104698009D47A30054012301F4002312940023131F
:1046A80044012314340123152401A2856244F240F5
:1046B800D2444249B249224A924A05616FE0BF8317
:1046C800172500200345F532C1B7F2406244D244B1
:1046D8004249B249224A924A05618280397162CCC4
:1046E8002A8C594526DA4AD84ED652D456D25AD0B0
:1046F8005ECE06DE22DCAE8432C636C4BA8B3E8B72
:10470800C28A468A8359010403494104EFE04FF401
:1047180035C53246930700FDA2462300F5009547AC
:10472800A301C500A30085012301F5002A841946C9
:104738001105A9C2B68597F0FF1FE780C078230648
:104748006401230A24012315740123175401231833
:10475800440123193401A2856254F2504259B259D6
:10476800225A925A025BF24B624C2685D25421613E
:104778006FE06FF88145EFE05FA4D1B7F250625463
:10478800D2544259B259225A925A025BF24B624CA5
:10479800216182809727002083C7A7258DCB4111EF
:1047A800AA8519461385C19006C697F0FF1FE780B2
:1047B80080719385C1901725002003458523EFF06C
:1047C8009F96B2401385C19041016F90904001457A
:1047D8008280172700200347D7219307F00F63052E
:1047E800F708411126C2AA84294522C406C6EFE06B
:1047F8002FE62A8429C1930700FD2300F500A1476D
:104808002301F500A3009500972700209387471EF2
:1048180083C727009385C1901105A30FF5FE19469C
:1048280097F0FF1FE780206AA2851725002003451F
:10483800551CEFE04FEC172700200347871B8D47D7
:10484800631FF700938741929C4391CB03A3870092
:10485800630703002244B240924441010283B240FC
:104868002244924441018280172700200347671899
:104878008D47631AF700938741929C4389C703A326
:104888008700E31D03FC8280797122D406D626D2E4
:104898004AD04ECE52CC094445C92A890355050051
:1048A8002E8A5144EF609005AA8459CD83C7319C64
:1048B800FD1793F7F70F054749446377F708034750
:1048C800C500A1476314F70063100A089C5C4544BF
:1048D800A5EF9165938545711305C00297000020E7
:1048E800E78060F788DCAA894D4439CD1306C002F9
:1048F8008145EFE09F8C83570900938649003685F0
:104908002391F90071469305490036C697F0FF1FB9
:10491800E780605B89472380F90003C5C400B2467D
:1049280003560900611583C5019C13351500EF90E6
:1049380040092A8463060A00D2852685EF7070181C
:1049480001C42685EFF03F852285B2502254925447
:104958000259F249624A4561828083C7319CFD173A
:1049680093F7F70F05476378F708894751C6011190
:1049780022CC26CA4AC84EC652C406CEAA89368A4E
:10498800B2842E89EF6080772A84D14729C9485597
:1049980009C597000020E780A0F5F1452685EFE0DE
:1049A8003F8448D4CD4705CD8346C400214781477D
:1049B800639FE600630D0A000347A501035605013E
:1049C80093062501AA854E85EF708007AA870347BD
:1049D8004400630F0900136767002302E400F240F4
:1049E8006244D2444249B249224A3E8505618280E6
:1049F80013674700DDB7C9473E858280E14763EB0F
:104A0800A70097270020938767FB06053E95035567
:104A18000500828041657D158280011122CC2A849F
:104A28002E8526CA06CEAE84EF60406D0DCDB74701
:104A38000F009387F723094563E2870281450A85BA
:104A48004146EFE08FF7A685231081000A85418053
:104A580023018100A3010100EF801059F240624454
:104A6800D244056182804945D5BFA380A19C82803C
:104A78006F80F06D797152CC2A8A328522D426D281
:104A88004AD04ECE56CA5AC85EC606D662C4AE8B47
:104A9800B28A368BBA843E89C2894684EF60006642
:104AA80015C92A8C63140A0213774B008347450003
:104AB80015CF93E727012302FC008DEC631C090244
:104AC800639A090205E8ED9B2302FC00832B8C0303
:104AD800639F0B06B250225492540259F249624A1B
:104AE800D24A424BB24B224C45618280F59B93E7F8
:104AF8000701D1B793E747002302FC0001CC1C480B
:104B08004146A2852324FC0213058C0197F0FF1F60
:104B1800E780603B63910B02D5D80325CC0209C519
:104B280097000020E780C0DCF1452685EFE04FEBD9
:104B38002326AC0261BFE30B09F80325CC0209C5A3
:104B480097000020E780C0DAF1454A85C5B79DC4C3
:104B580083A70B0299EB9165938535717145970091
:104B68000020E78040CF23A0AB0203A50B0219C5A4
:104B78007146A68597F0FF1FE780E0346388090235
:104B880083A74B0299EB9165938525715945970049
:104B98000020E78040CC23A2AB0203A54B0219C535
:104BA8005946CE8597F0FF1FE780E0311DC483A7E3
:104BB8008B0299EB916593851571514597000020FB
:104BC800E78060C923A4AB0203A58B0219C551462F
:104BD800A28597F0FF1FE780002F2254B25092540D
:104BE800F249B24B224CCA865A860259424BD685A4
:104BF8005285D24A624A45616FF04FF5011126CAC3
:104C080052C406CE22CC4AC84EC62A8AAE84EF6069
:104C1800E04E25C5AA893945EFE08FA32A8431CD16
:104C280017290020034989DC6314090003C9090016
:104C38009307000D2310F400AD472301F40093857A
:104C4800690013053400194697F0FF1FE780A02775
:104C580093F71400858085882306F400A306940042
:104C680023154401A2856244F240D244B249224A43
:104C78004A85424905616FE00FA8F2406244D24478
:104C88004249B249224A056182809387419188430B
:104C980001CD411106C697000020E78060C5B240EB
:104CA80023AA0190410182808280011106CE22CC84
:104CB80026CA4AC82EC6EF60604439CDB2451729C6
:104CC80000200349A9D2AA840CD56314090003491A
:104CD80005004145EFE0CF972A841DCD9307000DCD
:104CE8002310F500A5472301F50083C754009385D9
:104CF80064001105A30FF5FE194697F0FF1FE78022
:104D0800801C9C54A285F2405CC46244D2444A850B
:104D1800424905616FE02F9EF2406244D244424905
:104D280005618280797122D406D62A842EC6EF6066
:104D3800E03C0DCD8346C5001147AA8749456393DA
:104D4800E6029C5FB24599C383C567010808EF7006
:104D58004060978600009386C6E51008894522853D
:104D6800EF60D052B2502254456182805145DDBF78
:104D780083C7319CFD1793F7F70F0547637AF7044C
:104D8800894721CA411122C426C24AC006C6B28434
:104D98002E89EF60A0362A84D14705C5630809002B
:104DA8008347450093E727002302F5004146A6857F
:104DB8001305840197F0FF1FE780E0109C481CD47E
:104DC8008147B2402244924402493E854101828093
:104DD800C9473E858280797122D406D62A842EC698
:104DE800EF60C03101CDB2452285230EB1006C08B9
:104DF800EF70A049B2502254456182805145DDBF11
:104E08006F60403DC1671387E7FF6394E5029387AE
:104E180001929C4391EB494582804945B240224426
:104E2800924402494101828003A30700E30503FE7F
:104E38000283411122C426C24AC006C6FD172A8928
:104E48002E84B2846395F502938701929C4391CB9B
:104E58009C4381CB829711E5238A2193A38A91925F
:104E680075BFA6854A85EFE01FFA4DF9F5B72E857F
:104E7800EF60C0285DD1834705000D45E39027FB0F
:104E880022852244B2400249A685924441016F908E
:104E9800405261476362A7044111416722C406C6B4
:104EA80026C27D172A8409456383E502C547AE8477
:104EB8006315F4002E85EF904057931714001724BC
:104EC80000201304A4AFA297239097000145B24095
:104ED800224492444101828009458280011106CE14
:104EE8002AC6EFE07FF4EF102004EF002076EF30C1
:104EF800511F324597270020938787AF130700F08B
:104F08002391E700238207007D579387019CA380A4
:104F1800E7002380A700F240954505616F405040A7
:104F28005D7193970501CAC086C6A2C4A6C24EDEAB
:104F380052DC56DA5AD85ED662D466D26AD0C187B5
:104F48002E8963D8074C03C5019CEFD05FF48964B0
:104F5800416A856A797B2A84938BD4007D1AA50AD5
:104F6800691B15E021653345A900B64026449644DF
:104F78000649F259625AD25A425BB25B225C925C91
:104F8800025D61618280834704001307200A639DE4
:104F9800E70003552400172C0020034C9CA522860B
:104FA800D285EFF0AFAB3DAA1307100903CC119CD3
:104FB8006397E716834714001547639EE700228529
:104FC800EFF04FAE2285EFD0FFE503C5019CEFD08F
:104FD8001FEC2A8479B739476399E71603554400CB
:104FE800631B55050C4483C90500639D09008505AD
:104FF80091C9194617250020130505A197F0FF1F31
:10500800E78060EC172700200347879E85476318D1
:10501800F710638A090097270020238B079C4E8589
:10502800EFF00FDB45B78947172700202302F79CCD
:10503800EF90E03941BF93872400631AF50683296E
:105048008400638E090C83C709008DE383C7290098
:1050580003C71900A207D98F17270020231EF79826
:1050680083C7390017270020A304F79817270020C3
:105078000347079889476314F70A83C7090081CB58
:10508800972700202386079603C5090051BF8D473F
:105098009725002083C5D595172500200355C5956C
:1050A800172700202306F794EF40902AF1BF938733
:1050B80054006318F5001C4403C50700EFF06FF1B6
:1050C80011B7B3076501C207C1831147636FF700C2
:1050D800938741929C43E38707EE9C43E38407EE62
:1050E80022858297E31005EE1DA89387B400631FFD
:1050F800F5009387C1919C43E38607EC9C43E383C7
:1051080007ECA2851385B4008297E9BF9387C40092
:105118006310F5021C4483C70700E38507EA930779
:10512800F00FE301FCEAA2856285EFD0DFDC71BDF8
:105138009387E400E315F5FE938701929C43E3838C
:1051480007E8DC43A285E9F3B5BD3D476397E7046B
:1051580003554400E30275FF93879401E30EF5FCC1
:1051680093873401E31DF5FA9727002083D7A78892
:10517800639E4701938701929C43E38507E4DC43E0
:10518800E38207E4A28513853401BDBF938781922A
:105198009C43E38907E29C43E5B71307E003E390E8
:1051A800E7F88347240005476396E70E83476400C2
:1051B800138D4191F1E383270D00D5CB03CC070074
:1051C800A14903457400930C8400E685EFE03FFA9B
:1051D80083474401A303A400835804010358E4004F
:1051E800035744002A86034534003EC283572401EE
:1051F800E686E2853EC0CE87EFF04FCE8347340087
:1052080095E7DD47835804010358E400834674009A
:10521800835544003EC283572401668705463EC035
:105228006285CE87EF60C01AA301A40083270D0012
:1052380081C71145EFF07FA503C54193E30405D865
:1052480083C55193EFE03FBCE30E05D68346340097
:1052580093071003638AF600035644004E8783C5FC
:1052680041933685EFE05FC4238A0192A1BB171CE6
:105278000020034C1C78A9B7938741929C43171CC4
:105288000020034C1C7791498DDFDC439DDB0145F1
:10529800829705BF29476395E70A83476400938C83
:1052A8004191C9E383A70C00ADCB03CC0700A1490A
:1052B80003467400834704028358C401058AA30384
:1052C800C4000358A40103574400034534003EC2F8
:1052D8008357E401130D8400EA863EC0E285CE8739
:1052E800EFF0CFBF8347340095E7DD478358C4010B
:1052F8000358A40183467400835544003EC2835773
:10530800E4016A8705463EC06285CE87EF60400C9F
:10531800A301A40083A70C0021BF171C0020034C85
:105328005C6D71B7938741929C43171C0020034C16
:105338005C6C9149B5DFDC43A5DF014582978DBFE1
:105348000947639DE7009387C1919C43E38C07C697
:10535800DC43E38907C622858297ADB12D4763995F
:10536800E7009387C1919C43E38E07C49C47D5B758
:105378000D476397E70022868D450355440015B114
:1053880019476395E7069305610113051031EF305E
:1053980041602C0813052031EF30A15F03566400EB
:1053A800835781010355440063E8C700835684008E
:1053B8000357610163F7E60093050002EF90E005EB
:1053C80011B16374E6002313E40063F4D7002314D7
:1053D800F4000357C4008356A40003568400835581
:1053E800640001488147EF900003E9BE1D47E39838
:1053F800E7D203574400E3E4E7D2971700209387E6
:10540800676906073E9783576400F1172310F70072
:1054180039B393F7150081CF9387C1919C4389C70E
:10542800DC4399C301458297134519003DBE93F7A4
:10543800250081CF938741929C4389C7DC4399C358
:1054480005458297134529000DB693F74500014598
:10545800E38D07B0938781919C4391CF85471717B8
:1054680000202309F758938741929C4389C7DC435E
:1054780099C3054582979717002093876757C847B0
:105488002C08EF80801F2808EFF0CFB09717002076
:1054980083D7E75491CB130600643386C70291453E
:1054A80003C5019CEFD0DFED134549007DBC4111D8
:1054B80022C42A84554506C6EFF04FD4B335A00060
:1054C80022852244B24041016F80F071797122D463
:1054D80006D68D472E84631FF50003D7A50083D613
:1054E800850003D665000345340083D54500EFF0F9
:1054F800AF9609A889671387D7006310E50403C529
:10550800250019E58547B25022543E8545618280C1
:10551800938741919443FDD603C6360083C50600A0
:10552800814802C202C00148814701479106EFF055
:10553800EF9A0545EFF06FF5F1B71387E700E3033E
:10554800E5FC13873701631AE50003C525005DD91B
:10555800014781460146814559BFE507E304F5FA4D
:1055680041677D178147E310E5FA03C75500C9472E
:10557800E31AF7F883D6E50003D6C500035584007F
:1055880083D5A500EF80F06A51C15D45EFF00FC7E4
:105598003335A000231CA100834544000355240093
:1055A8003008EF50502983578101A9FF6C08130573
:1055B8001031EF30013E9305E10113052031EF3042
:1055C800413D8357C101035784006374F7002314D6
:1055D800F4008357E1010357A40063F4E70023159F
:1055E800F400835584008357A40063F4B70023159F
:1055F800B4000357E4008356C4000356A4000355BF
:10560800240001488147EF80105FEDBD8547231CCA
:10561800F10059B7C1671387E7FF639DE5009387DA
:1056280041919C4395C383C707000D47639CA7001E
:105638006F80B05BFD1749476396F50093874191EA
:105648009C43FDF73A8582804947EDBF238001944A
:1056580023A4019423A20194971700209387473B22
:10566800170700001307E74798C317070000130739
:10567800074BD8C3170700001307675B98C79387C2
:10568800819317070000130727F998C3170700002D
:10569800130707E4D8C3828079714AD013898194AB
:1056A8008327090006D622D426D24ECE52CC56CA1B
:1056B8005AC881EF0545B250225492540259F24912
:1056C800624AD24A424B45618280034705008547BA
:1056D8002A846301F7040346850093069500930521
:1056E800F1000545EFE03F8D814719C1834705006B
:1056F8008346040011476387E602138741941843E1
:105708008D4603471700630FD70089CF01CF11E5F6
:10571800014555B781470145E1BF8546631DD7045B
:105728008D8BFDD703451400130B2400DA85EFE0B9
:105738001FA4A300A400832709002A8A814993048F
:10574800F00FB1E3834604009147E383F6FC832717
:105758000900DDDF03C6019401479305F00FE30953
:10576800E6FABE84C10703C507FF6301B510050744
:105778001377F70FEDB78946E31CD7F8858B55B734
:10578800850993F9F90F83C70194E3FDF9FA032515
:105798000900939A4900569583470500E38297FECE
:1057A80083471500E39E47FD1946DA850905EFD0C2
:1057B800FFA679D58324090003470400D694D9D0DD
:1057C8009147631CF706C84405C583478400034610
:1057D80005006306F606034704009147631DF706B4
:1057E800C84419C597F0FF1FE780801023A604005E
:1057F8000345840091659385E571050597F0FF1FC2
:10580800E780600505C5034704009147631EF70458
:10581800C8C483478400930594000505A30FF5FECB
:105828000346840097E0FF1FE780E0690345840092
:105838003335A00049B588C48DA8884471B793054D
:1058480094000505EFD09F9D8547E316F5F855456B
:10585800EFF0CF9ABDA8884441DD97F0FF1FE7809D
:10586800200923A4040069B788C465B72380D4003D
:1058780083471400DA8513852400A380F4001946B1
:1058880097E0FF1FE78020640345840091659385B6
:10589800F571050597F0FF1FE780E0FB05C5034795
:1058A80004009147E319F7F8C8C4834784009305B7
:1058B80094000505A30FF5FE0346840097E0FF1F3B
:1058C800E780606083478400E39607DE03450400B1
:1058D8007D1513351500C5B3011122CC13848194AD
:1058E8001C4006CE26CA4AC84EC652C499CF2E8A34
:1058F800AA840149084063129902630C0A0497F0CC
:10590800FF1FE780E0FE23A40194F2406244D244E2
:105918004249B249224A0561828093194900B30776
:105928003501884709C997F0FF1FE78060FC1C40D4
:10593800CE9723A407001C40CE97C84709C997F003
:10594800FF1FE780E0FA1C40BE9923A6090005095D
:1059580055B745DD139644008145EFD01F861440A6
:1059680081477D5613F7F70FE37197FA13974700AE
:1059780036972300C7008507F5B7011152C4138A6B
:10598800419483270A0006CE22CC26CA4AC84EC6AE
:1059980056C25AC0C9CF2A89014419ED9387819408
:1059A800944399CA03C601942A8481479305F00F4A
:1059B80013F7F70F6367C708131534002105EFD0F5
:1059C8002FC9AA8401E92145EFD08FC8AA8421C52F
:1059D80001444D49930700FD2380F4008547A380C7
:1059E80024012381F400A38184005DC41389840009
:1059F80023A224018149938A8194130BF00F83C752
:105A0800019463F3F90031E883270A00A68503C5EA
:105A18000700EFD04FCE814503C50194753D03259E
:105A28000A0097F0FF1FE780A0EC23A20194F24040
:105A38006244D2444249B249224A924A024B056121
:105A48008280139747003697034707006305B7001E
:105A580005041374F40F8507A1BF83A70A00939563
:105A68004900BE9583C70500638467032300F900D6
:105A780083C71500130529007D14A300F9001946F2
:105A880089051374F40F97E0FF1FE780C0432109CD
:105A9800850993F9F90FA5B723A20400B5B74111F9
:105AA80022C406C62A8405E10945EFE03FF52A86A7
:105AB80011C5854503C5019CEFD09F8C0545EFF0C6
:105AC8001F9F2A8401C9854503C5019CEFD0FFA10A
