:040000006F108021DC
:1000040000000000000000006F0080086F00E02284
:1000140000000000000000000000000000000000DC
:1000240000000000000000000000000000000000CC
:100034006F004006000000006F00E00500000000B3
:100044006F0080056F0060056F0040056F0020059C
:100054006F0000056F00E0046F00C00400000000A2
:100064006F0060046F0040046F0020046F00000400
:100074006F0060236F00C003000000006F00600386
:100084006F0040036F0020036F0040236F00E00205
:1000940001A001A001A001A001A001A001A001A054
:1000A40001A001A001A001A001A001A001A001A044
:1000B40001A001A001A001A001A001A0B717004068
:1000C400130770052380E704130780FA2380E704ED
:1000D4002396A70223800704371700408347270588
:1000E400898BEDDF835707053717004083472705C2
:1000F400898BEDFF3717004083472705898BEDDF98
:10010400035507058280B7170040930670052380C6
:10011400D704130780FA2380E70403C6B7041376D1
:10012400F60DA385C70423800704137605022DC6A4
:1001340003C6A700118A0DE22380D7042380E704B5
:1001440003C7A700136747002385E7009307004B05
:1001540001000100FD17EDFFB7170040930670057D
:100164002380D704130780FA2380E7047D8923942E
:10017400A70001000100010001002380070423807F
:10018400D7042380E7049306100537270040A30310
:10019400D780238007048280137605046DDE03C6AE
:1001A400A700418A0DE22380D7042380E70403C714
:1001B400A700136707012385E7009307007D01006B
:1001C4000100FD17EDFFB71700409306700523806B
:1001D400D704130780FA7D892380E7041365050497
:1001E4002394A700010001000100010023800704FB
:1001F4002380D7042380E704930630053727004083
:1002040079B74111814601468145114506C6D5227B
:10021400B7170040130770052380E704130780FA1B
:100224002380E70403C76704136717002383E704E5
:1002340023800704B2404101828081460146814502
:100244001145452AB7170040130770052380E704BA
:10025400130780FA2380E7047D572396E70203C738
:100264006704136717002383E7042380070401A0AE
:10027400BD473305F50201007D1575FD82804111EE
:1002840022C426C206C6AA84014463179400B2405D
:10029400224492444101828005041305803E4204B5
:1002A400C13F4180DDB7B71700401307000323881F
:1002B400E702854723ACF1867300203037470040BE
:1002C400834747C09946BD8B638BD702314763850B
:1002D400E70011476397E702B745004003C6A5C08E
:1002E40013854127938585C097F0FFDFE780C0849D
:1002F400420541810DE585472385F18A19A083478D
:1003040057C073002030834687C0850793F7F70FE3
:10031400238AD1888346A7C0E3E7D7FEE9BF814794
:1003240037470040C5BF411106C6992997F0FFDF42
:10033400E78000CCDDBF2303048015472303E4805A
:1003440001002302A480828083076480E3CE07FE39
:1003540023030480828083076480E3CE07FE034581
:100364004480828083076480E3CE07FE2302A48056
:100374008280411126C44AC24EC006C61377F50BCB
:10038400AD47AA892E8995446306F7001945653758
:10039400653F8D444E854537FD59FD1463983401FE
:1003A400B240A24412498249410182801355090195
:1003B4001375F50F453F2209CDB7011126CC06CEA2
:1003C400B704080051371545BD37713769372AC658
:1003D400A53F32459377150089EB13651500137516
:1003E400F50FF240E24405618280FD14E9FC014509
:1003F400CDBF397126DC4ADA4ED852D656D45AD2F9
:100404005ED006DE62CE66CCB7E700E07D5783AAF5
:10041400070022C603AA470023A0E71823A2E7186F
:10042400B7170040130770052380E704130780FA09
:100434002380E70483C74704930B75FFB684E20760
:1004440093FBFB0F8546AA892E8B32893724004003
:10045400E187015763FA76016308D50089461307DB
:1004640000026313D5000157D98F93F7F70FB71C18
:1004740000402382FC0411472303E4801305F00F9A
:100484005D3D094CD13563697C11B70707003E9B7C
:10049400378707007955637EEB02B3079B00636AD5
:1004A400F702A9476399F90689E48144713D2685D9
:1004B4000DA0DA850945753D05090345F9FFFD14CD
:1004C400050B4D3581C49377FB0FFDF7FD3569FDB1
:1004D4007D55B7170040130770052380E704130701
:1004E40080FA2380E70403C74704418B2382E7048F
:1004F400F250B7E700E023A0571123A24711E254BA
:1005040032445259C259325AA25A125B825B724C1B
:10051400E24C21618280A5476395F9068569130938
:10052400F00FB3069900B3742B01B6941349F9FF85
:10053400B3749900856B33796901416B9387F9FF33
:10054400B3F7270199E363FC340193D94900C14708
:10055400E3E637FF99BF0569C1697D19D9B713056A
:10056400800D638869011305000263847901130512
:100574001008CA85FD3B913521DD4E99B384344181
:10058400D9B7DA852D45F533CA94E30099F2050904
:10059400D933A30FA9FED5BF9387F9FF93F7F70FBC
:1005A400636CFC0803C75C04B707080013770702F1
:1005B40019E3B78707007955E37DFBF033079B0008
:1005C400E3E9E7F089476390F9048980D549E38E2C
:1005D40004ECDA850945713B11090327C9FF9147EA
:1005E4002320E48003076480E34E07FE2303348161
:1005F400FD17EDFBFD14110B81C49377FB0FE9FF8D
:100604006D3B71F5F1B58547E387F9F4DA852D453E
:100614008D339389F4FFE38A04E8353B93F739007B
:1006240091EB832604800327090093074900E39F85
:10063400E6E63E89CE84F1BFB5476396F90013051B
:10064400900BD5399DB5B1471305B00AE38BF9FE7C
:100654009947639EF902DA852D45213B81448D4BF0
:10066400A149D53963967401832704802320F900B6
:100674008504E39834FF8327048013172B01635503
:1006840007002312F90015B52322F90039BD9D474F
:100694006399F90281451305B004E139BD4423206F
:1006A400090023220900FD597D3193F77400CA978C
:1006B40003C70700FD14398D2380A700E39634FF98
:1006C400EDB3A1476392F904CD398144630D0B0066
:1006D4008D479304C0036308FB009304000563047F
:1006E4008B01930440041375C507E30095DC194599
:1006F40099319939054581312685AD3109459D31B9
:100704006D39E31405DAE9B391476399F9001305E8
:100714006006153115391305900925B7E38709D803
:10072400F15469B319CDB71700401307700523803E
:10073400E704130780FA2380E7042396A7022380A3
:100744000704828019C1814799E982803387F500C3
:10075400834607003307F50085072300D700E39796
:10076400C7FEE5B719C1FD5781E98280910503A74A
:10077400C5FF1105232EE5FE7D16E319F6FEF5B738
:10078400797122D4173400001304042D1C4006D6BA
:1007940026D24AD04ECE91C782979737000023AD18
:1007A400072A5C4089CB03D5818BAD3F5C4082979F
:1007B40003D5A18B853F1C40639C07189737000025
:1007C40083C7173D858B95C797370000A382073CE5
:1007D400173700000347F73B914763FCE7007D2B85
:1007E4009737000083C7F73AF9178A07A2979C4303
:1007F40082979737000083C7673E918B89C797001C
:1008040001E0E78060011C4491C382979387418B88
:10081400984317360000034636223E899734000079
:10082400938484219737000083C707219396170088
:10083400BA9683D60600638306109737000083C7F1
:10084400A71F63FBC70686073E978355070023103F
:10085400070003D5818B2EC6F1359387818C9C4389
:10086400173500000345451D13172500BA979C430F
:10087400B2458297AA8903D5A18B6D3597370000BD
:1008840083C7871B1397170083270900BA9703D7D9
:100894000700B3E9E9002390370183C70400850703
:1008A40093F7F70F173700002308F71817370000DE
:1008B4000347971863E6E70097370000238E07166F
:1008C4001C40D9E79387018C98433E8451C39737E2
:1008D400000083C7572C91CB9737000083C7772B31
:1008E40089E7970001E0E780C0B71C4082972A841B
:1008F40025C19C48AA97173700002327F71493872C
:10090400418C9C43B1C703D5818B293D228597F047
:10091400FFDFE78000E6973700009387270EDC535C
:1009240089C797F0FFDFE780A0BE2254B2509254EB
:100934000259F24903D5A18B4561EDB3850793F7BD
:10094400F70F973600002389F60EE3EDC7ECF5B5F3
:10095400B250225492540259F249456182809167FF
:10096400B7C600409387373023A6F6200F10000047
:10097400973700009387470C884F9387419B9C438C
:10098400316713073730F053B7071000FD17918F05
:1009940099833A0523A6E6205D8D82804111B7171D
:1009A4000040985F3AC6945F3247E39CE6FE3245C6
:1009B40041018280411106C6D5379736000083C6AF
:1009C4002605858AB1C6930730333307F502B3375A
:1009D400F5023983CA07D98F173700001307C705F3
:1009E400584B01456303F7023385E740636BF70017
:1009F40037653D0889C637856F0813050590198D3D
:100A04003E95173700002323F704B240410182804A
:100A1400E5473307F502B337F5022583DE0765BFE3
:100A24000327C50F8346B500973700009387071641
:100A34009C4F58439386160295829043FD1693F675
:100A4400F60F10C3D04350C3904710C7D04750C7C8
:100A5400904B10CBD04B50CB904F10CFD04F50CFAA
:100A640091C61307070293870702C1BF8280834799
:100A7400E50193F7E70F91CB014582800145B24030
:100A8400224492440249410182808347F501EDF7F3
:100A9400834605010347850089CA0346A5029737A3
:100AA400000083C7F7F66367F60093770701E9D779
:100AB400814789CA834705158346F514418BA207EC
:100AC400D58F01CB03474515834635152207558F2E
:100AD400BA97DDD317370000034787F34111931604
:100AE400870106C622C426C24AC0E18663D506042D
:100AF4009387C71313D4570097370000938787143D
:100B0400BC479734000083C444F17D5903A7070808
:100B1400637327013A899C43F5FB9387C18C9C43FB
:100B24008297E36DA9F43305A940269433348500F4
:100B340013451400A9B7058B9387C71209CB8A07FD
:100B44001384F7039307D0073354F40275B7860769
:100B54001384F7019307D003C5BF5D7122DE1384AC
:100B6400419A3AD218403ED04ACA1C5F86C696C4FF
:100B740099839AC29EC026DC2ADA2ED832D636D47D
:100B840042CE46CC72C876C67AC47EC2858B13899F
:100B9400019AC1C31C5F97340000938424FF93F728
:100BA400F7F91CDF9737000083C747FE93F7070464
:100BB4008DC39387C18C9C4382979737000023AFE2
:100BC400A7FC83C7040093F7F70B17370000230F24
:100BD400F7FA854717370000A30CF7FA83C74400D8
:100BE40093F7070481EF9387419B9C43D844B8D380
:100BF400930700FC17370000230CF7F88387640081
:100C040063D90700832709009C4317370000230298
:100C1400F7F818401C5F8583858BC9CBF5571CDF1B
:100C240001000100010001000100010001000100B8
:100C340001000100010001000100010001000100A8
:100C44000100010001000100010001000100010098
:100C54000100010001000100010001000100010088
:100C64000100010001000100010001000100010078
:100C74000100010001000100010001000100010068
:100C84000100010001000100010001000100010058
:100C94000100010001000100010001000100010048
:100CA4009387419B9C4313075004B8CB18401C5FA7
:100CB4009183858B89CFBD571CDF9387419B9C43D0
:100CC40023A807048547173700002303F7EC83277D
:100CD4000900D8430583058B19C7D843759BD8C32E
:100CE400D843799BD8C37254B640A6421643864370
:100CF400E2545255C2553256A25612578257724880
:100D0400E2485249424EB24E224F924F6161730003
:100D140020309387419B944317370000130707E75C
:100D2400BC5289CF83472700858B89EB83473700E3
:100D3400858BFDD797370000238C07E48280938747
:100D4400019B9C4399CB944BD04B9842518F98C2B2
:100D540094439C479842D98F9CC29387419B9C4360
:100D640037C700401306C003A8CB9306200397356A
:100D740000009385A5E183278720C18393F7F703B8
:100D84006369F60083278720C18393F7F70363E63B
:100D9400F60083C74500858BF9DF82809387419BEA
:100DA400944317370000130767DEBC5289CB83478F
:100DB4000700858B91CB97370000238B07DC97378F
:100DC4000000A38707DC828083471700858BF1DF4F
:100DD400DDB79387019B9C4399CB944BD04B9842AE
:100DE400518F98C294439C479842D98F9CC2938751
:100DF400419B944337C70040C145A8CA6546832731
:100E04008720C18393F7F70363FBF50083278720CB
:100E1400C18393F7F7036364F600BC52EDF3828059
:100E24001387419A1843AA87185F1583058B25EF0A
:100E34000345150015051377C51F19C6B386E700CA
:100E440083C626002300D60095C59736000083C6C6
:100E540046D493F606040945A1CAB386E70083C6BF
:100E64003600054693F5F6066390C504E206E1866E
:100E740063CC06023385E70083471500034705006A
:100E8400A20793F70770D98F1397070141839376CD
:100E9400074099C6136707802396E19A014582802B
:100EA4002396F19AE5BF05458280011136C89386E1
:100EB400419B2ECC8C423AC63EC498452ACE32CAB7
:100EC4009317070142C2C1831378172036853E86E3
:100ED40097360000938686CB6304080413770720B3
:100EE40061CF03C7260013671700173800002300DB
:100EF400E8CA13070019B8D1130700F897350000A2
:100F04002388E5C81387419A0C4337080010D85545
:100F1400719B13672700D8D598413367070198C19F
:100F24001377261005C31376061045CA03C70600B7
:100F34001367170017360000230AE6C417370000AA
:100F4400231A07C483C6460093C7F7FFC207E20605
:100F5400E186C183184163D106029396170163D7D2
:100F6400060830538D4663E9C600854617360000EF
:100F74002300D6C23453FDFE97360000938606A89C
:100F84008386460163DD060093960701C18663D517
:100F940006067053894663E4C6007453FDFE144785
:100FA4007245E245F58F1CC75246C2463247A247F6
:100FB400124805617300203003C716001367170039
:100FC40097350000A384E5BC17370000230207BC53
:100FD40017370000231007BCA1B703C736001367F7
:100FE400170017360000A304E6BA89BF85461736F2
:100FF4000000230FD6B849B754471396060163512E
:101004000602B7061000FD1674D3973600009386C7
:10101400A6A2944E850617360000232BD6A241B70C
:10102400A166D58FADBF173700001307E7B7834616
:10103400B7019737000083C777BAB69793F7F70FCE
:10104400FD4663EAF6044C4B97360000A38EF6B4D3
:101054009737000083C757B505473317F70097360E
:101064000000A38DF6B66D8F1DEF9736000083C682
:1010740036B7B3F6D70213050002814733D6F5001D
:10108400058A13F8F70F09CE6399E6009737000035
:10109400A38C07B1828081177DB705071377F70FFB
:1010A4008507E39DA7FC82809387C19B9843B7572C
:1010B40002009387079F83260709139656006358F7
:1010C4000600832607091396660063440600FD178D
:1010D400FDF3828051C9AA870145C9C98D07C2079A
:1010E400C183F19BC207C18313074003636BF702FB
:1010F400138701A50843138781A414436396A602AA
:10110400173700001307878F185B014525C341116A
:10111400C20706C60545DD8D0297B240014541016F
:1011240082801387C1A4F9B70357650005EF0357FD
:1011340045006369F702B306F74021466370D6029F
:101144001041938687001D8FAA96611790C223923F
:10115400E6002393060014C12312F5002313B500FF
:1011640021058280084159BF01458280828001CDDA
:10117400938701A503A80700938781A48C430147A3
:10118400C28763E3B70082809443636FF50663ED1F
:10119400A60613868700E368C5FE03D567002166AB
:1011A40005066317C50003C6419605062382C1964A
:1011B40023930700638407031386C1A41042630FBB
:1011C400F6000356670019EA83D7470014C3835611
:1011D4004700B697A1072312F700BA879843E304A0
:1011E400B7FA9386C1A49442E30FD7F883566700F5
:1011F400D9FA83D64700035647001843A106B2968E
:101204002392D70098C382803E87B6879DBF000093
:10121800974100209381013417710020130101DEEA
:1012280013054000972500209385455D173600205B
:101238001306C67D63FAC5008322050023A0550066
:1012480011059105E3EAC5FE17C50100130545E13F
:10125800973500209385857B1386818663FAC500C0
:101268008322050023A0550011059105E3EAC5FE78
:101278001385818697650020938545276377B50098
:10128800232005001105E36DB5FE9302800873A0C5
:101298000230972200209382625693E212007390E4
:1012A8005230971200009382427D7390123473007B
:1012B80020303D432A876373C3029377F700BDEF5D
:1012C800ADE5937606FF3D8ABA960CC34CC30CC7AE
:1012D8004CC74107E36BD7FE11E28280B306C340D7
:1012E8008A069702000096966780A6002307B70033
:1012F800A306B7002306B700A305B7002305B70068
:10130800A304B7002304B700A303B7002303B7005F
:10131800A302B7002302B700A301B7002301B70057
:10132800A300B7002300B700828093F5F50F9396CA
:101338008500D58D93960501D58D61B793962700C5
:101348009702000096968682E78086FA9680C117F3
:101358001D8F3E96E374C3F8A5B7B717004003C7BF
:1013680077051377E70FA38BE704130700F8A38D1E
:10137800E7043D47238CE70413077003A38CE704B5
:101388008280B717004003D587005D714EDE4205A5
:10139800418186C6A2C4A6C2CAC052DC56DA5AD84F
:1013A8005ED662D466D26AD06ECE9377050C1307E8
:1013B800000881496386E71813070004639AE71455
:1013C800B7240D8F7D8993840480B3D4A4029167D8
:1013D800938707E8BE94A167938707D0B3D4F40234
:1013E800EF90F12097B701009387C7379043D44314
:1013F800EF90A154EF903162AA8B939C040103D91A
:10140800818693DC0C0163150900056913090980BD
:10141800B7170040130770052380E704130780FA05
:101428002380E704B71A00400547939D0401096C1F
:101438002389E704514B01438145138D0A041306A0
:101448007005930680FA094893DD0D01130C0C71A1
:10145800A9482300CD002300DD0023962A0323009A
:101468000D0083C72A05898BEDDF83D70A0583C75B
:101478002A05898BEDFF83C72A05898BEDDF83D782
:101488000A0523942187C207C18333859741131A1C
:101498000501135A0A41630B0A143307BA02635E43
:1014A800070C05034203135303016368680C63D9EF
:1014B800050A3305B04093150501C185C204C180F2
:1014C80063D7450B0965130505713385A502B71761
:1014D8000040130770052380E704130780FA238070
:1014E800E704239637032380070433459502420512
:1014F8004181B640264496440649F259625AD25A66
:10150800425BB25B225C925C025DF24D616182805B
:10151800B1E3B77489097D8993840480B3C4A402B4
:101528009167938707E8BE94A167938707D0B3C4F0
:10153800F402EF90D10B97B70100938727237DB56D
:1015480097B701009387C721856483AB070093840D
:10155800843865B5930B0000954445B53A89D5BDE7
:10156800B387FC40139A0701135A0A4181BF0965E2
:10157800130505713305AA028DBF3385B74163E4AE
:10158800FC003385FD40330585033344B50363C54B
:10159800880013150401A9BF528532C636C4EF90DE
:1015A800313BDE85EF90B10BEF90713413130501D9
:1015B800135303413307694042074183A246324629
:1015C8000948A948631AE900130719006344400150
:1015D8001307F9FF420741837D1B137BFB0FCA8961
:1015E800D285E31D0BF62394E18665B7014511B753
:1015F800B717004003D5870039715ECE4205418197
:1016080006DE22DC26DA4AD84ED652D456D25AD032
:1016180062CC66CA6AC86EC69377050C13070008C1
:10162800814B6388E71413070004639CE710B72411
:101638000D8F7D8993840480B3D4A4029167938726
:1016480007E8BE94A167938707D0B3D4F402EF905C
:10165800017A97B701009387E7109043D443EF903E
:10166800C12DEF90513BAA89939A040103D9A18611
:1016780093DA0A0163150900056913090980B71788
:101688000040130770052380E704130780FA2380BE
:10169800E704139B04010547096A2389E704D14D30
:1016A800014D814C135B0B01130A0A714A8597207F
:1016B8000020E7806020330C5541420C135C0C413C
:1016C80023952187630A0C14B3079C0363D0070E84
:1016D800050D420D135D0D01894763E9A70D63DA16
:1016E8000C0A33059041931C050193DC0C41C2049C
:1016F800C18063D78C0B0965130505713385AC026E
:10170800B7170040130770052380E704130780FA12
:101718002380E70423967703238007043345950243
:1017280042054181F2506254D2544259B259225A68
:10173800925A025BF24B624CD24C424DB24D21613F
:101748008280B1E3B77489097D8993840480B3C426
:10175800A4029167938707E8BE94A167938707D08F
:10176800B3C4F402EF90A16897B70100938707000C
:10177800EDB597B701009387A7FE856483A9070095
:1017880093848438D5B5930900009544F1BD3E890A
:1017980031BF3385AA40131C0501135C0C4181BF7E
:1017A8000965130505713305AC028DBF63FEAA00F8
:1017B8003305654133054503A9473344650363C8C9
:1017C800870013150401B1BF3305AB40E5B7628547
:1017D800EF901118CE85EF908168EF905111131D8D
:1017E8000501135D0D41B307A941C207C183631AFF
:1017F800F90093071900634480019307F9FFC207B2
:10180800C1831387FDFF937DF70FCA8BE28CE390AA
:101818000DF82395F18675B7014529B741112A833B
:10182800014E930E407E130F0019930F400663EB91
:101838006E0A9308001913034006B3781503854E02
:101848000D4FA14F337365020D891335150063E5FC
:10185800BE0C1308F6FF794672984208135808011F
:101868003307C70213D61700BE0732976146B3F68F
:10187800C60213068070B386C6023697A166F58F36
:1018880042075D8FB717004083C6F70293F6060834
:10189800A307D1000346F10083C6F70293F60608B2
:1018A800E394C6FE8346F10093F6F60FF1DE930645
:1018B80070052380D704930680FA2380D70423AACF
:1018C800070383C6170393E60608A388D702D8DB65
:1018D80003C7170313670704A388E70223800704D5
:1018E800410182807D133368E3039308E016630E99
:1018F80008003368F3039308D01663080800937848
:10190800330093B818009388D81633081E01131EA5
:101918000801135E0E0121BF6393E5030548638642
:1019280008000148630303002A8871087298FD15AE
:10193800131E0801C205135E0E01C18109BF13F809
:10194800150063F4BF007908D5B713381800E5BF50
:10195800914763EEB70217B701001307A7E18A059D
:10196800BA959C41BA978287B717004003A7470BDF
:101978001345F5FF698F23AAE70A03A7070B698FA9
:1019880023A8E70A03A7070A798D23A0A70A82805C
:10199800B717004083A6470B1347F5FFF98E23AA14
:1019A800D70A83A6070B558D23A8A70A83A6070A7B
:1019B800758F23A0E70A8280B717004003A7470B5B
:1019C800498F23AAE70A03A7070B1345F5FF45BF6D
:1019D800B717004083A6470B1347F5FF758F23AA57
:1019E800E70A03A7070A598D4DB7B717004003A7A1
:1019F800470B498FEDB7B717004003D5870042055D
:101A080041819377050491EB9377F5013755E80108
:101A1800130505803345F50282809377050C13077B
:101A280000046397E7009377F50137459C1CCDB711
:101A38002165130505D0828037E700E01C43544335
:101A4800A183E206D58F1CC1FD572320F718232256
:101A5800F718828013178500B7E700E023A0E71086
:101A6800618123A2A7108280B7F700E0C8439C4792
:101A78008280814737370040A14663C4C70032855A
:101A880082800345B740E38EA6FE3385F500034503
:101A9800050085072304A740CDB7411122C406C617
:101AA8002A84913F2947B307E502B2408D83B3D713
:101AB800870222449507B3D7E70237370040C207A9
:101AC800C1832316F74041018280716541111305D6
:101AD800052006C6D937B7370040130770F82381A9
:101AE800E7400D47A381E74013070004A380E740C0
:101AF80005472387E740B24041018280411122C453
:101B080006C62A84CD3D2947B307E502B2408D8336
:101B1800B3D7870222449507B3D7E7023747004077
:101B2800C207C1832316F7C0410182807165411144
:101B38001305052006C6D937B7470040130770F8C4
:101B48002381E7C00D47A381E7C013070004A380E2
:101B5800E7C005472387E7C0B24041018280B74705
:101B6800004003C717C019C9D98DA380B7C003C7E0
:101B780007C0136787002380E7C0828093C5F5FFFD
:101B8800F98DA380B7C08280CC41411106C6328549
:101B980003C6150083C5050022064D8E42068D65D5
:101BA8004186138875A2630C060F6348C80413881E
:101BB80045A26306060B634AC800938535A26309EC
:101BC800B60623900600294679A0138855A2630813
:101BD800060B938565A2E316B6FEC1451D4663EC68
:101BE800E5064546198E63F3C7003E862390C60076
:101BF80097B50100938545BA89A8138895A2630013
:101C0800060F634E060B1388A5A2630A060F938579
:101C180005A5E318B6FA99451D4663EEE502198E47
:101C280063F3C7003E862390C6009385818031A860
:101C38009D451D4663E1E5022146198E63F3C70001
:101C48003E862390C6009385C186BA9597200020CA
:101C5800E780002F0146B240328541018280AD45C0
:101C68001D46E3EAE5FE3146198E63F3C7003E865A
:101C78002390C60097B501009385C5B5F9B7B1455E
:101C88001D46E3EAE5FC3546198E63F3C7003E8638
:101C98002390C60097B501009385C5B47DB7C145AB
:101CA8001D46E3EAE5FA4546198E63F3C7003E860A
:101CB8002390C60097B50100938545AF79B7C14514
:101CC8001D46E3EAE5F84546198E63F3C7003E86EC
:101CD8002390C60097B501009385C5B1BDB7C1452E
:101CE8001D46E3EAE5F64546198E63F3C7003E86CE
:101CF8002390C60097B50100938585ACB9B7B54563
:101D08001D46E3EAE5F43946198E63F3C7003E86BB
:101D18002390C60097B50100938505A73DB7973670
:101D280000209386A6E14146CD45173500201305CE
:101D3800E5CD6F70C011411106C6EFF08FE4BD47C5
:101D480063F4A700EFF0EFE36530BD4763F3A70046
:101D58004530B24083D5A18603D5818641016F10F5
:101D68004055411193962500AA852D4506C6972012
:101D78000020E780C0E7B24001454101828041115F
:101D880022C426C24AC02A842E89B284AA85930610
:101D980000200146254506C697200020E78020E55B
:101DA800931629002686A285294597200020E780DA
:101DB80000E4B24022449244024901454101828034
:101DC800011122CC06CE3714004026CA4AC84EC696
:101DD80052C483447405034AB405834984050349FE
:101DE8009405EFF08FD78347A40593F4F40F137A83
:101DF800FA0F93E71700230DF40493F9F90F1379F9
:101E0800F90FB717004003C7A705058B6DFF03D56A
:101E1800C705A38D4705238C3705A38C2705A38BFE
:101E28009704F2406244D2444249B249224A0561C9
:101E3800828041119397050122C406C6C1872E846A
:101E480063DD0700EF00D05019C1EF00D0492165CC
:101E5800218DB24022444101828093F7150013C5B9
:101E68001500E5FB9397250163D00702EF200101D8
:101E7800D93537F60200130606E0896503C54187A0
:101E8800EF10201C0965E9B7939715010145E3D2C6
:101E980007FC17B501001305A59BEF90C172130647
:101EA8000064916503C54187EF10A01911654DB70E
:101EB8001D71494697B501009385059517B5010031
:101EC800130505D086CEEF10800101E917B5010092
:101ED8001305C594EF90216F01A037F700E0F9577B
:101EE8005CC7FD571CCB8566B7E700E023A0D71079
:101EF8001306701010C3B8434146B0C323A0D718C7
:101F0800B8C3010001001306C00381454808EF006B
:101F1800F076974700209387E7AD3ECA8967938795
:101F28000780231CF100ED47A301F1029307A010DD
:101F38002312F102D1472303F102A167938707E037
:101F48003ECE97070000938707E2BEC497070000BC
:101F5800938727E3BEC685472304F102B5472308C4
:101F6800F10297070000938767B03EDAB7F50700DC
:101F780097070000938707E53EDE81469707000034
:101F88009387A7DB7000E1051945BEC097200020A4
:101F9800E780E0C558088147994670003E96034699
:101FA800060085070507A30AC700E398D7FED247AE
:101FB80091C70357810185676373F70001A048083B
:101FC800EF102042AA8501C917B5010013054586FF
:101FD800EF90C14D01A0F64025618280411117059F
:101FE8000000130545E506C622C4EF10003C138423
:101FF80041872300A4002928034504002244B24055
:1020080037F60200130606E0896541016F10600388
:10201800411106C6B7170040130770052380E7046F
:10202800130780FA2380E70403C7F7021377A70F83
:10203800A387E70203C7F70213672700A387E7020E
:10204800DD391305407E81470147814605468545B0
:10205800EFF0CFFCB240014541016F10606079712B
:1020680026D206D622D44AD04ECE52CC03C88500FA
:10207800A144137808026311080683C805000948BB
:102088002E848144639A080503A84500AA89328AE8
:1020980083471800034808003689A207B3E70701F9
:1020A800C2070D68C187130828906380070581441B
:1020B8000357A4009737002083D7A7AE631EF70005
:1020C8009387C1879C4389CB0D473AC223162101C8
:1020D80052C44C004E858297B2502254268502592C
:1020E8009254F249624A456182808547EF50C0198F
:1020F800AA845DFD9387C187984355DB83471A00FF
:1021080083460A004C00A207D58FB337F000850735
:102118003EC24E85029769BF011117A5010013053C
:10212800657322CC26CA2EC606CEB28436C4EF907A
:102138008149B245214483C78500C18B9DEF03C601
:10214800050089470144A2466319F602D84183472E
:10215800170003470700A207D98FC2070D67C18779
:1021680013072790639BE700CC452390C60026857C
:10217800094697200020E780A0DC2285F2406244CF
:10218800D2440561828041677917630CE5024111E9
:1021980022C406C685472A84639AF500228522440C
:1021A800B240938541A641016F60505589476396B7
:1021B800F5008545EF80D07575D1B24022444101C4
:1021C80082808280411126C2AA844165938541A6F6
:1021D8007D1506C622C4EF6070521705000013056E
:1021E800C5FAEF80706A973600209386E69B4146D1
:1021F80099451735002013052595EF6050452A8429
:1022080019C517A501001305A565EF90C13B2285E7
:10221800B240224423AE918692444101828041110A
:10222800938541A606C6EF50E000B2407D151335F0
:10223800150041018280411122C42E84938541A654
:1022480026C206C6AA84EF40F07E058915C19737D5
:1022580000209387678F83D7A702A285B2402310F7
:10226800F400224426859244014641016F503059BA
:10227800B240224492444945410182808357250057
:10228800035505003385A740420541818280AA870E
:1022980005C21307F6FFB376C700054599EA23A0E0
:1022A8000700CCC32394C7002395E700014582802B
:1022B80005458280232005008280AA871145B5C77D
:1022C8002DC683D6070003D787000D45369783D6DA
:1022D8002700158F4207418329CB0145B9C583568D
:1022E80006006373D700BA86C206C1820147131578
:1022F800070141816366D5002310D600014582801D
:102308003385E5008348050003D8A70003D52700D7
:10231800050733780501C84342952300150103D505
:10232800270005052391A700D9B782802A8729CDE0
:10233800835605008357A500B69783562500850761
:10234800958FC207C183BE866373F600B286C20644
:10235800C1820D459DCB81476394D700014582809A
:10236800035627000355A70003C805008507718D8C
:102378005043C207C1832A9623000601035627004B
:1023880005062311C700C9BF11458280AA871145D8
:10239800B1CF29CE83D6070003D72700158F8356E0
:1023A8000600420741836373D700BA86C206C1821A
:1023B80009450DCF01476366D7002310D6000145B4
:1023C800828003D5070003D8A70033780501C843E6
:1023D8004295034805003385E500050723000501FC
:1023E80003D5070005052390A700F1B7828029C50A
:1023F8000357050083572500998F3E87C207C1837D
:102408006373F600328742074183814763E4E7003C
:1024180001458280835605000356A5008507758E01
:102428005441B29683C606002380D5008356050022
:1024380085062310D500D9BF114582802A86B305A9
:10244800B04017A501001305A5526F90210683D748
:10245800018A6390A7022391B18A2392C18A2393A8
:10246800D18A2E8617A501001305054DBE856F90EC
:10247800E10317A501001305A54D6F90C11403577B
:102488004500011106CE83D7018A6315F702C1679B
:10249800F91723A0F18A23A2018A85471306F100C0
:1024A800854513055030A307F100EF60C140F240A5
:1024B8000561828017A501001305053EEF90A11064
:1024C800FDB741119397050122C406C626C24AC02A
:1024D800C1872E8463D1070203C55181EF0040678D
:1024E80019C1EF0040602165218DB2402244924419
:1024F80002494101828093F7150091CF17260020E9
:102508001306466B9385C18803C55181EF60C10DE1
:1025180013451400D9BF93F7850099CF83C751811C
:102528001307400681465146A14503D5018AEF604D
:1025380001051345840055BF93F705010145D5D71B
:10254800938701829C4385446389970081C70D491D
:102558006377F9101345040149BF03D5018AC131D6
:1025680003D7018A09E9C167F917E315F7FE13854F
:1025780041278933C5B73A85EF10E06F7515239465
:10258800A18A13854127DD3983D7818A636CF508D1
:1025980013854127E531AA8517A5010013054530A4
:1025A800EF80D1701386818A9385C14813854127AE
:1025B800F13B1375F50F23A6018A49FD03D6818ADD
:1025C80001478146ED4503D5018A239DC188EF4027
:1025D800300223AEA188630E050C03D6A18993852A
:1025E800C14897200020E780A095938581890146FE
:1025F80003D5018A8931AA8529CD17A501001305BC
:10260800252CEF80B16A8D4723A0F182ED45138513
:102618008189EF40B0150946C14503C55181EF00D6
:1026280050220DBF9384C18A9840A947E3ECE7F68E
:102638001146C14503C55181EF00B0209C4017A544
:1026480001001305E526850723A6F18AEF80B177F7
:1026580011B7854723A0F1822394018A6DBF03D661
:10266800818A01478146ED4503D5018A239DC188AA
:10267800EF40007823AEA1880DCD03D6A1899385BC
:10268800C14897200020E780A08B93858189014667
:1026980003D5018A4D36AA8511C917A5010013056E
:1026A800E522EF80B16023A021838DB723A091821A
:1026B80065B7894723A0F182B9BF7D15954763E2C5
:1026C800A71217A701001307A71B0A053A951C4173
:1026D800411122C406C6BA972E84828717A5010025
:1026E8001305852A2244B24041016F80D16D03C78A
:1026F800250099476314F7002E85513317A501006B
:1027080013058529C5B703C7250095476317F70C37
:10271800C16703D7018AF91703D5A500630FF7002E
:10272800EF60213F17A5010013050528EF80B16967
:1027380017A501001305C52975B72390A18A83D76A
:10274800E5000966130606902391F18A83D70501EF
:1027580003C551812392F18A83D72501A14523938B
:10276800F18AEF00100E0356E4008355A40017A564
:1027780001001305A524EF8071535DBF17A5010063
:102788001305C52585B783C5250091476397F500CF
:1027980017A5010013050526B1B79947639FF500F2
:1027A8002285F1398345640017A5010013054526E4
:1027B8002244B24041016F80714F9547639AF500FA
:1027C80083471400F1F717A501001305252619BF43
:1027D80017A5010013050526E1BFB24022444101B7
:1027E800828082800111680006CEEFF0EFA483C7D3
:1027F800A18A89CB0946C14503C55181EF00700400
:102808002385018A3245EFF0EFA4B745004083C71E
:10281800B5C01D47636DF70083C7B5C021469385D2
:1028280085C01D8E4206418213850148C936F24093
:1028380005618280411113060020938501281385C4
:10284800014806C622C4EFF09FA405661306068059
:10285800972500209385457713854127EFF03FA3FF
:10286800371400408327840A8D451305000293E737
:1028780007022324F40AEFF0AF8D8327840A8545E5
:10288800414593E707012324F40AEFF06F8CEFF03A
:10289800EFA995450545EFF08FACB2402244B7E764
:1028A80000E0114723A2E71041018280011123179C
:1028B800B1001306E100AA851385014806CEEFF0A2
:1028C800DF9FF240056182809C41011106CE22CC37
:1028D80009476383E7020D476386E7020547639963
:1028E800E700AA8517A50100130505FFEF80113C35
:1028F800F240624405618280AA8517A5010013058C
:10290800E5FFEDB72E8483D5850017A501001305D3
:102918002501EF80B139835784004C401306E1004C
:10292800138541272317F100EFF03F990946C14568
:1029380003C55181EF00E070835584004840BD37DE
:1029480045BF0111170500001305E5B706CE22CCD7
:1029580026CAEF0090259384518199470544238026
:10296800A4002315F100130691009307803E8545C6
:10297800130550302316F100A3048100EF50B17302
:102988001726002013064625E54513057030EF503D
:102998009172138681819D4513056030EF50B171A6
:1029A8001306A100894513051031EF50D17070004E
:1029B800894513052031EF501170172600201306A2
:1029C8002620D5450145EF30507E9305000A0D4578
:1029D800EF20C0459305000A1145EF2020457000FF
:1029E800914513057040A303810023048100A304CB
:1029F800810002C623050100EF4031411306710032
:102A0800854513050040EF405140300085451305CA
:102A18001040EF40913F1306A10085451305204063
:102A2800EF40B13E13069100854513055040EF4035
:102A3800D13D7D55EF4040057D55EF600049EFF0F1
:102A48000FAE17050000130565E8EFF0AFF7C16793
:102A58001387018AF9171CC32322070013854188AD
:102A6800EF30D15403C504008545C929F2406244BA
:102A7800D2440561828041111305800406C697106F
:102A88000020E78000E8371700408327870A8D4534
:102A98001305002093E707202324F70AEFE05FEBF4
:102AA800EFF0AF8217A5010013058511EF80B13152
:102AB800EFF00FC0EFF08FD2EF60E10759359D3B83
:102AC80097100020E780E00523AC05FE1C4191E744
:102AD800010001000CC18280BA8703A787FF6DFF40
:102AE80023ACB7FE82801DC18346E5FF1307F00FB4
:102AF8009147639EE600411106C697200020E780B3
:102B0800C0E6B24081473E854101828095473E85B7
:102B1800828001E9014582800145B2402244410199
:102B28008280411122C42A84210542059305D004DC
:102B3800418106C697200020E78080D971DDFD57C6
:102B480023200500231285002303F5002105F1B792
:102B58001387018B1C43411122C426C24AC006C6F2
:102B680001440149BA8489E7A16589250DC401A8F2
:102B780003C7E7FF6318A7021DC8A165C1269840CF
:102B8800832784FF6317E40223A8F18AFD57232CC7
:102B980004FE230FF4FE2285B240224492440249E7
:102BA8004101828011E03E8983A787FF6DBF3E8483
:102BB800E5BF232CF9FED9BFA9C9411122C406C615
:102BC8002A849747002083C7B7662E856368F40078
:102BD800193F0D45B24022444101828083A785FFF9
:102BE80099E703C7E5FF9307F00F6305F700E53D95
:102BF8001545CDB7238F85FE1385018BF1352285C9
:102C08002244B240A165410115AE1545828023A832
:102C1800018A82809387418C9C4399E33E85828018
:102C280003D727006316B70003C70700E308A7FE0A
:102C3800DC47E5B74111939705014AC006C622C48F
:102C480026C2C1872E8963DE0700193711C1613D8D
:102C580021653345A900B24022449244024941010A
:102C68008280AA860145E5D901443D47B35789408A
:102C7800858B95CB9387C18B8443BD4791E2814770
:102C8800A2978E070545BE943315850013140501D8
:102C98009C40C8404180829723A0040023A20400DE
:102CA800334524014DBF0504E312E4FC0144CDBFC4
:102CB80097470020938707549C53411122C406C6A6
:102CC8001384418295C7829723A2A1820840B747FF
:102CD80003009387D73F3305F502B7A726009387EC
:102CE80037ECB24022443E9523A2A1824101828062
:102CF800974700209387C75318409C4BBA9723A245
:102D0800F182E9B79387418B90439746002083C6A9
:102D18003652814713F7F70F6360D70A1747002029
:102D28000347B766914763E0E70A9747002083C7E0
:102D3800676A918BC9EB0111680006CE22CC26CABE
:102D4800EFC04004FD56630FD50C3247974700206B
:102D580083C7774B63F3E70C174700201307474DEA
:102D68004047174700200347274A6305D406058BC9
:102D780021CF51473304E40263F1870A97100020FA
:102D8800E7808041B2476373F400A28717470020A9
:102D980003477747998F3E95974700209387874544
:102DA8008387470163CD0702B707C0A86369F502A7
:102DB800B70740573E9525A0850713971700329708
:102DC8000357E7FF21DB8280130790023304E402F4
:102DD80005805DB762076187635707001D8D19E994
:102DE8003705C0A801A8E37BF5FE3707C0A8B307DD
:102DF800F7403E95974700209387C73FDC5382975B
:102E080009ED974700209387E7579C4F99C7EF0034
:102E18001142EF10611AEF00F135F2406244D244DA
:102E2800056182809747002093878740DC47E386C7
:102E3800A7FE174700201307E73B83464701BA84DC
:102E4800858A9DC65144338487029747002083C7EB
:102E5800973BE3F487FC97100020E780E03397471F
:102E6800002083C7573A1D8C2295838744011DBFD4
:102E780013049002338487020580C1BF2A9609E5AE
:102E880082800505A30FB5FEE31DC5FED5BF8147AA
:102E98003307F5000307070019E33E85828085079D
:102EA800C5BF01112E8626CAAA84131506019305EB
:102EB800F004418122CC06CE32C697200020E7805C
:102EC80020A12A8419C53246A68597100020E780DC
:102ED80020072285F2406244D244056182808147FE
:102EE8006314F600054582803307F5008507B3862D
:102EF800F5000347070083C6F6FFE383E6FE0145B6
:102F080082809307F6FFBE952A966313C5008280D8
:102F1800FD1583C715000505A30FF5FEFDB781470D
:102F280011E9014582803307F50003470700E31ADA
:102F3800B7FE8507E319F6FE05458280974700200E
:102F480083C7172F637FF5001387418B93171500ED
:102F580008433E9583570500DD8D2310B5000145D4
:102F680082800D458280FD570111174700202327D5
:102F7800F72C9387418C22CC804326CA4AC84EC678
:102F880052C406CE56C22A898144974900209389A3
:102F98006926174A0020130AAA291844814763742E
:102FA800E900B307274103A749021CC409CB03273B
:102FB800CA0063F6E700174700202321F728A1E39A
:102FC800835524009DE55C44A1E423A2F18C832A67
:102FD800C400228597200020E7802099568455FC5C
:102FE800F2406244D2444249B249224A924A0561B7
:102FF80082800345040099375C4081CB1CC4835709
:103008002400F1D3A2844044D9BF1C44CDDFC5BFFE
:10301800DCC475BF9747002083C797216371F50209
:103028001387418B93171500084393C5F5FF3E9509
:1030380083570500FD8D2310B500014582800D459D
:1030480082809747002083C7B71E6364F500014557
:103058008280411122C426C24AC006C62A842E890B
:10306800B2844D3E01C504C505452DA0936504F005
:10307800C205C181414597200020E78060850DE1A8
:1030880097470020938707179C5B81C7A285114546
:1030980082970145B240224492440249410182800C
:1030A8009387418C9C438DE323A2A18C85472326DB
:1030B800050004C52311250123008500A300F500A0
:1030C8002322050055B7BA87D84775FFC8C7F9BF87
:1030D80045C539715AD0138BC18B22DC26DA4AD800
:1030E8004ED652D45ECE66CA6AC86EC606DE56D2C0
:1030F80062CC3689328AAE89AA8401445A8DB94D88
:10310800854BF94C03270B00131C3400937AF40FFA
:1031180062971C43A9EF13B5FA0013451500B3973E
:103128008B0063F65D01930714FFB397FB0093953B
:103138000701C181528631371DC983270D0001451A
:10314800E29784C323A237016304090023005901CD
:10315800F2506254D2544259B259225A925A025BDE
:10316800F24B624CD24C424DB24D21618280050433
:10317800E31A94F92145E9BF09458280411122C427
:1031880026C24AC006C6AA842E8932845D3DCA85F5
:103198002685EFF03FA809C940C10145B240224445
:1031A80092440249410182802145CDBF411122C488
:1031B80026C24AC006C6AA842E89EFF0BFA52A8473
:1031C80019C123110500CA852685A935014511E0D5
:1031D8001945B24022449244024941018280754710
:1031E800636BA7041387C18B1443411126C2931440
:1031F8003500A696944222C406C6AA873A84094591
:1032080095C613B5F7003947134515006373F700E2
:10321800C5178545B395F500C205C181413F1C40DE
:103228000145A69723A0070023A20700B240224425
:1032380092444101828009458280411106C6EFF01F
:103248007F9D09C50845B240410182800145E5BF1F
:10325800F54763EDA7049387C18B9C43131735008B
:10326800BA979843894721C7011126CA06CE9334D5
:10327800F50022CCB94793C4140063F3A7004515A1
:1032880005443314A400420441802EC62685A28535
:103298006D378947324609C5A28526855D33814742
:1032A800F2406244D2443E850561828089473E856A
:1032B8008280239CA18A239DB18A8280411106C6FF
:1032C80023A0A18C0295B2409747002023ACA7F613
:1032D800014541018280994763E9B7008A0597470C
:1032E80000209387E7F6BE9588C18280411106C603
:1032F80022C426C2EF50310B714681451745002084
:10330800130505F5A53E17440020130464F21306BF
:103318000002228581459D3623A2018C23A0018CC1
:103328009747002083C7C7EE13D527008D8B3E959E
:103338008D473305F5029947930510109384818CC6
:1033480035051375F50F2301A4003305F5021305A0
:10335800050F97100020E780A05723AEA18A834766
:1033680024001305050F88C08A073E9523AAA18A61
:10337800EFF0FF89A1268347140098401706000044
:103388001306868B93962700BA9690C293862700D9
:10339800850793F7F70FA300D400B24022448A07A9
:1033A800BA9790C39244410182809747002083C70F
:1033B80037E8174700200347C7E763F1E702138799
:1033C800818C18439386170017460020A302D6E67F
:1033D80093962700369708C33E8582809307F00F9F
:1033E800E5BF1C416387071441777D8FB70600202E
:1033F80089476311D71403574500630D071241111C
:1034080022C419462A849305F00F590506C6EFF021
:103418001FB105478D476309E5101306C0038145B1
:1034280017450020130505DDEFF05FA51306C0035F
:10343800A285174500201305E5DB97100020E780DB
:1034480020B0174700200357A7DB97470020938732
:1034580067DA19E713070020974600202392E6DA77
:10346800174700200347E7D911E70547974600208B
:103478002389E6D8174700200347B7D811E76D47D7
:1034880097460020A38FE6D617470020034787D723
:1034980011E71547974600202386E6D617470020F0
:1034A800034757D611E7054797460020A38CE6D473
:1034B80017470020034757D519E703C70701974661
:1034C8000020A383E6D4174700200347C7D311E79A
:1034D8005147974600202388E6D217470020034724
:1034E80047D319E713078002974600202383E6D2C3
:1034F80017470020034737D119E71307D00297462B
:103508000020A382E6D00347D40111E70947974674
:103518000020A38FE6CE9C5791C78297974700203B
:10352800239BA7D0E1338147B24022443E85410125
:10353800828089473E858280011122CC06CE2A846A
:103548002EC6EFF0EFF6B245F240818D33A5A50205
:10355800229562441375F50F05618280011122CC12
:1035680006CE2A842EC6EFF0AFF4B245F240818D24
:1035780033A5A502229562444205418105618280F6
:10358800011122CC06CE2A842EC6EFF06FF2B24586
:10359800F240818D33B5A50222956244056182808F
:1035A80097470020938707C5985725C3411122C420
:1035B80026C206C6BE840297174700200357A7C72E
:1035C8002A8441C7BA876373A700AA87C207C18341
:1035D800BA866373E400A286C206C182958F5147FA
:1035E8006355F706DC5491C3829785471747002037
:1035F800230EF7D8EF00910897470020239D87C234
:10360800B24022449244410182809747002083C7F8
:10361800E7D79DE7974700209387C7D683C79700CA
:10362800850793F7F70F17470020A301F7D6A18B5B
:103638009DC7854717470020231AF7D46F00D10983
:1036480097470020A38407D4D5BF9747002083C796
:10365800E7D3DDD72244B24092444101C5B7828006
:1036680097470020938707B9D857011122CC06CE77
:103678003E8401C72AC60297324509CD23A6A18CEC
:10368800171500201305C5B21539F24062440145EB
:10369800056182808307440163DD070097470020A6
:1036A80023A407BA97170020938727AB23A6F18C8A
:1036B800C1BF97170020938727AECDBF011122CC39
:1036C80017440020130404B3084406CE26CA19E59B
:1036D8000545F2406244D244056182805C58EDDBC6
:1036E800185C7DD77000854582971844B247E3017E
:1036F800F7FE8357C40017450020034585B093059E
:10370800E0043305F50297440020938464B242052F
:10371800418197100020E780A01B1747002023272E
:10372800A7B25DD59747002083D787AD17460020FD
:10373800034626AD3306F6029305F00FEFF00FF4BB
:10374800D04C08449747002083D787AB08C29745D9
:10375800002083C505ABB385F5021C5C898182977F
:10376800C84C97100020E78040200145974700206B
:1037780023AE07ACB9BF411122C41744002013047B
:1037880064A71C4426C206C697440020938444AA12
:10379800ADCB1C5CBDC7DC4C8DE78357C400174517
:1037A8000020034505A69305E0043305F50242050C
:1037B800418197100020E780A0119747002023A798
:1037C800A7A8C84C1DCD9747002083D767A31746E5
:1037D8000020034606A33306F6029305F00FEFF028
:1037E800EFE9D04C08449747002083D767A108C267
:1037F8009745002083C5E5A0B385F5021C5C898147
:103808008297C84C09C997100020E780001697478F
:10381800002023AD07A2B240224492440145410151
:103828008280011126CA97440020938464A022CC88
:10383800C04C4EC652C456C206CE4AC8AA8AAE89E1
:10384800328A31EC174900201309C99A8327890065
:1038580099E3A94471A08357C9001745002003457F
:10386800459A9305E0043305F50242054181971016
:103878000020E780E0052A8441C583274903C9C39E
:103888009745002083C5E5971747002003574797BA
:10389800B385E5022A8603258900898182979145A7
:1038A8001307A005898193972500A29783C607006F
:1038B8006395E60483C61700639E560385058A054B
:1038C8004E86A295528597000020E7806067DC4C01
:1038D800814463878700228597100020E780E008ED
:1038E800F240624426854249D244B249224A924A69
:1038F8000561828083D5270075B7DC4CE38B87F49C
:10390800228597100020E7804006A1B7974700203E
:103918009387478E984729CB9C5FB9C7854663151F
:10392800D504411122C41744002013046490504C5C
:1039380006C61DC69746002083D6868C974500206C
:1039480083C5258CB385D5023A8589818297484CF1
:1039580097100020E78060019747002023A8078E72
:10396800B240224441018280828097470020938799
:10397800278CD84F011122CC26CA4AC852C406CE79
:103988004EC62A89AE8432843E8A35E7974900209C
:103998009389498683D7C900174500200345658662
:1039A8009305E0043305F502420541819710002094
:1039B800E78000F29747002023AAA7882A8611E902
:1039C8002945F2406244D2444249B249224A05613B
:1039D800828003A5890005C183A7490389CF97453C
:1039E800002083C505821747002003576781B385E8
:1039F800E502898182970325CA0191461308A0052B
:103A0800FD5593D72600C207C183139727002A972D
:103A180003460700631B0603834817000356270065
:103A280063932803B306D64063CD960085078A07BB
:103A38003E952686A28597000020E78060500145C4
:103A480049B7A300B700B2866DBF173600200356EA
:103A5800267B9735002083C5C57AB385C502338692
:103A680096001106E3EEC5F413863400719A110628
:103A7800B29623000701A30027012311D7007DB7C1
:103A8800973700209387C77AD44F8DCE9147130676
:103A9800A0059305F00F89838A07B69703D72700F7
:103AA80003C5070009830A073697631DC500034548
:103AB80017006316B500035727002391E70083D743
:103AC8002700D1BF0145828083C705002300F50088
:103AD80083D72500A300F50083D72500A183230100
:103AE800F50083C74500A301F5001145828023AA8C
:103AF800018C23A8018C828029C1411126C206C6E7
:103B080022C4AA8401458DC52E84228541469795F5
:103B180001009385E5F297000020E780604283C7A3
:103B2800040005452306F40083C71400A306F40027
:103B3800B2402244924441018280014582800111B1
:103B480022CC26CA06CE0947AA8432846381E504BA
:103B580041468147639BC500638FE6006397B600C3
:103B68000DA841478147638EE600F2406244D24483
:103B78003E85056182808A852285BD3F41468A85CA
:103B880019A88A85953F41468A85228531A0E39AFE
:103B9800B6FC2E86A2852685EFF06FB4AA87F1B70A
:103BA80023AAA18C8280011122CC0354650006CE81
:103BB80026CA4AC84EC641C083298500AE842A88D1
:103BC80003C90900814713178901618763550702F3
:103BD800B147054563FA8704511442040355280088
:103BE800418033878900A2864E868545EF90305202
:103BF800B337A00085077D14135569004204058971
:103C08001379F90341802380F400A380A400238161
:103C1800240123928400014719C01387190098C40E
:103C280009476383E7000145F2406244D2444249B0
:103C3800B249056182800545C5BFC167F917630AA6
:103C4800F502D94763F7B702011122CC2EC606CE7A
:103C58002A84EF505049B2456368B5002285624412
:103C6800F24005616F70C04DF24062440545056140
:103C7800828005458280C167F9176314F5006F508B
:103C88009046411106C6EF70603B11E15D45B240B8
:103C98004101828039714ED656D25AD006DE22DCD6
:103CA80026DA4AD852D4AA8A2E8BB28941EF36C670
:103CB800D9379145EF50D052AA844D492DC9B24603
:103CC800054A238034010544630A0B00B685138531
:103CD8001400029B0505131405014180E20993D9DC
:103CE800894163D30902C1455685EF706042654931
:103CF80005E933868400A2852685EF9050052A8938
:103D080005E131044204418091472C085685231C63
:103D1800F10026CE231D8100EF6030572A8901C9A2
:103D280063070A00268597100020E78000C4F25038
:103D380062544A85D2544259B259225A925A025B65
:103D480021618280BA84014AADBF011122CC26CA02
:103D58004AC84EC606CE2A893284B689253FAA8427
:103D680005E19387418D9C4381CF05476317E400A4
:103D780003C4090005041374F40FA2854A858297C9
:103D8800F240624426854249D244B24905618280A4
:103D9800AE860147054697050000938525D375B77C
:103DA800011106CE2EC6EF70E02501C9B245F240DA
:103DB8000355250005616FA0C047F24049450561DC
:103DC8008280A38001902380019023A4018E23A6E2
:103DD800018E23A8018E23AA018E23A2018E23A07F
:103DE800018E97370020938767483707B40098C338
:103DF8003747A000D8C3370710009306070A94C7AF
:103E0800B7065000C106D4C7930607054107D8CBAB
:103E18003707D007410798CF3707840398D337C7A8
:103E28000700130707B8D8D3416794CB9306070157
:103E3800130717F8D8D7417723AE070094D798DB34
:103E48008280011126CAAA84214522CC06CE2E845E
:103E580032C636C43AC2EFE0DFCB1DC9A2461247CC
:103E68003246930700FD2300F5009947A30095000B
:103E78002301F5002303D500A303E5002312C500A1
:103E8800AA8522856244F240D24405616FE0DFD200
:103E9800F2406244D2440561828023A4A18E8280CC
:103EA80023A6A18E828023A8A18E828023AAA18E18
:103EB8008280011122CC4AC806CE26CA2A8901442A
:103EC800B30489006368B400F2406244D2444249B2
:103ED800056182802EC6EFE0BFDD93170501C1831F
:103EE800A183B2452380F4009307140093F7F70FDA
:103EF800850463F9B700CA9709042380A7001374DF
:103F0800F40F7DBF3E847DBFC16717350020035580
:103F18008539FD176302F502411103C6C1989385DF
:103F2800818F06C6EF60D077B240FD571737002063
:103F3800231BF73641018280828009C92515137534
:103F4800F50F1335850E13451500828001458280D3
:103F580023800500F94763E2C708797122D426D285
:103F68004ECE56CA5AC806D64AD052CC5EC63684F9
:103F7800B289AE8A2A8B814463FF3405B307940063
:103F880003CA0700138914001379F90F63050A049B
:103F9800B3072A0163C1F904B307240183CB0700DF
:103FA8005E85613F0DC99307FAFF2380FA0063908D
:103FB8006B03130519002295B250225492540259EA
:103FC800F249624AD24A424BB24B45618280D2944E
:103FD80093F4F40F55B70145C5B7014582804111E7
:103FE80026C2AE8422C49737002023A5C72C973752
:103FF800002023AFB72A9737002023A9A72A2A84AD
:1040080041469305F00F26854AC006C60549EFE0EC
:104018001FF1631E25039737002093876728884B75
:10402800C145413D41469305F00F2285EFE03FEF42
:1040380085446316950222449737002093874726C4
:10404800B24092440249C847C14541019DB5414625
:1040580081452685EFE0BFECE31625FD6DBF41469F
:1040680081452285EFE0BFEBE30795FCB24022448F
:104078009244024941018280411122C426C22E8401
:10408800AA8413060002814517350020130545212F
:1040980006C6EFE0BFDE97370020A3849720A387EA
:1040A8008198EFA0801A854719C181474945B240D8
:1040B8002244173700202305F71E924441018280CD
:1040C800814781CD19C98547631BF50083C7550012
:1040D80093E707FCA382F50085473E8582808947E0
:1040E8006317F50083C7550093F7F703E5B70D4746
:1040F8008547E314E5FE03C755001377F7031367F5
:104108000704A382E500D1BF81478DC105C103C75C
:1041180055009306000C85471377070C6308D700F2
:10412800930600048D476303D70089473E85828044
:10413800411122C4005D06C626C21DC8AA840850C3
:1041480009C597100020E7804082485009C597109C
:104158000020E7808081085409C597100020E78077
:10416800C080228597100020E780208023AC0402BD
:10417800B240224492444101828009ED97370020E1
:1041880083C72712173500201305051381CB138524
:10419800818D82801735002013050512828017351E
:1041A8000020034505108280973700209387470F2A
:1041B800C8478280973700209387870E884B828074
:1041C800973700209387C70DDC4B88438280973749
:1041D80000209387E70CD84B1C4385071CC3173571
:1041E80000200345150C9307F00F6305F500916552
:1041F8006FE0DFD48280011122CC06CE2E8432C635
:10420800EF60906F9147B245631FF5009387418F28
:104218009C438DC303A30700630E030022856244F9
:10422800F240056102839387C18E9C4381C703A333
:104238004700DDB7F24062440545056182800111FF
:1042480022CC2A840355450006CE26CA4AC84EC643
:10425800EF60D05235C52A89834405008349C500DB
:10426800C13D4A85EF70D04203554400EF60506469
:1042780083C70190B1CB6399970483C511902685B4
:10428800EFF01FB219E12380019003554400EF605D
:10429800B0669147631FF500035744009737002025
:1042A80083D767006317F700FD5717370020231CD3
:1042B800F7FEF2406244D2444249B2490561828025
:1042C80081499304F00F6DB79307F00FE38FF4FA69
:1042D8008346640003564400034524004E87A685A0
:1042E800EFF03FB65DB779715EC6AA8B2E8552CCCA
:1042F80056CA5AC806D622D426D24AD04ECEAE8A3C
:10430800328B368AEF6090476DC1045D2A89F1CC03
:104318009C50614599C3130540039C5481C75105BE
:104328004205418163050A00710542054181DC505F
:1043380081C7590542054181EFE0AFFD2A8455C583
:1043480061468145EFE09FB39739002083C909F59D
:104358006394090083490900930700FD2300F400D2
:10436800A947A30074012301F400230364018C50BE
:10437800231254011305840191C908C47146930A94
:10438800440397000020E780A0BB56858C5491C950
:1043980048C45146930A450197000020E78040BA77
:1043A8005685630C0A0008C87146D285930AC50170
:1043B80097000020E780C0B85685CC5099C548C8FA
:1043C800594697000020E780A0B7A2854E85EFE008
:1043D800AFFE2254B2509254F249624AD24A424B3A
:1043E800B24B4A8502594561A1B3B2502254925446
:1043F8000259F249624AD24A424BB24B4561828025
:1044080001114EC6AA892E854AC806CE22CC26CAD4
:104418002E89EF60B03631C59734002083C404E894
:1044280099E0834405001945EFE0AFEE2A8415C9E9
:1044380081451946EFE09FA4930700FD2300F4008F
:10444800B947A30034012301F40023122401A285F3
:104458006244F2404249B2492685D24405616FE080
:10446800AFF5F2406244D2444249B24905618280C4
:1044780039715ECEAA8B2E8526DA4ED652D456D204
:104488005AD006DE22DC4AD8AE84328BB68A3A8A03
:10449800BE8942C6EF60902E31C92A894145EFE0B6
:1044A8004FE72A8421C541468145EFE03F9D1735F6
:1044B80000200345A5DE19E103450900930700FD27
:1044C8002300F400BD472301F400B247A3007401A0
:1044D8002312940023046401A30454012305440116
:1044E800A30534015CC4A285EFE00FEDF2506254DD
:1044F800D2544259B259225A925A025BF24B216164
:104508008280797126D2AA8439454AD04ECE06D601
:1045180022D42EC6B2893689EFE0AFDF21C1B24579
:104528009307000D2310F500B1472A842312B50024
:104538002301F500CE851905194697000020E7806C
:1045480020A023062401A2852254B2500259F24920
:1045580013F5F40F925445616FE00FE6B250225400
:1045680092540259F2494561828017370020034767
:1045780057D39307F00F630DF706411126C2AA849B
:10458800394522C406C64AC0EFE0AFD82A8439C9E3
:10459800930700FD2300F500A30095002301050003
:1045A80097350020938545D10D05194697000020C1
:1045B800E780009917390020130989CE83578900AD
:1045C800A285173500200345D5CD2315F400834770
:1045D80019002306F4002244B240924402494101E2
:1045E8006FE08FDDB240224492440249410182804B
:1045F8008280011156C2AA8A314526CA4AC84EC6C7
:1046080052C406CE22CCAE84328AB6893A89EFE00B
:104618004FD029C92A842685EF6050161DCD034541
:104628000500930700FD2300F4009D47A3005401F3
:104638002301F400231294002313440123143401AA
:1046480023152401A2856244F240D2444249B2496A
:10465800224A924A05616FE02FD61735002003459C
:1046680055C4C1B7F2406244D2444249B249224AD1
:10467800924A05618280397162CC2A8C594526DAC2
:104688004AD84ED652D456D25AD05ECE06DE22DC56
:10469800AE8432C636C4BA8B3E8BC28A468A8359E8
:1046A800010403494104EFE0CFC635C532469307FC
:1046B80000FDA2462300F5009547A301C500A3000D
:1046C80085012301F5002A8419461105A9C2B6857A
:1046D80097000020E780C08623066401230A24018E
:1046E8002315740123175401231844012319340195
:1046F800A2856254F2504259B259225A925A025B28
:10470800F24B624C2685D25421616FE0EFCA814595
:10471800EFE0CFF6D1B7F2506254D2544259B259B1
:10472800225A925A025BF24B624C2161828097377F
:10473800002083C707B78DCB4111AA851946138579
:10474800818D06C697F0FF1FE780807F9385818D56
:10475800173500200345E5B4EFF09F96B240138566
:10476800818D41016F90F02E01458280173700201E
:10477800034737B39307F00F6305F708411126C2C3
:10478800AA84294522C406C6EFE0AFB82A8429C105
:10479800930700FD2300F500A1472301F500A300BE
:1047A8009500973700209387A7AF83C72700938585
:1047B800818D1105A30FF5FE194697F0FF1FE780BD
:1047C8002078A285173500200345B5ADEFE0CFBEB0
:1047D800173700200347E7AC8D47631FF70093871F
:1047E800018F9C4391CB03A38700630703002244F6
:1047F800B240924441010283B240224492444101B2
:104808008280173700200347C7A98D47631AF7002E
:104818009387018F9C4389C703A38700E31D03FC8B
:104828008280797122D406D626D24AD04ECE52CC76
:10483800094445C92A89035505002E8A5144EF6069
:10484800E073AA8459CD83C7F198FD1793F7F70F42
:10485800054749446377F7080347C500A147631430
:10486800F70063100A089C5C4544A5EF91659385A1
:1048780045711305C00297000020E780600588DCB9
:10488800AA894D4439CD1306C0028145EFE00FDFF8
:10489800835709009386490036852391F9007146AC
:1048A8009305490036C697F0FF1FE780606989477E
:1048B8002380F90003C5C400B246035609006115F8
:1048C80083C5C19813351500EF80B0772A84630635
:1048D8000A00D2852685EF70D00601C42685EFF040
:1048E8003F852285B250225492540259F249624AB5
:1048F8004561828083C7F198FD1793F7F70F054745
:104908006378F708894751C6011122CC26CA4AC8DC
:104918004EC652C406CEAA89368AB2842E89EF6062
:10492800E0652A84D14729C9485509C59700002060
:10493800E780A003F1452685EFE0AFD648D4CD4700
:1049480005CD8346C40021478147639FE600630D78
:104958000A000347A5010356050193062501AA8508
:104968004E85EF60F075AA8703474400630F09007E
:10497800136767002302E400F2406244D2444249CC
:10498800B249224A3E850561828013674700DDB738
:10499800C9473E858280E14763EBA700973700202F
:1049A8009387C78C06053E950355050082804165AF
:1049B8007D158280011122CC2A842E8526CA06CE36
:1049C800AE84EF60A05B0DCDB7470F009387F72348
:1049D800094563E2870281450A854146EFE00FCA2F
:1049E800A685231081000A85418023018100A30147
:1049F8000100EF807047F2406244D2440561828032
:104A08004945D5BFA386A19882806F80505C797193
:104A180052CC2A8A328522D426D24AD04ECE56CAC1
:104A28005AC85EC606D662C4AE8BB28A368BBA84C2
:104A38003E89C2894684EF60605415C92A8C631484
:104A48000A0213774B008347450015CF93E72701E8
:104A58002302FC008DEC631C0902639A090205E835
:104A6800ED9B2302FC00832B8C03639F0B06B25043
:104A7800225492540259F249624AD24A424BB24BEA
:104A8800224C45618280F59B93E70701D1B793E7F4
:104A980047002302FC0001CC1C484146A285232480
:104AA800FC0213058C0197F0FF1FE78060496391B2
:104AB8000B02D5D80325CC0209C597000020E78052
:104AC800C0EAF1452685EFE0CFBD2326AC0261BFE1
:104AD800E30B09F80325CC0209C597000020E780FD
:104AE800C0E8F1454A85C5B79DC483A70B0299EB79
:104AF800916593853571714597000020E78040DD09
:104B080023A0AB0203A50B0219C57146A68597F031
:104B1800FF1FE780E0426388090283A74B0299EBF5
:104B2800916593852571594597000020E78040DA03
:104B380023A2AB0203A54B0219C55946CE8597F0AF
:104B4800FF1FE780E03F1DC483A78B0299EB9165A7
:104B580093851571514597000020E78060D723A4FD
:104B6800AB0203A58B0219C55146A28597F0FF1F1A
:104B7800E780003D2254B2509254F249B24B224C85
:104B8800CA865A860259424BD6855285D24A624A0B
:104B980045616FF04FF5011126CA52C406CE22CCEA
:104BA8004AC84EC62A8AAE84EF60403D25C5AA8908
:104BB8003945EFD01FF62A8431CD17290020034943
:104BC800E96D6314090003C909009307000D231058
:104BD800F400AD472301F400938569001305340000
:104BE800194697F0FF1FE780A03593F714008580DA
:104BF80085882306F400A306940023154401A285A2
:104C08006244F240D244B249224A4A854249056187
:104C18006FD09FFAF2406244D2444249B249224AD4
:104C2800056182809387018E884301CD411106C6B4
:104C380097000020E78060D3B24023A0018E410195
:104C480082808280011106CE22CC26CA4AC82EC68E
:104C5800EF60C03239CDB2451729002003490964F5
:104C6800AA840CD563140900034905004145EFD017
:104C78005FEA2A841DCD9307000D2310F500A54790
:104C88002301F50083C75400938564001105A30F21
:104C9800F5FE194697F0FF1FE780802A9C54A285ED
:104CA800F2405CC46244D2444A85424905616FD0EF
:104CB800BFF0F2406244D244424905618280797172
:104CC80022D406D62A842EC6EF60402B0DCD83460B
:104CD800C5001147AA8749456393E6029C5FB24520
:104CE80099C383C567010808EF70A04E9786000036
:104CF800938626D4100889452285EF603041B2504A
:104D08002254456182805145DDBF83C7F198FD1764
:104D180093F7F70F0547637AF704894721CA4111CA
:104D280022C426C24AC006C6B2842E89EF60002576
:104D38002A84D14705C5630809008347450093E7DE
:104D480027002302F5004146A6851305840197F044
:104D5800FF1FE780E01E9C481CD48147B2402244D4
:104D6800924402493E8541018280C9473E8582803E
:104D7800797122D406D62A842EC6EF60202001CD70
:104D8800B2452285230EB1006C08EF700038B2508E
:104D98002254456182805145DDBF6F60A02BC167F9
:104DA8001387E7FF6394E5029387C18E9C4391EBD9
:104DB800494582804945B240224492440249410112
:104DC800828003A30700E30503FE0283411122C486
:104DD80026C24AC006C6FD172A892E84B284639566
:104DE800F5029387C18E9C4391CB9C4381CB8297DC
:104DF80011E523802191A380919075BFA6854A85EE
:104E0800EFE01FFA4DF9F5B72E85EF6020175DD159
:104E1800834705000D45E39027FB22852244B240D5
:104E28000249A685924441016F90A04061476362A0
:104E3800A7044111416722C406C626C27D172A84E9
:104E480009456383E502C547AE846315F4002E85E2
:104E5800EF90A04593171400172400201304044171
:104E6800A297239097000145B24022449244410101
:104E7800828009458280011106CE2AC6EFE07FF4C0
:104E8800EF102004EF002076EF30310A32459727E3
:104E980000209387E740130700F02391E70023825F
:104EA80007007D579387C198A380E7002380A70058
:104EB800F240954505616F40B02E5D7193970501ED
:104EC800CAC086C6A2C4A6C24EDE52DC56DA5AD87A
:104ED8005ED662D466D26AD0C1872E8963D8074C61
:104EE80003C5C198EFD0DFC68964416A856A797BBA
:104EF8002A84938BD4007D1AA50A691B15E02165C5
:104F08003345A900B640264496440649F259625AE8
:104F1800D25A425BB25B225C925C025D6161828024
:104F2800834704001307200A639DE7000355240004
:104F3800172C0020034CFC362286D285EFF0AFAB4D
:104F48003DAA1307100903CCD1986397E716834746
:104F580014001547639EE7002285EFF04FAE2285C7
:104F6800EFD07FB803C5C198EFD09FBE2A8479B728
:104F780039476399E71603554400631B55050C44EC
:104F880083C90500639D0900850591C91946172540
:104F980000201305653297F0FF1FE78060FA172796
:104FA80000200347E72F85476318F710638A090035
:104FB800972700202386072E4E85EFF00FDB45B795
:104FC800894717270020230DF72CEF90402841BF71
:104FD80093872400631AF50683298400638E090CDD
:104FE80083C709008DE383C7290003C71900A207F7
:104FF800D98F172700202319F72A83C739001727C5
:105008000020A30FF728172700200347672989479F
:105018006314F70A83C7090081CB972700202381EF
:10502800072803C5090051BF8D479725002083C570
:10503800352717250020035525271727002023018A
:10504800F726EF40F018F1BF938754006318F50076
:105058001C4403C50700EFF06FF111B7B3076501F2
:10506800C207C1831147636FF7009387018F9C4381
:10507800E38707EE9C43E38407EE22858297E310DB
:1050880005EE1DA89387B400631FF5009387818EF2
:105098009C43E38607EC9C43E38307ECA2851385D6
:1050A800B4008297E9BF9387C4006310F5021C44DB
:1050B80083C70700E38507EA9307F00FE301FCEADB
:1050C800A2856285EFD05FAF71BD9387E400E315D9
:1050D800F5FE9387C18E9C43E38307E8DC43A285F2
:1050E800E9F3B5BD3D476397E70403554400E30280
:1050F80075FF93879401E30EF5FC93873401E31D54
:10510800F5FA9727002083D7071A639E47019387EC
:10511800C18E9C43E38507E4DC43E38207E4A28570
:1051280013853401BDBF9387418F9C43E38907E210
:105138009C43E5B71307E003E390E7F883472400AF
:1051480005476396E70E83476400138D018EF1E3EC
:1051580083270D00D5CB03CC0700A1490345740074
:10516800930C8400E685EFE03FFA83474401A303EC
:10517800A400835804010358E400035744002A8616
:10518800034534003EC283572401E686E2853EC0CB
:10519800CE87EFF04FCE8347340095E7DD4783583D
:1051A80004010358E40083467400835544003EC25A
:1051B80083572401668705463EC06285CE87EF6027
:1051C8002009A301A40083270D0081C71145EFF032
:1051D8007FA503C50190E30405D883C51190EFE0CE
:1051E8003FBCE30E05D68346340093071003638A59
:1051F800F600035644004E8783C501903685EFE0DC
:105208005FC423800190A1BB172C0020034C7C09AC
:10521800A9B79387018F9C43172C0020034C7C0867
:1052280091498DDFDC439DDB0145829705BF294706
:105238006395E70A83476400938C018EC9E383A7CB
:105248000C00ADCB03CC0700A1490346740083478B
:1052580004028358C401058AA303C4000358A401A7
:1052680003574400034534003EC28357E401130D3D
:105278008400EA863EC0E285CE87EFF0CFBF834741
:10528800340095E7DD478358C4010358A4018346D9
:105298007400835544003EC28357E4016A8705467B
:1052A8003EC06285CE87EF50B07AA301A40083A7E1
:1052B8000C0021BF172C0020034CBCFE71B793874C
:1052C800018F9C43172C0020034CBCFD9149B5DF8E
:1052D800DC43A5DF014582978DBF0947639DE70041
:1052E8009387818E9C43E38C07C6DC43E38907C61A
:1052F80022858297ADB12D476399E7009387818E08
:105308009C43E38E07C49C47D5B70D476397E700D6
:1053180022868D450355440015B119476395E70664
:105328009305610113051031EF30214B2C0813054B
:105338002031EF30814A03566400835781010355B9
:10534800440063E8C700835684000357610163F78C
:10535800E60093050002EF80507411B16374E60013
:105368002313E40063F4D7002314F4000357C400A4
:105378008356A4000356840083556400014881477E
:10538800EF807071E9BE1D47E398E7D203574400E8
:10539800E3E4E7D2972700209387C7FA06073E97EA
:1053A80083576400F1172310F70039B393F71500FA
:1053B80081CF9387818E9C4389C7DC4399C301457C
:1053C8008297134519003DBE93F7250081CF938737
:1053D800018F9C4389C7DC4399C3054582971345D0
:1053E80029000DB693F745000145E38D07B0938773
:1053F800418E9C4391CF8547172700202304F7EA65
:105408009387018F9C4389C7DC4399C305458297DD
:10541800972700209387C7E8C8472C08EF80E00D3E
:105428002808EFF0CFB09727002083D747E691CB25
:10543800130600643386C702914503C5C198EFD0AF
:105448005FC0134549007DBC411122C42A845545DB
:1054580006C6EFF04FD4B335A00022852244B240EF
:1054680041016F805060797122D406D68D472E8411
:10547800631FF50003D7A50083D6850003D6650012
:105488000345340083D54500EFF0AF9609A8896736
:105498001387D7006310E50403C5250019E5854780
:1054A800B25022543E85456182809387018E944391
:1054B800FDD603C6360083C50600814802C202C075
:1054C8000148814701479106EFF0EF9A0545EFF053
:1054D8006FF5F1B71387E700E303E5FC138737019E
:1054E800631AE50003C525005DD9014781460146D9
:1054F800814559BFE507E304F5FA41677D17814700
:10550800E310E5FA03C75500C947E31AF7F883D64D
:10551800E50003D6C5000355840083D5A500EF80B8
:10552800505951C15D45EFF00FC73335A000231C1A
:10553800A10083454400035524003008EF50B017FC
:1055480083578101A9FF6C0813051031EF30E1285A
:105558009305E10113052031EF3021288357C1015C
:10556800035784006374F7002314F4008357E101A0
:105578000357A40063F4E7002315F400835584005F
:105588008357A40063F4B7002315B4000357E4005D
:105598008356C4000356A4000355240001488147DC
:1055A800EF80704DEDBD8547231CF10059B7C167E9
:1055B8001387E7FF639DE5009387018E9C4395C39E
:1055C80083C707000D47639CA7006F80104AFD172B
:1055D80049476396F5009387018E9C43FDF73A850A
:1055E80082804947EDBF2386019023AA019023A812
:1055F8000190972700209387A7CC1707000013076F
:10560800E74798C3170700001307074BD8C31707C6
:1056180000001307675B98C793874190170700003E
:10562800130727F998C317070000130707E4D8C31F
:10563800828079714AD0138941918327090006D65F
:1056480022D426D24ECE52CC56CA5AC881EF05452E
:10565800B250225492540259F249624AD24A424BF9
:10566800456182800347050085472A846301F70462
:1056780003468500930695009305F1000545EFE084
:105688003F8D814719C183470500834604001147B0
:105698006387E6021387019118438D460347170075
:1056A800630FD70089CF01CF11E5014555B7814771
:1056B8000145E1BF8546631DD7048D8BFDD70345A2
:1056C8001400130B2400DA85EFE01FA4A300A40044
:1056D800832709002A8A81499304F00FB1E383469E
:1056E80004009147E383F6FC83270900DDDF03C646
:1056F800C19001479305F00FE309E6FABE84C1079C
:1057080003C507FF6301B51005071377F70FEDB75A
:105718008946E31CD7F8858B55B7850993F9F90FA6
:1057280083C7C190E3FDF9FA03250900939A49005C
:10573800569583470500E38297FE83471500E39E4D
:1057480047FD1946DA850905EFD06FF979D5832425
:10575800090003470400D694D9D09147631CF70683
:10576800C84405C583478400034605006306F6065A
:10577800034704009147631DF706C84419C597F00D
:10578800FF1FE780801E23A604000345840091655F
:105798009385E571050597F0FF1FE780601305C540
:1057A800034704009147631EF704C8C48347840075
:1057B800930594000505A30FF5FE0346840097E0C2
:1057C800FF1FE780E077034584003335A00049B523
:1057D80088C48DA8884471B7930594000505EFD057
:1057E8000FF08547E316F5F85545EFF0CF9ABDA8B9
:1057F800884441DD97F0FF1FE780201723A40400A9
:1058080069B788C465B72380D40083471400DA8554
:1058180013852400A380F400194697E0FF1FE78052
:1058280020720345840091659385F571050597F00D
:10583800FF1FE780E00905C5034704009147E31906
:10584800F7F8C8C483478400930594000505A30F9F
:10585800F5FE0346840097E0FF1FE780606E8347EC
:105868008400E39607DE034504007D151335150013
:10587800C5B3011122CC138441911C4006CE26CA1F
:105888004AC84EC652C499CF2E8AAA8401490840F4
:1058980063129902630C0A0497F0FF1FE780E00C7B
:1058A80023AA0190F2406244D2444249B249224AB2
:1058B8000561828093194900B3073501884709C9F2
:1058C80097F0FF1FE780600A1C40CE9723A40700CB
:1058D8001C40CE97C84709C997F0FF1FE780E0082A
:1058E8001C40BE9923A60900050955B745DD139646
:1058F80044008145EFD08FD8144081477D5613F777
:10590800F70FE37197FA1397470036972300C700FC
:105918008507F5B7011152C4138A019183270A003C
:1059280006CE22CC26CA4AC84EC656C25AC0C9CFCD
:105938002A89014419ED93874191944399CA03C672
:10594800C1902A8481479305F00F13F7F70F636717
:10595800C708131534002105EFD0AF9BAA8401E9CD
:105968002145EFD00F9BAA8421C501444D499307D7
:1059780000FD2380F4008547A38024012381F400DF
:10598800A38184005DC41389840023A22401814972
:10599800938A4191130BF00F83C7C19063F3F90009
:1059A80031E883270A00A68503C50700EFD0CFA0FA
:1059B800814503C5C190753D03250A0097F0FF1F77
:1059C800E780A0FA23A80190F2406244D2444249F9
:1059D800B249224A924A024B0561828013974700D6
:1059E8003697034707006305B70005041374F40FDF
:1059F8008507A1BF83A70A0093954900BE9583C771
:105A08000500638467032300F90083C715001305A5
:105A180029007D14A300F900194689051374F40FB1
:105A280097E0FF1FE780C0512109850993F9F90F15
:105A3800A5B723A20400B5B7411122C406C62A841B
:105A480005E10945EFE03FF52A8611C5854503C5FF
:105A5800C198EFD00FDF0545EFF01F9F2A8401C9D9
:105A6800854503C5C198EFD06FF422856535B240EE
:105A7800224405454101828089671387B700631A6C
:105A8800E500938701919C439DC39C4503C507008E
:105A980065B71387C7008147631CE5009C4503C5AC
:105AA8000700854711C5938701919C43F5F381470A
:105AB8003E858280797106D622D426D24AD04ECE2F
:105AC80052CC56CA5AC85EC679C983473500AA89D6
:105AD80085C7404115C05945EFE0FFEB931A850192
