:040000006F10003548
:1000040000000000000000006F0080086F00E02284
:1000140000000000000000000000000000000000DC
:1000240000000000000000000000000000000000CC
:100034006F004006000000006F00E00500000000B3
:100044006F0080056F0060056F0040056F0020059C
:100054006F0000056F00E0046F00C00400000000A2
:100064006F0060046F0040046F0020046F00000400
:100074006F0060236F00C003000000006F00600386
:100084006F0040036F0020036F0000036F00E00265
:1000940001A001A001A001A001A001A001A001A054
:1000A40001A001A001A001A001A001A001A001A044
:1000B40001A001A001A001A001A001A0B717004068
:1000C400130770052380E704130780FA2380E704ED
:1000D4002396A70223800704371700408347270588
:1000E400898BEDDF835707053717004083472705C2
:1000F400898BEDFF3717004083472705898BEDDF98
:10010400035507058280B7170040930670052380C6
:10011400D704130780FA2380E70403C6B7041376D1
:10012400F60DA385C70423800704137605022DC6A4
:1001340003C6A700118A0DE22380D7042380E704B5
:1001440003C7A700136747002385E7009307004B05
:1001540001000100FD17EDFFB7170040930670057D
:100164002380D704130780FA2380E7047D8923942E
:10017400A70001000100010001002380070423807F
:10018400D7042380E7049306100537270040A30310
:10019400D780238007048280137605046DDE03C6AE
:1001A400A700418A0DE22380D7042380E70403C714
:1001B400A700136707012385E7009307007D01006B
:1001C4000100FD17EDFFB71700409306700523806B
:1001D400D704130780FA7D892380E7041365050497
:1001E4002394A700010001000100010023800704FB
:1001F4002380D7042380E704930630053727004083
:1002040079B74111814601468145114506C6AD22A3
:10021400B7170040130770052380E704130780FA1B
:100224002380E70403C76704136717002383E704E5
:1002340023800704B2404101828081460146814502
:1002440011451D2AB7170040130770052380E704E2
:10025400130780FA2380E7047D572396E70203C738
:100264006704136717002383E7042380070401A0AE
:10027400BD473305F50201007D1575FD82804111EE
:1002840022C426C206C6AA84014463179400B2405D
:10029400224492444101828005041305803E4204B5
:1002A400C13F4180DDB7B71700401307000323881F
:1002B400E702854723ACF1847300203023030480D4
:1002C40015472303E48001002302A480828083076E
:1002D4006480E3CE07FE2303048082808307648066
:1002E400E3CE07FE03454480828083076480E3CE27
:1002F40007FE2302A4808280411126C44AC24EC054
:1003040006C61377F50BAD47AA892E899544630673
:10031400F70019456537653F8D444E854537FD59CE
:10032400FD1463983401B240A24412498249410148
:100334008280135509011375F50F453F2209CDB786
:10034400011126CC06CEB704080051371545BD3738
:10035400713769372AC6A53F32459377150089EB73
:10036400136515001375F50FF240E24405618280B0
:10037400FD14E9FC0145CDBF397126DC4ADA4ED8BB
:1003840052D656D45AD25ED006DE62CE66CCB7E7D9
:1003940000E07D5783AA070022C603AA470023A0D2
:1003A400E71823A2E718B717004013077005238046
:1003B400E704130780FA2380E70483C74704930BF9
:1003C40075FFB684E20793FBFB0F8546AA892E8B43
:1003D400328937240040E187015763FA76016308C4
:1003E400D5008946130700026313D5000157D98F3E
:1003F40093F7F70FB71C00402382FC041147230333
:10040400E4801305F00F5D3D094CD13563697C111F
:10041400B70707003E9B378707007955637EEB02D9
:10042400B3079B00636AF702A9476399F90689E455
:100434008144713D26850DA0DA850945753D050980
:100444000345F9FFFD14050B4D3581C49377FB0F6C
:10045400FDF7FD3569FD7D55B7170040130770059D
:100464002380E704130780FA2380E70403C74704C3
:10047400418B2382E704F250B7E700E023A0571131
:1004840023A24711E25432445259C259325AA25A51
:10049400125B825B724CE24C21618280A5476395BA
:1004A400F90685691309F00FB3069900B3742B019B
:1004B400B6941349F9FFB3749900856B33796901D4
:1004C400416B9387F9FFB3F7270199E363FC340188
:1004D40093D94900C147E3E637FF99BF0569C1696C
:1004E4007D19D9B71305800D6388690113050002CE
:1004F4006384790113051008CA85FD3B913521DD1C
:100504004E99B3843441D9B7DA852D45F533CA946D
:10051400E30099F20509D933A30FA9FED5BF938748
:10052400F9FF93F7F70F636CFC0803C75C04B70784
:1005340008001377070219E3B78707007955E37DAD
:10054400FBF033079B00E3E9E7F089476390F90484
:100554008980D549E38E04ECDA850945713B11099C
:100564000327C9FF91472320E48003076480E34EF7
:1005740007FE23033481FD17EDFBFD14110B81C429
:100584009377FB0FE9FF6D3B71F5F1B58547E38781
:10059400F9F4DA852D458D339389F4FFE38A04E871
:1005A400353B93F7390091EB832604800327090038
:1005B40093074900E39FE6E63E89CE84F1BFB54741
:1005C4006396F9001305900BD5399DB5B147130512
:1005D400B00AE38BF9FE9947639EF902DA852D454B
:1005E400213B81448D4BA149D539639674018327FE
:1005F40004802320F9008504E39834FF83270480D2
:1006040013172B01635507002312F90015B5232294
:10061400F90039BD9D476399F90281451305B0047A
:10062400E139BD442320090023220900FD597D310D
:1006340093F77400CA9703C70700FD14398D23800C
:10064400A700E39634FFEDB3A1476392F904CD39D3
:100654008144630D0B008D479304C0036308FB00C2
:100664009304000563048B01930440041375C507C8
:10067400E30095DC19459931993905458131268581
:10068400AD3109459D316D39E31405DAE9B391477C
:100694006399F9001305600615311539130590099E
:1006A40025B7E38709D8F15469B37D1662066186DC
:1006B40093178601E18763D407000145828093176D
:1006C40026003307F500AE9718439C4363E7E70021
:1006D4007D16E37FF7FC7D55828005458280814746
:1006E4001397870161876343B700828013972700BC
:1006F4002A97232007008507E5B78147014793968A
:100704008701E18663C5B60013351700828093968E
:100714002700AA9694428507558FD5B793D755409D
:100724008A07AA979C4305453315B5007D8D8280C1
:10073400FD15E2052A87E18593968501E18693F705
:10074400F50F63C80600FD1593962500BA96D442AA
:10075400E5D68507E207E187014591CF1395270088
:100764002A978326C7FF014781EA1385F7FF1605F9
:100774003A9542054185828085820507F5B7814710
:100784001397870161876343C7008280139727000B
:10079400B386E50094422A97850714C3D5B77D161E
:1007A40062066186014793178601E18763D50700D6
:1007B40013351700828093172600B306F500AE9711
:1007C40094429C437D16B58F5D8FF1BF8A05AA952F
:1007D40001476363B500828083A6C5FFF11593D7F3
:1007E4001600D98F9CC11397F601E5B72A830148F7
:1007F400014701456343D7008280B387050183A87D
:100804000700B30706019C43C697AA976384F800C0
:1008140033B517010507B3080301620723A0F800E5
:1008240061871108C1BF2A8301478147014563C31A
:10083400D70082803388E50083280800330EE60061
:10084400032E0E003388A8403308C841638408018E
:1008540033B508018507B308E300E20723A00801C4
:10086400E1871107E9B7797126D2B286B2842E8660
:10087400AA850A8506D622D47D372A84A6850A85C8
:10088400AD3D33348000060413351500018DB2509C
:100894002254925445618280411122C626C40143E8
:1008A400014F81471314830161846347D402939FEA
:1008B4001600FD1F854E9382F6FFF15333875E00C9
:1008C400620761876348F70732448E06AA9623AE0F
:1008D400F6FEA24441018280131E2300B302C60126
:1008E400814E814F13972E002E9703A802001843C0
:1008F400B3030703333707039E97B3B8770033086E
:10090400E701469885486367E8006314070163E3D9
:1009140077008148850E13978E016187C69F428FA9
:10092400F112E351E4FC2A9E2320FE000503C28752
:100934007E8F8DBF13948E01FA88618493142700EF
:10094400014F1318840113588841634AD8000A07D9
:100954002A97850E1CC393FEFE0FC68785B73308FE
:100964007402131324002E93032303002698329851
:1009740003280800330E680233386802F29733B351
:10098400C701C2989A98054363E7080163141801E4
:1009940063E3C70101431A9F050465B719CDB7176F
:1009A4000040130770052380E704130780FA2380AF
:1009B400E7042396A70223800704828019C1814794
:1009C40099E982803387F500834607003307F500F1
:1009D40085072300D700E397C7FEE5B719C1FD5784
:1009E40081E98280910503A7C5FF1105232EE5FE49
:1009F4007D16E319F6FEF5B7797122D41734000099
:100A0400130444D81C4006D626D24AD04ECE91C7F1
:100A140082979737000023A707D65C4089CB03D57C
:100A24008194AD3F5C40829703D5A194853F1C40DF
:100A3400639C07189737000083C7D7D8858B95C761
:100A440097370000A38007D8173700000347B7D7AC
:100A5400914763FCE70051219737000083C7B7D65D
:100A6400F9178A07A2979C4382979737000083C798
:100A740027DA918B89C7974001E0E78060F81C442E
:100A840091C3829793874194984317360000034695
:100A940076CD3E89973400009384C4CC9737000008
:100AA40083C747CC93961700BA9683D60600638310
:100AB40006109737000083C7E7CA63FBC70686079B
:100AC4003E97835507002310070003D581942EC653
:100AD400F135938781959C4317350000034585C8FC
:100AE40013172500BA979C43B2458297AA8903D568
:100AF400A1946D359737000083C7C7C613971700B5
:100B040083270900BA9703D70700B3E9E9002390C4
:100B1400370183C70400850793F7F70F17370000E1
:100B24002302F7C4173700000347D7C363E6E7007F
:100B340097370000238807C21C40D9E793870195A3
:100B440098433E8451C39737000083C717C891CB9D
:100B54009737000083C737C789E7974001E0E780EC
:100B6400C0B31C4082972A8425C19C48AA97173792
:100B740000002321F7C0938741959C43B1C703D557
:100B84008194293D2285972001E0E780402F973703
:100B94000000938767B9DC5389C7972001E0E78099
:100BA400200C2254B25092540259F24903D5A19414
:100BB4004561EDB3850793F7F70F9736000023835C
:100BC400F6BAE3EDC7ECF5B5B2502254925402598B
:100BD400F249456182809167B7C6004093873730F8
:100BE40023A6F6200F10000097370000938787B7DD
:100BF400884F9387C1999C43316713073730F0536B
:100C0400B7071000FD17918F99833A0523A6E620B4
:100C14005D8D82804111B7170040985F3AC6945F9A
:100C24003247E39CE6FE324541018280411106C60B
:100C3400D5379736000083C666B0858AB1C6930758
:100C440030333307F502B337F5023983CA07D98F36
:100C540017370000130707B1584B01456303F70228
:100C64003385E740636BF70037653D0889C63785F0
:100C74006F0813050590198D3E9517370000232D35
:100C8400F7AEB24041018280E5473307F502B3373E
:100C9400F5022583DE0765BF5D7122DE1384C198EA
:100CA4003AD218403ED04ACA1C5F86C696C499837D
:100CB4009AC29EC026DC2ADA2ED832D636D442CE48
:100CC40046CC72C876C67AC47EC2858B1389819855
:100CD400C1C31C5F97340000938484AE93F7F7F983
:100CE4001CDF9737000083C7A7AD93F707048DC3B4
:100CF4009387C1959C4382979737000023AAA7AC9A
:100D040083C7040093F7F70B17370000230AF7AAE9
:100D1400854717370000A307F7AA83C7440093F752
:100D2400070481EF9387C1999C43D844B8D39307B0
:100D340000FC173700002307F7A88387640063D9F2
:100D44000700832709009C4317370000230DF7A6EB
:100D540018401C5F8583858BC9CBF5571CDF0100C8
:100D64000100010001000100010001000100010077
:100D74000100010001000100010001000100010067
:100D84000100010001000100010001000100010057
:100D94000100010001000100010001000100010047
:100DA4000100010001000100010001000100010037
:100DB4000100010001000100010001000100010027
:100DC4000100010001000100010001000100010017
:100DD40001000100010001000100010001009387EE
:100DE400C1999C4313075004B8CB18401C5F9183EE
:100DF400858B89CFBD571CDF9387C1999C4323A85A
:100E04000704854717370000230EF79A8327090044
:100E1400D8430583058B19C7D843759BD8C3D843DA
:100E2400799BD8C37254B640A64216438643E25413
:100E34005255C2553256A256125782577248E2484A
:100E44005249424EB24E224F924F6161730020309C
:100E54009387C19994431737000013076796BC52D0
:100E640089CF83472700858B89EB83473700858BA0
:100E7400FDD7973700002387079482809387819951
:100E84009C4399CB944BD04B9842518F98C2944336
:100E94009C479842D98F9CC29387C1999C4337C77A
:100EA40000401306C003A8CB930620039735000027
:100EB4009385059183278720C18393F7F70363699B
:100EC400F60083278720C18393F7F70363E6F600D0
:100ED40083C74500858BF9DF82809387C19994434A
:100EE400173700001307C78DBC5289CB834707000F
:100EF400858B91CB973700002386078C97370000AA
:100F0400A382078C828083471700858BF1DFDDB7CE
:100F1400938781999C4399CB944BD04B9842518FA2
:100F240098C294439C479842D98F9CC29387C19995
:100F3400944337C70040C145A8CA65468327872024
:100F4400C18393F7F70363FBF50083278720C183ED
:100F540093F7F7036364F600BC52EDF382801387C2
:100F6400C1981843AA87185F1583058B25EF03459D
:100F7400150015051377C51F19C6B386E70083C688
:100F840026002300D60095C59736000083C6A683A5
:100F940093F606040945A1CAB386E70083C6360062
:100FA400054693F5F6066390C504E206E18663CC34
:100FB40006023385E7008347150003470500A207AF
:100FC40093F70770D98F13970701418393760740EE
:100FD40099C613670780239AE19801458280239A72
:100FE400F198E5BF05458280011136C89386C19901
:100FF4002ECC8C423AC63EC498452ACE32CA9317A8
:10100400070142C2C1831378172036853E8697268E
:1010140000009386E67A630408041377072061CFFF
:1010240003C726001367170017280000230BE8786E
:1010340013070019B8D1130700F89725000023837C
:10104400E5781387C1980C4337080010D855719B75
:1010540013672700D8D598413367070198C11377E0
:10106400261005C31376061045CA03C70600136786
:101074001700172600002305E67417270000231520
:10108400077483C6460093C7F7FFC207E206E186EA
:10109400C183184163D106029396170163D70608EA
:1010A40030538D4663E9C600854617260000230B9E
:1010B400D6703453FDFE972600009386E666838639
:1010C400460163DD060093960701C18663D50606D3
:1010D4007053894663E4C6007453FDFE1447724599
:1010E400E245F58F1CC75246C2463247A247124812
:1010F40005617300203003C7160013671700972596
:101104000000A38FE56A17270000230D076A17273D
:101114000000231B076AA1B703C736001367170033
:1011240017260000A30FE66889BF8546172600002E
:10113400230AD66849B75447139606016351060239
:10114400B7061000FD1674D39726000093868661B7
:10115400944E8506172600002322D66241B7A16665
:10116400D58FADBF17270000130747678346B70124
:101174009727000083C7D769B69793F7F70FFD4603
:1011840063EAF6044C4B97260000A389F66497277C
:10119400000083C7B76405473317F700972600009C
:1011A400A388F6666D8F1DEF9726000083C69666AA
:1011B400B3F6D70213050002814733D6F500058A3A
:1011C40013F8F70F09CE6399E60097270000A38769
:1011D4000761828081177DB705071377F70F8507AD
:1011E400E39DA7FC82809387419A9843B7570200F6
:1011F4009387079F832607091396560063580600B2
:10120400832607091396660063440600FD17FDF361
:10121400828051C9AA870145C9C98D07C207C18304
:10122400F19BC207C18313074003636BF702138763
:10123400819B08431387019B14436396A6021727D7
:1012440000001307674E185B014525C34111C2070F
:1012540006C60545DD8D0297B240014541018280F5
:101264001387419BF9B70357650005EF0357450002
:101274006369F702B306F74021466370D602104152
:10128400938687001D8FAA96611790C22392E60069
:101294002393060014C12312F5002313B50021057E
:1012A4008280084159BF01458280828001CD9387A5
:1012B400819B03A807009387019B8C430147C28746
:1012C40063E3B70082809443636FF50663EDA6067B
:1012D40013868700E368C5FE03D56700216605060B
:1012E4006317C50003C671970506A38BC1962393A4
:1012F4000700638407031386419B1042630FF600C3
:101304000356670019EA83D7470014C3835647007E
:10131400B697A1072312F700BA879843E304B7FAF4
:101324009386419B9442E30FD7F883566700D9FA1A
:1013340083D64700035647001843A106B29623926A
:0C134400D70098C382803E87B6879DBF0B
:10135000974100209381013B17710020130181CA3E
:1013600013054000972500209385C54917360020B6
:101370001306067E63FAC5008322050023A05500EC
:1013800011059105E3EAC5FE17C501001305C579EE
:10139000973500209385057C1386818463FAC50008
:1013A0008322050023A0550011059105E3EAC5FE3F
:1013B0001385818497650020938505D16377B500F7
:1013C000232005001105E36DB5FE9302800873A08C
:1013D0000230972200209382E24293E2120073903F
:1013E0005230972200009382A2B673901234730099
:1013F00020303D432A876373C3029377F700BDEF24
:10140000ADE5937606FF3D8ABA960CC34CC30CC774
:101410004CC74107E36BD7FE11E28280B306C3409D
:101420008A069702000096966780A6002307B700F9
:10143000A306B7002306B700A305B7002305B7002E
:10144000A304B7002304B700A303B7002303B70026
:10145000A302B7002302B700A301B7002301B7001E
:10146000A300B7002300B700828093F5F50F939691
:101470008500D58D93960501D58D61B7939627008C
:101480009702000096968682E78086FA9680C117BA
:101490001D8F3E96E374C3F8A5B73367B500FD53BF
:1014A0000D8B79E7B7877F7F9387F7F710419441DA
:1014B000B372F6003363F600BE92B3E26200639744
:1014C000720C6318D6065041D441B372F6003363F0
:1014D000F600BE92B3E262006398720A631BD60400
:1014E00010459445B372F6003363F600BE92B3E242
:1014F00062006391720A631ED6025045D445B372EE
:10150000F6003363F600BE92B3E26200639A72089B
:101510006311D60210499449B372F6003363F600A2
:10152000BE92B3E26200639372085105D105E30FE6
:10153000D6F61317060193970601631CF70013579D
:10154000060193D706013305F7409375F50F91E92E
:1015500082804183C1833305F7409375F50F91E194
:1015600082801377F70F93F7F70F3305F7408280E8
:101570000346050083C60500050585056313D600EF
:1015800065FA3305D640828011059105E312D6FE37
:10159000014582802105A105E31CD6FC014582801E
:1015A0003105B105E316D6FC014582804105C10530
:1015B000E310D6FC01458280B717004003C77705CA
:1015C0001377E70FA38BE704130700F8A38DE70455
:1015D0003D47238CE70413077003A38CE704828044
:1015E000B717004003D587005D714EDE420541818B
:1015F00086C6A2C4A6C2CAC052DC56DA5AD85ED683
:1016000062D466D26AD06ECE9377050C13070008B9
:1016100081496386E71813070004639AE714B72427
:101620000D8F7D8993840480B3D4A402916793873E
:1016300007E8BE94A167938707D0B3D4F402EF9074
:10164000017397B701009387671C9043D443EF90D1
:10165000C126EF905134AA8B939C040103D9818455
:1016600093DC0C0163150900056913090980B7179C
:101670000040130770052380E704130780FA2380D6
:10168000E704B71A00400547939D0401096C2389BC
:10169000E704514B01438145138D0A04130670057D
:1016A000930680FA094893DD0D01130C0C71A948CB
:1016B0002300CD002300DD0023962A0323000D0024
:1016C00083C72A05898BEDDF83D70A0583C72A05DF
:1016D000898BEDFF83C72A05898BEDDF83D70A0548
:1016E00023942185C207C18333859741131A0501CD
:1016F000135A0A41630B0A143307BA02635E070CDC
:1017000005034203135303016368680C63D9050A98
:101710003305B04093150501C185C204C18063D76C
:10172000450B0965130505713385A502B717004000
:10173000130770052380E704130780FA2380E7046A
:1017400023963703238007043345950242054181E0
:10175000B640264496440649F259625AD25A425B30
:10176000B25B225C925C025DF24D61618280B1E30A
:10177000B77489097D8993840480B3C4A4029167F6
:10178000938707E8BE94A167938707D0B3C4F40298
:10179000EF90E15D97B701009387C7077DB597B7D5
:1017A000010093872706856483AB07009384843800
:1017B00065B5930B0000954445B53A89D5BDB3870F
:1017C000FC40139A0701135A0A4181BF09651305AA
:1017D00005713305AA028DBF3385B74163E4FC0070
:1017E0003385FD40330585033344B50363C5880065
:1017F00013150401A9BF528532C636C4EF90510DAE
:10180000DE85EF90C15DEF90910613130501135330
:1018100003413307694042074183A24632460948E3
:10182000A948631AE900130719006344400113072C
:10183000F9FF420741837D1B137BFB0FCA89D285C9
:10184000E31D0BF62394E18465B7014511B7B71783
:10185000004003D5870039715ECE4205418106DE26
:1018600022DC26DA4AD84ED652D456D25AD062CC8E
:1018700066CA6AC86EC69377050C13070008814BC9
:101880006388E71413070004639CE710B7240D8FE7
:101890007D8993840480B3D4A4029167938707E879
:1018A000BE94A167938707D0B3D4F402EF90214C84
:1018B00097B70100938787F59043D443EF80F17F7A
:1018C000EF90710DAA89939A040103D9A18493DA48
:1018D0000A0163150900056913090980B71700405B
:1018E000130770052380E704130780FA2380E704B9
:1018F000139B04010547096A2389E704D14D014D73
:10190000814C135B0B01130A0A714A859720002052
:10191000E78000FB330C5541420C135C0C412395CE
:101920002185630A0C14B3079C0363D0070E050DD1
:10193000420D135D0D01894763E9A70D63DA0C0AB7
:1019400033059041931C050193DC0C41C204C18016
:1019500063D78C0B0965130505713385AC02B71786
:101960000040130770052380E704130780FA2380E3
:10197000E704239677032380070433459502420545
:101980004181F2506254D2544259B259225A925A69
:10199000025BF24B624CD24C424DB24D21618280CF
:1019A000B1E3B77489097D8993840480B3C4A40228
:1019B0009167938707E8BE94A167938707D0B3C464
:1019C000F402EF90C13A97B701009387A7E4EDB511
:1019D00097B70100938707E3856483A90700938481
:1019E0008438D5B5930900009544F1BD3E8931BFD7
:1019F0003385AA40131C0501135C0C4181BF0965A6
:101A0000130505713305AC028DBF63FEAA003305D3
:101A1000654133054503A9473344650363C887001F
:101A200013150401B1BF3305AB40E5B76285EF90F4
:101A3000216ACE85EF90A13AEF906163131D0501F5
:101A4000135D0D41B307A941C207C183631AF900B1
:101A500093071900634480019307F9FFC207C1830C
:101A60001387FDFF937DF70FCA8BE28CE3900DF88F
:101A70002395F18475B7014529B741112A83014E99
:101A8000930E407E130F0019930F400663EB6E0A0E
:101A90009308001913034006B3781503854E0D4FC4
:101AA000A14F337365020D891335150063E5BE0C34
:101AB0001308F6FF79467298420813580801330755
:101AC000C70213D61700BE0732976146B3F6C602A7
:101AD00013068070B386C6023697A166F58F42075B
:101AE0005D8FB717004083C6F70293F60608A30779
:101AF000D1000346F10083C6F70293F60608E3948B
:101B0000C6FE8346F10093F6F60FF1DE93067005EC
:101B10002380D704930680FA2380D70423AA0703DF
:101B200083C6170393E60608A388D702D8DB03C74A
:101B3000170313670704A388E70223800704410102
:101B400082807D133368E3039308E016630E080078
:101B50003368F3039308D0166308080093783300C2
:101B600093B818009388D81633081E01131E080175
:101B7000135E0E0121BF6393E503054863860800E9
:101B80000148630303002A8871087298FD15131E2B
:101B90000801C205135E0E01C18109BF13F81500CB
:101BA00063F4BF007908D5B713381800E5BF914733
:101BB00063EEB70217B70100130747C68A05BA9547
:101BC0009C41BA978287B717004003A7470B13457C
:101BD000F5FF698F23AAE70A03A7070B698F23A8DC
:101BE000E70A03A7070A798D23A0A70A8280B717FF
:101BF000004083A6470B1347F5FFF98E23AAD70AA7
:101C000083A6070B558D23A8A70A83A6070A758FFD
:101C100023A0E70A8280B717004003A7470B498F2C
:101C200023AAE70A03A7070B1345F5FF45BFB7171C
:101C3000004083A6470B1347F5FF758F23AAE70AD9
:101C400003A7070A598D4DB7B717004003A7470BE5
:101C5000498FEDB7B717004003D587004205418192
:101C60009377050491EB9377F5013755E801130558
:101C700005803345F50282809377050C1307000435
:101C80006397E7009377F50137459C1CCDB7216535
:101C9000130505D08280B7F700E0C8439C478280D7
:101CA000814737370040A14663C4C7003285828030
:101CB0000345B740E38EA6FE3385F50003450500D6
:101CC00085072304A740CDB7411122C406C62A8444
:101CD00051372947B307E502B2408D83B3D7870256
:101CE00022449507B3D7E70237370040C207C183C4
:101CF0002316F740410182807165411113050520CB
:101D000006C6D937B7370040130770F82381E7407C
:101D10000D47A381E74013070004A380E740054770
:101D20002387E740B240410182802386018423A8B3
:101D30000184B717004003A7070CB706C0FFFD16C4
:101D4000758F23A0E70C03A7070DB7064000558F3A
:101D500023A8E70C03A7070C3D9B23A0E70C03A7D0
:101D6000070D1367070123A8E70C828023A8A1842D
:101D700013064006894503C541856F40F11DB7171D
:101D8000004003A5470C83A7470C59811345150054
:101D9000C18B058999E31365250083C7C184638CD2
:101DA000A7002386A18401C99387018503A30700A7
:101DB0006303030002838280411106C6EFF05F8255
:101DC000BD4763F4A700EFF0BF815134BD4763F313
:101DD000A700B53CB24083D5A18403D581844101DD
:101DE0006F403125411193962500AA852D4506C6E1
:101DF00097200020E78080D8B240014541018280D1
:101E0000411122C426C24AC02A842E89B284AA85DE
:101E1000930600200146254506C697200020E7804E
:101E2000E0D5931629002686A28529459720002013
:101E3000E780C0D4B24022449244024901454101A6
:101E40008280011122CC06CE3714004026CA4AC82F
:101E50004EC652C483447405034AB40583498405BD
:101E600003499405EFF04FF58347A40593F4F40F6D
:101E7000137AFA0F93E71700230DF40493F9F90F7F
:101E80001379F90FB717004003C7A705058B6DFF3E
:101E900003D5C705A38D4705238C3705A38C2705DC
:101EA000A38B9704F2406244D2444249B249224A89
:101EB0000561828041119397050122C406C6C1873E
:101EC0002E8463DA0700EF40813D19C1EF4081366F
:101ED0002165218D1DA093F7150013C5150091EF05
:101EE00093F7250099CF613D1306000A894503C584
:101EF0004185EF40710613452400B2402244410160
:101F000082809397250163D00702EF60210A6D3527
:101F100037F60200130606E0896503C54185EF40E8
:101F2000B10309657DB7939715010145E3D707FC18
:101F300017B5010013054594EF90E16513060064A1
:101F4000916503C54185EF403101116559B71D7198
:101F5000494697B501009385A58D17C50100130566
:101F6000258F86CEA2CCEF40016801E917B50100AC
:101F70001305458DEF90216201A037F700E0F95776
:101F80005CC7FD571CCB0564B7E700E023A08710B2
:101F90009306701014C3B843C146B4C323A0871876
:101FA000B8C3010001001306C00381454808EF4093
:101FB0006162974700209387E7AE3ECAED47A301D1
:101FC000F1029307A0102312F102D1472303F1027B
:101FD000A167938707E03ECE970700009387C7E08D
:101FE000BEC4970700009387E7E1BEC68547230478
:101FF000F102B5472308F102970700009387E7C96C
:102000003EDAB7F50700970700009387C7E33EDE87
:10201000814697070000938767DA7000E10519454C
:10202000BEC0231C810097200020E78020B55808FF
:102030008147994670003E960346060085070507CE
:10204000A30AC700E398D7FED24791C7035781017F
:1020500085676373F70001A04808EF40D110AA8597
:1020600001C917A501001305257FEF90813E01A04E
:10207000F640664425618280411117050000130572
:10208000A5E306C622C4EF40910A138441852300CC
:10209000A40031285939034504002244B24037F6E0
:1020A0000200130606E0896541016F40E16A4111B3
:1020B00006C6B7170040130770052380E70413070F
:1020C00080FA2380E70403C7F7021377A70FA387DB
:1020D000E70203C7F70213672700A387E702E9397E
:1020E0001305407E8147014781460546854571328B
:1020F000B240014541016F4091281387C1278147B4
:10210000BA851D468356070089CE139547002E9544
:10211000544113983600634608001398260063570D
:10212000080085074107E39FC7FC0145828093862D
:10213000C127814736871D4683D506006396A500D3
:1021400092073305F70082808507C106E396C7FE34
:1021500001458280D8414111A16722C406C626C22A
:102160009386B7012A846306D7089387D70363054C
:10217000F7044DEF97A501009385857917B5010008
:10218000130545A3EF90E12C17B50100130585A3B6
:10219000EF90212C2945EF90C12F835764007D7764
:1021A000F98F93E737002313F40089471CC4B2402A
:1021B000224492444101828097A501009385457590
:1021C00017B501001305059FEF90A12817B5010071
:1021D000130505A1EF90E1272945EF90812B835747
:1021E00064007D77F98F93E737002313F4008D4760
:1021F00075BF97A501009385A57117B5010013055B
:10220000659BEF90012517B501001305259FEF9001
:1022100041242945EF90E127835764007D77F98FAA
:1022200093E737002313F400914749B7AE8417B5FD
:1022300001001305259897A501009385656DEF9022
:102240004121CC4017B501001305859DEF90612019
:102250002244B2409244294541016F9081234111AB
:1022600097A501009385C56617B5010013058594F0
:1022700006C6EF90011EB240294541016F906121D1
:10228000411122C497A501009385056E2A8417B5D4
:1022900001001305259206C6EF90A11B2945EF907A
:1022A000411F5840A16793879704631BF70403D528
:1022B000618669C1EFF0B05403D561868D3D8357C7
:1022C00065007D777D17F98F232405002310050015
:1022D0002313F50097A501009385056917B5010043
:1022E0001305458DEF90E11617A501001305C57F75
:1022F000EF9021162244B240294541016F906119A7
:10230000ED3B05E197A501009385056617B5010032
:102310001305458AEF90E11317A501001305057E0B
:10232000C1BF834604001307F00F6390E60497A52E
:1023300001009385656317B501001305A587EF902C
:1023400041114C4017A501001305057DEF90611068
:102350002945EF9001142244B24003C5C1851306FC
:10236000803E854541016F40213F5C45A2859C43ED
:102370008297D5B7B240224441018280411122C4E4
:1023800006C6834705002A849DC397A5010093854F
:10239000E55E17B501001305E581EF90810B4C4018
:1023A00017B501001305059BEF90A10A5DA85841E0
:1023B000B707CF009387777D631BF70A97A50100C6
:1023C0009385C55B17A501001305C57EEF906108D5
:1023D0001C448356E4008355C40003C6070017B5A8
:1023E00001001305A598EF90C1062945EF90610AF9
:1023F0000357C40089476310F70E1C441307A00A53
:1024000083C607006399E60C03C7170093075005BE
:102410006313F70C914503C5C185EF40E13C03D53B
:102420006186EFF0D03D03D5618611338357650097
:102430007D777D17F98F23240500231005002313D2
:10244000F50097A501009385655317A501001305B5
:102450006576EF90010017B501001305A593EF8095
:10246000517F2244B240294541016F908102B70754
:10247000CE009387777D631AF70297A501009385B5
:10248000E54F17A501001305E572EF80917C1C4410
:102490008356E4008355C40003C6070017B5010046
:1024A0001305C590EF80F17A6DBFB707CC00938715
:1024B000777D6302F70297A501009385254C17A548
:1024C00001001305256FEF80D1784C4017B501004E
:1024D00013050590D1BDB24022444101828079713B
:1024E00022D426D24AD02E842A89B28481457146CC
:1024F000480006D6EFE0FFEF23142101EF00107132
:102500008547A305F100930700192305A1003EC6E6
:102510002686FD57A2854800230AF100EF0090713E
:10252000B250225492540259456182801C45411197
:1025300006C622C426C209476382E7060D476382A6
:10254000E70A05446391870283550500035545005A
:1025500017A701001307C77A81460146EF30105EC6
:10256000AA8401E901442285B240224492444101F7
:10257000828097A501009385253B17A501001305CF
:102580006563EF80116DA68517A501001305C56A67
:10259000EF80316C2945EF80D16FF1B7035605000C
:1025A000035545009307707D01478146B285EF30A2
:1025B000B0592A8445D997A501009385E53617A51A
:1025C00001001305255FEF80D168A28517A50100E2
:1025D00013054569EF80F1672945EF80916B05444C
:1025E00059B703560500035545009307707D014711
:1025F000B166B285EF3070562A842DD597A50100BB
:102600009385853217A501001305C55AEF807164C3
:10261000A28517A50100130565676DBFD84141115B
:1026200022C406C626C22A841DCFA1679387D7037A
:10263000630DF706AE8417A501001305A55797A5EE
:1026400001009385A52DEF80D160CC4017A5010036
:102650001305055DEF80F15F2244B24092442945A5
:1026600041016F80116397A501009385252B17A564
:10267000010013052554EF80D15D17A50100130556
:10268000E54DEF80115D2945EF80B160835764000F
:102690007D77F98F93E717002313F40089471CC453
:1026A000B240224492444101828097A50100938563
:1026B000E52617A501001305E54FEF80915917A5F1
:1026C00001001305654BEF80D1582945EF80715CFF
:1026D000835764007D77F98F93E717002313F40085
:1026E000914775BF011122CC97A501009385052B59
:1026F0002A8417A501001305E54B06CEEF8071551E
:10270000A28517B501001305A586EF8091542945D0
:10271000EF80315883D7C128A5CF97A501009385B5
:10272000E52717A501001305E548EF80915283D5F1
:10273000C12817A501001305A53FEF809151294538
:10274000EF803155414697A501009385A50A0A857A
:10275000EF80D14441468A8503D5C1284933937718
:10276000F50F2A8495C797A501009385252317A502
:10277000010013052544EF80D14D9375F40F17A583
:1027800001001305E53BEF80D14C2945EF807150E6
:10279000F240624405618280011122CC06CE26CA35
:1027A00093F715002E846381070EEFF01F95AA841E
:1027B0001DE597A501009385251317A501001305B5
:1027C000653FEF80114917A5010013052533EF8000
:1027D00051482945EF80F14B1344140071A0035771
:1027E00065008567FD177D8FB306F700FD8E835763
:1027F00065007D76F18FD58F2313F50025EF97A522
:1028000001009385650E17A501001305A53AEF8019
:10281000514417A5010013056506EF809143294532
:10282000EF80314783D7640005671386C127D98FAE
:102830002393F4008146328505489D458357060061
:102840009DCF139746002A975C439394370063C843
:102850000402F583858B6394070383576700F97639
:10286000FD16F58F2313F7002285F2406244D2440F
:10287000056182805C45DC4382974DF5B1BF8506DA
:102880004106E39DB6FA89BF93F72500D1C783D7E8
:10289000C128A5CB97A501009385051217A50100B6
:1028A00013054531EF80F13A83D5C12817A5010002
:1028B000130545FEEF80F1392945EF80913D93875F
:1028C00081839C4311466C0003D5C1283EC6013963
:1028D0009377F50FAA8495C797A501009385C50D39
:1028E00017A501001305052DEF80B13693F5F40F00
:1028F00017A50100130585FBEF80B1352945EF8051
:102900005139096613060690894503C5C185EF3024
:10291000B1641344240089BF93F745009DC797A570
:1029200001009385650917A501001305A528EF800F
:10293000513217A50100130565F8EF809131294543
:10294000EF8031351344440005B7014431BF1C45C5
:10295000411106C622C405476387E7000947638C17
:10296000E704054505A0835505000355450017A755
:1029700001001307E73881460146EF30301C2A84F6
:1029800011E50145B24022444101828097A5010032
:10299000938545FA17A501001305C521EF80712B1A
:1029A000A28517A5010013052529EF80912A294545
:1029B000EF80312E7DB70356050003554500930780
:1029C000707D05478146B285EF3010182A8455D9AD
:1029D00097A50100938505F617A501001305851D30
:1029E000EF803127A28517A501001305A52775BF24
:1029F000411122C406C62A841385C1270DE02A8707
:102A000081471D4883580700639D080613944700BB
:102A10002A942312B4002310C4002311D400138776
:102A2000C12781479D458356070099CE630ED60086
:102A300093964700AA96D44213983600634608003E
:102A4000139826006357080685074107E39DB7FCE6
:102A500081471397D70083576400F976FD16F58FE9
:102A6000D98F2313F4001397270163470700854587
:102A700003C5C185EF30D13D2285B24022444101DA
:102A8000828085074107E39F07F797A5010093859B
:102A9000E5E617A501001305E511EF80911B17A5C9
:102AA00001001305250FEF80D11A2945EF80711E13
:102AB000E1B7854779BF411122C44AC02E842A89D3
:102AC00097A501009385C5E717A501001305850E9D
:102AD00006C626C2EF80F1172945EF80911B0545F8
:102AE000EFF0207F15C5AA8497A50100938545E5E1
:102AF00017A501001305050CEF80B115A68517A5D4
:102B000001001305E51BEF80D1142945EF807118F2
:102B10002285EFF0CFE119C5835765001397370180
:102B2000634E070485462286CA85D9350DE997A5E7
:102B300001009385E5E017A501001305A507EF80C7
:102B4000511117A501001305E519EF8091102244DA
:102B5000B24092440249294541016F80911397B7D1
:102B600001009387E7F15CC5835765007D77F98F96
:102B700093E717002313F50085471CC5B240224494
:102B80009244024941018280011122CC26CA2E843E
:102B9000AA8497A50100938565DC17A5010013059C
:102BA000650106CE32C6EF80D10A2945EF80710E4D
:102BB0002285EFF0CFD7B24619C58357650013972A
:102BC0003701634C07042286A6851D3505E997A5C4
:102BD00001009385A5D817A501001305A5FDEF8079
:102BE000510717A501001305E50FEF809106624418
:102BF000F240D244294505616F80B10997B70100C1
:102C0000938787E85CC5835765007D77F98F93E7E5
:102C100037002313F50085471CC5F2406244D244B7
:102C200005618280411122C417A50100130585F8B2
:102C30002E8497A50100938565CA06C6EF807101B1
:102C4000A28517A501001305A5F0EF809100294585
:102C5000EF80310495476319F4002244B240854562
:102C6000054541016FF0E06A2244B240054541014B
:102C70006FF02066411122C426C22A84AE8417A5B3
:102C80000100130525F397A50100938565CC06C6C1
:102C9000EF80217C29450588EF80A17F29C09546DA
:102CA000014681452685EF10107E2A840DC997A51F
:102CB00001009385E5C917A501001305A5EFEF8075
:102CC0004179A28517A5010013058506EF8061787B
:102CD0002244B2409244294541016F80817BB24039
:102CE00022449244410182800111354697A501009A
:102CF000938545D317A501001305053506CE22CCD3
:102D0000EF30710E01E917A501001305A5B3EF809F
:102D1000910801A0972700209387473B3EC4B7F551
:102D2000070085679387478B814613860186E105F7
:102D300019453EC697100020E78040E41946938568
:102D400001861385413097100020E78060473400EA
:102D50001386018697A501009385850A17A50100B2
:102D60001305850BEF1010512A840DC997A501009A
:102D7000938585C317A501001305C5E3EF80616D39
:102D8000A28517A501001305E5CAEF80816C2945CE
:102D9000EF802170F240624405618280EF80E05252
:102DA00017A50100130585C2EF00506B9387C1275B
:102DB0001387C12E23A4070023900700C107E39BBC
:102DC000E7FEEF500015EFF0804C172500201305AB
:102DD00025EBEFF0403017A50100130525C0EFF0FB
:102DE000404C2A84EF10004FEFA0B022EF101117D3
:102DF000EF206066EF10B02DEFD0E02F97A5010017
:102E0000938585BA17A501001305C5DA09C8EF80B7
:102E10004164A28517A50100130505C4BDB7EF8065
:102E2000416317A50100130565C5EF80816229453F
:102E3000EF802166EFD08014EF90807F29C597A5A1
:102E40000100938565B617A501001305A5D6EF808F
:102E5000416017A501001305E5C3EF80815F294597
:102E6000EF80216397A50100938505B417A50100A4
:102E7000130545D4EF80E15D17A50100130585C555
:102E8000EF80215D29B797A70100938767E8054781
:102E900081460146814517A50100130565E8EF103D
:102EA00010652A8461D197A501009385E5AF17A528
:102EB0000100130525D0EF80C159A28517A5010097
:102EC000130585BFD9B54111170500001305058D00
:102ED00006C622C4EF30B1251384C1852300A400A7
:102EE0002135EFE09FE417F5FFFF1305E57FEFE0E5
:102EF000FFE7034504002244B24005661306062C92
:102F0000894541016F3051050111354697A50100F2
:102F1000938545B117A501001305051306CEEF30C3
:102F2000816C01E917A50100130505ECEF80A1668E
:102F300001A0EF6061132AC6EF10F145EF10F124F4
:102F4000EF70E072F2403245056182804111130555
:102F5000800406C697100020E780209B37170040AA
:102F60008327870A8D451305002093E70720232434
:102F7000F70AEFE0DFC3EFE03FD817B50100130514
:102F8000258DEF80416117A501001305E50BEF804A
:102F90008160EFE0DFFBEFF02F8EBD372D3797100C
:102FA0000020E780A025E5BF014582804111B2865F
:102FB0002E86AA852D4506C697100020E78000BC06
:102FC000B240014541018280AE860146AA85254571
:102FD00017130020670083BA9307000463E6C70253
:102FE0001D71A2CC2A84080886CE32C6EF80013B30
:102FF000B2461008A285294597100020E78000B846
:10300000F640664425618280395582809387C18667
:1030100018429C4383D645000345070083C5C7007B
:10302000035646006396A50083D5E700638DD5025D
:10303000011106CE2386A7002397D700B705CF003E
:10304000DC4B9385757D05077D162EC2230001009C
:103050003AC42316C1002317D10099C30A85829769
:10306000F2400561828082806D713C083EC6B707E0
:10307000E500232291103EC8AA843C08328523260D
:1030800011103ECA23248110232021112E89EF2004
:10309000605B2A8497A501009385C5DB17A5010015
:1030A000130545B1EF80E13AA28517A5010013058C
:1030B000E5E8EF80013A2945EF80A13DB705CD0055
:1030C0009385757D6800EF00F032A2856800EF20DF
:1030D000004D014781467000CA852685EF00705477
:1030E00015C52A8497A501009385C5D617A50100AB
:1030F000130545ACEF80E135A28517A50100130546
:10310000A5E4EF8001352945EF80A1388320C11067
:10311000032481108324411003290110516182800E
:10312000797122D452CC2E842A8A97A501009385E6
:10313000E5D317A501001305E5A706D626D24AD088
:1031400004424ECE328983594600EF8081300357C6
:10315000240083068400035664008355440017A5A9
:1031600001001305E5E3EF80C12E2945EF806132B0
:103170009387C1869C4303C7040083C607016398F5
:10318000E6000356440083D6E700630AD60223888C
:10319000E700835644003707CE001307777D239757
:1031A000D700DC4B8504FD193AC22300010026C478
:1031B000231631012317D10099C30A8582974A86C5
:1031C000A28552855535B250225492540259F24983
:1031D000624A456182806D713C083EC0B707E500D8
:1031E0003EC23C083EC42326111023248110232212
:1031F0009110231701002318010023190100231A3D
:103200000100231B01009727002083D7A7AB99E378
:10321000C167FD172316F1009727002083D7A7AABF
:1032200081EB9387C1869C439C43DC4783D707008F
:1032300017240020130404A9584C2317F1008357C6
:103240004400484B2318F10005ED97A50100938534
:10325000E5C617A501001305E595EF80811F17A5A9
:1032600001001305A5C9EF80C11E2945EF80612229
:103270008320C11003248110832441105161828076
:103280009727002083C777A499E7EF20B17A5C4C99
:1032900023AA0700F1BFFD1797260020A387F6A2F7
:1032A00003560701834704014C470A85230BF100AD
:1032B000EF20002D9387C1869C43014781468843B8
:1032C0000A866C00EF00F035AA8405C997A50100B5
:1032D0009385C5BE17A501001305C58DEF80611745
:1032E000A68517A50100130525C2EF808116294583
:1032F000EF80211A5C4CC84B49BF9727002083C739
:10330000D79CEDDB1044854503C50187EF30C144F0
:1033100085B75C4D411106C688C31705000013052B
:10332000E53023A6F186EF308160B2402388A18684
:10333000014541018280411122C426C22E84AA8403
:1033400097A50100938585B917A50100130585860A
:1033500006C6EF800110A68517A50100130585CBD1
:10336000EF80210F2945EF80C1125C4CDC4B99CBDB
:1033700010442244B240924403C501879145410163
:103380006F30813DB24022449244410182805C4EC4
:10339000DC4BA1C7B9C1411122C417A50100130517
:1033A00065812E8497A50100938585B206C6EF80BE
:1033B000410AA28517A50100130505C7EF80610921
:1033C0002945EF80010D2244B24003C50187130651
:1033D0004006914541016F3021388280411122C45D
:1033E00017240020130404901C4C06C689C7DC4334
:1033F00099C34C4882975C4CC84BEF20B1635C4C3E
:10340000B240224423AA07004101828013878186AB
:1034100083470700850793F7F70F93968701E186A7
:1034200063C706002384F186034507008280238456
:103430000186DDBF83574500638D070C01114AC823
:10344000172900201309098852C4032AC90106CE8E
:1034500022CC03274A0126CA4EC6F15729EB13078F
:10346000D00DFD576365C7042A8413058600420505
:103470004181B284AE89EF20B15E232AAA000325E0
:10348000C9015C4995EF97A50100938525A1179582
:10349000010013052572EF70D17B17A501001305FC
:1034A00025B3EF70117B2945EF70B17EDD57F240F7
:1034B0006244D2444249B249224A3E850561828033
:1034C00093874400B705CF002319F5009385757DD8
:1034D0003105EF0020720325C901834564003105E1
:1034E000EF20E00B0325C9012686CE853105EF20AC
:1034F00020097146A2854A85EF70516A504401CA7D
:10350000854503C50187EF30212581474DB7E1315E
:10351000EDBFFD573E858280411122C41714002063
:103520001304447A5C4C06C6C84BEF20B1505C4C87
:103530002244B24023AA070003C501878545410103
:103540006F30812A1387C1861C43BDCB411126C22F
:10355000BA84D84306C622C439CF2300B50058C167
:1035600023A4070023A207009717002093878777DB
:10357000DC4F2A84DC4B99C329558D3597170020E1
:1035800093874774DC4FDC4B91C37937894503C57A
:103590000187EF306125914503C50187EF30C124D4
:1035A0009C4003A347016308030022852244B240E4
:1035B000924441010283B2402244924441018280FC
:1035C00082800111328506CE22CC26CA2E84EF20BD
:1035D0006007AA8497A501009385C58A1795010005
:1035E0001305455DEF70F166030784000356640020
:1035F00083554400A68617A501001305A597EF7013
:1036000051652945EF70F1689717002083C7E76D72
:10361000639797000145D93381450A852537F240E4
:103620006244D244056182806D7123248110232677
:1036300011102322911093F715002E8489CFEFF0FB
:103640009FB9134514008320C110032481108324E3
:1036500041105161828093F7250099CF4146814501
:103660002808EF2031772555953B28089305F00F62
:10367000D13D13452400C1BF93F745000145E1D773
:103680003C083EC0B707E5003EC23C083EC42317D5
:1036900001002318010023190100231A0100231B34
:1036A00001009717002083D7E76399E3C167FD17EF
:1036B0002316F1009717002083D7E76281EB9387E9
:1036C000C1869C439C43DC4783D707001717002023
:1036D000130747612317F100544F835747002318FE
:1036E000F100DC4A9DE7979501009385E57F1795EA
:1036F00001001305254CEF70D155179501001305F6
:10370000E57FEF7011552945EF70B158134544001E
:103710001DBF9717002083C7575D2555B5C7FD17F7
:1037200017160020A303F65C03D6060183470701A2
:10373000CC460A85230BF100EF1090649387C18675
:103740009C43171700201307E75997A6010093869B
:10375000263488430A866C00E925AA8445D99795C2
:10376000010093856578179501001305A544EF7056
:10377000514EA6851795010013050579EF70714D1F
:103780002945EF7011512685EFF05FC541B7011152
:1037900022CC2A8408454AC84EC606CE26CA52C440
:1037A0002E89B28909C900C1971500009385258229
:1037B0006105EF10410F81447D5AEF10401863C836
:1037C000A4048144EF10601863CBA404938741875D
:1037D0009C43DC47B307F94091872302F4006388D8
:1037E00009048327C900B307F4409587A302F400B6
:1037F0001C4CD5CB03A387006307030A22856244D0
:10380000F240D2444249B249224A056102835C44F3
:10381000139714008504BA972390470179BF1C4879
:10382000139714008504BA972390070061BF83277C
:1038300089000547B307F4409587A302F400835736
:103840000400638EE7028DC309476384E7040D47D4
:10385000E390E7FA97A701009387C7CB1CCC97A703
:103860000100938727CC11A897A70100938787921F
:103870001CCC97A701009387E7925CC895BF9797E8
:1038800001009387277E1CCC979701009387877E42
:10389000EDB797A701009387A7CC1CCC97A7010091
:1038A000938707CDD9BFF2406244D2444249B2491E
:1038B000224A056182809DE1411122C4004606C66C
:1038C00018448347940075839D8B6315F700EF00C0
:1038D000D02A48C4B240224441018280828079715A
:1038E0004AD01389350026D24209C16422D44ECE73
:1038F00052CC06D6AA890144F11413590901054A8C
:103900002EC6EF10C003B245634BA4000145B25070
:10391000225492540259F249624A4561828083A737
:10392000090013171400BA9783D707006388B700FC
:103930006394970063742A010504D9B70545C1BF94
:10394000797126D24AD04ECE52CC56CA5AC806D623
:1039500022D45EC6AA892E89328BB6843A8ABE8A60
:10396000EF80104D61C12685EF10503D8D4763EE0D
:10397000A7007D55B250225492540259F249624A2E
:10398000D24A424BB24B4561828083DB4400EF0058
:10399000907F2A84EF102000930774003144330590
:1039A000850263C4A702EF00107EEF00D07D2A8459
:1039B000EF00707E9307740031443305850263C4C1
:1039C000A704EF00507C110519A8EF00D07C330448
:1039D00085029307F0171305C017E3D887FC6345EA
:1039E000750563080B022254B250F249424BB24BA8
:1039F000D6865286D24A624AA6854A859254025990
:103A000045616FF0505EEF00107933058502711546
:103A1000F9B7832749001385C90083D52700C1352D
:103A200079F181BF6955B9B72D55A9B7239CA186F6
:103A300093874187904381470C463307F50042073F
:103A400041836393B70082805446139847008507EB
:103A5000C2962390E600D5B7938741879C4303C560
:103A60008700828003D5818782804111C16706C6A5
:103A70001387D7FF6308E5026369A700F117630F97
:103A8000F5000145B240410182801387E7FF630ED4
:103A9000E500FD171D8D13351500EDB7EF409003C0
:103AA0007D15D5BFEF40405FE5BFEF40E05DCDBF86
:103AB000011122CC26CA06CEAA8401442EC6EF00EC
:103AC000D068B2456348A4000145F2406244D24444
:103AD000056182809C48131514003E9583570500AC
:103AE000E385B7FE0504D9BF03485500814693F727
:103AF000F60F63E5070181473E858280584593971D
:103B00005600BA9703D727006316B70003D70700FC
:103B1000E304C7FE8506E1BF83464500014793776E
:103B2000F70F63E4D700814711A81C45131657000F
:103B30000507B29703D60700E313B6FE3E858280E1
:103B400001119317050156C206CE22CC26CA4AC8D7
:103B50004EC652C4C187938A4187635AF00883A72F
:103B60000A00C0479C4703570400198D4205418154
:103B7000636DF50001442285F2406244D24442491B
:103B8000B249224A924A0561828012052A94E5B719
:103B9000DC4713944900014A3E9483474400634143
:103BA000FA02014A834754006346FA028509C209B2
:103BB00093D9090183A70A009847E3EBE9FC5DBFAD
:103BC0001C4413195A00A6853E994A85D53509ED3E
:103BD000050AE1B75C4413195A00A6853E994A8547
:103BE000C13D19E1050A7DBFE30209FC69B7AA845A
:103BF0008149C9B71C4581E79307C5001CC51C4511
:103C0000231205001CC19307F00F63E6B70093F57C
:103C1000F50F6F10D018411126C206C69394050106
:103C200022C4C167C18063F9F5002244B240A68571
:103C3000924441016F10901AC18193F5F50F2A84C7
:103C4000EF10F01522852244B240A685924441012E
:103C50006F10901693874187884382801C4589C7DF
:103C600023AAA186014582807D5582809387418762
:103C7000984383474500484792073E9582802171CB
:103C8000232C811A1C1800453EC6B70780013EC888
:103C90001C183ECA83574400232E111A2328211BC7
:103CA000232A911A02CE02D002CC231EF1008347B0
:103CB00084002A8902D22301F1023C083ED402D6B4
:103CC0007537835705002316F102EF40C02D2307F7
:103CD000A1025C4003556400F18313F7170083478A
:103CE000F10252055181F99BD98FA307F102EFF040
:103CF000F01E31CDAA8403550500EF80501483D700
:103D000004002AD26800231CF10083D72400231D5D
:103D1000F1001C4803D647008C43EF107006834720
:103D2000B400CA8617A60100130606D78117A3059B
:103D3000F4006C004810EFF0102B8320C11B03240B
:103D4000811B8324411B0329011B3961828021557A
:103D5000EDB71C45B1CF03C5A700894613576500D1
:103D6000630BD7028D46630ED70285466300D702E8
:103D7000130740063305E50203C7B700418B15CB97
:103D800083C7B700BD8B3355F54082801375F503AB
:103D90001307803EC5B709671375F503130707714D
:103DA000D1BF372709001375F5031307077CD9B76F
:103DB0000145828041114AC003A9850006C622C47C
:103DC00026C2630809048347B900AE8493F7070E3F
:103DD00095C303459900930520030D810505B3059F
:103DE000B50288442244B24092440249610541012F
:103DF0006F00F1372E85B13F2A8401CDBD2B83257D
:103E0000C900B307B54063FC87002E94B305A440F6
:103E1000E9F9B24022449244024941018280854539
:103E2000C9B7797126D2AA8403D5250022D42E845D
:103E300093053500C2054AD04ECE52CC06D6C1817C
:103E400085473289B6893A8A63FBB700EFF01009DB
:103E5000AA857D55A1C183D705002310F400035521
:103E6000040002C202C402C6EF80607D2AC2268519
:103E700022C4ED3B835705002316F100EF40A0124A
:103E80002307A100D2874E87CA8601464C002685AB
:103E9000EFF01FABB250225492540259F249624AD9
:103EA0004561828021711C183EC6B70780013EC85B
:103EB0001C183ECA3C08232E111A232C811A232ACF
:103EC000911A2328211B00453ED4AA8402CC02CE9D
:103ED00002D002D202D6593B83570500355923162A
:103EE000F102EF40400C2307A10209C483574400AC
:103EF00089EF21598320C11B0324811B4A85832418
:103F0000411B0329011B396182800355640052055E
:103F10005181EFF0A07C2A8969DD8347B40093F7D3
:103F2000070E89C713058401EF00712583574400EC
:103F3000231EF100834784002301F1025C400355F6
:103F40000900D98313F7070883471102231CA10036
:103F500093F7F707D98FA300F10283572900231D98
:103F6000F1005C40F18313F717008347F102F99BDE
:103F7000D98FA307F102EF80806C2AD23DD9834705
:103F800094006800139757008347B400FD8BD98FC6
:103F9000A305F4001C4803D647008C43EF10405E95
:103FA000A68717A70100130727AF740005464C101A
:103FB0002685EFF0FF982A8915DD8347B400A68592
:103FC000FD8BA305F400FD3335B7011126CA832408
:103FD00085FE22CC2A84268506CEEFF09FD7834724
:103FE00034FF93F7070E85C72AC62685EFF03FC931
:103FF00021C5834734FFB245FD8BA309F4FE8DCD67
:1040000022856244F240D24405616F0051160DC50D
:104010008327C4FF2685829705E1834734FF93F702
:10402000070E81C72285EF009115032584FE6244A7
:10403000F240D2440561BDB5F2406244D24405610C
:1040400082809C415D71A2C4CAC086C6A6C24EDEF3
:1040500052DC56DA5AD85ED662D466D26AD06ECEB8
:1040600003C7070089472A89935667002E84638611
:10407000F6040D46638CC6049307F0076300F7024D
:104080002E85EF10205CAA848149C16B130C490076
:10409000938741879C43984763E8E904B6402644E8
:1040A00096440649F259625AD25A425BB25B225C8C
:1040B000925C025DF24D6161828003D745008547C5
:1040C000E3FEE7FC2E85EF10005C75BF03D74500CB
:1040D000E3F6E7FC2E85EF10E056AA842285EF1068
:1040E0002058C204C98C4DB7DC470355A900139A68
:1040F00049003E9A93170501C187635DF00083571D
:104100000A006395A70263E574038327CA00034D81
:104110005A001DA0A1672167A98F1307F7EFE37469
:10412000F7FE63950900EFF05F9471FD85098DB787
:1041300083278A00034D4A00835DA9000357690065
:10414000216A138BC7003AC6814A33CA4D01631CEA
:104150005D019387C1879C43F1DBA286628681451E
:1041600026858297E1B7A1679387F7EF930C4BFF02
:1041700063F04703B2455A85EFF06FF619CD032778
:104180008B00104719CA10436380C4023107D5BFA2
:10419000EE856685EFF0DF9171FD93861A0093FA44
:1041A000F60F130B0B0265B7835644005C43E3EF35
:1041B000F6F622853AC6EF10C037A1679387D70479
:1041C0002A8A035D4400324763E897008347D90099
:1041D00093E707F8A306F9001C4766852286E28567
:1041E0008297C1670844FD17337AFA00529508C0D8
:1041F0002312A40125BF938741879843814715C3A4
:104200001447814763FFD500939745004C47BE95FF
:1042100019C903C7550081476375E600DC451606DA
:10422000B2973E85828003C745008147E37BE6FE67
:1042300016069C45F5B7011126CA4EC652C456C291
:1042400006CE22CC4AC85AC0AA892E8A8144938AB3
:10425000418783A70A00984763ECE400F240624478
:10426000D2444249B249224A924A024B05618280B5
:10427000DC471394440001493E9413BB1400834768
:104280004400634BF900014913BB140083475400F9
:10429000634FF900850475BF08449317590052878E
:1042A000DA860146A2853E9582990509C9BF484430
:1042B000931759005287DA860546A2853E95829962
:1042C0000509E9B7239C0186814517F5FFFF130512
:1042D000454C95B7938741879C4399C7814517F50E
:1042E000FFFF1305054B81BF8280797126D24AD02A
:1042F0004ECE2315E1002E89B284B6893A868146D6
:104300000147ED4522D406D62A84EF20913C2AC6E7
:1043100039C10356A100CE85EF704108CA852285B8
:10432000EF20914D058915C5228501462C002314E7
:104330009100EF20D1632A8409C5ED452800EF20C4
:10434000B1472285B250225492540259F249456134
:1043500082804944DDB76554EDB75C41FD175CC10F
:104360008280411106C6EF20E12D95473305F50205
:10437000B240814541010D818280411106C6EF2086
:10438000612C95473305F502B24041010D818280D1
:10439000035505006F203110035505003287AE86A6
:1043A000171600200356A69A9725002093850573BB
:1043B0002DBF411106C6EF50F17FB240410182800E
:1043C0004111972500209385657106C6EF20916104
:1043D000B2400145410182804111814517150020FD
:1043E0000355E59206C6EF20514BB2404101828051
:1043F0004111972500209385656F06C6EF20915ED9
:10440000B2400145410182804111814517150020CC
:104410000355E59506C6EF205148B2404101828020
:1044200041112E8506C6EF60B069B24041016F6050
:1044300090726F60B07A5C49E1175CC95CC58357C4
:104440002501A1072319F50083570501A1072318AA
:10445000F5008280F1473305F502938701889C437C
:104460003E9582808D47631BF60803D7460085473B
:1044700063F6E7084111368522C44AC006C626C243
:1044800036842E89EF10001C25C5835744009314F1
:104490000501C18063EE97042285EF10A01AFD1478
:1044A000231294009307A0026302F5029307B0025F
:1044B0006308F50293079002631CF50222852244EB
:1044C000B2409244024941016FD0104822852244F3
:1044D000B2409244CA850249014641016F80100CE6
:1044E00022852244B2409244024941016F00105596
:1044F000B2402244924402494101828082809386E4
:1045000041889C42014599CB9843D44223A2E1883B
:104510006394D70023A4E1881385C7FE82804111EC
:1045200022C406C67144F12E330585029145EF7011
:10453000D05511E56555B24022444101828097274C
:10454000002023A3A75C752E330585029145EF70EB
:10455000D0536DD123A0A1886D2697270020239FDB
:10456000A758452697270020239BA7589797010017
:104570009387C756172700202326F7589707000070
:104580009387A7EB17270020232CF756014565B723
:10459000AA8517250020130565566F10C01E41110E
:1045A00006C6FD37EF10A01F938741889C4391CF2B
:1045B0001387C7FE19CBB24083D5C7FF172500204C
:1045C0001305C55441016F00813AB2404101828018
:1045D000411106C622C426C24AC0153721C18347ED
:1045E00085002A8493F7070489EB2244B240924461
:1045F00002490355E50041015DB78347C5009304B7
:104600004501138941888DE3832709005CC923A2F2
:1046100091888327490099E323A49188B2402244DA
:104620009244024941018280FD172306F50061058D
:10463000EF6070608307840063C1070683478400CE
:1046400093E707F82304F400EF10115C935705017A
:1046500093F7F70FAA9713D587013E954205A9470F
:1046600041813375F5028347840093F707FCC98FB6
:104670002304F4008347D4003E951C402318A40073
:1046800089CF984319CB8347C400504081458507A3
:104690003305F502420541810297832709005CC872
:1046A00023A291888327490099E323A49188834713
:1046B000C400ADD7835504012244B240924402495C
:1046C000172500201305854441016F00412A9727D3
:1046D00000209387A7529C47411122C4858306C6B8
:1046E00026C2858B014481EFAE84B2853A86EF10F5
:1046F000C0102A8409C5EF106007829408CC228577
:10470000B2402244924441018280797106D622D47B
:104710004AD04ECE2E8932C626D2AA89AD2432473F
:1047200013060502CA86970500009385E5D2172572
:1047300000201305A53C613F2A8429CD9304C500C0
:1047400035261946AA852685EF009063854526857E
:10475000EF00506017950100130505374E9583450E
:1047600005002685EF00B0635C4831468145A1070E
:104770005CC85CC483572401E1172319F4008357F4
:104780000401E1172318F4001C4C3E85EFC07FC6DE
:10479000A30425012285B250225492540259F249B1
:1047A00045618280011106CE22CC26CA2EC6AA847B
:1047B00032C4EF00107E004DB2452246834784008C
:1047C0000CC050C093F7F70393E707042304F400E9
:1047D000231804002685EF00707983479400A946CA
:1047E0002317A40013D7370005073307D7029D8B83
:1047F00085072306F400A306E40083C70401D84814
:104800008507230FF7FE138741885843232A0400A6
:104810009307440105EB23A4F18823A2F188172410
:1048200000201304A42E2285EF00E1091C44858B8F
:104830005D8D09ED22856244F240D24481450561D7
:104840006F00E1121CC323A4F188D1BFF24062447F
:10485000D244056182804111970500009385C5C04F
:10486000014506C6EFF0DFBBB24001454101828041
:104870006FF03FBC8347C500B1EB411122C42A84CD
:104880000355E50006C6EFF0BFD00DCD8347840089
:1048900093F7F7FB2304F4001C4091C7DC4381C766
:1048A0004C4001458297EFF09FC517250020130566
:1048B000E525EF00C10C0355E4002244B24041015C
:1048C0006FF0FFCDB2402244410182808280938705
:1048D0004188970500009385E5CF17250020130533
:1048E000E52223A0070023A207006FF0D07B1C4D18
:1048F00081CB03A3470063050300834507000283C0
:104900008280938741899C4303C5070082809387F7
:1049100041899C4303C517008280938741899C434A
:1049200003C527008280938741899C4303C54700C4
:104930008280938741899C4303C537008280938797
:1049400041899C4303C557008280938741899C43DA
:1049500003C567008280938741899C4303C5770024
:104960008280938741899C4303C587008280938717
:1049700041899C4303C597008280938741899C436A
:1049800003C5A7008280938741899C4303C5B70074
:1049900011E11D458280938741899C4303C5C7006F
:1049A0008280938741899C4303C5D7008280938787
:1049B00041899C4303C5E7008280938741899C43DA
:1049C00003D507018280938741899C4303C5270152
:1049D0008280938741899C4303D5470182809387D6
:1049E00041899C4303D567018280938741899C4319
:1049F00003D587018280938741899C4303C5A70122
:104A00008280938741899C4303C5B7018280938745
:104A100041899C4303C5C7018280938741899C4398
:104A200003C5D7018280938741899C438857828040
:104A3000938741899C4303D5C7028280938741892C
:104A40009C4303D5E70219E11305800C828093870C
:104A500041899C4303C507038280938741899C4316
:104A6000C85B82809387C18888438280938701894D
:104A70008843828019E17D558280F5DE984265DFAA
:104A8000FDD917270020130767171847AA87715504
:104A9000058B6319071E03C507001547E37DA7FCB7
:104AA00003C737001305F0057D171377F70FE3648D
:104AB000E5FC03C7570061D303C767004DDF03C799
:104AC0007700494579171377F70FE366E5FA03C7CF
:104AD000A70011457D171377F70FE36EE5F803C7BD
:104AE00097000D457D171377F70FE366E5F803C7C9
:104AF000B70001CB65171377F70F1305600DE36C53
:104B0000E5F603C7C700794579171377F70FE36414
:104B1000E5F603C5D7000D477D151375F50FE36C5A
:104B2000A7F403D507011308401751154205418129
:104B3000E363A8F403C5E7007D151375F50FE36C77
:104B4000A7F203C527017D151375F50FE365A7F2DD
:104B500003C58700454875151375F50FE36DA8F07B
:104B600003D5670105681308B8E06D15420541815A
:104B7000E363A8F003D547016D1542054181E36C5D
:104B8000A8EE03D58701791542054181E365A7EEBB
:104B900003C5A7017D151375F50FE36EA7EC03C7D9
:104BA000B7011D457D171377F70FE366E5EC03C7E3
:104BB000C7010D457D171377F70FE36EE5EA03C7CD
:104BC000D701714579171377F70FE366E5EA03D745
:104BD000E7011305E00F7D1742074183E36DE5E828
:104BE00003C70702494579171377F70FE365E5E82F
:104BF000D85301CB37C534005917130555BFE36CA3
:104C0000E5E6885737C73400130757BF5915E364E3
:104C1000A7E603C70703E30007E623AAF18803C753
:104C2000050123A8C1888547E3F7E7E403D72501F9
:104C3000DC49B3F7E702E39007E483C71501E38C8F
:104C400007E24111368506C623A6B18822C4EF705B
:104C5000406DEFE0901D2A84EF90C0372A94EFD08A
:104C6000300E2A94EF7050082A94EFF05F8B2A944C
:104C7000EF30C0272A94EF50F0612295B2402244D1
:104C800041018280828097270020938727F79C47E5
:104C9000858B95CB011122CC2A842E8506CE36C673
:104CA00032C42EC2EF70B01911C922856244B246D7
:104CB00022469245F24005616FD0C051F2406244F5
:104CC0007D55056182807D558280011106CEA30746
:104CD000A100EF80F0279305F100170500001305F0
:104CE00045C1EFF04FD5F2400145056182807971F1
:104CF00022D417240020130464F00328840026D251
:104D0000AE849365180006D64AD04ECE52CC56CA11
:104D10009728002023A8B8EE13781800631E08080F
:104D20003E8993878192BA899843B285BE8A2A8642
:104D3000014A01CF2AC2014536C62EC4EFD0D02683
:104D4000B246A2451246133A15002685EF80A03CD4
:104D5000AA841DC51C44F99B172700202324F7EAC9
:104D600083A70A0081C763030A008297B2502254C6
:104D7000268502599254F249624AD24A456182809C
:104D80004E859727002023AD07E6EFE03FCA414656
:104D9000CA85172500201305E5EFEF602160EFB00D
:104DA000E0410325040BEFB060430145EFB08049BB
:104DB0000545EFF09FF15DBFF9544DBF97270020E7
:104DC0009387C7E39C47858BD5C3411117250020E6
:104DD000130585EA06C69727002023A107E2972737
:104DE000002023AF07E09727002023AD07E0EFF076
:104DF0001039EF40E060EFF0F00DEFF0B012938764
:104E0000018D9C4381C70545EF70802A9387C18B34
:104E10009C4389C741657D15EF50F068EFD0502164
:104E2000EFB0203A972700209387C7EE9C43139753
:104E3000170163540700EFD020139727002023ABFE
:104E400007E49727002023A907E49727002023A73A
:104E500007E49727002023A507E4EFF07FA1E92BC3
:104E6000EFF04FC6B24041016FD0404182803971AE
:104E700022DC2A8426DA930414024ED62E85B289C7
:104E8000A68521464AD806DE36C63A89EF60A14E8D
:104E90001DE5B24638082686CE8513059404EF40FA
:104EA000702A21462C084A85EF60E14C1335150025
:104EB000F2506254D2544259B25921618280014564
:104EC000C5BF93054506172500201305E5C56FF0FE
:104ED000102A011106CE2EC6EFF02FCAB245F240BD
:104EE00088C105618280411122C426C24AC0AA84B9
:104EF0002E8406C6EF70407683C7E401AA85138925
:104F0000940899E3138904032285512D21469305C2
:104F100019022285B52597270020938727CE8C4339
:104F20002285EF00606E22852244B24002499385BB
:104F30008402924421464101A1A5597186D6A2D48A
:104F4000A6D2CAD0CECED2CCD6CADAC8DEC6EFD070
:104F5000A01E9305400645E9EF70806D63020512BF
:104F600083C7818913B71700238CE188014489CF57
:104F7000C16417290020130969C89309400EFD1464
:104F8000EFF0FF9E6348A408EFF02FBF4169B729F7
:104F90000900096AFD7A2A8B81447D199389F97B7E
:104FA000130A0A71938A8AC7EFF07F9C63D5A40421
:104FB0001304400EB387840217270020130707C489
:104FC0000324070B3E948357C401638627091840C6
:104FD0003307EB4063EAE900834744008507B38762
:104FE0004703D6976369F706014681450945EFF007
:104FF000CFF1AA8B29E1EF30201E8547631FF5040E
:10500000896593850571172500201305E5B1EFF03B
:105010001016A1A8B30734030327090BBA9703D7C7
:10502000C7016308970003C75700A38207002382C4
:10503000E7000504B1B79305C5002285EFF0BFEA8C
:105040005E85228697950100938545A8EFF08FF540
:105050005E85EF00C074850481BF97270020938789
:10506000E7B99C478D83858BC1FFB6502654965473
:105070000659F649664AD64A464BB64B6561828068
:1050800001468545094502D002D202D402D6EFF08E
:10509000CFE7AA8479D9EFD0A0091389C4002A8464
:1050A00081454A85ED290C4041464A85D12983290D
:1050B0004400638709084E8502D802DA02DC02DE6A
:1050C000EF60214E2ACE141005462C0808184ECC4D
:1050D000EF40407D1375F50F25E58355840093E57A
:1050E00025004A85E52911460C104A8551290146BB
:1050F000979501009385059E2685EFF0AFEA2685FA
:10510000792D5C40BDD3014685450D45EFF0EFDFBD
:10511000AA8421DD48401389C400EF6081482AC673
:105120004A8529293246636AC5004C404A85892947
:10513000014681452685EFF0EFE626858D2535B7BA
:105140008355840079BF97270020938727AB9C471E
:1051500009CD93E78700172700202325F7AA1725F5
:1051600000201305659C6FF0A07F4111DD9B06C6F2
:10517000172700202328F7A8EF30000609E9B240DE
:10518000172500201305459A41016FF0407FB2407A
:105190004101828079714AD0416926D24ECE52CCEB
:1051A00056CA5AC85EC662C466C206D622D4AA8946
:1051B0002E8AB28A368BBA8B8144172C0020130CAE
:1051C000ECA3930C400E7D19EFF06FFA63C4A400BA
:1051D00001442DA03384940383270C0B3E94835702
:1051E000C401638B27055A87D6865286CE85130560
:1051F0000403EFF0DFC70DC123800B002285B250FE
:10520000225492540259F249624AD24A424BB24B5A
:10521000224C924C456182808347F40191CF5A879A
:10522000D6865286CE8513059408EFF05FC409C573
:1052300085472380FB00D9B7850479B7835745009C
:10524000638A0718397122DC06DE26DA4AD84ED680
:1052500052D456D25AD02A84F52611CD85476301FF
:10526000F506F2506254D2544259B259225A925A17
:10527000025B21618280EFC0306C65F5835744008A
:105280004947ED9BE39FE7FCC1452285492CAA8451
:105290002285D52E0357440002CE91472A896317F1
:1052A000F700228511293C082ACC3ECEEFC0506879
:1052B0005C55C5DB74084A86A6850545829755B7B7
:1052C00003574400D147E3FEE7F8032A0400C1690D
:1052D0000149972A0020938A6A92130B400EFD1908
:1052E000EFF0EFE86344A90C2285032A0400992E0D
:1052F000A1452A8922852524AA842285752E144059
:105300002A86AA8978082685CA85EFF0BFE8AA848C
:1053100029D903C7F40189476315F7008347C10101
:10532000A9D35546D28513856400EF602107014556
:10533000EF70E03001C583D7C401B1EB972700209F
:105340009387C78B9C4793551900858913D73700DE
:10535000058B11CB8983858B6397B70001452EC6DA
:10536000EFF07FDEB2454E85EF7000350346C10198
:105370002A84937519002685EF80E03631C9268589
:10538000EF70C02F268511C00145EF70605EEF20E1
:10539000B0648547E317F5EC83C754001307F00F9B
:1053A000E381E7EC8507A382F40065BDB3046903DC
:1053B00083A70A0BBE9483D7C4016389370155467E
:1053C000D28513856400EF50117B71D1050909BFA7
:1053D0005DDC5DBF8280011106CE22CC26CA4AC8A0
:1053E0004EC6EF70E02411CDC1640144172900209E
:1053F0001309C9809309400EFD14EFF04FD7634E97
:10540000A4006244F240D2444249B2491715002038
:105410001305857105616FF0A054330534038327AC
:10542000090B3E958357C50163869700231205003B
:10543000EF70C0240504D1B7971700209387077C2D
:105440009C478D83858B99E7171500201305C56D43
:105450006FF0E052828097050000938545AE1715E6
:1054600000201305656C6FF0004483C7F5FF2E859F
:105470008507A38FF5FE828083C7F5FFFD1793F79D
:10548000F70FA38FF5FE89E71385F5FF6F00915A9B
:1054900082808841411106C6050542054181EF0021
:1054A000315C09C585472300F5000505B24041017F
:1054B00082801C41035745008D8FBA951CC1231271
:1054C000B5003E85828093D78500A2051441DD8D0D
:1054D000835745001387E6FF18C189072312F5009B
:1054E00013D685004111238FB6FEA38FC6FE41015E
:1054F000828018419307F7FF1CC183574500850739
:105500002312F500A30FB7FE8280835745008D8FCD
:105510002312F5001C41BE950CC12E858280AA87FE
:1055200003D7470008410D8FAA952392E7008CC34B
:105530008280184108453305A74082808357450083
:10554000035765001D8F1C4108453385A74033056F
:10555000A7408280011122CC2EC606CE2A84EFF00D
:10556000FFFDB2456373B50001A0835744000840B6
:10557000F240BE952312B40062443E9505618280DC
:10558000011122CC2E84B28506CE32C6EFF09FFCEC
:10559000A28562443246F24005616F50316041118C
:1055A00022C42E84854506C6EFF0DFFA230085006D
:1055B000B24022444101828001112317B100894584
:1055C00006CEEFF03FF98347E1002300F500834763
:1055D000F100A300F500F2400561828093D78500B9
:1055E000A2050111DD8D2317B100894506CEEFF02C
:1055F0007FF68347E1002300F5008347F100A30015
:10560000F500F240056182801397850193D78501EB
:10561000C166938606F0D98F13D78500758FD98F11
:10562000A2053707FF00F98D0111DD8D2EC69145CA
:1056300006CEEFF03FF26C001146EF503156F240CB
:10564000056182801C41411106C622C403C40700C3
:105650008545EFF09FEB2285B240224441018280D4
:105660001C41011106CE03C7070083C717008945F7
:105670002307E100A307F100EFF03FE9F2400355F3
:10568000E100056182801C41011106CE03C70700BD
:1056900083C7170089452307E100A307F100EFF056
:1056A000DFE68357E100F24013D58700A2075D8D46
:1056B00042054181056182800C41011122CC1146D5
:1056C0002A84680006CEEF50714D22859145EFF097
:1056D000DFE3B247C166938606F01397870113D5BF
:1056E0008701598D13D78700758FF2406244598D19
:1056F000A2073707FF00F98F5D8D056182801C4589
:10570000BE950CC18280AE87944391E6584101EF6B
:105710000CC15CC1828003C7570013671700A382C6
:10572000E700B687D5B70CC3EDB7AA87084119CDF6
:105730001841D44398C36313D500D8C32A870346BE
:1057400057009376160081E6232007008280944359
:1057500081CA8C4203A847008CC363930601CCC363
:10576000799A14C3A302C7003687D1BF1C45DC4712
:105770001D8DB777DBB6938777DB09853305F50297
:10578000420541818280F147B385F50248452E9557
:1057900082808347450085072302F50082804111FE
:1057A00022C406C62A8409E4B24022444101828010
:1057B00083474400F5DBFD1793F7F70F2302F4004E
:1057C000E5F71C4403D7270005072391E700DC43D6
:1057D00099C3228582974C4889CD83475400898B91
:1057E00099E71C4422859C479C439C478297232A27
:1057F00004000040232004007DB7835725000111D9
:1058000006CE22CC26CA2EC681EB01442285F24068
:105810006244D24405618280035705008147F14606
:10582000E305F7FEB385D702404585072E948345EF
:10583000440008C4F5F5B247AA8481E7232A04008E
:1058400009A81C456C0022859C439C43829748C84C
:105850004DDD85472312F400B247232004002318AE
:1058600004002319F4005C485CC483D72400FD17AE
:105870002391F40061BF9387C1899C437D5799C7E9
:10588000D447715781E688C7CCC701473A858280E3
:105890009387C189884323260500232405004105F9
:1058A0006FF0E00D011122CC1384C1891C4006CE9B
:1058B00095C39C472300B5002AC65CC1EFF05FFD8D
:1058C0001C4003A347006307030062443245F240D3
:1058D00005610283F240624405618280034745000E
:1058E00015EB584DAA877D5505CB411106C61CC343
:1058F000DC4723AEE188F156130507012390D7005A
:10590000970500009385A501EFE0F079B2400145CD
:10591000410182807D558280828079716146814516
:10592000280006D6EFB0FFAC9387C1899C432800BE
:105930009305F00FDC473EC6EFF0DFF6B25045614D
:1059400082809387C1898843938741818C43410535
:105950006FF0E0011D71A6CABE841C183ECCB707CB
:105960000E003ECE1C183ED0F5572317010223131C
:10597000F102FD57A2CCCAC8CEC6D2C486CE23152A
:105980000102231601022312A1022314B1022307EC
:10599000F102328AB6893A892164631A080613042F
:1059A000F403A1659385E5032285EFF0DFEC21E99F
:1059B000A2852808EFE00FA4D2852808EFF0DFBF0A
:1059C000CE852808EFF05FBF41677D176386E4004E
:1059D000A6852808EFF05FBECA852808EFF0DFBD76
:1059E0009387C1899C4301478146884330084C1006
:1059F000EFE02FC305C12AC6EFF09FE93245F6401C
:105A00006644D6444649B649264A25618280130435
:105A1000D40341BFEFF0FFF2DDB75971A6D2BE84C7
:105A20005C183ECEB7071C003ED05C183ED2231453
:105A3000B102F557A165231901022315F102FD05F5
:105A4000FD57A2D4CAD0CECED2CCD6CA86D6AA8A88
:105A5000368ABA8942894684231701022318010233
:105A60002316C1022309F102EFF0FFE031E9D685E8
:105A70006808EFE02F98D2856808EFF0FFB3B1C84F
:105A80004146A6856808EFF0BFAFC167FD17630602
:105A9000F400A2856808EFF03FB2CA856808EFF00D
:105AA000BFB19387C1899C430147814688437008F1
:105AB0002C10EFE00FB71DC12AC6EFF07FDD324595
:105AC000B650265496540659F649664AD64A656138
:105AD0008280CE856808EFF03FAE45BFEFF07FE6ED
