:040000006F10003548
:1000040000000000000000006F0080086F00E02284
:1000140000000000000000000000000000000000DC
:1000240000000000000000000000000000000000CC
:100034006F004006000000006F00E00500000000B3
:100044006F0080056F0060056F0040056F0020059C
:100054006F0000056F00E0046F00C00400000000A2
:100064006F0060046F0040046F0020046F00000400
:100074006F0060236F00C003000000006F00600386
:100084006F0040036F0020036F0000036F00E00265
:1000940001A001A001A001A001A001A001A001A054
:1000A40001A001A001A001A001A001A001A001A044
:1000B40001A001A001A001A001A001A0B717004068
:1000C400130770052380E704130780FA2380E704ED
:1000D4002396A70223800704371700408347270588
:1000E400898BEDDF835707053717004083472705C2
:1000F400898BEDFF3717004083472705898BEDDF98
:10010400035507058280B7170040930670052380C6
:10011400D704130780FA2380E70403C6B7041376D1
:10012400F60DA385C70423800704137605022DC6A4
:1001340003C6A700118A0DE22380D7042380E704B5
:1001440003C7A700136747002385E7009307004B05
:1001540001000100FD17EDFFB7170040930670057D
:100164002380D704130780FA2380E7047D8923942E
:10017400A70001000100010001002380070423807F
:10018400D7042380E7049306100537270040A30310
:10019400D780238007048280137605046DDE03C6AE
:1001A400A700418A0DE22380D7042380E70403C714
:1001B400A700136707012385E7009307007D01006B
:1001C4000100FD17EDFFB71700409306700523806B
:1001D400D704130780FA7D892380E7041365050497
:1001E4002394A700010001000100010023800704FB
:1001F4002380D7042380E704930630053727004083
:1002040079B74111814601468145114506C6AD22A3
:10021400B7170040130770052380E704130780FA1B
:100224002380E70403C76704136717002383E704E5
:1002340023800704B2404101828081460146814502
:1002440011451D2AB7170040130770052380E704E2
:10025400130780FA2380E7047D572396E70203C738
:100264006704136717002383E7042380070401A0AE
:10027400BD473305F50201007D1575FD82804111EE
:1002840022C426C206C6AA84014463179400B2405D
:10029400224492444101828005041305803E4204B5
:1002A400C13F4180DDB7B71700401307000323881F
:1002B400E702854723A8F1847300203023030480D8
:1002C40015472303E48001002302A480828083076E
:1002D4006480E3CE07FE2303048082808307648066
:1002E400E3CE07FE03454480828083076480E3CE27
:1002F40007FE2302A4808280411126C44AC24EC054
:1003040006C61377F50BAD47AA892E899544630673
:10031400F70019456537653F8D444E854537FD59CE
:10032400FD1463983401B240A24412498249410148
:100334008280135509011375F50F453F2209CDB786
:10034400011126CC06CEB704080051371545BD3738
:10035400713769372AC6A53F32459377150089EB73
:10036400136515001375F50FF240E24405618280B0
:10037400FD14E9FC0145CDBF397126DC4ADA4ED8BB
:1003840052D656D45AD25ED006DE62CE66CCB7E7D9
:1003940000E07D5783AA070022C603AA470023A0D2
:1003A400E71823A2E718B717004013077005238046
:1003B400E704130780FA2380E70483C74704930BF9
:1003C40075FFB684E20793FBFB0F8546AA892E8B43
:1003D400328937240040E187015763FA76016308C4
:1003E400D5008946130700026313D5000157D98F3E
:1003F40093F7F70FB71C00402382FC041147230333
:10040400E4801305F00F5D3D094CD13563697C111F
:10041400B70707003E9B378707007955637EEB02D9
:10042400B3079B00636AF702A9476399F90689E455
:100434008144713D26850DA0DA850945753D050980
:100444000345F9FFFD14050B4D3581C49377FB0F6C
:10045400FDF7FD3569FD7D55B7170040130770059D
:100464002380E704130780FA2380E70403C74704C3
:10047400418B2382E704F250B7E700E023A0571131
:1004840023A24711E25432445259C259325AA25A51
:10049400125B825B724CE24C21618280A5476395BA
:1004A400F90685691309F00FB3069900B3742B019B
:1004B400B6941349F9FFB3749900856B33796901D4
:1004C400416B9387F9FFB3F7270199E363FC340188
:1004D40093D94900C147E3E637FF99BF0569C1696C
:1004E4007D19D9B71305800D6388690113050002CE
:1004F4006384790113051008CA85FD3B913521DD1C
:100504004E99B3843441D9B7DA852D45F533CA946D
:10051400E30099F20509D933A30FA9FED5BF938748
:10052400F9FF93F7F70F636CFC0803C75C04B70784
:1005340008001377070219E3B78707007955E37DAD
:10054400FBF033079B00E3E9E7F089476390F90484
:100554008980D549E38E04ECDA850945713B11099C
:100564000327C9FF91472320E48003076480E34EF7
:1005740007FE23033481FD17EDFBFD14110B81C429
:100584009377FB0FE9FF6D3B71F5F1B58547E38781
:10059400F9F4DA852D458D339389F4FFE38A04E871
:1005A400353B93F7390091EB832604800327090038
:1005B40093074900E39FE6E63E89CE84F1BFB54741
:1005C4006396F9001305900BD5399DB5B147130512
:1005D400B00AE38BF9FE9947639EF902DA852D454B
:1005E400213B81448D4BA149D539639674018327FE
:1005F40004802320F9008504E39834FF83270480D2
:1006040013172B01635507002312F90015B5232294
:10061400F90039BD9D476399F90281451305B0047A
:10062400E139BD442320090023220900FD597D310D
:1006340093F77400CA9703C70700FD14398D23800C
:10064400A700E39634FFEDB3A1476392F904CD39D3
:100654008144630D0B008D479304C0036308FB00C2
:100664009304000563048B01930440041375C507C8
:10067400E30095DC19459931993905458131268581
:10068400AD3109459D316D39E31405DAE9B391477C
:100694006399F9001305600615311539130590099E
:1006A40025B7E38709D8F15469B37D1662066186DC
:1006B40093178601E18763D407000145828093176D
:1006C40026003307F500AE9718439C4363E7E70021
:1006D4007D16E37FF7FC7D55828005458280814746
:1006E4001397870161876343B700828013972700BC
:1006F4002A97232007008507E5B78147014793968A
:100704008701E18663C5B60013351700828093968E
:100714002700AA9694428507558FD5B793D755409D
:100724008A07AA979C4305453315B5007D8D8280C1
:10073400FD15E2052A87E18593968501E18693F705
:10074400F50F63C80600FD1593962500BA96D442AA
:10075400E5D68507E207E187014591CF1395270088
:100764002A978326C7FF014781EA1385F7FF1605F9
:100774003A9542054185828085820507F5B7814710
:100784001397870161876343C7008280139727000B
:10079400B386E50094422A97850714C3D5B77D161E
:1007A40062066186014793178601E18763D50700D6
:1007B40013351700828093172600B306F500AE9711
:1007C40094429C437D16B58F5D8FF1BF8A05AA952F
:1007D40001476363B500828083A6C5FFF11593D7F3
:1007E4001600D98F9CC11397F601E5B72A830148F7
:1007F400014701456343D7008280B387050183A87D
:100804000700B30706019C43C697AA976384F800C0
:1008140033B517010507B3080301620723A0F800E5
:1008240061871108C1BF2A8301478147014563C31A
:10083400D70082803388E50083280800330EE60061
:10084400032E0E003388A8403308C841638408018E
:1008540033B508018507B308E300E20723A00801C4
:10086400E1871107E9B7797126D2B286B2842E8660
:10087400AA850A8506D622D47D372A84A6850A85C8
:10088400AD3D33348000060413351500018DB2509C
:100894002254925445618280411122C626C40143E8
:1008A400014F81471314830161846347D402939FEA
:1008B4001600FD1F854E9382F6FFF15333875E00C9
:1008C400620761876348F70732448E06AA9623AE0F
:1008D400F6FEA24441018280131E2300B302C60126
:1008E400814E814F13972E002E9703A802001843C0
:1008F400B3030703333707039E97B3B8770033086E
:10090400E701469885486367E8006314070163E3D9
:1009140077008148850E13978E016187C69F428FA9
:10092400F112E351E4FC2A9E2320FE000503C28752
:100934007E8F8DBF13948E01FA88618493142700EF
:10094400014F1318840113588841634AD8000A07D9
:100954002A97850E1CC393FEFE0FC68785B73308FE
:100964007402131324002E93032303002698329851
:1009740003280800330E680233386802F29733B351
:10098400C701C2989A98054363E7080163141801E4
:1009940063E3C70101431A9F050465B719CDB7176F
:1009A4000040130770052380E704130780FA2380AF
:1009B400E7042396A70223800704828019C1814794
:1009C40099E982803387F500834607003307F500F1
:1009D40085072300D700E397C7FEE5B719C1FD5784
:1009E40081E98280910503A7C5FF1105232EE5FE49
:1009F4007D16E319F6FEF5B7797122D41734000099
:100A04001304C4C71C4006D626D24AD04ECE91C782
:100A140082979737000023A307C65C4089CB03D590
:100A24008194AD3F5C40829703D5A194853F1C40DF
:100A3400639C07189737000083C757C8858B95C7F1
:100A440097370000A38C07C617370000034737C742
:100A5400914763FCE70051219737000083C737C6ED
:100A6400F9178A07A2979C4382979737000083C798
:100A7400A7C9918B89C7973001E0E780606D1C445A
:100A840091C3829793874194984317360000034695
:100A9400F6BC3E8997340000938444BC9737000029
:100AA40083C7C7BB93961700BA9683D606006383A1
:100AB40006109737000083C767BA63FBC70686072B
:100AC4003E97835507002310070003D581942EC653
:100AD400F135938781959C4317350000034505B88C
:100AE40013172500BA979C43B2458297AA8903D568
:100AF400A1946D359737000083C747B61397170045
:100B040083270900BA9703D70700B3E9E9002390C4
:100B1400370183C70400850793F7F70F17370000E1
:100B2400230EF7B217370000034757B363E6E70015
:100B340097370000238407B21C40D9E793870195B7
:100B440098433E8451C39737000083C797B791CB2E
:100B54009737000083C7B7B689E7973001E0E7808D
:100B6400C0281C4082972A8425C19C48AA9717371D
:100B74000000232DF7AE938741959C43B1C703D55D
:100B84008194293D2285972001E0E78040A497378E
:100B940000009387E7A8DC5389C7972001E0E7802A
:100BA40020812254B25092540259F24903D5A1949F
:100BB4004561EDB3850793F7F70F97360000238F50
:100BC400F6A8E3EDC7ECF5B5B2502254925402599D
:100BD400F249456182809167B7C6004093873730F8
:100BE40023A6F6200F10000097370000938707A76D
:100BF400884F9387C1999C43316713073730F0536B
:100C0400B7071000FD17918F99833A0523A6E620B4
:100C14005D8D82804111B7170040985F3AC6945F9A
:100C24003247E39CE6FE324541018280411106C60B
:100C3400D5379736000083C6E69F858AB1C69307E9
:100C440030333307F502B337F5023983CA07D98F36
:100C540017370000130787A0584B01456303F702B9
:100C64003385E740636BF70037653D0889C63785F0
:100C74006F0813050590198D3E9517370000232939
:100C8400F79EB24041018280E5473307F502B3374E
:100C9400F5022583DE0765BF5D7122DE1384C198EA
:100CA4003AD218403ED04ACA1C5F86C696C499837D
:100CB4009AC29EC026DC2ADA2ED832D636D442CE48
:100CC40046CC72C876C67AC47EC2858B1389819855
:100CD400C1C31C5F973400009384049E93F7F7F913
:100CE4001CDF9737000083C7279D93F707048DC344
:100CF4009387C1959C4382979737000023A6A79CAE
:100D040083C7040093F7F70B173700002306F79AFD
:100D1400854717370000A303F79A83C7440093F766
:100D2400070481EF9387C1999C43D844B8D39307B0
:100D340000FC173700002303F7988387640063D906
:100D44000700832709009C43173700002309F796FF
:100D540018401C5F8583858BC9CBF5571CDF0100C8
:100D64000100010001000100010001000100010077
:100D74000100010001000100010001000100010067
:100D84000100010001000100010001000100010057
:100D94000100010001000100010001000100010047
:100DA4000100010001000100010001000100010037
:100DB4000100010001000100010001000100010027
:100DC4000100010001000100010001000100010017
:100DD40001000100010001000100010001009387EE
:100DE400C1999C4313075004B8CB18401C5F9183EE
:100DF400858B89CFBD571CDF9387C1999C4323A85A
:100E04000704854717370000230AF78A8327090058
:100E1400D8430583058B19C7D843759BD8C3D843DA
:100E2400799BD8C37254B640A64216438643E25413
:100E34005255C2553256A256125782577248E2484A
:100E44005249424EB24E224F924F6161730020309C
:100E54009387C1999443173700001307E785BC5261
:100E640089CF83472700858B89EB83473700858BA0
:100E7400FDD7973700002383078482809387819965
:100E84009C4399CB944BD04B9842518F98C2944336
:100E94009C479842D98F9CC29387C1999C4337C77A
:100EA40000401306C003A8CB930620039735000027
:100EB4009385858083278720C18393F7F70363692C
:100EC400F60083278720C18393F7F70363E6F600D0
:100ED40083C74500858BF9DF82809387C19994434A
:100EE400172700001307477DBC5289CB83470700AF
:100EF400858B91CB972700002382077C97270000DE
:100F0400A38E077A828083471700858BF1DFDDB7D4
:100F1400938781999C4399CB944BD04B9842518FA2
:100F240098C294439C479842D98F9CC29387C19995
:100F3400944337C70040C145A8CA65468327872024
:100F4400C18393F7F70363FBF50083278720C183ED
:100F540093F7F7036364F600BC52EDF382801387C2
:100F6400C1981843AA87185F1583058B25EF03459D
:100F7400150015051377C51F19C6B386E70083C688
:100F840026002300D60095C59726000083C6267345
:100F940093F606040945A1CAB386E70083C6360062
:100FA400054693F5F6066390C504E206E18663CC34
:100FB40006023385E7008347150003470500A207AF
:100FC40093F70770D98F13970701418393760740EE
:100FD40099C613670780239AE19801458280239A72
:100FE400F198E5BF05458280011136C89386C19901
:100FF4002ECC8C423AC63EC498452ACE32CA9317A8
:10100400070142C2C1831378172036853E8697268E
:1010140000009386666A630408041377072061CF8F
:1010240003C7260013671700172800002307E86882
:1010340013070019B8D1130700F897250000238F70
:10104400E5661387C1980C4337080010D855719B87
:1010540013672700D8D598413367070198C11377E0
:10106400261005C31376061045CA03C70600136786
:101074001700172600002301E66417270000231138
:10108400076483C6460093C7F7FFC207E206E186FA
:10109400C183184163D106029396170163D70608EA
:1010A40030538D4663E9C6008546172600002307A2
:1010B400D6603453FDFE97260000938666568386D9
:1010C400460163DD060093960701C18663D50606D3
:1010D4007053894663E4C6007453FDFE1447724599
:1010E400E245F58F1CC75246C2463247A247124812
:1010F40005617300203003C7160013671700972596
:101104000000A38BE55A172700002309075A172765
:1011140000002317075AA1B703C736001367170047
:1011240017260000A30BE65889BF85461726000042
:101134002306D65849B7544713960601635106024D
:10114400B7061000FD1674D3972600009386065147
:10115400944E850617260000232ED65041B7A1666B
:10116400D58FADBF172700001307C7568346B701B5
:101174009727000083C75759B69793F7F70FFD4693
:1011840063EAF6044C4B97260000A385F654972790
:10119400000083C7375405473317F700972600002C
:1011A400A384F6566D8F1DEF9726000083C616564E
:1011B400B3F6D70213050002814733D6F500058A3A
:1011C40013F8F70F09CE6399E60097270000A3836D
:1011D4000751828081177DB705071377F70F8507BD
:1011E400E39DA7FC82809387419A9843B7570200F6
:1011F4009387079F832607091396560063580600B2
:10120400832607091396660063440600FD17FDF361
:10121400828051C9AA870145C9C98D07C207C18304
:10122400F19BC207C18313074003636BF702138763
:10123400819B08431387019B14436396A6021727D7
:1012440000001307E73D185B014525C34111C207A0
:1012540006C60545DD8D0297B240014541018280F5
:101264001387419BF9B70357650005EF0357450002
:101274006369F702B306F74021466370D602104152
:10128400938687001D8FAA96611790C22392E60069
:101294002393060014C12312F5002313B50021057E
:1012A4008280084159BF01458280828001CD9387A5
:1012B400819B03A807009387019B8C430147C28746
:1012C40063E3B70082809443636FF50663EDA6067B
:1012D40013868700E368C5FE03D56700216605060B
:1012E4006317C50003C671970506A38BC1962393A4
:1012F4000700638407031386419B1042630FF600C3
:101304000356670019EA83D7470014C3835647007E
:10131400B697A1072312F700BA879843E304B7FAF4
:101324009386419B9442E30FD7F883566700D9FA1A
:1013340083D64700035647001843A106B29623926A
:0C134400D70098C382803E87B6879DBF0B
:10135000974100209381813D17710020130181CABC
:1013600013054000972500209385C54917360020B6
:101370001306067E63FAC5008322050023A05500EC
:1013800011059105E3EAC5FE17C50100130505E83F
:10139000973500209385057C1386C18363FAC500C9
:1013A0008322050023A0550011059105E3EAC5FE3F
:1013B0001385018497650020938585C06377B50008
:1013C000232005001105E36DB5FE9302800873A08C
:1013D0000230972200209382E24293E2120073903F
:1013E000523097120000938262727390123473002D
:1013F00020303D432A876373C3029377F700BDEF24
:10140000ADE5937606FF3D8ABA960CC34CC30CC774
:101410004CC74107E36BD7FE11E28280B306C3409D
:101420008A069702000096966780A6002307B700F9
:10143000A306B7002306B700A305B7002305B7002E
:10144000A304B7002304B700A303B7002303B70026
:10145000A302B7002302B700A301B7002301B7001E
:10146000A300B7002300B700828093F5F50F939691
:101470008500D58D93960501D58D61B7939627008C
:101480009702000096968682E78086FA9680C117BA
:101490001D8F3E96E374C3F8A5B73367B500FD53BF
:1014A0000D8B79E7B7877F7F9387F7F710419441DA
:1014B000B372F6003363F600BE92B3E26200639744
:1014C000720C6318D6065041D441B372F6003363F0
:1014D000F600BE92B3E262006398720A631BD60400
:1014E00010459445B372F6003363F600BE92B3E242
:1014F00062006391720A631ED6025045D445B372EE
:10150000F6003363F600BE92B3E26200639A72089B
:101510006311D60210499449B372F6003363F600A2
:10152000BE92B3E26200639372085105D105E30FE6
:10153000D6F61317060193970601631CF70013579D
:10154000060193D706013305F7409375F50F91E92E
:1015500082804183C1833305F7409375F50F91E194
:1015600082801377F70F93F7F70F3305F7408280E8
:101570000346050083C60500050585056313D600EF
:1015800065FA3305D640828011059105E312D6FE37
:10159000014582802105A105E31CD6FC014582801E
:1015A0003105B105E316D6FC014582804105C10530
:1015B000E310D6FC01458280B717004003C77705CA
:1015C0001377E70FA38BE704130700F8A38DE70455
:1015D0003D47238CE70413077003A38CE704828044
:1015E000B717004003D587005D714EDE420541818B
:1015F00086C6A2C4A6C2CAC052DC56DA5AD85ED683
:1016000062D466D26AD06ECE9377050C13070008B9
:1016100081496386E71813070004639AE714B72427
:101620000D8F7D8993840480B3D4A402916793873E
:1016300007E8BE94A167938707D0B3D4F402EF8084
:10164000116897B70100938767909043D443EF8068
:10165000D11BEF904129AA8B939C040103D90184EB
:1016600093DC0C0163150900056913090980B7179C
:101670000040130770052380E704130780FA2380D6
:10168000E704B71A00400547939D0401096C2389BC
:10169000E704514B01438145138D0A04130670057D
:1016A000930680FA094893DD0D01130C0C71A948CB
:1016B0002300CD002300DD0023962A0323000D0024
:1016C00083C72A05898BEDDF83D70A0583C72A05DF
:1016D000898BEDFF83C72A05898BEDDF83D70A0548
:1016E00023902185C207C18333859741131A0501D1
:1016F000135A0A41630B0A143307BA02635E070CDC
:1017000005034203135303016368680C63D9050A98
:101710003305B04093150501C185C204C18063D76C
:10172000450B0965130505713385A502B717004000
:10173000130770052380E704130780FA2380E7046A
:1017400023963703238007043345950242054181E0
:10175000B640264496440649F259625AD25A425B30
:10176000B25B225C925C025DF24D61618280B1E30A
:10177000B77489097D8993840480B3C4A4029167F6
:10178000938707E8BE94A167938707D0B3C4F40298
:10179000EF80F15297A701009387C77B7DB597A78C
:1017A00001009387277A856483AB0700938484388C
:1017B00065B5930B0000954445B53A89D5BDB3870F
:1017C000FC40139A0701135A0A4181BF09651305AA
:1017D00005713305AA028DBF3385B74163E4FC0070
:1017E0003385FD40330585033344B50363C5880065
:1017F00013150401A9BF528532C636C4EF904102C9
:10180000DE85EF80D152EF80917B131305011353D6
:1018100003413307694042074183A24632460948E3
:10182000A948631AE900130719006344400113072C
:10183000F9FF420741837D1B137BFB0FCA89D285C9
:10184000E31D0BF62390E18465B7014511B7B71787
:10185000004003D5870039715ECE4205418106DE26
:1018600022DC26DA4AD84ED652D456D25AD062CC8E
:1018700066CA6AC86EC69377050C13070008814BC9
:101880006388E71413070004639CE710B7240D8FE7
:101890007D8993840480B3D4A4029167938707E879
:1018A000BE94A167938707D0B3D4F402EF8031418F
:1018B00097A70100938787699043D443EF80E17431
:1018C000EF906102AA89939A040103D9218493DAE3
:1018D0000A0163150900056913090980B71700405B
:1018E000130770052380E704130780FA2380E704B9
:1018F000139B04010547096A2389E704D14D014D73
:10190000814C135B0B01130A0A714A859720002052
:10191000E78000FB330C5541420C135C0C412391D2
:101920002185630A0C14B3079C0363D0070E050DD1
:10193000420D135D0D01894763E9A70D63DA0C0AB7
:1019400033059041931C050193DC0C41C204C18016
:1019500063D78C0B0965130505713385AC02B71786
:101960000040130770052380E704130780FA2380E3
:10197000E704239677032380070433459502420545
:101980004181F2506254D2544259B259225A925A69
:10199000025BF24B624CD24C424DB24D21618280CF
:1019A000B1E3B77489097D8993840480B3C4A40228
:1019B0009167938707E8BE94A167938707D0B3C464
:1019C000F402EF80D12F97A701009387A758EDB5B8
:1019D00097A7010093870757856483A9070093841D
:1019E0008438D5B5930900009544F1BD3E8931BFD7
:1019F0003385AA40131C0501135C0C4181BF0965A6
:101A0000130505713305AC028DBF63FEAA003305D3
:101A1000654133054503A9473344650363C887001F
:101A200013150401B1BF3305AB40E5B76285EF8004
:101A3000315FCE85EF80B12FEF807158131D050106
:101A4000135D0D41B307A941C207C183631AF900B1
:101A500093071900634480019307F9FFC207C1830C
:101A60001387FDFF937DF70FCA8BE28CE3900DF88F
:101A70002391F18475B7014529B741112A83014E9D
:101A8000930E407E130F0019930F400663EB6E0A0E
:101A90009308001913034006B3781503854E0D4FC4
:101AA000A14F337365020D891335150063E5BE0C34
:101AB0001308F6FF79467298420813580801330755
:101AC000C70213D61700BE0732976146B3F6C602A7
:101AD00013068070B386C6023697A166F58F42075B
:101AE0005D8FB717004083C6F70293F60608A30779
:101AF000D1000346F10083C6F70293F60608E3948B
:101B0000C6FE8346F10093F6F60FF1DE93067005EC
:101B10002380D704930680FA2380D70423AA0703DF
:101B200083C6170393E60608A388D702D8DB03C74A
:101B3000170313670704A388E70223800704410102
:101B400082807D133368E3039308E016630E080078
:101B50003368F3039308D0166308080093783300C2
:101B600093B818009388D81633081E01131E080175
:101B7000135E0E0121BF6393E503054863860800E9
:101B80000148630303002A8871087298FD15131E2B
:101B90000801C205135E0E01C18109BF13F81500CB
:101BA00063F4BF007908D5B713381800E5BF914733
:101BB00063EEB70217A701001307473A8A05BA95E3
:101BC0009C41BA978287B717004003A7470B13457C
:101BD000F5FF698F23AAE70A03A7070B698F23A8DC
:101BE000E70A03A7070A798D23A0A70A8280B717FF
:101BF000004083A6470B1347F5FFF98E23AAD70AA7
:101C000083A6070B558D23A8A70A83A6070A758FFD
:101C100023A0E70A8280B717004003A7470B498F2C
:101C200023AAE70A03A7070B1345F5FF45BFB7171C
:101C3000004083A6470B1347F5FF758F23AAE70AD9
:101C400003A7070A598D4DB7B717004003A7470BE5
:101C5000498FEDB7B717004003D587004205418192
:101C60009377050491EB9377F5013755E801130558
:101C700005803345F50282809377050C1307000435
:101C80006397E7009377F50137459C1CCDB7216535
:101C9000130505D08280B7F700E0C8439C478280D7
:101CA000814737370040A14663C4C7003285828030
:101CB0000345B740E38EA6FE3385F50003450500D6
:101CC00085072304A740CDB7411122C406C62A8444
:101CD00051372947B307E502B2408D83B3D7870256
:101CE00022449507B3D7E70237370040C207C183C4
:101CF0002316F740410182807165411113050520CB
:101D000006C6D937B7370040130770F82381E7407C
:101D10000D47A381E74013070004A380E740054770
:101D20002387E740B240410182802382018423A4BB
:101D30000184B717004003A7070CB706C0FFFD16C4
:101D4000758F23A0E70C03A7070DB7064000558F3A
:101D500023A8E70C03A7070C3D9B23A0E70C03A7D0
:101D6000070D1367070123A8E70C828023A4A18431
:101D700013064006894503C5C1846F40E112B717B9
:101D8000004003A5470C83A7470C59811345150054
:101D9000C18B058999E31365250083C74184638C52
:101DA000A7002382A18401C99387818403A307002C
:101DB0006303030002838280411106C6EFF05F8255
:101DC000BD4763F4A700EFF0BF815134BD4763F313
:101DD000A700B53CB24083D5218403D501844101DD
:101DE0006F40211A411193962500AA852D4506C6FC
:101DF00097200020E78080D8B240014541018280D1
:101E0000411122C426C24AC02A842E89B284AA85DE
:101E1000930600200146254506C697200020E7804E
:101E2000E0D5931629002686A28529459720002013
:101E3000E780C0D4B24022449244024901454101A6
:101E40008280011122CC06CE3714004026CA4AC82F
:101E50004EC652C483447405034AB40583498405BD
:101E600003499405EFF04FF58347A40593F4F40F6D
:101E7000137AFA0F93E71700230DF40493F9F90F7F
:101E80001379F90FB717004003C7A705058B6DFF3E
:101E900003D5C705A38D4705238C3705A38C2705DC
:101EA000A38B9704F2406244D2444249B249224A89
:101EB0000561828041119397050122C406C6C1873E
:101EC0002E8463DA0700EF30913219C1EF30912B85
:101ED0002165218D1DA093F7150013C5150091EF05
:101EE00093F7250099CF613D1306000A894503C584
:101EF000C184EF30717B13452400B240224441017C
:101F000082809397250163D00702EF50217F6D35C2
:101F100037F60200130606E0896503C5C184EF3079
:101F2000B17809657DB7939715010145E3D707FCA3
:101F300017A5010013054508EF80F15A1306006448
:101F4000916503C5C184EF303176116559B71D71B4
:101F5000494697A501009385A50117B50100130512
:101F600065FE86CEA2CCEF30115D01E917A5010018
:101F700013054501EF80315701A037F700E0F9570D
:101F80005CC7FD571CCB0564B7E700E023A08710B2
:101F90009306701014C3B843C146B4C323A0871876
:101FA000B8C3010001001306C00381454808EF30A3
:101FB0007157974700209387279E3ECAED47A3019C
:101FC000F1029307A0102312F102D1472303F1027B
:101FD000A167938707E03ECE970700009387C7E08D
:101FE000BEC4970700009387E7E1BEC68547230478
:101FF000F102B5472308F102970700009387E7C96C
:102000003EDAB7F50700970700009387C7E33EDE87
:10201000814697070000938767DA7000E10519454C
:10202000BEC0231C810097200020E78020B55808FF
:102030008147994670003E960346060085070507CE
:10204000A30AC700E398D7FED24791C7035781017F
:1020500085676373F70001A04808EF40C105AA85B2
:1020600001C917A50100130525F3EF80913301A0E5
:10207000F640664425618280411117050000130572
:10208000A5E306C622C4EF30917F1384C1842300E8
:10209000A40031285939034504002244B24037F6E0
:1020A0000200130606E0896541016F30F15F4111BE
:1020B00006C6B7170040130770052380E70413070F
:1020C00080FA2380E70403C7F7021377A70FA387DB
:1020D000E70203C7F70213672700A387E702E9397E
:1020E0001305407E8147014781460546854571328B
:1020F000B240014541016F40811D411197A501008A
:10210000938505F617A501001305C50A06C6EF80DD
:10211000512917A501001305E50AEF809128B24067
:10212000294541016F80F12B411197A5010093854D
:1021300065F417A501001305E50706C6EF807126B3
:1021400017A501001305C505EF80B125B24029454B
:1021500041016F801129411122C406C68347050041
:102160002A849DC397A50100938585F617A50100D4
:1021700013054504EF80F1224C4017A5010013051B
:102180006514EF8011221DA058411DE797A501009D
:10219000938505F417A501001305C501EF80712093
:1021A00017A5010013058513EF80B11F2244B2402B
:1021B000294541016F80F122A1679386D7036311FE
:1021C000D70297A501009385A5F017A50100130577
:1021D00065FEEF80111D17A5010013052511E9B754
:1021E000ED0797A501009385A5EE17A5010013053E
:1021F00065FC6319F700EF80D11A17A501001305DC
:1022000025105DB7EF80F1194C4017A501001305AB
:10221000251185BF411197A501009385E5E617A516
:102220000100130525F906C6EF80B117B240294514
:1022300041016F80111B411197A50100938545E76E
:1022400017A50100130505F706C6EF80911529456E
:10225000EF803119EF90704419E5EF200014B2407F
:1022600041016F203047B24041018280411122C4B8
:1022700097A50100938505E72A8417A5010013059A
:1022800065F306C6EF80F1114C4017A50100130558
:10229000E500EF8011112945EF80B11403470400D8
:1022A0009307F00F6319F70297A50100938585E363
:1022B00017A50100130505F0EF80B10E4C4017A5DE
:1022C00001001305A5FEEF80D10D2244B24029453F
:1022D00041016F801111B24022444101828085CDBD
:1022E000411122C417A501001305C5EC2E8497A542
:1022F0000100938525DA06C6EF80B10AA28517A5ED
:10230000010013056507EF80D1092244B240294539
:1023100041016F80110D8280411122C426C22E849A
:10232000AA8497A501009385A5D717A501001305D9
:1023300065E806C6EF80F1062945EF80910A2392F1
:1023400091862390818685472391F18697370020D7
:1023500093878797DC4703D70700C167FD17631D85
:10236000F7002244B240924403C541851306000A97
:10237000854541016F305133B240224492444101BE
:102380008280411122C406C626C293F715002E840E
:102390006383070E814617A601001306A6FE854536
:1023A00003D54186EF60406A05C597A50100938576
:1023B000E5D017A501001305E5DFEF80817E17A5A5
:1023C00001001305A5BFEF80C17D2945EF80710194
:1023D00097A50100938585CE17A50100130585DD1E
:1023E000EF80217C17A50100130585BEEF80617B7E
:1023F0002945EF80017F973400209384E48CDC44EE
:10240000054726852390E700EFD0405897A50100A7
:102410009385C5CA17A501001305C5D9EF8061785A
:1024200017A50100130505BCEF80A1772945EF80B2
:10243000417B9848F17785072310F7002685EFD078
:10244000005697A50100938565C717A501001305E0
:1024500065D6EF80017517A50100130525BAEF8039
:1024600041742945EF80E17713451400B2402244BE
:1024700092444101828093F725009DC797A50100F2
:10248000938545CB17A501001305C5D2EF80617177
:1024900017A50100130505B8EF80A1702945EF804D
:1024A000417413452400D9B793F745008DCB97A508
:1024B0000100938525C817A501001305A5CFEF805E
:1024C000416E17A50100130525B6EF80816D2945E2
:1024D000EF802171EF20603E1345440041BF93F728
:1024E00085000145C1D7854503D58186EFF0602E73
:1024F00097A50100938505C417A50100130585CB99
:10250000EF80216A17A50100130545B3EF806169CB
:102510002945EF80016D1345840089BF797122D46C
:1025200026D22E84AA8471468145480006D6EFE063
:102530005FEC9727002093872779DC4783D7070034
:10254000231491002313F100EF00501F8547A305CA
:10255000F100930700192305A1003EC62286FD570E
:1025600048009385811C230AF100EF00901FB250B0
:102570002254925445618280411122C497A50100E2
:10258000938585B92A8417A501001305A5C206C63F
:10259000EF802161A28517A5010013056510EF806A
:1025A00041602945EF80E16397A501009385C5B699
:1025B00017A50100130505C0EF80A15E894517A589
:1025C00001001305E5D8EF80C15D2945EF80616109
:1025D0009307202A8D4509452394F11C2385011C6E
:1025E000353F0DC92A8497A501009385E5B217A54B
:1025F0000100130525BCEF80C15AA28517A5010073
:10260000130545D6EF80E1592244B24029454101E6
:102610006F80215D2244B240056603C541851306E3
:10262000062C894541016F303108411122C406C68C
:10263000834705002A849DC397A501009385C5ABF8
:1026400017A50100130505B7EF80A1554C4017A54C
:102650000100130525D6EF80C154D1A05841B7071A
:10266000CF009387777D631EF71E97A501009385A2
:10267000A5A817A501001305E5B3EF8081521C44FE
:102680008356E4008355C40003C6070017A5010064
:102690001305C5D3EF80E1502945EF8081540356DF
:1026A000C4000C441385811C97200020E78040B1B2
:1026B00083C7811C1307200A638EE7021307300AC1
:1026C0006384E716130720086391E7200357C400CB
:1026D00085476307F71297A501009385E5A117A524
:1026E0000100130525ADEF80C14B17A501001305AF
:1026F000A5D925A00357C4008D4797A50100938550
:10270000A59F17A501001305E5AA6300F702EF8056
:10271000414917A50100130565CDEF80814822448A
:10272000B240294541016F80C14BEF80814717A519
:102730000100130525CDEF80C1462945EF80614A90
:102740000355E400930720F885452384F11CF933F1
:102750009377F50F2A8495C797A501009385C599AE
:1027600017A50100130505A5EF80A1439375F40F8C
:1027700017A501001305C5CCEF80A1422945EF80C4
:10278000414697A501009385259717A501001305DC
:1027900065A2EF80014117A501001305A5CBEF80CD
:1027A00041402945EF80E1434165930730FA854573
:1027B0007D152384F11C9D339377F50F2A8495C7EB
:1027C00097A501009385459317A501001305859EE4
:1027D000EF80213D9375F40F17A50100130545C641
:1027E000EF80213C2945EF80C13F0566130606C8EE
:1027F00091452244B24003C5418541016F30C16A11
:10280000894503C54185EF30217397A50100938564
:10281000A58E17A501001305E599EF80813817A54E
:102820000100130525C8D5BD0357C40085476301C2
:10283000F70297A501009385258C17A501001305C4
:102840006597EF80013617A50100130525C7F1B57F
:102850008357E4000566130606C82394F186A14554
:1028600049BFB707CC009387777D631AF70297A516
:1028700001009385658817A501001305A593EF80D6
:1028800041321C448356E4008355C40003C607004C
:1028900017A50100130585B3EF80A13049B5B7072F
:1028A000CE009387777D6302F70297A50100938599
:1028B000A58417A501001305E58FEF80812E4C40FC
:1028C00017A501001305C5A579B3B2402244410103
:1028D00082800111354697A501009385E58F17A5E4
:1028E00001001305A5E506CE22CCEF30C14401E975
:1028F0001795010013050569EF80E13E01A09727B8
:1029000000209387277F3EC4B7F50700856793872C
:102910000780814613868185E10519453EC69710DB
:102920000020E780A0251946938581851385411FE6
:1029300097200020E780C08834001386818597A502
:1029400001009385E5BA17A501001305E5BBEF105B
:10295000B0462A840DC9979501009385A57C17A5DB
:10296000010013052585EF80C123A28517A501006D
:1029700013058587EF80E1222945EF808126F2400B
:10298000624405618280EF80E01A1795010013050B
:10299000A57BEF001061EF40305EEFF0800D172552
:1029A000002013052530EFE0D07B179501001305BB
:1029B000A57AEFF0400D2A84EF100046EFA0006CDE
:1029C000EF10C14EEF200059EF10B024EFC0507946
:1029D0009795010093850575179501001305857D71
:1029E00009C8EF80011CA28517A501001305058207
:1029F00051B7EF80011B17A5010013056583EF8018
:102A0000411A2945EF80E11DEFC0F05DEF90E048ED
:102A100029C5979501009385E57017950100130569
:102A20006579EF80011817A501001305E581EF8096
:102A300041172945EF80E11A979501009385856E2E
:102A40001795010013050577EF80A11517A5010063
:102A500013058583EF80E11405B797A701009387DD
:102A60006793054781460146814517A50100130577
:102A70006593EF10D0572A8461D197950100938513
:102A8000656A179501001305E572EF808111A28533
:102A9000179501001305857DF1BD41111705000053
:102AA0001305658E06C6EF30815D238AA184153536
:102AB000EFF0AFA7B24017050000130525AC4101A8
:102AC0006FF0CFAA01113546979501009385C57027
:102AD00017A50100130585C606CEEF30C12501E913
:102AE00017A501001305459FEF80E11F01A0EF50DE
:102AF000B14C2AC6EF10217FEF10215EEF70C03D70
:102B0000F24032450561828041111305800406C6FA
:102B100097100020E78060DF371700408327870A7F
:102B20008D451305002093E707202324F70AEFF0D3
:102B30000F88EFF06F9C17A501001305A540EF80EB
:102B4000811A17A50100130565BFEF80C119EFF0C9
:102B50000FC0EFF06FD2BD37893797100020E780A4
:102B6000E069E5BF014582804111B2862E86AA85C3
:102B70002D4506C697100020E7804000B240014571
:102B800041018280AE860146AA85254517130020A3
:102B90006700C3FE9307000463E6C7021D71A2CC61
:102BA0002A84080886CE32C6EF705174B2461008E7
:102BB000A285294597100020E78040FCF640664436
:102BC00025618280395582809387C18618429C4353
:102BD00083D645000345070083C5C700035646005A
:102BE0006396A50083D5E700638DD502011106CE5B
:102BF0002386A7002397D700B705CF00DC4B93852A
:102C0000757D05077D162EC2230001003AC42316E8
:102C1000C1002317D10099C30A858297F24005614C
:102C2000828082806D713C083EC6B707E500232292
:102C300091103EC8AA843C083285232611103ECA52
:102C400023248110232021112E89EF20804F2A84F4
:102C500097A501009385859017950100130585556B
:102C6000EF703174A28517A50100130525A0EF7040
:102C700051732945EF70F176B705CB009385757DCB
:102C80006800EF00902BA2856800EF2020410147EB
:102C900081467000CA852685EF00104D15C52A842F
:102CA00097A501009385858B179501001305855025
:102CB000EF70316FA28517A501001305E59BEF703A
:102CC000516E2945EF70F1718320C11003248110EA
:102CD0008324411003290110516182809387C186AA
:102CE00018429C43797122D406D60348070083C852
:102CF00007012A8483D645000355460063960801E0
:102D000083D82701638DD8022388070105072399FB
:102D1000D7003708CC00DC4B1308787D3ACC13077A
:102D2000F5FF42CA23080100231EE100231FD10042
:102D300099C7080832C62EC482973246A24522851A
:102D4000D535B2502254456182806D713C083EC039
:102D5000B707E5003EC23C083EC4232611102324D9
:102D60008110232291102317010023180100231939
:102D70000100231A0100231B01009727002083D79D
:102D8000A7F899E3C167FD172316F10097270020E4
:102D900083D7A7F781EB9387C1869C439C43DC478D
:102DA00083D7070017240020130404F6584C231778
:102DB000F10083574400484B2318F10005ED97A517
:102DC00001009385A580179501001305A53EEF70BE
:102DD000515D17A501001305A580EF70915C294591
:102DE000EF7031608320C1100324811083244110CF
:102DF000516182809727002083C777F199E7EF2000
:102E000071385C4C23AA0700F1BFFD1797260020FC
:102E1000A38FF6EE03560701834704014C470A854A
:102E2000230BF100EF20A0259387C1869C43014727
:102E3000814688430A866C00EF001033AA8405C9D6
:102E400097950100938585781795010013058536C0
:102E5000EF703155A6851795010013052579EF70A0
:102E600051542945EF70F1575C4CC84B49BF972727
:102E7000002083C7D7E9EDDB1044854503C50187F2
:102E8000EF30810285B75C4D411106C688C3170536
:102E900000001305052E23A6F186EF30411EB24037
:102EA0002388A186014541018280DC4DDC4B99C716
:102EB000904503C5018791456F20117F82805C4E4C
:102EC000DC4BA1C7B9C1411122C4179501001305FC
:102ED000652E2E84979501009385856D06C6EF704B
:102EE000514CA2851795010013058573EF70714B46
:102EF0002945EF70114F2244B24003C501871306E4
:102F00004006914541016F20317A8280411122C4EF
:102F100017240020130444DD1C4C06C689C7DC437B
:102F200099C34C4882975C4CC84BEF20B1255C4C50
:102F3000B240224423AA0700410182801387E18026
:102F4000834707009306F00B850793F7F70F63E7B6
:102F5000F6002387F180034507008280930700F87D
:102F6000CDBF83574500638D070C01114AC817294F
:102F70000020130969D952C4032AC90106CE22CC04
:102F800003274A0126CA4EC6F15729EB1307D00D75
:102F9000FD576365C7042A841305860042054181F5
:102FA000B284AE89EF20D120232AAA000325C901CB
:102FB0005C4995EF979501009385855D1795010014
:102FC0001305451FEF70F13D179501001305856D41
:102FD000EF70313D2945EF70D140DD57F24062443A
:102FE000D2444249B249224A3E8505618280938794
:102FF0004400B705CF002319F5009385757D310591
:10300000EF00A0730325C901834564003105EF205B
:10301000E0080325C9012686CE853105EF2020066C
:103020007146A2854A85EF70712C504401CA8545CE
:1030300003C50187EF20516781474DB73933EDBF95
:10304000FD573E858280411122C4172400201304BD
:10305000A4CB5C4C06C6C84BEF20D1125C4C22447A
:10306000B24023AA070003C50187854541016F20AF
:10307000B16C411126C29384C1869C4006C622C40D
:10308000BDCFDC43ADCF5CC12300B5002A8497954A
:1030900001009385254B179501001305A511EF70CD
:1030A00051302945EF70F1339C4023A4070023A23F
:1030B000070097270020938727C3DC4FDC4B99C379
:1030C0002955A93597270020938707C4DC4FDC4B8F
:1030D00091C3953F894503C50187EF20F16591456F
:1030E00003C50187EF2051659C4003A34701630896
:1030F000030022852244B240924441010283B2403F
:1031000022449244410182800111328506CE22CCB4
:1031100026CA2E84EF20E002AA84979501009385A9
:10312000A545179501001305E508EF7091270307E2
:1031300084000356640083554400A6861795010059
:1031400013050550EF70F1252945EF709129972758
:10315000002083C7C7B9639797000145453B814568
:103160000A85013FF2406244D244056182806D715C
:1031700023248110232611102322911093F7450058
:103180002E84638F07103C083EC0B707E5003EC29F
:103190003C083EC423170100231801002319010035
:1031A000231A0100231B01009727002083D7C7B3F0
:1031B00099E3C167FD172316F1009727002083D7F5
:1031C000C7B281EB9387C1869C439C43DC4783D77E
:1031D000070017270020130727B12317F100544FCA
:1031E000835747002318F100DC4A95EF97950100BB
:1031F0009385C53C179501001305C5FBEF70711A47
:10320000179501001305C53DEF70B1192945EF7001
:10321000511D134544008320C110032481108324D1
:103220004110516182809727002083C757AC2555F4
:10323000B5C7FD1717260020A30BF6AA03D6060173
:1032400083470701CC460A85230BF100EF1030635A
:103250009387C1869C43172700201307E7A897A6EA
:103260000100938626F188430A866C00F52DAA8416
:103270004DD197950100938565341795010013058D
:1032800065F3EF701112A685179501001305053639
:10329000EF7031112945EF70D1142685853995BF1E
:1032A00093F7250099CF414681452808EF209127C3
:1032B0002555A93928089305F00F653B13452400CF
:1032C00099BF93F715000145B9D7EFF01FA8134533
:1032D000140091B7011122CC2A8408454AC84EC671
:1032E00006CE26CA52C42E89B28909C900C19715D3
:1032F0000000938525826105EF00F14F81447D5ADE
:10330000EF10201863C8A4048144EF10401863CB69
:10331000A404938741879C43DC47B307F940918716
:103320002302F400638809048327C900B307F4402B
:103330009587A302F4001C4CD5CB03A38700630739
:10334000030A22856244F240D2444249B249224AE9
:10335000056102835C44139714008504BA97239097
:10336000470179BF1C48139714008504BA9723902E
:10337000070061BF832789000547B307F44095879D
:10338000A302F40083570400638EE7028DC309474C
:103390006384E7040D47E390E7FA97A7010093875A
:1033A000A7861CCC97A701009387078711A897973A
:1033B00001009387674D1CCC979701009387C74DF9
:1033C0005CC895BF97970100938707391CCC9797E6
:1033D000010093876739EDB797A701009387878727
:1033E0001CCC97A701009387E787D9BFF2406244BE
:1033F000D2444249B249224A056182809DE141118D
:1034000022C4004606C618448347940075839D8BEA
:103410006315F700EF00B02A48C4B24022444101CE
:103420008280828079714AD01389350026D2420980
:10343000C16422D44ECE52CC06D6AA890144F114DE
:1034400013590901054A2EC6EF10A003B245634B7C
:10345000A4000145B250225492540259F249624AE2
:103460004561828083A7090013171400BA9783D798
:1034700007006388B7006394970063742A0105040A
:10348000D9B70545C1BF797126D24AD04ECE52CCAC
:1034900056CA5AC806D622D45EC6AA892E89328B4D
:1034A000B6843A8ABE8AEF80501F61C12685EF102C
:1034B000D0388D4763EEA7007D55B2502254925408
:1034C0000259F249624AD24A424BB24B456182806C
:1034D00083DB4400EF00707F2A84EF100000930725
:1034E000740031443305850263C4A702EF00F07D08
:1034F000EF00B07D2A84EF00507E930774003144C2
:103500003305850263C4A704EF00307C110519A8B8
:10351000EF00B07C330485029307F0171305C01742
:10352000E3D887FC6345750563080B022254B2504B
:10353000F249424BB24BD6865286D24A624AA6859F
:103540004A859254025945616FF0F01EEF00F07801
:10355000330585027115F9B7832749001385C90022
:1035600083D52700C13579F181BF6955B9B72D558C
:10357000A9B7239CA18693874187904381470C4636
:103580003307F500420741836393B70082805446B6
:10359000139847008507C2962390E600D5B7938716
:1035A00041879C4303C58700828003D58187828041
:1035B0004111C16706C61387D7FF6308E502636937
:1035C000A700F117630FF5000145B2404101828069
:1035D0001387E7FF630EE500FD171D8D13351500FA
:1035E000EDB7EF4080557D15D5BFEF404031E5BFC9
:1035F000EF40E02FCDBF011122CC26CA06CEAA840F
:1036000001442EC6EF00B068B2456348A4000145EE
:10361000F2406244D244056182809C481315140034
:103620003E9583570500E385B7FE0504D9BF0348DF
:103630005500814693F7F60F63E5070181473E8504
:103640008280584593975600BA9703D72700631690
:10365000B70003D70700E304C7FE8506E1BF834632
:10366000450001479377F70F63E4D700814711A81E
:103670001C45131657000507B29703D60700E3133E
:10368000B6FE3E85828001119317050156C206CE13
:1036900022CC26CA4AC84EC652C4C187938A4187E3
:1036A000635AF00883A70A00C0479C4703570400E9
:1036B000198D42054181636DF50001442285F24078
:1036C0006244D2444249B249224A924A0561828008
:1036D00012052A94E5B7DC4713944900014A3E9449
:1036E000834744006341FA02014A8347540063461A
:1036F000FA028509C20993D9090183A70A009847EC
:10370000E3EBE9FC5DBF1C4413195A00A6853E9902
:103710004A85D53509ED050AE1B75C4413195A000D
:10372000A6853E994A85C13D19E1050A7DBFE302A0
:1037300009FC69B7AA848149C9B71C4581E7930789
:10374000C5001CC51C45231205001CC19307F00FC2
:1037500063E6B70093F5F50F6F105014411126C2C0
:1037600006C69394050122C4C167C18063F9F500C0
:103770002244B240A685924441016F101016C181C7
:1037800093F5F50F2A84EF10701122852244B24080
:10379000A685924441016F10101293874187884398
:1037A00082801C4589C723AAA186014582807D5558
:1037B0008280938741879843834745004847920713
:1037C0003E9582802171232C811A1C1800453EC62B
:1037D000B70780013EC81C183ECA83574400232EF9
:1037E000111A2328211B232A911A02CE02D002CCBF
:1037F000231EF100834784002A8902D22301F102AB
:103800003C083ED402D67537835705002316F102D3
:10381000EF30D07F2307A1025C4003556400F183A1
:1038200013F717008347F10252055181F99BD98F95
:10383000A307F102EFF0805F31CDAA8403550500A4
:10384000EF80806683D704002AD26800231CF10031
:1038500083D72400231DF1001C4803D647008C4366
:10386000EF10F0018347B400CA8617A601001306C3
:10387000E6908117A305F4006C004810EFF0A06BF0
:103880008320C11B0324811B8324411B0329011BAB
:10389000396182802155EDB71C45B1CF03C5A70022
:1038A000894613576500630BD7028D46630ED70216
:1038B00085466300D702130740063305E50203C7B8
:1038C000B700418B15CB83C7B700BD8B3355F5408F
:1038D00082801375F5031307803EC5B7096713751A
:1038E000F50313070771D1BF372709001375F503D7
:1038F0001307077CD9B70145828041114AC003A94B
:10390000850006C622C426C2630809048347B9009D
:10391000AE8493F7070E95C30345990093052003E2
:103920000D810505B305B50288442244B240924496
:103930000249610541016F0081782E85B13F2A84DB
:1039400001CDB52B8325C900B307B54063FC8700C3
:103950002E94B305A440E9F9B240224492440249AE
:10396000410182808545C9B7797126D2AA8403D5E1
:10397000250022D42E8493053500C2054AD04ECEB0
:1039800052CC06D6C18185473289B6893A8A63FB13
:10399000B700EFF0A049AA857D55A1C183D70500E6
:1039A0002310F4000355040002C202C402C6EF80D3
:1039B000A04F2AC2268522C4ED3B8357050023165B
:1039C000F100EF30B0642307A100D2874E87CA868A
:1039D00001464C002685EFF01FABB25022549254A2
:1039E0000259F249624A4561828021711C183EC623
:1039F000B70780013EC81C183ECA3C08232E111A86
:103A0000232C811A232A911A2328211B00453ED4F6
:103A1000AA8402CC02CE02D002D202D6593B8357EE
:103A2000050035592316F102EF30505E2307A1023D
:103A300009C48357440089EF21598320C11B032403
:103A4000811B4A858324411B0329011B3961828024
:103A50000355640052055181EFF0403D2A8969DD2C
:103A60008347B40093F7070E89C713058401EF005D
:103A7000016683574400231EF1008347840023011D
:103A8000F1025C4003550900D98313F70708834707
:103A90001102231CA10093F7F707D98FA300F102AD
:103AA00083572900231DF1005C40F18313F71700B1
:103AB0008347F102F99BD98FA307F102EF80C03E43
:103AC0002AD23DD983479400680013975700834753
:103AD000B400FD8BD98FA305F4001C4803D6470022
:103AE0008C43EF10C059A687179701001307076989
:103AF000740005464C102685EFF0FF982A8915DDE5
:103B00008347B400A685FD8BA305F400FD3335B7CC
:103B1000011126CA832485FE22CC2A84268506CE5E
:103B2000A53B834734FF93F7070E85C72AC6268532
:103B3000EFF05FC921C5834734FFB245FD8BA30970
:103B4000F4FE8DCD22856244F240D24405616F00BF
:103B500001570DC58327C4FF2685829705E183475A
:103B600034FF93F7070E81C72285EF0041560325E6
:103B700084FE6244F240D244056185BDF240624455
:103B8000D244056182809C415D71A2C4CAC086C6D0
:103B9000A6C24EDE52DC56DA5AD85ED662D466D25F
:103BA0006AD06ECE03C7070089472A8993566700FB
:103BB0002E846386F6040D46638CC6049307F007D3
:103BC0006300F7022E85EF10C057AA848149C16BAC
:103BD000130C4900938741879C43984763E8E904A5
:103BE000B640264496440649F259625AD25A425B7C
:103BF000B25B225C925C025DF24D6161828003D710
:103C000045008547E3FEE7FC2E85EF10A05775BF02
:103C100003D74500E3F6E7FC2E85EF108052AA8417
:103C20002285EF10C053C204C98C4DB7DC47035541
:103C3000A900139A49003E9A93170501C187635D55
:103C4000F00083570A006395A70263E57403832796
:103C5000CA00034D5A001DA0A1672167A98F130751
:103C6000F7EFE374F7FE63950900EFF07F9471FDC1
:103C700085098DB783278A00034D4A00835DA9001B
:103C800003576900216A138BC7003AC6814A33CAB9
:103C90004D01631C5D019387C1879C43F1DBA286C4
:103CA0006286814526858297E1B7A1679387F7EF02
:103CB000930C4BFF63F04703B2455A85EFF08FF644
:103CC00019CD03278B00104719CA10436380C40223
:103CD0003107D5BFEE856685EFF0FF9171FD9386C4
:103CE0001A0093FAF60F130B0B0265B783564400C4
:103CF0005C43E3EFF6F622853AC6EF106033A16726
:103D00009387D7042A8A035D4400324763E897000B
:103D10008347D90093E707F8A306F9001C47668597
:103D20002286E2858297C1670844FD17337AFA003C
:103D3000529508C02312A40125BF93874187984359
:103D4000814715C31447814763FFD500939745000A
:103D50004C47BE9519C903C7550081476375E600F6
:103D6000DC451606B2973E85828003C74500814731
:103D7000E37BE6FE16069C45F5B7011126CA4EC642
:103D800052C456C206CE22CC4AC85AC0AA892E8A2C
:103D90008144938A418783A70A00984763ECE40033
:103DA000F2406244D2444249B249224A924A024B0A
:103DB00005618280DC471394440001493E9413BBA3
:103DC000140083474400634BF900014913BB1400FE
:103DD00083475400634FF900850475BF0844931767
:103DE00059005287DA860146A2853E9582990509D7
:103DF000C9BF4844931759005287DA860546A28501
:103E00003E9582990509E9B7239C0186814517F5FE
:103E1000FFFF1305654C95B7938741879C4399C76E
:103E2000814517F5FFFF1305254B81BF828079710E
:103E300026D24AD04ECE2315E1002E89B284B6890F
:103E40003A8681460147ED4522D406D62A84EF20E2
:103E5000417D2AC639C10356A100CE85EF601149C4
:103E6000CA852285EF20510E058915C52285014698
:103E70002C0023149100EF2091242A8409C5ED45DC
:103E80002800EF2071082285B25022549254025922
:103E9000F249456182804944DDB76554EDB75C4124
:103EA000FD175CC18280411106C6EF10B16E9547C7
:103EB0003305F502B240814541010D8182804111F7
:103EC00006C6EF10316D95473305F502B24041014A
:103ED0000D818280035505006F20E15003550500D8
:103EE0003287AE86171600200356A6E897350020C5
:103EF000938505AE2DBF411106C6EF50B140B240CB
:103F000041018280411197350020938565AC06C63A
:103F1000EF205122B240014541018280411181458B
:103F2000171500200355E5E006C6EF20110CB2403E
:103F300041018280411197350020938565AA06C60C
:103F4000EF20511FB240014541018280411181455E
:103F5000171500200355E5E306C6EF201109B2400E
:103F60004101828041112E8506C6EF60103CB240AF
:103F700041016F60F0446F60104D5C49E1175CC90E
:103F80005CC583572501A1072319F5008357050157
:103F9000A1072318F5008280F1473305F5029387C6
:103FA00001889C433E9582808D47631BF60803D7AA
:103FB0004600854763F6E7084111368522C44AC0AA
:103FC00006C626C236842E89EF10A01725C5835752
:103FD000440093140501C18063EE97042285EF101D
:103FE0004016FD14231294009307A0026302F50209
:103FF0009307B0026308F50293079002631CF50271
:1040000022852244B2409244024941016FD0901C63
:1040100022852244B2409244CA85024901464101A8
:104020006F80605E22852244B24092440249410181
:104030006F00B050B2402244924402494101828054
:104040008280938641889C42014599CB9843D44213
:1040500023A2E1886394D70023A4E1881385C7FED7
:104060008280411122C406C67144F12E33058502B7
:104070009145EF70302811E56555B2402244410169
:1040800082809737002023ABA796752E33058502D3
:104090009145EF7030266DD123A0A1886D2697370A
:1040A00000202397A7944526973700202393A794B1
:1040B000979701009387C71017370020232EF79298
:1040C000970700009387A7EB173700202324F79268
:1040D000014565B7AA8517350020130565916F1056
:1040E000601A411106C6FD37EF10401B93874188C7
:1040F0009C4391CF1387C7FE19CBB24083D5C7FF2E
:10410000173500201305C58F41016FF0507BB24079
:1041100041018280411106C622C426C24AC0153719
:1041200021C1834785002A8493F7070489EB224441
:10413000B240924402490355E50041015DB783470F
:10414000C50093044501138941888DE38327090045
:104150005CC923A291888327490099E323A491880D
:10416000B24022449244024941018280FD17230655
:10417000F5006105EF60D0328307840063C1070654
:104180008347840093E707F82304F400EF10D11C61
:104190009357050193F7F70FAA9713D587013E951B
:1041A0004205A94741813375F5028347840093F79F
:1041B00007FCC98F2304F4008347D4003E951C40BC
:1041C0002318A40089CF984319CB8347C4005040DB
:1041D000814585073305F502420541810297832712
:1041E00009005CC823A291888327490099E323A48E
:1041F00091888347C400ADD7835504012244B2405F
:1042000092440249172500201305857F41016FF074
:10421000106B973700209387A78D9C47411122C4CC
:10422000858306C626C2858B014481EFAE84B285A4
:104230003A86EF10600C2A8409C5EF1000038294BF
:1042400008CC2285B2402244924441018280797197
:1042500006D622D44AD04ECE2E8932C626D2AA897C
:10426000AD24324713060502CA86970500009385E0
:10427000E5D2172500201305A577613F2A8429CDB3
:104280009304C50035261946AA852685EF00305FC0
:1042900085452685EF00F05B17950100130505F1B4
:1042A0004E95834505002685EF00505F5C483146FA
:1042B0008145A1075CC85CC483572401E117231919
:1042C000F40083570401E1172318F4001C4C3E85C9
:1042D000EFD02F92A30425012285B250225492548C
:1042E0000259F24945618280011106CE22CC26CACC
:1042F0002EC6AA8432C4EF00B079004DB2452246E2
:10430000834784000CC050C093F7F70393E707047A
:104310002304F400231804002685EF00107583475A
:104320009400A9462317A40013D7370005073307C5
:10433000D7029D8B85072306F400A306E40083C7FC
:104340000401D8488507230FF7FE13874188584397
:10435000232A04009307440105EB23A4F18823A238
:10436000F188172400201304A4692285EFF0B04AD5
:104370001C44858B5D8D09ED22856244F240D24458
:10438000814505616FF0B0531CC323A4F188D1BFF0
:10439000F2406244D24405618280411197050000D9
:1043A0009385C5C0014506C6EFF0DFBBB2400145AD
:1043B000410182806FF03FBC8347C500B1EB4111E2
:1043C00022C42A840355E50006C6EFF0BFD00DCD08
:1043D0008347840093F7F7FB2304F4001C4091C744
:1043E000DC4381C74C4001458297EFF09FC51725FC
:1043F00000201305E560EFF0904D0355E4002244E2
:10440000B24041016FF0FFCDB240224441018280B1
:10441000828093874188970500009385E5CF172513
:1044200000201305E55D23A0070023A207006FF01D
:10443000903C1C4D81CB03A34700630503008345DB
:10444000070002838280938741899C4303C507004C
:104450008280938741899C4303C51700828093879C
:1044600041899C4303C527008280938741899C43EF
:1044700003C547008280938741899C4303C5370069
:104480008280938741899C4303C55700828093872C
:1044900041899C4303C567008280938741899C437F
:1044A00003C577008280938741899C4303C58700B9
:1044B0008280938741899C4303C5970082809387BC
:1044C00041899C4303C5A7008280938741899C430F
:1044D00003C5B70011E11D458280938741899C4344
:1044E00003C5C7008280938741899C4303C5D700D9
:1044F0008280938741899C4303C5E700828093872C
:1045000041899C4303D507018280938741899C435D
:1045100003C527018280938741899C4303D54701C6
:104520008280938741899C4303D56701828093876A
:1045300041899C4303D587018280938741899C43AD
:1045400003C5A7018280938741899C4303C5B701B6
:104550008280938741899C4303C5C70182809387EA
:1045600041899C4303C5D7018280938741899C433D
:1045700088578280938741899C4303D5C7028280F4
:10458000938741899C4303D5E70219E11305800C09
:104590008280938741899C4303C507038280938768
:1045A00041899C43C85B82809387C188884382800D
:1045B000938701898843828019E17D558280F5DEE9
:1045C000984265DFFDD91727002013076752184767
:1045D000AA877155058B6319071E03C50700154788
:1045E000E37DA7FC03C737001305F0057D1713779C
:1045F000F70FE364E5FC03C7570061D303C7670007
:104600004DDF03C77700494579171377F70FE36646
:10461000E5FA03C7A70011457D171377F70FE36E7F
:10462000E5F803C797000D457D171377F70FE3668D
:10463000E5F803C7B70001CB65171377F70F13052C
:10464000600DE36CE5F603C7C7007945791713776A
:10465000F70FE364E5F603C5D7000D477D15137525
:10466000F50FE36CA7F403D50701130840175115A4
:1046700042054181E363A8F403C5E7007D15137586
:10468000F50FE36CA7F203C527017D151375F50F30
:10469000E365A7F203C58700454875151375F50F47
:1046A000E36DA8F003D5670105681308B8E06D1540
:1046B00042054181E363A8F003D547016D1542052A
:1046C0004181E36CA8EE03D587017915420541814C
:1046D000E365A7EE03C5A7017D151375F50FE36E1E
:1046E000A7EC03C7B7011D457D171377F70FE366E6
:1046F000E5EC03C7C7010D457D171377F70FE36E90
:10470000E5EA03C7D701714579171377F70FE36619
:10471000E5EA03D7E7011305E00F7D174207418360
:10472000E36DE5E803C70702494579171377F70FEB
:10473000E365E5E8D85301CB37C5340059171305B5
:1047400055BFE36CE5E6885737C73400130757BFFA
:104750005915E364A7E603C70703E30007E623AAA6
:10476000F18803C7050123A8C1888547E3F7E7E47B
:1047700003D72501DC49B3F7E702E39007E483C7D9
:104780001501E38C07E24111368506C623A6B188E0
:1047900022C4EF70A03FEFE0405E2A84EF90200A31
:1047A0002A94EFD0E04E2A94EF70A05A2A94EFF0AA
:1047B0005F8B2A94EF20F0792A94EF5050342295A1
:1047C000B2402244410182808280011106CEA307BB
:1047D000A100EF80807E9305F1001705000013050E
:1047E00085C5EFF08FD9F24001450561828079716E
:1047F00022D4172400201304A42F0328840026D2D7
:10480000AE849365180006D64AD04ECE52CC56CA16
:104810009728002023A2B82E13781800631D0808DB
:104820003E8993878192BA899843B285BE8A2A8647
:10483000014A01CF2AC2014536C62EC4EFD0C06B53
:10484000B246A2451246133A15002685EF80401362
:10485000AA841DC51C44F99B17270020232EF72886
:1048600083A70A0081C763030A008297B2502254CB
:10487000268502599254F249624AD24A45618280A1
:104880004E859727002023A70726EFE09FCE4146BD
:10489000CA85172500201305252FEF602125EFB0CD
:1048A00080180325040BEFB0001A0145EFB020205B
:1048B0000545213F65BFF95455BF972700209387D1
:1048C00027239C47858BD5C341111725002013054D
:1048D000E52906C69727002023AC0720972700204C
:1048E00023AA07209727002023A80720EFF0207E87
:1048F000EF40A037EFF00053EFF0C0579387018DE2
:104900009C4381C70545EF7040019387C18B9C4351
:1049100089C741657D15EF50B03FEFD06066EFB0BD
:10492000E010972700209387672E9C431397170169
:1049300063540700EFC0306D9727002023A607249B
:104940009727002023A407249727002023A20724C9
:104950009727002023A00724EFF0DFA5E92BEFF035
:10496000AFCAB24041016FD0A00F8280397122DC02
:104970002A8426DA930414024ED62E85B289A6859F
:1049800021464AD806DE36C63A89EF60C1131DE5D6
:10499000B24638082686CE8513059404EF403001D0
:1049A00021462C084A85EF60011213351500F2509C
:1049B0006254D2544259B259216182800145C5BF27
:1049C0009305450617250020130545056FF0206F58
:1049D000011106CE2EC6EFF08FCEB245F24088C14F
:1049E00005618280411122C426C24AC0AA842E8455
:1049F00006C6EF70004D83C7E401AA8513899408A9
:104A000099E3138904032285512D21469305190248
:104A10002285B525972700209387870D8C43228513
:104A2000EF00606E22852244B240024993858402E1
:104A3000924421464101A1A5597186D6A2D4A6D29D
:104A4000CAD0CECED2CCD6CADAC8DEC6EFC09077F6
:104A50009305400645E9EF7040446302051283C7A1
:104A6000818913B71700238CE188014489CFC16481
:104A7000172900201309C9079309400EFD14EFF010
:104A80005FA36348A408EFF08FC34169B729090009
:104A9000096AFD7A2A8B81447D199389F97B130A6F
:104AA0000A71938A8AC7EFF0DFA063D5A4041304C8
:104AB000400EB387840217270020130767030324DF
:104AC000070B3E948357C4016386270918403307B8
:104AD000EB4063EAE900834744008507B387470357
:104AE000D6976369F706014681450945EFF02FF631
:104AF000AA8B29E1EF20B0748547631FF50489650F
:104B00009385057117250020130545F1EFF0205B13
:104B1000A1A8B30734030327090BBA9703D7C7012A
:104B20006308970003C75700A38207002382E700AA
:104B30000504B1B79305C5002285EFF0BFEA5E8595
:104B40002286978501009385A566EFF0EFF95E85D3
:104B5000EF00C074850481BF97270020938747F931
:104B60009C478D83858BC1FFB650265496540659B9
:104B7000F649664AD64A464BB64B65618280014685
:104B80008545094502D002D202D402D6EFF02FECBF
:104B9000AA8479D9EFC090621389C4002A84814520
:104BA0004A85ED290C4041464A85D1298329440094
:104BB000638709084E8502D802DA02DC02DEEF6064
:104BC00041132ACE141005462C0808184ECCEF408D
:104BD00000541375F50F25E58355840093E52500F2
:104BE0004A85E52911460C104A85512901469785C9
:104BF00001009385655C2685EFF00FEF2685792D02
:104C00005C40BDD3014685450D45EFF04FE4AA84D5
:104C100021DD48401389C400EF60A10D2AC64A85F2
:104C200029293246636AC5004C404A8589290146D4
:104C300081452685EFF04FEB26858D2535B78355C9
:104C4000840079BF97270020938787EA9C4709CD86
:104C500093E78700172700202320F7EA1725002075
:104C60001305C5DB6FF0C0444111DD9B06C6172755
:104C700000202323F7E8EF20905C09E9B2401725D4
:104C800000201305A5D941016FF06044B2404101F5
:104C9000828079714AD0416926D24ECE52CC56CA12
:104CA0005AC85EC662C466C206D622D4AA892E8AB3
:104CB000B28A368BBA8B8144172C0020130C4CE33C
:104CC000930C400E7D19EFF0CFFE63C4A4000144A5
:104CD0002DA03384940383270C0B3E948357C40187
:104CE000638B27055A87D6865286CE851305040323
:104CF000EFF0DFC70DC123800B002285B250225494
:104D000092540259F249624AD24A424BB24B224C67
:104D1000924C456182808347F40191CF5A87D686B1
:104D20005286CE8513059408EFF05FC409C5854708
:104D30002380FB00D9B7850479B783574500638A80
:104D40000718397122DC06DE26DA4AD84ED652D44C
:104D500056D25AD02A84F52611CD85476301F5062F
:104D6000F2506254D2544259B259225A925A025BBA
:104D700021618280EFC0104565F5835744004947A3
:104D8000ED9BE39FE7FCC1452285492CAA8422853F
:104D9000D52E0357440002CE91472A896317F700A6
:104DA000228511293C082ACC3ECEEFC030415C550B
:104DB000C5DB74084A86A6850545829755B7035713
:104DC0004400D147E3FEE7F8032A0400C169014922
:104DD000972A0020938ACAD1130B400EFD19EFF0D9
:104DE0004FED6344A90C2285032A0400992EA145A6
:104DF0002A8922852524AA842285752E14402A8694
:104E0000AA8978082685CA85EFF0BFE8AA8429D93F
:104E100003C7F40189476315F7008347C101A9D38C
:104E20005546D28513856400EF50514C0145EF7013
:104E3000A00701C583D7C401B1EB97270020938752
:104E400027CB9C4793551900858913D73700058BCD
:104E500011CB8983858B6397B70001452EC6EFF090
:104E60007FDEB2454E85EF70C00B0346C1012A8438
:104E7000937519002685EF80A00D31C92685EF7046
:104E80008006268511C00145EF702035EF20303BAC
:104E90008547E317F5EC83C754001307F00FE38150
:104EA000E7EC8507A382F40065BDB304690383A71B
:104EB0000A0BBE9483D7C401638937015546D28556
:104EC00013856400EF50314071D1050909BF5DDCE5
:104ED0005DBF8280011106CE22CC26CA4AC84EC6CA
:104EE000EF60B07B11CDC164014417290020130984
:104EF00029C09309400EFD14EFF0AFDB634EA40010
:104F00006244F240D2444249B249172500201305B9
:104F1000E5B005616FF0C019330534038327090B31
:104F20003E958357C5016386970023120500EF6005
:104F3000907B0504D1B797270020938767BB9C47D8
:104F40008D83858B99E717250020130525AD6FF01C
:104F50000018828097050000938545AE1725002034
:104F60001305C5AB6FF0200983C7F5FF2E858507B4
:104F7000A38FF5FE828083C7F5FFFD1793F7F70F28
:104F8000A38FF5FE89E71385F5FF6F00B11F8280BF
:104F90008841411106C6050542054181EF005121B6
:104FA00009C585472300F5000505B240410182800F
:104FB0001C41035745008D8FBA951CC12312B500C3
:104FC0003E85828093D78500A2051441DD8D8357ED
:104FD00045001387E6FF18C189072312F50013D691
:104FE00085004111238FB6FEA38FC6FE410182804A
:104FF00018419307F7FF1CC183574500850723120B
:10500000F500A30FB7FE8280835745008D8F2312D2
:10501000F5001C41BE950CC12E858280AA8703D75E
:10502000470008410D8FAA952392E7008CC3828028
:10503000184108453305A740828083574500035730
:1050400065001D8F1C4108453385A7403305A740E7
:105050008280011122CC2EC606CE2A84EFF0FFFDFD
:10506000B2456373B50001A0835744000840F24085
:10507000BE952312B40062443E9505618280011101
:1050800022CC2E84B28506CE32C6EFF09FFCA285DC
:1050900062443246F24005616F505125411122C4ED
:1050A0002E84854506C6EFF0DFFA23008500B24066
:1050B00022444101828001112317B100894506CEA7
:1050C000EFF03FF98347E1002300F5008347F1004B
:1050D000A300F500F2400561828093D78500A20508
:1050E0000111DD8D2317B100894506CEEFF07FF663
:1050F0008347E1002300F5008347F100A300F5009A
:10510000F240056182801397850193D78501C166BE
:10511000938606F0D98F13D78500758FD98FA20596
:105120003707FF00F98D0111DD8D2EC6914506CEA2
:10513000EFF03FF26C001146EF50511BF240056159
:1051400082801C41411106C622C403C40700854564
:10515000EFF09FEB2285B2402244410182801C4146
:10516000011106CE03C7070083C71700894523072F
:10517000E100A307F100EFF03FE9F2400355E10041
:10518000056182801C41011106CE03C7070083C759
:10519000170089452307E100A307F100EFF0DFE6E0
:1051A0008357E100F24013D58700A2075D8D4205C9
:1051B0004181056182800C41011122CC11462A8473
:1051C000680006CEEF50911222859145EFF0DFE3A3
:1051D000B247C166938606F01397870113D58701FE
:1051E000598D13D78700758FF2406244598DA207FD
:1051F0003707FF00F98F5D8D056182801C45BE95E4
:105200000CC18280AE87944391E6584101EF0CC1F6
:105210005CC1828003C7570013671700A382E700B1
:10522000B687D5B70CC3EDB7AA87084119CD184189
:10523000D44398C36313D500D8C32A8703465700C5
:105240009376160081E6232007008280944381CA6A
:105250008C4203A847008CC363930601CCC3799AA0
:1052600014C3A302C7003687D1BF1C45DC471D8D80
:10527000B777DBB6938777DB09853305F5024205FF
:1052800041818280F147B385F50248452E958280A1
:105290008347450085072302F5008280411122C41F
:1052A00006C62A8409E4B240224441018280834731
:1052B0004400F5DBFD1793F7F70F2302F400E5F741
:1052C0001C4403D7270005072391E700DC4399C35B
:1052D000228582974C4889CD83475400898B99E772
:1052E0001C4422859C479C439C478297232A0400A8
:1052F0000040232004007DB783572500011106CE0E
:1053000022CC26CA2EC681EB01442285F24062449B
:10531000D24405618280035705008147F146E305C9
:10532000F7FEB385D702404585072E948345440098
:1053300008C4F5F5B247AA8481E7232A040009A826
:105340001C456C0022859C439C43829748C84DDDD8
:1053500085472312F400B2472320040023180400D9
:105360002319F4005C485CC483D72400FD17239103
:10537000F40061BF9387C189884323260500232455
:10538000050041056FE0B054011122CC1384C1899E
:105390001C4006CE95C39C472300B5002AC65CC1BD
:1053A000EFF05FFD1C4003A3470063070300624466
:1053B0003245F24005610283F24062440561828019
:1053C0000347450015EB584DAA877D5505CB411184
:1053D00006C61CC3DC4723AEE188F156130507015E
:1053E0002390D700970500009385A501EFE0B0401A
:1053F000B2400145410182807D5582808280797171
:1054000061468145280006D6EFB0BFFE9387C1896B
:105410009C4328009305F00FDC473EC6EFF0DFF613
:10542000B250456182809387C1899C43D847A16768
:105430009387C7026312F70A397106DE22DC26DA87
:1054400080004AD84ED652D456D23285B284EFF07C
:105450005FCFAA892685EFF09FD02318A4FC26856C
:10546000EFF0FFCF2319A4FC2685EFF05FCF83D7A1
:1054700044000A8A231AA4FC858393F7F70F230EAE
:10548000F4FC8607BD0793F7073F3301F1408A8A92
:1054900001498347C4FD6365F902CE85130584FC89
:1054A000232C54FDEFF05FEE5281130104FCF25007
:1054B0006254D2544259B259225A925A216182807E
:1054C0002685EFF0DFC993171900D69705092390B9
:1054D000A7001379F90F75BF82809387C1899C4318
:1054E000D847A1679387A7026310F70A397106DED0
:1054F00022DC26DA80004AD84ED652D456D23285E3
:10550000B284EFF01FC4AA892685EFF05FC5FD576E
:105510002318A4FC26852319F4FCEFF05FC483D77D
:1055200044000A8A231AA4FC858393F7F70F230EFD
:10553000F4FC8607BD0793F7073F3301F1408A8AE1
:1055400001498347C4FD6365F902CE85130584FCD8
:10555000232C54FDEFF05FE35281130104FCF25061
:105560006254D2544259B259225A925A21618280CD
:105570002685EFF0DFBE93171900D6970509239013
:10558000A7001379F90F75BF82809387C1899C4367
:10559000D847A16789076318F708397106DE22DC4E
:1055A00026DA80004AD84ED652D456D23285328975
:1055B000EFF03FB9AA894A85EFF07FBA83574900D7
:1055C0000A8A2318A4FC858393F7F70F230CF4FCB5
:1055D0008607BD0793F7073F3301F1408A8A81446C
:1055E000834784FD63E5F402CE85130584FC232AFA
:1055F00054FDEFF07FD95281130104FCF250625444
:10560000D2544259B259225A925A216182804A8513
:10561000EFF0FFB493971400D69785042390A7006A
:1056200093F4F40F75BF82809387C1899C43D84758
:10563000A1679387E7046312F70A397106DE22DC5B
:1056400026DA80004AD84ED652D456D23285B28459
:10565000EFF03FAFAA892685EFF07FB02318A4FCB6
:105660002685EFF0DFAF231AA4FC2685EFF03FAFCD
:1056700083D744000A8A2319A4FC858393F7F70F84
:10568000230EF4FC8607BD0793F7073F3301F14073
:105690008A8A01498347C4FD6365F902CE851305F3
:1056A00084FC232C54FDEFF03FCE5281130104FC07
:1056B000F2506254D2544259B259225A925A21613C
:1056C00082802685EFF0BFA993171900D6970509A8
:1056D0002390A7001379F90F75BF82809387C18942
:1056E0009C43D847A1679387C7046310F70A3971B1
:1056F00006DE22DC26DA80004AD84ED652D456D2B4
:105700003285B284EFF0FFA3AA892685EFF03FA58A
:10571000FD572318A4FC2685231AF4FCEFF03FA4C0
:1057200083D744000A8A2319A4FC858393F7F70FD3
:10573000230EF4FC8607BD0793F7073F3301F140C2
:105740008A8A01498347C4FD6365F902CE85130542
:1057500084FC232C54FDEFF03FC35281130104FC61
:10576000F2506254D2544259B259225A925A21618B
:1057700082802685EFF0BF9E93171900D697050902
:105780002390A7001379F90F75BF82809387C18991
:105790009C43D847A167DD07631CF7023971328546
:1057A00006DE22DC3284EFF0DF992AC62285EFF094
:1057B0001F9B2311A1022285EFF0BF98B245230061
:1057C000A1022808EFF05FBCF25062542161828090
:1057D00082809387C1899C43D847A16793878704B8
:1057E000631CF7023971328506DE22DC3284EFF069
:1057F0005F952AC62285EFF09F962311A10222858C
:10580000EFF03F94B2452300A1022808EFF0DFB784
:10581000F25062542161828082809387C1899C43C7
:10582000D847A1679387A704631BF7007971280005
:10583000814506D6EFF05FB5B25045618280828027
:105840009387C1899C43D847A16793875702631008
:10585000F7027971328506D6EFF0BF8E2308A100DA
:1058600081452800EFF05FB2B250456182808280AE
:105870009387C1899C43D847A1679387E702631246
:10588000F7047971328506D622D426D23284EFF01D
:105890001F8DAA842285EFF09F8C854719E522850C
:1058A000EFF03F8A4205B337A00028008145231856
:1058B00091003ECAEFF05FADB25022549254456160
:1058C000828082809387C1899C43D847994763101F
:1058D000F7063971328506DE22DC3284EFF07F86EE
:1058E0002AC62285EFF0BF872310A1022285EFF0A0
:1058F0005F852301A1022285EFF0BF84A301A102ED
:105900002285EFF01F842302A1022285EFF07F831E
:105910002313A1022285EFF0DF82B2452314A102F6
:105920002808EFF07FA6F2506254216182808280C5
:105930009387C1899C43D847A1679387C7036310A6
:10594000F7063971328506DE22DC3284EFF06FFF14
:105950002AC62285EFF0BF802310A1022285EFF036
:105960001F802311A1022285EFF0AFFD2302A102C7
:105970002285EFF00FFDA302A1022285EFF06FFC5C
:105980002303A1022285EFF0CFFBB245A303A102BE
:105990002808EFF07F9FF25062542161828082805C
:1059A000797106D622D426D22A84EFF08FF9AA8400
:1059B0002285EFF0CFFA2285EFF06FFA035744000B
:1059C0008D4763F5E7002285EFF06FF92285EFF050
:1059D0000FF9A6852800EFF03F9BB2502254925455
:1059E000456182809387C1899C43D847A167FD07A1
:1059F0006315F70032856FF0BFFA82809387C18903
:105A00009C43D847A167E5076312F70639713285D1
:105A100006DE22DC3284EFF0CFF22AC62285EFF0D8
:105A20000FF42285EFF0AFF32310A1022285EFF0EF
:105A30000FF3520551812311A10222852302010295
:105A4000EFF02FF0A302A1022285EFF08FEF2303E6
:105A5000A1022285EFF0EFEEB245A303A1022808D0
:105A6000EFF09F92F250625421618280828093878E
:105A7000C1899C43D847A1679387E7036315F70063
:105A800032856FF0FFF182809387C1899C43D847AC
:105A9000A167938747046315F7023971328506DEE3
:105AA00022DC3284EFF0EFE92AC62285EFF02FEBFB
:105AB000B2452808EFF05F8DF25062542161828078
:105AC00082809387C1899C43D847A16793878702C7
:105AD0006317F7023971328506DE22DC3284EFF07B
