:040000006F108009F4
:1000040000000000000000006F0080086F00E02284
:1000140000000000000000000000000000000000DC
:1000240000000000000000000000000000000000CC
:100034006F004006000000006F00E00500000000B3
:100044006F0080056F0060056F0040056F0020059C
:100054006F0000056F00E0046F0040260000000000
:100064006F0060046F0040046F0020046F00000400
:100074006F0060236F00C003000000006F00600386
:100084006F0040036F0020036F0000036F00E00265
:1000940001A001A001A001A001A001A001A001A054
:1000A40001A001A001A001A001A001A001A001A044
:1000B40001A001A001A001A001A001A0B717004068
:1000C400130770052380E704130780FA2380E704ED
:1000D4002396A70223800704371700408347270588
:1000E400898BEDDF835707053717004083472705C2
:1000F400898BEDFF3717004083472705898BEDDF98
:10010400035507058280B7170040930670052380C6
:10011400D704130780FA2380E70403C6B7041376D1
:10012400F60DA385C70423800704137605022DC6A4
:1001340003C6A700118A0DE22380D7042380E704B5
:1001440003C7A700136747002385E7009307004B05
:1001540001000100FD17EDFFB7170040930670057D
:100164002380D704130780FA2380E7047D8923942E
:10017400A70001000100010001002380070423807F
:10018400D7042380E7049306100537270040A30310
:10019400D780238007048280137605046DDE03C6AE
:1001A400A700418A0DE22380D7042380E70403C714
:1001B400A700136707012385E7009307007D01006B
:1001C4000100FD17EDFFB71700409306700523806B
:1001D400D704130780FA7D892380E7041365050497
:1001E4002394A700010001000100010023800704FB
:1001F4002380D7042380E704930630053727004083
:1002040079B74111814601468145114506C69D2AAB
:10021400B7170040130770052380E704130780FA1B
:100224002380E70403C76704136717002383E704E5
:1002340023800704B2404101828081460146814502
:1002440011458922B7170040130770052380E7047E
:10025400130780FA2380E7047D572396E70203C738
:100264006704136717002383E7042380070401A0AE
:10027400BD473305F50201007D1575FD82804111EE
:1002840022C426C206C6AA84014463179400B2405D
:10029400224492444101828005041305803E4204B5
:1002A400C13F4180DDB7B71700401307000323881F
:1002B400E702854723A2F1DA7300203097F0FFDFCD
:1002C400E7806093730020302303048015472303E1
:1002D400E48001002302A480828083076480E3CE4B
:1002E40007FE23030480828083076480E3CE07FE35
:1002F40003454480828083076480E3CE07FE2302A3
:10030400A4808280411126C44AC24EC006C6137717
:10031400F50BAD47AA892E8995446306F700194564
:100324006537653F8D444E854537FD59FD14639807
:100334003401B240A24412498249410182801355DA
:1003440009011375F50F453F2209CDB7011126CCDC
:1003540006CEB704080051371545BD3771376937E4
:100364002AC6A53F32459377150089EB136515001E
:100374001375F50FF240E24405618280FD14E9FC37
:100384000145CDBF397126DC4ADA4ED852D656D44F
:100394005AD25ED006DE62CE66CCB7E700E07D5767
:1003A40083AA070022C603AA470023A0E71823A2B2
:1003B400E718B7170040130770052380E7041307F5
:1003C40080FA2380E70483C74704930B75FFB68440
:1003D400E20793FBFB0F8546AA892E8B32893724CB
:1003E4000040E187015763FA76016308D500894626
:1003F400130700026313D5000157D98F93F7F70F42
:10040400B71C00402382FC0411472303E480130536
:10041400F00F5D3D094CD13563697C11B7070700C6
:100424003E9B378707007955637EEB02B3079B0039
:10043400636AF702A9476399F90689E48144713D27
:1004440026850DA0DA850945753D05090345F9FFA3
:10045400FD14050B4D3581C49377FB0FFDF7FD3576
:1004640069FD7D55B7170040130770052380E70425
:10047400130780FA2380E70403C74704418B2382D0
:10048400E704F250B7E700E023A0571123A2471175
:10049400E25432445259C259325AA25A125B825B14
:1004A400724CE24C21618280A5476395F906856907
:1004B4001309F00FB3069900B3742B01B6941349D2
:1004C400F9FFB3749900856B33796901416B9387A4
:1004D400F9FFB3F7270199E363FC340193D9490089
:1004E400C147E3E637FF99BF0569C1697D19D9B7EB
:1004F4001305800D63886901130500026384790183
:1005040013051008CA85FD3B913521DD4E99B3844E
:100514003441D9B7DA852D45F533CA94E30099F20D
:100524000509D933A30FA9FED5BF9387F9FF93F724
:10053400F70F636CFC0803C75C04B7070800137764
:10054400070219E3B78707007955E37DFBF033070A
:100554009B00E3E9E7F089476390F9048980D54972
:10056400E38E04ECDA850945713B11090327C9FFC1
:1005740091472320E48003076480E34E07FE2303AE
:100584003481FD17EDFBFD14110B81C49377FB0F30
:10059400E9FF6D3B71F5F1B58547E387F9F4DA8539
:1005A4002D458D339389F4FFE38A04E8353B93F7B3
:1005B400390091EB8326048003270900930749003F
:1005C400E39FE6E63E89CE84F1BFB5476396F90022
:1005D4001305900BD5399DB5B1471305B00AE38BCC
:1005E400F9FE9947639EF902DA852D45213B814442
:1005F4008D4BA149D5396396740183270480232048
:10060400F9008504E39834FF8327048013172B0132
:10061400635507002312F90015B52322F90039BDEB
:100624009D476399F90281451305B004E139BD443E
:100634002320090023220900FD597D3193F774001A
:10064400CA9703C70700FD14398D2380A700E396DA
:1006540034FFEDB3A1476392F904CD398144630DAE
:100664000B008D479304C0036308FB00930400054B
:1006740063048B01930440041375C507E30095DC00
:10068400194599319939054581312685AD31094599
:100694009D316D39E31405DAE9B391476399F900A3
:1006A40013056006153115391305900925B7E3873D
:1006B40009D8F15469B319CDB71700401307700571
:1006C4002380E704130780FA2380E7042396A70214
:1006D40023800704828019C1814799E98280338786
:1006E400F500834607003307F50085072300D7008C
:1006F400E397C7FEE5B719C1FD5781E982809105EB
:1007040003A7C5FF1105232EE5FE7D16E319F6FEAA
:10071400F5B7797122D4138481AF1C4006D626D252
:100724004AD04ECE81C7829723AC01AE5C4089CBC0
:1007340003D5018D49375C40829703D5218DA53FB0
:100744001C406396071483C711C3858B85C3A38894
:1007540001C203C731C3914763FAE7003D2383C74E
:1007640031C3F9178A07A2979C43829783C7C1C7ED
:10077400918B89C7970001E0E78080AB1C4491C34B
:1007840082979387C18C984303C691AD3E89938425
:1007940081AD83C781AD93961700BA9683D60600C0
:1007A400638F060C83C781AD63F3C70686073E9744
:1007B400835507002310070003D5018D2EC6E53DA0
:1007C4009387018E9C4303C581AD13172500BA9707
:1007D4009C43B2458297AA8903D5218DE93D83C7FD
:1007E40081AD1397170083270900BA9703D7070031
:1007F400B3E9E9002390370183C70400850793F721
:10080400F70F238CF1AC03C791AD63E4E700238CAD
:1008140001AC1C40ADEF9387818D98433E8425CB7A
:1008240083C771C381CB83C731C389E797F000E0E5
:10083400E780E06B1C4082972A8431C99C48AA97C0
:1008440023A4F1AE9387C18D9C43B1C303D5018D1D
:100854009D35228597F0FFDFE780202B9387C1A980
:10086400DC5389C797F0FFDFE780C0072254B250FA
:1008740092540259F24903D5218D45612DBD850756
:1008840093F7F70F238CF1ACE3E5C7F021BFB25027
:10089400225492540259F249456182809167B7C645
:1008A40000409387373023A6F6200F10000093876B
:1008B40081AD884F9387419C9C4331671307373040
:1008C400F053B7071000FD17918F99833A0523A6BB
:1008D400E6205D8D82804111B7170040985F3AC6CB
:1008E400945F3247E39CE6FE324541018280411128
:1008F40006C6D53783C601AB858AB1C293073033A8
:100904003307F502B337F5023983CA07D98F138742
:1009140081AD584B01456301F7023385E740636BB2
:10092400F70037653D0889C637856F0813050590BC
:10093400198D3E9523A6F1AEB24041018280E54770
:100944003307F502B337F5022583DE07C1B7032762
:10095400C50F8346B5009387C1C29C4F5843938605
:10096400160295829043FD1693F6F60F10C3D043FA
:1009740050C3904710C7D04750C7904B10CBD04BB3
:1009840050CB904F10CFD04F50CF91C613070702D2
:1009940093870702C1BF82808347E50193F7E70F7E
:1009A40091CB014582800145B240224492440249E0
:1009B400410182808347F501EDF783460501034732
:1009C400850099C60346A50283C711AB6367F60089
:1009D40093770701F9D7814789CA83470515834669
:1009E400F514418BA207D58F01CB034745158346E8
:1009F40035152207558FBA97CDD703C701AB4111DF
:100A04009316870106C622C426C24AC0E18663D172
:100A140006049387C71313D45700938741CEBC476A
:100A240083C4A1AB7D5903A70708637327013A89DF
:100A34009C43F5FB9387418E9C438297E365A9F61B
:100A44003305A94026943334850013451400A9BF07
:100A5400058B9387C71209CB8A071384F70393077F
:100A6400D0073354F40255BF86071384F701930764
:100A7400D003C5BF5D7122DE1384419B3AD2184076
:100A84003ED04ACA1C5F86C696C499839AC29EC049
:100A940026DC2ADA2ED832D636D442CE46CC72C8D8
:100AA40076C67AC47EC2858B1389019BB5C31C5F4D
:100AB4009384C1C293F7F7F91CDF83C7C1C293F7CC
:100AC400070489CF9387418E9C43829723AEA1C2AA
:100AD40083C7040093F7F70B2386F1C28547A388E5
:100AE400F1C283C7440093F7070491EB9387419CB9
:100AF4009C43D844B8D3930700FC2388F1C283876E
:100B0400640063D70700832709009C432389F1C24B
:100B140018401C5F8583858BC9CBF5571CDF01000A
:100B240001000100010001000100010001000100B9
:100B340001000100010001000100010001000100A9
:100B44000100010001000100010001000100010099
:100B54000100010001000100010001000100010089
:100B64000100010001000100010001000100010079
:100B74000100010001000100010001000100010069
:100B84000100010001000100010001000100010059
:100B94000100010001000100010001000100938730
:100BA400419C9C4313075004B8CB18401C5F9183AD
:100BB400858B99CBBD571CDF9387419C9C4323A80D
:100BC400070485472388F1C283270900D843058396
:100BD400058B19C7D843759BD8C3D843799BD8C311
:100BE4007254B640A64216438643E2545255C25547
:100BF4003256A256125782577248E2485249424E20
:100C0400B24E224F924F6161730020309387419C12
:100C140094431387C1C2BC5299CB83472700858B69
:100C240099E783473700858BFDD7238801C28280EB
:100C34009387019C9C4399CB944BD04B9842518F02
:100C440098C294439C479842D98F9CC29387419CF5
:100C54009C4337C700401306C003A8CB9306200368
:100C64009385C1C283278720C18393F7F703636900
:100C7400F60083278720C18393F7F70363E6F60022
:100C840083C74500858BF9DF82809387419C944319
:100C94001387C1C2BC5299C783470700858B91C78C
:100CA400238801C2A38801C2828083471700858BF1
:100CB400F5D3FDB79387019C9C4399CB944BD04BC0
:100CC4009842518F98C294439C479842D98F9CC2B2
:100CD4009387419C944337C70040C145A8CA6546E1
:100CE40083278720C18393F7F70363FBF5008327EA
:100CF4008720C18393F7F7036364F600BC52EDF3D6
:100D040082801387419B1843AA87185F1583058B3C
:100D140035EB0345150015051377C51F19C6B386B2
:100D2400E70083C626002300D60085C583C621C3F9
:100D340093F606040945A1CAB386E70083C63600C4
:100D4400054693F5F6066390C504E206E18663CC96
:100D540006023385E7008347150003470500A20711
:100D640093F70770D98F1397070141839376074050
:100D740099C613670780239EE19A01458280239ECA
:100D8400F19AE5BF05458280011136C89386419CDE
:100D94002ECC8C423AC63EC498452ACE32CA93170A
:100DA400070142C2C1831378172036853E86938695
:100DB400C1C2630008041377072061C303C7260078
:100DC400136717002387E1C213070019B8D113076B
:100DD40000F82388E1C21387419B0C4337080010B5
:100DE400D855719B13672700D8D5984133670701FD
:100DF40098C11377261001CF1376061051CA03C782
:100E04000600136717002386E1C2239A01C283C632
:100E1400460093C7F7FFC207E206E186C183184183
:100E240063DF06009396170163DB060630538D4695
:100E340063E7C60085462388D1C23453FDFE9386FA
:100E4400C1A98386460163DD060093960701C18626
:100E540063DB06047053894663E4C6007453FDFEE5
:100E640014477245E245F58F1CC75246C2463247C5
:100E7400A247124805617300203003C716001367A8
:100E84001700A386E1C2238801C2239A01C295B741
:100E940003C7360013671700A387E1C2BDB78546B1
:100EA4002388D1C269BF544713960601635D0600C7
:100EB400B7061000FD1674D3938681AD944E850653
:100EC40023A8D1AE71BFA166D58F59BF138781C442
:100ED4008346B70183C7D1C7B69793F7F70FFD468B
:100EE40063E0F6044C4BA384F1C483C791C4054763
:100EF4003317F700A38EF1C66D8F1DEB83C611C89F
:100F0400B3F6D70213050002814733D6F500058AEC
:100F140013F8F70F19CA6397E600A38401C582800A
:100F24008117C9B705071377F70F8507E39FA7FC58
:100F340082809387C19C9843B75702009387079F89
:100F4400832607091396560063580600832607096B
:100F54001396660063440600FD17FDF3828041C9C1
:100F6400AA870145D9C58D07C207C183F19BC20772
:100F7400C183130740036369F702138701A608437B
:100F8400138781A514436394A6021387C1A9185B30
:100F9400014525C34111C20706C60545DD8D0297EB
:100FA400B2400145410182801387C1A5C9BF0357DF
:100FB400650005EF035745006369F702B306F74080
:100FC40021466370D6021041938687001D8FAA962E
:100FD400611790C22392E6002393060014C12312E2
:100FE400F5002313B50021058280084169BF01453E
:100FF4008280828001CD938701A603A8070093878E
:1010040081A58C430147C28763E3B7008280944380
:10101400636FF50663EDA60613868700E368C5FED5
:1010240003D56700216605066317C50003C641970B
:101034000506238AC1962393070063840703138656
:10104400C1A51042630FF6000356670019EA83D75F
:10105400470014C383564700B697A1072312F7002D
:10106400BA879843E304B7FA9386C1A59442E30F81
:10107400D7F883566700D9FA83D64700035647004A
:101084001843A106B2962392D70098C382803E8764
:04109400B6879DBFBF
:10109800974100209381814C17710020130101F6BC
:1010A80013054000972500209385457517360020C5
:1010B8001306067E63FAC5008322050023A05500A7
:1010C80011059105E3EAC5FE17C50100130585AAB8
:1010D800973500209385C57B1386818763FAC50001
:1010E8008322050023A0550011059105E3EAC5FEFA
:1010F8001385818797650020938505C66377B500BA
:10110800232005001105E36DB5FE9302800873A046
:101118000230972200209382626E93E2120073904D
:10112800523097220000938202D3739012347300D6
:1011380020303D432A876373C3029377F700BDEFDE
:10114800ADE5937606FF3D8ABA960CC34CC30CC72F
:101158004CC74107E36BD7FE11E28280B306C34058
:101168008A069702000096966780A6002307B700B4
:10117800A306B7002306B700A305B7002305B700E9
:10118800A304B7002304B700A303B7002303B700E1
:10119800A302B7002302B700A301B7002301B700D9
:1011A800A300B7002300B700828093F5F50F93964C
:1011B8008500D58D93960501D58D61B79396270047
:1011C8009702000096968682E78086FA9680C11775
:1011D8001D8F3E96E374C3F8A5B7B717004003C741
:1011E80077051377E70FA38BE704130700F8A38DA0
:1011F800E7043D47238CE70413077003A38CE70437
:101208008280B717004003D587005D714EDE420526
:10121800418186C6A2C4A6C2CAC052DC56DA5AD8D0
:101228005ED662D466D26AD06ECE9377050C130769
:10123800000881496386E71813070004639AE714D6
:10124800B7240D8F7D8993840480B3D4A402916759
:10125800938707E8BE94A167938707D0B3D4F402B5
:10126800EF90815C97B70100938747F39043D4438D
:10127800EF904110EF90D11DAA8B939C040103D9E4
:10128800818793DC0C01631509000569130909803E
:10129800B7170040130770052380E704130780FA87
:1012A8002380E704B71A00400547939D0401096CA1
:1012B8002389E704514B01438145138D0A04130622
:1012C8007005930680FA094893DD0D01130C0C7123
:1012D800A9482300CD002300DD0023962A0323001C
:1012E8000D0083C72A05898BEDDF83D70A0583C7DD
:1012F8002A05898BEDFF83C72A05898BEDDF83D704
:101308000A05239C2187C207C18333859741131A95
:101318000501135A0A41630B0A143307BA02635EC4
:10132800070C05034203135303016368680C63D970
:10133800050A3305B04093150501C185C204C18073
:1013480063D7450B0965130505713385A502B717E2
:101358000040130770052380E704130780FA2380F1
:10136800E704239637032380070433459502420593
:101378004181B640264496440649F259625AD25AE7
:10138800425BB25B225C925C025DF24D61618280DD
:10139800B1E3B77489097D8993840480B3C4A40236
:1013A8009167938707E8BE94A167938707D0B3C472
:1013B800F402EF90614797B701009387A7DE7DB5E8
:1013C80097B70100938707DD856483AB0700938493
:1013D800843865B5930B0000954445B53A89D5BD69
:1013E800B387FC40139A0701135A0A4181BF096564
:1013F800130505713305AA028DBF3385B74163E430
:10140800FC003385FD40330585033344B50363C5CC
:10141800880013150401A9BF528532C636C4EF905F
:10142800C176DE85EF904147EF90017013130501F7
:10143800135303413307694042074183A2463246AA
:101448000948A948631AE9001307190063444001D1
:101458001307F9FF420741837D1B137BFB0FCA89E2
:10146800D285E31D0BF6239CE18665B7014511B7CC
:10147800B717004003D5870039715ECE4205418118
:1014880006DE22DC26DA4AD84ED652D456D25AD0B4
:1014980062CC66CA6AC86EC69377050C1307000843
:1014A800814B6388E71413070004639CE710B72493
:1014B8000D8F7D8993840480B3D4A40291679387A8
:1014C80007E8BE94A167938707D0B3D4F402EF90DE
:1014D800A13597B70100938767CC9043D443EF8039
:1014E8007169EF90E176AA89939A040103D9A187DB
:1014F80093DA0A0163150900056913090980B7170A
:101508000040130770052380E704130780FA23803F
:10151800E704139B04010547096A2389E704D14DB1
:10152800014D814C135B0B01130A0A714A85972000
:101538000020E7806038330C5541420C135C0C41A5
:10154800239D2187630A0C14B3079C0363D0070EFD
:10155800050D420D135D0D01894763E9A70D63DA97
:101568000C0A33059041931C050193DC0C41C2041D
:10157800C18063D78C0B0965130505713385AC02EF
:10158800B7170040130770052380E704130780FA94
:101598002380E704239677032380070433459502C5
:1015A80042054181F2506254D2544259B259225AEA
:1015B800925A025BF24B624CD24C424DB24D2161C1
:1015C8008280B1E3B77489097D8993840480B3C4A8
:1015D800A4029167938707E8BE94A167938707D011
:1015E800B3C4F402EF90412497B70100938787BBF7
:1015F800EDB597B701009387E7B9856483A907001C
:1016080093848438D5B5930900009544F1BD3E898B
:1016180031BF3385AA40131C0501135C0C4181BFFF
:101628000965130505713305AC028DBF63FEAA0079
:101638003305654133054503A9473344650363C84A
:10164800870013150401B1BF3305AB40E5B76285C8
:10165800EF90A153CE85EF902124EF90E14C131D1C
:101668000501135D0D41B307A941C207C183631A80
:10167800F90093071900634480019307F9FFC20733
:10168800C1831387FDFF937DF70FCA8BE28CE3902C
:101698000DF8239DF18675B7014529B741112A83B5
:1016A800014E930E407E130F0019930F400663EB13
:1016B8006E0A9308001913034006B3781503854E84
:1016C8000D4FA14F337365020D891335150063E57E
:1016D800BE0C1308F6FF79467298420813580801A1
:1016E8003307C70213D61700BE0732976146B3F611
:1016F800C60213068070B386C6023697A166F58FB8
:1017080042075D8FB717004083C6F70293F60608B5
:10171800A307D1000346F10083C6F70293F6060833
:10172800E394C6FE8346F10093F6F60FF1DE9306C6
:1017380070052380D704930680FA2380D70423AA50
:10174800070383C6170393E60608A388D702D8DBE6
:1017580003C7170313670704A388E7022380070456
:10176800410182807D133368E3039308E016630E1A
:1017780008003368F3039308D016630808009378C9
:10178800330093B818009388D81633081E01131E27
:101798000801135E0E0121BF6393E50305486386C4
:1017A80008000148630303002A8871087298FD1530
:1017B800131E0801C205135E0E01C18109BF13F88B
:1017C800150063F4BF007908D5B713381800E5BFD2
:1017D800914763EEB70217B701001307279D8A05E3
:1017E800BA959C41BA978287B717004003A7470B61
:1017F8001345F5FF698F23AAE70A03A7070B698F2B
:1018080023A8E70A03A7070A798D23A0A70A8280DD
:10181800B717004083A6470B1347F5FFF98E23AA95
:10182800D70A83A6070B558D23A8A70A83A6070AFC
:10183800758F23A0E70A8280B717004003A7470BDC
:10184800498F23AAE70A03A7070B1345F5FF45BFEE
:10185800B717004083A6470B1347F5FF758F23AAD8
:10186800E70A03A7070A598D4DB7B717004003A722
:10187800470B498FEDB7B717004003D587004205DE
:1018880041819377050491EB9377F5013755E8018A
:10189800130505803345F50282809377050C1307FD
:1018A80000046397E7009377F50137459C1CCDB793
:1018B8002165130505D08280B7F700E0C8439C472F
:1018C8008280814737370040A14663C4C70032850C
:1018D80082800345B740E38EA6FE3385F5000345B5
:1018E800050085072304A740CDB7411122C406C6C9
:1018F8002A8451372947B307E502B2408D83B3D70D
:10190800870222449507B3D7E70237370040C2075A
:10191800C1832316F7404101828071654111130587
:10192800052006C6D937B7370040130770F823815A
:10193800E7400D47A381E74013070004A380E74071
:1019480005472387E740B24041018280B7870040BE
:10195800238007001307C0FC2386E700A386E7005F
:1019680003D781D92398E70003D7C1D9239AE70081
:1019780003D701D9239CE70003D741D9239EE70069
:1019880089462381D70249472383E7022385E70253
:101998002387E7022389D702A38107001307900250
:1019A8002380E700B716004003D7A6011367070C8A
:1019B800239DE6007D572383E700130710F8A380D3
:1019C800E7001D472381E7008280B7870040238412
:1019D800A70203C7A7021377C70F2385E7028280F0
:1019E800797126D206D622D44AD04ECE52CC03C81C
:1019F8008500A144137808026311080683C805000E
:101A080009482E848144639A080503A84500AA89D9
:101A1800328A83471800034808003689A207B3E7CB
:101A28000701C2070D68C18713082890638007055E
:101A380081440357A4009737002083D707EB631E20
:101A4800F7009387C1879C4389CB0D473AC2231679
:101A5800210152C44C004E858297B25022542685EB
:101A680002599254F249624A456182808547EF5093
:101A78006063AA845DFD9387C187984355DB8347DC
:101A88001A0083460A004C00A207D58FB337F0002E
:101A980085073EC24E85029769BF011117A501004F
:101AA8001305057222CC26CA2EC606CEB28436C4C9
:101AB800EF900155B245214483C78500C18B9DEF46
:101AC80003C6050089470144A2466319F602D841B6
:101AD8008347170003470700A207D98FC2070D677E
:101AE800C18713072790639BE700CC452390C60066
:101AF8002685094697200020E780A03D2285F240F0
:101B08006244D2440561828041677917630CE5021B
:101B1800411122C406C685472A84639AF5002285A6
:101B28002244B2409385C1A741016F70E0178947ED
:101B38006396F5008545EF90203075D1B240224478
:101B4800410182808280411126C2AA844165938521
:101B5800C1A77D1506C622C4EF7000151705000041
:101B68001305C5FAEF90002597360020938646D8CE
:101B78004146994517350020130585D1EF70E007D8
:101B88002A8419C517A5010013054564EF9041473C
:101B98002285B240224423AE91869244410182803C
:101BA800411122C42E849385C1A726C206C6AA84E1
:101BB800EF50004A058915C197370020938747CD14
:101BC80083D7A702A285B2402310F40022442685B9
:101BD8009244014641016F604023B240224492443E
:101BE800494541018280CC41411106C6328503C670
:101BF800150083C5050022064D8E42068D65418677
:101C0800138875A2630C060F6348C804138845A29D
:101C18006306060B634AC800938535A26309B606B6
:101C280023900600294679A0138855A26308060B5D
:101C3800938565A2E316B6FEC1451D4663ECE5062D
:101C48004546198E63F3C7003E862390C60097A5C4
:101C580001009385655A89A8138895A26300060F29
:101C6800634E060B1388A5A2630A060F938505A584
:101C7800E318B6FA99451D4663EEE502198E63F33B
:101C8800C7003E862390C6009385818031A89D4574
:101C98001D4663E1E5022146198E63F3C7003E86BF
:101CA8002390C60093854188BA9597200020E78045
:101CB80040220146B240328541018280AD451D4631
:101CC800E3EAE5FE3146198E63F3C7003E862390AA
:101CD800C60097A501009385E555F9B7B1451D469E
:101CE800E3EAE5FC3546198E63F3C7003E86239088
:101CF800C60097A501009385E5547DB7C1451D46EB
:101D0800E3EAE5FA4546198E63F3C7003E86239059
:101D1800C60097A501009385654F79B7C1451D4653
:101D2800E3EAE5F84546198E63F3C7003E8623903B
:101D3800C60097A501009385E551BDB7C1451D466D
:101D4800E3EAE5F64546198E63F3C7003E8623901D
:101D5800C60097A501009385A54CB9B7B5451D46A2
:101D6800E3EAE5F43946198E63F3C7003E8623900B
:101D7800C60097A50100938525473DB797360020F3
:101D88009386C6CA4146CD4517350020130505B7C9
:101D98006F60B06603C88500214513780801631297
:101DA80008082D453DEF03C5050009476317E506FB
:101DB8003285D041411106C6034716000346060086
:101DC80041682207518F130628FE6308C70263691A
:101DD800E6000518630307032390060029451DA89C
:101DE800130648FE630BC7001518E31707FF1547CE
:101DF8003E866377F700154621A03E8691C30546C7
:101E0800CC452390C6004206418297200020E780F7
:101E1800400C0145B24041018280239006000545EF
:101E28008280828083C7850093F70702E1E341112E
:101E380006C622C426C24AC003C9050009432E8823
:101E48008547631B690203A345003284B684834730
:101E5800130003430300A207B3E767004163130EAF
:101E680013FE6382C7030D13638B67040D681308A1
:101E7800289063850707A947B24022449244024943
:101E88003E8541018280AD4765FB0547B547E3655F
:101E9800D7FE0325C8000546A28597200020E780C5
:101EA800400301499387418A9843814771D7184372
:101EB80061D72686A2854A850297814775BFAD47B7
:101EC80045FF0547B547E369D7FA0325C800054626
:101ED800A28597200020E780C0FFE9B72244B240DE
:101EE80092440249854741016F50C01BA1473E8576
:101EF800828041677917630CE502411122C406C646
:101F080085472A84639AF50022852244B240938546
:101F1800C1A841016F60505989476396F50085450E
:101F2800EF80907175D1B240224441018280828055
:101F3800411122C42A8441659385C1A87D1506C62E
:101F4800EF609056170500001305E5FA0588EF8045
:101F5800706605C02244B240973600209386C6BEFC
:101F68004146C54517350020130505AD41016F6091
:101F7800D048B240224401454101828009C523A2CC
:101F8800A18A01458280454582801147636EA70674
:101F980097A601009386462D0A05369518414111EA
:101FA80006C63697AE87B285028705476145639AAC
:101FB800E70005461385C18897200020E78060F177
:101FC8000145B2404101828005476145E39BE7FE38
:101FD800054613850189CDB705476145E393E7FEBB
:101FE800054613854189C9BF05476145E39BE7FC61
:101FF800054613858189C9B715476145E393E7FC11
:1020080015461385C1894DBF09458280411122C4F7
:102018002E849385C1A826C206C6AA84EF50400321
:10202800058915C197370020938707A183D7A70B88
:10203800A285B2402310F40022442685924401462A
:1020480041016F50905CB24022449244494541019D
:102058008280411106C6EFF0CF9ABD4763F4A7000E
:10206800EFF02F9AEFF0CFC0BD4763F4A700EFF071
:102078002FC0B24083D5A18703D5818741016F1056
:10208800005B411193962500AA852D4506C6972029
:102098000020E780E0AEB240014541018280411155
:1020A80022C426C24AC02A842E89B284AA859306ED
:1020B80000200146254506C697200020E78040AC51
:1020C800931629002686A285294597200020E780B7
:1020D80020ABB2402244924402490145410182802A
:1020E800011122CC06CE3714004026CA4AC84EC673
:1020F80052C483447405034AB405834984050349DB
:102108009405EFF08F8D8347A40593F4F40F137AA9
:10211800FA0F93E71700230DF40493F9F90F1379D5
:10212800F90FB717004003C7A705058B6DFF03D547
:10213800C705A38D4705238C3705A38C2705A38BDB
:102148009704F2406244D2444249B249224A0561A6
:10215800828041119397050122C406C6C1872E8447
:1021680063DD0700EF00D05C19C1EF00D055216591
:10217800218DB24022444101828093F7150013C596
:102188001500E5FB9397250163D00702EF10417313
:10219800C93537F60200130606E0896503C501DA7A
:1021A800EF1060220965E9B7939715010145E3D25D
:1021B80007FC17A501001305E510EF8071641306ED
:1021C8000064916503C501DAEF10E01F11654DB792
:1021D8001D71494697A501009385450A17A5010079
:1021E8001305054B86CEEF10400901E917A501003C
:1021F8001305050AEF80D16001A037F700E0F95711
:102208005CC7FD571CCB8566B7E700E023A0D71055
:102218001306701010C3B8434146B0C323A0D718A3
:10222800B8C3010001001306C00381454808EF0048
:10223800B07E973700209387E7313ECA8967938736
:102248000780231CF100ED47A301F1029307A010BA
:102258002312F102D1472303F102A167938707E014
:102268003ECE97070000938707E2BEC49707000099
:10227800938727E3BEC685472304F102B5472308A1
:10228800F10297F7FFFF938767633EDAB7F5070018
:1022980097070000938707E53EDE81469707000011
:1022A800938767DB7000E1051945BEC097200020C1
:1022B800E780008D58088147994670003E9603468E
:1022C800060085070507A30AC700E398D7FED2478B
:1022D80091C70357810185676373F70001A0480818
:1022E800EF10E045AA8501C917A50100130585FB74
:1022F800EF80713F01A0F6402561828041111705EA
:102308000000130545E506C622C4EF10804013847B
:1023180001DA2300A4002928034504002244B2401E
:1023280037F60200130606E0896541016F10A0091F
:10233800411106C6B7170040130770052380E7044C
:10234800130780FA2380E70403C7F7021377A70F60
:10235800A387E70203C7F70213672700A387E702EB
:10236800CD391305407E814701478146054685459D
:10237800EFF0CFB2B240014541016F10E05B9387A7
:1023880041DB23ACF1D8938741E723AEF1D893879B
:1023980041EF411123A8F1D8938781F706C623AAF4
:1023A800F1D8EFF0AFDAB240B7E700E03707400006
:1023B80023A0E71041018280938701D99C434111F2
:1023C80022C42E862E84AA851385070406C6EF80AC
:1023D800312622852244B24041016FF00FDF9387F6
:1023E80001D9AA8588436F005021B787004003C7E9
:1023F80067001377F70F937627006383064601116A
:1024080006CE22CC26CA4AC84EC603C77700930612
:10241800000313770703630BD70203C777009146BE
:102428001377F703630CD71E63E3E60C8546630551
:10243800D71C6309071C8946630DD7188D46630DA1
:10244800D71AB787004009472383E700378700403A
:1024580083477700E207E18763DE072C930720FCB8
:102468002301F702938681D9884203477500834781
:10247800650022075D8F2395E1DA834715002386DF
:10248800F1DA8344050013F604066305061E1307F4
:10249800000C6399E4321307F005639EE71897A7C9
:1024A80001009387A76823A8F1DA014409469387B6
:1024B80001DB8C43EF80D1179307F00F6301F426FB
:1024C80083D7A1DA930600043E8763F4F600130766
:1024D800000442074183998F9376F70F2395F1DA29
:1024E800B78700402380D702130700FC2DAC930662
:1024F8002002630AD70E63E3E6029306000263062E
:10250800D70493061002E31ED7F203C767021377B6
:10251800C70F136727002383E70225B79306300206
:102528006305D70E93064002E31DD7F003C72703C0
:10253800134707042389E70203C727031377C70F45
:10254800136727002389E702EDBD03C7C1DA954663
:102558006303D7069946631BD7069387A1DA03D48A
:10256800070013070004BE84637487001304000483
:10257800938781D9138901DB8843420483250900A5
:1025880041802286EF80D10A83D704009379F40F23
:10259800818F2395F1DA832709003E9423A881DAF5
:1025A800B78700402380370303C727021347070470
:1025B8002381E70279B503C7370083C6A1DA137709
:1025C8000708558FA381E7000947DDB72380070275
:1025D800E5BF03C7770013770704E30407E603C5DD
:1025E8008700F53BB9BD03C7A7021377C70F136769
:1025F80027002385E702B1B503C7770013770704DF
:10260800E30107E483C787002DBD03C7E7021377FB
:10261800C70F136727002387E70225B503C777008D
:1026280013770704E30F07E003C7270313470708D7
:102638002389E702C1BF130750091304F00F6399F8
:10264800E7028347350003472500A207D98F614772
:102658006397E70097A701009387874DA9B51947A6
:1026680001446397E70097A701009387A74C25BD0E
:10267800014635BD29466364F60A17A6010013060C
:10268800A6C48A07B2979C43B297828783473500CE
:10269800834625000946A207D58F93D68700638213
:1026A800C60A6368D6008547638FF6001304F00FE7
:1026B80009A88D456381B60A930720020144E39770
:1026C800F6FE814709A897A70100938727C523A885
:1026D800F1DA0144C947C207C18363F4E7002395CF
:1026E800F1DA9387A1DA03D607009307000463F4AD
:1026F800C70013060004938901DB1319060183A59B
:102708000900135909014A86EF80817203A609005E
:102718004A9623A8C1DA9307F00F6315F40AB7871E
:1027280000401307F0FC2381E702B7870040094700
:102738002383E700F2406244D2444249B24905612A
:10274800828097A701009387E7BA23A8F1DA0144AA
:102758009307700249B793F7F70F8546638ED70042
:102768008DC7E395C7F497A70100938767BD23A892
:10277800F1DA0144F14785B797A70100938747BB72
:1027880023A8F1DA0144B947B9B797A7010093879D
:10279800A73923A8F1DA0144914735BF83472500BB
:1027A8002395F1DA05A083C781DA2300F50003D762
:1027B800A1DA854763F8E7008547DDB78347250039
:1027C8002384F1DAE204E184E3CC04CE814609BB38
:1027D80013F7F4018947E314F7F48347450063814D
:1027E800E704636CF7000547E39BE7F2378700408F
:1027F8008347670293F7370799A013071008638880
:10280800E70213072008E39CE7F037870040834777
:10281800A70293F7C70B93E727002305F7025DB7D5
:10282800378700408347A70293F73707FDB73787F5
:1028380000408347670293F7C70B93E727002303FA
:10284800F70249B7230005009DB7230005009C4205
:10285800A380070003D7A1DA8947E3F5E7F689B72C
:10286800937617008DC2A381070009472381E702E9
:1028780049472383E7022385E7022387E7020547C1
:102888002383E700828093764700FDDA03C7570069
:102898001147FDB72A86B305B04017A501001305F7
:1028A800A5B76F804164011106CE19C58947630138
:1028B800F502F24005618280680097100020E780E9
:1028C800406117A50100130525C2EF806173D5B7D4
:1028D800680097100020E780C05F17A50100130566
:1028E80065C2E5B783D7018C6390A7022391B18CA9
:1028F8002392C18C2393D18C2E8617A50100130532
:10290800A5AFBE856F80215E17A50100130545B0F0
:102918006F80016F03574500011106CE83D7018CE4
:10292800631FF702C167F917894503C5C18123A051
:10293800F18C23A2018CEF00303F914503C5C18182
:10294800EF00903E85471306F1008545130550308A
:10295800A307F100EF50F103F2400561828017A54B
:1029680001001305E5AAEF80A169FDB77D1595471C
:1029780063E1A71617A701001307479E0A053A95B2
:102988001C41411122C406C6BA972E84828717A516
:1029980001001305E5A92244B24041016F80416658
:1029A80083C7250019476391E7022E85A53783451C
:1029B800640017A501001305A5A8EF80C15217A54B
:1029C80001001305A5A9C1BF0D47E38AE7FEB24080
:1029D80022444101828003C725009547E319F7FE89
:1029E800C16703D7018CF91703D5A500630FF7005A
:1029F800EF50B11F17A50100130545A7EF804160EF
:102A080017A50100130505A979B72390A18C83D7D1
:102A1800E5001306006403C5C1812391F18C83D7B7
:102A280005012392F18C83D7250189452393F18CE5
:102A3800EF007019096613060690A14503C5C18108
:102A4800EF0070180566130606C8914503C5C181D5
:102A5800EF0070170356E4008355A40017A5010082
:102A6800130505A2EF80214861BF03C725008D47E4
:102A780017A501001305C5A2E31BF7F429BF83C5F9
:102A8800250091476397F50017A501001305C5A216
:102A980019B79947639FF5002285AD3D83456400CA
:102AA80017A501001305C5992244B24041016F8062
:102AB80081439547639AF50083471400F1F717A5FA
:102AC8000100130525A1C1BD17A50100130505A126
:102AD800E1BF82809C410947638FE7000D4763820D
:102AE800E70205476393E704AA8517A501001305C4
:102AF800A58A6F80413FAA8517A501001305058C9B
:102B0800CDBF411122C42E8483D5850017A50100AD
:102B18001305058D06C6EF80013D834584004840B6
:102B28002244B24041016FF03F898280011193979E
:102B3800050122CC06CE26CAC1872E8463D6070497
:102B480003C5C181F526AA840DC90347050093076B
:102B5800000B6312F702034745009307F007631C55
:102B6800F7008355850017A501001305A580A383E9
:102B7800B182EF8041372685B9262165218DF24043
:102B88006244D2440561828093F7150091CF1726DD
:102B98000020130666029385018B03C5C181EF509F
:102BA800A13513451400E1BF93F72500ADCB1306FB
:102BB8000064894503C5C181EF00F000930780F8E0
:102BC8002302F10003C771828D4763EBE700179575
:102BD80001001305657BEF80A1421345240045B72A
:102BE8008547014781460546ED4503D5018C2315E8
:102BF800F100EF40E0012AC66DD10356A1004C0058
:102C080097100020E780E02C2C0003D5018CEFF012
:102C1800EFBF61D5ED452800EF4040177DBF93F722
:102C2800850085C383C7C181130740068146130603
:102C38004006994503D5018CEF5061251345840062
:102C48003DBF93F745000145E38B07F203D5018C9F
:102C5800EF5061790566130606C8914503C5C18121
:102C6800EF0060761345440019BF7971170500001D
:102C7800130505EC06D622D426D2EF0090299384BA
:102C8800C181994705442380A400231AF100100844
:102C980093074006854513055030231CF10023088F
:102CA8008100EF50014F17260020130626F3F14547
:102CB80013057030EF50E14D138601829D451305D1
:102CC8006030EF50014D5008894513051031EF5021
:102CD800414C3008894513052031EF50814B1726A8
:102CE8000020130626EED5450145EF30902E9305BA
:102CF80000050D45EF10D07F930500051145EF1035
:102D0800307F300891451305704023048100230665
:102D180081002308810002CC230A0100EF406122D0
:102D28003000854513050040EF40A121700085451E
:102D380013051040EF40E120500885451305204059
:102D4800EF4021201008854513055040EF40611FD2
:102D58007D55EF3070357D55EF50F071EFF00F82F3
:102D68007D55EFF0EF9C170500001305E5D6EFE061
:102D78009FDD89472306F1008D472308F10091471D
:102D8800230AF10093870187984383C747003000DF
:102D9800854501453ACC230EF10023048100EFF06C
:102DA800CF9E700085450545EFF02F9E100885459C
:102DB8000945EFF08F9D500885450D45EFF0EF9CD4
:102DC800300895451145EFF04F9CC1671387018C7A
:102DD800F9171CC32322070013858181EFF00F9A8E
:102DE8001385818AEF30013203C504008545ED2142
:102DF800B2502254925445618280411122C42E86D9
:102E0800239DB18A01472A848146ED4503D5018C6B
:102E180006C6EF30F05F23AEA18A05C903D6A18BA1
:102E2800A28597100020E780C00A01469385818B10
:102E380003D5018CEFE0DFD609C92244B240ED4545
:102E48001385818B41016F307074B2402244410177
:102E5800828041111305800406C697100020E78080
:102E680040AA371700408327870A8D45130500209D
:102E780093E707202324F70AEFE09F95EFE0FFA9E7
:102E880017A501001305C580EF808117EFF04FB437
:102E9800EFF0CFC6EF50A157C93BEFF04FCE9710D8
:102EA8000020E780C006E5BF23AC05FE1C4191E782
:102EB800010001000CC18280BA8703A787FF6DFF5C
:102EC80023ACB7FE82801DC18346E5FF1307F00FD0
:102ED8009147639EE600411106C697200020E780CF
:102EE8002091B24081473E854101828095473E85C9
:102EF800828001E9014582800145B24022444101B6
:102F08008280411122C42A84210542059305D004F8
:102F1800418106C697200020E780208471DDFD5797
:102F280023200500231285002303F5002105F1B7AE
:102F38001387818C1C43411122C426C24AC006C68D
:102F480001440149BA8489E7A165F92B0DC401A898
:102F580003C7E7FF6318A7021DC8A165B52E9840EF
:102F6800832784FF6317E40223A4F18CFD57232CE5
:102F780004FE230FF4FE2285B24022449244024903
:102F88004101828011E03E8983A787FF6DBF3E849F
:102F9800E5BF232CF9FED9BFB9C5411122C406C625
:102FA8002A8483C791AD2E856368F400293F0D45B7
:102FB800B24022444101828083A785FF99E703C775
:102FC800E5FF9307F00F6305F700F53D1545CDB70D
:102FD800238F85FE1385818CC13D22852244B24012
:102FE800A1654101D5AC1545828023A4018C82805E
:102FF8009387C18D9C4399E33E85828003D7270040
:103008006316B70003C70700E308A7FEDC47E5B768
:103018004111939705014AC006C622C426C2C1873A
:103028002E8963DE0700293711C1713D21653345BB
:10303800A900B24022449244024941018280AA86F2
:103048000145E5D901443D47B3578940858B95CB68
:103058009387418D8443BD4791E28147A2978E07AC
:103068000545BE9433158500131405019C40C840DE
:103078004180829723A0040023A204003345240141
:103088004DBF0504E312E4FC0144CDBF9387C1A9F9
:103098009C53411122C406C61384818295C7829726
:1030A80023A4A1820840B74703009387D73F33057D
:1030B800F502B7A72600938737ECB24022443E9525
:1030C80023A4A18241018280938781AD18409C4B43
:1030D800BA9723A4F182F9B79387C18C904383C62A
:1030E80091AD814713F7F70F6362D70803C731C360
:1030F800914763E4E70883C7C1C7918BBDEF01110E
:10310800680006CE22CC26CAEFB0D014FD56630163
:10311800D50C324783C7F1AA63F7E70A138781AD55
:10312800404703C701AB6301D406058B21CB514748
:103138003304E40263F9870897100020E78060F9F8
:10314800B2476373F400A28703C7F1AA998F3E952B
:103158009387C1A98387470163CD0702B707C0A832
:103168006369F502B70740573E9525A08507139771
:10317800170032970357E7FF35D78280130790026D
:103188003304E40205807DB762076187635707004F
:103198001D8D19E93705C0A801A8E37BF5FE37079F
:1031A800C0A8B307F7403E959387C1A9DC5382971F
:1031B80019E99387C1C29C4F99C7EF008132EF008C
:1031C8003101EF00E126F2406244D2440561828079
:1031D800938781ADDC47E388A7FE1387C1A983469F
:1031E8004701BA84858A9DC251443384870283C7C4
:1031F800F1AAE3FA87FC97100020E78080ED83C7E7
:10320800F1AA1D8C229583874401B9B71304900253
:10321800338487020580E1BF2A9609E58280050587
:10322800A30FB5FEE31DC5FED5BF81473307F500E3
:103238000307070019E33E8582808507C5BF011192
:103248002E8626CAAA84131506019305F004418127
:1032580022CC06CE32C697100020E78000502A8480
:1032680019C53246A68597100020E78080C62285BA
:10327800F2406244D2440561828081476314F600BB
:10328800054582803307F5008507B386F5000347B7
:10329800070083C6F6FFE383E6FE014582809307B5
:1032A800F6FFBE952A966313C5008280FD1583C775
:1032B80015000505A30FF5FEFDB7814711E9014586
:1032C80082803307F50003470700E31AB7FE850736
:1032D800E319F6FE0545828083C791AD637FF5004B
:1032E8001387C18C9317150008433E958357050033
:1032F800DD8D2310B500014582800D458280FD5784
:10330800011123A2F1AE9387C18D22CC804326CA36
:103318004AC84EC652C406CE56C22A8981449389E9
:10332800C1A9138A81AD184481476374E900B307C2
:10333800274103A749021CC419C70327CA0063F41D
:10334800E70023A2F1AEA1E3835524009DE55C4488
:10335800A1E423AEF18C832AC400228597100020B3
:10336800E7800049568461F0F2406244D244424901
:10337800B249224A924A0561828003450400A93F66
:103388005C4081CB1CC483572400F1D3A284404401
:10339800D9BF1C44CDDFC5BFDCC475BF83C791ADA1
:1033A8006371F5021387C18C93171500084393C501
:1033B800F5FF3E9583570500FD8D2310B5000145A7
:1033C80082800D45828083C791AD6364F500014515
:1033D8008280411122C426C24AC006C62A842E8988
:1033E800B284393101C504C505451DA0936504F0B3
:1033F800C205C181414597100020E780003619EDCC
:103408009387C1A99C5B81C7A28511458297014515
:10341800B240224492440249410182809387C18D7F
:103428009C438DE323AEA18C85472326050004C564
:103438002311250123008500A300F50023220500A0
:1034480065B7BA87D84775FFC8C7F9BF45C5397189
:103458005AD0138B418D22DC26DA4AD84ED652D464
:103468005ECE66CA6AC86EC606DE56D262CC368999
:10347800328AAE89AA8401445A8DB94D854BF94CDC
:1034880003270B00131C3400937AF40F62971C4334
:10349800A9EF13B5FA0013451500B3978B0063F62F
:1034A8005D01930714FFB397FB0093950701C18152
:1034B8005286113F1DC983270D000145E29784C339
:1034C80023A237016304090023005901F250625412
:1034D800D2544259B259225A925A025BF24B624C68
:1034E800D24C424DB24D216182800504E31A94F911
:1034F8002145E9BF09458280411122C426C24AC03C
:1035080006C6AA842E8932847D3DCA852685EFF0B9
:103518003FAE09C940C10145B24022449244024924
:10352800410182802145CDBF411122C426C24AC033
:1035380006C6AA842E89EFF0BFAB2A8419C12311CD
:103548000500CA852685993D014511E01945B24017
:10355800224492440249410182807547636BA70463
:103568001387418D1443411126C293143500A69642
:10357800944222C406C6AA873A84094595C613B55B
:10358800F7003947134515006373F700C5178545DC
:10359800B395F500C205C181413F1C400145A6977E
:1035A80023A0070023A20700B2402244924441010D
:1035B800828009458280411106C6EFF07FA309C5C4
:1035C8000845B240410182800145E5BFF54763EDFA
:1035D800A7049387418D9C4313173500BA979843E6
:1035E800894721C7011126CA06CE9334F50022CC9B
:1035F800B94793C4140063F3A70045150544331471
:10360800A400420441802EC62685A2856D378947CD
:10361800324609C5A28526857D338147F24062443A
:10362800D2443E850561828089473E858280239801
:10363800A18C2399B18C8280411106C623ACA18C40
:103648000295B24023A6A1AE014541018280994767
:1036580063E7B7008A05938781AFBE9588C18280EA
:10366800411106C622C426C2EF40716171468145E8
:10367800138581AF5536138481AD13060002228568
:103688008145593E23AE018C23AC018C83C781ABA5
:1036980013D527008D8B3E958D473305F502994745
:1036A800930510109384018E35051375F50F2301CA
:1036B800A4003305F5021305050F97100020E780D5
:1036C800C00923AAA18C834724001305050F88C0CD
:1036D8008A073E9523A6A18CEFF03F91452C83479E
:1036E80014009840170600001306C6929396270008
:1036F800BA9690C293862700850793F7F70FA30021
:10370800D400B24022448A07BA9790C39244410138
:10371800828083C791AD03C7A1AD63FFE70013871C
:10372800018E184393861700A38CD1AC939627007B
:10373800369708C33E8582809307F00FE5BF1C418A
:103748006389070E41777D8FB70600208947631389
:10375800D70E03574500630F070C411122C41946C1
:103768002A849305F00F590506C6EFF01FB50547E3
:103778008D47630BE50A1306C00381451385C1A96C
:10378800EFF09FA91306C003A2851385C1A997006E
:103798000020E780007403D781AA9387C1A909E7AD
:1037A800130700202394E1AA03C7A1AA01E705474C
:1037B8002385E1AA03C7B1AA01E76D47A385E1AA5A
:1037C80003C7C1AA01E715472386E1AA03C7D1AAFF
:1037D80001E70547A386E1AA03C711AB09E703C7B9
:1037E8000701A388E1AA03C7E1AA01E75147238794
:1037F800E1AA03C7A1AB09E713078002238DE1AA59
:1038080003C7F1AA09E71307D002A387E1AA034770
:10381800D40101E70947A38CE1AA9C5781C7829785
:10382800239FA1AC353D8147B24022443E854101EA
:10383800828089473E858280011122CC06CE2A8467
:103848002EC6EFF0BF84B245F240818D33A5A502A4
:10385800229562441375F50F05618280011122CC0F
:1038680006CE2A842EC6EFF07F82B245F240818DC3
:1038780033A5A502229562444205418105618280F3
:10388800011122CC06CE2A842EC6EFF03F80B24525
:10389800F240818D33B5A50222956244056182808C
:1038A8009387C1A9985731CB411122C426C206C6B5
:1038B800BE84029703D7E1AD2A8435C7BA876373FC
:1038C800A700AA87C207C183BA866373E400A286E9
:1038D800C206C182958F51476357F704DC5491C3E0
:1038E80082978547238AF1C2EFF0907D239F81ACB0
:1038F800B240224492444101828083C741C38DE390
:103908009387C1C283C79700850793F7F70FA38AE8
:10391800F1C2A18B8DC38547239AF1C26FF0507F06
:10392800A38A01C2E5BF83C741C3F9D32244B24089
:1039380092444101E5B782809387C1A9D857011104
:1039480022CC06CE3E8401C72AC60297324509CD4D
:1039580023A2A18E1705002013052579F139F2401D
:1039680062440145056182808307440163DB0700E7
:1039780023A801AE970700209387077223A2F18E30
:10398800D1BF970700209387C774CDBF011122CC00
:103998001384C1A9084406CE26CA19E50545F24094
:1039A8006244D244056182805C58EDDB185C7DD7A7
:1039B8007000854582971844B247E301F7FE8357A4
:1039C800C40003C5A1AA9305E0043305F502938456
:1039D80081AD4205418197100020E78000D823AAD5
:1039E800A1AE4DDD83D781AA03C6A1AA3306F6028C
:1039F8009305F00FEFF05F82D04C084483D781AA7B
:103A080008C283C5A1AAB385F5021C5C8981829787
:103A1800C84C97100020E780A0DD014523AA01AE1D
:103A2800BDBF411122C41384C1A91C4426C206C6C5
:103A3800938481ADA9CF1C5CB9CBDC4C8DE3835753
:103A4800C40003C5A1AA9305E0043305F5024205A5
:103A5800418197100020E78040D023AAA1AEC84C2E
:103A68001DC583D781AA03C6A1AA3306F60293050A
:103A7800F00FEFF06FFAD04C084483D781AA08C240
:103A880083C5A1AAB385F5021C5C89818297C84CBD
:103A980019C597100020E780A0D523AA01AEB2402F
:103AA80022449244014541018280011126CA93842F
:103AB80081AD22CCC04C4EC652C456C206CE4AC8AE
:103AC800AA8AAE89328A31E41389C1A98327890079
:103AD80099E3A94441A08357C90003C5A1AA930546
:103AE800E0043305F5024205418197100020E78084
:103AF800C0C62A8441C183274903ADCF83C5A1AA83
:103B080003D781AAB385E5022A860325890089811E
:103B1800829791451307A005898193972500A2975D
:103B280083C607006395E60483C61700639E5603A1
:103B380085058A054E86A295528597000020E78064
:103B48004039DC4C81446387870022859710002028
:103B5800E78000CAF240624426854249D244B2490D
:103B6800224A924A0561828083D5270075B7DC4CCA
:103B7800E38187F6228597100020E78060C791BF10
:103B88009387C1A9984729C39C5F9DCF8546631D2C
:103B9800D502411122C4138481AD504C06C60DC212
:103BA80083D681AA83C5A1AAB385D5023A8589811E
:103BB8008297484C97100020E78080C323AA01AE63
:103BC800B2402244410182808280938781ADD84FE0
:103BD800011122CC26CA4AC852C406CE4EC62A892A
:103BE800AE8432843E8A21EF9389C1A983D7C90064
:103BF80003C5A1AA9305E0043305F50242054181F6
:103C080097100020E78060B523AAA1AE2A8611E9A3
:103C18002945F2406244D2444249B249224A0561E8
:103C2800828003A5890001CD83A7490389CB83C579
:103C3800A1AA03D781AAB385E502898182970325C2
:103C4800CA0191461308A005FD5593D72600C2075F
:103C5800C183139727002A9703460700631B0603AF
:103C6800834817000356270063932803B306D640FA
:103C780063CD960085078A073E952686A28597001C
:103C88000020E7800025014569B7A300B700B28688
:103C98006DBF03D681AA83C5A1AAB385C5023386A1
:103CA80096001106E3E6C5F613863400719A1106EC
:103CB800B29623000701A30027012311D7005DBF97
:103CC800938781ADD44F8DCE91471306A0059305F8
:103CD800F00F89838A07B69703D7270003C5070023
:103CE80009830A073697631DC50003451700631645
:103CF800B500035727002391E70083D72700D1BFDA
:103D080001458280011106CE2EC6EF70600201C9FE
:103D1800B245F2400355250005616FA08022F240AC
:103D2800494505618280A38801902388019023ACCE
:103D3800018E23AE018E23A0019023A2019023AA15
:103D4800018E23A8018E938741B13707B40098C329
:103D58003747A000D8C3370710009306070A94C74F
:103D6800B7065000C106D4C7930607054107D8CB4C
:103D78003707D007410798CF3707840398D337C749
:103D88000700130707B8D8D3416794CB93060701F8
:103D9800130717F8D8D7417723AE070094D798DBD5
:103DA8008280011126CAAA84214522CC06CE2E84FF
:103DB80032C636C43AC2EFF0CF931DC9A2461247A5
:103DC8003246930700FD2300F5009947A3009500AC
:103DD8002301F5002303D500A303E5002312C50042
:103DE800AA8522856244F240D24405616FF0CF9AD9
:103DF800F2406244D2440561828023ACA18E828065
:103E080023AEA18E828023A0A190828023A2A190BC
:103E18008280011122CC4AC806CE26CA2A890144CA
:103E2800B30489006368B400F2406244D244424952
:103E3800056182802EC6EFF06FA593170501C18337
:103E4800A183B2452380F4009307140093F7F70F7A
:103E5800850463F9B700CA9709042380A70013747F
:103E6800F40F7DBF3E847DBFC16703D5E1B4FD1764
:103E78006300F502411103C6C1999385819006C676
:103E8800EF601056B240FD572397F1B4410182808C
:103E9800828009C925151375F50F1335850E13454D
:103EA800150082800145828023800500F94763E27E
:103EB800C708797122D426D24ECE56CA5AC806D619
:103EC8004AD052CC5EC63684B289AE8A2A8B8144E7
:103ED80063FF3405B307940003CA0700138914006D
:103EE8001379F90F63050A04B3072A0163C1F904BA
:103EF800B307240183CB07005E85613F0DC9930793
:103F0800FAFF2380FA0063906B03130519002295CA
:103F1800B250225492540259F249624AD24A424B50
:103F2800B24B45618280D29493F4F40F55B70145A2
:103F3800C5B701458280411126C2AE8422C423AE92
:103F4800C1B423ACB1B423AAA1B42A8441469305D1
:103F5800F00F26854AC006C60549EFF00FB6631A6A
:103F68002503938781B4884BC14565354146930540
:103F7800F00F2285EFF06FB4854463149502224454
:103F8800938781B4B24092440249C847C145410170
:103F980049B5414681452685EFF02FB2E31825FD46
:103FA800C9B7414681452285EFF02FB1E30995FC59
:103FB800B24022449244024941018280411122C404
:103FC80026C22E84AA84130600028145138581B473
:103FD80006C6EFF06FA4A38591B4A38F8198EF90E4
:103FE800D077854719C181474945B2402244238487
:103FF800F1B4924441018280814781CD19C9854736
:10400800631BF50083C7550093E707FCA382F500FF
:1040180085473E85828089476317F50083C7550029
:1040280093F7F703E5B70D478547E314E5FE03C7A4
:1040380055001377F70313670704A382E500D1BF80
:1040480081478DC105C103C755009306000C8547FC
:104058001377070C6308D700930600048D476303A2
:10406800D70089473E858280411122C4005D06C67B
:1040780026C21DC8AA84085009C597000020E780F9
:104088002077485009C597000020E78060760854DB
:1040980009C597000020E780A075228597000020B9
:1040A800E780007523AC0402B240224492444101E7
:1040B800828009E983C7A1B4138501B691C7138526
:1040C800818E8280138501B6828003C5A1B4828067
:1040D800938781B4C8478280938781B4884B828054
:1040E800938781B4DC4B88438280938781B4D84B13
:1040F8001C4385071CC303C5B1B49307F00F6305C0
:10410800F50091656FF04F9D8280011122CC06CE9B
:104118002E8432C6EF60D0509147B245631FF50038
:10412800938741909C438DC303A30700630E03004C
:1041380022856244F240056102839387C18F9C43C4
:1041480081C703A34700DDB7F24062440545056116
:104158008280011122CC2A840355450006CE26CA46
:104168004AC84EC6EF60503435C12A8983440500D9
:104178008349C500D53D4A85EF70D02303554400D7
:10418800EF60904583C70191B1C76395970483C5D4
:1041980011912685EFF01FB719E123880190035587
:1041A8004400EF60F0479147631BF5000357440054
:1041B80083D7E1B46315F700FD572397F1B4F240B4
:1041C8006244D2444249B2490561828081499304DC
:1041D800F00F4DBF9307F00FE383F4FC83466400B0
:1041E80003564400034524004E87A685EFF07FBBA5
:1041F8007DB779715EC6AA8B2E8552CC56CA5AC82D
:1042080006D622D426D24AD04ECEAE8A328B368AF1
:10421800EF60902979CD045D2A89E1CC9C506145F5
:1042280099C3130540039C5481C751054205418138
:1042380063050A00710542054181DC5081C75905B3
:1042480042054181EFE0FFCA2A8445C561468145A0
:10425800EFE09FFC83C941B46394090083490900D6
:10426800930700FD2300F400A947A300740123016C
:10427800F400230364018C502312540113058401B4
:1042880091C908C47146930A440397000020E78047
:1042980040C456858C5491C948C45146930A450177
:1042A80097000020E780E0C25685630C0A0008C822
:1042B8007146D285930AC50197000020E78060C146
:1042C8005685CC5099C548C8594697000020E780C4
:1042D80040C0A2854E85EFE03FCC2254B2509254A4
:1042E800F249624AD24A424BB24B4A850259456169
:1042F800A5BBB250225492540259F249624AD24A9A
:10430800424BB24B4561828001114EC6AA892E8567
:104318004AC806CE22CC26CA2E89EF60F01821C5DD
:1043280083C441B499E0834405001945EFE07FBC9C
:104338002A8415C981451946EFE01FEE930700FD51
:104348002300F400B947A30034012301F400231229
:104358002401A2856244F2404249B2492685D244EA
:1043680005616FE07FC3F2406244D2444249B249DA
:104378000561828039715ECEAA8B2E8526DA4ED6EB
:1043880052D456D25AD006DE22DC4AD8AE84328BBA
:10439800B68A3A8ABE8942C6EF60101121C92A89B5
:1043A8004145EFE01FB52A8431C141468145EFE020
:1043B800BFE603C541B419E103450900930700FDB1
:1043C8002300F400BD472301F400B247A3007401A1
:1043D8002312940023046401A30454012305440117
:1043E800A30534015CC4A285EFE01FBBF250625400
:1043F800D2544259B259225A925A025BF24B216165
:104408008280797126D2AA8439454AD04ECE06D602
:1044180022D42EC6B2893689EFE0BFAD21C1B2459C
:104428009307000D2310F500B1472A842312B50025
:104438002301F500CE851905194697000020E7806D
:1044480040A923062401A2852254B2500259F249F8
:1044580013F5F40F925445616FE01FB4B250225423
:1044680092540259F2494561828003C7B1B4930757
:10447800F00F6307F706411126C2AA84394522C402
:1044880006C64AC0EFE0FFA62A8429C5930700FDA7
:104498002300F500A300950023010500938501B6CC
:1044A8000D05194697000020E780A0A2138981B462
:1044B80083578900A28503C5B1B42315F400834747
:1044C80019002306F4002244B240924402494101F3
:1044D8006FE09FACB240224492440249410182807D
:1044E8008280011156C2AA8A314526CA4AC84EC6D8
:1044F80052C406CE22CCAE84328AB6893A89EFE01D
:104508005F9F39C52A842685EF60007A1DCD034553
:104518000500930700FD2300F4009D47A300540104
:104528002301F400231294002313440123143401BB
:1045380023152401A2856244F240D2444249B2497B
:10454800224A924A05616FE03FA503C5B1B4D1B7CD
:10455800F2406244D2444249B249224A924A056131
:104568008280397162CC2A8C594526DA4AD84ED6CF
:1045780052D456D25AD05ECE06DE22DCAE8432C683
:1045880036C4BA8B3E8BC28A468A835901040349D2
:104598004104EFE01F9635C53246930700FDA24659
:1045A8002300F5009547A301C500A3008501230159
:1045B800F5002A8419461105A9C2B685970000207E
:1045C800E780209123066401230A2401231574013E
:1045D800231754012318440123193401A285625476
:1045E800F2504259B259225A925A025BF24B624C2B
:1045F8002685D25421616FE03F9A8145EFE0DFC103
:10460800D1B7F2506254D2544259B259225A925AEE
:10461800025BF24B624C2161828083C7A1B49DC7C3
:104628004111AA8519461385818E06C69700002078
:10463800E780208A9385818E03C5A1B4EFF0DF9BC4
:10464800B2401385818E41016F90F011014582803F
:1046580003C7B1B49307F00F630FF706411126C2E1
:10466800AA84294522C406C6EFE0BF882A840DCD56
:10467800930700FD2300F500A1472301F500A300DF
:104688009500938781B483C727009385818E110590
:10469800A30FF5FE194697000020E7808083A285C6
:1046A80003C5B1B4EFE05F8F03C7A1B48D47631FA3
:1046B800F700938701909C4391CB03A3870063077E
:1046C80003002244B240924441010283B240224492
:1046D80092444101828003C7A1B48D47631AF70051
:1046E800938701909C4389C703A38700E31F03FCBA
:1046F8008280797122D406D626D24AD04ECE52CCA8
:10470800094445C92A89035505002E8A5144EF609A
:10471800A059AA8459CD83C7F199FD1793F7F70FCC
:10472800054749446377F7080347C500A147631461
:10473800F70063100A089C5C4544A5EF91659385D2
:1047480045711305C00297000020E780000188DC4E
:10475800AA894D4439CD1306C0028145EFE0DFAB8D
:10476800835709009386490036852391F9007146DD
:104778009305490036C697F0FF1FE7808075894783
:104788002380F90003C5C400B24603560900611529
:1047980083C5C19913351500EF80305C2A84630600
:1047A8000A00D2852685EF70006C01C42685EFF0DB
:1047B800BF8B2285B250225492540259F249624A60
:1047C8004561828083C7F199FD1793F7F70F054775
:1047D8006378F708894751C6011122CC26CA4AC80E
:1047E8004EC652C406CEAA89368AB2842E89EF6094
:1047F800A04B2A84D14729C9485509C597000020EC
:10480800E78000FFF1452685EFE07FA348D4CD4738
:1048180005CD8346C40021478147639FE600630DA9
:104828000A000347A5010356050193062501AA8539
:104838004E85EF60705BAA8703474400630F090049
:10484800136767002302E400F2406244D2444249FD
:10485800B249224A3E850561828013674700DDB769
:10486800C9473E858280E14763E9A700938741B144
:1048780006053E9503550500828041657D158280B9
:10488800011122CC2A842E8526CA06CEAE84EF607A
:10489800A0410DCDB7470F009387F723094563E281
:1048A800870281450A854146EFE01F97A6852310B8
:1048B80081000A85418023018100A3010100EF8066
:1048C800302CF2406244D244056182804945D5BF0C
:1048D800A38EA19882806F801041797152CC2A8A68
:1048E800328522D426D24AD04ECE56CA5AC85EC67F
:1048F80006D662C4AE8BB28A368BBA843E89C28928
:104908004684EF60603A15C92A8C63140A0213774B
:104918004B008347450015CF93E727012302FC008E
:104928008DEC631C0902639A090205E8ED9B2302DA
:10493800FC00832B8C03639F0B06B25022549254C5
:104948000259F249624AD24A424BB24B224C456163
:104958008280F59B93E70701D1B793E747002302CD
:10496800FC0001CC1C484146A2852324FC02130507
:104978008C0197F0FF1FE780C05563910B02D5D8D3
:104988000325CC0209C597000020E78060E6F145C1
:104998002685EFE0DF8A2326AC0261BFE30B09F826
:1049A8000325CC0209C597000020E78060E4F145A3
:1049B8004A85C5B79DC483A70B0299EB916593857A
:1049C8003571714597000020E78020D923A0AB02FC
:1049D80003A50B0219C57146A68597F0FF1FE7804E
:1049E800404F6388090283A74B0299EB9165938531
:1049F8002571594597000020E78020D623A2AB02F5
:104A080003A54B0219C55946CE8597F0FF1FE780CD
:104A1800404C1DC483A78B0299EB91659385157152
:104A2800514597000020E78040D323A4AB0203A59B
:104A38008B0219C55146A28597F0FF1FE780604990
:104A48002254B2509254F249B24B224CCA865A862A
:104A58000259424BD6855285D24A624A45616FF067
:104A68004FF9011126CA52C406CE22CC4AC84EC6F6
:104A78002A8AAE84EF60402335C1AA893945EFE020
:104A88004FC72A8421CD03C941B46314090003C95F
:104A980009009307000D2310F400AD472301F4002B
:104AA8009385690013053400194697F0FF1FE780C6
:104AB800404293F71400858085882306F400A306F6
:104AC800940023154401A2856244F240D244B249BD
:104AD800224A4A85424905616FE00FCCF2406244A0
:104AE800D2444249B249224A056182809387018FA4
:104AF800884301CD411106C697000020E78040CFCA
:104B0800B24023A8018E410182808280011106CE25
:104B180022CC26CA4AC82EC6EF60001929CDB24554
:104B280003C941B4AA840CD56314090003490500DC
:104B38004145EFE00FBC2A841DCD9307000D2310DB
:104B4800F500A5472301F50083C754009385640049
:104B58001105A30FF5FE194697F0FF1FE780603790
:104B68009C54A285F2405CC46244D2444A854249BE
:104B780005616FE06FC2F2406244D2444249056168
:104B88008280797122D406D62A842EC6EF60C0119D
:104B98000DCD8346C5001147AA8749456393E602B0
:104BA8009C5FB24599C383C567010808EF70A034BC
:104BB80097860000938666B9100889452285EF60BC
:104BC8007027B2502254456182805145DDBF83C7AA
:104BD800F199FD1793F7F70F0547637AF7048947AB
:104BE80021CA411122C426C24AC006C6B2842E89EF
:104BF800EF60800B2A84D14705C563080900834705
:104C0800450093E727002302F5004146A6851305D2
:104C1800840197F0FF1FE780C02B9C481CD4814774
:104C2800B2402244924402493E8541018280C947EC
:104C38003E858280797122D406D62A842EC6EF60FA
:104C4800A00601CDB2452285230EB1006C08EF7095
:104C5800001EB2502254456182805145DDBF6F600D
:104C68002012C1671387E7FF6394E5029387C18F1A
:104C78009C4391EB494582804945B2402244924485
:104C880002494101828003A30700E30503FE028372
:104C9800411122C426C24AC006C6FD172A892E849D
:104CA800B2846395F5029387C18F9C4391CB9C4353
:104CB80081CB829711E523882191A388919075BFB4
:104CC800A6854A85EFF00F844DF9F5B72E85EF508C
:104CD800B07D5DD1834705000D45E39027FB228514
:104CE8002244B2400249A685924441016F90602552
:104CF80061476360A7044111416722C406C626C202
:104D08007D172A8409456381E502C547AE8463158A
:104D1800F4002E85EF90A02A93171400138441B154
:104D2800A297239097000145B24022449244410142
:104D3800828009458280011106CE2AC6EFE0BFFEB7
:104D4800EF00307DEF00A070EF30612C3245938783
:104D580081B4130700F02391E700238207007D57F1
:104D68009387C199A380E7002380A700F240954567
:104D780005616F40F0185D7193970501CAC086C63A
:104D8800A2C4A6C24EDE52DC56DA5AD85ED662D427
:104D980066D26AD0C1872E8963D4074803C5C199F2
:104DA800EFE00F998964416A856A797B2A84938B3D
:104DB800D4007D1AA50A691B15E021653345A900B1
:104DC800B640264496440649F259625AD25A425B82
:104DD800B25B225C925C025D616182808347040061
:104DE8001307200A639BE7000355240003CCB1B4E2
:104DF8002286D285EFF06FB109AA1307100903CCF8
:104E0800D1996391E714834714001547639EE7001F
:104E18002285EFF00FB42285EFE0EF8A03C5C19930
:104E2800EFE00F912A8449BF39476393E71403558C
:104E38004400631355050C4483C90500639B0900AE
:104E4800850581C91946138501B697F0FF1FE780CC
:104E5800400803C781B485476316F70E63880900C5
:104E6800238401B44E85EFF04FE075B7894723845A
:104E7800F1B4EF90000F45B793872400631CF50445
:104E8800832984006380090C83C7090089EF83C7DD
:104E9800290003C71900A207D98F2398F1B483C743
:104EA8003900A384F1B403C781B48947631CF708A8
:104EB80083C7090091C7238401B403C5090065B7F6
:104EC8008D4783C591B403D501B52384F1B4EF4070
:104ED800F005E5B7938754006318F5001C4403C533
:104EE8000700EFF0EFF605BFB3076501C207C183FE
:104EF8001147636FF700938701909C43E38D07F098
:104F08009C43E38A07F022858297E31605F01DA8E3
:104F18009387B400631FF5009387818F9C43E38CCC
:104F280007EE9C43E38907EEA2851385B4008297B8
:104F3800E9BF9387C4006310F5021C4483C70700C8
:104F4800E38B07EC9307F00FE307FCECA28562857F
:104F5800EFE08F84E1B59387E400E315F5FE9387CE
:104F6800C18F9C43E38907EADC43A285E9F365B571
:104F78003D476395E70403554400E30275FF9387B3
:104F88009401E30EF5FC93873401E31DF5FA83D70A
:104F9800E1B4639E47019387C18F9C43E38D07E685
:104FA800DC43E38A07E6A2851385340149B7938772
:104FB80041909C43E38107E69C43E5B71307E00370
:104FC800E392E7F88347240005476392E70E834797
:104FD8006400138D018FE1E383270D00D5CB03CC4B
:104FE8000700A14903457400930C8400E685EFF09F
:104FF8002F8583474401A303A40083580401035861
:10500800E400035744002A86034534003EC2835710
:105018002401E686E2853EC0CE87EFF08FD4834731
:10502800340095E7DD47835804010358E4008346BC
:105038007400835544003EC28357240166870546A1
:105048003EC06285CE87EF503073A301A40083274A
:105058000D0081C71145EFF07FA903C50191E30C4D
:1050680005DA83C51191EFE0FFC9E30605DA834647
:10507800340093071003638AF600035644004E87F2
:1050880083C501913685EFE0DFD12388019061B3B4
:1050980003CCB1B4B9B7938701909C4303CCB1B4A6
:1050A8009149A9D3DC439DDF0145829725BF294754
:1050B8006391E70A83476400938C018FBDEF83A750
:1050C8000C00ADCB03CC0700A1490346740083470D
:1050D80004028358C401058AA303C4000358A40129
:1050E80003574400034534003EC28357E401130DBF
:1050F8008400EA863EC0E285CE87EFF08FC68347FC
:10510800340095E7DD478358C4010358A40183465A
:105118007400835544003EC28357E4016A870546FC
:105128003EC06285CE87EF503065A301A40083A7F7
:105138000C0005B703CCB1B441BF938701909C43E1
:1051480003CCB1B49149D1D3DC43C1D30145829793
:10515800ADBF0947639DE7009387818F9C43E38C2C
:1051680007CADC43E38907CA228582976DB12D47B8
:105178006399E7009387818F9C43E38E07C89C4718
:10518800D5B70D476397E70022868D450355440040
:1051980095B119476395E706930561011305103129
:1051A800EF20F1712C0813052031EF2051710356BF
:1051B8006400835781010355440063E8C7008356A0
:1051C80084000357610163F7E60093050002EF804E
:1051D800105E91B16374E6002313E40063F4D70012
:1051E8002314F4000357C4008356A4000356840014
:1051F8008355640001488147EF80305B29B91D471A
:10520800E392E7D403574400E3EEE7D29387C1BEA5
:1052180006073E9783576400F1172310F7001DB364
:1052280093F7150081CF9387818F9C4389C7DC430F
:1052380099C3014582971345190059B693F725007C
:1052480081CF938701909C4389C7DC4399C3054567
:10525800829713452900ADB693F745000145E381D0
:1052680007B69387418F9C4381CF85472386F1B446
:10527800938701909C4389C7DC4399C3054582976E
:10528800938781B4C8472C08EF70B0782808EFF0EE
:10529800CFB883D761B391CB130600643386C702B6
:1052A800914503C5C199EFE00F921345490009BE26
:1052B800411122C42A84554506C6EFF0CFDAB3352A
:1052C800A00022852244B24041016F80104B7971C1
:1052D80022D406D68D472E84631FF50003D7A50078
:1052E80083D6850003D665000345340083D5450081
:1052F800EFF02F9F09A889671387D7006310E5048B
:1053080003C5250019E58547B25022543E854561FD
:1053180082809387018F9443FDD603C6360083C5E8
:105328000600814802C202C0014881470147910630
:10533800EFF02FA30545EFF06FFBF1B71387E700F8
:10534800E303E5FC13873701631AE50003C525006D
:105358005DD9014781460146814559BFE507E30408
:10536800F5FA41677D178147E310E5FA03C7550051
:10537800C947E31AF7F883D6E50003D6C5000355F5
:10538800840083D5A500EF80104451C15D45EFF03E
:105398008FCD3335A000231CA1008345440003555D
:1053A80024003008EF50300583578101A9FF6C08AD
:1053B80013051031EF20B1509305E1011305203199
:1053C800EF20F14F8357C101035784006374F7003E
:1053D8002314F4008357E1010357A40063F4E700A2
:1053E8002315F400835584008357A40063F4B700A1
:1053F8002315B4000357E4008356C4000356A400E1
:105408000355240001488147EF803038EDBD8547BA
:10541800231CF10059B7C1671387E7FF639DE500B7
:105428009387018F9C4395C383C707000D47639CEF
:10543800A7006F80D034FD1749476396F50093871E
:10544800018F9C43FDF73A8582804947EDBF238E43
:10545800019023A2019223A00192938781B6170796
:1054680000001307E74798C3170700001307074B07
:10547800D8C3170700001307675B98C79387419144
:1054880017070000130767F998C3170700001307E9
:1054980047E4D8C3828079714AD01389419283271F
:1054A800090006D622D426D24ECE52CC56CA5AC8A5
:1054B80081EF0545B250225492540259F249624A8A
:1054C800D24A424B456182800347050085472A84BA
:1054D8006301F70403468500930695009305F100E0
:1054E8000545EFE07F9C814719C183470500834646
:1054F800040011476387E6021387019218438D461B
:1055080003471700630FD70089CF01CF11E5014585
:1055180055B781470145E1BF8546631DD7048D8B8B
:10552800FDD703451400130B2400DA85EFE05FB1C3
:10553800A300A400832709002A8A81499304F00F55
:10554800B1E3834604009147E383F6FC832709000F
:10555800DDDF03C6C19101479305F00FE309E6FAC1
:10556800BE84C10703C507FF6301B510050713779C
:10557800F70FEDB78946E31CD7F8858B55B7850932
:1055880093F9F90F83C7C191E3FDF9FA03250900DF
:10559800939A4900569583470500E38297FE83470F
:1055A8001500E39E47FD1946DA850905EFD0FFCCC3
:1055B80079D58324090003470400D694D9D09147AC
:1055C800631CF706C84405C58347840003460500E5
:1055D8006306F606034704009147631DF706C844AF
:1055E80019C597F0FF1FE780A02023A604000345F4
:1055F800840091659385E571050597F0FF1FE780A5
:10560800C01505C5034704009147631EF704C8C4C5
:1056180083478400930594000505A30FF5FE034610
:10562800840097F0FF1FE780C08A03458400333564
:10563800A00049B588C48DA8884471B79305940023
:105648000505EFD09FC38547E316F5F85545EFF0FC
:105658008FA1BDA8884441DD97F0FF1FE78040195E
:1056680023A4040069B788C465B72380D40083479E
:105678001400DA8513852400A380F400194697F0F6
:10568800FF1FE78000850345840091659385F571C8
:10569800050597F0FF1FE780400C05C50347040088
:1056A8009147E319F7F8C8C4834784009305940029
:1056B8000505A30FF5FE0346840097F0FF1FE7805A
:1056C800408183478400E39607DE034504007D1587
:1056D80013351500C5B3011122CC138441921C4027
:1056E80006CE26CA4AC84EC652C499CF2E8AAA8464
:1056F8000149084063129902630C0A0497F0FF1FDE
:10570800E780000F23A20192F2406244D24442494A
:10571800B249224A0561828093194900B3073501CD
:10572800884709C997F0FF1FE780800C1C40CE9777
:1057380023A407001C40CE97C84709C997F0FF1F4C
:10574800E780000B1C40BE9923A60900050955B740
:1057580045DD139644008145EFD01FAC14408147C6
:105768007D5613F7F70FE37197FA139747003697AB
:105778002300C7008507F5B7011152C4138A0192A7
:1057880083270A0006CE22CC26CA4AC84EC656C26D
:105798005AC0C9CF2A89014419ED9387419294438D
:1057A80099CA03C6C1912A8481479305F00F13F75C
:1057B800F70F6367C708131534002105EFD06FF39F
:1057C800AA8401E92145EFD0CFF2AA8421C501447A
:1057D8004D49930700FD2380F4008547A3802401E9
:1057E8002381F400A38184005DC41389840023A26B
:1057F80024018149938A4192130BF00F83C7C19109
:1058080063F3F90031E883270A00A68503C507007A
:10581800EFD08FF8814503C5C191753D03250A0076
:1058280097F0FF1FE780C0FC23A00192F24062447A
:10583800D2444249B249224A924A024B05618280C7
:10584800139747003697034707006305B700050419
:105858001374F40F8507A1BF83A70A009395490025
:10586800BE9583C70500638467032300F90083C7D7
:105878001500130529007D14A300F90019468905B0
:105888001374F40F97E0FF1FE780A06421098509CE
:1058980093F9F90FA5B723A20400B5B7411122C4A3
:1058A80006C62A8405E10945EFE0FFFB2A8611C5F3
:1058B800854503C5C199EFD01FB10545EFF05F9F3E
:1058C8002A8401C9854503C5C199EFD0FFC5228542
:1058D8006535B240224405454101828089671387B6
:1058E800B700631AE500938701929C439DC39C45CA
:1058F80003C5070065B71387C7008147631CE50028
:105908009C4503C50700854711C5938701929C43B1
:10591800F5F381473E858280797106D622D426D256
:105928004AD04ECE52CC56CA5AC85EC679C98347A9
:105938003500AA8985C7404115C05945EFE0BFF237
:10594800931A850193DA8A410149138A0192130B4C
:10595800000DB54B83C73900636DF900B25022546E
:1059680092540259F249624AD24A424BB24B4561BB
:1059780082808307840263CD570783270A00ADCB53
:105988002285EFF05FB12DC5034584005105EFD0A6
:105998004FD6AA8431CD23106501230175018347B1
:1059A8000400194693052400A301F5008307840227
:1059B80015052303F50083471400A30FF5FE97E0B0
:1059C800FF1FE7800051034684002386C4001DC6DC
:1059D8001385440188C89305940097E0FF1FE7806A
:1059E800404F83270A00A68503C50700EFD0CFDA0A
:1059F8000509130494021379F90FA9BF23A8040019
:105A0800CDB7938701929C43B1DBEFF0FFD62254C8
:105A1800B25092540259F249624AD24A424BB24BAE
:105A2800014545616FF0DF88797106D622D426D208
:105A38004AD04ECE52CC56CA5AC85EC671C18347A8
:105A48003500AA8985C7444195C05945EFE0BFE1B3
:105A5800931A850193DA8A410149138A0192130B3B
:105A680000FDC14B83C73900636DF900B250225461
:105A780092540259F249624AD24A424BB24B4561AA
:105A880082808387F40063C8570783270A00A5C765
:105A98005145EFD00FC62A8439CD23006501A300F4
:105AA80005002301750183C7040019469385240066
:105AB800A301F5008387F4001505A306F50083C745
:105AC8001400A30FF5FE97E0FF1FE780804083C70F
