:040000006F108019E4
:1000040000000000000000006F0080086F00E02284
:1000140000000000000000000000000000000000DC
:1000240000000000000000000000000000000000CC
:100034006F004006000000006F00E00500000000B3
:100044006F0080056F0060056F0040056F0020059C
:100054006F0000056F00E0046F00C00400000000A2
:100064006F0060046F0040046F0020046F00000400
:100074006F0060236F00C003000000006F00600386
:100084006F0040036F0020036F0000036F00E00265
:1000940001A001A001A001A001A001A001A001A054
:1000A40001A001A001A001A001A001A001A001A044
:1000B40001A001A001A001A001A001A0B717004068
:1000C400130770052380E704130780FA2380E704ED
:1000D4002396A70223800704371700408347270588
:1000E400898BEDDF835707053717004083472705C2
:1000F400898BEDFF3717004083472705898BEDDF98
:10010400035507058280B7170040930670052380C6
:10011400D704130780FA2380E70403C6B7041376D1
:10012400F60DA385C70423800704137605022DC6A4
:1001340003C6A700118A0DE22380D7042380E704B5
:1001440003C7A700136747002385E7009307004B05
:1001540001000100FD17EDFFB7170040930670057D
:100164002380D704130780FA2380E7047D8923942E
:10017400A70001000100010001002380070423807F
:10018400D7042380E7049306100537270040A30310
:10019400D780238007048280137605046DDE03C6AE
:1001A400A700418A0DE22380D7042380E70403C714
:1001B400A700136707012385E7009307007D01006B
:1001C4000100FD17EDFFB71700409306700523806B
:1001D400D704130780FA7D892380E7041365050497
:1001E4002394A700010001000100010023800704FB
:1001F4002380D7042380E704930630053727004083
:1002040079B74111814601468145114506C6AD22A3
:10021400B7170040130770052380E704130780FA1B
:100224002380E70403C76704136717002383E704E5
:1002340023800704B2404101828081460146814502
:1002440011451D2AB7170040130770052380E704E2
:10025400130780FA2380E7047D572396E70203C738
:100264006704136717002383E7042380070401A0AE
:10027400BD473305F50201007D1575FD82804111EE
:1002840022C426C206C6AA84014463179400B2405D
:10029400224492444101828005041305803E4204B5
:1002A400C13F4180DDB7B71700401307000323881F
:1002B400E702854723A2F18A7300203023030480D8
:1002C40015472303E48001002302A480828083076E
:1002D4006480E3CE07FE2303048082808307648066
:1002E400E3CE07FE03454480828083076480E3CE27
:1002F40007FE2302A4808280411126C44AC24EC054
:1003040006C61377F50BAD47AA892E899544630673
:10031400F70019456537653F8D444E854537FD59CE
:10032400FD1463983401B240A24412498249410148
:100334008280135509011375F50F453F2209CDB786
:10034400011126CC06CEB704080051371545BD3738
:10035400713769372AC6A53F32459377150089EB73
:10036400136515001375F50FF240E24405618280B0
:10037400FD14E9FC0145CDBF397126DC4ADA4ED8BB
:1003840052D656D45AD25ED006DE62CE66CCB7E7D9
:1003940000E07D5783AA070022C603AA470023A0D2
:1003A400E71823A2E718B717004013077005238046
:1003B400E704130780FA2380E70483C74704930BF9
:1003C40075FFB684E20793FBFB0F8546AA892E8B43
:1003D400328937240040E187015763FA76016308C4
:1003E400D5008946130700026313D5000157D98F3E
:1003F40093F7F70FB71C00402382FC041147230333
:10040400E4801305F00F5D3D094CD13563697C111F
:10041400B70707003E9B378707007955637EEB02D9
:10042400B3079B00636AF702A9476399F90689E455
:100434008144713D26850DA0DA850945753D050980
:100444000345F9FFFD14050B4D3581C49377FB0F6C
:10045400FDF7FD3569FD7D55B7170040130770059D
:100464002380E704130780FA2380E70403C74704C3
:10047400418B2382E704F250B7E700E023A0571131
:1004840023A24711E25432445259C259325AA25A51
:10049400125B825B724CE24C21618280A5476395BA
:1004A400F90685691309F00FB3069900B3742B019B
:1004B400B6941349F9FFB3749900856B33796901D4
:1004C400416B9387F9FFB3F7270199E363FC340188
:1004D40093D94900C147E3E637FF99BF0569C1696C
:1004E4007D19D9B71305800D6388690113050002CE
:1004F4006384790113051008CA85FD3B913521DD1C
:100504004E99B3843441D9B7DA852D45F533CA946D
:10051400E30099F20509D933A30FA9FED5BF938748
:10052400F9FF93F7F70F636CFC0803C75C04B70784
:1005340008001377070219E3B78707007955E37DAD
:10054400FBF033079B00E3E9E7F089476390F90484
:100554008980D549E38E04ECDA850945713B11099C
:100564000327C9FF91472320E48003076480E34EF7
:1005740007FE23033481FD17EDFBFD14110B81C429
:100584009377FB0FE9FF6D3B71F5F1B58547E38781
:10059400F9F4DA852D458D339389F4FFE38A04E871
:1005A400353B93F7390091EB832604800327090038
:1005B40093074900E39FE6E63E89CE84F1BFB54741
:1005C4006396F9001305900BD5399DB5B147130512
:1005D400B00AE38BF9FE9947639EF902DA852D454B
:1005E400213B81448D4BA149D539639674018327FE
:1005F40004802320F9008504E39834FF83270480D2
:1006040013172B01635507002312F90015B5232294
:10061400F90039BD9D476399F90281451305B0047A
:10062400E139BD442320090023220900FD597D310D
:1006340093F77400CA9703C70700FD14398D23800C
:10064400A700E39634FFEDB3A1476392F904CD39D3
:100654008144630D0B008D479304C0036308FB00C2
:100664009304000563048B01930440041375C507C8
:10067400E30095DC19459931993905458131268581
:10068400AD3109459D316D39E31405DAE9B391477C
:100694006399F9001305600615311539130590099E
:1006A40025B7E38709D8F15469B319CDB7170040CA
:1006B400130770052380E704130780FA2380E704F7
:1006C4002396A70223800704828019C1814799E9F0
:1006D40082803387F500834607003307F5008507DA
:1006E4002300D700E397C7FEE5B719C1FD5781E999
:1006F4008280910503A7C5FF1105232EE5FE7D1613
:10070400E319F6FEF5B7797122D417340000130407
:10071400649C1C4006D626D24AD04ECE91C78297FE
:100724009737000023A8079A5C4089CB03D5818CB6
:10073400AD3F5C40829703D5A18C853F1C40639CF0
:1007440007189737000083C777AC858B95C7973711
:100754000000A38D07AA17370000034757AB914742
:1007640063FCE7007D2B9737000083C757AAF9176E
:100774008A07A2979C4382979737000083C7C7AD27
:10078400918B89C7970001E0E780E0A01C4491C3E6
:1007940082979387418C98431736000003469691BD
:1007A4003E89973400009384E4909737000083C710
:1007B400679093961700BA9683D606006383061053
:1007C4009737000083C7078F63FBC70686073E97EA
:1007D400835507002310070003D5818C2EC6F135FD
:1007E4009387818D9C43173500000345A58C13170F
:1007F4002500BA979C43B2458297AA8903D5A18C58
:100804006D359737000083C7E78A1397170083274E
:100814000900BA9703D70700B3E9E9002390370129
:1008240083C70400850793F7F70F173700002303E6
:10083400F788173700000347F78763E6E700973721
:100844000000238907861C40D9E79387018D9843CC
:100854003E8451C39737000083C7B79B91CB97372A
:10086400000083C7D79A89E797F000E0E7804057F4
:100874001C4082972A8425C19C48AA9717370000F8
:100884002322F7849387418D9C43B1C703D5818C80
:10089400293D228597F0FFDFE780A0B49727000069
:1008A4009387877DDC5389C797F0FFDFE780408D0E
:1008B4002254B25092540259F24903D5A18C456195
:1008C400EDB3850793F7F70F972600002384F67E90
:1008D400E3EDC7ECF5B5B250225492540259F249F3
:1008E400456182809167B7C600409387373023A65D
:1008F400F6200F100000972700009387A77B884FEE
:100904009387C19B9C43316713073730F053B70774
:100914001000FD17918F99833A0523A6E6205D8D7B
:1009240082804111B7170040985F3AC6945F3247FE
:10093400E39CE6FE324541018280411106C6D5376B
:100944009726000083C68674858AB1C69307303320
:100954003307F502B337F5023983CA07D98F17274E
:10096400000013072775584B01456303F7023385CD
:10097400E740636BF70037653D0889C637856F0824
:1009840013050590198D3E9517270000232EF77245
:10099400B24041018280E5473307F502B337F502DF
:1009A4002583DE0765BF0327C50F8346B500973748
:1009B4000000938767859C4F58439386160295825F
:1009C4009043FD1693F6F60F10C3D04350C39047DF
:1009D40010C7D04750C7904B10CBD04B50CB904F43
:1009E40010CFD04F50CF91C6130707029387070249
:1009F400C1BF82808347E50193F7E70F91CB01459F
:100A040082800145B24022449244024941018280DD
:100A14008347F501EDF7834605010347850089CA3D
:100A24000346A5029727000083C757666367F6004D
:100A340093770701E9D7814789CA83470515834618
:100A4400F514418BA207D58F01CB03474515834687
:100A540035152207558FBA97DDD3172700000347B2
:100A6400E76241119316870106C622C426C24AC012
:100A7400E18663D506049387C71313D457009737C9
:100A840000009387E783BC479724000083C4A460D5
:100A94007D5903A70708637327013A899C43F5FB33
:100AA4009387C18D9C438297E36DA9F43305A940D4
:100AB40026943334850013451400A9B7058B938716
:100AC400C71209CB8A071384F7039307D00733545B
:100AD400F40275B786071384F7019307D003C5BFE3
:100AE4005D7122DE1384C19A3AD218403ED04ACABC
:100AF4001C5F86C696C499839AC29EC026DC2ADAF5
:100B04002ED832D636D442CE46CC72C876C67AC4F3
:100B14007EC2858B1389819AC1C31C5F9724000010
:100B24009384846E93F7F7F91CDF9727000083C73B
:100B3400A76D93F707048DC39387C18D9C43829758
:100B44009727000023AAA76C83C7040093F7F70B29
:100B540017270000230AF76A854717270000A30711
:100B6400F76A83C7440093F7070481EF9387C19B17
:100B74009C43D844B8D3930700FC172700002307ED
:100B8400F7688387640063D90700832709009C43BF
:100B940017270000230DF76618401C5F8583858B9B
:100BA400C9CBF5571CDF0100010001000100010061
:100BB4000100010001000100010001000100010029
:100BC4000100010001000100010001000100010019
:100BD4000100010001000100010001000100010009
:100BE40001000100010001000100010001000100F9
:100BF40001000100010001000100010001000100E9
:100C040001000100010001000100010001000100D8
:100C140001000100010001000100010001000100C8
:100C24000100010001009387C19B9C4313075004FA
:100C3400B8CB18401C5F9183858B89CFBD571CDFCF
:100C44009387C19B9C4323A807048547172700006B
:100C5400230EF75A83270900D8430583058B19C748
:100C6400D843759BD8C3D843799BD8C37254B64034
:100C7400A64216438643E2545255C2553256A256F2
:100C8400125782577248E2485249424EB24E224F9E
:100C9400924F6161730020309387C19B944317275F
:100CA400000013076756BC5289CF83472700858B02
:100CB40089EB83473700858BFDD79727000023876F
:100CC400075482809387819B9C4399CB944BD04B50
:100CD4009842518F98C294439C479842D98F9CC2A2
:100CE4009387C19B9C4337C700401306C003A8CB1E
:100CF40093062003972500009385055183278720B9
:100D0400C18393F7F7036369F60083278720C183C0
:100D140093F7F70363E6F60083C74500858BF9DF95
:100D240082809387C19B9443172700001307C74D04
:100D3400BC5289CB83470700858B91CB9727000052
:100D44002386074C97270000A382074C82808347A1
:100D54001700858BF1DFDDB79387819B9C4399CB8B
:100D6400944BD04B9842518F98C294439C479842DD
:100D7400D98F9CC29387C19B944337C70040C14518
:100D8400A8CA654683278720C18393F7F70363FBCB
:100D9400F50083278720C18393F7F7036364F60084
:100DA400BC52EDF382801387C19A1843AA87185F57
:100DB4001583058B25EF0345150015051377C51F0E
:100DC40019C6B386E70083C626002300D60095C55E
:100DD4009726000083C6A64393F606040945A1CAD4
:100DE400B386E70083C63600054693F5F60663909E
:100DF400C504E206E18663CC06023385E700834737
:100E0400150003470500A20793F70770D98F1397BE
:100E1400070141839376074099C613670780239A95
:100E2400E19A01458280239AF19AE5BF05458280C3
:100E3400011136C89386C19B2ECC8C423AC63EC45F
:100E440098452ACE32CA9317070142C2C183137848
:100E5400172036853E86972600009386E63A63047B
:100E640008041377072061CF03C726001367170010
:100E740017280000230BE83813070019B8D113070B
:100E840000F8972500002383E5381387C19A0C43A3
:100E940037080010D855719B13672700D8D598419F
:100EA4003367070198C11377261005C3137606101C
:100EB40045CA03C706001367170017260000230559
:100EC400E634172700002315073483C6460093C76A
:100ED400F7FFC207E206E186C183184163D1060227
:100EE4009396170163D7060830538D4663E9C6000D
:100EF400854617260000230BD6303453FDFE972673
:100F04000000938666178386460163DD0600939688
:100F14000701C18663D506067053894663E4C6009B
:100F24007453FDFE14477245E245F58F1CC75246C3
:100F3400C2463247A247124805617300203003C7F6
:100F440016001367170097250000A38FE52A1727BB
:100F54000000230D072A17270000231B072AA1B727
:100F640003C736001367170017260000A30FE628EF
:100F740089BF854617260000230AD62849B7544757
:100F84001396060163510602B7061000FD1674D3CA
:100F94009726000093860612944E850617260000B5
:100FA4002326D61241B7A166D58FADBF17270000FF
:100FB400130747278346B7019727000083C7D7291C
:100FC400B69793F7F70FFD4663EAF6044C4B972662
:100FD4000000A389F6249727000083C7B724054798
:100FE4003317F70097260000A388F6266D8F1DEFB0
:100FF4009726000083C69626B3F6D702130500028F
:10100400814733D6F500058A13F8F70F09CE6399A3
:10101400E60097270000A3870721828081177DB708
:1010240005071377F70F8507E39DA7FC8280938755
:10103400419C9843B75702009387079F832607096B
:101044001396560063580600832607091396660014
:1010540063440600FD17FDF3828051C9AA87014548
:10106400C9C98D07C207C183F19BC207C183130796
:101074004003636BF702138781A50843138701A517
:1010840014436396A602172700001307E7FE185BB4
:10109400014525C34111C20706C60545DD8D0297EA
:1010A400B240014541018280138741A5F9B7035736
:1010B400650005EF035745006369F702B306F7407F
:1010C40021466370D6021041938687001D8FAA962D
:1010D400611790C22392E6002393060014C12312E1
:1010E400F5002313B50021058280084159BF01454D
:1010F4008280828001CD938781A503A8070093870E
:1011040001A58C430147C28763E3B70082809443FF
:10111400636FF50663EDA60613868700E368C5FED4
:1011240003D56700216605066317C50003C6C1968B
:1011340005062386C1962393070063840703138659
:1011440041A51042630FF6000356670019EA83D7DE
:10115400470014C383564700B697A1072312F7002C
:10116400BA879843E304B7FA938641A59442E30F00
:10117400D7F883566700D9FA83D647000356470049
:101184001843A106B2962392D70098C382803E8763
:04119400B6879DBFBE
:10119800974100209381814517710020130101E6D2
:1011A80013054000972500209385456517360020D4
:1011B8001306067E63FAC5008322050023A05500A6
:1011C80011059105E3EAC5FE17C50100130585AEB3
:1011D800973500209385C57B1386818763FAC50000
:1011E8008322050023A0550011059105E3EAC5FEF9
:1011F8001385818797650020938505976377B500E8
:10120800232005001105E36DB5FE9302800873A045
:101218000230972200209382625E93E2120073905C
:101228005230971200009382424C7390123473002C
:1012380020303D432A876373C3029377F700BDEFDD
:10124800ADE5937606FF3D8ABA960CC34CC30CC72E
:101258004CC74107E36BD7FE11E28280B306C34057
:101268008A069702000096966780A6002307B700B3
:10127800A306B7002306B700A305B7002305B700E8
:10128800A304B7002304B700A303B7002303B700E0
:10129800A302B7002302B700A301B7002301B700D8
:1012A800A300B7002300B700828093F5F50F93964B
:1012B8008500D58D93960501D58D61B79396270046
:1012C8009702000096968682E78086FA9680C11774
:1012D8001D8F3E96E374C3F8A5B7B717004003C740
:1012E80077051377E70FA38BE704130700F8A38D9F
:1012F800E7043D47238CE70413077003A38CE70436
:101308008280B717004003D587005D714EDE420525
:10131800418186C6A2C4A6C2CAC052DC56DA5AD8CF
:101328005ED662D466D26AD06ECE9377050C130768
:10133800000881496386E71813070004639AE714D5
:10134800B7240D8F7D8993840480B3D4A402916758
:10135800938707E8BE94A167938707D0B3D4F402B4
:10136800EF90A17497B701009387470B9043D4433C
:10137800EF906128EF90F135AA8B939C040103D973
:10138800818793DC0C01631509000569130909803D
:10139800B7170040130770052380E704130780FA86
:1013A8002380E704B71A00400547939D0401096CA0
:1013B8002389E704514B01438145138D0A04130621
:1013C8007005930680FA094893DD0D01130C0C7122
:1013D800A9482300CD002300DD0023962A0323001B
:1013E8000D0083C72A05898BEDDF83D70A0583C7DC
:1013F8002A05898BEDFF83C72A05898BEDDF83D703
:101408000A05239C2187C207C18333859741131A94
:101418000501135A0A41630B0A143307BA02635EC3
:10142800070C05034203135303016368680C63D96F
:10143800050A3305B04093150501C185C204C18072
:1014480063D7450B0965130505713385A502B717E1
:101458000040130770052380E704130780FA2380F0
:10146800E704239637032380070433459502420592
:101478004181B640264496440649F259625AD25AE6
:10148800425BB25B225C925C025DF24D61618280DC
:10149800B1E3B77489097D8993840480B3C4A40235
:1014A8009167938707E8BE94A167938707D0B3C471
:1014B800F402EF90815F97B701009387A7F67DB597
:1014C80097B70100938747F5856483AB070093843A
:1014D800843865B5930B0000954445B53A89D5BD68
:1014E800B387FC40139A0701135A0A4181BF096563
:1014F800130505713305AA028DBF3385B74163E42F
:10150800FC003385FD40330585033344B50363C5CB
:10151800880013150401A9BF528532C636C4EF905E
:10152800F10EDE85EF90615FEF903108131305012E
:10153800135303413307694042074183A2463246A9
:101548000948A948631AE9001307190063444001D0
:101558001307F9FF420741837D1B137BFB0FCA89E1
:10156800D285E31D0BF6239CE18665B7014511B7CB
:10157800B717004003D5870039715ECE4205418117
:1015880006DE22DC26DA4AD84ED652D456D25AD0B3
:1015980062CC66CA6AC86EC69377050C1307000842
:1015A800814B6388E71413070004639CE710B72492
:1015B8000D8F7D8993840480B3D4A40291679387A7
:1015C80007E8BE94A167938707D0B3D4F402EF90DD
:1015D800C14D97B70100938767E49043D443EF90D8
:1015E8008101EF90110FAA89939A040103D9A18769
:1015F80093DA0A0163150900056913090980B71709
:101608000040130770052380E704130780FA23803E
:10161800E704139B04010547096A2389E704D14DB0
:10162800014D814C135B0B01130A0A714A859720FF
:101638000020E7806028330C5541420C135C0C41B4
:10164800239D2187630A0C14B3079C0363D0070EFC
:10165800050D420D135D0D01894763E9A70D63DA96
:101668000C0A33059041931C050193DC0C41C2041C
:10167800C18063D78C0B0965130505713385AC02EE
:10168800B7170040130770052380E704130780FA93
:101698002380E704239677032380070433459502C4
:1016A80042054181F2506254D2544259B259225AE9
:1016B800925A025BF24B624CD24C424DB24D2161C0
:1016C8008280B1E3B77489097D8993840480B3C4A7
:1016D800A4029167938707E8BE94A167938707D010
:1016E800B3C4F402EF90613C97B70100938787D3A6
:1016F800EDB597B70100938727D2856483A90700C2
:1017080093848438D5B5930900009544F1BD3E898A
:1017180031BF3385AA40131C0501135C0C4181BFFE
:101728000965130505713305AC028DBF63FEAA0078
:101738003305654133054503A9473344650363C849
:10174800870013150401B1BF3305AB40E5B76285C7
:10175800EF90C16BCE85EF90413CEF900165131D72
:101768000501135D0D41B307A941C207C183631A7F
:10177800F90093071900634480019307F9FFC20732
:10178800C1831387FDFF937DF70FCA8BE28CE3902B
:101798000DF8239DF18675B7014529B741112A83B4
:1017A800014E930E407E130F0019930F400663EB12
:1017B8006E0A9308001913034006B3781503854E83
:1017C8000D4FA14F337365020D891335150063E57D
:1017D800BE0C1308F6FF79467298420813580801A0
:1017E8003307C70213D61700BE0732976146B3F610
:1017F800C60213068070B386C6023697A166F58FB7
:1018080042075D8FB717004083C6F70293F60608B4
:10181800A307D1000346F10083C6F70293F6060832
:10182800E394C6FE8346F10093F6F60FF1DE9306C5
:1018380070052380D704930680FA2380D70423AA4F
:10184800070383C6170393E60608A388D702D8DBE5
:1018580003C7170313670704A388E7022380070455
:10186800410182807D133368E3039308E016630E19
:1018780008003368F3039308D016630808009378C8
:10188800330093B818009388D81633081E01131E26
:101898000801135E0E0121BF6393E50305486386C3
:1018A80008000148630303002A8871087298FD152F
:1018B800131E0801C205135E0E01C18109BF13F88A
:1018C800150063F4BF007908D5B713381800E5BFD1
:1018D800914763EEB70217B70100130727B58A05CA
:1018E800BA959C41BA978287B717004003A7470B60
:1018F8001345F5FF698F23AAE70A03A7070B698F2A
:1019080023A8E70A03A7070A798D23A0A70A8280DC
:10191800B717004083A6470B1347F5FFF98E23AA94
:10192800D70A83A6070B558D23A8A70A83A6070AFB
:10193800758F23A0E70A8280B717004003A7470BDB
:10194800498F23AAE70A03A7070B1345F5FF45BFED
:10195800B717004083A6470B1347F5FF758F23AAD7
:10196800E70A03A7070A598D4DB7B717004003A721
:10197800470B498FEDB7B717004003D587004205DD
:1019880041819377050491EB9377F5013755E80189
:10199800130505803345F50282809377050C1307FC
:1019A80000046397E7009377F50137459C1CCDB792
:1019B8002165130505D08280B7F700E0C8439C472E
:1019C8008280814737370040A14663C4C70032850B
:1019D80082800345B740E38EA6FE3385F5000345B4
:1019E800050085072304A740CDB7411122C406C6C8
:1019F8002A8451372947B307E502B2408D83B3D70C
:101A0800870222449507B3D7E70237370040C20759
:101A1800C1832316F7404101828071654111130586
:101A2800052006C6D937B7370040130770F8238159
:101A3800E7400D47A381E74013070004A380E74070
:101A480005472387E740B24041018280CC414111DC
:101A580006C6328503C6150083C5050022064D8ECD
:101A680042068D654186138875A2630C060F63488C
:101A7800C804138845A26306060B634AC800938509
:101A880035A26309B60623900600294679A0138873
:101A980055A26308060B938565A2E316B6FEC145F9
:101AA8001D4663ECE5064546198E63F3C7003E867E
:101AB8002390C60097B501009385859989A8138856
:101AC80095A26300060F634E060B1388A5A2630A4E
:101AD800060F938505A5E318B6FA99451D4663EEEA
:101AE800E502198E63F3C7003E862390C6009385EE
:101AF800818031A89D451D4663E1E5022146198E86
:101B080063F3C7003E862390C6009385C187BA95C4
:101B180097200020E780203B0146B24032854101F2
:101B28008280AD451D46E3EAE5FE3146198E63F332
:101B3800C7003E862390C60097B50100938505959A
:101B4800F9B7B1451D46E3EAE5FC3546198E63F35E
:101B5800C7003E862390C60097B50100938505947B
:101B68007DB7C1451D46E3EAE5FA4546198E63F39C
:101B7800C7003E862390C60097B501009385858EE1
:101B880079B7C1451D46E3EAE5F84546198E63F382
:101B9800C7003E862390C60097B50100938505913E
:101BA800BDB7C1451D46E3EAE5F64546198E63F320
:101BB800C7003E862390C60097B501009385C58B64
:101BC800B9B7B5451D46E3EAE5F43946198E63F31E
:101BD800C7003E862390C60097B5010093854586C9
:101BE8003DB7973600209386A6ED4146CD4517357B
:101BF80000201305E5D96F60303D03C885002145F5
:101C080013780801631208082D453DEF03C5050048
:101C180009476317E5063285D041411106C60347D7
:101C280016000346060041682207518F130628FE56
:101C38006308C7026369E600051863030703239076
:101C4800060029451DA8130648FE630BC700151892
:101C5800E31707FF15473E866377F700154621A06F
:101C68003E8691C30546CC452390C6004206418274
:101C780097200020E78020250145B240410182805D
:101C88002390060005458280828083C7850093F7EC
:101C98000702E1E3411106C622C426C24AC003C9AD
:101CA800050009432E888547631B690203A3450085
:101CB8003284B6848347130003430300A207B3E7C3
:101CC80067004163130E13FE6382C7030D13638B12
:101CD80067040D681308289063850707A947B24071
:101CE8002244924402493E8541018280AD4765FB0A
:101CF8000547B547E365D7FE0325C8000546A28515
:101D080097200020E780201C01499387C1899843C8
:101D1800814771D7184361D72686A2854A850297DD
:101D2800814775BFAD4745FF0547B547E369D7FA12
:101D38000325C8000546A28597200020E780A01843
:101D4800E9B72244B24092440249854741016F40B5
:101D5800906CA1473E85828041677917630CE50244
:101D6800411122C406C685472A84639AF500228554
:101D78002244B240938541A741016F60D02F894723
:101D88006396F5008545EF80505075D1B2402244E6
:101D9800410182808280411122C42A844165938551
:101DA80041A77D1506C6EF60102D17050000130525
:101DB800E5FA0588EF80F04405C02244B240973622
:101DC80000209386A6E14146C54517350020130536
:101DD800E5CF41016F60501FB240224401454101E7
:101DE800828009C523AEA18801458280454582804D
:101DF8001147636EA70697A601009386666C0A05CD
:101E080036951841411106C63697AE87B2850287C6
:101E180005476145639AE700054613854188972081
:101E28000020E780400A0145B24041018280054711
:101E38006145E39BE7FE054613858188CDB70547D5
:101E48006145E393E7FE05461385C188C9BF054789
:101E58006145E39BE7FC054613850189C9B715472A
:101E68006145E393E7FC1546138541894DBF094554
:101E78008280411122C42E84938541A726C206C6BA
:101E8800AA84EF401054058915C19737002093871D
:101E9800E7C383D7A70BA285B2402310F4002244DE
:101EA80026859244014641016F50102DB2402244CC
:101EB8009244494541018280411106C6EFF06FC442
:101EC800BD4763F4A700EFF0CFC3EFF06FEABD475B
:101ED80063F4A700EFF0CFE9B24083D5A18703D51B
:101EE800818741016F10C003411193962500AA858F
:101EF8002D4506C697200020E780C0C7B24001459F
:101F080041018280411122C426C24AC02A842E89F6
:101F1800B284AA85930600200146254506C6972067
:101F28000020E78020C5931629002686A28529452A
:101F380097200020E78000C4B2402244924402491E
:101F4800014541018280011122CC06CE37140040A0
:101F580026CA4AC84EC652C483447405034AB40507
:101F68008349840503499405EFF02FB78347A405F7
:101F780093F4F40F137AFA0F93E71700230DF40480
:101F880093F9F90F1379F90FB717004003C7A7059D
:101F9800058B6DFF03D5C705A38D4705238C370532
:101FA800A38C2705A38B9704F2406244D24442498C
:101FB800B249224A0561828041119397050122C4E2
:101FC80006C6C1872E8463DD0700EF00607F19C154
:101FD800EF0060782165218DB24022444101828062
:101FE80093F7150013C51500E5FB9397250163D0FA
:101FF8000702EF109100C93537F60200130606E014
:10200800896503C5018AEF00D04A0965E9B7939746
:1020180015010145E3D207FC17A50100130505507A
:10202800EF90212613060064916503C5018AEF002D
:10203800504811654DB71D71494697A50100938514
:10204800654917A501001305E57A86CEEF00303003
:1020580001E917A5010013052549EF90812201A088
:1020680037F700E0F9575CC7FD571CCB8566B7E723
:1020780000E023A0D7101306701010C3B8434146E0
:10208800B0C323A0D718B8C3010001001306C003CA
:1020980081454808EF00902597370020938747FD32
:1020A8003ECA896793870780231CF100ED47A30187
:1020B800F1029307A0102312F102D1472303F10282
:1020C800A167938707E03ECE97070000938707E252
:1020D800BEC497070000938727E3BEC6854723043D
:1020E800F102B5472308F102970700009387078D8F
:1020F8003EDAB7F5070097070000938707E53EDE4D
:10210800814697070000938767DB7000E105194552
:10211800BEC097200020E780E0A55808814799466F
:1021280070003E960346060085070507A30AC70008
:10213800E398D7FED24791C7035781018567637338
:10214800F70001A04808EF00B070AA8501C917A5DB
:1021580001001305A53AEF90210101A0F640256181
:102168008280411117050000130545E506C622C403
:10217800EF00906A1384018A2300A40029280345EC
:1021880004002244B24037F60200130606E08965CF
:1021980041016F001032411106C6B71700401307FE
:1021A80070052380E704130780FA2380E70403C738
:1021B800F7021377A70FA387E70203C7F70213678E
:1021C8002700A387E702CD391305407E81470147E1
:1021D800814605468545EFF06FDCB2400145410177
:1021E8006F10C00E2A86B305B04017A5010013056D
:1021F800E5386F807177011106CE19C589476301EB
:10220800F502F24005618280680097200020E7808F
:1022180080CB17A5010013056543EF908106D5B75C
:10222800680097200020E78000CA17A50100130561
:10223800A543E5B783D7818B6390A702239DB18A15
:10224800239EC18A239FD18A2E8617A501001305D4
:10225800E530BE856F80517117A5010013058531E2
:102268006F90210203574500011106CE83D7818B59
:10227800631FF702C167F917894503C5C18123ACFC
:10228800F18A23AE018AEF005039914503C5C18117
:10229800EF00B03885471306F10085451305503027
:1022A800A307F100EF50917EF2400561828017A5E7
:1022B80001001305252CEF80D17CFDB77D159547CE
:1022C80063E1A71617A70100130787250A053A95A2
:1022D8001C41411122C406C6BA972E84828717A5CD
:1022E80001001305252B2244B24041016F8071790A
:1022F80083C7250019476391E7022E85A5378345D3
:10230800640017A501001305E529EF80F16517A5FD
:1023180001001305E52AC1BF0D47E38AE7FEB24075
:1023280022444101828003C725009547E319F7FE3F
:10233800C16703D7818BF91703D5A500630FF70091
:10234800EF60C11A17A5010013058528EF80717386
:1023580017A501001305452A79B7239CA18A83D7BD
:10236800E5001306006403C5C181239DF18A83D764
:102378000501239EF18A83D725018945239FF18A88
:10238800EF003013096613060690A14503C5C18105
:10239800EF0030120566130606C8914503C5C181D2
:1023A800EF0030110356E4008355A40017A501007F
:1023B80013054523EF80515B61BF03C725008D4797
:1023C80017A5010013050524E31BF7F429BF83C5EE
:1023D800250091476397F50017A50100130505240B
:1023E80019B79947639FF5002285AD3D8345640081
:1023F80017A501001305051B2244B24041016F8057
:10240800B1569547639AF50083471400F1F717A56D
:10241800010013056522C1BD17A50100130545225A
:10242800E1BF828001119397050122CC06CE26CA0E
:10243800C1872E8463D6070403C5C1815126AA84A7
:102448000DC9034705009307000B6312F702034702
:1024580045009307F007631CF7008355850017A50F
:1024680001001305650DA383B182EF80F14F268526
:10247800DD242165218DF2406244D24405618280C9
:1024880093F7150091CF172600201306267C938515
:10249800018B03C5C181EF50913213451400E1BF90
:1024A80093F72500ADCB13060064894503C5C181A8
:1024B800EF003000930780F82302F10003C7718210
:1024C8008D4763EBE70017A5010013052508EF808A
:1024D800515B1345240045B78547014781460546AA
:1024E800ED4503D5818B2315F100EF4060292AC6FD
:1024F8006DD10356A1004C0097200020E780A09CD6
:102508002C0003D5818BEFF0DF9661D5ED452800CF
:10251800EF40A03E7DBF93F7850085C383C7C18187
:1025280013074006814613064006994503D5818B5B
:10253800EF505122134584003DBF93F745000145F4
:10254800E38B07F203D5818BEF50117A05661306EA
:1025580006C8914503C5C181EF00A0751345440025
:1025680019BF797117050000130505EC06D622D4AA
:1025780026D2EF00702A9384C181994705442380AD
:10258800A400231AF1001008930740068545130597
:102598005030231CF10023088100EF50314F1726DB
:1025A80000201306E66CF14513057030EF50114E0C
:1025B800138601829D4513056030EF50314D500858
:1025C800894513051031EF50714C300889451305C2
:1025D8002031EF50B14B172600201306E667D5458A
:1025E8000145EF309055930500050D45EF20201D5E
:1025F800930500051145EF20801C3008914513050F
:10260800704023048100230681002308810002CC46
:10261800230A0100EF40D11C300085451305004016
:10262800EF40111C7000854513051040EF40511B09
:102638005008854513052040EF40911A100885453C
:1026480013055040EF40D1197D55EF30F05C7D55B2
:10265800EF60401FEFF0EFD87D55EFF0CFF38947DB
:102668002306F1008D472308F1009147230AF10062
:1026780093870187984383C7470030008545014504
:102688003ACC230EF10023048100EFF06FF67000BE
:1026980085450545EFF0CFF5100885450945EFF06C
:1026A8002FF5500885450D45EFF08FF43008954516
:1026B8001145EFF0EFF3C1671387818BF9171CC33E
:1026C8002322070013858181EFF0AFF11385818AFA
:1026D800EF30312B03C504008545C929B250225477
:1026E80092544561828041111305800406C69710F3
:1026F8000020E7800021371700408327870A8D458F
:102708001305002093E707202324F70AEFF04F9CD6
:10271800EFF0AFB017A501001305C50DEF807136B6
:10272800EFF07F91EFF0FFA3EF50915E1D3D971002
:102738000020E780007DE5BF23AC05FE1C4191E742
:10274800010001000CC18280BA8703A787FF6DFFD3
:1027580023ACB7FE82801DC18346E5FF1307F00F47
:102768009147639EE600411106C697200020E78046
:102778002018B24081473E854101828095473E85B9
:10278800828001E9014582800145B240224441012D
:102798008280411122C42A84210542059305D00470
:1027A800418106C697200020E780E00A71DDFD57C9
:1027B80023200500231285002303F5002105F1B726
:1027C8001387018C1C43411122C426C24AC006C685
:1027D80001440149BA8489E7A16581250DC401A88E
:1027E80003C7E7FF6318A7021DC8A165C126984063
:1027F800832784FF6317E40223A0F18CFD57232C61
:1028080004FE230FF4FE2285B2402244924402497A
:102818004101828011E03E8983A787FF6DBF3E8416
:10282800E5BF232CF9FED9BFA9C9411122C406C6A8
:102838002A849747002083C777072E856368F400AA
:10284800193F0D45B24022444101828083A785FF8C
:1028580099E703C7E5FF9307F00F6305F700E53D28
:102868001545CDB7238F85FE1385018CF13522855B
:102878002244B240A165410115AE1545828023A0CE
:10288800018C82809387418D9C4399E33E858280A9
:1028980003D727006316B70003C70700E308A7FE9E
:1028A800DC47E5B74111939705014AC006C622C423
:1028B80026C2C1872E8963DE0700193711C1613D21
:1028C80021653345A900B24022449244024941019E
:1028D8008280AA860145E5D901443D47B35789401E
:1028E800858B95CB9387C18C8443BD4791E2814703
:1028F800A2978E070545BE9433158500131405016C
:102908009C40C8404180829723A0040023A2040071
:10291800334524014DBF0504E312E4FC0144CDBF57
:10292800974700209387C7F49C53411122C406C6D9
:102938001384818295C7829723A4A1820840B74750
:1029480003009387D73F3305F502B7A7260093877F
:1029580037ECB24022443E9523A4A18241018280F3
:1029680097470020938787F418409C4BBA9723A475
:10297800F182E9B79387418C90439746002083C63C
:10298800F6F2814713F7F70F6360D70A174700205D
:1029980003477707914763E0E70A9747002083C713
:1029A800270B918BC9EB0111680006CE22CC26CAF1
:1029B800EFB03055FD56630FD50C324797470020CE
:1029C80083C737EC63F3E70C17470020130707EEBC
:1029D8004047174700200347E7EA6305D406058BFD
:1029E80021CF51473304E40263F1870A971000208E
:1029F800E780E072B2476373F400A28717470020AC
:102A0800034737E8998F3E9597470020938747E615
:102A18008387470163CD0702B707C0A86369F5023A
:102A2800B70740573E9525A085071397170032979B
:102A38000357E7FF21DB8280130790023304E40287
:102A480005805DB762076187635707001D8D19E927
:102A58003705C0A801A8E37BF5FE3707C0A8B30770
:102A6800F7403E9597470020938787E0DC5382978D
:102A780009ED974700209387A7F89C4F99C7EF0067
:102A8800F112EF00516BEF00D106F2406244D244DC
:102A98000561828097470020938747E1DC47E386FA
:102AA800A7FE174700201307A7DC83464701BA840F
:102AB800858A9DC65144338487029747002083C77F
:102AC80057DCE3F487FC97100020E78040659747C0
:102AD800002083C717DB1D8C2295838744011DBF07
:102AE80013049002338487020580C1BF2A9609E542
:102AF80082800505A30FB5FEE31DC5FED5BF81473E
:102B08003307F5000307070019E33E858280850730
:102B1800C5BF01112E8626CAAA841315060193057E
:102B2800F004418122CC06CE32C697200020E780EF
:102B380080D22A8419C53246A68597100020E780DE
:102B480080382285F2406244D24405618280814700
:102B58006314F600054582803307F5008507B386C0
:102B6800F5000347070083C6F6FFE383E6FE014549
:102B780082809307F6FFBE952A966313C50082806C
:102B8800FD1583C715000505A30FF5FEFDB78147A1
:102B980011E9014582803307F50003470700E31A6E
:102BA800B7FE8507E319F6FE0545828097470020A2
:102BB80083C7D7CF637FF5001387418C9317150020
:102BC80008433E9583570500DD8D2310B500014568
:102BD80082800D458280FD57011117470020232D63
:102BE800F7CC9387418D22CC804326CA4AC84EC66B
:102BF80052C406CE56C22A89814497490020938937
:102C080029C7174A0020130A6ACA184481476374FF
:102C1800E900B307274103A749021CC409CB0327CE
:102C2800CA0063F6E700174700202327F7C8A1E387
:102C3800835524009DE55C44A1E423AAF18C832AF2
:102C4800C400228597200020E78080CA568455FC5E
:102C5800F2406244D2444249B249224A924A05614A
:102C680082800345040099375C4081CB1CC483579C
:102C78002400F1D3A2844044D9BF1C44CDDFC5BF92
:102C8800DCC475BF9747002083C757C26371F5023C
:102C98001387418C93171500084393C5F5FF3E959C
:102CA80083570500FD8D2310B500014582800D4531
:102CB80082809747002083C777BF6364F50001458A
:102CC8008280411122C426C24AC006C62A842E899F
:102CD800B2844D3E01C504C505452DA0936504F099
:102CE800C205C181414597200020E780C0B60DE1AB
:102CF800974700209387C7B79C5B81C7A28511457A
:102D080082970145B240224492440249410182809F
:102D18009387418D9C438DE323AAA18C8547232665
:102D2800050004C52311250123008500A300F50033
:102D38002322050055B7BA87D84775FFC8C7F9BF1A
:102D480045C539715AD0138BC18C22DC26DA4AD892
:102D58004ED652D45ECE66CA6AC86EC606DE56D253
:102D680062CC3689328AAE89AA8401445A8DB94D1B
:102D7800854BF94C03270B00131C3400937AF40F8E
:102D880062971C43A9EF13B5FA0013451500B397D2
:102D98008B0063F65D01930714FFB397FB009395CF
:102DA8000701C181528631371DC983270D000145AE
:102DB800E29784C323A23701630409002300590161
:102DC800F2506254D2544259B259225A925A025B72
:102DD800F24B624CD24C424DB24D216182800504C7
:102DE800E31A94F92145E9BF09458280411122C4BB
:102DF80026C24AC006C6AA842E8932845D3DCA8589
:102E08002685493409C940C10145B240224492444B
:102E18000249410182802145CDBF411122C426C209
:102E28004AC006C6AA842E89EFF0DFA52A8419C1F4
:102E380023110500CA852685B135014511E01945DC
:102E4800B240224492440249410182807547636B33
:102E5800A7041387C18C1443411126C2931435006B
:102E6800A696944222C406C6AA873A84094595C6FE
:102E780013B5F7003947134515006373F700C517F5
:102E88008545B395F500C205C181413F1C40014508
:102E9800A69723A0070023A20700B2402244924429
:102EA8004101828009458280411106C6EFF09F9D4D
:102EB80009C50845B240410182800145E5BFF54793
:102EC80063EDA7049387C18C9C4313173500BA9709
:102ED8009843894721C7011126CA06CE9334F500C5
:102EE80022CCB94793C4140063F3A70045150544E1
:102EF8003314A400420441802EC62685A2856D376E
:102F08008947324609C5A285268565338147F2403F
:102F18006244D2443E850561828089473E8582802D
:102F28002394A18C2395B18C8280411106C623A8D5
:102F3800A18C0295B2409747002023A3A79801458A
:102F480041018280994763E9B7008A0597470020C5
:102F58009387C797BE9588C18280411106C622C44F
:102F680026C2EF50E16171468145174500201305DF
:102F7800E595AD3E17440020130444931306000260
:102F880022858145A53623AA018C23A8018C974761
:102F9800002083C7A78F13D527008D8B3E958D47BB
:102FA8003305F5029947930510109384818D3505F3
:102FB8001375F50F2301A4003305F5021305050F5A
:102FC80097200020E780208923A6A18C834724002E
:102FD8001305050F88C08A073E9523A2A18CEFF040
:102FE8001F8A992683471400984017060000130685
:102FF800A68B93962700BA9690C2938627008507DA
:1030080093F7F70FA300D400B24022448A07BA9777
:1030180090C39244410182809747002083C7178953
:10302800174700200347A78863F1E7021387818DBC
:1030380018439386170017460020A309D68693964F
:103048002700369708C33E8582809307F00FE5BFB7
:103058001C416386071441777D8FB7060020894796
:103068006310D71403574500630C0712411122C49B
:1030780019462A849305F00F590506C6093E0547E7
:103088008D476309E5101306C003814517350020F5
:103098001305057EEFF09FA51306C003A28517351B
:1030A80000201305E57C97100020E780C0E1173762
:1030B80000200357A77C973700209387677B19E781
:1030C8001307002097360020239AE67A1737002046
:1030D8000347E77A11E70547973600202381E67A08
:1030E800173700200347B77911E76D479736002057
:1030F800A387E678173700200347877811E7154735
:1031080097360020238EE676173700200347577737
:1031180011E7054797360020A384E6761737002085
:103128000347577619E703C7070197360020A38B93
:10313800E674173700200347C77411E751479736DD
:1031480000202380E674173700200347477419E7E7
:103158001307800297360020238BE672173700206A
:103168000347377219E71307D00297360020A38A5E
:10317800E6700347D40111E7094797360020A38773
:10318800E6709C5791C78297973700202393A772C0
:10319800E9338147B24022443E8541018280894714
:1031A8003E858280011122CC06CE2A842EC6EFF0FD
:1031B8002FF7B245F240818D33A5A50222956244CE
:1031C8001375F50F05618280011122CC06CE2A8481
:1031D8002EC6EFF0EFF4B245F240818D33A5A5027B
:1031E800229562444205418105618280011122CC09
:1031F80006CE2A842EC6EFF0AFF2B245F240818D9A
:1032080033B5A50222956244056182809737002074
:1032180093870766985725C3411122C426C206C65C
:10322800BE840297173700200357A7682A8441C72E
:10323800BA876373A700AA87C207C183BA86637374
:10324800E400A286C206C182958F51476355F706EE
:10325800DC5491C382978547173700202306F77AF5
:10326800EF00A1599737002023958764B240224484
:103278009244410182809737002083C7E7789DE711
:10328800973700209387C77783C79700850793F7F9
:10329800F70F17370020A309F776A18B9DC785473D
:1032A800173700202312F7766F00E15A973700206E
:1032B800A38C0774D5BF9737002083C7E774DDD781
:1032C8002244B24092444101C5B78280973700201A
:1032D8009387075AD857011122CC06CE3E8401C7DE
:1032E8002AC60297324509CD23AEA18C17150020B6
:1032F800130565E41D39F240624401450561828089
:103308008307440163DD07009737002023AC075A81
:10331800971700209387C7DC23AEF18CC1BF97179E
:1033280000209387C7DFCDBF011122CC17340020BE
:1033380013040454084406CE26CA19E50545F2408C
:103348006244D244056182805C58EDDB185C7DD70D
:103358007000854582971844B247E301F7FE83570A
:10336800C40017350020034585519305E004330553
:10337800F5029734002093846453420541819710E5
:103388000020E780404D17370020232FA7525DD536
:103398009737002083D7874E173600200346264EDE
:1033A8003306F6029305F00FEFF04FF4D04C0844C3
:1033B8009737002083D7874C08C29735002083C5EC
:1033C800054CB385F5021C5C89818297C84C97101F
:1033D8000020E780E05101459737002023A6074EDB
:1033E800B9BF411122C417340020130464481C4497
:1033F80026C206C6973400209384444BADCB1C5C90
:10340800BDC7DC4C8DE78357C40017350020034542
:1034180005479305E0043305F502420541819710FD
:103428000020E78040439737002023AFA748C84CC7
:103438001DCD9737002083D76744173600200346F1
:1034480006443306F6029305F00FEFF02FEAD04C4E
:1034580008449737002083D7674208C29735002071
:1034680083C5E541B385F5021C5C89818297C84C08
:1034780009C997100020E780A0479737002023A5A7
:103488000744B2402244924401454101828001111F
:1034980026CA973400209384644122CCC04C4EC67F
:1034A80052C456C206CE4AC8AA8AAE89328A31ECBC
:1034B800173900201309C93B8327890099E3A944D8
:1034C80071A08357C900173500200345453B930574
:1034D800E0043305F5024205418197100020E7809A
:1034E80080372A8441C583274903C9C397350020FB
:1034F80083C5E5381737002003574738B385E502F9
:103508002A86032589008981829791451307A0059A
:10351800898193972500A29783C607006395E604DF
:1035280083C61700639E560385058A054E86A295B5
:10353800528597100020E7800099DC4C814463870E
:103548008700228597100020E780803AF240624485
:1035580026854249D244B249224A924A056182806C
:1035680083D5270075B7DC4CE38B87F42285971049
:103578000020E780E037A1B7973700209387472FCF
:10358800984729CB9C5FB9C785466315D504411177
:1035980022C41734002013046431504C06C61DC6DB
:1035A8009736002083D6862D9735002083C5252D94
:1035B800B385D5023A8589818297484C97100020B7
:1035C800E78000339737002023A00730B240224419
:1035D800410182808280973700209387272DD84F1A
:1035E800011122CC26CA4AC852C406CE4EC62A8920
:1035F800AE8432843E8A35E797390020938949277B
:1036080083D7C90017350020034565279305E004D3
:103618003305F5024205418197100020E780A02379
:103628009737002023A2A72A2A8611E92945F240C4
:103638006244D2444249B249224A0561828003A5C4
:10364800890005C183A7490389CF9735002083C521
:1036580005231737002003576722B385E5028981C0
:1036680082970325CA0191461308A005FD5593D7F3
:103678002600C207C183139727002A97034607002D
:10368800631B060383481700035627006393280328
:10369800B306D64063CD960085078A073E952686F1
:1036A800A28597100020E7800082014549B7A30052
:1036B800B700B2866DBF173600200356261C973513
:1036C800002083C5C51BB385C50233869600110645
:1036D800E3EEC5F413863400719A1106B2962300FE
:1036E8000701A30027012311D7007DB797370020D2
:1036F8009387C71BD44F8DCE91471306A00593051A
:10370800F00F89838A07B69703D7270003C50700F8
:1037180009830A073697631DC5000345170063161A
:10372800B500035727002391E70083D72700D1BFAF
:1037380001458280011106CE2EC6EF70402401C9D2
:10374800B245F2400355250005616FA02046F240BE
:10375800494505618280A38401902384019023A8B0
:10376800018E23AA018E23AC018E23AE018E23A6DF
:10377800018E23A4018E973700209387E716370719
:10378800B40098C33747A000D8C337071000930682
:10379800070A94C7B7065000C106D4C793060705A1
:1037A8004107D8CB3707D007410798CF370784039D
:1037B80098D337C70700130707B8D8D3416794CB06
:1037C80093060701130717F8D8D7417723AE0700E8
:1037D80094D798DB8280011126CAAA84214522CC7D
:1037E80006CE2E8432C636C43AC2EFE09FF91DC910
:1037F800A24612473246930700FD2300F500994779
:10380800A30095002301F5002303D500A303E500D9
:103818002312C500AA8522856244F240D24405617C
:103828006FF08F80F2406244D2440561828023A801
:10383800A18E828023AAA18E828023ACA18E828051
:1038480023AEA18E8280011122CC4AC806CE26CA98
:103858002A890144B30489006368B400F2406244D1
:10386800D2444249056182802EC6EFF06F8B9317D0
:103878000501C183A183B2452380F4009307140096
:1038880093F7F70F850463F9B700CA9709042380F3
:10389800A7001374F40F7DBF3E847DBFC167173541
:1038A800002003550508FD176302F502411103C600
:1038B80041999385019006C6EF603076B240FD5776
:1038C80017370020231FF70441018280828009C92D
:1038D80025151375F50F1335850E134515008280D0
:1038E8000145828023800500F94763E2C7087971A2
:1038F80022D426D24ECE56CA5AC806D64AD052CC60
:103908005EC63684B289AE8A2A8B814463FF340549
:10391800B307940003CA0700138914001379F90F39
:1039280063050A04B3072A0163C1F904B307240134
:1039380083CB07005E85613F0DC99307FAFF23809B
:10394800FA0063906B03130519002295B2502254B4
:1039580092540259F249624AD24A424BB24B4561EB
:103968008280D29493F4F40F55B70145C5B7014549
:103978008280411126C2AE8422C49737002023A931
:10398800C7FA9737002023A3B7FA9737002023AD4B
:10399800A7F82A8441469305F00F26854AC006C633
:1039A8000549EFF0CF9E631E2503973700209387C4
:1039B800E7F6884BC145413D41469305F00F228506
:1039C800EFF0EF9C85446316950222449737002058
:1039D8009387C7F4B24092440249C847C1454101A0
:1039E8009DB5414681452685EFF06F9AE31625FD82
:1039F8006DBF414681452285EFF06F99E30795FC3D
:103A0800B24022449244024941018280411122C4B9
:103A180026C22E84AA841306000281451735002089
:103A28001305C5EF06C6EFF06F8C97370020A38803
:103A380097EEA38B8198EFA0E018854719C18147BD
:103A48004945B2402244173700202309F7EC924435
:103A580041018280814781CD19C98547631BF500E3
:103A680083C7550093E707FCA382F50085473E8589
:103A7800828089476317F50083C7550093F7F703DA
:103A8800E5B70D478547E314E5FE03C755001377EF
:103A9800F70313670704A382E500D1BF81478DC1EF
:103AA80005C103C755009306000C85471377070C1B
:103AB8006308D700930600048D476303D70089473E
:103AC8003E858280411122C4005D06C626C21DC8FB
:103AD800AA84085009C597100020E78060E1485083
:103AE80009C597100020E780A0E0085409C5971081
:103AF8000020E780E0DF228597100020E78040DF84
:103B080023AC0402B240224492444101828009ED70
:103B18009737002083C7A7E017350020130585E1F4
:103B280081CB1385018E828017350020130585E02F
:103B3800828017350020034585DE82809737002074
:103B48009387C7DDC847828097370020938707DDB2
:103B5800884B828097370020938747DCDC4B88436B
:103B6800828097370020938767DBD84B1C438507F3
:103B78001CC317350020034595DA9307F00F63053A
:103B8800F50091656FF08F828280011122CC06CEFC
:103B98002E8432C6EF60F06D9147B245631FF50081
:103BA8009387C18F9C438DC303A30700630E030053
:103BB80022856244F240056102839387418F9C43CA
:103BC80081C703A34700DDB7F2406244054505619C
:103BD8008280011122CC2A840355450006CE26CACC
:103BE8004AC84EC6EF60305135C52A89834405005E
:103BF8008349C500C13D4A85EF70304103554400F3
:103C0800EF60B06283C78190B1CB6399970483C595
:103C180091902685EFF01FB219E123840190035596
:103C28004400EF6010659147631FF5000357440097
:103C38009737002083D7E7CE6317F700FD5717376C
:103C480000202310F7CEF2406244D2444249B249E0
:103C58000561828081499304F00F6DB79307F00FD7
:103C6800E38FF4FA834664000356440003452400B6
:103C78004E87A6858D3665B779715EC6AA8B2E8567
:103C880052CC56CA5AC806D622D426D24AD04ECECC
:103C9800AE8A328B368AEF6010466DC1045D2A8980
:103CA800F1CC9C50614599C3130540039C5481C7CE
:103CB80051054205418163050A00710542054181AC
:103CC800DC5081C7590542054181EFE09FAB2A844A
:103CD80055C561468145EFE07FE19739002083C9EA
:103CE800A9C36394090083490900930700FD2300D1
:103CF800F400A947A30074012301F400230364011D
:103D08008C50231254011305840191C908C47146CB
:103D1800930A440397000020E780E01A56858C54E4
:103D280091C948C45146930A450197000020E7808D
:103D380080195685630C0A0008C87146D285930A13
:103D4800C50197000020E78000185685CC5099C51A
:103D580048C8594697000020E780E016A2854E859E
:103D6800EFE09FAC2254B2509254F249624AD24AD0
:103D7800424BB24B4A8502594561A9B3B25022540D
:103D880092540259F249624AD24A424BB24B4561B7
:103D9800828001114EC6AA892E854AC806CE22CC39
:103DA80026CA2E89EF60303531C59734002083C488
:103DB800A4B699E0834405001945EFE09F9C2A8446
:103DC80015C981451946EFE07FD2930700FD23000E
:103DD800F400B947A30034012301F400231224019D
:103DE800A2856244F2404249B2492685D24405611F
:103DF8006FE09FA3F2406244D2444249B249056150
:103E0800828039715ECEAA8B2E8526DA4ED652D4A0
:103E180056D25AD006DE22DC4AD8AE84328BB68A15
:103E28003A8ABE8942C6EF60102D31C92A894145B8
:103E3800EFE03F952A8421C541468145EFE01FCB3D
:103E480017350020034545AD19E1034509009307DF
:103E580000FD2300F400BD472301F400B247A3008E
:103E680074012312940023046401A304540123055C
:103E78004401A30534015CC4A285EFE0FF9AF25027
:103E88006254D2544259B259225A925A025BF24BA6
:103E980021618280797126D2AA8439454AD04ECED2
:103EA80006D622D42EC6B2893689EFE09F8D21C16D
:103EB800B2459307000D2310F500B1472A84231259
:103EC800B5002301F500CE85190519469700002095
:103ED800E78060FF23062401A2852254B2500259CC
:103EE800F24913F5F40F925445616FE0FF93B25015
:103EF800225492540259F2494561828017370020B2
:103F08000347F7A19307F00F630DF706411126C287
:103F1800AA84394522C406C64AC0EFE09F862A848F
:103F280039C9930700FD2300F500A300950023017C
:103F38000500973500209385E59F0D0519469700E4
:103F48000020E78040F8173900201309299D83577E
:103F58008900A285173500200345759C2315F400B8
:103F6800834719002306F4002244B24092440249D0
:103F780041016FE07F8BB2402244924402494101E3
:103F880082808280011156C2AA8A314526CA4AC84F
:103F98004EC652C406CE22CCAE84328AB6893A893D
:103FA800EFE02FFE29C92A842685EF60D0141DCDA5
:103FB80003450500930700FD2300F4009D47A30077
:103FC80054012301F4002312940023134401231401
:103FD800340123152401A2856244F240D2444249A7
:103FE800B249224A924A05616FE01F8417350020C2
:103FF8000345F592C1B7F2406244D2444249B249FE
:10400800224A924A05618280397162CC2A8C5945CC
:1040180026DA4AD84ED652D456D25AD05ECE06DECA
:1040280022DCAE8432C636C4BA8B3E8BC28A468A3C
:104038008359010403494104EFE0AFF435C5324622
:10404800930700FDA2462300F5009547A301C5008C
:10405800A30085012301F5002A8419461105A9C288
:10406800B68597000020E78000E623066401230A4E
:10407800240123157401231754012318440123191B
:104088003401A2856254F2504259B259225A925AC6
:10409800025BF24B624C2685D25421616FE0CFF867
:1040A8008145EFE0BFA4D1B7F2506254D2544259CF
:1040B800B259225A925A025BF24B624C21618280B9
:1040C8009737002083C7A7858DCB4111AA8519464C
:1040D8001385018E06C697000020E780C0DE938511
:1040E800018E1735002003458583EFF0BF96B24057
:1040F8001385018E41016F90B02D014582801737DD
:1041080000200347D7819307F00F6305F708411193
:1041180026C2AA84294522C406C6EFE08FE62A846F
:1041280029C1930700FD2300F500A1472301F500ED
:10413800A3009500972700209387477E83C7270011
:104148009385018E1105A30FF5FE194697000020EF
:10415800E78060D7A285172500200345557CEFE04E
:10416800AFEC172700200347877B8D47631FF700B5
:104178009387818F9C4391CB03A387006307030038
:104188002244B240924441010283B2402244924404
:104198004101828017270020034767788D47631AFB
:1041A800F7009387818F9C4389C703A38700E31D8A
:1041B80003FC8280797122D406D626D24AD04ECE0C
:1041C80052CC094445C92A89035505002E8A514411
:1041D800EF606072AA8459CD83C77199FD1793F770
:1041E800F70F054749446377F7080347C500A14718
:1041F8006314F70063100A089C5C4544A5EF9165B9
:10420800938545711305C00297000020E780A064DC
:1042180088DCAA894D4439CD1306C0028145EFE0F8
:10422800FF8C835709009386490036852391F9004E
:1042380071469305490036C697000020E780A0C85C
:1042480089472380F90003C5C400B2460356090014
:10425800611583C5419913351500EF8030762A849E
:1042680063060A00D2852685EF70500501C42685AD
:10427800EFF05F852285B250225492540259F249D8
:10428800624A4561828083C77199FD1793F7F70FDA
:1042980005476378F708894751C6011122CC26CA19
:1042A8004AC84EC652C406CEAA89368AB2842E8916
:1042B800EF6060642A84D14729C9485509C5970029
:1042C8000020E780E062F1452685EFE09F8448D42E
:1042D800CD4705CD8346C40021478147639FE6004B
:1042E800630D0A000347A50103560501930625013E
:1042F800AA854E85EF607074AA8703474400630F50
:104308000900136767002302E400F2406244D244C4
:104318004249B249224A3E850561828013674700B7
:10432800DDB7C9473E858280E14763EBA700972741
:1043380000209387675B06053E950355050082803C
:1043480041657D158280011122CC2A842E8526CADA
:1043580006CEAE84EF60205A0DCDB7470F00938785
:10436800F723094563E2870281450A854146EFE064
:10437800EFF7A685231081000A854180230181007B
:10438800A3010100EF80F045F2406244D244056188
:1043980082804945D5BFA38AA19882806F80D05A70
:1043A800797152CC2A8A328522D426D24AD04ECE6E
:1043B80056CA5AC85EC606D662C4AE8BB28A368B57
:1043C800BA843E89C2894684EF60E05215C92A8CB6
:1043D80063140A0213774B008347450015CF93E710
:1043E80027012302FC008DEC631C0902639A090271
:1043F80005E8ED9B2302FC00832B8C03639F0B06CF
:10440800B250225492540259F249624AD24A424B5B
:10441800B24B224C45618280F59B93E70701D1B7E7
:1044280093E747002302FC0001CC1C484146A285C3
:104438002324FC0213058C0197000020E780A0A824
:1044480063910B02D5D80325CC0209C5970000203B
:10445800E780004AF1452685EFE0AFEB2326AC0262
:1044680061BFE30B09F80325CC0209C597000020BA
:10447800E7800048F1454A85C5B79DC483A70B026C
:1044880099EB916593853571714597000020E78018
:10449800803C23A0AB0203A50B0219C57146A68573
:1044A80097000020E78020A26388090283A74B02B7
:1044B80099EB916593852571594597000020E78010
:1044C800803923A2AB0203A54B0219C55946CE85F4
:1044D80097000020E780209F1DC483A78B0299EBDB
:1044E800916593851571514597000020E780A036A6
:1044F80023A4AB0203A58B0219C55146A2859700D8
:104508000020E780409C2254B2509254F249B24BAA
:10451800224CCA865A860259424BD6855285D24ABF
:10452800624A45616FF04FF5011126CA52C406CEA2
:1045380022CC4AC84EC62A8AAE84EF60C03B25C545
:10454800AA893945EFE0EFA32A8431CD1729002045
:104558000349893C6314090003C909009307000D46
:104568002310F400AD472301F40093856900130577
:104578003400194697000020E780E09493F7140070
:10458800858085882306F400A3069400231544013A
:10459800A2856244F240D244B249224A4A8542493D
:1045A80005616FE06FA8F2406244D2444249B249C3
:1045B800224A056182809387818E884301CD41110B
:1045C80006C697000020E780A032B24023A4018EDF
:1045D800410182808280011106CE22CC26CA4AC8B7
:1045E8002EC6EF60403139CDB24517290020034966
:1045F800A932AA840CD56314090003490500414572
:10460800EFE02F982A841DCD9307000D2310F500A5
:10461800A5472301F50083C754009385640011055D
:10462800A30FF5FE194697000020E780C0899C5427
:10463800A285F2405CC46244D2444A85424905617D
:104648006FE08F9EF2406244D24442490561828005
:10465800797122D406D62A842EC6EF60C0290DCDE2
:104668008346C5001147AA8749456393E6029C5FC4
:10467800B24599C383C567010808EF70204D978636
:1046880000009386A6D2100889452285EF60B03FC6
:10469800B2502254456182805145DDBF83C771996C
:1046A800FD1793F7F70F0547637AF704894721CA7F
:1046B800411122C426C24AC006C6B2842E89EF60C0
:1046C80080232A84D14705C563080900834745002C
:1046D80093E727002302F5004146A68513058401C8
:1046E80097F0FF1FE780207E9C481CD48147B2408A
:1046F8002244924402493E8541018280C9473E8551
:104708008280797122D406D62A842EC6EF60A01E34
:1047180001CDB2452285230EB1006C08EF708036BA
:10472800B2502254456182805145DDBF6F60202A16
:10473800C1671387E7FF6394E5029387418F9C4322
:1047480091EB494582804945B2402244924402494E
:104758004101828003A30700E30503FE02834111A0
:1047680022C426C24AC006C6FD172A892E84B284EE
:104778006395F5029387418F9C4391CB9C4381CBF2
:10478800829711E523842191A384919075BFA68512
:104798004A85EFE03FFA4DF9F5B72E85EF60A01591
:1047A8005DD1834705000D45E39027FB2285224410
:1047B800B2400249A685924441016F90203F61476B
:1047C8006362A7044111416722C406C626C27D1749
:1047D8002A8409456383E502C547AE846315F4005E
:1047E8002E85EF90604493171400172400201304BB
:1047F800A40FA297239097000145B2402244924407
:104808004101828009458280011106CE2AC6EFE067
:104818009FF4EF100004EF002076EF30710E324560
:10482800972700209387870F130700F02391E7004D
:10483800238207007D5793874199A380E70023804F
:10484800A700F240954505616F40302D5D71939743
:104858000501CAC086C6A2C4A6C24EDE52DC56DA1C
:104868005AD85ED662D466D26AD0C1872E8963D8F8
:10487800074C03C54199EFD0BFF48964416A856A42
:10488800797B2A84938BD4007D1AA50A691B15E0CD
:1048980021653345A900B640264496440649F25995
:1048A800625AD25A425BB25B225C925C025D6161E1
:1048B8008280834704001307200A639DE70003559D
:1048C8002400172C0020034C9C052286D285EFF08B
:1048D800CFAB3DAA1307100903CC51996397E7168C
:1048E800834714001547639EE7002285EFF06FAEFB
:1048F8002285EFD05FE603C54199EFD07FEC2A848B
:1049080079B739476399E71603554400631B550582
:104918000C4483C90500639D0900850591C91946A2
:10492800172500201305050197F0FF1FE780A05900
:1049380017270020034787FE85476318F710638A07
:10494800090097270020238B07FC4E85EFF00FDB2B
:1049580045B78947172700202302F7FCEF90002767
:1049680041BF93872400631AF50683298400638E68
:10497800090C83C709008DE383C7290003C7190001
:10498800A207D98F17270020231EF7F883C73900FD
:1049980017270020A304F7F817270020034707F874
:1049A80089476314F70A83C7090081CB972700203A
:1049B800238607F603C5090051BF8D4797250020B8
:1049C80083C5D5F5172500200355C5F51727002001
:1049D8002306F7F4EF407017F1BF9387540063186C
:1049E800F5001C4403C50700EFF06FF111B7B307DA
:1049F8006501C207C1831147636FF7009387818FF1
:104A08009C43E38707EE9C43E38407EE2285829765
:104A1800E31005EE1DA89387B400631FF500938784
:104A2800018F9C43E38607EC9C43E38307ECA28554
:104A38001385B4008297E9BF9387C4006310F50219
:104A48001C4483C70700E38507EA9307F00FE301D7
:104A5800FCEAA2856285EFD03FDD71BD9387E40053
:104A6800E315F5FE9387418F9C43E38307E8DC4316
:104A7800A285E9F3B5BD3D476397E70403554400B4
:104A8800E30275FF93879401E30EF5FC93873401E5
:104A9800E31DF5FA9727002083D7A7E8639E47010F
:104AA8009387418F9C43E38507E4DC43E38207E473
:104AB800A28513853401BDBF9387C18F9C43E389C9
:104AC80007E29C43E5B71307E003E390E7F8834761
:104AD800240005476396E70E83476400138D818E93
:104AE800F1E383270D00D5CB03CC0700A14903458B
:104AF8007400930C8400E685EFE05FFA8347440175
:104B0800A303A400835804010358E4000357440096
:104B18002A86034534003EC283572401E686E2858F
:104B28003EC0CE87EFF04FCE8347340095E7DD4790
:104B3800835804010358E4008346740083554400F5
:104B48003EC283572401668705463EC06285CE87EC
:104B5800EF60A007A301A40083270D0081C71145BA
:104B6800EFF07FA503C58190E30405D883C5919034
:104B7800EFE05FBCE30E05D68346340093071003CD
:104B8800638AF600035644004E8783C581903685B4
:104B9800EFE07FC423840190A1BB172C0020034CB5
:104BA8001CD8A9B79387818F9C43172C0020034CEE
:104BB8001CD791498DDFDC439DDB0145829705BFFA
:104BC80029476395E70A83476400938C818EC9E37C
:104BD80083A70C00ADCB03CC0700A14903467400A2
:104BE800834704028358C401058AA303C4000358F9
:104BF800A40103574400034534003EC28357E4012F
:104C0800130D8400EA863EC0E285CE87EFF0CFBF61
:104C18008347340095E7DD478358C4010358A4014E
:104C280083467400835544003EC28357E4016A8773
:104C380005463EC06285CE87EF503079A301A400B7
:104C480083A70C0021BF172C0020034C5CCD71B743
:104C58009387818F9C43172C0020034C5CCC91498F
:104C6800B5DFDC43A5DF014582978DBF0947639D0A
:104C7800E7009387018F9C43E38C07C6DC43E389F5
:104C880007C622858297ADB12D476399E7009387C0
:104C9800018F9C43E38E07C49C47D5B70D476397A4
:104CA800E70022868D450355440015B119476395E1
:104CB800E7069305610113051031EF30614F2C08A9
:104CC80013052031EF30C14E03566400835781012C
:104CD8000355440063E8C700835684000357610105
:104CE80063F7E60093050002EF80107311B1637457
:104CF800E6002313E40063F4D7002314F4000357F9
:104D0800C4008356A40003568400835564000148F8
:104D18008147EF803070E9BE1D47E398E7D203571B
:104D28004400E3E4E7D297270020938767C9060782
:104D38003E9783576400F1172310F70039B393F7B0
:104D4800150081CF9387018F9C4389C7DC4399C3A2
:104D580001458297134519003DBE93F7250081CF81
:104D68009387818F9C4389C7DC4399C30545829704
:104D7800134529000DB693F745000145E38D07B0AB
:104D88009387C18E9C4391CF85471727002023091D
:104D9800F7B89387818F9C4389C7DC4399C305453E
:104DA800829797270020938767B7C8472C08EF801A
:104DB800600C2808EFF0CFB09727002083D7E7B41E
:104DC80091CB130600643386C702914503C5419908
:104DD800EFD03FEE134549007DBC411122C42A841F
:104DE800554506C6EFF04FD4B335A00022852244BE
:104DF800B24041016F80105F797122D406D68D4789
:104E08002E84631FF50003D7A50083D6850003D63B
:104E180065000345340083D54500EFF0AF9609A837
:104E280089671387D7006310E50403C5250019E5D2
:104E38008547B25022543E85456182809387818E92
:104E48009443FDD603C6360083C50600814802C2D6
:104E580002C00148814701479106EFF0EF9A0545E6
:104E6800EFF06FF5F1B71387E700E303E5FC13876D
:104E78003701631AE50003C525005DD9014781465E
:104E88000146814559BFE507E304F5FA41677D17F7
:104E98008147E310E5FA03C75500C947E31AF7F855
:104EA80083D6E50003D6C5000355840083D5A50045
:104EB800EF80105851C15D45EFF00FC73335A000A2
:104EC800231CA10083454400035524003008EF50FB
:104ED800301683578101A9FF6C0813051031EF3094
:104EE800212D9305E10113052031EF30612C835703
:104EF800C101035784006374F7002314F400835737
:104F0800E1010357A40063F4E7002315F400835577
:104F180084008357A40063F4B7002315B400035733
:104F2800E4008356C4000356A40003552400014836
:104F38008147EF80304CEDBD8547231CF10059B700
:104F4800C1671387E7FF639DE5009387818E9C43C4
:104F580095C383C707000D47639CA7006F80D0489F
:104F6800FD1749476396F5009387818E9C43FDF7AB
:104F78003A8582804947EDBF238A019023AE01908C
:104F880023AC0190972700209387479B17070000C1
:104F98001307E74798C3170700001307074BD8C341
:104FA800170700001307475B98C79387C190170737
:104FB8000000130727F998C317070000130707E431
:104FC800D8C3828079714AD01389C1918327090097
:104FD80006D622D426D24ECE52CC56CA5AC881EF13
:104FE8000545B250225492540259F249624AD24AB3
:104FF800424B456182800347050085472A84630147
:10500800F70403468500930695009305F1000545CE
:10501800EFE05F8D814719C183470500834604008F
:1050280011476387E6021387819118438D4603472A
:105038001700630FD70089CF01CF11E5014555B798
:1050480081470145E1BF8546631DD7048D8BFDD798
:1050580003451400130B2400DA85EFE03FA4A300F6
:10506800A400832709002A8A81499304F00FB1E339
:10507800834604009147E383F6FC83270900DDDFBC
:1050880003C6419101479305F00FE309E6FABE8490
:10509800C10703C507FF6301B51005071377F70FAD
:1050A800EDB78946E31CD7F8858B55B7850993F981
:1050B800F90F83C74191E3FDF9FA03250900939A93
:1050C8004900569583470500E38297FE83471500FC
:1050D800E39E47FD1946DA850905EFD05FA779D524
:1050E8008324090003470400D694D9D09147631C50
:1050F800F706C84405C583478400034605006306D0
:10510800F606034704009147631DF706C84419C50E
:1051180097F0FF1FE780C07D23A6040003458400A5
:1051280091659385E571050597F0FF1FE780A072EB
:1051380005C5034704009147631EF704C8C48347A5
:105148008400930594000505A30FF5FE034684002B
:1051580097F0FF1FE78020D7034584003335A00070
:1051680049B588C48DA8884471B79305940005058E
:10517800EFD0FF9D8547E316F5F85545EFF0CF9A38
:10518800BDA8884441DD97F0FF1FE780607623A41F
:10519800040069B788C465B72380D4008347140026
:1051A800DA8513852400A380F400194697F0FF1FC1
:1051B800E78060D10345840091659385F571050505
:1051C80097F0FF1FE780206905C503470400914752
:1051D800E319F7F8C8C483478400930594000505CC
:1051E800A30FF5FE0346840097F0FF1FE780A0CDCC
:1051F80083478400E39607DE034504007D151335D5
:105208001500C5B3011122CC1384C1911C4006CEF0
:1052180026CA4AC84EC652C499CF2E8AAA840149C2
:10522800084063129902630C0A0497F0FF1FE78095
:10523800206C23AE0190F2406244D2444249B24904
:10524800224A0561828093194900B30735018847CE
:1052580009C997F0FF1FE780A0691C40CE9723A4D7
:1052680007001C40CE97C84709C997F0FF1FE78081
:1052780020681C40BE9923A60900050955B745DDDD
:10528800139644008145EFD07F86144081477D56B0
:1052980013F7F70FE37197FA139747003697230030
:1052A800C7008507F5B7011152C4138A8191832776
:1052B8000A0006CE22CC26CA4AC84EC656C25AC0D2
:1052C800C9CF2A89014419ED9387C191944399CA9A
:1052D80003C641912A8481479305F00F13F7F70F0E
:1052E8006367C708131534002105EFD08FC9AA8456
:1052F80001E92145EFD0EFC8AA8421C501444D49F1
:10530800930700FD2380F4008547A38024012381AF
:10531800F400A38184005DC41389840023A22401BE
:105328008149938AC191130BF00F83C7419163F3AD
:10533800F90031E883270A00A68503C50700EFD0E6
:10534800AFCE814503C54191753D03250A0097F00D
:10535800FF1FE780E05923AC0190F2406244D24439
:105368004249B249224A924A024B05618280139708
:1053780047003697034707006305B7000504137411
:10538800F40F8507A1BF83A70A0093954900BE952E
:1053980083C70500638467032300F90083C71500EA
:1053A800130529007D14A300F90019468905137413
:1053B800F40F97F0FF1FE78000B12109850993F9E1
:1053C800F90FA5B723A20400B5B7411122C406C638
:1053D8002A8405E10945EFE03FF52A8611C5854590
:1053E80003C54199EFD0FF8C0545EFF01F9F2A8434
:1053F80001C9854503C54199EFD03FA2228565358E
:10540800B240224405454101828089671387B7006D
:10541800631AE500938781919C439DC39C4503C50E
:10542800070065B71387C7008147631CE5009C45E3
:1054380003C50700854711C5938781919C43F5F300
:1054480081473E858280797106D622D426D24AD0F9
:105458004ECE52CC56CA5AC85EC679C98347350063
:10546800AA8985C7404115C05945EFE0FFEB931A5B
:10547800850193DA8A410149138A8191130B000D42
:10548800B54B83C73900636DF900B250225492546A
:105498000259F249624AD24A424BB24B4561828074
:1054A8008307840263CD570783270A00ADCB228583
:1054B800EFF05FB12DC5034584005105EFD06FAC07
:1054C800AA8431CD231065012301750183470400A7
:1054D800194693052400A301F500830784021505E6
:1054E8002303F50083471400A30FF5FE97F0FF1F71
:1054F800E780609D034684002386C4001DC613858B
:10550800440188C89305940097F0FF1FE780A09B8B
:1055180083270A00A68503C50700EFD0EFB0050969
:10552800130494021379F90FA9BF23A80400CDB777
:10553800938781919C43B1DBBD332254B25092547E
:105548000259F249624AD24A424BB24B014545617F
:105558006FF0BF88797106D622D426D24AD04ECEB3
:1055680052CC56CA5AC85EC671C183473500AA894B
:1055780085C7444195C05945EFE01FDB931A850163
:1055880093DA8A410149138A8191130B00FDC14BBB
:1055980083C73900636DF900B250225492540259FE
:1055A800F249624AD24A424BB24B456182808387B4
:1055B800F40063C8570783270A00A5C75145EFD0F1
:1055C8004F9C2A8439CD23006501A30005002301DF
:1055D800750183C70400194693852400A301F500CB
:1055E8008387F4001505A306F50083C71400A30FED
:1055F800F5FE97F0FF1FE780008D83C78400938531
:1056080094001305C400A305F400194697F0FF1F82
:10561800E780608B83270A00A28503C50700EFD0C7
:10562800AFA00509C1041379F90F9DB7938781913C
:105638009C43BDD3EFF03FC72254B2509254025955
:10564800F249624AD24A424BB24B014545616FF07A
:10565800CFF883C77199A18B1385C19091E3014558
:105668006FE04F9D411122C485452A8403C54191AD
:1056780006C6EFF03FB983C77199A98BA5CB17155B
:1056880000201305A52B238A8190EFE04F9A1384FD
:10569800C1911C4091C74D45B240224441018280CE
:1056A80003C5419119E10145C5BF91659385B57160
:1056B800120597F0FF1FE780001A23AEA19061DD65
:1056C80003C6419112068145EFD04FC2104083C6F0
:1056D80041918147FD5513F7F70FE376D7FC1397F0
:1056E800470032972300B7008507F5B70145238A9D
:1056F8000190EFE0CF9345BF9387C18E884301CDDA
:10570800411106C697F0FF1FE780801EB24023A60E
:10571800018E410182808280011122CC06CE8D4704
:105728002E846316F50603C73500E94703D54500FF
:105738006318F7009717002083D7A71E6385A7066D
:10574800EF50601B09C5835764002317F500035702
:10575800A40083568400035664008355440003451F
:105768003400EFE03F82035744009717002083D7A7
:10577800471B6308F7008547F24062443E85056190
:105788008280FD5717170020231DF718EDB789678A
:10579800CD07631DF50083C7250031476385E70002
:1057A8004547E39AE7FCEFE06F8FF1B741677D1754
:1057B8008147E313E5FC83C655004947E39EE6FAB3
:1057C80083C5450003552400300023140100EF5021
:1057D800000155B7797122D41384C18E1C4006D6B6
:1057E80026D24AD00545A5C30D45EFE0FFB3AA84EC
:1057F8001145EFE07FB32A899305F1011305F041C4
:10580800EF1021570347F1019717002083C727118D
:10581800B336F00011C389061C4036C603C53700ED
:1058280093854700EFE00FA31040B2462A878348CC
:10583800B6000348A6009307460003462600CA851B
:105848002685EF802039B25022549254025945617E
:105858008280FD572386F1822390019223A401922E
:1058680023A6019223A80192971700209387C70DBA
:10587800170700001307A70798C3170700001307A7
:10588800C734D8C317070000130707F598C7970749
:1058980000009387A7E823A2F1928280411126C2D3
:1058A8009384C18E9C4006C622C49DCB2A840D4594
:1058B800EFC03FEDAA8519CD930700FD2300F50041
:1058C8008D47A30085002301F5009C4003C5070010
:1058D800EFC09FF511C42244B2409244410129BD52
:1058E800B2402244924441018280797126D2835485
:1058F8004500896706D622D44AD04ECE52CC1387AB
:105908006700639DE4029387C18E9C43014481CF65
:105918001845034507000DE10547A380E700054545
:10592800EF80002C05442285B2502254925402592B
:10593800F249624A456182809537EDB7138797002F
:105948006365970403C7C1829307F00FE30CF7FC64
:105958001C45114503C40700EFC0BFE2AA8579D1F1
:10596800930700FD2300F50089472301F500F97727
:10597800E117BE9493B41400A3008500A301950019
:1059880003C5C182EFC05FEA71BFA9070144E39C68
:10599800F4F81389C18E832709004A8AC9D71845A4
:1059A80003C41700854783490700630EF40297175D
:1059B800002083C7E7F6BDF70D45EFC09FDCAA8539
:1059C80005C1930700FD2300F5009147A3003501A9
:1059D8002301F5008327090003C50700EFC0DFE4B2
:1059E800EFF09FD181B7938781929C4391EF014556
:1059F800EFE09F932A8611C6894503C54199EFD0E8
:105A08004FAB83270A00A9A003C607009386170097
:105A18009305F1000545EFD0FFEC71D983470500E8
:105A2800858BF1D70545EFE03F909307B003AA8433
:105A380063FDA7025D6613060670894503C5419993
:105A4800938444FCEFD08FBA239091928327090066
:105A58000947A380E7009717002083C767EC99CB15
:105A680097170020238E07EA7DBD130600643306CE
:105A7800C50251B74E851D357DB59387C18E9C43B0
:105A8800011122CC06CE26CA4AC8454499E783C7E5
:105A9800719913F7570009EB49442285F240624493
:105AA800D244424905618280138781921843414458
:105AB8006DD70347070075D3858BAE842A89D9C76C
:105AC80083C704000547F91793F7F70FE366F7FC58
