:040000006F10000B72
:1000040000000000000000006F0080086F00E02284
:1000140000000000000000000000000000000000DC
:1000240000000000000000000000000000000000CC
:100034006F004006000000006F00E00500000000B3
:100044006F0080056F0060056F0040056F0020059C
:100054006F0000056F00E0046F00C00400000000A2
:100064006F0060046F0040046F0020046F00000400
:100074006F0060236F00C003000000006F00600386
:100084006F0040036F0020036F0000036F00E00265
:1000940001A001A001A001A001A001A001A001A054
:1000A40001A001A001A001A001A001A001A001A044
:1000B40001A001A001A001A001A001A0B717004068
:1000C400130770052380E704130780FA2380E704ED
:1000D4002396A70223800704371700408347270588
:1000E400898BEDDF835707053717004083472705C2
:1000F400898BEDFF3717004083472705898BEDDF98
:10010400035507058280B7170040930670052380C6
:10011400D704130780FA2380E70403C6B7041376D1
:10012400F60DA385C70423800704137605022DC6A4
:1001340003C6A700118A0DE22380D7042380E704B5
:1001440003C7A700136747002385E7009307004B05
:1001540001000100FD17EDFFB7170040930670057D
:100164002380D704130780FA2380E7047D8923942E
:10017400A70001000100010001002380070423807F
:10018400D7042380E7049306100537270040A30310
:10019400D780238007048280137605046DDE03C6AE
:1001A400A700418A0DE22380D7042380E70403C714
:1001B400A700136707012385E7009307007D01006B
:1001C4000100FD17EDFFB71700409306700523806B
:1001D400D704130780FA7D892380E7041365050497
:1001E4002394A700010001000100010023800704FB
:1001F4002380D7042380E704930630053727004083
:1002040079B74111814601468145114506C6AD22A3
:10021400B7170040130770052380E704130780FA1B
:100224002380E70403C76704136717002383E704E5
:1002340023800704B2404101828081460146814502
:1002440011451D2AB7170040130770052380E704E2
:10025400130780FA2380E7047D572396E70203C738
:100264006704136717002383E7042380070401A0AE
:10027400BD473305F50201007D1575FD82804111EE
:1002840022C426C206C6AA84014463179400B2405D
:10029400224492444101828005041305803E4204B5
:1002A400C13F4180DDB7B71700401307000323881F
:1002B400E702854723ACF1807300203023030480D8
:1002C40015472303E48001002302A480828083076E
:1002D4006480E3CE07FE2303048082808307648066
:1002E400E3CE07FE03454480828083076480E3CE27
:1002F40007FE2302A4808280411126C44AC24EC054
:1003040006C61377F50BAD47AA892E899544630673
:10031400F70019456537653F8D444E854537FD59CE
:10032400FD1463983401B240A24412498249410148
:100334008280135509011375F50F453F2209CDB786
:10034400011126CC06CEB704080051371545BD3738
:10035400713769372AC6A53F32459377150089EB73
:10036400136515001375F50FF240E24405618280B0
:10037400FD14E9FC0145CDBF397126DC4ADA4ED8BB
:1003840052D656D45AD25ED006DE62CE66CCB7E7D9
:1003940000E07D5783AA070022C603AA470023A0D2
:1003A400E71823A2E718B717004013077005238046
:1003B400E704130780FA2380E70483C74704930BF9
:1003C40075FFB684E20793FBFB0F8546AA892E8B43
:1003D400328937240040E187015763FA76016308C4
:1003E400D5008946130700026313D5000157D98F3E
:1003F40093F7F70FB71C00402382FC041147230333
:10040400E4801305F00F5D3D094CD13563697C111F
:10041400B70707003E9B378707007955637EEB02D9
:10042400B3079B00636AF702A9476399F90689E455
:100434008144713D26850DA0DA850945753D050980
:100444000345F9FFFD14050B4D3581C49377FB0F6C
:10045400FDF7FD3569FD7D55B7170040130770059D
:100464002380E704130780FA2380E70403C74704C3
:10047400418B2382E704F250B7E700E023A0571131
:1004840023A24711E25432445259C259325AA25A51
:10049400125B825B724CE24C21618280A5476395BA
:1004A400F90685691309F00FB3069900B3742B019B
:1004B400B6941349F9FFB3749900856B33796901D4
:1004C400416B9387F9FFB3F7270199E363FC340188
:1004D40093D94900C147E3E637FF99BF0569C1696C
:1004E4007D19D9B71305800D6388690113050002CE
:1004F4006384790113051008CA85FD3B913521DD1C
:100504004E99B3843441D9B7DA852D45F533CA946D
:10051400E30099F20509D933A30FA9FED5BF938748
:10052400F9FF93F7F70F636CFC0803C75C04B70784
:1005340008001377070219E3B78707007955E37DAD
:10054400FBF033079B00E3E9E7F089476390F90484
:100554008980D549E38E04ECDA850945713B11099C
:100564000327C9FF91472320E48003076480E34EF7
:1005740007FE23033481FD17EDFBFD14110B81C429
:100584009377FB0FE9FF6D3B71F5F1B58547E38781
:10059400F9F4DA852D458D339389F4FFE38A04E871
:1005A400353B93F7390091EB832604800327090038
:1005B40093074900E39FE6E63E89CE84F1BFB54741
:1005C4006396F9001305900BD5399DB5B147130512
:1005D400B00AE38BF9FE9947639EF902DA852D454B
:1005E400213B81448D4BA149D539639674018327FE
:1005F40004802320F9008504E39834FF83270480D2
:1006040013172B01635507002312F90015B5232294
:10061400F90039BD9D476399F90281451305B0047A
:10062400E139BD442320090023220900FD597D310D
:1006340093F77400CA9703C70700FD14398D23800C
:10064400A700E39634FFEDB3A1476392F904CD39D3
:100654008144630D0B008D479304C0036308FB00C2
:100664009304000563048B01930440041375C507C8
:10067400E30095DC19459931993905458131268581
:10068400AD3109459D316D39E31405DAE9B391477C
:100694006399F9001305600615311539130590099E
:1006A40025B7E38709D8F15469B3411126C29734B9
:1006B4000000938464E222C480404AC006C605490F
:1006C4000DC45C406360F9021C409CC05C44232060
:1006D400040099C7084882979C4063938700A284CA
:1006E4008040F9BFFD175CC0DDBFB2402244924494
:1006F40002494101828019CDB717004013077005E4
:100704002380E704130780FA2380E7042396A702D3
:1007140023800704828019C1814799E98280338745
:10072400F500834607003307F50085072300D7004B
:10073400E397C7FEE5B719C1FD5781E982809105AA
:1007440003A7C5FF1105232EE5FE7D16E319F6FE6A
:10075400F5B7797122D4173400001304E4DE1C4089
:1007640006D626D24AD04ECE91C78297973700003C
:1007740023AC07DC5C4089CB03D50185AD3F5C40ED
:10078400829703D52185853F1C40639C07189737C2
:10079400000083C777DD858B95C797370000A38555
:1007A40007DC17370000034757DC914763FCE70079
:1007B40051219737000083C757DBF9178A07A2979F
:1007C4009C4382979737000083C7C7DE918B89C704
:1007D400971000E0E780A0D11C4491C382979387CF
:1007E400C184984317360000034616D43E899734D3
:1007F4000000938464D39737000083C7E7D29396AD
:100804001700BA9683D60600638306109737000054
:1008140083C787D163FBC70686073E9783550700C6
:100824002310070003D501852EC6F1359387018671
:100834009C4317350000034525CF13172500BA97AD
:100844009C43B2458297AA8903D521856D35973794
:10085400000083C767CD1397170083270900BA9751
:1008640003D70700B3E9E9002390370183C70400E5
:10087400850793F7F70F173700002307F7CA1737D1
:100884000000034777CA63E6E70097370000238D2B
:1008940007C81C40D9E79387818598433E8451C398
:1008A4009737000083C7B7CC91CB9737000083C735
:1008B400D7CB89E7971000E0E780608D1C408297D2
:1008C4002A8425C19C48AA97173700002326F7C617
:1008D4009387C1859C43B1C703D50185293D2285F2
:1008E400970000E0E780A0B597370000938707C022
:1008F400DC5389C7970000E0E78000952254B2508A
:1009040092540259F24903D521854561EDB3850717
:1009140093F7F70F973600002388F6C0E3EDC7EC92
:10092400F5B5B250225492540259F249456182807D
:100934009167B7C600409387373023A6F6200F107F
:10094400000097370000938727BE884F9387C1879D
:100954009C43316713073730F053B7071000FD1776
:10096400918F99833A0523A6E6205D8D82804111FB
:10097400B7170040985F3AC6945F3247E39CE6FE9F
:10098400324541018280411106C6D53797360000B1
:1009940083C606B7858AB1C6930730333307F50299
:1009A400B337F5023983CA07D98F17370000130705
:1009B400A7B7584B01456303F7023385E740636BE0
:1009C400F70037653D0889C637856F08130505901C
:1009D400198D3E95173700002322F7B6B240410126
:1009E4008280E5473307F502B337F5022583DE0736
:1009F40065BF5D7122DE1384C1863AD218403ED0B1
:100A04004ACA1C5F86C696C499839AC29EC026DCD5
:100A14002ADA2ED832D636D442CE46CC72C876C61E
:100A24007AC47EC2858B13898186C1C31C5F9734C7
:100A34000000938424B393F7F7F91CDF9737000081
:100A440083C747B293F707048DC3938741869C43BA
:100A540082979737000023AFA7B083C7040093F7AA
:100A6400F70B17370000230FF7AE85471737000041
:100A7400A30CF7AE83C7440093F7070481EF938771
:100A8400C1879C43D844B8D3930700FC17370000B0
:100A9400230CF7AC8387640063D90700832709001C
:100AA4009C43173700002302F7AC18401C5F858372
:100AB400858BC9CBF5571CDF010001000100010043
:100AC400010001000100010001000100010001001A
:100AD400010001000100010001000100010001000A
:100AE40001000100010001000100010001000100FA
:100AF40001000100010001000100010001000100EA
:100B040001000100010001000100010001000100D9
:100B140001000100010001000100010001000100C9
:100B240001000100010001000100010001000100B9
:100B340001000100010001009387C1879C43130752
:100B44005004B8CB18401C5F9183858B89CFBD5767
:100B54001CDF9387C1879C4323A807048547173765
:100B640000002303F7A083270900D8430583058BDE
:100B740019C7D843759BD8C3D843799BD8C372543B
:100B8400B640A64216438643E2545255C2553256E5
:100B9400A256125782577248E2485249424EB24E08
:100BA400224F924F6161730020309387C187944331
:100BB400173700001307079BBC5289CF83472700D0
:100BC400858B89EB83473700858BFDD797370000EA
:100BD400238C07988280938781879C4399CB944B7D
:100BE400D04B9842518F98C294439C479842D98FD6
:100BF4009CC29387C1879C4337C700401306C00338
:100C0400A8CB93062003973500009385A5958327E9
:100C14008720C18393F7F7036369F600832787204E
:100C2400C18393F7F70363E6F60083C74500858B1A
:100C3400F9DF82809387C187944317370000130735
:100C44006792BC5289CB83470700858B91CB97373A
:100C54000000238B079097370000A38707908280BA
:100C640083471700858BF1DFDDB7938781879C432A
:100C740099CB944BD04B9842518F98C294439C4744
:100C84009842D98F9CC29387C187944337C7004049
:100C9400C145A8CA654683278720C18393F7F70314
:100CA40063FBF50083278720C18393F7F70363640D
:100CB400F600BC52EDF382801387C1861843AA87DD
:100CC400185F1583058B25EF03451500150513776C
:100CD400C51F19C6B386E70083C626002300D600C5
:100CE40095C59736000083C6468893F606040945E1
:100CF400A1CAB386E70083C63600054693F5F60617
:100D04006390C504E206E18663CC06023385E700FE
:100D14008347150003470500A20793F70770D98F8F
:100D24001397070141839376074099C61367078099
:100D3400239AE18601458280239AF186E5BF054521
:100D44008280011136C89386C1872ECC8C423AC664
:100D54003EC498452ACE32CA9317070142C2C183C2
:100D64001378172036853E86972600009386867F63
:100D7400630408041377072061CF03C726001367B1
:100D84001700172800002300E87E13070019B8D1C4
:100D9400130700F8972500002388E57C1387C18694
:100DA4000C4337080010D855719B13672700D8D51A
:100DB40098413367070198C11377261005C313764A
:100DC400061045CA03C7060013671700172600005C
:100DD400230AE67817270000231A077883C64600FB
:100DE40093C7F7FFC207E206E186C183184163D1C6
:100DF40006029396170163D7060830538D4663E9BC
:100E0400C6008546172600002300D6763453FDFE1F
:100E1400972600009386866D8386460163DD06006F
:100E240093960701C18663D506067053894663E429
:100E3400C6007453FDFE14477245E245F58F1CC786
:100E44005246C2463247A247124805617300203019
:100E540003C716001367170097250000A384E570E5
:100E640017270000230207701727000023100770BC
:100E7400A1B703C736001367170017260000A304A1
:100E8400E66E89BF854617260000230FD66C49B746
:100E940054471396060163510602B7061000FD1667
:100EA40074D39726000093862668944E85061726E9
:100EB40000002327D66841B7A166D58FADBF172799
:100EC40000001307E76B8346B7019727000083C729
:100ED400776EB69793F7F70FFD4663EAF6044C4B2B
:100EE40097260000A38EF6689727000083C75769EA
:100EF40005473317F70097260000A38DF66A6D8F18
:100F04001DEF9726000083C6366BB3F6D702130590
:100F14000002814733D6F500058A13F8F70F09CE8E
:100F24006399E60097270000A38C076582808117E8
:100F34007DB705071377F70F8507E39DA7FC82802C
:100F4400938741889843B75702009387079F832666
:100F5400070913965600635806008326070913965B
:100F6400660063440600FD17FDF3828051C9AA8719
:100F74000145C9C98D07C207C183F19BC207C1835B
:100F840013074003636BF7021387818908431387B0
:100F9400018914436396A602172700001307075517
:100FA400185B014525C34111C20706C60545DD8D01
:100FB4000297B24001454101828013874189F9B704
:100FC4000357650005EF035745006369F702B3064D
:100FD400F74021466370D6021041938687001D8F27
:100FE400AA96611790C22392E6002393060014C1C7
:100FF4002312F5002313B50021058280084159BF4F
:1010040001458280828001CD9387818903A80700EE
:10101400938701898C430147C28763E3B7008280C9
:101024009443636FF50663EDA60613868700E368B1
:10103400C5FE03D56700216605066317C50003C610
:10104400C1890506238EC18823930700638407039F
:10105400138641891042630FF6000356670019EAAC
:1010640083D7470014C383564700B697A1072312BA
:10107400F700BA879843E304B7FA93864189944208
:10108400E30FD7F883566700D9FA83D6470003568F
:1010940047001843A106B2962392D70098C38280D2
:0810A4003E87B6879DBF0000E6
:1010B000974100209381810A17710020130181F468
:1010C00013054000972500209385C573173600202F
:1010D0001306C67D63FAC5008322050023A05500D0
:1010E00011059105E3EAC5FE17850000130585FF8C
:1010F000973500209385857B1386018163FAC500AF
:101100008322050023A0550011059105E3EAC5FEE1
:101110001385018197650020938545D56377B500D8
:10112000232005001105E36DB5FE9302800873A02E
:101130000230972200209382E26C93E212007390B7
:101140005230971200009382C2B47390123473002D
:1011500020303D432A876373C3029377F700BDEFC6
:10116000ADE5937606FF3D8ABA960CC34CC30CC717
:101170004CC74107E36BD7FE11E28280B306C34040
:101180008A069702000096966780A6002307B7009C
:10119000A306B7002306B700A305B7002305B700D1
:1011A000A304B7002304B700A303B7002303B700C9
:1011B000A302B7002302B700A301B7002301B700C1
:1011C000A300B7002300B700828093F5F50F939634
:1011D0008500D58D93960501D58D61B7939627002F
:1011E0009702000096968682E78086FA9680C1175D
:1011F0001D8F3E96E374C3F8A5B7B717004003C729
:1012000077051377E70FA38BE704130700F8A38D87
:10121000E7043D47238CE70413077003A38CE7041E
:101220008280B717004003D587005D714EDE42050E
:10123000418186C6A2C4A6C2CAC052DC56DA5AD8B8
:101240005ED662D466D26AD06ECE9377050C130751
:10125000000881496386E71813070004639AE714BE
:10126000B7240D8F7D8993840480B3D4A402916741
:10127000938707E8BE94A167938707D0B3D4F4029D
:10128000EF608006978700009387479C9043D44384
:10129000EF50503AEF60C047AA8B939C040103D9EA
:1012A000018193DC0C0163150900056913090980AC
:1012B000B7170040130770052380E704130780FA6F
:1012C0002380E704B71A00400547939D0401096C89
:1012D0002389E704514B01438145138D0A0413060A
:1012E0007005930680FA094893DD0D01130C0C710B
:1012F000A9482300CD002300DD0023962A03230004
:101300000D0083C72A05898BEDDF83D70A0583C7C4
:101310002A05898BEDFF83C72A05898BEDDF83D7EB
:101320000A0523982181C207C18333859741131A87
:101330000501135A0A41630B0A143307BA02635EAC
:10134000070C05034203135303016368680C63D958
:10135000050A3305B04093150501C185C204C1805B
:1013600063D7450B0965130505713385A502B717CA
:101370000040130770052380E704130780FA2380D9
:10138000E70423963703238007043345950242057B
:101390004181B640264496440649F259625AD25ACF
:1013A000425BB25B225C925C025DF24D61618280C5
:1013B000B1E3B77489097D8993840480B3C4A4021E
:1013C0009167938707E8BE94A167938707D0B3C45A
:1013D000F402EF507071978700009387A7877DB55F
:1013E0009787000093874786856483AB07009384C3
:1013F000843865B5930B0000954445B53A89D5BD51
:10140000B387FC40139A0701135A0A4181BF09654B
:10141000130505713305AA028DBF3385B74163E417
:10142000FC003385FD40330585033344B50363C5B4
:10143000880013150401A9BF528532C636C4EF6077
:10144000C020DE85EF505071EF60001A13130501C4
:10145000135303413307694042074183A246324692
:101460000948A948631AE9001307190063444001B9
:101470001307F9FF420741837D1B137BFB0FCA89CA
:10148000D285E31D0BF62398E18065B7014511B7BE
:10149000B717004003D5870039715ECE4205418100
:1014A00006DE22DC26DA4AD84ED652D456D25AD09C
:1014B00062CC66CA6AC86EC69377050C130700082B
:1014C000814B6388E71413070004639CE710B7247B
:1014D0000D8F7D8993840480B3D4A4029167938790
:1014E00007E8BE94A167938707D0B3D4F402EF5006
:1014F000B05F97770000938767759043D443EF50B0
:101500007013EF60E020AA89939A040103D9218126
:1015100093DA0A0163150900056913090980B717F1
:101520000040130770052380E704130780FA238027
:10153000E704139B04010547096A2389E704D14D99
:10154000014D814C135B0B01130A0A714A859720E8
:101550000020E780E036330C5541420C135C0C410F
:1015600023992181630A0C14B3079C0363D0070EEF
:10157000050D420D135D0D01894763E9A70D63DA7F
:101580000C0A33059041931C050193DC0C41C20405
:10159000C18063D78C0B0965130505713385AC02D7
:1015A000B7170040130770052380E704130780FA7C
:1015B0002380E704239677032380070433459502AD
:1015C00042054181F2506254D2544259B259225AD2
:1015D000925A025BF24B624CD24C424DB24D2161A9
:1015E0008280B1E3B77489097D8993840480B3C490
:1015F000A4029167938707E8BE94A167938707D0F9
:10160000B3C4F402EF50504E97770000938787647D
:10161000EDB59777000093872763856483A907005A
:1016200093848438D5B5930900009544F1BD3E8973
:1016300031BF3385AA40131C0501135C0C4181BFE7
:101640000965130505713305AC028DBF63FEAA0061
:101650003305654133054503A9473344650363C832
:10166000870013150401B1BF3305AB40E5B76285B0
:10167000EF50B07DCE85EF50304EEF50F076131D19
:101680000501135D0D41B307A941C207C183631A68
:10169000F90093071900634480019307F9FFC2071B
:1016A000C1831387FDFF937DF70FCA8BE28CE39014
:1016B0000DF82399F18075B7014529B741112A83A7
:1016C000014E930E407E130F0019930F400663EBFB
:1016D0006E0A9308001913034006B3781503854E6C
:1016E0000D4FA14F337365020D891335150063E566
:1016F000BE0C1308F6FF7946729842081358080189
:101700003307C70213D61700BE0732976146B3F6F8
:10171000C60213068070B386C6023697A166F58F9F
:1017200042075D8FB717004083C6F70293F606089D
:10173000A307D1000346F10083C6F70293F606081B
:10174000E394C6FE8346F10093F6F60FF1DE9306AE
:1017500070052380D704930680FA2380D70423AA38
:10176000070383C6170393E60608A388D702D8DBCE
:1017700003C7170313670704A388E702238007043E
:10178000410182807D133368E3039308E016630E02
:1017900008003368F3039308D016630808009378B1
:1017A000330093B818009388D81633081E01131E0F
:1017B0000801135E0E0121BF6393E50305486386AC
:1017C00008000148630303002A8871087298FD1518
:1017D000131E0801C205135E0E01C18109BF13F873
:1017E000150063F4BF007908D5B713381800E5BFBA
:1017F000914763EEB70217770000130727468A0563
:10180000BA959C41BA978287B717004003A7470B48
:101810001345F5FF698F23AAE70A03A7070B698F12
:1018200023A8E70A03A7070A798D23A0A70A8280C5
:10183000B717004083A6470B1347F5FFF98E23AA7D
:10184000D70A83A6070B558D23A8A70A83A6070AE4
:10185000758F23A0E70A8280B717004003A7470BC4
:10186000498F23AAE70A03A7070B1345F5FF45BFD6
:10187000B717004083A6470B1347F5FF758F23AAC0
:10188000E70A03A7070A598D4DB7B717004003A70A
:10189000470B498FEDB7B717004003D587004205C6
:1018A00041819377050491EB9377F5013755E80172
:1018B000130505803345F50282809377050C1307E5
:1018C00000046397E7009377F50137459C1CCDB77B
:1018D0002165130505D08280B7F700E0C8439C4717
:1018E0008280814737370040A14663C4C7003285F4
:1018F00082800345B740E38EA6FE3385F50003459D
:10190000050085072304A740CDB7411122C406C6B0
:101910002A8451372947B307E502B2408D83B3D7F4
:10192000870222449507B3D7E70237370040C20742
:10193000C1832316F740410182807165411113056F
:10194000052006C6D937B7370040130770F8238142
:10195000E7400D47A381E74013070004A380E74059
:1019600005472387E740B24041018280411106C606
:101970004D38BD4763F3A7006D30193EBD4763F393
:10198000A7003936B24083D5218103D501814101B9
:101990006F208044411193962500AA852D4506C6E7
:1019A00097200020E780801DB240014541018280E0
:1019B000411122C426C24AC02A842E89B284AA8533
:1019C000930600200146254506C697200020E780A3
:1019D000E01A931629002686A28529459720002023
:1019E000E780C019B24022449244024901454101B6
:1019F0008280011122CC06CE3714004026CA4AC884
:101A00004EC652C483447405034AB4058349840511
:101A100003499405EFF06FFE8347A40593F4F40F98
:101A2000137AFA0F93E71700230DF40493F9F90FD3
:101A30001379F90FB717004003C7A705058B6DFF92
:101A400003D5C705A38D4705238C3705A38C270530
:101A5000A38B9704F2406244D2444249B249224ADD
:101A60000561828041119397050122C406C6C18792
:101A70002E8463DD0700EF10B06119C1EF10B05A7A
:101A80002165218DB24022444101828093F71500E7
:101A900013C51500E5FB9397250163D00702EF20DE
:101AA000F07FE93537F60200130606E0896503C5C5
:101AB0004181EF2040260965E9B79397150101455B
:101AC000E3D207FC177500001305051FEF50907651
:101AD00013060064916503C54181EF20C0231165A1
:101AE0004DB71D71494697750000938565181775A8
:101AF00000001305253A86CEEF20600D01E9177529
:101B0000000013052518EF50F07201A037F700E030
:101B1000F9575CC7FD571CCB8566B7E700E023A0EB
:101B2000D7101306701010C3B8434146B0C323A0AA
:101B3000D718B8C3010001001306C0038145480847
:101B4000EF20C00797370020938707EC3ECA8967CC
:101B500093870780231CF100ED47A301F10293074F
:101B6000A0102312F102D1472303F102A16793874A
:101B700007E03ECE97070000938707E2BEC49707B1
:101B80000000938727E3BEC685472304F102B547CB
:101B90002308F10297070000938747D43EDAB7F590
:101BA000070097070000938707E53EDE8146970709
:101BB00000009387E7DB7000E1051945BEC0972060
:101BC0000020E780A0FB58088147994670003E96A8
:101BD0000346060085070507A30AC700E398D7FE5A
:101BE000D24791C70357810185676373F70001A04E
:101BF0004808EF206031AA8501C917750000130558
:101C0000A509EF50F04E01A0F640256182804111F8
:101C100017050000130545E506C622C4EF20402B3A
:101C2000138441812300A400292803450400224491
:101C3000B24037F60200130606E0896541016F20C5
:101C4000800D411106C6B7170040130770052380A9
:101C5000E704130780FA2380E70403C7F70213772A
:101C6000A70FA387E70203C7F70213672700A3871D
:101C7000E702ED391305407E81470147814605465D
:101C800085452D3CB240014541016F20404941113D
:101C90001305800406C697200020E78000C7371789
:101CA00000408327870A8D451305002093E707200E
:101CB0002324F70A353E513117750000130505003E
:101CC000EF505057177500001305C51CEF50905684
:101CD000093D353FEF30706C09299D21EF00806C84
:101CE00097200020E7802027E5BF03485500834761
:101CF000450003473500834625000346150083450C
:101D00000500177500001305E5026F50703E7971EC
:101D1000974700209387474F22D426D256CA06D62B
:101D20004AD04ECE52CCAA8A0144BE84A146D843A2
:101D30003DE7138505011375050F09052EC6EF1044
:101D400050312A892DC19387018283A907003E8AD9
:101D5000B245639B09063387BA008347F7FF1386B2
:101D600015001376F60FAD8F2300F700A300B9001E
:101D7000568593052900EF00606903270A000505D1
:101D80000E042300A900B387840039C323A0F900FF
:101D900026942322240123200400054521A80504BC
:101DA000A107E316D4F8177500001305A5FBEF5043
:101DB00070480145B250225492540259F249624A85
:101DC000D24A45618280BE8983A70900EDFF61B7D1
:101DD000894503C5518223A0F182EF1070634DBF86
:101DE000411106C622C426C28D476301F502C547CC
:101DF0006305F5008547631CF50C914503C55182C9
:101E0000EF10707A914503C5518271A0854717750F
:101E10000000130525EB6384F50A094717750000D8
:101E2000130505EB638DE50803451600B2841377AF
:101E3000F5006319F708C14763F6A7088347260032
:101E400063F2A708EF10F0202A8435C503C61400FA
:101E500093051500138534007D161376F60F1D25A6
:101E600083C72400B306F40003C7060083C6160028
:101E70003D8F6398E6022300F400177500001305F8
:101E800065E6EF50303BA28503C54182EF10D026B6
:101E9000854503C541822244B240924441016F10FE
:101EA0003057177500001305A5E4EF50B0382285B0
:101EB000EF107017F1BF177500001305A5E4EF5080
:101EC0007037F9B717750000130505E5CDBFB240AF
:101ED0002244924441018280011122CC06CE26CABE
:101EE00093F715002E849DC397200020E78020FCE7
:101EF00013060002854503C55182EF10D0611345DA
:101F00001400F2406244D2440561828093F72500B8
:101F10008DCBEF10F02D1376F5001506B2851775F1
:101F20000000130525E832C6A38E0180EF50501C37
:101F30003246914503C55182EF10F05D13452400F0
:101F4000C9B793F745006384070C83C7D18109475C
:101F5000636AF70685E3894503C54182EF10B064E3
:101F6000894503C54182EF103058854503C541823C
:101F7000EF109057EF30100C03C7D1819777000016
:101F800093874714BA9703C50700EF30F03B938758
:101F900001829C439306F00F1306F00FC84383455C
:101FA00005000505EF30A0052146914503C5518286
:101FB000EF10705683C7D1818507A38EF18013453A
:101FC000440081B783C7E1818507894503C5418204
:101FD000238FF180EF10D04303C7E181854763E889
:101FE000E700894503C55182EF109042C9BF238F96
:101FF0000180938401829C40C843EF10D0029C4032
:1020000023A207009C4323A0F182E1FF4DBF9397D9
:102010000501C1870145E3D607EE03C55182EF10E4
:10202000300719C1EF1030002165218DD9BD411154
:1020300022C406C626C293F725002E84A5C383C7F3
:10204000C181850793F7F70F09476366F704238E6D
:10205000F180EF30207E03C7C1819777000093871E
:102060006706BA9703C50700EF30102E9306F00FEE
:102070001306F00F81450145EF3020224146894586
:1020800003C54182EF10304913453400B240224469
:10209000924441018280238E018065BF93F7150031
:1020A00091CFEF3020799306F00F1306F00F8145A2
:1020B0000145EF30801E13451400C9BF93970501F9
:1020C000C1870145E3D407FC03C54182EF10407C82
:1020D000AA8409C98345050005051D232685EF103F
:1020E0008074B92B2165218D55B7797113060002D3
:1020F00081450A8506D6EF10702CB777261793878F
:1021000027163EC4B7575500938757553EC6238EB2
:1021100001808567938707802310F1000A85970760
:102120000000938727CC3EC8EF20D05AAA851775A8
:1021300000001305E5BEEF50A07BB25045618280E0
:10214000797171468145480006D622D4EF101027D8
:10215000974700209387C7153EC497470020938771
:1021600067593EC8974700209387070E3EC69307DE
:102170000002231DF100856793874780B7F50700AC
:10218000231EF100814685475008E10517740000C1
:10219000130444BE1945230FF10022C297200020EA
:1021A000E780C09D4C001725002013052570392EAF
:1021B0009377F50FADCF3E86A28517750000130506
:1021C000A5BCEF50E07217050000130585E6EF107F
:1021D00030502382A18217050000130525D0EF108F
:1021E000304F130600028545A382A182EF10B03262
:1021F000130600048145174500201305E500EF1084
:10220000F01B238F0180EF30E0629306F00F13067E
:10221000F00F81450145EF3040084146894503C52F
:102220004182EF10502FB250225445618280A28526
:1022300017750000130545B6EF50806B69B7411163
:1022400006C62529B240AA85177500001305C5B733
:1022500041016F50E069411106C60521B240AA85CF
:10226000177500001305C5BF41016F5060683971D3
:1022700006DE2ECE22DC26DA3284B6844AD84ED64A
:10228000AA89EF00406E1379F50F4E85FD26F245C1
:1022900026C097790000938929BC83C8550003C8DC
:1022A000450083C7350003C7250083C6150003C654
:1022B0000500AA8517750000130585B2EF5040632D
:1022C00003485400834744000347340083462400F6
:1022D0000346140083450400A68817750000130503
:1022E000A5B3EF50E060174500201305A56A952BB4
:1022F000177500001305C5B5EF50805F0144974482
:102300000020938424699377F40F63ED2701294516
:10231000EF500062F2506254D2544259B25905450E
:1023200021618280B387840083C507004E85050440
:10233000EF50005CC9BF411122C406C693F71500D7
:102340002E84B9C317750000130585A7EF50806E62
:102350009305800C1745002013054570592117453A
:1023600000201305257CEF00B03E05661306062C01
:10237000854503C56182EF10101A93471400B240DF
:1023800022443E85410182801397050141878147A0
:10239000E35707FEEF10C04F19C1EF10C048A16707
:1023A000A18FF1BF411117050000130505F906C6FD
:1023B000EF1010322383A1828147174600201306B5
:1023C000E6691307800CB306F6002380F600850744
:1023D000E39BE7FE1306200393059008977800001F
:1023E0009388489D1308200381470D47854617456C
:1023F000002013052573EF001046B24003C561822B
:1024000013060064854541016F10F010397152D4F4
:10241000131A060122DC26DA4AD856D25AD05ECEEA
:1024200006DE4ED6AA8A2E8BB2840144BD4B1729F4
:10243000002013092949135A0A0133868440B385C1
:102440008A00B3098B0063CDCB020A859720002058
:10245000E780A0AC4E868A85410442044A854180CB
:10246000EF20E024E36B44FD2285F2506254D25405
:102470004259B259225A925A025BF24B2161828030
:102480004E86D9BF011122CC26CA4AC84EC652C4B4
:1024900006CEAA892E8A01441729002013098942F1
:1024A000B28433068A00B3858900410442044A8518
:1024B0004180EF20C020E36694FE2285F240624412
:1024C000D2444249B249224A056182801C454111E9
:1024D00022C406C626C24AC00944C9CF1C491144B9
:1024E000D1CB5C450D44D9C71C411544C1C75C41E3
:1024F0001944C9C31389050123A4A182AE844A8566
:1025000097750000938545BC59222A843DE94A8588
:10251000512A938781829C4388404D469C4B9775F6
:10252000000093852595829739CD03C5840131CD6F
:10253000CC40A1CD93F73500A9EB792903C59401CF
:1025400039C58C44A9C593F73500B1E3EF0080701D
:1025500003C5A401EF0070012924D52BEF00F03052
:10256000CC4489C903D5640111C593F7350095E3BF
:10257000EF10401C2285B24022449244024941019E
:1025800082801D44C5BF0544F5B72144E5B7254405
:10259000D5B72944C5B7411122C406C626C24AC0D0
:1025A00083C7C1822A8481E785472386F182054556
:1025B00083C5C182E12E9387C18283C7070022852C
:1025C00085072386F182EF00F04B01E90145B24017
:1025D00022449244024941018280892C938781825E
:1025E0009C4384438D2E2A8951269375F50F4A8585
:1025F00082948547E31CF5FC2285A92A0545C1BFC5
:10260000011126CA2EC606CE22CCAA84992AB2452A
:102610009307C00E1306C00E63E4B70013F6F50F60
:10262000328532C6312E938781829C438047212E8A
:10263000324622836244F240A685D2440561028379
:10264000411106C622C426C2EF00502215C12A84B9
:1026500015458D2EAA84054599269375F50F268577
:10266000A12D19E522852244B24092444101C1A026
:10267000B240224492444101828003458500828019
:10268000938781829C43194603A387000283938723
:1026900081829C43411106C69C4B19468297B240E9
:1026A00041018280411122C4138481821C4026C2D0
:1026B00006C69C4B1946977500009385E5A0AA8431
:1026C000829719ED1C402244B24003A38700A685DF
:1026D000924419461725002013054528410102831D
:1026E000B2402244924441018280011122CC06CEA4
:1026F0002A8432C6EF00106432462285F24050C46C
:102700006244977500009385A59C05616F00B060D9
:10271000411122C497250020938545242A8415451C
:1027200006C6792422852244B2404101ADB501118B
:1027300022CC2A84154506CE7124AA852800893723
:102740005C449C4381C72C0022858297F2406244FE
:10275000056182805C4503A3470063030300028395
:102760008280239B0182239A0182930740024111B8
:10277000238CF182974700209387474606C623A8FB
:10278000F182974700209387675423A0070023A274
:10279000070023940700977500009385E59217457D
:1027A00000201305E53FE93D977500009385C5912D
:1027B000174500201305253FE135977500009385E7
:1027C000A590174500201305653E5D3DB240977505
:1027D00000009385658F174500201305853D410155
:1027E00045B5011122CC2AC62EC406CE26CA953F75
:1027F000A2459307800C32451304800C63E3B700B5
:102800002E84938781829C43138701839314040150
:102810009C47AA850843C18026868297F240239A66
:10282000818262442685D2440561828003D6618319
:1028300019CE03D741831307470297470020938798
:10284000E7399306400263C5E600239B018282803C
:10285000B385C70083C5050085068507A38FB7FE2E
:10286000DDB7411122C403C781831304400233063C
:10287000E44083D7418306C626C24AC0B297930676
:10288000C00E63CCF6041389818283270900974523
:10289000002093856532BA959C47AA8482970327C6
:1028A0000900938701838C43184783C78183B3074B
:1028B000F44083D661833385F40003D64183B69513
:1028C000029703C58183098C03D541832295B240C9
:1028D000224492440249410182800145CDBF03C791
:1028E000818381466349A70293074002998F93F73A
:1028F000F70F99E383C7618383D64183B697C207F5
:10290000C183AA971306C00E81466346F600098F5D
:10291000238CE18285463685828083D7418363CFCD
:10292000A700420503D7618341812A973385A740D9
:10293000239AA182239BE182054582800145828002
:10294000239AA182828003D56183974700209387D1
:10295000E7283E95828083C78183174500201305B1
:10296000A5253E95828003D54183828083C78183DC
:10297000130540021D8D1375F50F19E103C5618321
:1029800083D741833E954205418182800605974762
:1029900000209387A733AA972390B700828006056B
:1029A0009747002093878732AA9703D50700828034
:1029B00099476D153305F502974700209387471E09
:1029C0003E957DB999476D153305F502974700206F
:1029D0009387071D3E95828093060011B306D502AA
:1029E0002E86AE96AA85172500201305A5EE71AA9E
:1029F0004111172500201305E5ED22C406C626C2A5
:102A0000F1222A8415C9B13D938481829C4023160A
:102A1000A40E29469C47974500209385252B130536
:102A2000E40E82979C4061469745002093854517A8
:102A30009C471305840F82972285B240224492441A
:102A400041018280411122C4AA852A8417250020D1
:102A5000130545E806C6C52211C9A2852244B24025
:102A600017250020130505E7410149AAB240224479
:102A700041018280411122C4AA852A8417250020A1
:102A8000130545E506C626C24AC075223DC18354DA
:102A9000C40EC1399307C00E268963F49700130949
:102AA000C00E938481829C401387018308439C4716
:102AB00013160901A28541828297239A21839C40A3
:102AC0009305E40E29469C47174500201305052071
:102AD00082979C409305840F2244B240924402495D
:102AE00003A387006146174500201305650B4101CC
:102AF0000283B24022449244024941018280411142
:102B000022C4AA852A84172500201305A5DC06C641
:102B10001D2211C52285B240224441018280014517
:102B2000DDBF0355C50E828015C1974700209387EE
:102B3000A71A9843BA8799E79747002023AEA718AA
:102B400018C182806384A7009C43F5B782809747B1
:102B5000002023A3071882800DC117470020130708
:102B6000A7171C4399CB6397A700944314C323A0D2
:102B7000070082803E879C43F5B7828011C550C50F
:102B800014C90CC54CC14DB78280411126C2938433
:102B900081829C4022C406C6DC472A8410C52311CA
:102BA000B5002E8654C181453685829703560400B0
:102BB00083572400984008443306F6022244B2406A
:102BC00092440323C70081454101028383562500B7
:102BD000814763C4D7000145828058413E97030670
:102BE000070019EA85462300D7000357050008456A
:102BF000B307F7023E9582808507E1BF18458356EB
:102C00002500814763C4D7007D5582806310B702D9
:102C100058413E97830607006355D000FD162300F8
:102C2000D7005841BA9703850700828003560500F4
:102C300085073297C1BF1C4563ECF500035725009B
:102C4000035505003305A7023E9533B5A5008280E4
:102C500001458280011122CC2A841385C18306CECE
:102C60002EC6EF001030B146B306D4023246A2851C
:102C70006244F24017250020130585C60561B2960F
:102C800029B7411126C2AA841385C18306C622C46E
:102C9000EF00902D2A8419E52285B2402244924407
:102CA00041018280930544002685EFF05F9E6DF51B
:102CB0002285EF001035F9BF01114AC82E899765AA
:102CC00000009385654052C406CE22CC26CA4EC66B
:102CD0002A8AEFF0DF9B41E983C791838549AA8463
:102CE00063EFF9065285713F2A8419CD8347A50009
:102CF000639A27058544F240624426854249D244BE
:102D0000B249224A0561828083C791836394370563
:102D1000172500201305C5BC553D2A8419E51385E8
:102D2000C183EF0090252A8471D593094400D28590
:102D30004E85EFF0FF94938781829C43DC4B99C3CF
:102D40004E85829723052401A2851385C183EF0058
:102D5000702955B78D44C5D323050000029009475B
:102D6000E392E7FE49BF894479B70947AA876373AD
:102D7000A7008947A38CF18282801C5903A34700D6
:102D800063030300028382801C5903A3870063034B
:102D90000300028382801D71D6C2938A818283A739
:102DA0000A00A6CA86CE8447A2CCD2C4DAC02A843E
:102DB0002EC6CAC8CEC65EDE62DC66DA6AD86ED6B9
:102DC000EFF07FB8AA85214628088294034BF101D1
:102DD00005312A8A2145EFF05FB41C589C43638576
:102DE000071497250020938565B72808834BE101D8
:102DF000EFF0FF89631A05121309F4038149814C2E
:102E00009304F00F014C130DF00FFD5D8346090094
:102E10006382A6116394A40D930599FF2808EFF02F
:102E20001F874DCD23000900E28493071C0013FC8B
:102E3000F70FA1472109E31BFCFC9D4763EC970EAC
:102E40008E04A29483C7E4038346840763EA770D64
:102E5000338677416355D60063980B0CF1C7238FF7
:102E600074031C58B245DA869C4330082285829749
:102E700045CD63060A045285F53E5285E13683A7A7
:102E80000A008447EFF03FACAA85214628088294C7
:102E90008347A4076375FB028347F1018507A30FEE
:102EA000F10083A70A008447EFF0FFA921462C0810
:102EB00082944C589D4601462285EF00007CF640E6
:102EC0006644D6444649B649264A964A064BF25BC2
:102ED000625CD25C425DB25D2561828083460900FE
:102EE00093070008850693F6F60F2300D90063FCCC
:102EF000D700976500009385251D130599FFEFF016
:102F00002FF82300B90183460900E3F0DCF2E289DF
:102F1000B68C21BFE38BACF1E289930CF00F31B793
:102F2000B387FB40E3CDD7F2E30B0AF85285EFF00D
:102F30007FB171B7138579000E058E09A2992C080F
:102F40002295EFF0EFF3238F7903A38F090211BFCE
:102F5000411122C42A84214506C626C2EFF03F98BB
:102F600029C1EFF05F9F972500209385259FAA84B4
:102F7000EFF00FF1834794072383F400850793F75D
:102F8000F70F91CFA30CF406A38304004C582285BD
:102F90002244B24092449D4605464101F9AD854721
:102FA000D5B7B2402244924441018280011122CC23
:102FB00026CA4AC84EC606CE130485039304850765
:102FC00097690000938949107D592285CE85EFF0DD
:102FD0002FEB2104230F04FEA30F24FFE31794FE1D
:102FE000F2406244D2444249B249056182800111F3
:102FF00026CA4AC8BA843289176700001307C7E88F
:103000003686BE8642C646C406CE22CC2A84252DEC
:103010002285693FA248A30C0406324823281403E2
:1030200091E08544230D9406232A2403854763EB0E
:1030300007018947230CF406F2406244D244424916
:10304000056182809307F00F6314F800F957DDB72C
:10305000230C0407D5B701C9411106C6493FB24048
:10306000054541018280014582805DA1397126DAE2
:1030700006DE22DC4AD84ED652D456D25AD05ECE84
:10308000EFF07F8CAA840945EFF03F8911ED0144F0
:103090002285F2506254D2544259B259225A925A5D
:1030A000025BF24B2161828003C5040061292A84FE
:1030B00079DD0347950083C71400E31AF7FCEFF0AE
:1030C0009F88834794002A8913F577003335A00041
:1030D0008D833E95EFF07F845DD9032B4400814BB7
:1030E00091499D44A14A03450B005DD113D73B4054
:1030F0004A97034A1B0093F67B008347070063F35C
:10310000A90C63C9440303471700A207D98FB397DB
:10311000D700A18793F7F70F33874A41B3D7E7402A
:103120002304F10003450B002C00EFF07F88D29BB5
:10313000090B55BF13563A409DEAB307D70083C524
:1031400007003C00B6972380B7008506E3C7C6FE9C
:1031500093777A00E1DB3297034707001408B387BF
:10316000FA403696B357F740230CF6FE65BF3A8512
:1031700081453C003388B70083470500834815002C
:103180008505A207B3E71701B397D700A1872300EE
:10319000F8000505E3CFC5FC93757A00C1D53297D9
:1031A0001C083E968347070003471700B385BA40C3
:1031B000A207D98FB397D700A18793F7F70FB3D79B
:1031C000B7405DB72314010063C6440303471700EB
:1031D000A207D98FB397D700A18793F7F70F33874B
:1031E0004A41B3D7E7402304F10083558100EFF053
:1031F000EFF935BF13563A409DEAB305D70083C5B2
:1032000005003C00B6972380B7008506E3C7C6FEDD
:1032100093777A00F9DB3297034707001408B387E6
:10322000FA403696B357F740230CF6FE7DBF3A8836
:1032300081453C00B388B70083470800034318006A
:103240008505A207B3E76700B397D700A18723805E
:10325000F8000508E3CFC5FC93757A00D9D53297FD
:103260001C083E968347070003471700B385BA4002
:10327000A207D98FB397D700A18793F7F70FB3D7DA
:10328000B7405DB7397122DC06DE26DA4AD84ED661
:1032900052D456D25AD05ECE62CC66CA2A84034536
:1032A00085004D246300A4020145F2506254D254BB
:1032B0004259B259225A925A025BF24B624CD24C9A
:1032C000216182800346940093747600B3349000A9
:1032D0000D82B29413852400EFF06FE071D5EFF00A
:1032E0008FE783478400814C914A2300F500834790
:1032F00094001D4A214BA300F500EFF0CFE5938722
:1033000081829C43930925002686DC4781454E85B2
:103310008297032C4400C14B03450C0019E105457D
:1033200069B713D43C4003491C004E9493F47C00CD
:1033300063F7AA0EEFF00FE963492A0383470500FC
:10334000B3849B40B3842441B394970093970401C2
:1033500003470400C183A183D98F2300F40083476E
:103360001400DD8CA3009400FDA013573940B1E890
:10337000B307950083C60700B30794008504238034
:10338000D700E3C7E4FE93767900F1C63A95834708
:1033900005003A943307DB40B3D7E740B386DB4000
:1033A000B397D70013970701834604004183218315
:1033B000558F2300E40003471400D98FA300F400C5
:1033C00059A8A2878145B3089B40B306B50083C6C0
:1033D000060003C807008505B3961601139606017B
:1033E00041822182336606012380C70003C617008D
:1033F0008507D18E2380D700E3C9E5FC9376790059
:10340000B9CA3A95834705003A943307DB40BA942A
:10341000B3D49740B386DB40B394D40005BFEFF03C
:103420000FD82317A100634B2A03B3849B40B384B6
:1034300024411375F50F33159500931705010347C4
:10344000040083441400C183A183D98F458D2300D8
:10345000F400A300A400CA9C090C7DBD9357394019
:1034600095EC9306E100A69683C606003307940008
:1034700085042300D700E3C6F4FE1377790061DFEB
:1034800014083E94B69783C7E7FFB306EB40338733
:10349000EB40B3D7D740B397E70029B722878145E0
:1034A00033089B409306E100AE9683C606000345B1
:1034B00007008505B3960601139606014182218215
:1034C000498E2300C700034617000507D18E23004D
:1034D000D700E3C9F5FC1377790035DF14083E9473
:1034E000B69783C7E7FFB306EB40B694B3D49740D3
:1034F0003387EB40B394E40091BDAA87014503C72D
:10350000070011E3828003C7170089073A95C5BFFA
:1035100013850184B9A411CD411122C406C62A84A1
:103520004CC02E85D93FA304A400B24022444101DF
:10353000828082802304B50023150500AA851385A7
:103540000184ADAC411122C42A841385018406C6CE
:10355000212C09E5B2402244410182808347850045
:10356000E38A87FE792CF5B71C4903A34700630360
:103570000300028382801C55011122CC26CA06CE8C
:103580004AC84EC62A84AE84BDC3EFF0CFBD2A8997
:103590000854EFF00FD9631CA904938781829C43E0
:1035A00003A90701EFF02FBAAA890854EFF02FD52D
:1035B0000346C402AA854E85029915C98347E402D1
:1035C0000347D402850793F7F70F2307F40263E05C
:1035D000E7020854EFF00FC7130544012324040247
:1035E000EFF08FD71C489C4799C3228582971C48CF
:1035F00003A30700630B030022856244F2404249A3
:10360000B249A685D24405610283F2406244D244A5
:103610004249B24905618280411122C42A84085579
:1036200006C611CDEFF00FC50854EFF0AFC12285EB
:10363000232404022244B24041016FF06F8DB24056
:10364000224441018280011126CAB284176600001B
:10365000130686A822CC06CE2A8436C63AC4EFF0DA
:10366000CF88B2462247A3069402A307D40218C803
:10367000F2406244D24405618280011122CC2A8446
:10368000085526CA4EC652C406CE4AC8AE84B28970
:10369000368A05C58347F402A1EBEFF06FB52A899E
:1036A000085463030904EFF0EFBC0854EFF08FB93E
:1036B0002285EFF0EF852324240323070402230649
:1036C000440363950900854763EB97021C542285E8
:1036D0008DE7EFF0EF830545F2406244D244424962
:1036E000B249224A05618280EFF0CFB5130544014B
:1036F00023240402EFF04FC6C9B7393FE9BF9387CF
:1037000081829C438580DC438297337595021C54EB
:10371000AA9481CFA28617060000130626F0A6857C
:1037200013054401EFF08FC57DB7EFF06FAC08D4FF
:1037300045D5CDB7011122CC2A841385418406CE0C
:103740002EC60520D146B306D4023246A285624475
:10375000F24017150020130565190561B2966FF048
:10376000CFC223200500828008418280084119E1F0
:1037700082803E851C41F5FF82801C4189C79843A9
:1037800011E7232005003E858280BA8798431443C1
:10379000EDFE23A00700BA87FDB71C41814699E7DB
:1037A000828098C209A8BE8665DFBA879843E39CE9
:1037B000F5FEE5FA18C123A007008280411122C45A
:1037C00026C206C6AA842E84C93F2685232004006B
:1037D000713F19E580C0B240224492444101828089
:1037E00000C1D5BF411122C426C206C62A84AE84B8
:1037F0006D371C40B2409CC004C022449244410139
:10380000828011C10841828023AC05FE1C4191E7F2
:10381000010001000CC18280BA8703A787FF6DFFFA
:1038200023ACB7FE82801DC18346E5FF1307F00F6E
:103830009147639EE600411106C697100020E7807D
:10384000C0FCB24081473E854101828095473E855C
:10385000828001E9014582800145B2402244410154
:103860008280411122C42A84210542059305D00497
:10387000418106C697100020E78080EF71DDFD577B
:1038800023200500231285002303F5002105F1B74D
:10389000138781841C43411122C426C24AC006C634
:1038A00001440149BA8489E7A165F5290DC401A83D
:1038B00003C7E7FF6318A7021DC8A165912E9840B2
:1038C000832784FF6317E40223A4F184FD57232C8C
:1038D00004FE230FF4FE2285B240224492440249A2
:1038E0004101828011E03E8983A787FF6DBF3E843E
:1038F000E5BF232CF9FED9BFA9C9411122C406C6D0
:103900002A849737002083C737422E856368F400E6
:10391000193F0D45B24022444101828083A785FFB3
:1039200099E703C7E5FF9307F00F6305F700E53D4F
:103930001545CDB7238F85FE13858184F13522850A
:103940002244B240A1654101E1A41545828023A42F
:10395000018482809387C1859C4399E33E85828060
:1039600003D727006316B70003C70700E308A7FEC5
:10397000DC47E5B74111939705014AC006C622C44A
:1039800026C2C1872E8963DE0700193711C1613D48
:1039900021653345A900B2402244924402494101C5
:1039A0008280AA860145E5D901443D47B357894045
:1039B000858B95CB938741858443BD4791E28147B1
:1039C000A2978E070545BE94331585001314050193
:1039D0009C40C8404180829723A0040023A2040099
:1039E000334524014DBF0504E312E4FC0144CDBF7F
:1039F000973700209387872F9C53411122C406C616
:103A00001384818095C7829723A4A1800840B7477B
:103A100003009387D73F3305F502B7A726009387A6
:103A200037ECB24022443E9523A4A180410182801C
:103A3000973700209387472F18409C4BBA9723A4B1
:103A4000F180E9B79387C18490439736002083C6FD
:103A5000B62D814713F7F70F6360D70A1737002099
:103A60000347B730914763E0E70A9737002083C7E1
:103A70006734918BC9EB0111680006CE22CC26CAAF
:103A8000EF00607BFD56630FD50C3247973700205F
:103A900083C7F72663F3E70C173700201307C728FF
:103AA0004047173700200347A7256305D406058B39
:103AB00021CF51473304E40263F1870A97000020C5
:103AC000E780206BB2476373F400A28717370020AA
:103AD0000347F722998F3E95973700209387072158
:103AE0008387470163CD0702B707C0A86369F50262
:103AF000B70740573E9525A08507139717003297C3
:103B00000357E7FF21DB8280130790023304E402AE
:103B100005805DB762076187635707001D8D19E94E
:103B20003705C0A801A8E37BF5FE3707C0A8B30797
:103B3000F7403E95973700209387471BDC538297C9
:103B400009ED973700209387E7219C4F99C7EF0035
:103B50009043EF10C008EF007037F2406244D24447
:103B600005618280973700209387071CDC47E38636
:103B7000A7FE173700201307671783464701BA844B
:103B8000858A9DC65144338487029737002083C7B6
:103B90001717E3F487FC97000020E780805D9737D4
:103BA000002083C7D7151D8C2295838744011DBF34
:103BB00013049002338487020580C1BF2A9609E569
:103BC00082800505A30FB5FEE31DC5FED5BF814765
:103BD0006314F600054582803307F5008507B38638
:103BE000F5000347070083C6F6FFE383E6FE0145C1
:103BF0008280814711E9014582803307F500034740
:103C00000700E31AB7FE8507E319F6FE0545828033
:103C10009737002083C75711637FF5001387C1844E
:103C20009317150008433E9583570500DD8D23103B
:103C3000B500014582800D458280FD57011117377F
:103C400000202329F70E9387C18522CC804326CA02
:103C50004AC84EC652C406CE56C22A8981449739F4
:103C600000209389A908173A0020130AEA0B184488
:103C700081476374E900B307274103A749021CC4C5
:103C800009CB0327CA0063F6E70017370020232378
:103C9000F70AA1E3835524009DE55C44A1E423AE2B
:103CA000F184832AC400228597100020E780E0B5C4
:103CB000568455FCF2406244D2444249B249224AF9
:103CC000924A056182800345040099375C4081CBAC
:103CD0001CC483572400F1D3A2844044D9BF1C44A0
:103CE000CDDFC5BFDCC475BF9737002083C7D703BE
:103CF0006371F5021387C18493171500084393C5B8
:103D0000F5FF3E9583570500FD8D2310B500014555
:103D100082800D4582809737002083C7F700636457
:103D2000F50001458280411122C426C24AC006C660
:103D30002A842E89B284EFF0FFC101C504C5054570
:103D40002DA0936504F0C205C18141459710002064
:103D5000E78000A20DE197370020938727F99C5B4D
:103D600081C7A285114582970145B2402244924401
:103D70000249410182809387C1859C438DE323AE34
:103D8000A18485472326050004C5231125012300AE
:103D90008500A300F5002322050055B7BA87D84750
:103DA00075FFC8C7F9BF411122C426C24AC006C662
:103DB000AA842E89EFF01FBA2A8419C123110500A5
:103DC000CA8526851537014511E01945B2402244C0
:103DD00092440249410182802398A1842399B184AD
:103DE0008280411106C623ACA1840295B240973768
:103DF000002023A5A7F4014541018280994763E98A
:103E0000B7008A0597370020938707F4BE9588C1CD
:103E10008280411106C622C426C2EF20107C714662
:103E2000814517350020130525F2493B1734002042
:103E3000130484EF1306000222858145413323AE2B
:103E4000018423AC01849737002083C7E7EB13D5A7
:103E500027008D8B3E958D473305F50299479305D5
:103E600010109384018635051375F50F2301A40006
:103E70003305F5021305050F97100020E780408FEA
:103E800023AAA184834724001305050F88C08A074D
:103E90003E9523A6A184EFF09FABCD248347140069
:103EA000984017060000130626AD93962700BA9691
:103EB00090C293862700850793F7F70FA300D400DD
:103EC000B24022448A07BA9790C39244410182804B
:103ED0009737002083C757E5173700200347E7E4EB
:103EE00063F1E7021387018618439386170017369C
:103EF0000020A30BD6E293962700369708C33E8591
:103F000082809307F00FE5BF1C4163870714417758
:103F10007D8FB706002089476311D71403574500EA
:103F2000630D0712411122C419462A849305F00F2C
:103F3000590506C6EFF0FFCB05478D476309E5102D
:103F40001306C003814517350020130525DAEFF06D
:103F5000FFC61306C003A28517350020130505D937
:103F600097000020E78060FB173700200357C7D871
:103F700097370020938787D719E7130700209736D4
:103F80000020239BE6D617370020034707D711E709
:103F90000547973600202382E6D6173700200347CF
:103FA000D7D511E76D4797360020A388E6D4173799
:103FB00000200347A7D411E7154797360020238F29
:103FC000E6D217370020034777D311E70547973626
:103FD0000020A385E6D217370020034777D219E7E0
:103FE00003C7070197360020A38CE6D017370020BF
:103FF0000347E7D011E75147973600202381E6D0E9
:1040000017370020034767D019E713078002973658
:104010000020238CE6CE17370020034757CE19E740
:104020001307D00297360020A38BE6CC0347D401B8
:1040300011E7094797360020A388E6CC9C5791C723
:104040008297973700202394A7CEE1338147B2406F
:1040500022443E854101828089473E858280973790
:1040600000209387A7C8985725C3411122C426C2B0
:1040700006C6BE84029717370020035747CB2A8411
:1040800041C7BA876373A700AA87C207C183BA86EC
:104090006373E400A286C206C182958F51476355BF
:1040A000F706DC5491C38297854717370020230F0A
:1040B000F7CAEF00B01E97370020239A87C6B24098
:1040C00022449244410182809737002083C707CA67
:1040D0009DE7973700209387E7C883C79700850738
:1040E00093F7F70F17370020A302F7C8A18B9DC7DE
:1040F000854717370020231BF7C66F0050209737DE
:104100000020A38507C6D5BF9737002083C707C601
:10411000DDD72244B24092444101C5B7828097372F
:1041200000209387A7BCD857011122CC06CE3E842D
:1041300001C72AC60297324511CD23A2A1861705D1
:10414000002013058504EFF0DFC9F2406244014509
:10415000056182808307440163DD070097370020F3
:1041600023A007BE970700209387C7FC23A2F186F0
:10417000F9B7970700209387C7FFCDBF011122CC65
:1041800017340020130484B6084406CE26CA19E565
:104190000545F2406244D244056182805C58EDDB03
:1041A000185C7DD77000854582971844B247E301BB
:1041B000F7FE8357C40017350020034505B4930567
:1041C000E0043305F502973400209384E4B54205FA
:1041D000418197000020E780A05917370020232352
:1041E000A7B65DD59737002083D707B117360020D3
:1041F0000346A6B03306F6029305F00FEFF01F9CBE
:10420000D04C08449737002083D707AF08C29735B2
:10421000002083C585AEB385F5021C5C8981829739
:10422000C84C97000020E780405E0145973700208A
:1042300023AA07B0B9BF9737002083C717AF6380A1
:104240000712411126C206C6AA8422C44AC07D555F
:10425000CDC897370020938767B6B8475DC3173935
:1042600000201309A9A8030549019735002083C53B
:10427000B5A985057D540548B708C0A8130E000CE4
:1042800083467700832707086399060503530707CA
:1042900083560703637DD3060346D70063190607D9
:1042A0000326070F2DE60326470935E20346F700EC
:1042B000631FC605705FB386664079163306D60263
:1042C00083264708B356D602B297AE96C206C1827D
:1042D000231BD70663500504958F63F387003E8444
:1042E000184359FF938741869C4382976368A402D1
:1042F000B307A4409CC09C4035476361F70423A0EA
:104300000400B24022449244024941018280835613
:104310006707C9B7E3F2D7FCC6977DBFB3078540EF
:1043200063DB070083074901E3C407FCB707C0A8A4
:10433000A297898FC1B723A0040075BFCD179CC079
:104340008307490163D50700130534FF5DBFB147FB
:10435000E3EC87FE3705C0A84D1522955DB77D5566
:104360008280938681869C429843659B98C30347CD
:10437000150003482500220742084297034805001C
:104380004297034835006208429798D70347550083
:1043900003486500220742084297034845004297B8
:1043A0000348750062084297D8D703479500034831
:1043B000A500220742084297034885004297034818
:1043C000B5006208429798DB0347D5000348E50033
:1043D0002207420842970348C5000345F50042976B
:1043E00062052A97D8DB03C7150003C525002207FD
:1043F00042052A9703C505002A9703C535006205C3
:104400002A9798CF03C7550003C5650022074205C8
:104410002A9703C545002A9703C5750062052A97A8
:10442000D8CF03C7950003C5A500220742052A97E8
:1044300003C585002A9703C5B50062052A9798D35E
:1044400003C7D50003C5E500220742052A9703C527
:10445000C50083C5F5002A97E2052E97D8D3D84327
:10446000759BD8C3D84313671700D8C39843136705
:10447000170098C398425C43858BD9E31C4F0145D4
:104480002300F6009C429C4FA183A300F6009C42AF
:104490009C4FC1832301F6009C429C4FE183A30102
:1044A000F6009C42D84F2302E600D84F2183A30296
:1044B000E600D84F41832303E600D84F6183A3036E
:1044C000E60098532304E60098532183A304E600F2
:1044D000985341832305E60098536183A305E600C2
:1044E000D8532306E600D8532183A306E600D85309
:1044F00041832307E600DC53E183A307F6008280B3
:1045000001008DBF938681869C429843659B13670B
:10451000270098C3034715000348250022074208D7
:1045200042970348050042970348350062084297C6
:1045300098D7034755000348650022074208429771
:104540000348450042970348750062084297D8D750
:10455000034795000348A5002207420842970348F5
:10456000850042970348B5006208429798DB0347ED
:10457000D5000348E5002207420842970348C500DA
:104580000345F500429762052A97D8DB03C715005B
:1045900003C52500220742052A9703C505002A976F
:1045A00003C5350062052A9798CF03C7550003C598
:1045B0006500220742052A9703C545002A9703C5CF
:1045C000750062052A97D8CF03C7950003C5A500DB
:1045D000220742052A9703C585002A9703C5B5001F
:1045E00062052A9798D303C7D50003C5E5002207C3
:1045F00042052A9703C5C50083C5F5002A97E20541
:104600002E97D8D3D843759BD8C3D84313671700C8
:10461000D8C398431367170098C39C42D843058BAF
:1046200049E723A007009C4F01452300F6009C4268
:104630009C4FA183A300F6009C429C4FC1832301A1
:10464000F6009C429C4FE183A301F6009C42D84FA8
:104650002302E600D84F2183A302E600D84F41830E
:104660002303E600D84F6183A303E6009853230495
:10467000E60098532183A304E60098534183230561
:10468000E60098536183A305E600D8532306E600AD
:10469000D8532183A306E600D85341832307E600BD
:1046A000DC53E183A307F60082800100BDB741110E
:1046B00006C6EFF01FCBB240014541018280411197
:1046C00006C68935B2400145410182809386C18684
:1046D00090429727002083C78762139787000C4278
:1046E00093F7F703A2074D8FB78500014D8F18C2CE
:1046F0001842F1759385F50F6D8FD98F1CC237174E
:104700000040930770052300F704930780FA230005
:10471000F70401000100172600200346465ED1473A
:1047200063FBC7048357270293E707012311F702AE
:104730009C424567130787E7D8D7984FA166558FE6
:1047400098CF984FE1769386F607758F8D6693869E
:104750000650558F98CF13072015D8DB97070020F8
:10476000938767A9B20737070014B183D98F37E75A
:1047700000E07CD7828083572702C207C183BD9B9C
:10478000C207C18365B7172700201307A75D93876A
:1047900001879C43544B184F096694CBD4CB98CFD8
:1047A000D8CF9447D18E94C7D847518FD8C7944754
:1047B0000566D18E94C7D847518FD8C798431367E1
:1047C000270098C398431367070298C38280938792
:1047D00081879C4399CBD44390479842518F98C28C
:1047E000D447DC4B9842D98F9CC217030020670046
:1047F00003BC938781879C4399CB944BD04B9842C1
:10480000518F98C294439C479842D98F9CC29387FA
:10481000C1879C43094798C317030020670023B949
:104820009727002083C7B7548DE717270020034739
:10483000D7539307B7FF93F7F70F894663EBF6005B
:10484000972700202385E752854717270020A300DC
:10485000F75282801387C1871C4394438D8A85C297
:10486000B44BE19AB4CB944393E6860094C39C4343
:104870008D83858B89C701000100010001001C4365
:1048800023A80704938781879C4399CBD4439047FF
:104890009842518F98C2944BDC4B9842D98F9CC25E
:1048A00097270020A383074C82809386C1879C4270
:1048B00098430D8B05C3B84B619BB8CB98431367E6
:1048C000870098C39C438D83858B89C701000100B5
:1048D000010001009387C1869C4337080010D85718
:1048E000719B13672700D8D798433367070198C394
:1048F000984F370800F97D18337707013708000211
:104900003367070198CF984F137737F813678701FC
:1049100098CF13874188032807000327C802759B97
:104920002326E8021377F6079043137606F8598E8C
:1049300090C388C7CCC397270020238507429727B9
:104940000020A3830742984297270020238E074028
:10495000FD475CC3938781879C4399CB904BCC4B9D
:104960001442CD8E14C290439C471442D58F1CC272
:1049700085679387870B9726002023ABF63E8547F4
:104980001CC3930790053CCB8280411197270020E0
:10499000A38F073C22C406C626C217240020034466
:1049A000043D95476318F406972700209387074135
:1049B000985F3E8483467700A9CA03465700B755DF
:1049C000550037C5898E93855555130565EDF13D25
:1049D0009726002083C676399387A6FF93F7F70FB3
:1049E0000547636AF700972700202382D738972767
:1049F0000020A38EE736954717270020A307F73638
:104A00001C5C130710FA2383E700B240224492444F
:104A1000410182809947631DF4029724002093840A
:104A2000E439BC4003C777006DD303C65700B755C0
:104A3000550037C5898E93855555130565EDB535F8
:104A400097270020A3838732BC40130710FB65BF64
:104A50009D47E31CF4FA9727002083C76732858BB4
:104A6000172600200346F6339726002083C66633B8
:104A70009DC3972700209387A732C84309CD83455C
:104A800015000905EF00700149D18547172700205F
:104A9000A30FF72C9DBF81450145EDB79727002057
:104AA0009387472C9C4FB9CB411106C622C4EFF027
:104AB0009FCD1384C1872522EF10201DEFF01FC169
:104AC0001C401307D005B8CBEF10A04FEF20401EBD
:104AD000EF10A032EF10203A854717270020230758
:104AE000F7281C4023A80704EFF09FD3B2402244CC
:104AF00097270020A38B07264101828082804111E5
:104B000022C4172400201304E4251C4C06C626C228
:104B10008DCB9384C1879C401307D005B8CBEF1091
:104B200080359C4023A80704834784008507172706
:104B30000020230DF722EFF0BFCE97270020A38699
:104B40000722B240224492444101828023AC018674
:104B5000B7C7004023A8F1861387073023A4E18656
:104B60001387072023AEE1869387071037D70040CD
:104B700023A2E18823A6F18605474111972700204B
:104B8000A385E71E22C417240020130424161C400A
:104B900006C69726002023A1F61E938707119726A5
:104BA000002023ADF61C972700202381E71CFD354C
:104BB00037E700E0B70710002320F710B706200002
:104BC0002320D71003074401635707001387C187C9
:104BD0001843FD177CD3B240224441018280938761
:104BE000C1879C43930600052947D4CBD8CF9305B2
:104BF000C008CCD31306C003D0D7CCDBD0DFF4C3BE
:104C0000F8C71307600FB8CF316713073730D8C71D
:104C10009707002093872793370700F07D8FB7E62B
:104C200000E0B207F8C2B18337070015D98FBCD6B0
:104C30008280938741869C43011122CC4EC606CECA
:104C400026CA4AC852C456C2829797270020938723
:104C50002715804781496308A406BE849727002052
:104C60009387C708038747013E8963580706018D6C
:104C7000135455009727002083C727129379F50115
:104C80006360F404370AC0A8B70A405797000020B1
:104C9000E78020A39C449726002083C60610139724
:104CA00056003E9783074901158C63C5070063636F
:104CB000470156979727002023A8E70EE378D4FCF6
:104CC0001604B3693401F24062444E85D24442492D
:104CD000B249224A924A05618280E37A85F8B70791
:104CE000C0A833848740229561B7938741869C434F
:104CF000411122C406C626C28297972700209387B7
:104D0000270A8047630AA406BE849727002093875A
:104D1000E7FD8387470163D90704018D13545500CC
:104D20009727002083C767076368F4049700002073
:104D3000E780209998449727002083C70706939619
:104D4000570036971D8C9726002023AFE604E37F9B
:104D5000F4FC2244B240924417250020034555023A
:104D6000814541016F10D075E37985FAB707C0A876
:104D70003384874022955DB7B2402244924441017A
:104D80008280411106C69727002023860702EFF094
:104D90007FAC01458145EFF06F86B240014541018E
:104DA0008280011126CA97240020938464FD83C762
:104DB000040022CC06CE4AC8858B17240020130499
:104DC00064FA6385070E83472400858BE1C7972724
:104DD0000020238A07F8EFF09F9F65379C48014623
:104DE000814505458297834734002689858BC1C755
:104DF000084C97270020A38807F681451306F10089
:104E000097270020238207F697F0FF1FE780006BAB
:104E1000AA850DE11C4C9306F00F03C70700630B36
:104E2000D7009727002083C7B7F76385D7006303B0
:104E3000F70089458307090063C707001C4C034737
:104E4000F1002380E70083270901104C0945829770
:104E50009727002083C707F6898B81CB85451725C7
:104E60000020034565F5EFE0BFDAF2406244D2442A
:104E70004249056182809387C1879C43BC53F5F703
:104E800097270020238207EE9C480146814549452B
:104E90008297E1BFFD35EFF08F9C97270020238597
:104EA00007EC9C48014681454545DDB78347340002
:104EB000858B99CFF93597270020A38607EA972796
:104EC0000020238307EA9C48014681450545C9B770
:104ED0004D3DE1B71C4963820712411122C406C649
:104EE000834705002A8493F7070489C75C41094575
:104EF0006381071013060002814517250020130562
:104F000025E8EFE0BFCBA28513060002172500209D
:104F1000130505E797F0FF1FE78020001724002006
:104F2000130404E65C4891E7FD571727002023236C
:104F3000F7E69727002083C737E699E793078002B3
:104F400017270020A30AF7E49727002083C7E7E488
:104F500091E7A147172700202301F7E497270020B6
:104F600083C7B7E391E7C54717270020A307F7E2F8
:104F70009727002083C787E291E7ED571727002086
:104F8000230EF7E09727002083C757E191E7ED57FD
:104F900017270020A304F7E097270020938747E016
:104FA000C84309C597000020E78020869727002086
:104FB00023AA07DE83470400858B85C317250020BD
:104FC0000345D5DD93059004090597F0FF1FE780A1
:104FD000207A9727002023A7A7DC834714000145E8
:104FE00017270020A309F7DC1C4417270020232FD4
:104FF000F7DAB2402244410182800545828079710E
:1050000026D2972400209384A4D79C4406D622D489
:105010004AD04ECE52CC56CA5AC85EC6638D0726B9
:10502000138AC18783270A0098430D8B09C79843C9
:105030001367870098C317290020130969D683478F
:105040004901B689B28A898B2E842A8B9D4B89EBC4
:1050500083C7040093F7070485C78945C84035A076
:10506000EFF03FBDE3FEABFE9727002083C7E7D2FA
:105070009607D117E3E6A7FE83474901898BE9DB51
:105080008145172500200345B5CFEF1070438326D7
:105090000A009307A00517270020034767CEBCCA64
:1050A000937707046380071CD040B797DBFF938793
:1050B00007813E96E1679387076A63F5C71A9307EE
:1050C000000DBCD29387C1869C439044058B136727
:1050D000E70190C7D044D0C3D8C203476901136722
:1050E0002700972600202388E6CC17270020A30955
:1050F00037CB17270020230557CBD857B70600F02A
:10510000FD16719BD8D7984397290020938989C5AC
:10511000758F98C303A5490163090B14230055013A
:10512000A30085002286DA85090597F0FF1FE78036
:10513000C0DE938701879C4303A74901814517057A
:105140000000130545C698CB97270020238D07C084
:1051500097270020A38907C097270020238607C030
:10516000EFE0DFC9EFF0CFEB8D4717270020A30E4C
:10517000F7BE9727002083C767C29D0792071727AE
:1051800000202327F7BE83270A00B8537DFF21673D
:1051900013073730D8C7131744001307C71CB8D3F9
:1051A000130700F8972600202380E6BC3167130719
:1051B0003730D8C783474901898B95CF938741867C
:1051C0009C43829717270020130747B20307470124
:1051D00083278900635E07081D8D03C704000D81C6
:1051E00083A74901418B49CF370780006205130728
:1051F000F72F598D88C3EFF0CFDF9387418898430D
:1052000001455C578583858BB9C3DC40C1659385B7
:1052100005A0938787C1B3D6B702370810FE7D1863
:10522000B3F7B702FD8A139646017443B3F606013D
:10523000D18E74C39306A00F3706FCFFAA07B3D71D
:10524000D7027443F18EBA07B983D58F7CC3B250AD
:10525000225492540259F249624AD24A424BB24B0A
:10526000456182809307000AA9BD23205501D1B56D
:10527000E374F5F63707C0A8B307F7403E95B1BF12
:1052800009041374F40FA38087003E9423000400E4
:10529000A300A4008DB705455DBF011126CA938404
:1052A000C1879C404EC652C4984356C25AC006CECF
:1052B00022CC4AC80D8B2A8AAE89328BB68A05C3A6
:1052C000B84B619BB8CB98431367870098C39C4346
:1052D0008D83858B89C7010001000100010017241F
:1052E00000201304E4AB834744011729002013096D
:1052F00029A9918B99E78347090093F707046395E0
:105300000716814517250020034595A7EF10501B70
:105310009387C1869C4303278900B706001098C76E
:105320000327C900D8C3D857719B13672700D8D764
:105330009843558F98C3834709009840858B93E71E
:10534000E7015CC397270020A38D67A5972700205E
:10535000238957A55C43858BADC75C4085E3172542
:1053600000200345B5A393059004090597F0FF1F9E
:10537000E78000409727002023A6A7A25C400545B0
:10538000F1CB172700200347C7A12380E7005C402B
:1053900063000A0E638E090CA380370148404E86D5
:1053A000D285090597F0FF1FE78020B79387018713
:1053B0009C435840D8CB93070004172700202303B1
:1053C000F79AEFF0EFC58347640193E7470017278B
:1053D00000202302F79E97270020A3850798972790
:1053E0000020A383079897270020238F07969D47C7
:1053F00017270020A30BF796972700209387078F86
:105400009C5791CB13060064C14517250020034526
:10541000A59AEFE05F90938781879C4399CBD44313
:1054200090479842518F98C2D447DC4B9842D98F0D
:105430009CC29727002083C767969D07920717276E
:1054400000202327F7929C400547014598C3130786
:105450009005B8CBF2406244D2444249B249224A54
:10546000924A024B0561828085450325490079BD3A
:10547000A380070025BF397126DA97240020938482
:10548000249083C7040022DC06DE4AD84ED6858BE2
:10549000172400201304048D638907308347040018
:1054A000972900209389C98F858B6382072C938766
:1054B00041889843032984015C578583858BA1C368
:1054C000DC40C165938505A0B3D6B702370510FE51
:1054D0007D15B3F7B702FD8A139646017443E98E32
:1054E000D18E74C39306A00F3706FCFFAA07B3D76B
:1054F000D7027443F18EBA07B983D58F7CC3814537
:105500001306F1014A8597270020238D078497F021
:10551000FF1FE780A0FAAA850DE19727002083C727
:1055200057889306F00F638AD700184C034707008B
:105530006305D7006303F70089458387040063C1CF
:105540000714639105148347F1012300F90083C711
:105550004901918B95C783471900CA9703C7070074
:1055600093070008631EF7005C481307F00F98C309
:1055700083C7040093E70701172700202302F78061
:1055800083A749001387C187184383C71700A16603
:10559000938636309387070A54C792073CD3930704
:1055A00000F8971600202381F67CB1679387373087
:1055B0005CC71305A00597F0FF1FE78040EB97F04D
:1055C000FF1FE78060E7EFF0EFA89716002083C683
:1055D000667E93F74600638E0714171700201307A3
:1055E000E770030647011C486350060EF1171717B2
:1055F00000202321F7781C4803A78900635E060C6E
:105600003387E7408347190093958601E185CA9760
:1056100083C717008E0763D0050E63F5E70C1D8F57
:105620009306000263EBE60018486350060CB307CC
:10563000F740171700202329F77689451715002012
:1056400003458577EFE0CFDC83C70400C18BE9CF4A
:1056500003A54900171600200346B67497160020CC
:1056600083C626745DCD834515000905EFF0FFC2A2
:1056700083C70400BD9B171700202303F7701DA8E4
:10568000E38705EC2EC6EFF0EF9C104C9C48B2452A
:105690000D45829703A54900171600200346767032
:1056A0009716002083C6E66F09CD834515000905CE
:1056B000EFF0BFBEF2506254D2544259B259216148
:1056C000828081450145EDB70D47E361F7F2370769
:1056D000C0A87117BA9721BFE3F4E7F2B705C0A8D5
:1056E000AE9739BF3387E74025BFE372F7F4B706BB
:1056F000C0A836972DBF1848635F0600B307F74070
:1057000093E606F8171700202320F76A9717002062
:105710002382D76A1DB7E373F7FE3706C0A8329716
:10572000F1BF8145014599B783471900F917A300D7
:10573000F900EFF00FE59C48104C81450D4582972C
:1057400083471400858B99CB97170020A38C0760A3
:105750009C480146814511458297A9BF97170020B3
:10576000238407609C48014681455145F5B703A550
:105770004900171600200346D6629716002083C6FC
:1057800046620DC1834515000905EFF01FB197175B
:1057900000209387A7559C5B894589DF1305100876
:1057A000829709BF81450145CDB783471400858B9A
:1057B000A9CF97170020A387075AEFF08FDC084C7A
:1057C0009306F00F014903470500630BD7009717B5
:1057D000002083C7175D6385D7006303F70009497D
:1057E0008387040063D007020146814597F0FF1FBD
:1057F000E780C0CC3365A9009375F50F9C48104C29
:105800000D4599BF2A868145D5B79716002083C6D6
:105810004659171600200346D65881450145EFF03A
:10582000DFA7971700209387674C9C5BE38407E80A
:105830008545ADB797170020238F0756971700208F
:1058400093870756C843411106C609C597F0FF1F45
:10585000E780A0FB9717002023A607549717002086
:1058600083C7F75081CF17170020034747509D4744
:105870006316F70097170020A38B074E971600209A
:1058800083C6B64E9387B6FF93F7F70F0547636A53
:10589000F70097170020238CD74C97170020A38878
:1058A000E74CEFE03FFBC145171500200345C5500D
:1058B000EFE06FCF01458145EFE04FD4B2400145A5
:1058C00041018280411106C622C4AD3797170020DE
:1058D0009387074D03C77701DC47A14517150020C3
:1058E0000345854D97160020A38CE6481717002026
:1058F000232CF748EFE02FCB9145171500200345E7
:10590000A54BEFE04FCA9717002083C7A74A13F7AC
:105910002700171400201304A44619CF1C48014681
:105920008145130520028297B24022449717002038
:105930002382074841018280918BFDD71C48014694
:10594000814513054002C5B7797126D2971400200E
:105950009384044583C7440106D622D44AD04ECE50
:1059600052CC56CA5AC85EC6898BD1CF971A00202E
:1059700083CA0A4193E71A0121698569316A1717B9
:105980000020230FF73E0144171B0020130B8B3D13
:10599000938BC18713093930938929F9130A3A3057
:1059A0009716002083C6D63F171600200346463FB1
:1059B00081450145EFF0AFE483472B00858BEDD3A4
:1059C000971700202381073AEFE07FE083473B00F1
:1059D000858BA9C7EFF0EFBA97170020A38507388A
:1059E00083C744018545171500200345E53C93E72F
:1059F00007F817170020230FF73AEFE06FA197176A
:105A00000020238F5737B250225492540259F24942
:105A1000624AD24A424BB24B45618280EFF06FB688
:105A200005041374F40FA1476314F400613DC1BF72
:105A300083A70B00130700F823A6270123A037072D
:105A4000971600202382E63223A64701B8537DFF34
:105A500081BF411122C406C693F715002E84B9C335
:105A60009717002083C7073513F7270015C7E207EC
:105A7000E18717150020034525341306000563DA76
:105A8000070017160020034636319307000A330635
:105A9000F6029145EFE02FA813451400B2402244CE
:105AA0004101828093F72500B1C39717002083C777
:105AB000673013F7470005CBE207E1871715002091
:105AC0000345852F1306000A63DC07001716002024
:105AD0000346962C9307000A3306F6021306860245
