:040000006F10003548
:1000040000000000000000006F0080086F00E02284
:1000140000000000000000000000000000000000DC
:1000240000000000000000000000000000000000CC
:100034006F004006000000006F00E00500000000B3
:100044006F0080056F0060056F0040056F0020059C
:100054006F0000056F00E0046F00C00400000000A2
:100064006F0060046F0040046F0020046F00000400
:100074006F0060236F00C003000000006F00600386
:100084006F0040036F0020036F0000036F00E00265
:1000940001A001A001A001A001A001A001A001A054
:1000A40001A001A001A001A001A001A001A001A044
:1000B40001A001A001A001A001A001A0B717004068
:1000C400130770052380E704130780FA2380E704ED
:1000D4002396A70223800704371700408347270588
:1000E400898BEDDF835707053717004083472705C2
:1000F400898BEDFF3717004083472705898BEDDF98
:10010400035507058280B7170040930670052380C6
:10011400D704130780FA2380E70403C6B7041376D1
:10012400F60DA385C70423800704137605022DC6A4
:1001340003C6A700118A0DE22380D7042380E704B5
:1001440003C7A700136747002385E7009307004B05
:1001540001000100FD17EDFFB7170040930670057D
:100164002380D704130780FA2380E7047D8923942E
:10017400A70001000100010001002380070423807F
:10018400D7042380E7049306100537270040A30310
:10019400D780238007048280137605046DDE03C6AE
:1001A400A700418A0DE22380D7042380E70403C714
:1001B400A700136707012385E7009307007D01006B
:1001C4000100FD17EDFFB71700409306700523806B
:1001D400D704130780FA7D892380E7041365050497
:1001E4002394A700010001000100010023800704FB
:1001F4002380D7042380E704930630053727004083
:1002040079B74111814601468145114506C6AD22A3
:10021400B7170040130770052380E704130780FA1B
:100224002380E70403C76704136717002383E704E5
:1002340023800704B2404101828081460146814502
:1002440011451D2AB7170040130770052380E704E2
:10025400130780FA2380E7047D572396E70203C738
:100264006704136717002383E7042380070401A0AE
:10027400BD473305F50201007D1575FD82804111EE
:1002840022C426C206C6AA84014463179400B2405D
:10029400224492444101828005041305803E4204B5
:1002A400C13F4180DDB7B71700401307000323881F
:1002B400E702854723ACF1847300203023030480D4
:1002C40015472303E48001002302A480828083076E
:1002D4006480E3CE07FE2303048082808307648066
:1002E400E3CE07FE03454480828083076480E3CE27
:1002F40007FE2302A4808280411126C44AC24EC054
:1003040006C61377F50BAD47AA892E899544630673
:10031400F70019456537653F8D444E854537FD59CE
:10032400FD1463983401B240A24412498249410148
:100334008280135509011375F50F453F2209CDB786
:10034400011126CC06CEB704080051371545BD3738
:10035400713769372AC6A53F32459377150089EB73
:10036400136515001375F50FF240E24405618280B0
:10037400FD14E9FC0145CDBF397126DC4ADA4ED8BB
:1003840052D656D45AD25ED006DE62CE66CCB7E7D9
:1003940000E07D5783AA070022C603AA470023A0D2
:1003A400E71823A2E718B717004013077005238046
:1003B400E704130780FA2380E70483C74704930BF9
:1003C40075FFB684E20793FBFB0F8546AA892E8B43
:1003D400328937240040E187015763FA76016308C4
:1003E400D5008946130700026313D5000157D98F3E
:1003F40093F7F70FB71C00402382FC041147230333
:10040400E4801305F00F5D3D094CD13563697C111F
:10041400B70707003E9B378707007955637EEB02D9
:10042400B3079B00636AF702A9476399F90689E455
:100434008144713D26850DA0DA850945753D050980
:100444000345F9FFFD14050B4D3581C49377FB0F6C
:10045400FDF7FD3569FD7D55B7170040130770059D
:100464002380E704130780FA2380E70403C74704C3
:10047400418B2382E704F250B7E700E023A0571131
:1004840023A24711E25432445259C259325AA25A51
:10049400125B825B724CE24C21618280A5476395BA
:1004A400F90685691309F00FB3069900B3742B019B
:1004B400B6941349F9FFB3749900856B33796901D4
:1004C400416B9387F9FFB3F7270199E363FC340188
:1004D40093D94900C147E3E637FF99BF0569C1696C
:1004E4007D19D9B71305800D6388690113050002CE
:1004F4006384790113051008CA85FD3B913521DD1C
:100504004E99B3843441D9B7DA852D45F533CA946D
:10051400E30099F20509D933A30FA9FED5BF938748
:10052400F9FF93F7F70F636CFC0803C75C04B70784
:1005340008001377070219E3B78707007955E37DAD
:10054400FBF033079B00E3E9E7F089476390F90484
:100554008980D549E38E04ECDA850945713B11099C
:100564000327C9FF91472320E48003076480E34EF7
:1005740007FE23033481FD17EDFBFD14110B81C429
:100584009377FB0FE9FF6D3B71F5F1B58547E38781
:10059400F9F4DA852D458D339389F4FFE38A04E871
:1005A400353B93F7390091EB832604800327090038
:1005B40093074900E39FE6E63E89CE84F1BFB54741
:1005C4006396F9001305900BD5399DB5B147130512
:1005D400B00AE38BF9FE9947639EF902DA852D454B
:1005E400213B81448D4BA149D539639674018327FE
:1005F40004802320F9008504E39834FF83270480D2
:1006040013172B01635507002312F90015B5232294
:10061400F90039BD9D476399F90281451305B0047A
:10062400E139BD442320090023220900FD597D310D
:1006340093F77400CA9703C70700FD14398D23800C
:10064400A700E39634FFEDB3A1476392F904CD39D3
:100654008144630D0B008D479304C0036308FB00C2
:100664009304000563048B01930440041375C507C8
:10067400E30095DC19459931993905458131268581
:10068400AD3109459D316D39E31405DAE9B391477C
:100694006399F9001305600615311539130590099E
:1006A40025B7E38709D8F15469B37D1662066186DC
:1006B40093178601E18763D407000145828093176D
:1006C40026003307F500AE9718439C4363E7E70021
:1006D4007D16E37FF7FC7D55828005458280814746
:1006E4001397870161876343B700828013972700BC
:1006F4002A97232007008507E5B78147014793968A
:100704008701E18663C5B60013351700828093968E
:100714002700AA9694428507558FD5B793D755409D
:100724008A07AA979C4305453315B5007D8D8280C1
:10073400FD15E2052A87E18593968501E18693F705
:10074400F50F63C80600FD1593962500BA96D442AA
:10075400E5D68507E207E187014591CF1395270088
:100764002A978326C7FF014781EA1385F7FF1605F9
:100774003A9542054185828085820507F5B7814710
:100784001397870161876343C7008280139727000B
:10079400B386E50094422A97850714C3D5B77D161E
:1007A40062066186014793178601E18763D50700D6
:1007B40013351700828093172600B306F500AE9711
:1007C40094429C437D16B58F5D8FF1BF8A05AA952F
:1007D40001476363B500828083A6C5FFF11593D7F3
:1007E4001600D98F9CC11397F601E5B72A830148F7
:1007F400014701456343D7008280B387050183A87D
:100804000700B30706019C43C697AA976384F800C0
:1008140033B517010507B3080301620723A0F800E5
:1008240061871108C1BF2A8301478147014563C31A
:10083400D70082803388E50083280800330EE60061
:10084400032E0E003388A8403308C841638408018E
:1008540033B508018507B308E300E20723A00801C4
:10086400E1871107E9B7797126D2B286B2842E8660
:10087400AA850A8506D622D47D372A84A6850A85C8
:10088400AD3D33348000060413351500018DB2509C
:100894002254925445618280411122C626C40143E8
:1008A400014F81471314830161846347D402939FEA
:1008B4001600FD1F854E9382F6FFF15333875E00C9
:1008C400620761876348F70732448E06AA9623AE0F
:1008D400F6FEA24441018280131E2300B302C60126
:1008E400814E814F13972E002E9703A802001843C0
:1008F400B3030703333707039E97B3B8770033086E
:10090400E701469885486367E8006314070163E3D9
:1009140077008148850E13978E016187C69F428FA9
:10092400F112E351E4FC2A9E2320FE000503C28752
:100934007E8F8DBF13948E01FA88618493142700EF
:10094400014F1318840113588841634AD8000A07D9
:100954002A97850E1CC393FEFE0FC68785B73308FE
:100964007402131324002E93032303002698329851
:1009740003280800330E680233386802F29733B351
:10098400C701C2989A98054363E7080163141801E4
:1009940063E3C70101431A9F050465B719CDB7176F
:1009A4000040130770052380E704130780FA2380AF
:1009B400E7042396A70223800704828019C1814794
:1009C40099E982803387F500834607003307F500F1
:1009D40085072300D700E397C7FEE5B719C1FD5784
:1009E40081E98280910503A7C5FF1105232EE5FE49
:1009F4007D16E319F6FEF5B7797122D41734000099
:100A04001304C4D71C4006D626D24AD04ECE91C772
:100A140082979737000023A307D65C4089CB03D580
:100A2400C193AD3F5C40829703D5E193853F1C4061
:100A3400639C07189737000083C757D8858B95C7E1
:100A440097370000A38C07D617370000034737D722
:100A5400914763FCE70051219737000083C737D6DD
:100A6400F9178A07A2979C4382979737000083C798
:100A7400A7D9918B89C7975001E0E780A0A21C44B5
:100A840091C3829793878193984317360000034656
:100A9400F6CC3E8997340000938444CC9737000009
:100AA40083C7C7CB93961700BA9683D60600638391
:100AB40006109737000083C767CA63FBC70686071B
:100AC4003E97835507002310070003D5C1932EC614
:100AD400F1359387C1949C4317350000034505C83D
:100AE40013172500BA979C43B2458297AA8903D568
:100AF400E1936D359737000083C747C613971700F6
:100B040083270900BA9703D70700B3E9E9002390C4
:100B1400370183C70400850793F7F70F17370000E1
:100B2400230EF7C217370000034757C363E6E700F5
:100B340097370000238407C21C40D9E79387419468
:100B440098433E8451C39737000083C797C791CB1E
:100B54009737000083C7B7C689E7974001E0E7806D
:100B6400005E1C4082972A8425C19C48AA971737A7
:100B74000000232DF7BE938781949C43B1C703D50E
:100B8400C193293D2285973001E0E78080D99737CA
:100B940000009387E7B8DC5389C7973001E0E7800A
:100BA40060B62254B25092540259F24903D5E193EB
:100BB4004561EDB3850793F7F70F97360000238F50
:100BC400F6B8E3EDC7ECF5B5B2502254925402598D
:100BD400F249456182809167B7C6004093873730F8
:100BE40023A6F6200F10000097370000938707B75D
:100BF400884F938701999C43316713073730F0532B
:100C0400B7071000FD17918F99833A0523A6E620B4
:100C14005D8D82804111B7170040985F3AC6945F9A
:100C24003247E39CE6FE324541018280411106C60B
:100C3400D5379736000083C6E6AF858AB1C69307D9
:100C440030333307F502B337F5023983CA07D98F36
:100C540017370000130787B0584B01456303F702A9
:100C64003385E740636BF70037653D0889C63785F0
:100C74006F0813050590198D3E9517370000232939
:100C8400F7AEB24041018280E5473307F502B3373E
:100C9400F5022583DE0765BF5D7122DE13840198AA
:100CA4003AD218403ED04ACA1C5F86C696C499837D
:100CB4009AC29EC026DC2ADA2ED832D636D442CE48
:100CC40046CC72C876C67AC47EC2858B1389C19716
:100CD400C1C31C5F97340000938404AE93F7F7F903
:100CE4001CDF9737000083C727AD93F707048DC334
:100CF400938701959C4382979737000023A6A7AC5E
:100D040083C7040093F7F70B173700002306F7AAED
:100D1400854717370000A303F7AA83C7440093F756
:100D2400070481EF938701999C43D844B8D3930770
:100D340000FC173700002303F7A88387640063D9F6
:100D44000700832709009C43173700002309F7A6EF
:100D540018401C5F8583858BC9CBF5571CDF0100C8
:100D64000100010001000100010001000100010077
:100D74000100010001000100010001000100010067
:100D84000100010001000100010001000100010057
:100D94000100010001000100010001000100010047
:100DA4000100010001000100010001000100010037
:100DB4000100010001000100010001000100010027
:100DC4000100010001000100010001000100010017
:100DD40001000100010001000100010001009387EE
:100DE40001999C4313075004B8CB18401C5F9183AE
:100DF400858B89CFBD571CDF938701999C4323A81A
:100E04000704854717370000230AF79A8327090048
:100E1400D8430583058B19C7D843759BD8C3D843DA
:100E2400799BD8C37254B640A64216438643E25413
:100E34005255C2553256A256125782577248E2484A
:100E44005249424EB24E224F924F6161730020309C
:100E5400938701999443173700001307E795BC5211
:100E640089CF83472700858B89EB83473700858BA0
:100E7400FDD7973700002383079482809387C19816
:100E84009C4399CB944BD04B9842518F98C2944336
:100E94009C479842D98F9CC2938701999C4337C73A
:100EA40000401306C003A8CB930620039735000027
:100EB4009385859083278720C18393F7F70363691C
:100EC400F60083278720C18393F7F70363E6F600D0
:100ED40083C74500858BF9DF82809387019994430A
:100EE400173700001307478DBC5289CB834707008F
:100EF400858B91CB973700002382078C97370000AE
:100F0400A38E078A828083471700858BF1DFDDB7C4
:100F14009387C1989C4399CB944BD04B9842518F63
:100F240098C294439C479842D98F9CC29387019955
:100F3400944337C70040C145A8CA65468327872024
:100F4400C18393F7F70363FBF50083278720C183ED
:100F540093F7F7036364F600BC52EDF382801387C2
:100F640001981843AA87185F1583058B25EF03455D
:100F7400150015051377C51F19C6B386E70083C688
:100F840026002300D60095C59736000083C6268325
:100F940093F606040945A1CAB386E70083C6360062
:100FA400054693F5F6066390C504E206E18663CC34
:100FB40006023385E7008347150003470500A207AF
:100FC40093F70770D98F13970701418393760740EE
:100FD40099C6136707802394E1980145828023947E
:100FE400F198E5BF05458280011136C893860199C1
:100FF4002ECC8C423AC63EC498452ACE32CA9317A8
:10100400070142C2C1831378172036853E8697268E
:1010140000009386667A630408041377072061CF7F
:1010240003C7260013671700172800002307E87872
:1010340013070019B8D1130700F897250000238F70
:10104400E576138701980C4337080010D855719B37
:1010540013672700D8D598413367070198C11377E0
:10106400261005C31376061045CA03C70600136786
:101074001700172600002301E67417270000231128
:10108400077483C6460093C7F7FFC207E206E186EA
:10109400C183184163D106029396170163D70608EA
:1010A40030538D4663E9C6008546172600002307A2
:1010B400D6703453FDFE97260000938666668386B9
:1010C400460163DD060093960701C18663D50606D3
:1010D4007053894663E4C6007453FDFE1447724599
:1010E400E245F58F1CC75246C2463247A247124812
:1010F40005617300203003C7160013671700972596
:101104000000A38BE56A172700002309076A172745
:1011140000002317076AA1B703C736001367170037
:1011240017260000A30BE66889BF85461726000032
:101134002306D66849B7544713960601635106023D
:10114400B7061000FD1674D3972600009386066137
:10115400944E850617260000232ED66041B7A1665B
:10116400D58FADBF172700001307C7668346B701A5
:101174009727000083C75769B69793F7F70FFD4683
:1011840063EAF6044C4B97260000A385F664972780
:10119400000083C7376405473317F700972600001C
:1011A400A384F6666D8F1DEF9726000083C616662E
:1011B400B3F6D70213050002814733D6F500058A3A
:1011C40013F8F70F09CE6399E60097270000A3836D
:1011D4000761828081177DB705071377F70F8507AD
:1011E400E39DA7FC8280938781999843B7570200B7
:1011F4009387079F832607091396560063580600B2
:10120400832607091396660063440600FD17FDF361
:10121400828051C9AA870145C9C98D07C207C18304
:10122400F19BC207C18313074003636BF702138763
:10123400C19A08431387419A14436396A602172759
:1012440000001307E74D185B014525C34111C20790
:1012540006C60545DD8D0297B240014541018280F5
:101264001387819AF9B70357650005EF03574500C3
:101274006369F702B306F74021466370D602104152
:10128400938687001D8FAA96611790C22392E60069
:101294002393060014C12312F5002313B50021057E
:1012A4008280084159BF01458280828001CD9387A5
:1012B400C19A03A807009387419A8C430147C287C8
:1012C40063E3B70082809443636FF50663EDA6067B
:1012D40013868700E368C5FE03D56700216605060B
:1012E4006317C50003C6B1960506A385C19623936B
:1012F4000700638407031386819A1042630FF60084
:101304000356670019EA83D7470014C3835647007E
:10131400B697A1072312F700BA879843E304B7FAF4
:101324009386819A9442E30FD7F883566700D9FADB
:1013340083D64700035647001843A106B29623926A
:0C134400D70098C382803E87B6879DBF0B
:10135000974100209381013817710020130181CA41
:1013600013054000972500209385C54917360020B6
:101370001306067E63FAC5008322050023A05500EC
:1013800011059105E3EAC5FE17D501001305853C5B
:10139000973500209385057C1386418463FAC50048
:1013A0008322050023A0550011059105E3EAC5FE3F
:1013B0001385818497650020938585D06377B50078
:1013C000232005001105E36DB5FE9302800873A08C
:1013D0000230972200209382E24293E2120073903F
:1013E000523097220000938282FA73901234730075
:1013F00020303D432A876373C3029377F700BDEF24
:10140000ADE5937606FF3D8ABA960CC34CC30CC774
:101410004CC74107E36BD7FE11E28280B306C3409D
:101420008A069702000096966780A6002307B700F9
:10143000A306B7002306B700A305B7002305B7002E
:10144000A304B7002304B700A303B7002303B70026
:10145000A302B7002302B700A301B7002301B7001E
:10146000A300B7002300B700828093F5F50F939691
:101470008500D58D93960501D58D61B7939627008C
:101480009702000096968682E78086FA9680C117BA
:101490001D8F3E96E374C3F8A5B73367B500FD53BF
:1014A0000D8B79E7B7877F7F9387F7F710419441DA
:1014B000B372F6003363F600BE92B3E26200639744
:1014C000720C6318D6065041D441B372F6003363F0
:1014D000F600BE92B3E262006398720A631BD60400
:1014E00010459445B372F6003363F600BE92B3E242
:1014F00062006391720A631ED6025045D445B372EE
:10150000F6003363F600BE92B3E26200639A72089B
:101510006311D60210499449B372F6003363F600A2
:10152000BE92B3E26200639372085105D105E30FE6
:10153000D6F61317060193970601631CF70013579D
:10154000060193D706013305F7409375F50F91E92E
:1015500082804183C1833305F7409375F50F91E194
:1015600082801377F70F93F7F70F3305F7408280E8
:101570000346050083C60500050585056313D600EF
:1015800065FA3305D640828011059105E312D6FE37
:10159000014582802105A105E31CD6FC014582801E
:1015A0003105B105E316D6FC014582804105C10530
:1015B000E310D6FC01458280B717004003C77705CA
:1015C0001377E70FA38BE704130700F8A38DE70455
:1015D0003D47238CE70413077003A38CE704828044
:1015E000B717004003D587005D714EDE420541818B
:1015F00086C6A2C4A6C2CAC052DC56DA5AD85ED683
:1016000062D466D26AD06ECE9377050C13070008B9
:1016100081496386E71813070004639AE714B72427
:101620000D8F7D8993840480B3D4A402916793873E
:1016300007E8BE94A167938707D0B3D4F402EFA064
:10164000411D97C701009387E7C69043D443EF90AD
:101650001151EFA0815EAA8B939C040103D9818470
:1016600093DC0C0163150900056913090980B7179C
:101670000040130770052380E704130780FA2380D6
:10168000E704B71A00400547939D0401096C2389BC
:10169000E704514B01438145138D0A04130670057D
:1016A000930680FA094893DD0D01130C0C71A948CB
:1016B0002300CD002300DD0023962A0323000D0024
:1016C00083C72A05898BEDDF83D70A0583C72A05DF
:1016D000898BEDFF83C72A05898BEDDF83D70A0548
:1016E00023942185C207C18333859741131A0501CD
:1016F000135A0A41630B0A143307BA02635E070CDC
:1017000005034203135303016368680C63D9050A98
:101710003305B04093150501C185C204C18063D76C
:10172000450B0965130505713385A502B717004000
:10173000130770052380E704130780FA2380E7046A
:1017400023963703238007043345950242054181E0
:10175000B640264496440649F259625AD25A425B30
:10176000B25B225C925C025DF24D61618280B1E30A
:10177000B77489097D8993840480B3C4A4029167F6
:10178000938707E8BE94A167938707D0B3C4F40298
:10179000EFA0210897C70100938747B27DB597C78F
:1017A00001009387A7B0856483AB070093848438D6
:1017B00065B5930B0000954445B53A89D5BDB3870F
:1017C000FC40139A0701135A0A4181BF09651305AA
:1017D00005713305AA028DBF3385B74163E4FC0070
:1017E0003385FD40330585033344B50363C5880065
:1017F00013150401A9BF528532C636C4EFA0813744
:10180000DE85EFA00108EFA0C130131305011353CB
:1018100003413307694042074183A24632460948E3
:10182000A948631AE900130719006344400113072C
:10183000F9FF420741837D1B137BFB0FCA89D285C9
:10184000E31D0BF62394E18465B7014511B7B71783
:10185000004003D5870039715ECE4205418106DE26
:1018600022DC26DA4AD84ED652D456D25AD062CC8E
:1018700066CA6AC86EC69377050C13070008814BC9
:101880006388E71413070004639CE710B7240D8FE7
:101890007D8993840480B3D4A4029167938707E879
:1018A000BE94A167938707D0B3D4F402EF9071760A
:1018B00097C70100938707A09043D443EF90312A44
:1018C000EFA0A137AA89939A040103D9A18493DADE
:1018D0000A0163150900056913090980B71700405B
:1018E000130770052380E704130780FA2380E704B9
:1018F000139B04010547096A2389E704D14D014D73
:10190000814C135B0B01130A0A714A859720002052
:10191000E78000FB330C5541420C135C0C412395CE
:101920002185630A0C14B3079C0363D0070E050DD1
:10193000420D135D0D01894763E9A70D63DA0C0AB7
:1019400033059041931C050193DC0C41C204C18016
:1019500063D78C0B0965130505713385AC02B71786
:101960000040130770052380E704130780FA2380E3
:10197000E704239677032380070433459502420545
:101980004181F2506254D2544259B259225A925A69
:10199000025BF24B624CD24C424DB24D21618280CF
:1019A000B1E3B77489097D8993840480B3C4A40228
:1019B0009167938707E8BE94A167938707D0B3C464
:1019C000F402EF90116597C701009387278FEDB55B
:1019D00097C701009387878D856483A90700938447
:1019E0008438D5B5930900009544F1BD3E8931BFD7
:1019F0003385AA40131C0501135C0C4181BF0965A6
:101A0000130505713305AC028DBF63FEAA003305D3
:101A1000654133054503A9473344650363C887001F
:101A200013150401B1BF3305AB40E5B76285EFA0E4
:101A30006114CE85EF90F164EFA0A10D131D050197
:101A4000135D0D41B307A941C207C183631AF900B1
:101A500093071900634480019307F9FFC207C1830C
:101A60001387FDFF937DF70FCA8BE28CE3900DF88F
:101A70002395F18475B7014529B741112A83014E99
:101A8000930E407E130F0019930F400663EB6E0A0E
:101A90009308001913034006B3781503854E0D4FC4
:101AA000A14F337365020D891335150063E5BE0C34
:101AB0001308F6FF79467298420813580801330755
:101AC000C70213D61700BE0732976146B3F6C602A7
:101AD00013068070B386C6023697A166F58F42075B
:101AE0005D8FB717004083C6F70293F60608A30779
:101AF000D1000346F10083C6F70293F60608E3948B
:101B0000C6FE8346F10093F6F60FF1DE93067005EC
:101B10002380D704930680FA2380D70423AA0703DF
:101B200083C6170393E60608A388D702D8DB03C74A
:101B3000170313670704A388E70223800704410102
:101B400082807D133368E3039308E016630E080078
:101B50003368F3039308D0166308080093783300C2
:101B600093B818009388D81633081E01131E080175
:101B7000135E0E0121BF6393E503054863860800E9
:101B80000148630303002A8871087298FD15131E2B
:101B90000801C205135E0E01C18109BF13F81500CB
:101BA00063F4BF007908D5B713381800E5BF914733
:101BB00063EEB70217B701001307C7708A05BA951D
:101BC0009C41BA978287B717004003A7470B13457C
:101BD000F5FF698F23AAE70A03A7070B698F23A8DC
:101BE000E70A03A7070A798D23A0A70A8280B717FF
:101BF000004083A6470B1347F5FFF98E23AAD70AA7
:101C000083A6070B558D23A8A70A83A6070A758FFD
:101C100023A0E70A8280B717004003A7470B498F2C
:101C200023AAE70A03A7070B1345F5FF45BFB7171C
:101C3000004083A6470B1347F5FF758F23AAE70AD9
:101C400003A7070A598D4DB7B717004003A7470BE5
:101C5000498FEDB7914763EEB70217B7010013073D
:101C6000A7678A05BA959C41BA978287B717004043
:101C700003A7470D1345F5FF698F23AAE70C03A7B8
:101C8000070D698F23A8E70C03A7070C798D23A004
:101C9000A70C8280B717004083A6470D1347F5FFB6
:101CA000F98E23AAD70C83A6070D558D23A8A70C60
:101CB00083A6070C758F23A0E70C8280B71700401E
:101CC00003A7470D498F23AAE70C03A7070D134568
:101CD000F5FF45BFB717004083A6470D1347F5FF33
:101CE000758F23AAE70C03A7070C598D4DB7B717BB
:101CF000004003A7470D498FEDB7B717004003D544
:101D00008700420541819377050491EB9377F501B4
:101D10003755E801130505803345F5028280937736
:101D2000050C130700046397E7009377F501374527
:101D30009C1CCDB72165130505D08280B7F700E064
:101D4000C8439C478280814737370040A14663C41F
:101D5000C700328582800345B740E38EA6FE3385F7
:101D6000F5000345050085072304A740CDB74111C1
:101D700022C406C62A8451372947B307E502B24078
:101D80008D83B3D7870222449507B3D7E70237374D
:101D90000040C207C1832316F7404101828071656C
:101DA00041111305052006C6D937B7370040130780
:101DB00070F82381E7400D47A381E7401307000433
:101DC000A380E74005472387E740B2404101828076
:101DD0002386018423A80184B717004003A7070CBA
:101DE000B706C0FFFD16758F23A0E70C03A7070DEC
:101DF000B7064000558F23A8E70C03A7070C3D9BAF
:101E000023A0E70C03A7070D1367070123A8E70C1E
:101E1000828023A8A18413064006894503C5418515
:101E20006F50C13DB717004003A5470C83A7470C6F
:101E3000598113451500C18B058999E31365250068
:101E400083C7C184638CA7002386A18401C99387BB
:101E5000018503A30700630303000283828041110D
:101E600006C6EFF0EFF7BD4763F4A700EFF04FF7BA
:101E7000F93ABD4763F3A700D93AB24083D5A184AC
:101E800003D5818441016F5001454111939625008E
:101E9000AA852D4506C697200020E78020CEB240B7
:101EA000014541018280411122C426C24AC02A84D0
:101EB0002E89B284AA85930600200146254506C6D0
:101EC00097200020E78080CB931629002686A285E4
:101ED000294597200020E78060CAB24022449244FE
:101EE0000249014541018280011122CC06CE3714FE
:101EF000004026CA4AC84EC652C483447405034AE9
:101F0000B4058349840503499405EFF0EFEA83475C
:101F1000A40593F4F40F137AFA0F93E71700230D37
:101F2000F40493F9F90F1379F90FB717004003C7B9
:101F3000A705058B6DFF03D5C705A38D4705238C2A
:101F40003705A38C2705A38B9704F2406244D24443
:101F50004249B249224A05618280411193970501A5
:101F600022C406C6C1872E8463DA0700EF40715D84
:101F700019C1EF4071562165218D1DA093F7150001
:101F800013C5150091EF93F7250099CF613D130616
:101F9000000A894503C54185EF50412613452400B9
:101FA000B2402244410182809397250163D0070209
:101FB000EF60112A6D3537F60200130606E08965D9
:101FC00003C54185EF50812309657DB793971501BE
:101FD0000145E3D707FC17B501001305A535EFA0B0
:101FE000C10513060064916503C54185EF500121C9
:101FF000116559B71D71494697B501009385052FA5
:1020000017C501001305054786CEA2CCEF50E107A6
:1020100001E917B501001305A52EEFA0010201A0EB
:1020200037F700E0F9575CC7FD571CCB0564B7E7ED
:1020300000E023A087109306701014C3B843C14674
:10204000B4C323A08718B8C3010001001306C0035E
:1020500081454808EF504102974700209387878DBC
:102060003ECAED47A301F1029307A0102312F1022B
:10207000D1472303F102A167938707E03ECE97077C
:1020800000009387C7E0BEC4970700009387E7E18D
:10209000BEC685472304F102B5472308F10297071E
:1020A00000009387E7C93EDAB7F5070097070000FD
:1020B0009387C7E33EDE814697070000938767DA80
:1020C0007000E1051945BEC0231C81009720002047
:1020D000E780C0AA58088147994670003E9603469B
:1020E000060085070507A30AC700E398D7FED24775
:1020F00091C70357810185676373F70001A0480802
:10210000EF50A130AA8501C917B50100130585203C
:10211000EF90715E01A0F640664425618280411116
:10212000170500001305A5E306C622C4EF50612A77
:10213000138441852300A400312859390345040044
:102140002244B24037F60200130606E089654101D9
:102150006F50C10A411106C6B7170040130770053A
:102160002380E704130780FA2380E70403C7F702FC
:102170001377A70FA387E70203C7F70213672700A8
:10218000A387E702E9391305407E8147014781466D
:1021900005468545EFF07F8EB240014541016F5005
:1021A0004148411197B501009385451C17B50100C1
:1021B0001305C53206C6EF90115417B5010013057B
:1021C000E532EF9051532945EF90F156B24041016D
:1021D0006F30C05C411197B501009385651717B545
:1021E00001001305A52F06C6EF90F150130500025C
:1021F000EF9071542945EF901154EF40314B8567B2
:10220000138607773376C502B2409387873803C5B4
:10221000C185854541013E966F40517E411197B57C
:1022200001009385651117B501001305252B06C61E
:10223000EF90714C13050002EF90F14F2945EF909C
:10224000914FB24003C5C185854541016F500104DE
:102250009757002083C71787411193F7E70F06C6EA
:1022600017570020A300F786EFA0103305E1EF30E9
:10227000C000EF307034B2403726090003C5C18575
:102280001306067C854541016F405177B2404101FC
:102290008280411197B501009385850C17B5010027
:1022A0001305C52306C6EF9011452945EF90B148A7
:1022B000B240410171BF411197B501009385850876
:1022C00017B501001305852106C622C426C24AC0DF
:1022D000EF9071422945EF901146EFA0F02B19E5E0
:1022E0002244B2409244024941019DB797340020F4
:1022F00093848493BC4875741309B4AF7D14239000
:10230000270123918700173500201305E595EFE09D
:10231000E058FC441735002013050595973400203C
:102320009384449923900700EFE020569C4826852B
:102330002390270123918700EFE04056DC44268557
:10234000973400209384448C23900700EFE0E053FF
:102350009C4826852390270123918700EFE00054B5
:10236000DC442685973400209384C4922390070090
:10237000EFE0A0519C4826852390270123918700F8
:10238000EFE0C051DC442244B24002492685924429
:102390002390070041016FE0404F797197B501002C
:1023A000938585FD17B501001305451306D622D484
:1023B00026D24AD04ECE52CC56CAEF90D1332945C0
:1023C000EF907137EFA0501D0DED97B5010093858B
:1023D000A5FA17B5010013056510EF90D13117B5B7
:1023E000010013056512EF9011312945EF90B134CA
:1023F000B250225492540259F249624AD24A45617B
:10240000828013050002EF10D0402A8405E197B5C1
:102410000100938565F617B501001305250CEF90B3
:10242000912D17B501001305A50F75BFA54A130A15
:10243000C012FD59A3005501232245012306350191
:10244000EF10103C2300A400084C3709D40093057A
:10245000891A3105EF20A01A084C83450400310584
:10246000EF301032084C930500103105EF30F03298
:10247000044C0565EF001055B104AA852685EF30A0
:102480003030084C930520293105EF3010316800B9
:10249000EF00606D084C8345C1003105EF30502ED0
:1024A0002285EF10B03C13050002EF10203E2A8475
:1024B00039DDA30055012322450123063501EF1024
:1024C00030342300A400084C9305891A3105EF200D
:1024D0000013084C834504003105EF30702A084C86
:1024E000930500103105EF30502B044C0965EF00C7
:1024F0005027B104AA852685EF309028084C930513
:1025000000503105EF307029044CC526AA85B1046E
:102510002685EF30F0262285EF10E03CD1BD93F701
:102520001500B9CB411122C417B50100130505FBF5
:102530002E8497B50100938565E806C6EF90B11B20
:102540002945EF90511FEFA0300501C9B93513455A
:102550001400B2402244410182809747002083C783
:10256000775693F7E70F93E7170017470020A30B61
:10257000F754EF203052E1BF01458280797197B561
:1025800001009385A5E017B50100130525F506D6D2
:10259000EF9071162945EF90111A61468145280088
:1025A000EFE03FE5EF10D025A547A304F100930726
:1025B000C0122304A1003EC60565FD57230AF100A1
:1025C000EF00305605452D29EFA0007D1DE597B59C
:1025D00001009385A5DB17B50100130525F0EF90E9
:1025E000911117B50100130525F2EF90D11029457F
:1025F000EF907114B250456182802800EF1060386E
:10260000D5BF411197B50100938545D917B5010094
:102610001305C5EC06C622C4EF90F10D2945EF90D5
:102620009111EFA060771DE597B50100938505D75F
:1026300017B50100130585EAEF90F10B17B50100FE
:10264000130585ECEF90310B2244B240294541013E
:102650006F90710E4145EF10D01B2A8405E197B5AC
:1026600001009385A5D317B50100130525E7EF9069
:10267000910817B501001305A5EAE9B7A547A3001E
:10268000F5009307C0125CC197C7010093878701CB
:102690005CC9FD572306F500EF1090162300A40037
:1026A000084CB705D4009385851A3105EF103075B5
:1026B000084C834504003105EF30900C084CBD6593
:1026C000A5053105EF30700D084C9305300231053A
:1026D000EF30100B22852244B24041016F101019D7
:1026E000411122C497B50100938585CC2A8417B582
:1026F00001001305A5DE06C6EF90E17FA28517B5A0
:1027000001001305A5DFEF90017F2945EF90B1028D
:1027100085476309F4008947630AF400B240224404
:10272000410182802244B240410189BD2244B2402D
:102730004101C1BD0111354697B50100938585CF93
:1027400017B501001305854206CE22CCEF40F113E8
:102750000DE597B50100938565C717B50100130511
:10276000E5D7EF90417917B50100130565B9EF90F2
:10277000D10C2945EF90217C01A097370020938749
:1027800027913EC4856793870780340017C60100F0
:10279000130646F297B501009385450617B501006B
:1027A000130545073EC6EF20304F2A840DC997B563
:1027B00001009385A5C117B50100130525D2EF903F
:1027C0008173A28517B501001305C5C7EF90A172EB
:1027D0002945EF904176F240624405618280EF9096
:1027E000402517B50100130565BFEF10D067EF5006
:1027F0009068EF00A114172500201305E548EF00AD
:10280000E10217B50100130565BEEF0061142A84CB
:10281000EF20C04DEFB06076EF20E155EF30C061A2
:10282000EF20302DEFE0A00397B50100938505BAA6
:1028300017B50100130585CA09C8EF90C16BA285C1
:1028400017B50100130545C251B7EF90C16A17B51E
:1028500001001305A5C3EF90016A2945EF90A16D12
:10286000EFD05068EFA0405329C597B5010093857C
:10287000E5B517B50100130565C6EF90C16717B53B
:102880000100130525C2EF9001672945EF90A16A69
:1028900097B50100938585B317B50100130505C4ED
:1028A000EF90616517B50100130505C2EF90A164B3
:1028B00005B7EFF0FF99E9BF4111170500001305B7
:1028C00045C606C6EF40F130238EA184A535EFF052
:1028D0002FD0170500001305E5E0EFF08FD3B240CD
:1028E0008145056541016F00F00E411197B501006A
:1028F000938585C417B50100130545BE06C622C4DD
:10290000EF90615F1384D1858345040017B5010002
:10291000130545CEEF90215E2945EF90C161034537
:102920000400B24022444101828039711C0822DC3B
:102930003EC22E84B7072000B705D30026DA938560
:10294000851AAA843EC448001C0806DE3EC6EF1065
:10295000104BEF10E06AAA854800EF3060629305E3
:1029600000504800EF3060634937AA854800EF30D7
:10297000206197B50100938565BD17B5010013056A
:10298000E5B5EF904157835584000356640017B5B1
:1029900001001305E5C0A18193F5F507EF90A1555E
:1029A0002945EF904159834794000147814693F7A9
:1029B000F707D917B337F000B307F0402305F40049
:1029C0005000A2852685EF10B06615C52A8497B5FC
:1029D00001009385A5B717B50100130525B0EF9049
:1029E0008151A28517B50100130505BDEF90A150D7
:1029F0002945EF904154F2506254D25421618280B3
:102A0000A38EA1848280411122C426C22A84AE846E
:102A100017B50100130585AC97B501009385C5B4C2
:102A200006C6EF90414D13050002EF90C1502945B5
:102A3000EF90615022852244B240A6859244410124
:102A4000EDB5797122D426D22E844AD08145AA844C
:102A500032892800614606D6EFE0BF99EF10405A50
:102A6000A547A304F1009307C0123EC62304A100AA
:102A7000EF40C143930720033375F50297B501007A
:102A8000938505B02AC817B50100130525A5EF9059
:102A90008146835584008306840003566400A18127
:102AA00093F5F50717B50100130585B2EF90A14422
:102AB0002945EF90414883479400294793F7F7074A
:102AC0006385E700FD57230AF1008317640063590B
:102AD000F000FD57230AF1009307400602C83EC6E6
:102AE000032709008347270083461700A207D58FD5
:102AF00093060050639CD700834737002800A38EBD
:102B0000F184EF001068A28526850535B250225465
:102B10009254025945618280011197B50100938555
:102B2000E5A617B501001305659B32C606CEEF90EA
:102B3000813C13050002EF9001402945EF90A13F31
:102B4000324618428347270083461700A207D58FD5
:102B5000930600506396D70083473700A38EF18415
:102B6000F24005618280411126C297B5010093852C
:102B7000E5A9AA8417B501001305459606C622C427
:102B8000EF906137138401860C4017B501001305DF
:102B900025B2EF9041362945EF90E1391C40B24013
:102BA00022449CC092444101828039711C0822DC7D
:102BB0003EC22E84B7072000B705D30026DA9385DE
:102BC000851AAA843EC448001C0806DE3EC6EF10E3
:102BD0001023EF10E042AA854800EF30603A9305D9
:102BE00020294800EF30603B0A85B53F8245480008
:102BF000EF30A03F97B50100938545A217B50100BE
:102C00001305C58DEF90212F835584000356640072
:102C100017B501001305C598A18193F5F507EF904D
:102C2000812D2945EF90213183479400014781464A
:102C300093F7F707D917B337F000B307F040230530
:102C4000F4005000A2852685EF10903E15C52A8419
:102C500097B501009385859C17B50100130505887C
:102C6000EF906129A28517B501001305E594EF9057
:102C700081282945EF90212CF2506254D2542161D1
:102C80008280411122C426C22A84AE8417B5010075
:102C90001305C58497B501009385C59906C6EF90C5
:102CA000812513050002EF9001292945EF90A12805
:102CB00022852244B240A68592444101FDB5797136
:102CC00022D426D22E844AD081453289AA846146F4
:102CD000280006D6EFE0EFF1EF108032A547A304FD
:102CE000F1009307C0123EC62304A100EF40011C6F
:102CF000930720033375F50297B501009385C594BA
:102D00002AC817A501001305657DEF90C11E8355E4
:102D10008400035749008306840003566400A181A0
:102D200093F5F50717B501001305C594EF90A11CA5
:102D30002945EF9041200327090083472700834658
:102D4000170013072029A207D58F6395E70697B5CB
:102D500001009385658F17A5010013052578EF9075
:102D600081198325090017B501001305259383C731
:102D7000450003C7350083C6250003C8550003C6B8
:102D8000150083C50500EF9001172945EF90A11AA2
:102D90008326090003C7460083C7360022075D8FDC
:102DA00083C75600C2075D8F83C76600E207D98FCD
:102DB00023A0F18683479400294793F7F70763859B
:102DC000E700FD57230AF100831764006359F00000
:102DD000FD57230AF1009307400602C83EC62800AB
:102DE000EF106032A2852685C933B2502254925426
:102DF000025945618280011197B5010093850586CE
:102E000017A501001305856D32C606CEEF90A10E01
:102E100013050002EF9021122945EF90C1113246AF
:102E20001C4203C7270083C617002207558F93064D
:102E300020296312D70203C7470083C63700220741
:102E4000D98E03C7570083C767004207558FE20733
:102E5000D98F23A0F186F2400561828039711C0868
:102E600022DC3EC22E84B7072000A16526DA3EC4CC
:102E7000AA841C0893854520480006DE3EC6EF1054
:102E80000078B717004083A5470C4800B58193C56B
:102E900015008589EF30C00E97B501009385058335
:102EA00017A5010013058563EF90E10483558400A5
:102EB0000356640017A501001305856EA18193F5E3
:102EC000F507EF9041032945EF90E1068347940011
:102ED0000147814693F7F707D917B337F000B307D7
:102EE000F0402305F4005000A2852685EF10501411
:102EF00015C52A8497A501009385457D17A5010076
:102F00001305C55DEF80317FA28517A5010013056C
:102F1000A56AEF80517E2945EF90E101F25062549D
:102F2000D25421618280411122C426C22A84AE84F7
:102F300017A501001305855A97A501009385457AC9
:102F400006C6EF80517B13050002EF80D17E294534
:102F5000EF80717E22852244B240A68592444101D1
:102F6000F5BDB717004083A7470C7D8D13351500BD
:102F70008280411126C2AE848D4522C406C62A84B1
:102F8000EFE05FCDB717004099C803A5C70C418D8E
:102F900023A6A70CB240224492444101828003A59B
:102FA000870C418D23A4A70CF5B7011197A501004B
:102FB0009385057517A501001305455232C606CE47
:102FC000EF80717313050002EF80F1762945EF80E1
:102FD00091763246B717004083A7470C1842B58355
:102FE0008345070093C71700858B6386F500F24081
:102FF00009650561BDBFF24005618280797122D407
:1030000026D22E844AD081453289AA84614628007E
:1030100006D6EFE00FBEEF00B07EA547A304F10097
:103020009307C0123EC62304A100EF303168930716
:1030300020033375F50297A501009385656B2AC8B7
:1030400017A5010013058549EF80F16A83558400B7
:103050008306840003566400A18193F5F50717A544
:1030600001001305656EEF8011692945EF80B16C91
:1030700083270900096583C50700E53D8347940060
:10308000294793F7F7076385E700FD57230AF10007
:10309000831764006359F000FD57230AF10093077A
:1030A000400602C83EC62800EF00D004A28526854F
:1030B0007533B2502254925402594561828039715D
:1030C0001C0822DC3EC22E84B7072000A16526DA48
:1030D0003EC4AA841C0893854520480006DE3EC6EF
:1030E000EF10E051B717004083A5470C4800B181AD
:1030F00093C515008589EF20B06897A501009385D9
:10310000E56617A501001305653DEF80D15E835587
:1031100084000356640017A5010013056548A181CA
:1031200093F5F507EF80315D2945EF80D160834746
:1031300094000147814693F7F707D917B337F0009A
:10314000B307F0402305F4005000A2852685EF1058
:10315000206E15C52A8497A501009385256117A5C2
:1031600001001305A537EF801159A28517A50100AD
:1031700013058544EF8031582945EF80D15BF2502B
:103180006254D25421618280411122C426C22A8411
:10319000AE8417A501001305653497A5010093853A
:1031A000255E06C6EF80315513050002EF80B15849
:1031B0002945EF80515822852244B240A685924489
:1031C0004101F5BDB717004083A7470C7D8D13352E
:1031D00015008280411126C2AE848D4522C406C6E8
:1031E0002A84EFE03FA7B717004099C803A5C70C92
:1031F000418D23A6A70CB240224492444101828013
:1032000003A5870C418D23A4A70CF5B7011197A541
:1032100001009385E55817A501001305252C32C63A
:1032200006CEEF80514D13050002EF80D1502945A5
:10323000EF8071503246B717004083A7470C184201
:10324000B1838345070093C71700858B6386F5001C
:10325000F24005650561BDBFF2400561828079716C
:1032600022D426D22E84B284814561464AD02A894E
:10327000280006D6EFE0EF97EF009058A547A3048B
:10328000F1009307C0123EC62304A100EF301142A3
:10329000930720033375F50297A501009385454FE9
:1032A0002AC817A5010013056523EF80D144835573
:1032B000840003D744008306840003566400A18180
:1032C00093F5F50717A501001305C53AEF80B14244
:1032D0002945EF8051469C40056583C50700DD3DCB
:1032E00083479400294793F7F7076385E700FD5765
:1032F000230AF100831764006359F000FD57230A85
:10330000F1009307400602C83EC62800EF00F056C1
:10331000A2854A856D33B2502254925402594561B8
:10332000828041118D4522C406C62A84EFE09F9217
:10333000B717004003A5870CB240218D224423A477
:10334000A70C410182800111354697A501009385A4
:10335000650E17B501001305658106CEEF30F152F9
:1033600001E917A501001305E547EF80114D01A004
:10337000EF60C1792AC6EF10B163EF10B142EF7070
:103380009025F24032450561828041111305800489
:1033900006C697000020E780405737170040832774
:1033A000870A8D451305002093E707202324F70A99
:1033B000EFE0EFFFEFE0BF9E17B501001305850BAF
:1033C000EF80B14717A501001305457AEF80F1465C
:1033D000EFE05FC2EFE0BFD4BD37EFF0EFCD971065
:1033E0000020E780A0E1E5BF014582804111B2865F
:1033F0002E86AA852D4506C697000020E780007816
:10340000B240014541018280AE860146AA8525452C
:1034100017030020670083769307000463E6C70262
:103420001D71A2CC2A84080886CE32C6EF805121B5
:10343000B2461008A285294597000020E780007455
:10344000F64066442561828039558280411197A5F6
:1034500001009385654417A501001305250806C6DC
:10346000EF80712913050002EF80F12CB24029454D
:1034700041016F80512C5C49411122C406C62A8447
:1034800091C7DC4381C72E850C4882971C4CC84BE2
:10349000EF3091041C4CB240224423AA07004101A2
:1034A00082804111328506C622C426C22E844AC0BB
:1034B000EF201039AA8497A501009385A53C17A594
:1034C00001001305A501EF801123030784000356B3
:1034D000640083554400A68617A50100130585479F
:1034E000EF8071212945EF80112517340020130446
:1034F000A449173900201309294F83470400639B0F
:10350000970081452285853F8345C40103C54186D7
:10351000EF30D15713040402E31124FFB2402244D8
:1035200092440249410182801C42011126CA4AC8C4
:1035300006CE22CC03C4270003C71700AA842204A6
:10354000598C3D672E896378870003C4470083C781
:10355000370022045D8C97A501009385653117A57E
:1035600001001305A5F732C6EF80F118A28517A553
:1035700001001305E540EF8011182945EF80B11BCC
:1035800062443246F240CA8526854249D2440561EA
:103590006FF08FD81C42011126CA4AC806CE22CC31
:1035A00003C4270003C71700AA842204598C3D676F
:1035B0002E896378870003C4470083C7370022043D
:1035C0005D8C97A501009385A52917A5010013051A
:1035D000E5F032C6EF803112A28517A50100130570
:1035E000253AEF8051112945EF80F11462443246AB
:1035F000F240CA8526854249D24405616FF06FC406
:103600001C42011126CA4AC806CE22CC03C4270098
:1036100003C71700AA842204598C3D672E8963785A
:10362000870003C4470083C7370022045D8C97A539
:1036300001009385E52117A50100130525EA32C68F
:10364000EF80710BA28517A5010013056533EF808C
:10365000910A2945EF80310E930700503246631BD3
:10366000F4006244F240CA8526854249D24405618D
:103670006FF06FB9F2406244D244424905618280E2
:10368000411106C69737002093870730173700206F
:103690001307472A98CF0547238EE70017370020E6
:1036A0001307072B98DF0947238EE70217370020FF
:1036B0001307C72BB8CF1147238EE7041705000067
:1036C00013058501EF30F150B2402382A1860145F8
:1036D000410182801D719737002083C7A72CCEC679
:1036E00086CEA2CCA6CACAC8D2C4ED8F9739002014
:1036F00093898929D9EF9737002083C7A72CED8FAD
:10370000D9EB9737002083C7E72DED8F0145B5CB67
:103710008947939457001C103EC4B70720003EC64B
:10372000171A0020130A0A571C103EC88327CA0024
:1037300002CA02CC02CE83D7070033849900184C0A
:10374000231BF100FD77231CF1005C4B2E89B1E7B0
:1037500097A501009385051617A50100130505D847
:10376000EF80617917A501001305C518EF80A178D6
:103770002945EF80417CB387990003C5C7013345D4
:10378000A900F6406644D6444649B649264A256112
:1037900082808147BDBF8547ADBF83471400A555D3
:1037A000A5CFFD17035607014C47A300F40083473C
:1037B000C4002800230FF100EF20A07A97A5010094
:1037C0009385450F17A50100130545D1EF80A17220
:1037D0002945EF8041765285228797B6010093866E
:1037E000E6EC30004C08EF10A0042A8A49D597A5D2
:1037F00001009385250C17A50100130525CEEF8048
:10380000816FD28517A501001305850FEF80A16E8A
:103810002945EF804172D5552285EFF0DFC5A1BF64
:103820009C4DDC4B81CBD04183C5C50103C541868E
:103830006F30D11C82801C4EDC4BA1CBB9C541112D
:1038400026C217A50100130565C9AE8497A501001E
:103850009385850506C622C43284EF80C169A6859A
:1038600017A501001305050DEF80E1682945EF80DC
:10387000816C8345C4012244B240924403C5418611
:103880001306400641016F3071178280011122CC6E
:10389000173400201304440F26CA044C06CE4AC82D
:1038A000DC484EC699CF045CDC4895CB244CDC4800
:1038B0008DCB0145F2406244D2444249B249056190
:1038C00082800149AA891609EF30C143C8C833056F
:1038D00024011C4D23993701DC4BE9FFD9BF054971
:1038E000D5B70949C5B710458345C50103C541860C
:1038F0006F30D110411126C2AA84414506C622C4A8
:10390000713705E997A501009385C5FB17A501004F
:103910001305C5BCEF80215E17A50100130545C046
:10392000EF80615D2244B2409244294541016F809D
:1039300081606146A6852A84EF808150084CB705D6
:10394000D4009385851A3105EF00704B084C83C570
:1039500004003105EF20C062084C930500103105CA
:10396000EF20A063044C0965EFF0AFDFB104AA8536
:103970002685EF20E06022852244B2409244410136
:103980009DB7411126C2AA84414506C622C4FD3D09
:1039900005E997A50100938525F417A501001305F6
:1039A000E5B3EF80415517A50100130565B7EF801A
:1039B00081542244B2409244294541016F80A1576D
:1039C0006146A6852A84EF80A147084CB705D4003C
:1039D0009385851A3105EF009042084C83C5040099
:1039E0003105EF20E059084C930500503105EF20D8
:1039F000C05A044CEFE07FEFAA85B1042685EF2082
:103A0000205822852244B24092444101E9BD014739
:103A100097A601009386060E3388E50083470800C9
:103A2000050709059183B69783C70700230FF5FEA5
:103A300083470800BD8BB69783C70700A30FF5FE29
:103A400093170701C183E3E9C7FC8280411197A561
:103A50000100938565FC17A50100130525A806C67E
:103A6000EF80614913050002EF80E14CB240294527
:103A700041016F80414C5C49411122C406C62A8431
:103A800091C7DC4381C72E850C4882971C4CC84BDC
:103A9000EF3081241C4CB240224423AA070041018C
:103AA00082804111328506C622C426C22E844AC0B5
:103AB000EF200059AA8497A501009385E5F417A586
:103AC00001001305A5A1EF800143030784000356FD
:103AD000640083554400A68617A50100130585E7F9
:103AE000EF8061412945EF80014517340020130420
:103AF000A4F517390020130929FB83470400639BB1
:103B0000970081452285853F8345C40103C56186B1
:103B1000EF30C17713040402E31124FFB2402244C2
:103B200092440249410182801C42011126CA4AC8BE
:103B300006CE22CC03C4270003C71700AA842204A0
:103B4000598C3D672E896378870003C4470083C77B
:103B5000370022045D8C97A501009385A5E917A580
:103B600001001305A59732C6EF80E138A28517A59D
:103B700001001305E5E0EF8001382945EF80A13B06
:103B80009307E02832466316F400CA852685EFF0D5
:103B90008FA697A501009385E5E517A501001305FC
:103BA000E593EF80413513050002EF80C138624490
:103BB000F240D2444249294505616F80C1371C4219
:103BC000011126CA4AC84EC606CE22CC03C427001D
:103BD00003C717002A892204598C3D67AE89B28435
:103BE0006378870003C4470083C7370022045D8CD5
:103BF00097A50100938545DF17A501001305058EE4
:103C0000EF80612F03D64400A28517A5010013059C
:103C1000A5EFEF80412E2945EF80E1319307202960
:103C2000631DF4006244F2402686CE85D244B24938
:103C30004A85424905616FF08F88F2406244D24460
:103C40004249B249056182801C42011126CA4AC814
:103C500006CE22CC03C4270003C71700AA8422047F
:103C6000598C3D672E896378870003C4470083C75A
:103C7000370022045D8C97A50100938525D617A5F2
:103C800001001305A58532C6EF80E126A28517A5A0
:103C900001001305E5CEEF8001262945EF80A1291B
:103CA0009307E0283246631BF4006244F240CA8561
:103CB00026854249D24405616FE0BFFCF240624470
:103CC000D2444249056182801D719737002083C725
:103CD00067D9CEC686CEA2CCA6CACAC8D2C4ED8F3A
:103CE00097390020938949D6D9EF9737002083C7A9
:103CF00067D9ED8FD9EB9737002083C7A7DAED8F0F
:103D00000145B5CB8947939457001C103EC4B707B3
:103D100020003EC6171A0020130ACAF91C103EC81C
:103D20008327CA0002CA02CC02CE83D7070033849D
:103D30009900184C231BF100FD77231CF1005C4B0C
:103D40002E89B1E797A50100938505D0179501004D
:103D50001305C578EF80211A17A50100130585B951
:103D6000EF8061192945EF80011DB387990003C5D4
:103D7000C7013345A900F6406644D6444649B649D2
:103D8000264A256182808147BDBF8547ADBF8347F5
:103D90001400A555B9CFFD17035607014C47A300E2
:103DA000F4008347C4002800230FF100EF20601BBC
:103DB0005285228797B601009386469030004C08C2
:103DC000EF0010272A8A55D197A501009385C5C712
:103DD0001795010013058570EF80E111D28517A5B5
:103DE00001001305E5B1EF8001112945EF80A11411
:103DF000D5552285EFF03FC88DBF9C4DDC4B81CB64
:103E0000D04183C5C50103C561866F30213F8280E3
:103E10001C4EDC4BA1CBB9C5411126C21795010040
:103E20001305C56BAE8497A50100938525C106C611
:103E300022C43284EF80210CA68517A5010013054A
:103E400065AFEF80410B2945EF80E10E8345C4014A
:103E50002244B240924403C56186130640064101E4
:103E60006F30C1398280B707B1FB9387871A173744
:103E700000202323F7C4B79700369387B718173766
:103E80000020232DF7C2B787EB3D157193878782FA
:103E9000173700202326F7C288109307002586CF06
:103EA000173700202320F7C2A2CDEF10C15BB797D0
:103EB0008BFB9387071011464C0028103EC2EFF091
:103EC0001FB597A501009385E5BB0818EF80A117E2
:103ED000194697A50100938525C013051103EFF03E
:103EE0001FB397A501009385E5B91305D103EF80B2
:103EF0008115414697A50100938565BE1305E10331
:103F0000EFF0FFB0130660032C108810EF10C15CB7
:103F100085476308F50A97A501009385E5B01795D5
:103F200001001305A55BEF70117D17A501001305B6
:103F3000A5B5EF70517C2945EF70F17FEF20117727
:103F40009357850003C75186AA97BA97135705015F
:103F5000BA976181AA97A382F18697370020938749
:103F600067A917370020232DF7AE854717370020A4
:103F7000230AF7AE97370020938787A917370020C9
:103F80002320F7B0894717370020230DF7AE973766
:103F900000209387A7A9173700202323F7B0170520
:103FA00000001305A5D2914717370020230CF7AE68
:103FB000EF302142FE406E442383A18601452D61EE
:103FC00082802A848C102800EF10815863018502BA
:103FD00097A50100938545A5179501001305055088
:103FE000EF70717117A50100130585AB99B74146B4
:103FF0002C0017350020130525ABEF7071643DBF11
:104000009387518603C50700130715002380E70037
:104010008280011122CC173400201304E4A226CAA6
:10402000044C06CE4AC8DC484EC699CF045CDC4836
:1040300095CB244CDC488DCB0145F2406244D24400
:104040004249B249056182800149AA891609EF20D7
:10405000714BC8C8330524011C4D23993701DC4B33
:10406000E9FFD9BF0549D5B70949C5B7104583450B
:10407000C50103C561866F306118411126C2AA844B
:10408000414506C622C4713705E997A5010093850D
:10409000A59C1795010013056544EF70D165179530
:1040A00001001305E547EF7011652244B2409244C8
:1040B000294541016F7031686146A6852A84EF70F9
:1040C0003158084CB705D4009385851A3105052B66
:1040D000084C83C504003105EF10906A084C930525
:1040E00000103105EF10706B044C0565EFF08F8DFB
:1040F000B104AA852685EF10B06822852244B2401B
:1041000092444101A5B7011126CAAA8413050002F1
:1041100006CE22CCEFF0FFEF0DE997A501009385C5
:10412000E594179501001305653BEF70D15C179579
:1041300001001305E53EEF70115C2945EF70B15F9A
:10414000F2406244D244056182806146A6852A8499
:10415000EF70114F084CB705D4009385851A3105CF
:104160007929084C83C504003105EF107061084CB3
:10417000930520293105EF1050626800EFE0BF9EE3
:10418000084CB2453105EF1050662285EFF01FEE66
:1041900045BF011122CC2A8408454AC84EC606CE26
:1041A00026CA52C42E89B28909C900C197150000D8
:1041B000938525836105EF00B15081447D5AEF104E
:1041C000401A63C8A4048144EF10601A63CBA404AE
:1041D000938781869C43DC47B307F940918723028C
:1041E000F400638809048327C900B307F440958766
:1041F000A302F4001C4CD5CB03A387006307030A7A
:1042000022856244F240D2444249B249224A0561C1
:1042100002835C44139714008504BA9723904701E6
:1042200079BF1C48139714008504BA9723900700A0
:1042300061BF832789000547B307F4409587A30230
:10424000F40083570400638EE7028DC3094763843B
:10425000E7040D47E390E7FA97A701009387C7DDCE
:104260001CCC97A70100938727DE11A897A7010010
:10427000938787A41CCC97A701009387E7A45CC809
:1042800095BF97A70100938727901CCC97A70100A3
:1042900093878790EDB797A701009387A7DE1CCC83
:1042A00097A70100938707DFD9BFF2406244D24449
:1042B0004249B249224A056182809DE1411122C4EE
:1042C000004606C618448347940075839D8B63158A
:1042D000F700EF00302C48C4B240224441018280F4
:1042E000828079714AD01389350026D24209C1648F
:1042F00022D44ECE52CC06D6AA890144F1141359C9
:104300000901054A2EC6EF10C005B245634BA40053
:104310000145B250225492540259F249624A456111
:10432000828083A7090013171400BA9783D7070068
:104330006388B7006394970063742A010504D9B7B2
:104340000545C1BF797126D24AD04ECE52CC56CA4D
:104350005AC806D622D45EC6AA892E89328BB68464
:104360003A8ABE8AEF80502369C12685EF10303B20
:104370008D4763EEA7007D55B250225492540259E6
:10438000F249624AD24A424BB24B4561828083DB9A
:104390004400EF1080012A84EF102002930774007C
:1043A00031443305850263C4A702EF100000EF001B
:1043B000D07F2A84EF1060009307740031443305E6
:1043C000850263C4A704EF00507E110519A8EF0011
:1043D000D07E330485029307F0171305C017E3D886
:1043E00087FC6346750563080B022254B250F249FC
:1043F000424BB24BD6865286D24A624AA6854A853D
:104400009254025945616FF0B01FEF00107B3305E5
:1044100085027115F9B7832749001385C90083D533
:104420002700EFF01FEC71F1B9B76955B1B72D5501
:10443000A1B72396A18693878186904381470C4636
:104440003307F500420741836393B70082805446E7
:10445000139847008507C2962390E600D5B7938747
:1044600081869C4303C58700828003D5C1868280F4
:104470004111C16706C61387D7FF6308E502636968
:10448000A700F117630FF5000145B240410182809A
:104490001387E7FF630EE500FD171D8D133515002B
:1044A000EDB7EF4060597D15D5BFEF402035E5BF32
:1044B000EF40C033CDBF011122CC26CA06CEAA845C
:1044C00001442EC6EF00B06AB2456348A40001451E
:1044D000F2406244D244056182809C481315140066
:1044E0003E9583570500E385B7FE0504D9BF034811
:1044F0005500814693F7F60F63E5070181473E8536
:104500008280584593975600BA9703D727006316C1
:10451000B70003D70700E304C7FE8506E1BF834663
:10452000450001479377F70F63E4D700814711A84F
:104530001C45131657000507B29703D60700E3136F
:10454000B6FE3E85828001119317050156C206CE44
:1045500022CC26CA4AC84EC652C4C187938A8186D5
:10456000635CF00883A70A00C0479C470357040018
:10457000198D42054181636DF50001442285F240A9
:104580006244D2444249B249224A924A0561828039
:1045900012052A94E5B7DC4713944900014A3E947A
:1045A000834744006341FA02014A8347540063474A
:1045B000FA028509C20993D9090183A70A0098471D
:1045C000E3EBE9FC5DBF1C4413195A00A6853E9934
:1045D0004A85EFF05FEE11ED050AD9B75C44131977
:1045E0005A00A6853E994A85EFF0FFEC19E1050ACD
:1045F0006DBFE30009FC59B7AA8481497DBF1C4502
:1046000081E79307C5001CC51C45231205001CC18A
:104610009307F00F63E6B70093F5F50F6F10501690
:10462000411126C206C69394050122C4C167C18008
:1046300063F9F5002244B240A685924441016F100F
:104640001018C18193F5F50F2A84EF10701322859D
:104650002244B240A685924441016F101014938702
:104660008186884382801C4589C723A4A186014591
:1046700082807D5582809387818698438347450059
:10468000484792073E9582802171232C811A1C187D
:1046900000453EC6B70780013EC81C183ECA835776
:1046A0004400232E111A2328211B232A911A02CEFB
:1046B00002D002CC231EF100834784002A8902D253
:1046C0002301F1023C083ED402D6EFF0DFFA835713
:1046D00005002316F102EF4040032307A1025C40CE
:1046E00003556400F18313F717008347F102520565
:1046F0005181F99BD98FA307F102EFF0C05F31CD53
:10470000AA8403550500EF80006A83D704002AD2EB
:104710006800231CF10083D72400231DF1001C48EE
:1047200003D647008C43EF10D0038347B400CA86FA
:1047300017A60100130606F98117A305F4006C0003
:104740004810EFF0E06B8320C11B0324811B8324FE
:10475000411B0329011B396182802155EDB71C459E
:10476000B1CF03C5A700894613576500630BD70275
:104770008D46630ED70285466300D70213074006B5
:104780003305E50203C7B700418B15CB83C7B700DC
:10479000BD8B3355F54082801375F5031307803EBA
:1047A000C5B709671375F50313070771D1BF37271D
:1047B00009001375F5031307077CD9B701458280FB
:1047C00041114AC003A9850006C622C426C2630956
:1047D00009048347B900AE8493F7070E95C30345D8
:1047E0009900930520030D810505B305B5028844A2
:1047F0002244B24092440249610541016F00C178F0
:104800002E85EFF0DFF52A8401CD69238325C900C9
:10481000B307B54063FC87002E94B305A440E1F9CB
:10482000B240224492440249410182808545C1B789
:10483000797126D2AA8403D5250022D42E8493052B
:104840003500C2054AD04ECE52CC06D6C18185472E
:104850003289B6893A8A63FBB700EFF0C049AA856E
:104860007D55A9C183D705002310F400035504002A
:1048700002C202C402C6EF8000532AC2268522C4A7
:10488000EFF07FDF835705002316F100EF30F0676C
:104890002307A100D2874E87CA8601464C00268591
:1048A000EFF05FAAB250225492540259F249624A80
:1048B0004561828021711C183EC6B70780013EC841
:1048C0001C183ECA3C08232E111A232C811A232AB5
:1048D000911A2328211B00453ED4AA8402CC02CE83
:1048E00002D002D202D6EFF01FD983570500355906
:1048F0002316F102EF3070612307A10209C4835728
:10490000440089EF21598320C11B0324811B4A8560
:104910008324411B0329011B3961828003556400F4
:1049200052055181EFF0203D2A8969DD8347B400AB
:1049300093F7070E89C713058401EF00E1658357DC
:104940004400231EF100834784002301F1025C40F0
:1049500003550900D98313F7070883471102231C65
:10496000A10093F7F707D98FA300F102835729001D
:10497000231DF1005C40F18313F717008347F10218
:10498000F99BD98FA307F102EF80E0412AD23DD9EC
:10499000834794006800139757008347B400FD8B4A
:1049A000D98FA305F4001C4803D647008C43EF10B1
:1049B000405BA68717A701001307C7D07400054600
:1049C0004C102685EFF01F982A8915DD8347B40027
:1049D000A685FD8BA305F400EFF09FDE2DB7011136
:1049E00026CA832485FE22CC2A84268506CEEFF0B3
:1049F0001FD7834734FF93F7070E85C72AC626853E
:104A0000EFF09FC829C5834734FFB245FD8BA3094A
:104A1000F4FE95CD22856244F240D24405616F00D8
:104A2000A15615C58327C4FF268582970DE18347CC
:104A300034FF93F7070E81C72285EF00E155032568
:104A400084FE6244F240D24405616FF0BFE6F2405A
:104A50006244D244056182809C415D71A2C4CAC097
:104A600086C6A6C24EDE52DC56DA5AD85ED662D46C
:104A700066D26AD06ECE03C7070089472A8993564B
:104A800067002E846386F6040D46638CC604930784
:104A9000F0076300F7022E85EF10805AAA8481493F
:104AA000C16B130C4900938781869C43984763E848
:104AB000E904B640264496440649F259625AD25A4D
:104AC000425BB25B225C925C025DF24D616182806E
:104AD00003D745008547E3FEE7FC2E85EF10605ABB
:104AE00075BF03D74500E3F6E7FC2E85EF10405570
:104AF000AA842285EF108056C204C98C4DB7DC47CA
:104B00000355A900139A49003E9A93170501C187DE
:104B1000635DF00083570A006395A70263E57403A1
:104B20008327CA00034D5A001DA0A1672167A98FE2
:104B30001307F7EFE374F7FE63950900EFF05F9357
:104B400071FD85098DB783278A00034D4A00835D77
:104B5000A90003576900216A138BC7003AC6814A2E
:104B600033CA4D01631C5D01938701879C43F1DBD0
:104B7000A2866286814526858297E1B7A1679387E1
:104B8000F7EF930C4BFF63F04703B2455A85EFF004
:104B90004FF519CD03278B00104719CA10436380C6
:104BA000C4023107D5BFEE856685EFF0DF9071FD59
:104BB00093861A0093FAF60F130B0B0265B7835610
:104BC00044005C43E3EFF6F622853AC6EF108034EA
:104BD000A1679387D7042A8A035D4400324763E8BC
:104BE00097008347D90093E707F8A306F9001C470D
:104BF00066852286E2858297C1670844FD17337A6D
:104C0000FA00529508C02312A40125BF938781861C
:104C10009843814715C31447814763FFD500939795
:104C200045004C47BE9519C903C7550081476375B8
:104C3000E600DC451606B2973E85828003C7450034
:104C40008147E37BE6FE16069C45F5B7011126CAAF
:104C50004EC652C456C206CE22CC4AC85AC0AA89F1
:104C60002E8A8144938A818683A70A00984763EC41
:104C7000E400F2406244D2444249B249224A924A94
:104C8000024B05618280DC471394440001493E9445
:104C900013BB140083474400634BF900014913BB65
:104CA000140083475400634FF900850475BF08441E
:104CB000931759005287DA860146A2853E9582995C
:104CC0000509C9BF4844931759005287DA8605463B
:104CD000A2853E9582990509E9B72396018681450B
:104CE00017F5FFFF1305254B6FF05FF6938781865D
:104CF0009C4381CB814517F5FFFF1305C5496FF034
:104D0000FFF48280797126D24AD04ECE2315E1007D
:104D10002E89B284B6893A8681460147ED4522D470
:104D200006D62A84EF2031452AC639C10356A10090
:104D3000CE85EF70E110CA852285EF2031560589B6
:104D400015C5228501462C0023149100EF20716CBB
:104D50002A8409C5ED452800EF2051502285B25024
:104D6000225492540259F249456182804944DDB788
:104D70006554EDB75C41FD175CC18280411106C6E8
:104D8000EF20813695473305F502B2408145410158
:104D90000D818280411106C6EF200135954733050C
:104DA000F502B24041010D818280035505006F205C
:104DB000D118035505003287AE861706002003562A
:104DC00006F6972500209385E5D06FF0BFF34111DB
:104DD00006C6EF606108B24041018280411197250B
:104DE0000020938525CF06C6EF20116AB240014509
:104DF000410182804111814517050020035525EEB0
:104E000006C6EF20D153B24041018280411197255F
:104E10000020938525CD06C6EF201167B2400145DD
:104E2000410182804111814517050020035525F17C
:104E300006C6EF20D150B2404101828041112E853B
:104E400006C6EF60703EB24041016F6050476F6030
:104E5000704F5C49E1175CC95CC583572501A10708
:104E60002319F50083570501A1072318F500828057
:104E7000F1473305F502938741879C433E95828035
:104E80008D47631BF60803D74600854763F6E7089E
:104E90004111368522C44AC006C626C236842E89F0
:104EA000EF10001A25C58357440093140501C180F3
:104EB00063EE97042285EF10A018FD1423129400CE
:104EC0009307A0026302F5029307B0026308F5029C
:104ED00093079002631CF50222852244B24092445B
:104EE000024941016FD0B01B22852244B240924456
:104EF000CA850249014641016F80C0602285224473
:104F0000B2409244024941016F007051B2402244C4
:104F100092440249410182808280938681879C422B
:104F2000014599CB9843D44223ACE1866394D700E2
:104F300023AEE1861385C7FE8280411122C406C6D6
:104F40007144D526330585029145EF70902A11E50D
:104F50006555B2402244410182809727002023A159
:104F6000A7BAD126330585029145EF7090286DD1FF
:104F700023AAA1864D2E97270020239DA7B665263C
:104F8000972700202399A7B6979701009387C777A3
:104F9000172700202324F7B6970700009387A7EB75
:104FA00017270020232AF7B4014565B7AA851725DE
:104FB0000020130525B46F10C01C411106C6EFF088
:104FC000FFFEEF10801D938781879C4391CF13874D
:104FD000C7FE19CBB24083D5C7FF172500201305A4
:104FE00065B241016FF0507AB240410182804111B7
:104FF00006C622C426C24AC0EFF03FF229C1834749
:1050000085002A8493F7070491EB2244B24092442E
:1050100002490355E50041016FF03FFA8347C5009F
:1050200093044501138981878DE3832709005CC9B7
:1050300023AC91868327490099E323AE9186B24041
:1050400022449244024941018280FD172306F50063
:105050006105EF60D0348307840063C1070683478E
:10506000840093E707F82304F400EF1031649357AA
:10507000050193F7F70FAA9713D587013E954205CF
:10508000A94741813375F5028347840093F707FCF4
:10509000C98F2304F4008347D4003E951C40231895
:1050A000A40089CF984319CB8347C4005040814561
:1050B00085073305F50242054181029783270900E0
:1050C0005CC823AC91868327490099E323AE91867F
:1050D0008347C400ADD7835504012244B2409244B3
:1050E0000249172500201305E5A141016FF0D069A1
:1050F00097270020938707B09C47411122C48583DE
:1051000006C626C2858B014481EFAE84B2853A86FD
:10511000EF10600E2A8409C5EF100005829408CCB8
:105120002285B2402244924441018280797106D6A0
:1051300022D44AD04ECE2E8932C626D2AA89B52490
:10514000324713060502CA8697050000938585D26B
:10515000172500201305059AEFF09FF92A8429CD21
:105160009304C50035261946AA852685EF00705F91
:1051700085452685EF00305C17950100130585579E
:105180004E95834505002685EF00905F5C483146CB
:105190008145A1075CC85CC483572401E11723192A
:1051A000F40083570401E1172318F4001C4C3E85DA
:1051B000EFC02FA4A30425012285B250225492549B
:1051C0000259F24945618280011106CE22CC26CADD
:1051D0002EC6AA8432C4EF00907B004DB245224611
:1051E000834784000CC050C093F7F70393E707048C
:1051F0002304F400231804002685EF00F07683478B
:105200009400A9462317A40013D7370005073307D6
:10521000D7029D8B85072306F400A306E40083C70D
:105220000401D8488507230FF7FE13878187584369
:10523000232A04009307440105EB23AEF18623AC37
:10524000F186172400201304E48B2285EFF05049E7
:105250001C44858B5D8D09ED22856244F240D24469
:10526000814505616FF050521CC323AEF186D1BF5A
:10527000F2406244D24405618280411197050000EA
:10528000938545C0014506C6EFF05FBBB2400145BE
:10529000410182806FF0BFBB8347C500B1EB411174
:1052A00022C42A840355E50006C6EFF03FD00DCD99
:1052B0008347840093F7F7FB2304F4001C4091C755
:1052C000DC4381C74C4001458297EFF01FC517258D
:1052D000002013052583EFF0304C0355E4002244F1
:1052E000B24041016FF07FCDB24022444101828043
:1052F00082809387818797050000938585CF172546
:1053000000201305258023A0070023A207006FF0CB
:10531000303B1C4D81CB03A347006305030083454D
:10532000070002838280938781889C4303C507001E
:105330008280938781889C4303C51700828093876E
:1053400081889C4303C527008280938781889C4382
:1053500003C547008280938781889C4303C537003B
:105360008280938781889C4303C5570082809387FE
:1053700081889C4303C567008280938781889C4312
:1053800003C577008280938781889C4303C587008B
:105390008280938781889C4303C59700828093878E
:1053A00081889C4303C5A7008280938781889C43A2
:1053B00003C5B70011E11D458280938781889C4316
:1053C00003C5C7008280938781889C4303C5D700AB
:1053D0008280938781889C4303C5E70082809387FE
:1053E00081889C4303D507018280938781889C43F1
:1053F00003C527018280938781889C4303D5470199
:105400008280938781889C4303D56701828093873C
:1054100081889C4303D587018280938781889C4340
:1054200003C5A7018280938781889C4303C5B70188
:105430008280938781889C4303C5C70182809387BC
:1054400081889C4303C5D7018280938781889C43D0
:1054500088578280938781889C4303D5C7028280C6
:10546000938781889C4303D5E70219E11305800CDB
:105470008280938781889C4303C50703828093873A
:1054800081889C43C85B828093870188884382809F
:10549000938741888843828019E17D558280F5DEBB
:1054A000984265DFFDD9171700201307A774184726
:1054B000AA877155058B6319071E03C50700154799
:1054C000E37DA7FC03C737001305F0057D171377AD
:1054D000F70FE364E5FC03C7570061D303C7670018
:1054E0004DDF03C77700494579171377F70FE36658
:1054F000E5FA03C7A70011457D171377F70FE36E91
:10550000E5F803C797000D457D171377F70FE3669E
:10551000E5F803C7B70001CB65171377F70F13053D
:10552000600DE36CE5F603C7C7007945791713777B
:10553000F70FE364E5F603C5D7000D477D15137536
:10554000F50FE36CA7F403D50701130840175115B5
:1055500042054181E363A8F403C5E7007D15137597
:10556000F50FE36CA7F203C527017D151375F50F41
:10557000E365A7F203C58700454875151375F50F58
:10558000E36DA8F003D5670105681308B8E06D1551
:1055900042054181E363A8F003D547016D1542053B
:1055A0004181E36CA8EE03D587017915420541815D
:1055B000E365A7EE03C5A7017D151375F50FE36E2F
:1055C000A7EC03C7B7011D457D171377F70FE366F7
:1055D000E5EC03C7C7010D457D171377F70FE36EA1
:1055E000E5EA03C7D701714579171377F70FE3662B
:1055F000E5EA03D7E7011305E00F7D174207418372
:10560000E36DE5E803C70702494579171377F70FFC
:10561000E365E5E8D85301CB37C5340059171305C6
:1056200055BFE36CE5E6885737C73400130757BF0B
:105630005915E364A7E603C70703E30007E623A4BD
:10564000F18803C7050123A2C1888547E3F7E7E492
:1056500003D72501DC49B3F7E702E39007E483C7EA
:105660001501E38C07E24111368506C623A0B188F7
:1056700022C4EF708041EFE0E05C2A84EF90000CE0
:105680002A94EFD0804D2A94EF70805C2A94EFF03A
:10569000DF8A2A94EF20D07B2A94EF50303622956F
:1056A000B2402244410182808280011106CEA307CC
:1056B000A100EF8070009305F100170500001305AD
:1056C00085C5EFF0AFD8F240014505618280797160
:1056D00022D4171400201304E4510328840026D296
:1056E000AE849365180006D64AD04ECE52CC56CA28
:1056F0009718002023A4B85013781800631E0808D8
:105700003E899387C191BA899843B285BE8A2A8619
:10571000014A01CF2AC2014536C62EC4EFD0606AC5
:10572000B246A2451246133A15002685EF80201591
:10573000AA841DC51C44F99B171700202320F74C91
:1057400083A70A0081C763030A008297B2502254DC
:10575000268502599254F249624AD24A45618280B2
:105760004E859717002023A90748EFE09FCC4146BC
:10577000CA851715002013056551EF60616CEFB005
:10578000601A0325040BEFB0E01B0145EFB00022C7
:105790000545EFF09FF15DBFF9544DBF971700200D
:1057A000938747459C47858BD5C34111171500202A
:1057B0001305054C06C69717002023AD074297171F
:1057C000002023AB07429717002023A90742EFF0E0
:1057D000A07CEF402039EFF08051EFF040569387E6
:1057E000418C9C4381C70545EF7000039387018B73
:1057F0009C4389C741657D15EF507041EFD0E0644F
:10580000EFB0A01297170020938747509C4313973F
:10581000170163540700EFC0B06B9717002023A750
:1058200007469717002023A507469717002023A3B4
:1058300007469717002023A10746EFF0BFA5F12BDD
:10584000EFF0AFC9B24041016FD0200E82803971B4
:1058500022DC2A8426DA930414024ED62E85B289DD
:10586000A68521464AD806DE36C63A89EF60E15A57
:105870001DE5B24638082686CE8513059404EF4010
:10588000F00221462C084A85EF6021591335150096
:10589000F2506254D2544259B2592161828001457A
:1058A000C5BF9305450617150020130565276FF042
:1058B000A06D011106CE2EC6EFF0CFCDB245F2405D
:1058C00088C105618280411122C426C24AC0AA84CF
:1058D0002E8406C6EF70C04E83C7E401AA851389E3
:1058E000940899E3138904032285592D21469305D1
:1058F00019022285BD25971700209387A72F8C4377
:105900002285EF00207022852244B240024993850F
:105910008402924421464101A9A5597186D6A2D498
:10592000A6D2CAD0CECED2CCD6CADAC8DEC6EFC096
:1059300010769305400645E9EF70004663020512B4
:1059400083C7C18813B717002386E188014489CF34
:10595000C164171900201309E9299309400EFD14A9
:10596000EFF03FA36348A408EFF0CFC24169B72925
:105970000900096AFD7A2A8B81447D199389F97B94
:10598000130A0A71938A8AC7EFF0BFA063D5A404F3
:105990001304400EB38784021717002013078725CE
:1059A0000324070B3E948357C401638627091840DC
:1059B0003307EB4063EAE900834744008507B38778
:1059C0004703D6976369F706014681450945EFF01D
:1059D000EFF5AA8B29E1EF2070768547631FF50468
:1059E0008965938505711715002013056513EFF080
:1059F000A059A1A8B30734030327090BBA9703D70B
:105A0000C7016308970003C75700A38207002382DA
:105A1000E7000504B1B79305C5002285EFF0BFEAA2
:105A20005E85228697950100938505CDEFF0CFF92D
:105A30005E85EF008076850481BF971700209387ED
:105A4000671B9C478D83858BC1FFB65026549654A7
:105A50000659F649664AD64A464BB64B656182807E
:105A600001468545094502D002D202D402D6EFF0A4
:105A7000EFEBAA8479D9EFC010611389C4002A849E
:105A800081454A85F5290C4041464A85D929832913
:105A90004400638809084E8502D802DA02DC02DE7F
:105AA000EF60815B2ACE141005462C0808184ECCF6
:105AB000EF40C0551375F50F2DE58355840093E530
:105AC00025004A85ED2911460C104A8559290146C1
:105AD000979501009385C5C22685EFF0EFEE2685E8
