:040000006F10000677
:1000040000000000000000006F0080086F00E02284
:1000140000000000000000000000000000000000DC
:1000240000000000000000000000000000000000CC
:100034006F004006000000006F00E00500000000B3
:100044006F0080056F0060056F0040056F0020059C
:100054006F0000056F00E0046F00C00400000000A2
:100064006F0060046F0040046F0020046F00000400
:100074006F0060236F00C003000000006F00600386
:100084006F0040036F0020036F0000036F00E00265
:1000940001A001A001A001A001A001A001A001A054
:1000A40001A001A001A001A001A001A001A001A044
:1000B40001A001A001A001A001A001A0B717004068
:1000C400130770052380E704130780FA2380E704ED
:1000D4002396A70223800704371700408347270588
:1000E400898BEDDF835707053717004083472705C2
:1000F400898BEDFF3717004083472705898BEDDF98
:10010400035507058280B7170040930670052380C6
:10011400D704130780FA2380E70403C6B7041376D1
:10012400F60DA385C70423800704137605022DC6A4
:1001340003C6A700118A0DE22380D7042380E704B5
:1001440003C7A700136747002385E7009307004B05
:1001540001000100FD17EDFFB7170040930670057D
:100164002380D704130780FA2380E7047D8923942E
:10017400A70001000100010001002380070423807F
:10018400D7042380E7049306100537270040A30310
:10019400D780238007048280137605046DDE03C6AE
:1001A400A700418A0DE22380D7042380E70403C714
:1001B400A700136707012385E7009307007D01006B
:1001C4000100FD17EDFFB71700409306700523806B
:1001D400D704130780FA7D892380E7041365050497
:1001E4002394A700010001000100010023800704FB
:1001F4002380D7042380E704930630053727004083
:1002040079B74111814601468145114506C6AD22A3
:10021400B7170040130770052380E704130780FA1B
:100224002380E70403C76704136717002383E704E5
:1002340023800704B2404101828081460146814502
:1002440011451D2AB7170040130770052380E704E2
:10025400130780FA2380E7047D572396E70203C738
:100264006704136717002383E7042380070401A0AE
:10027400BD473305F50201007D1575FD82804111EE
:1002840022C426C206C6AA84014463179400B2405D
:10029400224492444101828005041305803E4204B5
:1002A400C13F4180DDB7B71700401307000323881F
:1002B400E702854723ACF1847300203023030480D4
:1002C40015472303E48001002302A480828083076E
:1002D4006480E3CE07FE2303048082808307648066
:1002E400E3CE07FE03454480828083076480E3CE27
:1002F40007FE2302A4808280411126C44AC24EC054
:1003040006C61377F50BAD47AA892E899544630673
:10031400F70019456537653F8D444E854537FD59CE
:10032400FD1463983401B240A24412498249410148
:100334008280135509011375F50F453F2209CDB786
:10034400011126CC06CEB704080051371545BD3738
:10035400713769372AC6A53F32459377150089EB73
:10036400136515001375F50FF240E24405618280B0
:10037400FD14E9FC0145CDBF397126DC4ADA4ED8BB
:1003840052D656D45AD25ED006DE62CE66CCB7E7D9
:1003940000E07D5783AA070022C603AA470023A0D2
:1003A400E71823A2E718B717004013077005238046
:1003B400E704130780FA2380E70483C74704930BF9
:1003C40075FFB684E20793FBFB0F8546AA892E8B43
:1003D400328937240040E187015763FA76016308C4
:1003E400D5008946130700026313D5000157D98F3E
:1003F40093F7F70FB71C00402382FC041147230333
:10040400E4801305F00F5D3D094CD13563697C111F
:10041400B70707003E9B378707007955637EEB02D9
:10042400B3079B00636AF702A9476399F90689E455
:100434008144713D26850DA0DA850945753D050980
:100444000345F9FFFD14050B4D3581C49377FB0F6C
:10045400FDF7FD3569FD7D55B7170040130770059D
:100464002380E704130780FA2380E70403C74704C3
:10047400418B2382E704F250B7E700E023A0571131
:1004840023A24711E25432445259C259325AA25A51
:10049400125B825B724CE24C21618280A5476395BA
:1004A400F90685691309F00FB3069900B3742B019B
:1004B400B6941349F9FFB3749900856B33796901D4
:1004C400416B9387F9FFB3F7270199E363FC340188
:1004D40093D94900C147E3E637FF99BF0569C1696C
:1004E4007D19D9B71305800D6388690113050002CE
:1004F4006384790113051008CA85FD3B913521DD1C
:100504004E99B3843441D9B7DA852D45F533CA946D
:10051400E30099F20509D933A30FA9FED5BF938748
:10052400F9FF93F7F70F636CFC0803C75C04B70784
:1005340008001377070219E3B78707007955E37DAD
:10054400FBF033079B00E3E9E7F089476390F90484
:100554008980D549E38E04ECDA850945713B11099C
:100564000327C9FF91472320E48003076480E34EF7
:1005740007FE23033481FD17EDFBFD14110B81C429
:100584009377FB0FE9FF6D3B71F5F1B58547E38781
:10059400F9F4DA852D458D339389F4FFE38A04E871
:1005A400353B93F7390091EB832604800327090038
:1005B40093074900E39FE6E63E89CE84F1BFB54741
:1005C4006396F9001305900BD5399DB5B147130512
:1005D400B00AE38BF9FE9947639EF902DA852D454B
:1005E400213B81448D4BA149D539639674018327FE
:1005F40004802320F9008504E39834FF83270480D2
:1006040013172B01635507002312F90015B5232294
:10061400F90039BD9D476399F90281451305B0047A
:10062400E139BD442320090023220900FD597D310D
:1006340093F77400CA9703C70700FD14398D23800C
:10064400A700E39634FFEDB3A1476392F904CD39D3
:100654008144630D0B008D479304C0036308FB00C2
:100664009304000563048B01930440041375C507C8
:10067400E30095DC19459931993905458131268581
:10068400AD3109459D316D39E31405DAE9B391477C
:100694006399F9001305600615311539130590099E
:1006A40025B7E38709D8F15469B319CDB7170040CA
:1006B400130770052380E704130780FA2380E704F7
:1006C4002396A70223800704828019C1814799E9F0
:1006D40082803387F500834607003307F5008507DA
:1006E4002300D700E397C7FEE5B719C1FD5781E999
:1006F4008280910503A7C5FF1105232EE5FE7D1613
:10070400E319F6FEF5B7797122D417240000130417
:10071400E4531C4006D626D24AD04ECE91C78297C7
:100724009727000023A407525C4089CB03D5818618
:10073400AD3F5C40829703D5A186853F1C40639CF6
:1007440007189727000083C77762858B95C797277B
:100754000000A38D076017270000034757619147E6
:1007640063FCE70051219727000083C75760F917FE
:100774008A07A2979C4382979727000083C7C76381
:10078400918B89C7979000E0E780607B1C4491C3FC
:10079400829793874186984317260000034616499B
:1007A4003E8997240000938464489727000083C7F8
:1007B400E74793961700BA9683D60600638306101C
:1007C4009727000083C7874663FBC70686073E97C3
:1007D400835507002310070003D581862EC6F13503
:1007E400938781879C4317250000034525441317ED
:1007F4002500BA979C43B2458297AA8903D5A1865E
:100804006D359727000083C7674213971700832726
:100814000900BA9703D70700B3E9E9002390370129
:1008240083C70400850793F7F70F17270000230FEA
:10083400F73E172700000347773F63E6E700972753
:1008440000002385073E1C40D9E79387018798431E
:100854003E8451C39727000083C7B75191CB972794
:10086400000083C7D75089E7979000E0E780C03144
:100874001C4082972A8425C19C48AA971727000008
:10088400232EF73A938741879C43B1C703D58186CA
:10089400293D228597E0FFDFE780201A9727000093
:1008A40093870735DC5389C797E0FFDFE780C0F201
:1008B4002254B25092540259F24903D5A18645619B
:1008C400EDB3850793F7F70F972600002380F636DC
:1008D400E3EDC7ECF5B5B250225492540259F249F3
:1008E400456182809167B7C600409387373023A65D
:1008F400F6200F1000009727000093872733884FB6
:10090400938781949C43316713073730F053B707BB
:100914001000FD17918F99833A0523A6E6205D8D7B
:1009240082804111B7170040985F3AC6945F3247FE
:10093400E39CE6FE324541018280411106C6D5376B
:100944009726000083C6062C858AB1C693073033E8
:100954003307F502B337F5023983CA07D98F17274E
:1009640000001307A72C584B01456303F702338596
:10097400E740636BF70037653D0889C637856F0824
:1009840013050590198D3E9517270000232AF72A91
:10099400B24041018280E5473307F502B337F502DF
:1009A4002583DE0765BF5D7122DE138481933AD20D
:1009B40018403ED04ACA1C5F86C696C499839AC220
:1009C4009EC026DC2ADA2ED832D636D442CE46CC85
:1009D40072C876C67AC47EC2858B13894193C1C31B
:1009E4001C5F972400009384243893F7F7F91CDFE5
:1009F4009727000083C7473793F707048DC393876E
:100A0400C1879C4382979727000023A7A73683C7F3
:100A1400040093F7F70B172700002307F7348547E3
:100A240017270000A304F73483C7440093F707048F
:100A340081EF938781949C43D844B8D3930700FCF7
:100A4400172700002304F7328387640063D9070063
:100A5400832709009C4317270000230AF730184016
:100A64001C5F8583858BC9CBF5571CDF0100010012
:100A7400010001000100010001000100010001006A
:100A8400010001000100010001000100010001005A
:100A9400010001000100010001000100010001004A
:100AA400010001000100010001000100010001003A
:100AB400010001000100010001000100010001002A
:100AC400010001000100010001000100010001001A
:100AD400010001000100010001000100010001000A
:100AE40001000100010001000100010093878194CD
:100AF4009C4313075004B8CB18401C5F9183858B2B
:100B040089CFBD571CDF938781949C4323A8070496
:100B1400854717270000230BF72483270900D843B0
:100B24000583058B19C7D843759BD8C3D843799BD4
:100B3400D8C37254B640A64216438643E254525573
:100B4400C2553256A256125782577248E248524949
:100B5400424EB24E224F924F616173002030938710
:100B6400819494431727000013070720BC5289CFB0
:100B740083472700858B89EB83473700858BFDD717
:100B8400972700002384071E8280938741949C4307
:100B940099CB944BD04B9842518F98C294439C4725
:100BA4009842D98F9CC2938781949C4337C7004055
:100BB4001306C003A8CB9306200397250000938552
:100BC400A51A83278720C18393F7F7036369F60087
:100BD40083278720C18393F7F70363E6F60083C76F
:100BE4004500858BF9DF828093878194944317278E
:100BF400000013076717BC5289CB83470700858B16
:100C040091CB972700002383071697270000A38F13
:100C14000714828083471700858BF1DFDDB7938744
:100C240041949C4399CB944BD04B9842518F98C29A
:100C340094439C479842D98F9CC293878194944350
:100C440037C70040C145A8CA654683278720C183AA
:100C540093F7F70363FBF50083278720C18393F79A
:100C6400F7036364F600BC52EDF38280138781932B
:100C74001843AA87185F1583058B25EF03451500D4
:100C840015051377C51F19C6B386E70083C626006A
:100C94002300D60095C59726000083C6460D93F61B
:100CA40006040945A1CAB386E70083C63600054693
:100CB40093F5F6066390C504E206E18663CC06026A
:100CC4003385E7008347150003470500A20793F720
:100CD4000770D98F1397070141839376074099C60C
:100CE400136707802390E194014582802390F19457
:100CF400E5BF05458280011136C8938681942ECCC8
:100D04008C423AC63EC498452ACE32CA931707018C
:100D140042C2C1831378172036853E869726000089
:100D240093868604630408041377072061CF03C7FE
:100D3400260013671700172800002308E80213078A
:100D44000019B8D1130700F8972500002380E502A5
:100D5400138781930C4337080010D855719B136790
:100D64002700D8D598413367070198C11377261017
:100D740005C31376061045CA03C706001367170098
:100D8400172600002302E6FE17270000231207FEA1
:100D940083C6460093C7F7FFC207E206E186C18314
:100DA400184163D106029396170163D7060830539E
:100DB4008D4663E9C6008546172600002308D6FA47
:100DC4003453FDFE97260000938686E2838646010F
:100DD40063DD060093960701C18663D5060670534A
:100DE400894663E4C6007453FDFE14477245E24528
:100DF400F58F1CC75246C2463247A24712480561C6
:100E04007300203003C716001367170097250000EE
:100E1400A38CE5F417270000230A07F41727000022
:100E2400231807F4A1B703C7360013671700172662
:100E34000000A30CE6F289BF8546172600002307AD
:100E4400D6F249B754471396060163510602B70612
:100E54001000FD1674D397260000938626DD944E69
:100E6400850617260000232FD6DC41B7A166D58F4F
:100E7400ADBF172700001307E7F08346B701972794
:100E8400000083C777F3B69793F7F70FFD4663EA3D
:100E9400F6044C4B97260000A386F6EE9727000035
:100EA40083C757EE05473317F70097260000A3853D
:100EB400F6F06D8F1DEF9726000083C636F0B3F66B
:100EC400D70213050002814733D6F500058A13F8CB
:100ED400F70F09CE6399E60097270000A38407EB78
:100EE400828081177DB705071377F70F8507E39D88
:100EF400A7FC8280938701959843B7570200938794
:100F0400079F832607091396560063580600832615
:100F140007091396660063440600FD17FDF38280FB
:100F240051C9AA870145C9C98D07C207C183F19B6D
:100F3400C207C18313074003636BF7021387C19D84
:100F440008431387419D14436396A60217270000A4
:100F5400130707CA185B014525C34111C20706C61A
:100F64000545DD8D0297B24001454101828013871A
:100F7400819DF9B70357650005EF03574500636981
:100F8400F702B306F74021466370D60210419386F8
:100F940087001D8FAA96611790C22392E6002393BF
:100FA400060014C12312F5002313B5002105828025
:100FB400084159BF01458280828001CD9387C19D3C
:100FC40003A807009387419D8C430147C28763E3CD
:100FD400B70082809443636FF50663EDA60613861B
:100FE4008700E368C5FE03D567002166050663171D
:100FF400C50003C6818F0506238CC18E2393070089
:10100400638407031386819D1042630FF600035621
:10101400670019EA83D7470014C383564700B6977D
:10102400A1072312F700BA879843E304B7FA93861B
:10103400819D9442E30FD7F883566700D9FA83D68B
:101044004700035647001843A106B2962392D700DF
:0C10540098C382803E87B6879DBF0000D5
:10106000974100209381011817710020130181F925
:1010700013054000972500209385C578173600207A
:101080001306067E63FAC5008322050023A05500DF
:1010900011059105E3EAC5FE17650100130585A357
:1010A000973500209385C57B1386018563FAC500BB
:1010B0008322050023A0550011059105E3EAC5FE32
:1010C0001385018597550020938505606377B500EA
:1010D000232005001105E36DB5FE9302800873A07F
:1010E0000230972200209382E27193E21200739003
:1010F0005230971200009382C2C57390123473006D
:1011000020303D432A876373C3029377F700BDEF16
:10111000ADE5937606FF3D8ABA960CC34CC30CC767
:101120004CC74107E36BD7FE11E28280B306C34090
:101130008A069702000096966780A6002307B700EC
:10114000A306B7002306B700A305B7002305B70021
:10115000A304B7002304B700A303B7002303B70019
:10116000A302B7002302B700A301B7002301B70011
:10117000A300B7002300B700828093F5F50F939684
:101180008500D58D93960501D58D61B7939627007F
:101190009702000096968682E78086FA9680C117AD
:1011A0001D8F3E96E374C3F8A5B7B717004003C779
:1011B00077051377E70FA38BE704130700F8A38DD8
:1011C000E7043D47238CE70413077003A38CE7046F
:1011D0008280B717004003D587005D714EDE42055F
:1011E000418186C6A2C4A6C2CAC052DC56DA5AD809
:1011F0005ED662D466D26AD06ECE9377050C1307A2
:10120000000881496386E71813070004639AE7140E
:10121000B7240D8F7D8993840480B3D4A402916791
:10122000938707E8BE94A167938707D0B3D4F402ED
:10123000EF30F10C975701009387C7239043D443B5
:10124000EF30A140EF30314EAA8B939C040103D9BB
:10125000018593DC0C0163150900056913090980F8
:10126000B7170040130770052380E704130780FABF
:101270002380E704B71A00400547939D0401096CD9
:101280002389E704514B01438145138D0A0413065A
:101290007005930680FA094893DD0D01130C0C715B
:1012A000A9482300CD002300DD0023962A03230054
:1012B0000D0083C72A05898BEDDF83D70A0583C715
:1012C0002A05898BEDFF83C72A05898BEDDF83D73C
:1012D0000A0523982185C207C18333859741131AD4
:1012E0000501135A0A41630B0A143307BA02635EFD
:1012F000070C05034203135303016368680C63D9A9
:10130000050A3305B04093150501C185C204C180AB
:1013100063D7450B0965130505713385A502B7171A
:101320000040130770052380E704130780FA238029
:10133000E7042396370323800704334595024205CB
:101340004181B640264496440649F259625AD25A1F
:10135000425BB25B225C925C025DF24D6161828015
:10136000B1E3B77489097D8993840480B3C4A4026E
:101370009167938707E8BE94A167938707D0B3C4AA
:10138000F402EF30C177975701009387270F7DB59F
:10139000975701009387870D856483AB070093847B
:1013A000843865B5930B0000954445B53A89D5BDA1
:1013B000B387FC40139A0701135A0A4181BF09659C
:1013C000130505713305AA028DBF3385B74163E468
:1013D000FC003385FD40330585033344B50363C505
:1013E000880013150401A9BF528532C636C4EF30F8
:1013F0003127DE85EF30A177EF307120131305011F
:10140000135303413307694042074183A2463246E2
:101410000948A948631AE900130719006344400109
:101420001307F9FF420741837D1B137BFB0FCA891A
:10143000D285E31D0BF62398E18465B7014511B70A
:10144000B717004003D5870039715ECE4205418150
:1014500006DE22DC26DA4AD84ED652D456D25AD0EC
:1014600062CC66CA6AC86EC69377050C130700087B
:10147000814B6388E71413070004639CE710B724CB
:101480000D8F7D8993840480B3D4A40291679387E0
:1014900007E8BE94A167938707D0B3D4F402EF3076
:1014A0000166975701009387E7FC9043D443EF30E0
:1014B000C119EF305127AA89939A040103D92185D4
:1014C00093DA0A0163150900056913090980B71742
:1014D0000040130770052380E704130780FA238078
:1014E000E704139B04010547096A2389E704D14DEA
:1014F000014D814C135B0B01130A0A714A85972039
:101500000020E780E03B330C5541420C135C0C415A
:1015100023992185630A0C14B3079C0363D0070E3B
:10152000050D420D135D0D01894763E9A70D63DACF
:101530000C0A33059041931C050193DC0C41C20455
:10154000C18063D78C0B0965130505713385AC0227
:10155000B7170040130770052380E704130780FACC
:101560002380E704239677032380070433459502FD
:1015700042054181F2506254D2544259B259225A22
:10158000925A025BF24B624CD24C424DB24D2161F9
:101590008280B1E3B77489097D8993840480B3C4E0
:1015A000A4029167938707E8BE94A167938707D049
:1015B000B3C4F402EF30A15497570100938707ECAE
:1015C000EDB597570100938767EA856483A9070003
:1015D00093848438D5B5930900009544F1BD3E89C4
:1015E00031BF3385AA40131C0501135C0C4181BF38
:1015F0000965130505713305AC028DBF63FEAA00B2
:101600003305654133054503A9473344650363C882
:10161000870013150401B1BF3305AB40E5B7628500
:10162000EF301104CE85EF308154EF30417D131D32
:101630000501135D0D41B307A941C207C183631AB8
:10164000F90093071900634480019307F9FFC2076B
:10165000C1831387FDFF937DF70FCA8BE28CE39064
:101660000DF82399F18475B7014529B741112A83F3
:10167000014E930E407E130F0019930F400663EB4B
:101680006E0A9308001913034006B3781503854EBC
:101690000D4FA14F337365020D891335150063E5B6
:1016A000BE0C1308F6FF79467298420813580801D9
:1016B0003307C70213D61700BE0732976146B3F649
:1016C000C60213068070B386C6023697A166F58FF0
:1016D00042075D8FB717004083C6F70293F60608EE
:1016E000A307D1000346F10083C6F70293F606086C
:1016F000E394C6FE8346F10093F6F60FF1DE9306FF
:1017000070052380D704930680FA2380D70423AA88
:10171000070383C6170393E60608A388D702D8DB1E
:1017200003C7170313670704A388E702238007048E
:10173000410182807D133368E3039308E016630E52
:1017400008003368F3039308D01663080800937801
:10175000330093B818009388D81633081E01131E5F
:101760000801135E0E0121BF6393E50305486386FC
:1017700008000148630303002A8871087298FD1568
:10178000131E0801C205135E0E01C18109BF13F8C3
:10179000150063F4BF007908D5B713381800E5BF0A
:1017A000914763EEB702175701001307A7CD8A05CB
:1017B000BA959C41BA978287B717004003A7470B99
:1017C0001345F5FF698F23AAE70A03A7070B698F63
:1017D00023A8E70A03A7070A798D23A0A70A828016
:1017E000B717004083A6470B1347F5FFF98E23AACE
:1017F000D70A83A6070B558D23A8A70A83A6070A35
:10180000758F23A0E70A8280B717004003A7470B14
:10181000498F23AAE70A03A7070B1345F5FF45BF26
:10182000B717004083A6470B1347F5FF758F23AA10
:10183000E70A03A7070A598D4DB7B717004003A75A
:10184000470B498FEDB7B717004003D58700420516
:1018500041819377050491EB9377F5013755E801C2
:10186000130505803345F50282809377050C130735
:1018700000046397E7009377F50137459C1CCDB7CB
:101880002165130505D08280B7F700E0C8439C4767
:101890008280814737370040A14663C4C700328544
:1018A00082800345B740E38EA6FE3385F5000345ED
:1018B000050085072304A740CDB7411122C406C601
:1018C0002A8451372947B307E502B2408D83B3D745
:1018D000870222449507B3D7E70237370040C20793
:1018E000C1832316F74041018280716541111305C0
:1018F000052006C6D937B7370040130770F8238193
:10190000E7400D47A381E74013070004A380E740A9
:1019100005472387E740B24041018280411106C656
:101920004D38BD4763F3A7006D30193EBD4763F3E3
:10193000A7003936B24083D5218503D50185410101
:101940006F00D043411193962500AA852D4506C608
:1019500097200020E7808022B2400145410182802B
:10196000411122C426C24AC02A842E89B284AA8583
:10197000930600200146254506C697200020E780F3
:10198000E01F931629002686A2852945972000206E
:10199000E780C01EB2402244924402490145410101
:1019A0008280011122CC06CE3714004026CA4AC8D4
:1019B0004EC652C483447405034AB4058349840562
:1019C00003499405EFF06FFE8347A40593F4F40FE9
:1019D000137AFA0F93E71700230DF40493F9F90F24
:1019E0001379F90FB717004003C7A705058B6DFFE3
:1019F00003D5C705A38D4705238C3705A38C270581
:101A0000A38B9704F2406244D2444249B249224A2D
:101A10000561828041119397050122C406C6C187E2
:101A20002E8463DB0700ED2E11C171262165218D07
:101A3000B24022444101828093F7150013C515007E
:101A4000E5FB9397250163D00702EFB01036F93517
:101A500037F60200130606E0896503C54185EF00ED
:101A6000500B0965E9B7939715010145E3D207FCCF
:101A7000175501001305C5A6EF30F10513060064E4
:101A8000916503C54185EF00D00811654DB71D7103
:101A9000494697550100938525A017550100130568
:101AA00025B986CEEF00A07001E917550100130596
:101AB000E59FEF30510201A037F700E0F9575CC70E
:101AC000FD571CCB8566B7E700E023A0D7101306AF
:101AD000701010C3B8434146B0C323A0D718B8C391
:101AE000010001001306C00381454808852597378A
:101AF00000209387E70F3ECA896793870780231CDE
:101B0000F100ED47A301F1029307A0102312F102A7
:101B1000D1472303F102A167938707E03ECE9707E1
:101B20000000938767E2BEC497070000938787E3AE
:101B3000BEC685472304F102B5472308F102970783
:101B400000009387A7D43EDAB7F507009707000097
:101B5000938767E53EDE814697070000938747DC61
:101B60007000E1051945BEC097200020E780000104
:101B700058088147994670003E960346060085073F
:101B80000507A30AC700E398D7FED24791C70357BA
:101B9000810185676373F70001A04808EF001031E9
:101BA000AA8501C91755010013058591EF30016120
:101BB00001A0F64025618280411117050000130540
:101BC000A5E506C622C4EF00F02A13844185230050
:101BD000A4002928034504002244B24037F602003D
:101BE000130606E0896541016F00A072411106C627
:101BF000B7170040130770052380E704130780FA26
:101C00002380E70403C7F7021377A70FA387E70230
:101C100003C7F70213672700A387E7020133130501
:101C2000407E814701478146054685458134B24063
:101C3000014541016F00304F89476305F50263E6B6
:101C4000A7008547630AF50082808D476301F5028E
:101C500099476303F50282801755010013058588B3
:101C60006F306167175501001305C588D5BF17553B
:101C7000010013052589EDB7175501001305458AA5
:101C8000C5B741119397050122C406C6C1872E84AA
:101C900063DD070003C5C185612211C1292A2165C1
:101CA000218DB24022444101828093F71500014505
:101CB000EDDB173500201305E5D2EFE04038134582
:101CC0001400C5B70111170500001305C5FB06CEAA
:101CD00022CCEF00301A1384C18585472300A4006D
:101CE0002307F1001306E1008D47854513055030A9
:101CF000A307F100EFF0905A1306F1008545130594
:101D00008030EFF0B05917360020130666B6C14593
:101D100013057030EFF0905817360020130646B4C4
:101D2000B54513056030EFF070579305000A0D4577
:101D3000EF2040039305000A1145EF20A002034560
:101D400004008545E121F240624405618280411131
:101D50001305800406C697200020E78000BB3717D4
:101D600000408327870A8D451305002093E707204D
:101D70002324F70A3534953E175501001305458B8A
:101D8000EF30615529330D3DEFF01077253F972057
:101D90000020E7808017E5BF23AC05FE1C4191E7DA
:101DA000010001000CC18280BA8703A787FF6DFF85
:101DB00023ACB7FE82801DC18346E5FF1307F00FF9
:101DC0009147639EE600411106C697300020E780E8
:101DD000009FB24081473E854101828095473E8504
:101DE000828001E9014582800145B24022444101DF
:101DF0008280411122C42A84210542059305D00422
:101E0000418106C697300020E780C09171DDFD5703
:101E100023200500231285002303F5002105F1B7D7
:101E2000138701861C43411122C426C24AC006C63C
:101E300001440149BA8489E7A16581250DC401A83F
:101E400003C7E7FF6318A7021DC8A165C126984014
:101E5000832784FF6317E40223A0F186FD57232C18
:101E600004FE230FF4FE2285B2402244924402492C
:101E70004101828011E03E8983A787FF6DBF3E84C8
:101E8000E5BF232CF9FED9BFA9C9411122C406C65A
:101E90002A849747002083C777592E856368F4000A
:101EA000193F0D45B24022444101828083A785FF3E
:101EB00099E703C7E5FF9307F00F6305F700E53DDA
:101EC0001545CDB7238F85FE13850186F135228513
:101ED0002244B240A165410115AE1545828023A080
:101EE00001868280938741879C4399E33E85828067
:101EF00003D727006316B70003C70700E308A7FE50
:101F0000DC47E5B74111939705014AC006C622C4D4
:101F100026C2C1872E8963DE0700193711C1613DD2
:101F200021653345A900B24022449244024941014F
:101F30008280AA860145E5D901443D47B3578940CF
:101F4000858B95CB9387C1868443BD4791E28147BA
:101F5000A2978E070545BE9433158500131405011D
:101F60009C40C8404180829723A0040023A2040023
:101F7000334524014DBF0504E312E4FC0144CDBF09
:101F8000974700209387C7469C53411122C406C639
:101F90001384818095C7829723A4A1800840B74706
:101FA00003009387D73F3305F502B7A72600938731
:101FB00037ECB24022443E9523A4A18041018280A7
:101FC000974700209387874618409C4BBA9723A4D5
:101FD000F180E9B79387418690439746002083C6F6
:101FE000F644814713F7F70F6360D70A17470020BD
:101FF0000347F757914763E0E70A9747002083C7F5
:10200000A75B918BC9EB0111680006CE22CC26CAD2
:10201000EFA06039FD56630FD50C3247974700207B
:1020200083C7373E63F3E70C1747002013070740C9
:102030004047174700200347E73C6305D406058B5C
:1020400021CF51473304E40263F1870A972000202F
:10205000E780600DB2476373F400A2871747002042
:102060000347373A998F3E95974700209387473823
:102070008387470163CD0702B707C0A86369F502EC
:10208000B70740573E9525A085071397170032974D
:102090000357E7FF21DB8280130790023304E40239
:1020A00005805DB762076187635707001D8D19E9D9
:1020B0003705C0A801A8E37BF5FE3707C0A8B30722
:1020C000F7403E959747002093878732DC538297ED
:1020D00009ED97470020938727499C4F99C7EFB098
:1020E000200AEFB04060EFA0107EF2406244D2447C
:1020F000056182809747002093874733DC47E3865A
:10210000A7FE174700201307A72E83464701BA846E
:10211000858A9DC65144338487029747002083C730
:10212000572EE3F487FC97200020E780C0FF9747F5
:10213000002083C7172D1D8C2295838744011DBF66
:1021400013049002338487020580C1BF2A9609E5F3
:1021500082800505A30FB5FEE31DC5FED5BF8147EF
:102160003307F5000307070019E33E8582808507E2
:10217000C5BF01112E8626CAAA8413150601930530
:10218000F004418122CC06CE32C697200020E780A1
:1021900060592A8419C53246A68597200020E78019
:1021A00000D32285F2406244D24405618280814797
:1021B0006314F600054582803307F5008507B38672
:1021C000F5000347070083C6F6FFE383E6FE0145FB
:1021D00082809307F6FFBE952A966313C50082801E
:1021E000FD1583C715000505A30FF5FEFDB7814753
:1021F00011E9014582803307F50003470700E31A20
:10220000B7FE8507E319F6FE054582809747002053
:1022100083C7D721637FF500138741869317150085
:1022200008433E9583570500DD8D2310B500014519
:1022300082800D458280FD57011117470020232D14
:10224000F71E9387418722CC804326CA4AC84EC6D0
:1022500052C406CE56C22A898144974900209389E8
:102260002919174A0020130A6A1C1844814763740D
:10227000E900B307274103A749021CC409CB032780
:10228000CA0063F6E700174700202327F71AA1E3E7
:10229000835524009DE55C44A1E423AAF186832AAA
:1022A000C400228597200020E7806051568455FCA9
:1022B000F2406244D2444249B249224A924A0561FC
:1022C00082800345040099375C4081CB1CC483574E
:1022D0002400F1D3A2844044D9BF1C44CDDFC5BF44
:1022E000DCC475BF9747002083C757146371F5029C
:1022F0001387418693171500084393C5F5FF3E9554
:1023000083570500FD8D2310B500014582800D45E2
:1023100082809747002083C777116364F5000145E9
:102320008280411122C426C24AC006C62A842E8950
:10233000B2844D3E01C504C505452DA0936504F04A
:10234000C205C181414597200020E780A03D0DE1F5
:10235000974700209387C7099C5B81C7A2851145D9
:1023600082970145B2402244924402494101828051
:10237000938741879C438DE323AAA1868547232623
:10238000050004C52311250123008500A300F500E5
:102390002322050055B7BA87D84775FFC8C7F9BFCC
:1023A00045C539715AD0138BC18622DC26DA4AD84A
:1023B0004ED652D45ECE66CA6AC86EC606DE56D205
:1023C00062CC3689328AAE89AA8401445A8DB94DCD
:1023D000854BF94C03270B00131C3400937AF40F40
:1023E00062971C43A9EF13B5FA0013451500B39784
:1023F0008B0063F65D01930714FFB397FB00939581
:102400000701C181528631371DC983270D0001455F
:10241000E29784C323A23701630409002300590112
:10242000F2506254D2544259B259225A925A025B23
:10243000F24B624CD24C424DB24D21618280050478
:10244000E31A94F92145E9BF09458280411122C46C
:1024500026C24AC006C6AA842E8932845D3DCA853A
:102460002685493409C940C10145B24022449244FD
:102470000249410182802145CDBF411122C426C2BB
:102480004AC006C6AA842E89B13C2A8419C12311E8
:102490000500CA852685B935014511E01945B240C8
:1024A000224492440249410182807547636BA7042C
:1024B0001387C1861443411126C293143500A69692
:1024C000944222C406C6AA873A84094595C613B524
:1024D000F7003947134515006373F700C5178545A5
:1024E000B395F500C205C181493F1C400145A6973F
:1024F00023A0070023A20700B240224492444101D6
:10250000828009458280411106C6E93A09C508451D
:10251000B240410182800145E5BFF54763EDA70464
:102520009387C1869C4313173500BA979843894710
:1025300021C7011126CA06CE9334F50022CCB94733
:1025400093C4140063F3A700451505443314A40095
:10255000420441802EC62685A285753789473246BA
:1025600009C5A285268575338147F2406244D2446D
:102570003E850561828089473E8582802394A186BD
:102580002395B1868280411106C623A8A1860295B3
:10259000B2409747002023A5A7EA01454101828068
:1025A000994763E9B7008A0597470020938707EAB0
:1025B000BE9588C18280411106C622C426C2EFF0B2
:1025C000A07A7146814517450020130525E8BD3ED8
:1025D00017440020130484E5130600022285814578
:1025E000B53623AA018623A801869747002083C712
:1025F000E7E113D527008D8B3E958D473305F50216
:102600009947930510109384818735051375F50F4D
:102610002301A4003305F5021305050F97200020C0
:10262000E780401023A6A186834724001305050FE9
:1026300088C08A073E9523A2A186EFF05F8A912683
:10264000834714009840170600001306E68B939604
:102650002700BA9690C293862700850793F7F70F55
:10266000A300D400B24022448A07BA9790C3924490
:10267000410182809747002083C757DB174700201E
:102680000347E7DA63F1E7021387818718439386EC
:10269000170017460020A30BD6D89396270036972D
:1026A00008C33E8582809307F00FE5BF1C41638518
:1026B000071441777D8FB70600208947631FD71223
:1026C00003574500630B0712411122C419462A849F
:1026D0009305F00F590506C6193E05478D47630857
:1026E000E5101306C003814517450020130545D0AA
:1026F000B13C1306C003A28517450020130545CF42
:1027000097100020E780A07C17470020035707CFD1
:10271000974700209387C7CD19E7130700209746F6
:102720000020239DE6CC17470020034747CD11E743
:102730000547974600202384E6CC1747002003472F
:1027400017CC11E76D4797460020A38AE6CA1747C2
:1027500000200347E7CA11E7154797460020238169
:10276000E6CA174700200347B7C911E70547974650
:102770000020A387E6C8174700200347B7C819E71A
:1027800003C7070197460020A38EE6C6174700201F
:10279000034727C711E75147974600202383E6C622
:1027A000174700200347A7C619E71307800297467B
:1027B0000020238EE6C417470020034797C419E77B
:1027C0001307D00297460020A38DE6C20347D40129
:1027D00011E7094797460020A38AE6C29C5791C794
:1027E0008297974700202396A7C4F1338147B240D0
:1027F00022443E854101828089473E8582800111C5
:1028000022CC06CE2A842EC6EFF08FF7B245F240D6
:10281000818D33A5A502229562441375F50F0561DC
:102820008280011122CC06CE2A842EC6EFF04FF50D
:10283000B245F240818D33A5A5022295624442053E
:10284000418105618280011122CC06CE2A842EC6E8
:10285000EFF00FF3B245F240818D33B5A50222951A
:1028600062440561828097470020938767B8985734
:1028700025C3411122C426C206C6BE84029717474B
:102880000020035707BB2A8441C7BA876373A70098
:10289000AA87C207C183BA866373E400A286C20610
:1028A000C182958F51476355F706DC5491C38297D7
:1028B000854717470020230DF7CAEFA0104F974711
:1028C0000020239887B6B24022449244410182807E
:1028D0009747002083C7C7C99DE797470020938784
:1028E000A7C883C79700850793F7F70F17470020FE
:1028F000A300F7C8A18B9DC7854717470020231960
:10290000F7C66FA0505097470020A38307C6D5BFD6
:102910009747002083C7C7C5DDD72244B240924401
:102920004101C5B7828097470020938767ACD8578D
:10293000011122CC06CE3E8401C72AC60297324539
:1029400009CD23AEA186171500201305457F253933
:10295000F24062440145056182808307440163DDE2
:1029600007009747002023AF07AC971700209387F5
:10297000A77723AEF186C1BF971700209387A77A68
:10298000CDBF011122CC17440020130464A60844D3
:1029900006CE26CA19E50545F2406244D2440561D7
:1029A00082805C58EDDB185C7DD77000854582978E
:1029B0001844B247E301F7FE8357C40017450020CF
:1029C0000345E5A39305E0043305F5029744002091
:1029D0009384C4A54205418197200020E78080D4DC
:1029E000174700202322A7A65DD59747002083D74D
:1029F000E7A017460020034686A03306F60293059B
:102A0000F00FEFF0AFF4D04C08449747002083D785
:102A1000E79E08C29745002083C5659EB385F502F1
:102A20001C5C89818297C84C97200020E78020D9C0
:102A300001459747002023A907A0B9BF411122C42F
:102A4000174400201304C49A1C4426C206C69744A7
:102A500000209384A49DADCB1C5CBDC7DC4C8DE7EE
:102A60008357C40017450020034565999305E0048A
:102A70003305F5024205418197200020E78080CA96
:102A80009747002023A2A79CC84C1DCD9747002044
:102A900083D7C79617460020034666963306F6028C
:102AA0009305F00FEFF08FEAD04C084497470020D1
:102AB00083D7C79408C29745002083C54594B38542
:102AC000F5021C5C89818297C84C09C997200020B7
:102AD000E780E0CE9747002023A80796B240224423
:102AE0009244014541018280011126CA9744002089
:102AF0009384C49322CCC04C4EC652C456C206CE58
:102B00004AC8AA8AAE89328A31EC174900201309D3
:102B1000298E8327890099E3A94471A08357C900AE
:102B2000174500200345A58D9305E0043305F50204
:102B30004205418197200020E780C0BE2A8441C51C
:102B400083274903C9C39745002083C5458B174791
:102B500000200357A78AB385E5022A86032589004A
:102B60008981829791451307A00589819397250054
:102B7000A29783C607006395E60483C61700639E89
:102B8000560385058A054E86A2955285971000202A
:102B9000E780E033DC4C81446387870022859720FF
:102BA0000020E780C0C1F240624426854249D244F9
:102BB000B249224A924A0561828083D5270075B7BF
:102BC000DC4CE38B87F4228597200020E78020BF30
:102BD000A1B7974700209387A781984729CB9C5F8F
:102BE000B9C785466315D504411122C41744002096
:102BF0001304C483504C06C61DC69736002083D6E6
:102C0000E67F9735002083C5857FB385D5023A8559
:102C100089818297484C97200020E78040BA9747E7
:102C2000002023A30782B240224441018280828097
:102C3000973700209387877FD84F011122CC26CA6F
:102C40004AC852C406CE4EC62A89AE8432843E8A11
:102C500035E7973900209389A97983D7C9001735BB
:102C600000200345C5799305E0043305F5024205CC
:102C7000418197200020E780E0AA9737002023A514
:102C8000A77C2A8611E92945F2406244D244424990
:102C9000B249224A0561828003A5890005C183A744
:102CA000490389CF9735002083C565751737002004
:102CB0000357C774B385E502898182970325CA014A
:102CC00091461308A005FD5593D72600C207C1837E
:102CD000139727002A9703460700631B06038348C0
:102CE00017000356270063932803B306D64063CD2D
:102CF000960085078A073E952686A28597100020B4
:102D0000E780E01C014549B7A300B700B2866DBF5C
:102D1000173600200356866E9735002083C5256E32
:102D2000B385C502338696001106E3EEC5F413861B
:102D30003400719A1106B29623000701A3002701FF
:102D40002311D7007DB7973700209387276ED44F84
:102D50008DCE91471306A0059305F00F89838A074E
:102D6000B69703D7270003C5070009830A073697DC
:102D7000631DC500034517006316B5000357270000
:102D80002391E70083D72700D1BF0145828001113D
:102D900006CE2EC6EF60E02A01C9B245F2400355C7
:102DA000250005616F90E046F2404945056182804B
:102DB000A384018A2384018A23A8018823AA018885
:102DC00023AC018823AE018823A6018823A40188AF
:102DD00097370020938747693707B40098C3374770
:102DE000A000D8C3370710009306070A94C7B70698
:102DF0005000C106D4C7930607054107D8CB370753
:102E0000D007410798CF3707840398D337C7070007
:102E1000130707B8D8D3416794CB9306070113076C
:102E200017F8D8D7417723AE070094D798DB828074
:102E3000011126CAAA84214522CC06CE2E8432C690
:102E400036C43AC2EFE0FFF91DC9A2461247324626
:102E5000930700FD2300F5009947A3009500230187
:102E6000F5002303D500A303E5002312C500AA85BE
:102E700022856244F240D24405616FF0EF80F24057
:102E80006244D2440561828023A8A188828023AA5B
:102E9000A188828023ACA188828023AEA188828011
:102EA000011122CC4AC806CE26CA2A890144B3049D
:102EB00089006368B400F2406244D244424905612B
:102EC00082802EC6EFF0CF8B93170501C183A183BB
:102ED000B2452380F4009307140093F7F70F85049D
:102EE00063F9B700CA9709042380A7001374F40F8D
:102EF0007DBF3E847DBFC167173500200355655AED
:102F0000FD176302F502411103C601929385018A00
:102F100006C6EF50D07CB240FD5717370020231271
:102F2000F75841018280828009C925151375F50F74
:102F30001335850E1345150082800145828023805C
:102F40000500F94763E2C708797122D426D24ECE34
:102F500056CA5AC806D64AD052CC5EC63684B28902
:102F6000AE8A2A8B814463FF3405B307940003CAF9
:102F70000700138914001379F90F63050A04B307D6
:102F80002A0163C1F904B307240183CB07005E85DE
:102F9000613F0DC99307FAFF2380FA0063906B032A
:102FA000130519002295B250225492540259F24945
:102FB000624AD24A424BB24B45618280D29493F42A
:102FC000F40F55B70145C5B701458280411126C2AE
:102FD000AE8422C49737002023ACC74C973700201B
:102FE00023A6B74C9737002023A0A74C2A8441463C
:102FF0009305F00F26854AC006C60549EFF02F9FBE
:10300000631E25039737002093874749884BC145A6
:10301000413D41469305F00F2285EFF04F9D8544D9
:103020006316950222449737002093872747B240C2
:1030300092440249C847C14541019DB54146814579
:103040002685EFF0CF9AE31625FD6DBF41468145F9
:103050002285EFF0CF99E30795FCB24022449244D9
:10306000024941018280411122C426C22E84AA84D1
:10307000130600028145173500201305254206C6B8
:10308000EFF0CF8C97370020A38B9740A3818192DC
:10309000EF90A019854719C181474945B2402244A4
:1030A00017370020230CF73E92444101828081476C
:1030B00081CD19C98547631BF50083C7550093E788
:1030C00007FCA382F50085473E8582808947631708
:1030D000F50083C7550093F7F703E5B70D4785471C
:1030E000E314E5FE03C755001377F70313670704DE
:1030F000A382E500D1BF81478DC105C103C755003B
:103100009306000C85471377070C6308D7009306D6
:1031100000048D476303D70089473E8582804111B3
:1031200022C4005D06C626C21DC8AA84085009C56F
:1031300097100020E780A068485009C5971000202C
:10314000E780E067085409C597100020E7802067F2
:10315000228597100020E780806623AC0402B240ED
:10316000224492444101828009ED9737002083C7B1
:103170000733173500201305E53381CB138501880C
:103180008280173500201305E53282801735002034
:103190000345E53082809737002093872730C84762
:1031A0008280973700209387672F884B82809737DC
:1031B00000209387A72EDC4B88438280973700201E
:1031C0009387C72DD84B1C4385071CC31735002098
:1031D0000345F52C9307F00F6305F50091656FF03B
:1031E000EF828280011122CC06CE2E8432C6EF50AF
:1031F00090749147B245631FF5009387C1899C4342
:103200008DC303A30700630E030022856244F240CE
:1032100005610283938741899C4381C703A34700CB
:10322000DDB7F2406244054505618280011122CC80
:103230002A840355450006CE26CA4AC84EC6EF501A
:10324000D0572DC52A89834405008349C500C13D57
:103250004A85EF60F04303554400EF50506983C73F
:10326000818AA9CB6398970483C5918A2685053600
:1032700019E12384018A03554400EF50D06B914734
:10328000631FF500035744009737002083D7672159
:103290006317F700FD57173700202314F720F2407B
:1032A0006244D2444249B249056182808149930413
:1032B000F00F75B79307F00FE38FF4FA83466400BD
:1032C00003564400034524004E87A685953665B70E
:1032D00079715EC6AA8B2E8552CC56CA5AC806D6BC
:1032E00022D426D24AD04ECEAE8A328B368AEF50C6
:1032F000D04C6DC1045D2A89F1CC9C50614599C3C5
:10330000130540039C5481C7510542054181630563
:103310000A00710542054181DC5081C7590542050B
:103320004181EFE01FAC2A8455C561468145EFE03D
:10333000FFE19739002083C9291663940900834966
:103340000900930700FD2300F400A947A3007401BE
:103350002301F400230364018C502312540113054C
:10336000840191C908C47146930A44039710002050
:10337000E780E0B556858C5491C948C45146930AFC
:10338000450197100020E78080B45685630C0A0041
:1033900008C87146D285930AC50197100020E780BE
:1033A00000B35685CC5099C548C85946971000209F
:1033B000E780E0B1A2854E85EFE01FAD2254B25008
:1033C0009254F249624AD24A424BB24B4A85025960
:1033D0004561B1B3B250225492540259F249624A43
:1033E000D24A424BB24B4561828001114EC6AA8936
:1033F0002E854AC806CE22CC26CA2E89EF50F03B35
:1034000031C59734002083C4240999E08344050022
:103410001945EFE01F9D2A8415C981451946EFE043
:10342000FFD2930700FD2300F400B947A300340145
:103430002301F40023122401A2856244F240424990
:10344000B2492685D24405616FE01FA4F240624470
:10345000D2444249B2490561828039715ECEAA8B5D
:103460002E8526DA4ED652D456D25AD006DE22DC2B
:103470004AD8AE84328BB68A3A8ABE8942C6EF50A9
:10348000D03331C92A894145EFE0BF952A8421C54F
:1034900041468145EFE09FCB173500200345C5FF2E
:1034A00019E103450900930700FD2300F400BD471F
:1034B0002301F400B247A3007401231294002304F3
:1034C0006401A304540123054401A30534015CC431
:1034D000A285EFE07F9BF2506254D2544259B25918
:1034E000225A925A025BF24B21618280797126D274
:1034F000AA8439454AD04ECE06D622D42EC6B289E9
:103500003689EFE01F8E21C1B2459307000D2310CD
:10351000F500B1472A842312B5002301F500CE85BA
:103520001905194697100020E780609A23062401A8
:10353000A2852254B2500259F24913F5F40F925465
:1035400045616FE07F94B250225492540259F2497F
:103550004561828017370020034777F49307F00F07
:10356000630DF706411126C2AA84394522C406C656
:103570004AC0EFE01F872A8439C9930700FD230062
:10358000F500A300950023010500973500209385E1
:1035900065F20D05194697100020E7804093173912
:1035A00000201309A9EF83578900A2851735002051
:1035B0000345F5EE2315F400834719002306F400B4
:1035C0002244B2409244024941016FE0FF8BB24075
:1035D000224492440249410182808280011156C2F4
:1035E000AA8A314526CA4AC84EC652C406CE22CC43
:1035F000AE84328AB6893A89EFE0AFFE29C92A84BF
:103600002685EF50901B1DCD03450500930700FD57
:103610002300F4009D47A30054012301F40023126A
:103620009400231344012314340123152401A2859B
:103630006244F240D2444249B249224A924A056168
:103640006FE09F8417350020034575E5C1B7F24050
:103650006244D2444249B249224A924A0561828078
:10366000397162CC2A8C594526DA4AD84ED652D4C2
:1036700056D25AD05ECE06DE22DCAE8432C636C4C6
:10368000BA8B3E8BC28A468A83590104034941049E
:10369000EFE02FF535C53246930700FDA246230023
:1036A000F5009547A301C500A30085012301F5009E
:1036B0002A8419461105A9C2B68597100020E78013
:1036C000008123066401230A2401231574012317B2
:1036D00054012318440123193401A2856254F25085
:1036E0004259B259225A925A025BF24B624C2685D9
:1036F000D25421616FE04FF98145EFE03FA5D1B78A
:10370000F2506254D2544259B259225A925A025B30
:10371000F24B624C216182809737002083C727D803
:103720008DCB4111AA8519461385018806C69700DD
:103730000020E780C0799385018817350020034574
:1037400005D6EFF0DF96B2401385018841016F8006
:10375000502E0145828017370020034757D4930726
:10376000F00F6305F708411126C2AA84294522C437
:1037700006C6EFE00FE72A8429C1930700FD230066
:10378000F500A1472301F500A3009500973700201D
:103790009387C7D083C72700938501881105A30F9E
:1037A000F5FE194697000020E7806072A285173564
:1037B00000200345D5CEEFE02FED1737002003475B
:1037C00007CE8D47631FF700938781899C4391CB78
:1037D00003A38700630703002244B24092444101DF
:1037E0000283B24022449244410182801737002074
:1037F0000347E7CA8D47631AF700938781899C4383
:1038000089C703A38700E31D03FC8280797122D45A
:1038100006D626D24AD04ECE52CC094445C92A8972
:10382000035505002E8A5144EF502079AA8459CDC2
:1038300083C73192FD1793F7F70F05474944637724
:10384000F7080347C500A1476314F70063100A088F
:103850009C5C4544A5EF9165938545711305C002B5
:1038600097100020E78000EC88DCAA894D4439CD10
:103870001306C0028145EFE07F8D835709009386D0
:10388000490036852391F90071469305490036C6F3
:1038900097000020E780A06389472380F90003C5D3
:1038A000C400B24603560900611583C50192133561
:1038B0001500EF7010772A8463060A00D2852685EA
:1038C000EF60300801C42685EFF07F852285B25075
:1038D000225492540259F249624A4561828083C758
:1038E0003192FD1793F7F70F05476378F70889477B
:1038F00051C6011122CC26CA4AC84EC652C406CEB1
:10390000AA89368AB2842E89EF50206B2A84D14747
:1039100029C9485509C597100020E78040EAF145BC
:103920002685EFE01F8548D4CD4705CD8346C400EA
:1039300021478147639FE600630D0A000347A50105
:103940000356050193062501AA854E85EF50507751
:10395000AA8703474400630F090013676700230227
:10396000E400F2406244D2444249B249224A3E85D0
:103970000561828013674700DDB7C9473E858280B5
:10398000E14763EBA700973700209387E7AD060573
:103990003E9503550500828041657D1582800111A9
:1039A00022CC2A842E8526CA06CEAE84EF50E06053
:1039B0000DCDB7470F009387F723094563E28702D0
:1039C00081450A854146EFE06FF8A6852310810006
:1039D0000A85418023018100A3010100EF70D046D8
:1039E000F2406244D244056182804945D5BFA3803C
:1039F000A19282806F70B05B797152CC2A8A328535
:103A000022D426D24AD04ECE56CA5AC85EC606D650
:103A100062C4AE8BB28A368BBA843E89C289468430
:103A2000EF50A05915C92A8C63140A0213774B0072
:103A30008347450015CF93E727012302FC008DEC57
:103A4000631C0902639A090205E8ED9B2302FC004E
:103A5000832B8C03639F0B06B2502254925402595D
:103A6000F249624AD24A424BB24B224C45618280B3
:103A7000F59B93E70701D1B793E747002302FC00CA
:103A800001CC1C484146A2852324FC0213058C016D
:103A900097000020E780A04363910B02D5D803254F
:103AA000CC0209C597100020E78060D1F14526853A
:103AB000EFE02FEC2326AC0261BFE30B09F80325EE
:103AC000CC0209C597100020E78060CFF1454A85F8
:103AD000C5B79DC483A70B0299EB9165938535719A
:103AE000714597100020E780E0C323A0AB0203A537
:103AF0000B0219C57146A68597000020E780203D7E
:103B00006388090283A74B0299EB91659385257120
:103B1000594597100020E780E0C023A2AB0203A51F
:103B20004B0219C55946CE8597000020E780203A00
:103B30001DC483A78B0299EB91659385157151453F
:103B400097100020E78000BE23A4AB0203A58B02E0
:103B500019C55146A28597000020E78040372254BE
:103B6000B2509254F249B24B224CCA865A8602593C
:103B7000424BD6855285D24A624A45616FF04FF575
:103B8000011126CA52C406CE22CC4AC84EC62A8A81
:103B9000AE84EF50804225C5AA893945EFE06FA475
:103BA0002A8431CD173900200349098F6314090095
:103BB00003C909009307000D2310F400AD4723014A
:103BC000F40093856900130534001946970000201E
:103BD000E780E02F93F71400858085882306F400A2
:103BE000A306940023154401A2856244F240D24406
:103BF000B249224A4A85424905616FE0EFA8F24086
:103C00006244D2444249B249224A05618280938784
:103C10008188884301CD411106C697100020E780B6
:103C200000BAB24023A40188410182808280011140
:103C300006CE22CC26CA4AC82EC6EF50003839CD4F
:103C4000B2451739002003492985AA840CD563148D
:103C50000900034905004145EFE0AF982A841DCDD6
:103C60009307000D2310F500A5472301F50083C736
:103C70005400938564001105A30FF5FE19469700C3
:103C80000020E780C0249C54A285F2405CC46244BA
:103C9000D2444A85424905616FE00F9FF240624479
:103CA000D244424905618280797122D406D62A84A1
:103CB0002EC6EF50803001CDB2452285230EB100D3
:103CC0006C08EF608044B2502254456182805145B7
:103CD000DDBF6F50003CC1671387E7FF6394E502C7
:103CE000938741899C4391EB494582804945B24085
:103CF0002244924402494101828003A30700E30564
:103D000003FE0283411122C426C24AC006C6FD1723
:103D10002A892E84B2846395F502938741899C4356
:103D200091CB9C4381CB829711E52384218BA38483
:103D3000918A75BFA6854A85EFF06F854DF9F5B775
:103D40002E85EF5080275DD1834705000D45E39018
:103D500027FB22852244B2400249A68592444101B4
:103D60006F80204B61476362A7044111416722C401
:103D700006C626C27D172A8409456383E502C54726
:103D8000AE846315F4002E85EF8020509317140045
:103D9000172400201304446DA29723909700014537
:103DA000B24022449244410182800945828001113F
:103DB00006CE2AC6EFE0DFFFEF100004EF0020760A
:103DC000EFD010353245972700209387276D1307D2
:103DD00000F02391E700238207007D57938701922B
:103DE000A380E7002380A700F240954505616F306E
:103DF000103F5D7193970501CAC086C6A2C4A6C2D2
:103E00004EDE52DC56DA5AD85ED662D466D26AD01A
:103E1000C1872E8963D8074C03C50192EFE04F801C
:103E20008964416A856A797B2A84938BD4007D1AE0
:103E3000A50A691B15E021653345A900B640264453
:103E400096440649F259625AD25A425BB25B225CEE
:103E5000925C025D61618280834704001307200A3F
:103E6000639DE70003552400172C0020034C3C639E
:103E70002286D285EFF00FB73DAA1307100903CCB5
:103E800011926397E716834714001547639EE70076
:103E90002285EFF0AFB92285EFD0FFF103C5019283
:103EA000EFD01FF82A8479B739476399E71603558D
:103EB0004400631B55050C4483C90500639D09003C
:103EC000850591C91946172500201305A55E9700A1
:103ED0000020E780C0FF172700200347275C8547A5
:103EE0006318F710638A0900972700202388075A70
:103EF0004E85EFF02FE645B7894717270020230F9F
:103F0000F758EF80C03241BF93872400631AF5064B
:103F100083298400638E090C83C709008DE383C75E
:103F2000290003C71900A207D98F17270020231BD8
:103F3000F75683C7390017270020A301F756172724
:103F400000200347A75589476314F70A83C7090070
:103F500081CB972700202383075403C5090051BF55
:103F60008D479725002083C57553172500200355DD
:103F70006553172700202303F752EF305029F1BF74
:103F8000938754006318F5001C4403C50700EFF045
:103F90008FFC11B7B3076501C207C1831147636F77
:103FA000F700938781899C43E38707EE9C43E38472
:103FB00007EE22858297E31005EE1DA89387B400D3
:103FC000631FF500938701899C43E38607EC9C43BC
:103FD000E38307ECA2851385B4008297E9BF93873A
:103FE000C4006310F5021C4483C70700E38507EA99
:103FF0009307F00FE301FCEAA2856285EFD0DFE8CA
:1040000071BD9387E400E315F5FE938741899C43D6
:10401000E38307E8DC43A285E9F3B5BD3D47639739
:10402000E70403554400E30275FF93879401E30E10
:10403000F5FC93873401E31DF5FA9727002083D719
:104040004746639E4701938741899C43E38507E484
:10405000DC43E38207E4A28513853401BDBF938767
:10406000C1899C43E38907E29C43E5B71307E0035A
:10407000E390E7F88347240005476396E70E8347FC
:104080006400138D8188F1E383270D00D5CB03CC29
:104090000700A14903457400930C8400E685EFF006
:1040A0008F8583474401A303A40083580401035868
:1040B000E400035744002A86034534003EC2835778
:1040C0002401E686E2853EC0CE87EFF06FD98347B4
:1040D000340095E7DD47835804010358E400834624
:1040E0007400835544003EC2835724016687054609
:1040F0003EC06285CE87EF50A015A301A4008327A0
:104100000D0081C71145EFF09FB003C5818AE3041C
:1041100005D883C5918AEFE09FC7E30E05D6834695
:10412000340093071003638AF600035644004E8759
:1041300083C5818A3685EFE0BFCF2384018AA1BB86
:10414000172C0020034CBC35A9B7938781899C4369
:10415000172C0020034CBC3491498DDFDC439DDBE0
:104160000145829705BF29476395E70A83476400A5
:10417000938C8188C9E383A70C00ADCB03CC0700E7
:10418000A14903467400834704028358C401058A89
:10419000A303C4000358A40103574400034534009B
:1041A0003EC28357E401130D8400EA863EC0E285D7
:1041B000CE87EFF0EFCA8347340095E7DD47835899
:1041C000C4010358A40183467400835544003EC2D1
:1041D0008357E4016A8705463EC06285CE87EF506B
:1041E0002007A301A40083A70C0021BF172C0020E7
:1041F000034CFC2A71B7938781899C43172C0020BC
:10420000034CFC299149B5DFDC43A5DF01458297CA
:104210008DBF0947639DE700938701899C43E38C29
:1042200007C6DC43E38907C622858297ADB12D47D7
:104230006399E700938701899C43E38E07C49C47F9
:10424000D5B70D476397E70022868D450355440097
:1042500015B119476395E706930561011305103100
:10426000EFD000762C0813052031EFD0607503568F
:104270006400835781010355440063E8C7008356F7
:1042800084000357610163F7E60093050002EF70B5
:10429000D07E11B16374E6002313E40063F4D70009
:1042A0002314F4000357C4008356A400035684006B
:1042B0008355640001488147EF70F07BE9BE1D47DC
:1042C000E398E7D203574400E3E4E7D297270020BE
:1042D0009387872506073E9783576400F1172310BD
:1042E000F70039B393F7150081CF938701899C4379
:1042F00089C7DC4399C301458297134519003DBE28
:1043000093F7250081CF938781899C4389C7DC433C
:1043100099C305458297134529000DB693F74500CB
:104320000145E38D07B09387C1889C4391CF8547B2
:10433000172700202306F716938781899C4389C796
:10434000DC4399C30545829797270020938707157B
:10435000C8472C08EF7060182808EFF0EFBB9727CC
:10436000002083D7871291CB130600643386C702DF
:10437000914503C50192EFD0DFF9134549007DBC9B
:10438000411122C42A84554506C6EFF06FDFB335CC
:10439000A00022852244B24041016F70D06A797139
:1043A00022D406D68D472E84631FF50003D7A500BF
:1043B00083D6850003D665000345340083D54500C8
:1043C000EFF0CFA109A889671387D7006310E50430
:1043D00003C5250019E58547B25022543E85456145
:1043E0008280938781889443FDD603C6360083C5B7
:1043F0000600814802C202C0014881470147910678
:10440000EFF00FA60545EFF09F80F1B71387E700A7
:10441000E303E5FC13873701631AE50003C52500B4
:104420005DD9014781460146814559BFE507E3044F
:10443000F5FA41677D178147E310E5FA03C7550098
:10444000C947E31AF7F883D6E50003D6C50003553C
:10445000840083D5A500EF70D06351C15D45EFF0B6
:104460002FD23335A000231CA100834544000355FF
:1044700024003008EF40102883578101A9FF6C0801
:1044800013051031EFD0C0539305E101130520311E
:10449000EFD000538357C101035784006374F700C2
:1044A0002314F4008357E1010357A40063F4E700E9
:1044B0002315F400835584008357A40063F4B700E8
:1044C0002315B4000357E4008356C4000356A40028
:1044D0000355240001488147EF70F057EDBD854733
:1044E000231CF10059B7C1671387E7FF639DE500FF
:1044F000938781889C4395C383C707000D47639CBE
:10450000A7006F709054FD1749476396F500938795
:1045100081889C43FDF73A8582804947EDBF238A15
:10452000018A23AE018A23AC018A97270020938752
:10453000E7F8170700001307E74798C317070000BD
:104540001307074BD8C3170700001307475B98C72B
:104550009387C18A17070000130727F998C3170725
:104560000000130707E4D8C3828079714AD0138909
:10457000C18B8327090006D622D426D24ECE52CC38
:1045800056CA5AC881EF0545B25022549254025976
:10459000F249624AD24A424B456182800347050094
:1045A00085472A846301F704034685009306950036
:1045B0009305F1000545EFE09F98814719C18347B6
:1045C00005008346040011476387E6021387818B49
:1045D00018438D4603471700630FD70089CF01CFDB
:1045E00011E5014555B781470145E1BF8546631D8A
:1045F000D7048D8BFDD703451400130B2400DA85F7
:10460000EFE07FAFA300A400832709002A8A814935
:104610009304F00FB1E3834604009147E383F6FC73
:1046200083270900DDDF03C6418B01479305F00FA7
:10463000E309E6FABE84C10703C507FF6301B510AD
:1046400005071377F70FEDB78946E31CD7F8858B7D
:1046500055B7850993F9F90F83C7418BE3FDF9FA43
:1046600003250900939A4900569583470500E38284
:1046700097FE83471500E39E47FD1946DA85090535
:10468000EFD0FFB279D58324090003470400D69404
:10469000D9D09147631CF706C84405C583478400F9
:1046A000034605006306F606034704009147631DB1
:1046B000F706C84419C597000020E780401023A6DC
:1046C00004000345840091659385E5710505970015
:1046D0000020E780200505C5034704009147631EBD
:1046E000F704C8C483478400930594000505A30F0D
:1046F000F5FE0346840097F0FF1FE780407D0345E9
:1047000084003335A00049B588C48DA8884471B7AA
:10471000930594000505EFD09FA98547E316F5F8AA
:104720005545EFF0EFA5BDA8884441DD9700002076
:10473000E780E00823A4040069B788C465B7238034
:10474000D40083471400DA8513852400A380F40085
:10475000194697F0FF1FE780807703458400916535
:104760009385F571050597000020E780A0FB05C53E
:10477000034704009147E319F7F8C8C4834784004E
:10478000930594000505A30FF5FE0346840097F0FA
:10479000FF1FE780C07383478400E39607DE03456D
:1047A00004007D1513351500C5B3011122CC138407
:1047B000C18B1C4006CE26CA4AC84EC652C499CFE9
:1047C0002E8AAA840149084063129902630C0A04E4
:1047D00097000020E780A0FE23AE018AF2406244E9
:1047E000D2444249B249224A056182809319490064
:1047F000B3073501884709C997000020E78020FCEE
:104800001C40CE9723A407001C40CE97C84709C977
:1048100097000020E780A0FA1C40BE9923A609005B
:10482000050955B745DD139644008145EFD01F9229
:10483000144081477D5613F7F70FE37197FA1397EA
:10484000470036972300C7008507F5B7011152C40A
:10485000138A818B83270A0006CE22CC26CA4AC837
:104860004EC656C25AC0C9CF2A89014419ED938752
:10487000C18B944399CA03C6418B2A84814793050F
:10488000F00F13F7F70F6367C708131534002105FE
:10489000EFD02FD5AA8401E92145EFD08FD4AA8487
:1048A00021C501444D49930700FD2380F40085474D
:1048B000A38024012381F400A38184005DC41389B3
:1048C000840023A224018149938AC18B130BF00F2A
:1048D00083C7418B63F3F90031E883270A00A6857B
:1048E00003C50700EFD04FDA814503C5418B753D05
:1048F00003250A0097000020E78060EC23AC018AC2
:10490000F2406244D2444249B249224A924A024B9E
:1049100005618280139747003697034707006305B8
:10492000B70005041374F40F8507A1BF83A70A001D
:1049300093954900BE9583C70500638467032300F0
:10494000F90083C71500130529007D14A300F900A1
:10495000194689051374F40F97F0FF1FE78020575D
:104960002109850993F9F90FA5B723A20400B5B76A
:10497000411122C406C62A8405E10945EFF04F80A3
:104980002A8611C5854503C50192EFD09F9805453C
:10499000EFF01F9F2A8401C9854503C50192EFD01E
:1049A000DFAD22856535B240224405454101828054
:1049B00089671387B700631AE5009387818B9C434F
:1049C0009DC39C4503C5070065B71387C700814792
:1049D000631CE5009C4503C50700854711C5938707
:1049E000818B9C43F5F381473E858280797106D6A1
:1049F00022D426D24AD04ECE52CC56CA5AC85EC60F
:104A000079C983473500AA8985C7404115C05945F2
:104A1000EFE01FF7931A850193DA8A410149138A5F
:104A2000818B130B000DB54B83C73900636DF90003
:104A3000B250225492540259F249624AD24A424B2D
:104A4000B24B456182808307840263CD5707832779
:104A50000A00ADCB2285EFF05FB12DC50345840080
:104A60005105EFD00FB8AA8431CD23106501230181
:104A7000750183470400194693052400A301F5003E
:104A80008307840215052303F50083471400A30F51
:104A9000F5FE97F0FF1FE7808043034684002386DE
:104AA000C4001DC61385440188C89305940097F07F
:104AB000FF1FE780C04183270A00A68503C50700C2
:104AC000EFD08FBC0509130494021379F90FA9BF25
:104AD00023A80400CDB79387818B9C43B1DBBD3302
:104AE0002254B25092540259F249624AD24A424B7D
:104AF000B24B014545616FF0BF88797106D622D46B
:104B000026D24AD04ECE52CC56CA5AC85EC671C1C1
:104B100083473500AA8985C7444195C05945EFE0D0
:104B20003FE6931A850193DA8A410149138A818B02
:104B3000130B00FDC14B83C73900636DF900B25000
:104B4000225492540259F249624AD24A424BB24B21
:104B5000456182808387F40063C8570783270A0072
:104B6000A5C75145EFD0EFA72A8439CD23006501B1
:104B7000A30005002301750183C70400194693852E
:104B80002400A301F5008387F4001505A306F500B2
:104B900083C71400A30FF5FE97F0FF1FE7802033B3
:104BA00083C78400938594001305C400A305F40013
:104BB000194697F0FF1FE780803183270A00A285FE
:104BC00003C50700EFD04FAC0509C1041379F90FF5
:104BD0009DB79387818B9C43BDD3EFF03FC7225491
:104BE000B25092540259F249624AD24A424BB24BF5
:104BF000014545616FF0CFF883C73192A18B1385D2
:104C0000C18A91E301456FE08FA8411122C4854517
:104C10002A8403C5418B06C6EFF03FB983C73192A2
:104C2000A98BA5CB1725002013054589238A818AE6
:104C3000EFE08FA51384C18B1C4091C74D45B24056
:104C400022444101828003C5418B19E10145C5BF62
:104C500091659385B571120597000020E78080ACBF
:104C600023AEA18A61DD03C6418B12068145EFD0D8
:104C7000EFCD104083C6418B8147FD5513F7F70FE9
:104C8000E376D7FC1397470032972300B7008507D8
:104C9000F5B70145238A018AEFE00F9F45BF93874F
:104CA000C188884301CD411106C697000020E780E6
:104CB00000B1B24023A601884101828082800111A7
:104CC00022CC06CE8D472E846316F50603C7350029
:104CD000E94703D545006318F7009717002083D7ED
:104CE000477C6385A706EF40402D09C583576400C4
:104CF0002317F5000357A40083568400035664006D
:104D00008355440003453400EFE05F8D03574400B2
:104D10009717002083D7E7786308F7008547F240AC
:104D200062443E8505618280FD5717170020231AD3
:104D3000F776EDB78967CD07631DF50083C72500BA
:104D400031476385E7004547E39AE7FCEFE0AF9A18
:104D5000F1B741677D178147E313E5FC83C6550032
:104D60004947E39EE6FA83C5450003552400300019
:104D700023140100EF40E01255B7797122D4138457
:104D8000C1881C4006D626D24AD00545A5C30D458C
:104D9000EFE01FBFAA841145EFE09FBE2A8993056B
:104DA000F1011305F041EFB0F0700347F1019717DF
:104DB000002083C7C76EB336F00011C389061C40BC
:104DC00036C603C5370093854700EFE04FAE10406D
:104DD000B2462A878348B6000348A60093074600D8
:104DE00003462600CA852685EF70E044B25022545F
:104DF0009254025945618280FD572386F1802390A9
:104E0000018C23A4018C23A6018C23A8018C971765
:104E100000209387676B170700001307A70798C345
:104E2000170700001307A734D8C31707000013079C
:104E300007F598C7970700009387A7E823A2F18C8E
:104E40008280411126C29384C1889C4006C622C438
:104E50009DCB2A840D45EFC0DFF8AA8519CD9307B5
:104E600000FD2300F5008D47A30085002301F50018
:104E70009C4003C50700EFD02F8111C42244B240EB
:104E80009244410129BDB2402244924441018280B2
:104E9000797126D283544500896706D622D44AD038
:104EA0004ECE52CC13876700639DE4029387C1887E
:104EB0009C43014481CF1845034507000DE1054798
:104EC000A380E7000545EF70C03705442285B25046
:104ED000225492540259F249624A456182809537C0
:104EE000EDB7138797006365970403C7C1809307E5
:104EF000F00FE30CF7FC1C45114503C40700EFC09D
:104F00005FEEAA8579D1930700FD2300F50089475C
:104F10002301F500F977E117BE9493B41400A300C0
:104F20008500A301950003C5C180EFC0FFF571BFE7
:104F3000A9070144E39CF4F81389C1888327090079
:104F40004A8AC9D7184503C4170085478349070013
:104F5000630DF4029717002083C78754BDF70D45F2
:104F6000EFC03FE8AA8505C1930700FD2300F500C7
:104F70009147A30035012301F5008327090003C5EC
:104F80000700EFC07FF0213B89B79387818C9C435A
:104F900091EF0145EFE0DF9E2A8611C6894503C5E2
:104FA0000192EFD00FB783270A00A9A003C607001C
:104FB000938617009305F1000545EFD05FF871D98E
:104FC00083470500858BF1D70545EFE07F9B93076D
:104FD000B003AA8463FDA7025D66130606708945C7
:104FE00003C50192938444FCEFD04FC62390918C6B
:104FF000832709000947A380E7009717002083C78C
:10500000274A99CB97170020238C0748C1B5130670
:1050100000643306C50251B74E85253545BD9387DB
:10502000C1889C43011122CC06CE26CA4AC84544F9
:1050300099E783C7319213F7570009EB494422855A
:10504000F2406244D2444249056182801387818CD8
:10505000184341446DD70347070075D3858BAE8451
:105060002A89D9C783C704000547F91793F7F70FB3
:10507000E366F7FC916593857571314597F0FF1FE5
:10508000E780406A23A6A1884D4455D92300250115
:10509000A30005002946A685090597F0FF1FE780B4
:1050A00000E3930571001305F041EFB0B040834772
:1050B0007100B9E7171700200347673E8D4763115A
:1050C000F704EFE04F8D2C00EF6020412800EFE067
:1050D000AFE44545EFE0DF8A014435D113060064B3
:1050E0003306C502914503C50192EFD08FA281BF5F
:1050F000EFE03FBE2A84EF30B07CE375A4F69DBF9D
:10510000EFF0BFC72A8405DDEFF07FB90DBF411175
:1051100026C29384C1889C4006C622C4A1C383C70B
:1051200007000D44639DA702894503C50192EFD096
:10513000CFB4914503C501922390018CEFD0EFB31A
:1051400097170020A38E07349C400145A380870059
:105150002244B240924441016F70A00E494422851E
:10516000B2402244924441018280411106C68547E3
:105170006311F50683D7018CA1C7171700200347D9
:1051800027321DEF1307B0036367F702894503C594
:105190000192EFD08FAE9307006403D6018C3306E3
:1051A000F602894503C50192EFD0AF962390018C9A
:1051B000B24041018280938747FC2390F18CCDBFA0
:1051C0009387C1889C43EDD7B24003C507004101D6
:1051D0003DBF9387C1889C43E1DF83C73192918BA8
:1051E000E1DB894503C50192EFD02FA9B24023909E
:1051F000018C41016FF0BFAA83C73192958BCDC757
:105200009387818C99E19387018D9C43D1CFFD4792
:1052100063EEC70811C2D9CA411122C426C206C60C
:105220004AC02386A180B6843284A1C11389818CAF
:10523000032509007D4681450505EFC03FF10325A3
:105240000900A6852286050597F0FF1FE78020C884
:10525000832509002285238085002244B2409244A0
:105260000249850541016F60507D1389018D032539
:1052700009007D4681450505EFC05FED0325090066
:10528000A6852286050597F0FF1FE78040C4832589
:1052900009002285238085002244B24092440249BD
:1052A000850541016F60B07949458280094582805A
:1052B00083C73192918B99CF41111385418C06C6DA
:1052C000EFD0BFBDB240FD5717170020231BF71CBE
:1052D0004101828001456FD05FBC9387818C8843F8
:1052E000411122C406C626C23E8419C597F0FF1F8D
:1052F000E780E04C23A4018C9387018D884319C576
:1053000097F0FF1FE780A04B23A8018C93840192A4
:1053100083C73400958BA5CF171500201305C51A38
:10532000EFD05FB783C73400958B99E74D45B24006
:1053300022449244410182809164938564711305F3
:10534000000297F0FF1FE780E03D23A4A18C79DDE8
:10535000130600028145EFC07FDF9385547113056A
:10536000000297F0FF1FE780E03B23A8A18C01C952
:10537000130600028145EFC07FDD01454DBF0840A7
:1053800097F0FF1FE780A04323A4018C45B7014598
:10539000EFD05FB0DDB70145828083D7050063871A
:1053A000A70083D745006395A70091052E858280CD
:1053B00083D78500A105E38BA7FE8145C5BF0DCD31
:1053C000834725000547890793F7F70F6376F702B0
:1053D000411122C406C62A848355050003453500C1
:1053E0000147F9465D46EFD0501AF9572311F400F2
:1053F000B2402244410182808280014582809385AF
:10540000B1819307000285462380F500FD57238D67
:10541000F1802387F180A386F180239CD180239A99
:10542000018C23AC018C23A4018E23AE018C138646
:105430000181971701009387E7675CC2238B018C7A
:1054400097F7FF1F9387C74309472300E600238090
:10545000E7002388E7002380E7022388E702171785
:10546000010013076764D8DB0D472384D700D0C73A
:10547000238CD700238CE702171501001305056460
:10548000171700201307070517160100130686617A
:105490009716010093860663D8DFC8C323950700DB
:1054A000D0CB239D0700CCCFD4D3238407022395F0
:1054B000070223A60702239D070217070000130710
:1054C000670C97F7FF1F9387A73F23A00700D8C358
:1054D00023A407008280411106C6C13511C50345CA
:1054E0002500B240410182800145E5BF411122C43F
:1054F00026C24AC006C6AA842E893284793D09E9AB
:105500004165CA857D15513DC54711C523109500DC
:10551000230185008147B2402244924402493E85DE
:105520004101828039E389483547639116050111AD
:1055300006CE22CC26CA034716000346060093C7B0
:10554000F7FF2207598EF18F32C69DE3C4452A84A6
:10555000A685513732460147630EA6002285624474
:10556000F240A685D244056151B72D473A85828025
:1055700013070008F2406244D2443A8505618280F4
:1055800083C8050009486394080303A845008347BE
:10559000180003480800A207B3E70701C2070D6817
:1055A000C18713082890639407018947A5BF054563
:1055B000828003C7E1809307F00F630AF70441116B
:1055C0004AC02A89294522C426C206C63284AE842E
:1055D000EFC03F811DC59307100B2310F500230278
:1055E000050023148500224423112501231395006F
:1055F000B24092440249AA8503C5E18041016FC0CF
:10560000BF88B24022449244024941018280828094
:10561000411126C2AE84971500209385A5EB22C4C4
:1056200006C62A844D3D098909C922852244B24013
:10563000A685924441016FD05022B2402244924448
:10564000054541018280411122C426C24AC006C6D6
:10565000AA841304450013090504835704008DC36D
:10566000084409C597F0FF1FE78060152285314681
:105670008145EFC0BFAD3104231A04FEE31F24FDB2
:10568000B2402244FD572390F40002499244410164
:1056900082809387018E9C4303D707006300A70293
:1056A00083D60704138707046388A60013870708B7
:1056B00083D707086396A7003A8582803E87EDBFAF
:1056C0000147DDBF9387818E9C4399C703D747006D
:1056D000E31CA7FE8847828001458280411106C6EF
:1056E000D53709C50845B240410182800145E5BF73
:1056F000011126CA9384450022CC4EC606CE4AC864
:1057000052C456C25AC02687814901448146814706
:1057100015450356070045CEC9E203544700835799
:105720002700B286A297C207C18385093107E39299
:10573000A9FE35C42E89916593854570228597F021
:10574000FF1FE78020FE2A8B39C9814A014A8C4419
:1057500085C503D6440033054B0197E0FF1FE78062
:10576000007783D7440088443E9A420A135A0A01BC
:1057700097F0FF1FE780A00463870A003146814548
:105780002685EFC0BF9C850AB104E3C23AFD2326FB
:10579000690123148900054521A0630DD600014548
:1057A000F2406244D2444249B249224A924A024BF0
:1057B0000561828003562700E313F6FE0356470077
:1057C0003294B2974204C2074180C183B9BF0545F4
:1057D000E35835FDB9BF9387C18D9C4399E30145DB
:1057E000828098470357A700E319A7FE1385470057
:1057F0008280411106C6C53711C503550500B24068
:10580000410182800145E5BF411106C6E93711C556
:1058100003452500B240410182804145E5BF411169
:1058200022C42A842E8506C6C537AA850546228548
:10583000EF30607B95476305F500BD476313F500C6
:105840002145B240224441018280411122C42A8470
:10585000090506C6EFD0C060FD57A301F400B240B1
:105860002244410182809387418E9C4303D70700E5
:105870006300A70283D66700138767006388A600CA
:105880001387C70083D7C7006396A7003A85828035
:105890003E87EDBF0147DDBF411122C4416406C60A
:1058A00026C29307E4FF630CF500AA8491ED653FDF
:1058B00019E51305F4FF453F19C123109500B240C7
:1058C000224492444101828085476392F504613FFE
:1058D0002A8475D5FD572310F5008347240013074C
:1058E000F00F6383E7021307E00F638AE7000345C5
:1058F00034000147F9465146A685EFD0004922857C
:10590000A937FD572301F400230204004DBF894746
:10591000E397F5FA8545EF30900355F12685A137D9
:105920002A8445FD69BF5D71A6C24EDE86C6A2C44B
:10593000CAC052DC56DA5AD8AE8483C52500F9476E
:10594000AA896394F50405372A8409ED0144228568
:10595000B640264496440649F259625AD25A425BEE
:1059600061618280834725000547890793F7F70F18
:10597000E37EF7FC034535000147F9460146CE8535
:10598000EFD0A0402285D135D1B783AA0400B70754
:105990000001938707F037071200B3F7FA001307E7
:1059A0000710328A6389E7022EC6753D2A89B245FF
:1059B00005C5034645000DC293178601E187E3C77D
:1059C00007F84E85EFD060448347490093E707F816
:1059D0002302F900A5BF014903C7A1819307F00F76
:1059E0001944E306F7F6E147E3E3B7F693D715006A
:1059F000FD178E0717170100130707B3BA9703A8FF
:105A00000700E30608F403AB4700E3020BF4C20A05
:105A100093DA0A0163850A00C947E39AF5F283D64F
:105A20004400904483C5140003C50400380802985C
:105A30002A8411FD2C084E85029B2A8421C983C724
:105A40001400E39607F083C72400230AA100394716
:105A50002308F1006399E702624783471700034771
:105A60000700A207D98F0C084E852319F100EFC05B
:105A70008065E30D05EC14080546D9454E85EFD049
:105A800040442A84E9B583578101F1BF83C62400CD
:105A90009147E38DF6EA38080146CE8503C5A1811A
:105AA000EFD0A02E2A84E31405EA83C52400280839
:105AB000EFD0C02519C123000A009840B7070001A4
:105AC000938707F07D8FB707120093870710E30FC6
:105AD000F7E6E30D09E683C724002302F90085BD3C
