:040000006F00C06568
:1000040000000000000000006F0080086F00001F67
:1000140000000000000000000000000000000000DC
:1000240000000000000000000000000000000000CC
:100034006F004006000000006F00E00500000000B3
:100044006F0080056F0060056F0040056F0020059C
:100054006F0000056F00E0046F0040060000000020
:100064006F0060046F0040046F0020046F00000400
:100074006F00E0036F00C003000000006F00600326
:100084006F0040036F0020036F0000036F00E00265
:1000940001A001A001A001A001A001A001A001A054
:1000A40001A001A001A001A001A001A001A001A044
:1000B40001A001A001A001A001A001A097D0FFDF31
:1000C400E780600D73002030B71700409306700579
:1000D4002380D704130780FA2380E70403C6B704F8
:1000E4001376F60DA385C70423800704137605024F
:1000F4002DC603C6A700118A0DE22380D7042380EE
:10010400E70403C7A700136747002385E7009307A5
:10011400004B01000100FD17EDFFB71700409306E7
:1001240070052380D704130780FA2380E7047D89B0
:100134002394A700010001000100010023800704AB
:100144002380D7042380E704930610053727004053
:10015400A303D780238007048280137605046DDE11
:1001640003C6A700418A0DE22380D7042380E70455
:1001740003C7A700136707012385E7009307007DE2
:1001840001000100FD17EDFFB7170040930670054D
:100194002380D704130780FA7D892380E70413653D
:1001A40005042394A700010001000100010023803D
:1001B40007042380D7042380E704930630053727F8
:1001C400004079B74111814601468145114506C673
:1001D400912AB7170040130770052380E70413071B
:1001E40080FA2380E70403C7670413671700238397
:1001F400E70423800704B24041018280814601461E
:10020400814511450522B717004013077005238067
:10021400E704130780FA2380E7047D572396E70257
:1002240003C76704136717002383E70423800704C5
:1002340001A0BD473305F50201007D1575FD8280DF
:10024400411122C426C206C6AA840144631794003D
:10025400B240224492444101828005041305803E49
:100264004204C13F4180DDB72303048015472303C3
:10027400E48001002302A480828083076480E3CEAB
:1002840007FE23030480828083076480E3CE07FE95
:1002940003454480828083076480E3CE07FE230203
:1002A400A4808280411126C44AC24EC006C6137778
:1002B400F50BAD47AA892E8995446306F7001945C5
:1002C4006537653F8D444E854537FD59FD14639868
:1002D4003401B240A244124982494101828013553B
:1002E40009011375F50F453F2209CDB7011126CC3D
:1002F40006CEB704080051371545BD377137693745
:100304002AC6A53F32459377150089EB136515007E
:100314001375F50FF240E24405618280FD14E9FC97
:100324000145CDBF397126DC4ADA4ED852D656D4AF
:100334005AD25ED006DE62CE66CCB7E700E07D57C7
:1003440083AA070022C603AA470023A0E71823A212
:10035400E718B7170040130770052380E704130755
:1003640080FA2380E70483C74704930B75FFB684A0
:10037400E20793FBFB0F8546AA892E8B328937242B
:100384000040E187015763FA76016308D500894686
:10039400130700026313D5000157D98F93F7F70FA2
:1003A400B71C00402382FC0411472303E480130597
:1003B400F00F5D3D094CD13563697C11B707070027
:1003C4003E9B378707007955637EEB02B3079B009A
:1003D400636AF702A9476399F90689E48144713D88
:1003E40026850DA0DA850945753D05090345F9FF04
:1003F400FD14050B4D3581C49377FB0FFDF7FD35D7
:1004040069FD7D55B7170040130770052380E70485
:10041400130780FA2380E70403C74704418B238230
:10042400E704F250B7E700E023A0571123A24711D5
:10043400E25432445259C259325AA25A125B825B74
:10044400724CE24C21618280A5476395F906856967
:100454001309F00FB3069900B3742B01B694134932
:10046400F9FFB3749900856B33796901416B938704
:10047400F9FFB3F7270199E363FC340193D94900E9
:10048400C147E3E637FF99BF0569C1697D19D9B74B
:100494001305800D638869011305000263847901E3
:1004A40013051008CA85FD3B913521DD4E99B384AF
:1004B4003441D9B7DA852D45F533CA94E30099F26E
:1004C4000509D933A30FA9FED5BF9387F9FF93F785
:1004D400F70F636CFC0803C75C04B70708001377C5
:1004E400070219E3B78707007955E37DFBF033076B
:1004F4009B00E3E9E7F089476390F9048980D549D3
:10050400E38E04ECDA850945713B11090327C9FF21
:1005140091472320E48003076480E34E07FE23030E
:100524003481FD17EDFBFD14110B81C49377FB0F90
:10053400E9FF6D3B71F5F1B58547E387F9F4DA8599
:100544002D458D339389F4FFE38A04E8353B93F713
:10055400390091EB8326048003270900930749009F
:10056400E39FE6E63E89CE84F1BFB5476396F90082
:100574001305900BD5399DB5B1471305B00AE38B2C
:10058400F9FE9947639EF902DA852D45213B8144A2
:100594008D4BA149D53963967401832704802320A8
:1005A400F9008504E39834FF8327048013172B0193
:1005B400635507002312F90015B52322F90039BD4C
:1005C4009D476399F90281451305B004E139BD449F
:1005D4002320090023220900FD597D3193F774007B
:1005E400CA9703C70700FD14398D2380A700E3963B
:1005F40034FFEDB3A1476392F904CD398144630D0F
:100604000B008D479304C0036308FB0093040005AB
:1006140063048B01930440041375C507E30095DC60
:10062400194599319939054581312685AD310945F9
:100634009D316D39E31405DAE9B391476399F90003
:1006440013056006153115391305900925B7E3879D
:0806540009D8F15469B300005C
:10065C009741002093814124178100201301C199F7
:10066C001305400097350020938505191736002097
:10067C001306067E63FAC5008322050023A05500ED
:10068C0011059105E3EAC5FE17250000130545AFDA
:10069C0097450020938545961386818063FAC500A3
:1006AC008322050023A0550011059105E3EAC5FE40
:1006BC0013858180938541A86377B50023200500BD
:1006CC001105E36DB5FE9302800873A002309732DA
:1006DC0000209382621293E21200739052309702C0
:1006EC0000009382421373901234730020303D4308
:1006FC002A876373C3029377F700BDEFADE593765A
:10070C0006FF3D8ABA960CC34CC30CC74CC74107B5
:10071C00E36BD7FE11E28280B306C3408A069702D0
:10072C00000096966780A6002307B700A306B700C3
:10073C002306B700A305B7002305B700A304B70031
:10074C002304B700A303B7002303B700A302B70029
:10075C002302B700A301B7002301B700A300B70021
:10076C002300B700828093F5F50F93968500D58D05
:10077C0093960501D58D61B79396270097020000DB
:10078C0096968682E78086FA9680C1171D8F3E96D4
:10079C00E374C3F8A5B7411106C6938541819387CD
:1007AC00C1822380A5008843114613050504EF0080
:1007BC00F03EB240114541016F00303A411106C67E
:1007CC009385C180938781822381A500884321462C
:1007DC0013050504EF00903CB240214541016F0028
:1007EC007036371700408327870A411106C693E7F6
:1007FC0007202324F70A854513050010EF009015F8
:10080C008D4513050020EF00F014B24041016F003C
:10081C00702841111305800406C697300020E7802C
:10082C00200AC137172500001305458DEF00105025
:10083C009387018423A2F1829387019023A4F182F0
:10084C009387019823A6F182938701A023A8F182B4
:10085C00EF007027B7E700E03707400023A0E71050
:10086C001305803E97300020E780001D0545253795
:10087C001305400697300020E780001C0145213FFE
:10088C001305800C97300020E780001B1305803E79
:10089C0097300020E780401A69450D371305400654
:1008AC0097300020E78040190145093F1305800C63
:1008BC0097300020E780401819450937130540068A
:1008CC0097300020E78040170145CD3D1305800C83
:1008DC0097300020E78040162D45CD351305400696
:1008EC0097300020E78040150145C93D95BF8147F1
:1008FC001386818213F7F70F6364A7006F009024AF
:10090C0018423E9783460700850793C6F6FF2300DF
:10091C00D704CDB781471386C18213F7F70F6364F1
:10092C00A7006F00902318423E9783460700850767
:10093C0093C6F6FF2300D704CDB7814713860183F6
:10094C0013F7F70F6364A7006F00902218423E97CD
:10095C0083460700850793C6F6FF2300D704CDB75F
:10096C0081471386418213F7F70F6364A7006F006A
:10097C00902118423E9783460704850793C6F6FFDD
:10098C002300D708CDB7B787004003C7670013779C
:10099C00F70F9376270063860678011106CE22CCDA
:1009AC0026CA4AC84EC652C403C777009306000332
:1009BC0013770703630BD70203C7770091461377AE
:1009CC00F7036300D72663EBE6088546630DD71A59
:1009DC006303071889466308D71C8D466304D72028
:1009EC00B787004009472383E700378700408347D8
:1009FC007700E207E18763D2073A930720FC2301D3
:100A0C00F7029386418280428349740083476400D5
:100A1C00A209B3E9F900239E318183471400A38D09
:100A2C00F180034904001377090663000728137744
:100A3C000904631E072013770902630A0720F917BC
:100A4C0093F7F70F2547636FF7321717000013075B
:100A5C00A7538A07BA979C43BA97828793062002BA
:100A6C006303D71663E9E60293060002630CD7040E
:100A7C0093061002E316D7F603C767021347070461
:100A8C002383E70203C767021377C70F1367270097
:100A9C002383E702B1B7930630026305D71693069A
:100AAC004002E31FD7F203C7270313470704238928
:100ABC00E70203C727031377C70F136727002389A0
:100ACC00E70239BF03C7B1819546630BD706994737
:100ADC00630AF7008D47E305F7F0B78700402380E2
:100AEC00070285A89387C18103D40700130700046C
:100AFC00BE846374870013040004938741821389B6
:100B0C000182884342048325090041802286EF003C
:100B1C00F00883D704009379F40F818F239EF18022
:100B2C00832709003E9423A08182B787004023804D
:100B3C00370303C72702134707042381E7024DB588
:100B4C0003C7370083C6C18113770708558FA3816C
:100B5C00E7000947DDB783C7870003C7B181A54705
:100B6C00E310F7E8938741829C43171500001305A7
:100B7C00E55583C7070089E717150000130585564F
:100B8C00EF00D01AB1BD03C7770013770704E30950
:100B9C0007E403C76702134707082383E70203C56B
:100BAC008700B13335BD03C7770013770704E3091A
:100BBC0007E203C7A702134707082385E70203C50B
:100BCC008700893B31BD03C7A70213470704238560
:100BDC00E70203C7A7021377C70F13672700238504
:100BEC00E702FDBB03C7770013770704E30A07DEB0
:100BFC0003C7E702134707082387E70203C58700EB
:100C0C002D3BF9BB03C7E702134707042387E70211
:100C1C0003C7E7021377C70F136727002387E70281
:100C2C00C1B303C7770013770704E30B07DA03C7D5
:100C3C002703134707082389E70203C587000D33F1
:100C4C0045B39387018483C73700238CF1806209F5
:100C5C001359894181466352090283D7C181930696
:100C6C0000043E8763F4F600130700044207418337
:100C7C00998F9376F70F239EF180B78700402380DE
:100C8C00D702130700FC19A29387018483C727009E
:100C9C00238DF1806DBF9387818183C707002380EB
:100CAC00F18475B79387A181CDBF2D47636CF70C89
:100CBC00171700001307C72F8A07BA979C43BA97D8
:100CCC00828783473400034724009946A207D98FB3
:100CDC0013D787006308D71863EFE60089466306CD
:100CEC00D70C0D46630DC71285476301F7049304B7
:100CFC00F00F8147A1A0930710026302F70C930732
:100D0C0020026302F70E9D47E313F7FE13069003D0
:100D1C009715000093852534173500201305E52D14
:100D2C00B52D973700209387272D61A097170000CA
:100D3C009387073623A0F1828144C947C207C18338
:100D4C0063F43701239EF1809387C18103D607009A
:100D5C009307000463F4C70013060004138A01828E
:100D6C009319060183250A0093D909014E86228521
:100D7C00352503260A004E9623A0C1829307F00F57
:100D8C00E397F4ECB78700401307F0FC2381E702EC
:100D9C00B787004009472383E700F2406244D244FE
:100DAC004249B249224A0561828097170000938715
:100DBC00672A23A0F18281449307B00341B783478C
:100DCC00440089CB0547E394E7F29717000093871B
:100DDC00172B29A0971700009387E72823A0F182EF
:100DEC008144A547A1BF8347440099EB97170000A6
:100DFC009387071F23A0F18281449307E0033DBF33
:100E0C000547639AE706171700001307672123A00D
:100E1C00E1828144A38CF1809307400305B793F7DB
:100E2C00F70F0547638EE7008DC7E392D7EC971752
:100E3C0000009387272823A0F1828144B147FDBD90
:100E4C00971700009387072623A0F1828144B947A6
:100E5C00F5B5971700009387273223A0F1828144C0
:100E6C009147E9BD971700009387872523A0F1824E
:100E7C008144A947E1B581449307F00FC1B583477D
:100E8C002400239EF180E1B383C781802300F4000A
:100E9C0003D7C1818547E3FCE7DA8547DDB7834794
:100EAC0024002384F18065B31377F901894763101B
:100EBC00F70A834744008D466382D70663EEF6003B
:100ECC008546638FD706E39FE7EA37870040834761
:100EDC00A70293F7370795A0130720086387E70449
:100EEC00130730086381E70213071008E39CE7E857
:100EFC00378700408347670293F7C70B93E72700B8
:100F0C002303F702A9B3378700408347E70293F71F
:100F1C00C70B93E727002307F70215BB3787004061
:100F2C008347E70293F73707FDB7378700408347BE
:100F3C00A70293F7C70B93E727002305F70201BB22
:100F4C00378700408347670293F7370755BFE31B8A
:100F5C0007E28347340003472400A207D98F0547D3
:100F6C00E397E7CE83C7E18193F7E70F238FF180F7
:100F7C00F9B91377F90189476314F70A83475400C9
:100F8C0083464400A207D58F8D466380D70663E065
:100F9C00F6028546638DD706E396E7DE3787004079
:100FAC008347A70293F7370793E7C70079B713076F
:100FBC0020086385E70413073008638FE7001307E5
:100FCC001008E391E7DC378700408347670293F70B
:100FDC00C70B93E737002DB7378700408347E702ED
:100FEC0093F7C70B93E737003DB73787004083472C
:100FFC00E70293F7370793E7C70031BF3787004005
:10100C008347A70293F7C70B93E737003DB73787A2
:10101C0000408347670293F7370793E7C700CDB5C6
:10102C00E31207D68347340003472400A207D98F65
:10103C000547E39EE7C083C7E18193E717003DB7FF
:10104C0023000400B1B59375F9018947639FF50A34
:10105C002300040098428347570003464700A20729
:10106C00D18F0D46638BC7046361F602054663841A
:10107C00C7086386B7069C42A380070003D7C181CB
:10108C008547E3F6E7BC8947EDBB930520086383EE
:10109C00B70493053008638BB70093051008E39CE5
:1010AC00B7FCB787004083C7670229A0B787004009
:1010BC0083C7E70293F7370401A8B787004083C7BB
:1010CC00E702314693F7C708E397C7FA8547230031
:1010DC00F70055B7B787004083C7A702E1BFB787B2
:1010EC00004083C7A702B14593F7C708E395B7F84B
:1010FC002300C70049B73786004003466602B14556
:10110C001376C608E319B6F6D9B7B5F52300040073
:10111C0003C7E18119C398425DBF9C42238007003D
:10112C0099BF9376170085C20947A38107002381D5
:10113C00E7022383E7022385E7022387E7020547BB
:10114C002383E700828093764700FDDA03C75700BC
:10115C001147FDB7914763EEB7021717000013074D
:10116C0067FA8A05BA959C41BA978287B7170040EF
:10117C0003A7470B1345F5FF698F23AAE70A03A7BB
:10118C00070B698F23A8E70A03A7070A798D23A009
:10119C00A70A8280B717004083A6470B1347F5FFB9
:1011AC00F98E23AAD70A83A6070B558D23A8A70A65
:1011BC0083A6070A758F23A0E70A8280B717004021
:1011CC0003A7470B498F23AAE70A03A7070B13456D
:1011DC00F5FF45BFB717004083A6470B1347F5FF34
:1011EC00758F23AAE70A03A7070A598D4DB7B717BE
:1011FC00004003A7470B498FEDB7B717004003D545
:10120C008700420541819377050491EB9377F501B3
:10121C003755E801130505803345F5028280937735
:10122C00050C130700046397E7009377F501374526
:10123C009C1CCDB72165130505D0828081473737BB
:10124C000040A14663C4C700328582800345B74085
:10125C00E38EA6FE3385F5000345050085072304C0
:10126C00A740CDB7411122C406C62A847937294735
:10127C00B307E502B2408D83B3D7870222449507AA
:10128C00B3D7E70237370040C207C1832316F740B4
:10129C0041018280716541111305052006C6D937BD
:1012AC00B7370040130770F82381E7400D47A3813F
:1012BC00E74013070004A380E74005472387E74076
:1012CC00B24041018280B78700402380070013079A
:1012DC00C0FC2386E700A386E70003D7418223984E
:1012EC00E70003D78182239AE70003D7C182239CAE
:1012FC00E70003D70183239EE70089462381D702A9
:10130C0049472383E7022385E7022387E7022389E2
:10131C00D702A3810700130790022380E700B716BA
:10132C00004003D7A6011367070C239DE6007D57E9
:10133C002383E700130710F8A380E7001D472381E0
:10134C00E7008280B78700402382A70203C76702A9
:10135C001377C70F2383E7028280B787004023846B
:10136C00A70203C7A7021377C70F2385E702828062
:10137C00B78700402386A70203C7E7021377C70F7E
:10138C002387E7028280B78700402388A70203C720
:10139C0027031377C70F2389E7028280B3C7A50001
:1013AC008D8B3307C50081E78D4763EEC700AA8795
:1013BC006370E50A83C6050085078505A38FD7FEF4
:1013CC00E3EAE7FE828093763500AA8791CA83C64A
:1013DC00050085078505A38FD7FE93F63700FDB76B
:1013EC009376C7FF138606FE63F0C70683A305003A
:1013FC0083A2450083AF850003AFC50083AE050112
:10140C0003AE450103A3850183A8C501938545025D
:10141C0023A0770003A8C5FF23A2570023A4F7013C
:10142C0023A6E70123A8D70123AAC70123AC670091
:10143C0023AE17019387470223AE07FF75B7904180
:10144C009107910523AEC7FEE3EBD7FEE3E4E7F685
:10145C008280011126CA4AC806CE22CC4EC652C47E
:10146C00AA842E8901C51C4D91E3ED299C4C804426
:10147C0099E32685C529971700009387E7CB631C52
:10148C00F402C0408357C400A18BB1C71C48A1C74C
:10149C00FD59294A1C4483450900FD17B1E91CC4B8
:1014AC0063DE07062286A94526854128FD57630879
:1014BC00F502294535A0971700009387E7C96314F7
:1014CC00F4008044C1B7971700009387E7C4E31B6F
:1014DC00F4FAC04445BFA2852685052255D97D5511
:1014EC00F2406244D2444249B249224A05618280A8
:1014FC001CC4050963D70700184C63CBE70063894C
:10150C0045011C401387170018C02380B70059B73A
:10151C00228626851D20E31F35F7D1B71C40138783
:10152C00170018C029472380E70061B797370020C0
:10153C00938787B6AA85884329BF011122CC26CA76
:10154C004AC806CE4EC6AA842E89328401C51C4DCB
:10155C0091E3092997170000938707BE6319F406D6
:10156C00C0401C4C1CC48357C400A18BC9C31C486D
:10157C00BDCF1C4808409379F90F1379F90F1D8DD5
:10158C005C486346F500A2852685752C2DE51C4428
:10159C000505FD171CC41C401387170018C02380B9
:1015AC0037015C486389A7008357C400858B81CBC6
:1015BC00A9476316F900A285268571240DEDF2402A
:1015CC0062444A85D2444249B249056182809717E8
:1015DC000000938767B86314F400804459B79717D9
:1015EC000000938767B3E31EF4F6C0449DBFA28549
:1015FC00268521203DDD7D59D9B741119737002033
:10160C00938787A926C2844322C44AC006C62A8966
:10161C002E8489C49C4C99E32685A9269717000033
:10162C00938787B1631CF402C0400317C40093175F
:10163C000701C18393F68700B5EE93F607019DEE83
:10164C00A5472320F900136707042316E4007D55F2
:10165C00B240224492440249410182809717000013
:10166C00938787AF6314F4008044C1B797170000C9
:10167C00938787AAE31BF4FAC04445BF918B8DC7AF
:10168C004C5889C9930744046384F5004A85812327
:10169C00232A04028357C4002322040093F7B7FDC6
:1016AC002316F4001C481CC08357C40093E7870022
:1016BC002316F4001C4881EF8357C4001307002045
:1016CC0093F707286385E700A2854A859D218357F8
:1016DC00C40013F7170005C75C4823240400B307A4
:1016EC00F0401CCC1C480145A5F78317C40013F728
:1016FC00070839DF93E707042316F40089BF898BA9
:10170C00014791E3584818C4F1BF83D7C5000111B4
:10171C0022CC26CA06CE4AC84EC613F78700AA8426
:10172C002E8471EFD841634DE000B841634AE0006C
:10173C000145F2406244D2444249B249056182807B
:10174C0058547DD703A904009396370123A00400B5
:10175C0063DD060670488357C400918B99C75C40C3
:10176C001D8E5C5899C33C401D8E5C540C508146B8
:10177C0026858297FD570357C400631DF5009440DE
:10178C00F54763E8D706B70740208507B3D7D700DE
:10179C00858BA5C31C48232204001CC0931737015A
:1017AC0063D80700FD576314F5009C4091E368C8AB
:1017BC004C5823A02401ADDD930744046384F50049
:1017CC0026853121232A0402A5B70C5001468546F3
:1017DC0026850297FD572A86E31FF5F69C40A5DF68
:1017EC0075476385E70059476394E70423A02401F8
:1017FC0081B7136707042316E4007D551DBF83A929
:10180C000501E38709F203A905008D8B23A035019F
:10181C0033093941014791E3D84918C4E35A20F1FF
:10182C001C540C50CA864E86268582976349A000AC
:10183C008357C40093E707042316F4007DBFAA99CD
:10184C003309A940E1BF9C49B9CF011122CC06CE86
:10185C002A8411C51C4D81E72EC62922B245971743
:10186C0000009387678D639BF5004C408397C50000
:10187C0095C722856244F240056141BD971700006F
:10188C009387878D6394F5000C44CDB797170000B0
:10189C0093878788E39CF5FC4C44C9BFF2406244B3
:1018AC0001450561828001458280411122C406C632
:1018BC002A842316B5002317C500232005002322F4
:1018CC000500232405002322050623280500232ACE
:1018DC000500232C0500214681451305C505EFE0C5
:1018EC001FE197070000938767485CD097070000BB
:1018FC009387C74A1CD4970700009387074F5CD483
:10190C00970700009387C75100D01CD8B2402244DF
:10191C004101828097050000938525F389AA411126
:10192C0026C2130680069384F5FFB384C4024AC012
:10193C002E8922C406C693854407252E2A8401CD00
:10194C002320050023222501310508C413868406B3
:10195C008145EFE0DFD92285B2402244924402490E
:10196C00410182801C4DBDE3411106C622C497077C
:10197C000000938767FA1CD59717000093870780A0
:10198C009C432324050423260504232805046314FF
:10199C00F50085471CCD2A841D2848C022850528C2
:1019AC0008C422852D2048C4484001469145F53D88
:1019BC0008440546A545D53D48440946C945F53575
:1019CC0085471CCCB2402244410182808280411167
:1019DC00970700009387877A26C284434AC006C6BD
:1019EC009C4C22C42A8999E32685AD3F93848404B8
:1019FC008044DC40FD1763D607009C40B9CF84407F
:101A0C00C5BF0317C40039E7C17785072322040635
:101A1C002320040023220400232404005CC4232874
:101A2C000400232A0400232C0400214681451305BD
:101A3C00C405EFE0DFCB232A0402232C0402232469
:101A4C000404232604042285B24022449244024911
:101A5C00410182801304840671BF91454A85C135CA
:101A6C0088C051FDB1472320F9000144E9BF7971C9
:101A7C0022D44AD052CC56CA5AC85EC606D626D2F2
:101A8C004ECE2A8AAE8A130485040149054BFD5BB0
:101A9C0009ECB25022544A8592540259F249624AD6
:101AAC00D24A424BB24B45618280044483294400A4
:101ABC00FD1963D409000040E1BF83D7C400637BE8
:101ACC00FB008397E40063877701A6855285829A91
:101ADC003369A90093848406E1BF1971A6DAAE8438
:101AEC008395E500A2DC86DE328463DC050083D7B7
:101AFC00C40023A0060093F707089DE3930700405A
:101B0C0015A0300836C68D2EB246E34205FE72474C
:101B1C00BD67F98F7977BA9793B717009CC2F9BF55
:101B2C00930700041CC0F6506654D6540145096155
:101B3C00828083D7C500011122CC06CE26CA4AC8A2
:101B4C00898B2E8489CF930774041CC01CC88547CD
:101B5C005CC8F2406244D244424905618280740000
:101B6C003000AA849D3FA2452A892685192201EDC1
:101B7C008317C40013F7072069FFF19B93E7270035
:101B8C002316F400C9B7970700009387E7D89CD4B5
:101B9C008357C40008C008C893E707082316F4004D
:101BAC00A2475CC8B24789CF8315E4002685D52CA3
:101BBC0001C98357C400F19B93E717002316F40067
:101BCC008357C4003369F9002316240159B7CDC1DA
:101BDC0083A7C5FF411122C406C626C21384C5FFC4
:101BEC0063D307003E94AA843926938741839C4390
:101BFC0099EB2322040023AA81822244B240268539
:101C0C0092444101D5AC637EF40014403307D400F8
:101C1C006396E7009843DC43369718C05CC0E1BF7D
:101C2C00BA87D84319C3E37DE4FE94433386D700C7
:101C3C00631F86001040B29694C33386D700E31E10
:101C4C00C7FA10435843B29694C3D8C37DB7637593
:101C5C00C400B1479CC055B71040B306C40063160E
:101C6C00D70014435843B29614C058C0C0C371B7C0
:101C7C008280011126CA93843500F19806CE22CCBD
:101C8C004AC84EC6A104B14763F1F404B14463E001
:101C9C00B4042A898D249387418398433A8431E094
:101CAC00938781839C4391E781454A85512823ACD6
:101CBC00A182A6854A856920FD5963173507B1476E
:101CCC002320F9004A850D2C29A0E3D204FCB1474E
:101CDC001CC10145F2406244D2444249B2490561FB
:101CEC0082801C40858F63CE0702AD4663F6F600FA
:101CFC001CC03E9404C031A05C406312870223AA2E
:101D0C00F1824A85D52A1305B400930744006199E2
:101D1C003307F54061D33A94898F1CC065BF5CC30F
:101D2C00CDB722874040A5BF130435007198E3035B
:101D3C0085FCB305A4404A852120E31D35FB41B742
:101D4C00411122C42A842E8523A001A806C6112C79
:101D5C00FD576317F500938701A89C4391C31CC0E2
:101D6C00B240224441018280411122C42E848395C9
:101D7C00E50006C65922634905007C48AA977CC831
:101D8C00B2402244410182808357C4007D777D1785
:101D9C00F98F2316F400EDB783D7C500011122CCBF
:101DAC0026CA4AC84EC606CE93F70710AA842E84BC
:101DBC003289B68991C78395E5008946014631225F
:101DCC008357C4007D777D17F98F2316F400831594
:101DDC00E4006244F240CE864A86B24942492685E6
:101DEC00D24405613DA8411122C42E848395E5009F
:101DFC0006C6E128FD570357C400631BF500FD77A9
:101E0C00FD17F98F2316F400B24022444101828061
:101E1C008567D98F2316F40068C8FDB78395E50054
:101E2C0005A8411122C42A842E85B285368623A0AA
:101E3C0001A806C6EFF08FC0FD576317F500938716
:101E4C0001A89C4391C31CC0B24022444101828032
:101E5C00411122C42A842E8523A001A806C6E120A4
:101E6C00FD576317F500938701A89C4391C31CC0D1
:101E7C00B240224441018280411122C42A842E8521
:101E8C00B28523A001A806C66D20FD576317F50087
:101E9C00938701A89C4391C31CC0B24022444101CA
:101EAC008280411122C42A842E8523A001A806C653
:101EBC007920FD576317F500938701A89C4391C3C4
:101ECC001CC0B240224441018280411122C42A84A8
:101EDC002E85B285368623A001A806C6BD20FD57E7
:101EEC006317F500938701A89C4391C31CC0B240B3
:101EFC0022444101828082808280411122C42A8442
:101F0C002E85B285368623A001A806C6A920FD57CA
:101F1C006317F500938701A89C4391C31CC0B24082
:101F2C002244410182809307800523A0F1A87D55AE
:101F3C0082809307800523A0F1A87D5582809307AA
:101F4C00800523A0F1A8014582809307800523A07A
:101F5C00F1A87D5582809307800523A0F1A87D55BB
:101F6C0082809387C1839C4391C73E9523AEA18207
:101F7C003E858280938741A83E9523AEA1823E8503
:101F8C008280000012EDFFFF20EDFFFF00EEFFFF4F
:101F9C0000EEFFFF00EEFFFF00EEFFFF00EEFFFF85
:101FAC00CAECFFFFBEECFFFF04EDFFFF9AF0FFFF52
:101FBC00FCEEFFFFD8EDFFFFC6EFFFFFD8EDFFFFF4
:101FCC00D2EEFFFF16EDFFFFD8EDFFFFDCEEFFFFBB
:101FDC00F2EEFFFF94F0FFFFA2ECFFFF05010906F4
:101FEC00A101050719E029E71500250175019508E0
:101FFC008102950175088101950375010508190188
:10200C00290391029505750191019506750826FF26
:10201C00000507190029918100C000000501090283
:10202C00A1010901A10005091901290315002501C8
:10203C007501950381027505950181010501093032
:10204C00093109381581257F750895038106C0C0B3
:10205C0009023B00020100A0320904000001030147
:10206C000100092111010001223E0007058103082E
:10207C00000A0904010001030102000921100100FA
:10208C00012234000705820304000A00120110012A
:10209C00000000403D41072100000000000100004D
:1020AC000E037700630068002E0063006E000000D2
:1020BC000C03430048003500370078000A06000284
:1020CC00FF00FF40010000004C69676874206F6ED0
:1020DC00204E756D204C6F636B204C4544210000E5
:1020EC004C69676874206F6666204E756D204C6F66
:1020FC00636B204C454421007374617274000000C2
:10210C006CF0FFFF94F0FFFFBCF0FFFFD4F0FFFF7B
:10211C00EEF0FFFF000000000000000000000000D7
:10212C0000000000000000000000000000000000A3
:10213C000000000000000000000000000000000093
:10214C000000000000000000000000000000000083
:10215C000000000000000000000000000000000073
:10216C000000000000000000000000000000000063
:0C217C0000000000040309043C400020A7
:102188000907000000000000000000000000000037
:102198000000000000000000000000000000000037
:1021A8000000000000000000000000000000000027
:1021B8000000000000000000000000000000000017
:1021C80040210000602100002021000000000000E4
:1021D80000000000000000000000000000000000F7
:1021E80000000000000000000000000000000000E7
:1021F80000000000000000000000000000000000D7
:1022080000000000000000000000000000000000C6
:1022180000000000000000000000000000000000B6
:082228003C4000200000000012
:00000001FF
