:040000006F10003548
:1000040000000000000000006F0080086F00E02284
:1000140000000000000000000000000000000000DC
:1000240000000000000000000000000000000000CC
:100034006F004006000000006F00E00500000000B3
:100044006F0080056F0060056F0040056F0020059C
:100054006F0000056F00E0046F00C00400000000A2
:100064006F0060046F0040046F0020046F00000400
:100074006F0060236F00C003000000006F00600386
:100084006F0040036F0020036F0000036F00E00265
:1000940001A001A001A001A001A001A001A001A054
:1000A40001A001A001A001A001A001A001A001A044
:1000B40001A001A001A001A001A001A0B717004068
:1000C400130770052380E704130780FA2380E704ED
:1000D4002396A70223800704371700408347270588
:1000E400898BEDDF835707053717004083472705C2
:1000F400898BEDFF3717004083472705898BEDDF98
:10010400035507058280B7170040930670052380C6
:10011400D704130780FA2380E70403C6B7041376D1
:10012400F60DA385C70423800704137605022DC6A4
:1001340003C6A700118A0DE22380D7042380E704B5
:1001440003C7A700136747002385E7009307004B05
:1001540001000100FD17EDFFB7170040930670057D
:100164002380D704130780FA2380E7047D8923942E
:10017400A70001000100010001002380070423807F
:10018400D7042380E7049306100537270040A30310
:10019400D780238007048280137605046DDE03C6AE
:1001A400A700418A0DE22380D7042380E70403C714
:1001B400A700136707012385E7009307007D01006B
:1001C4000100FD17EDFFB71700409306700523806B
:1001D400D704130780FA7D892380E7041365050497
:1001E4002394A700010001000100010023800704FB
:1001F4002380D7042380E704930630053727004083
:1002040079B74111814601468145114506C6AD22A3
:10021400B7170040130770052380E704130780FA1B
:100224002380E70403C76704136717002383E704E5
:1002340023800704B2404101828081460146814502
:1002440011451D2AB7170040130770052380E704E2
:10025400130780FA2380E7047D572396E70203C738
:100264006704136717002383E7042380070401A0AE
:10027400BD473305F50201007D1575FD82804111EE
:1002840022C426C206C6AA84014463179400B2405D
:10029400224492444101828005041305803E4204B5
:1002A400C13F4180DDB7B71700401307000323881F
:1002B400E702854723ACF1847300203023030480D4
:1002C40015472303E48001002302A480828083076E
:1002D4006480E3CE07FE2303048082808307648066
:1002E400E3CE07FE03454480828083076480E3CE27
:1002F40007FE2302A4808280411126C44AC24EC054
:1003040006C61377F50BAD47AA892E899544630673
:10031400F70019456537653F8D444E854537FD59CE
:10032400FD1463983401B240A24412498249410148
:100334008280135509011375F50F453F2209CDB786
:10034400011126CC06CEB704080051371545BD3738
:10035400713769372AC6A53F32459377150089EB73
:10036400136515001375F50FF240E24405618280B0
:10037400FD14E9FC0145CDBF397126DC4ADA4ED8BB
:1003840052D656D45AD25ED006DE62CE66CCB7E7D9
:1003940000E07D5783AA070022C603AA470023A0D2
:1003A400E71823A2E718B717004013077005238046
:1003B400E704130780FA2380E70483C74704930BF9
:1003C40075FFB684E20793FBFB0F8546AA892E8B43
:1003D400328937240040E187015763FA76016308C4
:1003E400D5008946130700026313D5000157D98F3E
:1003F40093F7F70FB71C00402382FC041147230333
:10040400E4801305F00F5D3D094CD13563697C111F
:10041400B70707003E9B378707007955637EEB02D9
:10042400B3079B00636AF702A9476399F90689E455
:100434008144713D26850DA0DA850945753D050980
:100444000345F9FFFD14050B4D3581C49377FB0F6C
:10045400FDF7FD3569FD7D55B7170040130770059D
:100464002380E704130780FA2380E70403C74704C3
:10047400418B2382E704F250B7E700E023A0571131
:1004840023A24711E25432445259C259325AA25A51
:10049400125B825B724CE24C21618280A5476395BA
:1004A400F90685691309F00FB3069900B3742B019B
:1004B400B6941349F9FFB3749900856B33796901D4
:1004C400416B9387F9FFB3F7270199E363FC340188
:1004D40093D94900C147E3E637FF99BF0569C1696C
:1004E4007D19D9B71305800D6388690113050002CE
:1004F4006384790113051008CA85FD3B913521DD1C
:100504004E99B3843441D9B7DA852D45F533CA946D
:10051400E30099F20509D933A30FA9FED5BF938748
:10052400F9FF93F7F70F636CFC0803C75C04B70784
:1005340008001377070219E3B78707007955E37DAD
:10054400FBF033079B00E3E9E7F089476390F90484
:100554008980D549E38E04ECDA850945713B11099C
:100564000327C9FF91472320E48003076480E34EF7
:1005740007FE23033481FD17EDFBFD14110B81C429
:100584009377FB0FE9FF6D3B71F5F1B58547E38781
:10059400F9F4DA852D458D339389F4FFE38A04E871
:1005A400353B93F7390091EB832604800327090038
:1005B40093074900E39FE6E63E89CE84F1BFB54741
:1005C4006396F9001305900BD5399DB5B147130512
:1005D400B00AE38BF9FE9947639EF902DA852D454B
:1005E400213B81448D4BA149D539639674018327FE
:1005F40004802320F9008504E39834FF83270480D2
:1006040013172B01635507002312F90015B5232294
:10061400F90039BD9D476399F90281451305B0047A
:10062400E139BD442320090023220900FD597D310D
:1006340093F77400CA9703C70700FD14398D23800C
:10064400A700E39634FFEDB3A1476392F904CD39D3
:100654008144630D0B008D479304C0036308FB00C2
:100664009304000563048B01930440041375C507C8
:10067400E30095DC19459931993905458131268581
:10068400AD3109459D316D39E31405DAE9B391477C
:100694006399F9001305600615311539130590099E
:1006A40025B7E38709D8F15469B37D1662066186DC
:1006B40093178601E18763D407000145828093176D
:1006C40026003307F500AE9718439C4363E7E70021
:1006D4007D16E37FF7FC7D55828005458280814746
:1006E4001397870161876343B700828013972700BC
:1006F4002A97232007008507E5B78147014793968A
:100704008701E18663C5B60013351700828093968E
:100714002700AA9694428507558FD5B793D755409D
:100724008A07AA979C4305453315B5007D8D8280C1
:10073400FD15E2052A87E18593968501E18693F705
:10074400F50F63C80600FD1593962500BA96D442AA
:10075400E5D68507E207E187014591CF1395270088
:100764002A978326C7FF014781EA1385F7FF1605F9
:100774003A9542054185828085820507F5B7814710
:100784001397870161876343C7008280139727000B
:10079400B386E50094422A97850714C3D5B77D161E
:1007A40062066186014793178601E18763D50700D6
:1007B40013351700828093172600B306F500AE9711
:1007C40094429C437D16B58F5D8FF1BF8A05AA952F
:1007D40001476363B500828083A6C5FFF11593D7F3
:1007E4001600D98F9CC11397F601E5B72A830148F7
:1007F400014701456343D7008280B387050183A87D
:100804000700B30706019C43C697AA976384F800C0
:1008140033B517010507B3080301620723A0F800E5
:1008240061871108C1BF2A8301478147014563C31A
:10083400D70082803388E50083280800330EE60061
:10084400032E0E003388A8403308C841638408018E
:1008540033B508018507B308E300E20723A00801C4
:10086400E1871107E9B7797126D2B286B2842E8660
:10087400AA850A8506D622D47D372A84A6850A85C8
:10088400AD3D33348000060413351500018DB2509C
:100894002254925445618280411122C626C40143E8
:1008A400014F81471314830161846347D402939FEA
:1008B4001600FD1F854E9382F6FFF15333875E00C9
:1008C400620761876348F70732448E06AA9623AE0F
:1008D400F6FEA24441018280131E2300B302C60126
:1008E400814E814F13972E002E9703A802001843C0
:1008F400B3030703333707039E97B3B8770033086E
:10090400E701469885486367E8006314070163E3D9
:1009140077008148850E13978E016187C69F428FA9
:10092400F112E351E4FC2A9E2320FE000503C28752
:100934007E8F8DBF13948E01FA88618493142700EF
:10094400014F1318840113588841634AD8000A07D9
:100954002A97850E1CC393FEFE0FC68785B73308FE
:100964007402131324002E93032303002698329851
:1009740003280800330E680233386802F29733B351
:10098400C701C2989A98054363E7080163141801E4
:1009940063E3C70101431A9F050465B719CDB7176F
:1009A4000040130770052380E704130780FA2380AF
:1009B400E7042396A70223800704828019C1814794
:1009C40099E982803387F500834607003307F500F1
:1009D40085072300D700E397C7FEE5B719C1FD5784
:1009E40081E98280910503A7C5FF1105232EE5FE49
:1009F4007D16E319F6FEF5B7797122D41734000099
:100A0400130444021C4006D626D24AD04ECE91C7C7
:100A140082979737000023A707005C4089CB03D552
:100A24004194AD3F5C40829703D56194853F1C405F
:100A3400639C07189737000083C7D702858B95C737
:100A440097370000A3800702173700000347B70158
:100A5400914763FCE70051219737000083C7B70033
:100A6400F9178A07A2979C4382979737000083C798
:100A74002704918B89C7975001E0E78000801C44CC
:100A840091C38297938701949843173600000346D5
:100A940076F73E89973400009384C4F697370000B4
:100AA40083C747F693961700BA9683D606006383E6
:100AB40006109737000083C7E7F463FBC706860771
:100AC4003E97835507002310070003D541942EC693
:100AD400F135938741959C4317350000034585F212
:100AE40013172500BA979C43B2458297AA8903D568
:100AF40061946D359737000083C7C7F013971700CB
:100B040083270900BA9703D70700B3E9E9002390C4
:100B1400370183C70400850793F7F70F17370000E1
:100B24002302F7EE173700000347D7ED63E6E7002B
:100B340097370000238807EC1C40D9E79387C194BA
:100B440098433E8451C39737000083C717F291CB73
:100B54009737000083C737F189E7974001E0E780C2
:100B6400603B1C4082972A8425C19C48AA9717376A
:100B740000002321F7EA938701959C43B1C703D56D
:100B84004194293D2285973001E0E780E0B697370C
:100B94000000938767E3DC5389C7973001E0E7805F
:100BA400C0932254B25092540259F24903D561942D
:100BB4004561EDB3850793F7F70F9736000023835C
:100BC400F6E4E3EDC7ECF5B5B25022549254025961
:100BD400F249456182809167B7C6004093873730F8
:100BE40023A6F6200F10000097370000938787E1B3
:100BF400884F938781999C43316713073730F053AB
:100C0400B7071000FD17918F99833A0523A6E620B4
:100C14005D8D82804111B7170040985F3AC6945F9A
:100C24003247E39CE6FE324541018280411106C60B
:100C3400D5379736000083C666DA858AB1C693072E
:100C440030333307F502B337F5023983CA07D98F36
:100C540017370000130707DB584B01456303F702FE
:100C64003385E740636BF70037653D0889C63785F0
:100C74006F0813050590198D3E9517370000232D35
:100C8400F7D8B24041018280E5473307F502B33714
:100C9400F5022583DE0765BF5D7122DE138481982A
:100CA4003AD218403ED04ACA1C5F86C696C499837D
:100CB4009AC29EC026DC2ADA2ED832D636D442CE48
:100CC40046CC72C876C67AC47EC2858B1389419895
:100CD400C1C31C5F97340000938484D893F7F7F959
:100CE4001CDF9737000083C7A7D793F707048DC38A
:100CF400938781959C4382979737000023AAA7D6B0
:100D040083C7040093F7F70B17370000230AF7D4BF
:100D1400854717370000A307F7D483C7440093F728
:100D2400070481EF938781999C43D844B8D39307F0
:100D340000FC173700002307F7D28387640063D9C8
:100D44000700832709009C4317370000230DF7D0C1
:100D540018401C5F8583858BC9CBF5571CDF0100C8
:100D64000100010001000100010001000100010077
:100D74000100010001000100010001000100010067
:100D84000100010001000100010001000100010057
:100D94000100010001000100010001000100010047
:100DA4000100010001000100010001000100010037
:100DB4000100010001000100010001000100010027
:100DC4000100010001000100010001000100010017
:100DD40001000100010001000100010001009387EE
:100DE40081999C4313075004B8CB18401C5F91832E
:100DF400858B89CFBD571CDF938781999C4323A89A
:100E04000704854717370000230EF7C4832709001A
:100E1400D8430583058B19C7D843759BD8C3D843DA
:100E2400799BD8C37254B640A64216438643E25413
:100E34005255C2553256A256125782577248E2484A
:100E44005249424EB24E224F924F6161730020309C
:100E540093878199944317370000130767C0BC52E6
:100E640089CF83472700858B89EB83473700858BA0
:100E7400FDD797370000238707BE82809387419967
:100E84009C4399CB944BD04B9842518F98C2944336
:100E94009C479842D98F9CC2938781999C4337C7BA
:100EA40000401306C003A8CB930620039735000027
:100EB400938505BB83278720C18393F7F703636971
:100EC400F60083278720C18393F7F70363E6F600D0
:100ED40083C74500858BF9DF82809387819994438A
:100EE400173700001307C7B7BC5289CB83470700E5
:100EF400858B91CB97370000238607B69737000080
:100F0400A38207B6828083471700858BF1DFDDB7A4
:100F1400938741999C4399CB944BD04B9842518FE2
:100F240098C294439C479842D98F9CC293878199D5
:100F3400944337C70040C145A8CA65468327872024
:100F4400C18393F7F70363FBF50083278720C183ED
:100F540093F7F7036364F600BC52EDF382801387C2
:100F640081981843AA87185F1583058B25EF0345DD
:100F7400150015051377C51F19C6B386E70083C688
:100F840026002300D60095C59736000083C6A6AD7B
:100F940093F606040945A1CAB386E70083C6360062
:100FA400054693F5F6066390C504E206E18663CC34
:100FB40006023385E7008347150003470500A207AF
:100FC40093F70770D98F13970701418393760740EE
:100FD40099C6136707802398E19801458280239876
:100FE400F198E5BF05458280011136C89386819941
:100FF4002ECC8C423AC63EC498452ACE32CA9317A8
:10100400070142C2C1831378172036853E8697367E
:1010140000009386E6A4630408041377072061CFD5
:1010240003C726001367170017380000230BE8A234
:1010340013070019B8D1130700F89735000023836C
:10104400E5A2138781980C4337080010D855719B8B
:1010540013672700D8D598413367070198C11377E0
:10106400261005C31376061045CA03C70600136786
:101074001700173600002305E69E173700002315D6
:10108400079E83C6460093C7F7FFC207E206E186C0
:10109400C183184163D106029396170163D70608EA
:1010A40030538D4663E9C600854617360000230B8E
:1010B400D69A3453FDFE973600009386E6908386D5
:1010C400460163DD060093960701C18663D50606D3
:1010D4007053894663E4C6007453FDFE1447724599
:1010E400E245F58F1CC75246C2463247A247124812
:1010F40005617300203003C7160013671700973586
:101104000000A38FE59417370000230D07941737C9
:101114000000231B0794A1B703C736001367170009
:1011240017360000A30FE69289BF854617360000E4
:10113400230AD69249B7544713960601635106020F
:10114400B7061000FD1674D3973600009386868B7D
:10115400944E8506173600002322D68C41B7A1662B
:10116400D58FADBF17370000130747918346B701EA
:101174009737000083C7D793B69793F7F70FFD46C9
:1011840063EAF6044C4B97360000A389F68E973732
:10119400000083C7B78E05473317F7009736000062
:1011A400A388F6906D8F1DEF9736000083C6969046
:1011B400B3F6D70213050002814733D6F500058A3A
:1011C40013F8F70F09CE6399E60097370000A38759
:1011D400078B828081177DB705071377F70F850783
:1011E400E39DA7FC82809387019A9843B757020036
:1011F4009387079F832607091396560063580600B2
:10120400832607091396660063440600FD17FDF361
:10121400828051C9AA870145C9C98D07C207C18304
:10122400F19BC207C18313074003636BF702138763
:10123400419B08431387C19A14436396A602172758
:10124400000013076778185B014525C34111C207E5
:1012540006C60545DD8D0297B240014541018280F5
:101264001387019BF9B70357650005EF0357450042
:101274006369F702B306F74021466370D602104152
:10128400938687001D8FAA96611790C22392E60069
:101294002393060014C12312F5002313B50021057E
:1012A4008280084159BF01458280828001CD9387A5
:1012B400419B03A807009387C19A8C430147C287C7
:1012C40063E3B70082809443636FF50663EDA6067B
:1012D40013868700E368C5FE03D56700216605060B
:1012E4006317C50003C631970506A389C1962393E6
:1012F4000700638407031386019B1042630FF60003
:101304000356670019EA83D7470014C3835647007E
:10131400B697A1072312F700BA879843E304B7FAF4
:101324009386019B9442E30FD7F883566700D9FA5A
:1013340083D64700035647001843A106B29623926A
:0C134400D70098C382803E87B6879DBF0B
:10135000974100209381013917710020130181CA40
:1013600013054000972500209385C54917360020B6
:101370001306067E63FAC5008322050023A05500EC
:1013800011059105E3EAC5FE17D501001305C5F166
:10139000973500209385057C1386418463FAC50048
:1013A0008322050023A0550011059105E3EAC5FE3F
:1013B0001385818497650020938505FB6377B500CD
:1013C000232005001105E36DB5FE9302800873A08C
:1013D0000230972200209382E24293E2120073903F
:1013E0005230971200009382825773901234730028
:1013F00020303D432A876373C3029377F700BDEF24
:10140000ADE5937606FF3D8ABA960CC34CC30CC774
:101410004CC74107E36BD7FE11E28280B306C3409D
:101420008A069702000096966780A6002307B700F9
:10143000A306B7002306B700A305B7002305B7002E
:10144000A304B7002304B700A303B7002303B70026
:10145000A302B7002302B700A301B7002301B7001E
:10146000A300B7002300B700828093F5F50F939691
:101470008500D58D93960501D58D61B7939627008C
:101480009702000096968682E78086FA9680C117BA
:101490001D8F3E96E374C3F8A5B73367B500FD53BF
:1014A0000D8B79E7B7877F7F9387F7F710419441DA
:1014B000B372F6003363F600BE92B3E26200639744
:1014C000720C6318D6065041D441B372F6003363F0
:1014D000F600BE92B3E262006398720A631BD60400
:1014E00010459445B372F6003363F600BE92B3E242
:1014F00062006391720A631ED6025045D445B372EE
:10150000F6003363F600BE92B3E26200639A72089B
:101510006311D60210499449B372F6003363F600A2
:10152000BE92B3E26200639372085105D105E30FE6
:10153000D6F61317060193970601631CF70013579D
:10154000060193D706013305F7409375F50F91E92E
:1015500082804183C1833305F7409375F50F91E194
:1015600082801377F70F93F7F70F3305F7408280E8
:101570000346050083C60500050585056313D600EF
:1015800065FA3305D640828011059105E312D6FE37
:10159000014582802105A105E31CD6FC014582801E
:1015A0003105B105E316D6FC014582804105C10530
:1015B000E310D6FC01458280B717004003C77705CA
:1015C0001377E70FA38BE704130700F8A38DE70455
:1015D0003D47238CE70413077003A38CE704828044
:1015E000B717004003D587005D714EDE420541818B
:1015F00086C6A2C4A6C2CAC052DC56DA5AD85ED683
:1016000062D466D26AD06ECE9377050C13070008B9
:1016100081496386E71813070004639AE714B72427
:101620000D8F7D8993840480B3D4A402916793873E
:1016300007E8BE94A167938707D0B3D4F402EF9074
:10164000B17A97C701009387E7A29043D443EF9004
:10165000712EEFA0E13BAA8B939C040103D98184F6
:1016600093DC0C0163150900056913090980B7179C
:101670000040130770052380E704130780FA2380D6
:10168000E704B71A00400547939D0401096C2389BC
:10169000E704514B01438145138D0A04130670057D
:1016A000930680FA094893DD0D01130C0C71A948CB
:1016B0002300CD002300DD0023962A0323000D0024
:1016C00083C72A05898BEDDF83D70A0583C72A05DF
:1016D000898BEDFF83C72A05898BEDDF83D70A0548
:1016E00023942185C207C18333859741131A0501CD
:1016F000135A0A41630B0A143307BA02635E070CDC
:1017000005034203135303016368680C63D9050A98
:101710003305B04093150501C185C204C18063D76C
:10172000450B0965130505713385A502B717004000
:10173000130770052380E704130780FA2380E7046A
:1017400023963703238007043345950242054181E0
:10175000B640264496440649F259625AD25A425B30
:10176000B25B225C925C025DF24D61618280B1E30A
:10177000B77489097D8993840480B3C4A4029167F6
:10178000938707E8BE94A167938707D0B3C4F40298
:10179000EF90916597C701009387478E7DB597C7F6
:1017A00001009387E78C856483AB070093848438BA
:1017B00065B5930B0000954445B53A89D5BDB3870F
:1017C000FC40139A0701135A0A4181BF09651305AA
:1017D00005713305AA028DBF3385B74163E4FC0070
:1017E0003385FD40330585033344B50363C5880065
:1017F00013150401A9BF528532C636C4EFA0E11407
:10180000DE85EF907165EFA0210E131305011353D0
:1018100003413307694042074183A24632460948E3
:10182000A948631AE900130719006344400113072C
:10183000F9FF420741837D1B137BFB0FCA89D285C9
:10184000E31D0BF62394E18465B7014511B7B71783
:10185000004003D5870039715ECE4205418106DE26
:1018600022DC26DA4AD84ED652D456D25AD062CC8E
:1018700066CA6AC86EC69377050C13070008814BC9
:101880006388E71413070004639CE710B7240D8FE7
:101890007D8993840480B3D4A4029167938707E879
:1018A000BE94A167938707D0B3D4F402EF90D153CD
:1018B00097B701009387077C9043D443EF9091073B
:1018C000EFA00115AA89939A040103D9A18493DAA0
:1018D0000A0163150900056913090980B71700405B
:1018E000130770052380E704130780FA2380E704B9
:1018F000139B04010547096A2389E704D14D014D73
:10190000814C135B0B01130A0A714A859720002052
:10191000E78000FB330C5541420C135C0C412395CE
:101920002185630A0C14B3079C0363D0070E050DD1
:10193000420D135D0D01894763E9A70D63DA0C0AB7
:1019400033059041931C050193DC0C41C204C18016
:1019500063D78C0B0965130505713385AC02B71786
:101960000040130770052380E704130780FA2380E3
:10197000E704239677032380070433459502420545
:101980004181F2506254D2544259B259225A925A69
:10199000025BF24B624CD24C424DB24D21618280CF
:1019A000B1E3B77489097D8993840480B3C4A40228
:1019B0009167938707E8BE94A167938707D0B3C464
:1019C000F402EF90714297B701009387276BEDB552
:1019D00097B701009387C769856483A9070093843B
:1019E0008438D5B5930900009544F1BD3E8931BFD7
:1019F0003385AA40131C0501135C0C4181BF0965A6
:101A0000130505713305AC028DBF63FEAA003305D3
:101A1000654133054503A9473344650363C887001F
:101A200013150401B1BF3305AB40E5B76285EF90F4
:101A3000D171CE85EF905142EF90116B131D0501CE
:101A4000135D0D41B307A941C207C183631AF900B1
:101A500093071900634480019307F9FFC207C1830C
:101A60001387FDFF937DF70FCA8BE28CE3900DF88F
:101A70002395F18475B7014529B741112A83014E99
:101A8000930E407E130F0019930F400663EB6E0A0E
:101A90009308001913034006B3781503854E0D4FC4
:101AA000A14F337365020D891335150063E5BE0C34
:101AB0001308F6FF79467298420813580801330755
:101AC000C70213D61700BE0732976146B3F6C602A7
:101AD00013068070B386C6023697A166F58F42075B
:101AE0005D8FB717004083C6F70293F60608A30779
:101AF000D1000346F10083C6F70293F60608E3948B
:101B0000C6FE8346F10093F6F60FF1DE93067005EC
:101B10002380D704930680FA2380D70423AA0703DF
:101B200083C6170393E60608A388D702D8DB03C74A
:101B3000170313670704A388E70223800704410102
:101B400082807D133368E3039308E016630E080078
:101B50003368F3039308D0166308080093783300C2
:101B600093B818009388D81633081E01131E080175
:101B7000135E0E0121BF6393E503054863860800E9
:101B80000148630303002A8871087298FD15131E2B
:101B90000801C205135E0E01C18109BF13F81500CB
:101BA00063F4BF007908D5B713381800E5BF914733
:101BB00063EEB70217B701001307C74C8A05BA9541
:101BC0009C41BA978287B717004003A7470B13457C
:101BD000F5FF698F23AAE70A03A7070B698F23A8DC
:101BE000E70A03A7070A798D23A0A70A8280B717FF
:101BF000004083A6470B1347F5FFF98E23AAD70AA7
:101C000083A6070B558D23A8A70A83A6070A758FFD
:101C100023A0E70A8280B717004003A7470B498F2C
:101C200023AAE70A03A7070B1345F5FF45BFB7171C
:101C3000004083A6470B1347F5FF758F23AAE70AD9
:101C400003A7070A598D4DB7B717004003A7470BE5
:101C5000498FEDB7B717004003D587004205418192
:101C60009377050491EB9377F5013755E801130558
:101C700005803345F50282809377050C1307000435
:101C80006397E7009377F50137459C1CCDB7216535
:101C9000130505D08280B7F700E0C8439C478280D7
:101CA000814737370040A14663C4C7003285828030
:101CB0000345B740E38EA6FE3385F50003450500D6
:101CC00085072304A740CDB7411122C406C62A8444
:101CD00051372947B307E502B2408D83B3D7870256
:101CE00022449507B3D7E70237370040C207C183C4
:101CF0002316F740410182807165411113050520CB
:101D000006C6D937B7370040130770F82381E7407C
:101D10000D47A381E74013070004A380E740054770
:101D20002387E740B240410182802386018423A8B3
:101D30000184B717004003A7070CB706C0FFFD16C4
:101D4000758F23A0E70C03A7070DB7064000558F3A
:101D500023A8E70C03A7070C3D9B23A0E70C03A7D0
:101D6000070D1367070123A8E70C828023A8A1842D
:101D700013064006894503C541856F508125B71775
:101D8000004003A5470C83A7470C59811345150054
:101D9000C18B058999E31365250083C7C184638CD2
:101DA000A7002386A18401C99387018503A30700A7
:101DB0006303030002838280411106C6EFF05F8255
:101DC000BD4763F4A700EFF0BF815134BD4763F313
:101DD000A700B53CB24083D5A18403D581844101DD
:101DE0006F50C12C411193962500AA852D4506C63A
:101DF00097200020E78080D8B240014541018280D1
:101E0000411122C426C24AC02A842E89B284AA85DE
:101E1000930600200146254506C697200020E7804E
:101E2000E0D5931629002686A28529459720002013
:101E3000E780C0D4B24022449244024901454101A6
:101E40008280011122CC06CE3714004026CA4AC82F
:101E50004EC652C483447405034AB40583498405BD
:101E600003499405EFF04FF58347A40593F4F40F6D
:101E7000137AFA0F93E71700230DF40493F9F90F7F
:101E80001379F90FB717004003C7A705058B6DFF3E
:101E900003D5C705A38D4705238C3705A38C2705DC
:101EA000A38B9704F2406244D2444249B249224A89
:101EB0000561828041119397050122C406C6C1873E
:101EC0002E8463DA0700EF40314519C1EF40313EFF
:101ED0002165218D1DA093F7150013C5150091EF05
:101EE00093F7250099CF613D1306000A894503C584
:101EF0004185EF50010E13452400B24022444101B8
:101F000082809397250163D00702EF60D1116D3570
:101F100037F60200130606E0896503C54185EF50D8
:101F2000410B09657DB7939715010145E3D707FC80
:101F300017B501001305C51AEF90916D13060064E3
:101F4000916503C54185EF50C108116559B71D71F1
:101F5000494697B501009385251417C5010013055F
:101F6000E50686CEA2CCEF40B16F01E917B50100BE
:101F70001305C513EF90D16901A037F700E0F957B9
:101F80005CC7FD571CCB0564B7E700E023A08710B2
:101F90009306701014C3B843C146B4C323A0871876
:101FA000B8C3010001001306C00381454808EF4093
:101FB000116A974700209387A7D83ECAED47A3012F
:101FC000F1029307A0102312F102D1472303F1027B
:101FD000A167938707E03ECE970700009387C7E08D
:101FE000BEC4970700009387E7E1BEC68547230478
:101FF000F102B5472308F102970700009387E7C96C
:102000003EDAB7F50700970700009387C7E33EDE87
:10201000814697070000938767DA7000E10519454C
:10202000BEC0231C810097200020E78020B55808FF
:102030008147994670003E960346060085070507CE
:10204000A30AC700E398D7FED24791C7035781017F
:1020500085676373F70001A04808EF506118AA85EF
:1020600001C917B501001305A505EF90314601A080
:10207000F640664425618280411117050000130572
:10208000A5E306C622C4EF50211213844185230024
:10209000A40031285939034504002244B24037F6E0
:1020A0000200130606E0896541016F4091724111FB
:1020B00006C6B7170040130770052380E70413070F
:1020C00080FA2380E70403C7F7021377A70FA387DB
:1020D000E70203C7F70213672700A387E702E9397E
:1020E0001305407E8147014781460546854571328B
:1020F000B240014541016F502130411197B50100B7
:102100009385C50117B501001305051506C6EF90A7
:10211000F13B17B5010013052515EF90313BB24097
:10212000294541016F90913E411197B5010093857A
:10213000250017B501001305251206C6EF901139C9
:1021400017B5010013050510EF905138B24029452D
:1021500041016F90B13B411122C406C6834705007F
:102160002A849DC397B501009385050117B5010029
:102170001305850EEF9091354C4017B501001305FE
:10218000651AEF90B1341DA058411DE797B50100C5
:10219000938585FE17B501001305050CEF901133EB
:1021A00017B5010013058519EF9051322244B24052
:1021B000294541016F909135A1679386D70363113B
:1021C000D70297B50100938525FB17B501001305CC
:1021D000A508EF90B12F17B5010013052517E9B732
:1021E000ED0797B50100938525F917B50100130593
:1021F000A5066319F700EF90712D17B501001305BF
:1022000025165DB7EF90912C4C4017B501001305D2
:10221000251785BF011122CC2EC62A8497B501004F
:102220009385C5F317B501001305050306CEEF909E
:10223000F1293246A28517B5010013052520EF903C
:10224000F1286244F240294505616F90312C41111B
:1022500097B50100938505EF17B501001305C5FF7C
:1022600006C6EF90B126B240294541016F90112A70
:10227000797122D426D24AD02E842A89B28481450B
:102280007146480006D6EFF0CF9697370020938727
:10229000279FDC4783D70700231421012313F10074
:1022A000EF00F02E8547A305F100930700192305E1
:1022B000A1003EC62686FD57A2854800230AF100EC
:1022C000EF00502FB250225492540259456182803F
:1022D000411122C406C6834705002A849DC397B5D1
:1022E00001009385A5EB17B501001305E5F6EF9006
:1022F000F11D4C4017B5010013058515EF90111D18
:1023000071A85841B707CF009387777D631AF71AF2
:1023100097B50100938585E817B501001305C5F34E
:10232000EF90D11A1C448356E4008355C40003C6C1
:10233000070017B5010013052513EF903119294542
:10234000EF90D11C0356C4000C441385415C9720C8
:102350000020E780E0E683C7415C1307200A638A18
:10236000E7001307300A6380E712B24022444101BC
:1023700082800357C4008D4797B50100938505E21D
:1023800017B50100130545ED6300F702EF90111436
:1023900017B501001305450FEF9051132244B240C9
:1023A000294541016F909116EF90511217B5010028
:1023B0001305050FEF9091112945EF903115035545
:1023C000E400930720F805469385415C2382F15C85
:1023D00045359377F50F2A8495C797B50100938506
:1023E000E5DB17B50100130525E7EF90310E937576
:1023F000F40F17B501001305650EEF90310D294557
:10240000EF90D11097B50100938545D917B501001C
:10241000130585E4EF90910B17B501001305450DE9
:10242000EF90D10A2945EF90710E4165930730FA7C
:1024300005469385415C7D152382F15C153D9377BC
:10244000F50F2A8495C797B50100938525D517B553
:102450000100130565E0EF9071079375F40F17B550
:1024600001001305A507EF9071062945EF90110AA9
:102470000566130606C889452244B24003C5C185D6
:1024800041016F4011350357C40085476301F702CE
:1024900097B50100938585D017B501001305C5DBFD
:1024A000EF90D10217B501001305C507F5B58357A5
:1024B000E4000566130606C82393F18691456DBFB7
:1024C000B707CC009387777D631AF70297B50100B1
:1024D0009385C5CC17B50100130505D8EF90017F92
:1024E0001C448356E4008355C40003C6070017B597
:1024F0000100130565F7EF90617D4DB5B707CE007C
:102500009387777DE303F7E697B50100938505C9C7
:1025100017B50100130545D4EF90417B4C4017B52A
:1025200001001305E5E5D9BB011122CC97B50100E7
:102530009385C5C82A8417B501001305E5D106CED9
:10254000EF90C178A28517B501001305E51BEF9048
:10255000E1772945EF90817B938701839843DC43A2
:1025600021462C0005453EC63AC419339377F50F32
:102570009DC72A8497B50100938545C417B501000E
:10258000130585CDEF9081749375F40F17B5010095
:10259000130505E9EF9081732945EF902177F2400B
:1025A000624405618280411106C6EFA0700F19E5F3
:1025B000EF10D043B24041016F20A077B2404101FB
:1025C0008280411197B50100938545BA17B5010086
:1025D000130585C806C6EF90616F2945EF9001731A
:1025E000B2404101C9B785CD411122C417B50100E0
:1025F000130585C62E8497B50100938565B506C67B
:10260000EF90C16CA28517B50100130565E2EF904C
:10261000E16B2244B240294541016F90216F8280D5
:10262000411126C206C622C48547AA84639AF502D0
:1026300097B50100938585B517B501001305C5C190
:10264000EF90C168A68517B501001305E5D4EF909A
:10265000E1672244B2409244294541016F90016BE9
:102660002E84894797B50100938545B217B50100BF
:10267000130585BE631AF400EF904165A68517B572
:102680000100130565D4E1B7EF904164A28517B549
:102690000100130565D665BF411122C406C693F734
:1026A00015002E8499CF056613060696854503C549
:1026B000C185EF40111213451400B240224441017C
:1026C000828093F725008DCB97B501009385C5B027
:1026D00017B50100130545B8EF90415F17B501002C
:1026E000130545A0EF90815E2945EF902162EF2010
:1026F000A00213452400D1B793F745000145D5DF6B
:10270000854503D56186EF00611F97B5010093856C
:10271000A5AC17B50100130525B4EF90215B17B5E3
:1027200001001305659DEF90615A2945EF90015E08
:102730001345440059B70111354697B501009385FB
:10274000E5B317B501001305E50506CE22CCEF4031
:10275000217101E917B5010013054595EF90416B13
:1027600001A097370020938727943EC485679387FD
:1027700007C0970500009385E5EA1795000013054B
:10278000A5843EC6EF807003B7F507008146138627
:102790000186E105194597100020E780203E194683
:1027A000938501861385415E97200020E78040A134
:1027B00034001386018697B501009385E5D917B5D6
:1027C00001001305E5DAEF1010452A840DC997B50D
:1027D00001009385659F17B501001305E5A7EF90EC
:1027E000E14EA28517B50100130545AAEF90014EF1
:1027F0002945EF90A151F240624405618280EF903B
:10280000C03317B501001305659EEF00B05EEF40C1
:10281000705CEF00A1381725002013052544EF0058
:10282000E12617B501001305659DEF0061382A8484
:10283000EF10A043EFB03017EF20E179EF206057A1
:10284000EF105022EFE0602497B501009385C59703
:1028500017B50100130545A009C8EF902147A285CF
:1028600017B501001305C5A451B7EF90214617B560
:102870000100130525A6EF9061452945EF90014918
:10288000EFE00009EFA0C06129C597B5010093856D
:10289000A59317B501001305259CEF90214317B5AB
:1028A00001001305A5A4EF9061422945EF90014670
:1028B00097B501009385459117B501001305C5999A
:1028C000EF90C14017B50100130585A4EF900140BA
:1028D00005B7D139F1BF411117050000130505DC1B
:1028E00006C622C4EF40510C1384C1852300A40006
:1028F0009935EFF08FC317050000130525C3EFF0DE
:10290000EFC6034504002244B24013060064854527
:1029100041016F40016C0111354697B50100938567
:10292000E59517B501001305E5E706CEEF404153E5
:1029300001E917B501001305A5C0EF90614D01A095
:10294000EF60317A2AC6EF20B12CEF20B10BEF7087
:10295000203EF2403245056182804111130580041A
:1029600006C697100020E78040FA371700408327FB
:10297000870A8D451305002093E707202324F70AD3
:10298000EFF0EFA2EFF04FB717B5010013050564A4
:10299000EF90014817B501001305C5E0EF904147DE
:1029A000EFF0EFDAEFF04FEDBD373537972000202D
:1029B000E780C084E5BF014582804111B2862E8642
:1029C000AA852D4506C697100020E780201BB2403F
:1029D000014541018280AE860146AA85254517132F
:1029E00000206700A3199307000463E6C7021D7166
:1029F000A2CC2A84080886CE32C6EF90C121B24606
:102A00001008A285294597100020E7802017F6407E
:102A10006644256182803955828093878186184279
:102A20009C4383D645000345070083C5C700035672
:102A300046006396A50083D5E700638DD50201119A
:102A400006CE2386A7002397D700B705CF00DC4B1F
:102A50009385757D05077D162EC2230001003AC4BB
:102A60002316C1002317D10099C30A858297F2402B
:102A70000561828082806D713C083EC6B707E50023
:102A8000232291103EC8AA843C08328523261110C7
:102A90003ECA23248110232021112E89EF202050AB
:102AA0002A8497B501009385E5B117A501001305A8
:102AB000A57AEF90A121A28517B50100130585C164
:102AC000EF90C1202945EF906124B705CB00938595
:102AD000757D6800EF00902BA2856800EF20C04153
:102AE000014781467000CA852685EF00104D15C547
:102AF0002A8497B501009385E5AC17A5010013055D
:102B0000A575EF90A11CA28517B50100130545BD61
:102B1000EF90C11B2945EF90611F8320C110032452
:102B20008110832441100329011051618280938711
:102B3000818618429C43797122D406D60348070047
:102B400083C807012A8483D645000355460063964F
:102B5000080183D82701638DD80223880701050760
:102B60002399D7003708CC00DC4B1308787D3ACC8A
:102B70001307F5FF42CA23080100231EE100231FAB
:102B8000D10099C7080832C62EC482973246A245A2
:102B90002285D535B2502254456182806D713C0842
:102BA0003EC0B707E5003EC23C083EC423261110D4
:102BB00023248110232291102317010023180100E0
:102BC00023190100231A0100231B0100972700206D
:102BD00083D7070F99E3C167FD172316F1009727E5
:102BE000002083D7070E81EB938781869C439C430B
:102BF000DC4783D70700172400201304640C584CCB
:102C00002317F10083574400484B2318F10005EDCA
:102C100097B50100938505A217A501001305C563AB
:102C2000EF90C10A17B50100130505A2EF90010A44
:102C30002945EF90A10D8320C11003248110832426
:102C40004110516182809727002083C7D70799E7F9
:102C5000EF30F1655C4C23AA0700F1BFFD17972602
:102C60000020A382F60603560701834704014C4760
:102C70000A85230BF100EF204026938781869C4331
:102C80000147814688430A866C00EF001033AA840E
:102C900005C997B501009385E59917A501001305AE
:102CA000A55BEF90A102A68517B501001305859AD3
:102CB000EF90C1012945EF9061055C4CC84B49BFBD
:102CC0009727002083C73700EDDB1044854503C5F7
:102CD000C186EF40013085B75C4D411106C688C3FF
:102CE000170500001305052E23A4F186EF40C14B04
:102CF000B2402386A186014541018280DC4DDC4B38
:102D000099C7904503C5C18691456F40812C82804B
:102D10005C4EDC4BA1C7B9C1411122C417A501000B
:102D2000130585532E8497B501009385E58E06C65D
:102D3000EF80D179A28517B501001305E594EF80E6
:102D4000F1782945EF80917C2244B24003C5C186C9
:102D500013064006914541016F40A1278280411131
:102D600022C4172400201304A4F31C4C06C689C7F0
:102D7000DC4399C34C4882975C4CC84BEF303153CD
:102D80005C4CB240224423AA070041018280138791
:102D9000A180834707009306F00B850793F7F70F91
:102DA00063E7F6002385F1800345070082809307DF
:102DB00000F8CDBF83574500638D070C01114AC849
:102DC000172900201309C9EF52C4032AC90106CEEE
:102DD00022CC03274A0126CA4EC6F15729EB130716
:102DE000D00DFD576365C7042A841305860042058C
:102DF0004181B284AE89EF30514E232AAA000325C7
:102E0000C9015C4995EF97A501009385E57E17A55B
:102E1000010013056544EF80716B17B501001305C0
:102E2000E58EEF80B16A2945EF80516EDD57F240A3
:102E30006244D2444249B249224A3E8505618280B9
:102E400093874400B705CF002319F5009385757D5E
:102E50003105EF00A0730325C901834564003105E6
:102E6000EF2080090325C9012686CE853105EF2094
:102E7000C0067146A2854A85EF80F159504401CAC7
:102E8000854503C5C186EF40C11481474DB739332D
:102E9000EDBFFD573E858280411122C417240020DA
:102EA000130404E25C4C06C6C84BEF3051405C4C46
:102EB0002244B24023AA070003C5C18685454101CB
:102EC0006F40211A411126C2938481869C4006C618
:102ED00022C4BDCFDC43ADCF5CC12300B5002A8442
:102EE00097A501009385856C17A501001305C536CC
:102EF000EF80D15D2945EF8071619C4023A40700DC
:102F000023A2070097270020938787D9DC4FDC4B4B
:102F100099C32955A93597270020938767DADC4F95
:102F2000DC4B91C3953F894503C5C186EF406113D2
:102F3000914503C5C186EF40C1129C4003A34701E0
:102F40006308030022852244B24092444101028377
:102F5000B24022449244410182800111328506CE62
:102F600022CC26CA2E84EF208003AA8497A50100D4
:102F70009385056717A501001305052EEF801155F0
:102F8000030784000356640083554400A68617A5F2
:102F9000010013056571EF8071532945EF801157CA
:102FA0009727002083C727D0639797000145453BAB
:102FB00081450A85013FF2406244D2440561828026
:102FC0006D7123248110232611102322911093F771
:102FD00045002E84638F07103C083EC0B707E5000C
:102FE0003EC23C083EC423170100231801002319E8
:102FF0000100231A0100231B01009727002083D71B
:1030000027CA99E3C167FD172316F100972700200F
:1030100083D727C981EB938781869C439C43DC47F8
:1030200083D7070017270020130787C72317F1004E
:10303000544F835747002318F100DC4A95EF97A5BA
:1030400001009385255E17A501001305E520EF809B
:10305000F14717A501001305255FEF80314729458A
:10306000EF80D14A134544008320C110032481100E
:1030700083244110516182809727002083C7B7C203
:103080002555B5C7FD1717260020A30EF6C003D699
:10309000060183470701CC460A85230BF100EF1098
:1030A000D063938781869C4317270020130747BF6F
:1030B00097B601009386861488430A866C00F52D26
:1030C000AA844DD197A501009385C55517A5010088
:1030D00013058518EF80913FA68517A501001305FC
:1030E0006557EF80B13E2945EF80514226858539ED
:1030F00095BF93F7250099CF414681452808EF30C9
:1031000011552555A93928089305F00F653B13453E
:10311000240099BF93F715000145B9D7EFF01FA818
:103120001345140091B7011122CC2A8408454AC8DE
:103130004EC606CE26CA52C42E89B28909C900C11C
:1031400097150000938525826105EF10717D8144FC
:103150007D5AEF10201863C8A4048144EF10401872
:1031600063CBA404938701879C43DC47B307F940F2
:1031700091872302F400638809048327C900B307F9
:10318000F4409587A302F4001C4CD5CB03A3870021
:103190006307030A22856244F240D2444249B2499D
:1031A000224A056102835C44139714008504BA9790
:1031B0002390470179BF1C48139714008504BA97E0
:1031C0002390070061BF832789000547B307F440B8
:1031D0009587A302F40083570400638EE7028DC332
:1031E00009476384E7040D47E390E7FA97B70100C6
:1031F000938707AA1CCC97B70100938767AA11A8E9
:1032000097A701009387C76E1CCC97A701009387EF
:10321000276F5CC895BF97A701009387675A1CCC9E
:1032200097A701009387C75AEDB797B70100938717
:10323000E7AA1CCC97B70100938747ABD9BFF240F0
:103240006244D2444249B249224A056182809DE1EA
:10325000411122C4004606C6184483479400758372
:103260009D8B6315F700EF00B02A48C4B24022449A
:1032700041018280828079714AD01389350026D23B
:103280004209C16422D44ECE52CC06D6AA8901444A
:10329000F11413590901054A2EC6EF10A003B245D7
:1032A000634BA4000145B250225492540259F24992
:1032B000624A4561828083A7090013171400BA97F8
:1032C00083D707006388B7006394970063742A016B
:1032D0000504D9B70545C1BF797126D24AD04ECE73
:1032E00052CC56CA5AC806D622D45EC6AA892E899E
:1032F000328BB6843A8ABE8AEF90903A61C12685B5
:10330000EF1090398D4763EEA7007D55B2502254DF
:1033100092540259F249624AD24A424BB24B456139
:10332000828083DB4400EF00707F2A84EF1000006E
:103330009307740031443305850263C4A702EF008C
:10334000F07DEF00B07D2A84EF00507E930774007B
:1033500031443305850263C4A704EF00307C1105B6
:1033600019A8EF00B07C330485029307F01713050A
:10337000C017E3D887FC6345750563080B02225428
:10338000B250F249424BB24BD6865286D24A624A7A
:10339000A6854A859254025945616F00714CEF0031
:1033A000F078330585027115F9B783274900138535
:1033B000C90083D52700C13579F181BF6955B9B7F7
:1033C0002D55A9B7239AA1869387018790438147FA
:1033D0000C463307F500420741836393B7008280B0
:1033E0005446139847008507C2962390E600D5B748
:1033F000938701879C4303C58700828003D541875B
:1034000082804111C16706C61387D7FF6308E502B2
:103410006369A700F117630FF5000145B240410150
:1034200082801387E7FF630EE500FD171D8D1335BE
:103430001500EDB7EF4020567D15D5BFEF40E031C8
:10344000E5BFEF408030CDBF011122CC26CA06CEA9
:10345000AA8401442EC6EF00B068B2456348A400B8
:103460000145F2406244D244056182809C481315B4
:1034700014003E9583570500E385B7FE0504D9BFC8
:1034800003485500814693F7F60F63E5070181472E
:103490003E858280584593975600BA9703D72700F8
:1034A0006316B70003D70700E304C7FE8506E1BF34
:1034B0008346450001479377F70F63E4D7008147C0
:1034C00011A81C45131657000507B29703D607002D
:1034D000E313B6FE3E85828001119317050156C2A3
:1034E00006CE22CC26CA4AC84EC652C4C187938A89
:1034F0000187635AF00883A70A00C0479C47035717
:103500000400198D42054181636DF5000144228557
:10351000F2406244D2444249B249224A924A056189
:10352000828012052A94E5B7DC4713944900014ACA
:103530003E94834744006341FA02014A83475400A2
:103540006346FA028509C20993D9090183A70A00D3
:103550009847E3EBE9FC5DBF1C4413195A00A685AC
:103560003E994A85D53509ED050AE1B75C44131942
:103570005A00A6853E994A85C13D19E1050A7DBFDD
:10358000E30209FC69B7AA848149C9B71C4581E7F0
:103590009307C5001CC51C45231205001CC19307D9
:1035A000F00F63E6B70093F5F50F6F10F0144111BB
:1035B00026C206C69394050122C4C167C18063F97F
:1035C000F5002244B240A685924441016F10B01626
:1035D000C18193F5F50F2A84EF1010122285224441
:1035E000B240A685924441016F10B01293870187C3
:1035F000884382801C4589C723A8A1860145828013
:103600007D558280938701879843834745004847CB
:1036100092073E9582802171232C811A1C18004547
:103620003EC6B70780013EC81C183ECA83574400F7
:10363000232E111A2328211B232A911A02CE02D0ED
:1036400002CC231EF100834784002A8902D2230181
:10365000F1023C083ED402D6753783570500231685
:10366000F102EF4060002307A1025C4003556400B3
:10367000F18313F717008347F10252055181F99B3B
:10368000D98FA307F102EF00110D31CDAA840355A4
:103690000500EF90D00183D704002AD26800231CD4
:1036A000F10083D72400231DF1001C4803D64700F6
:1036B0008C43EF1090028347B400CA8617B601000E
:1036C000130646B48117A305F4006C004810EF0000
:1036D00031198320C11B0324811B8324411B03292F
:1036E000011B396182802155EDB71C45B1CF03C55F
:1036F000A700894613576500630BD7028D46630EFA
:10370000D70285466300D702130740063305E5025A
:1037100003C7B700418B15CB83C7B700BD8B3355AB
:10372000F54082801375F5031307803EC5B709671E
:103730001375F50313070771D1BF372709001375F8
:10374000F5031307077CD9B70145828041114AC0B0
:1037500003A9850006C622C426C26308090483475C
:10376000B900AE8493F7070E95C3034599009305FE
:1037700020030D810505B305B50288442244B240FB
:1037800092440249610541016F1011262E85B13F17
:103790002A8401CDB52B8325C900B307B54063FC4E
:1037A00087002E94B305A440E9F9B2402244924424
:1037B0000249410182808545C9B7797126D2AA8420
:1037C00003D5250022D42E8493053500C2054AD0A6
:1037D0004ECE52CC06D6C18185473289B6893A8A07
:1037E00063FBB700EF002177AA857D55A1C183D780
:1037F00005002310F4000355040002C202C402C6EF
:10380000EF90E06A2AC2268522C4ED3B835705006B
:103810002316F100EF3050652307A100D2874E87B1
:10382000CA8601464C002685EFF01FABB2502254E9
:1038300092540259F249624A4561828021711C18F2
:103840003EC6B70780013EC81C183ECA3C08232E5E
:10385000111A232C811A232A911A2328211B00458F
:103860003ED4AA8402CC02CE02D002D202D6593B68
:103870008357050035592316F102EF30F05E230718
:10388000A10209C48357440089EF21598320C11B39
:103890000324811B4A858324411B0329011B3961B1
:1038A00082800355640052055181EF00C16A2A8964
:1038B00069DD8347B40093F7070E89C713058401B8
:1038C000EF10911383574400231EF10083478400B7
:1038D0002301F1025C4003550900D98313F707085F
:1038E00083471102231CA10093F7F707D98FA30088
:1038F000F10283572900231DF1005C40F18313F787
:1039000017008347F102F99BD98FA307F102EF90CB
:10391000005A2AD23DD98347940068001397570074
:103920008347B400FD8BD98FA305F4001C4803D650
:1039300047008C43EF10605AA68717B701001307A2
:10394000678C740005464C102685EFF0FF982A8995
:1039500015DD8347B400A685FD8BA305F400FD3378
:1039600035B7011126CA832485FE22CC2A842685F8
:1039700006CEA53B834734FF93F7070E85C72AC6BB
:103980002685EFF05FC921C5834734FFB245FD8B23
:10399000A309F4FE8DCD22856244F240D244056134
:1039A0006F1091040DC58327C4FF2685829705E11A
:1039B000834734FF93F7070E81C72285EF10D103A9
:1039C000032584FE6244F240D244056185BDF24085
:1039D0006244D244056182809C415D71A2C4CAC028
:1039E00086C6A6C24EDE52DC56DA5AD85ED662D4FD
:1039F00066D26AD06ECE03C7070089472A899356DC
:103A000067002E846386F6040D46638CC604930714
:103A1000F0076300F7022E85EF106058AA848149F1
:103A2000C16B130C4900938701879C43984763E857
:103A3000E904B640264496440649F259625AD25ADD
:103A4000425BB25B225C925C025DF24D61618280FE
:103A500003D745008547E3FEE7FC2E85EF1040586D
:103A600075BF03D74500E3F6E7FC2E85EF10205322
:103A7000AA842285EF106054C204C98C4DB7DC477C
:103A80000355A900139A49003E9A93170501C1876F
:103A9000635DF00083570A006395A70263E5740332
:103AA0008327CA00034D5A001DA0A1672167A98F73
:103AB0001307F7EFE374F7FE63950900EFF07F94C7
:103AC00071FD85098DB783278A00034D4A00835D08
:103AD000A90003576900216A138BC7003AC6814ABF
:103AE00033CA4D01631C5D01938781879C43F1DBE1
:103AF000A2866286814526858297E1B7A167938772
:103B0000F7EF930C4BFF63F04703B2455A85EFF094
:103B10008FF619CD03278B00104719CA1043638015
:103B2000C4023107D5BFEE856685EFF0FF9171FDC8
:103B300093861A0093FAF60F130B0B0265B78356A0
:103B400044005C43E3EFF6F622853AC6EF102034DA
:103B5000A1679387D7042A8A035D4400324763E84C
:103B600097008347D90093E707F8A306F9001C479D
:103B700066852286E2858297C1670844FD17337AFD
:103B8000FA00529508C02312A40125BF938701872C
:103B90009843814715C31447814763FFD500939726
:103BA00045004C47BE9519C903C755008147637549
:103BB000E600DC451606B2973E85828003C74500C5
:103BC0008147E37BE6FE16069C45F5B7011126CA40
:103BD0004EC652C456C206CE22CC4AC85AC0AA8982
:103BE0002E8A8144938A018783A70A00984763EC51
:103BF000E400F2406244D2444249B249224A924A25
:103C0000024B05618280DC471394440001493E94D5
:103C100013BB140083474400634BF900014913BBF5
:103C2000140083475400634FF900850475BF0844AE
:103C3000931759005287DA860146A2853E958299EC
:103C40000509C9BF4844931759005287DA860546CB
:103C5000A2853E9582990509E9B7239A0186814597
:103C600017F5FFFF1305654C95B7938701879C43B4
:103C700099C7814517F5FFFF1305254B81BF82804A
:103C8000797126D24AD04ECE2315E1002E89B28416
:103C9000B6893A8681460147ED4522D406D62A8464
:103CA000EF30D12A2AC639C10356A100CE85EF7064
:103CB0009176CA852285EF30D13B058915C52285CD
:103CC00001462C0023149100EF3011522A8409C5BB
:103CD000ED452800EF30F1352285B2502254925440
:103CE0000259F249456182804944DDB76554EDB718
:103CF0005C41FD175CC18280411106C6EF30211C7A
:103D000095473305F502B240814541010D8182801E
:103D1000411106C6EF30A11A95473305F502B240AE
:103D200041010D818280035505006F30617E03558E
:103D300005003287AE8617160020035606FF97351A
:103D40000020938565032DBF411106C6EF60316EDB
:103D5000B240410182804111973500209385C50111
:103D600006C6EF30D14FB24001454101828041117A
:103D7000814517150020035545F706C6EF309139E8
:103D8000B240410182804111973500209385C5FFE3
:103D900006C6EF30D14CB24001454101828041114D
:103DA000814517150020035545FA06C6EF309136B8
:103DB000B2404101828041112E8506C6EF705057F6
:103DC000B24041016F7030606F7050685C49E1171C
:103DD0005CC95CC583572501A1072319F5008357EA
:103DE0000501A1072318F5008280F1473305F5028C
:103DF0009387C1879C433E9582808D47631BF6085D
:103E000003D74600854763F6E7084111368522C48B
:103E10004AC006C626C236842E89EF10401825C532
:103E20008357440093140501C18063EE97042285F3
:103E3000EF10E016FD14231294009307A002630212
:103E4000F5029307B0026308F50293079002631C22
:103E5000F50222852244B2409244024941016FE0BA
:103E6000104A22852244B2409244CA850249014642
:103E700041016F90A07922852244B24092440249C8
:103E800041016F007051B240224492440249410105
:103E900082808280938601889C42014599CB984319
:103EA000D44223A0E1886394D70023A2E18813853C
:103EB000C7FE8280411122C406C67144F12E33052B
:103EC00085029145EF80704311E56555B24022446B
:103ED000410182809737002023A6A7EC752E330579
:103EE00085029145EF8070416DD123AEA1866D268C
:103EF000973700202392A7EA452697370020239E74
:103F0000A7E897A7010093872734173700202329B4
:103F1000F7E8970700009387A7EB17370020232FB8
:103F2000F7E6014565B7AA85173500201305C5E6F4
:103F30006F10001B411106C6FD37EF10E01B938781
:103F400001889C4391CF1387C7FE19CBB24083D51C
:103F5000C7FF17350020130525E541016F10C12863
:103F6000B24041018280411106C622C426C24AC025
:103F7000153721C1834785002A8493F7070489EB0D
:103F80002244B240924402490355E50041015DB725
:103F90008347C50093044501138901888DE3832776
:103FA00009005CC923A091888327490099E323A2D3
:103FB0009188B24022449244024941018280FD1717
:103FC0002306F5006105EF70104E8307840063C17E
:103FD00007068347840093E707F82304F400EF20E3
:103FE000514A9357050193F7F70FAA9713D5870105
:103FF0003E954205A94741813375F5028347840008
:1040000093F707FCC98F2304F4008347D4003E953F
:104010001C402318A40089CF984319CB8347C400C0
:104020005040814585073305F502420541810297DD
:10403000832709005CC823A091888327490099E35E
:1040400023A291888347C400ADD78355040122443D
:10405000B24092440249173500201305E5D44101CE
:104060006F10811897370020938707E39C47411111
:1040700022C4858306C626C2858B014481EFAE84A7
:10408000B2853A86EF10000D2A8409C5EF10A0030F
:10409000829408CC2285B24022449244410182801D
:1040A000797106D622D44AD04ECE2E8932C626D277
:1040B000AA89AD24324713060502CA869705000077
:1040C0009385E5D217350020130505CD613F2A847D
:1040D00029CD9304C500252E1946AA852685EF0013
:1040E000D05F85452685EF00B05C17A5010013055C
:1040F00065144E95834505002685EF00F05F5C480A
:1041000031468145A1075CC85CC483572401E1178F
:104110002319F40083570401E1172318F4001C4C01
:104120003E85EFD00FADA30425012285B250225465
:1041300092540259F24945618280011106CE22CC87
:1041400026CA2EC6AA8432C4EF00507A004DB2456A
:104150002246834784000CC050C093F7F70393E7CF
:1041600007042304F400231804002685EF00B0752B
:1041700083479400A9462317A40013D737000507E7
:104180003307D7029D8B85072306F400A306E400BE
:1041900083C70401D8488507230FF7FE13870188DA
:1041A0005843232A04009307440105EB23A2F18816
:1041B00023A0F18817340020130404BF2285EF00E8
:1041C00031781C44858B5D8D09ED22856244F24077
:1041D000D244814505616F1021011CC323A2F188DF
:1041E000D1BFF2406244D2440561828041119705FB
:1041F00000009385C5C0014506C6EFF0DFBBB240A5
:104200000145410182806FF03FBC8347C500B1EB9F
:10421000411122C42A840355E50006C6EFF0BFD041
:104220000DCD8347840093F7F7FB2304F4001C4073
:1042300091C7DC4381C74C4001458297EFF09FC591
:1042400017350020130545B6EF00117B0355E40038
:104250002244B24041016FF0FFCDB24022444101FF
:104260008280828093870188970500009385E5CF3F
:1042700017350020130545B323A0070023A207002C
:104280006F00116A1C4D81CB03A347006305030037
:104290008345070002838280938701899C4303C57D
:1042A00007008280938701899C4303C517008280A1
:1042B000938701899C4303C52700828093870189E6
:1042C0009C4303C547008280938701899C4303C5B3
:1042D00037008280938701899C4303C55700828001
:1042E000938701899C4303C5670082809387018976
:1042F0009C4303C577008280938701899C4303C553
:1043000087008280938701899C4303C59700828040
:10431000938701899C4303C5A70082809387018905
:104320009C4303C5B70011E11D4582809387018935
:104330009C4303C5C7008280938701899C4303C5C2
:10434000D7008280938701899C4303C5E700828060
:10435000938701899C4303D5070182809387018954
:104360009C4303C527018280938701899C4303D521
:1043700047018280938701899C4303D5670182802E
:10438000938701899C4303D58701828093870189A4
:104390009C4303C5A7018280938701899C4303C581
:1043A000B7018280938701899C4303C5C70182803E
:1043B000938701899C4303C5D70182809387018934
:1043C0009C4303D5E7018280938701899C438857EA
:1043D0008280938701899C4303D5C702828093879B
:1043E00001899C4303D5E70219E11305800C828003
:1043F000938701899C4303C50703828093870189C2
:104400009C43C85B8280938781888843828093879E
:10441000C1888843828019E17D558280F5DE98420B
:1044200065DFFDD917370020130707A71847AA87AC
:104430007155058B6319071E03C507001547E37DFA
:10444000A7FC03C737001305F0057D171377F70F97
:10445000E364E5FC03C7570061D303C767004DDF82
:1044600003C77700494579171377F70FE366E5FA35
:1044700003C7A70011457D171377F70FE36EE5F823
:1044800003C797000D457D171377F70FE366E5F82F
:1044900003C7B70001CB65171377F70F1305600D3E
:1044A000E36CE5F603C7C700794579171377F70F73
:1044B000E364E5F603C5D7000D477D151375F50FC9
:1044C000E36CA7F403D50701130840175115420503
:1044D0004181E363A8F403C5E7007D151375F50F6B
:1044E000E36CA7F203C527017D151375F50FE3658E
:1044F000A7F203C58700454875151375F50FE36DE1
:10450000A8F003D5670105681308B8E06D154205EA
:104510004181E363A8F003D547016D154205418150
:10452000E36CA8EE03D58701791542054181E36567
:10453000A7EE03C5A7017D151375F50FE36EA7EC74
:1045400003C7B7011D457D171377F70FE366E5EC49
:1045500003C7C7010D457D171377F70FE36EE5EA33
:1045600003C7D701714579171377F70FE366E5EABB
:1045700003D7E7011305E00F7D1742074183E36D81
:10458000E5E803C70702494579171377F70FE36595
:10459000E5E8D85301CB37C534005917130555BF8B
:1045A000E36CE5E6885737C73400130757BF591542
:1045B000E364A7E603C70703E30007E623A8F1883F
:1045C00003C7050123A6C1888547E3F7E7E403D7BE
:1045D0002501DC49B3F7E702E39007E483C715013F
:1045E000E38C07E24111368506C623A4B18822C4B4
:1045F000EF80205AEFF0100B2A84EFA0E0362A94C7
:10460000EFE0A07B2A94EF8020752A94EFF09F8A38
:104610002A94EF20D0792A94EF60002A2295B240A4
:104620002244410182808280011106CEA307A100AD
:10463000EF90502B9305F100170500001305C5C43A
:10464000EFF0CFD8F240014505618280797122D424
:1046500017340020130444840328840026D2AE8437
:104660009365180006D64AD04ECE52CC56CA97381B
:10467000002023A7B88213781800631D08083E891C
:1046800093874192BA899843B285BE8A2A86014AA5
:1046900001CF2AC2014536C62EC4EFE09018B246BB
:1046A000A2451246133A15002685EF90C02DAA8424
:1046B0001DC51C44F99B172700202323F77E83A7E1
:1046C0000A0081C763030A008297B25022542685EC
:1046D00002599254F249624AD24A456182804E851B
:1046E0009727002023AC077AEFE0DFCD4146CA854B
:1046F000173500201305C583EF70E151EFC0404529
:104700000325040BEFC0C0460145EFC0E04C054552
:10471000213F65BFF95455BF972700209387C7777E
:104720009C47858BD5C34111172500201305857E35
:1047300006C69727002023A107769727002023AFDE
:1047400007749727002023AD0774EF00F12AEF408C
:104750004037EF00C17FEF0091049387C18C9C43E9
:1047600081C70545EF80C01B9387818B9C4389C718
:1047700041657D15EF600064EFE03013EFC0A03DB0
:1047800097370020938707839C431397170163543F
:104790000700EFE0E0199727002023AB0778972761
:1047A000002023A907789727002023A707789727B9
:1047B000002023A50778EFF01FA5E92BEFF0EFC944
:1047C000B24041016FE0603C8280397122DC2A8472
:1047D00026DA930414024ED62E85B289A685214688
:1047E0004AD806DE36C63A89EF7081401DE5B246EA
:1047F00038082686CE8513059404EF40D000214664
:104800002C084A85EF70C13E13351500F2506254F2
:10481000D2544259B259216182800145C5BF9305E6
:104820004506172500201305E5596F00F11B0111FE
:1048300006CE2EC6EFF0CFCDB245F24088C105615D
:104840008280411122C426C24AC0AA842E8406C690
:10485000EF80806783C7E401AA851389940899E3F0
:10486000138904032285492D2146930519022285C7
:10487000AD2597270020938727628C432285EF0080
:10488000406E22852244B2400249938584029244BC
:104890002146410199A5597186D6A2D4A6D2CAD083
:1048A000CECED2CCD6CADAC8DEC6EFE0402493051D
:1048B000400645E9EF80C05E6302051283C7418967
:1048C00013B71700238AE188014489CFC1641729EF
:1048D00000201309695C9309400EFD14EFF09FA2BC
:1048E0006348A408EFF0CFC24169B7290900096AFB
:1048F000FD7A2A8B81447D199389F97B130A0A7109
:10490000938A8AC7EFF01FA063D5A4041304400E56
:10491000B387840217270020130707580324070BC7
:104920003E948357C4016386270918403307EB4040
:1049300063EAE900834744008507B3874703D697B6
:104940006369F706014681450945EFF06FF5AA8BCB
:1049500029E1EF2090748547631FF50489659385ED
:104960000571172500201305E545EF00F107A1A803
:10497000B30734030327090BBA9703D7C7016308AA
:10498000970003C75700A38207002382E7000504AE
:10499000B1B79305C5002285EFF0BFEA5E85228698
:1049A00097A5010093854589EFF02FF95E85EF000B
:1049B000A074850481BF972700209387E74D9C470B
:1049C0008D83858BC1FFB650265496540659F649FF
:1049D000664AD64A464BB64B65618280014685459C
:1049E000094502D002D202D402D6EFF06FEBAA84BE
:1049F00079D9EFE0400F1389C4002A8481454A85A4
:104A0000E5290C4041464A85C9298329440063872A
:104A100009084E8502D802DA02DC02DEEF7001409E
:104A20002ACE141005462C0808184ECCEF40A0538F
:104A30001375F50F25E58355840093E525004A8518
:104A4000DD2911460C104A85492901469795010038
:104A50009385057F2685EFF04FEE2685712D5C400E
:104A6000BDD3014685450D45EFF08FE3AA8421DDD6
:104A700048401389C400EF70613A2AC64A85292943
:104A80003246636AC5004C404A858129014681450A
:104A90002685EFF08FEA2685852535B78355840076
:104AA00079BF972700209387273F9C4709CD93E73D
:104AB0008700172700202325F73E17250020130520
:104AC00065306F0081714111DD9B06C617270020FC
:104AD0002328F73CEF20705C09E9B240172500203D
:104AE0001305452E41016F002171B24041018280C2
:104AF00079714AD0416926D24ECE52CC56CA5AC894
:104B00005EC662C466C206D622D4AA892E8AB28A3A
:104B1000368BBA8B8144172C0020130CEC37930C86
:104B2000400E7D19EFF00FFE63C4A40001442DA0D8
:104B30003384940383270C0B3E948357C401638B07
:104B400027055A87D6865286CE8513050403EFF0D3
:104B5000DFC70DC123800B002285B250225492542E
:104B60000259F249624AD24A424BB24B224C924C11
:104B7000456182808347F40191CF5A87D686528659
:104B8000CE8513059408EFF05FC409C585472380DF
:104B9000FB00D9B7850479B783574500638A0718A6
:104BA000397122DC06DE26DA4AD84ED652D456D2E5
:104BB0005AD02A84ED2611CD85476301F506F250BF
:104BC0006254D2544259B259225A925A025B21611C
:104BD0008280EFD0D07165F5835744004947ED9B43
:104BE000E39FE7FCC1452285492CAA842285CD2E6E
:104BF0000357440002CE91472A896317F7002285A4
:104C000009293C082ACC3ECEEFD0F06D5C55C5DBBF
:104C100074084A86A6850545829755B70357440010
:104C2000D147E3FEE7F8032A0400C1690149972A46
:104C30000020938A6A26130B400EFD19EFF08FECCB
:104C40006344A90C2285032A0400912EA1452A89D8
:104C500022852524AA8422856D2E14402A86AA89BD
:104C600078082685CA85EFF0BFE8AA8429D903C74A
:104C7000F40189476315F7008347C101A9D355465D
:104C8000D28513856400EF6011790145EF80202201
:104C900001C583D7C401B1EB972700209387C71FB5
:104CA0009C4793551900858913D73700058B11CB85
:104CB0008983858B6397B70001452EC6EFF07FDEB1
:104CC000B2454E85EF8040260346C1012A84937584
:104CD00019002685EF90202831C92685EF80002114
:104CE000268511C00145EF80A04FEF20103B85477E
:104CF000E317F5EC83C754001307F00FE381E7ECEB
:104D00008507A382F40065BDB304690383A70A0B7A
:104D1000BE9483D7C401638937015546D285138574
:104D20006400EF60F16C71D1050909BF5DDC5DBF06
:104D30008280011106CE22CC26CA4AC84EC6EF8018
:104D4000201611CDC1640144172900201309C9148C
:104D50009309400EFD14EFF0EFDA634EA4006244B5
:104D6000F240D2444249B249172500201305850577
:104D700005616F008146330534038327090B3E9597
:104D80008357C5016386970023120500EF80001644
:104D90000504D1B797270020938707109C478D8380
:104DA000858B99E7172500201305C5016F00C144C5
:104DB000828097050000938545AE172500201305D6
:104DC00065006F00E13583C7F5FF2E858507A38F4A
:104DD000F5FE828083C7F5FFFD1793F7F70FA38FCA
:104DE000F5FE89E71385F5FF6F10714C82808841CD
:104DF000411106C6050542054181EF10114E09C556
:104E000085472300F5000505B240410182801C4121
:104E1000035745008D8FBA951CC12312B5003E85FE
:104E2000828093D78500A2051441DD8D835745000C
:104E30001387E6FF18C189072312F50013D68500F2
:104E40004111238FB6FEA38FC6FE41018280184117
:104E50009307F7FF1CC18357450085072312F50010
:104E6000A30FB7FE8280835745008D8F2312F50074
:104E70001C41BE950CC12E858280AA8703D74700AE
:104E800008410D8FAA952392E7008CC382801841B8
:104E900008453305A74082808357450003576500C6
:104EA0001D8F1C4108453385A7403305A7408280EC
:104EB000011122CC2EC606CE2A84F93FB245637377
:104EC000B50001A0835744000840F240BE9523126C
:104ED000B40062443E9505618280011122CC2E848B
:104EE000B28506CE32C6EFF0BFFCA28562443246E0
:104EF000F24005616F603152411122C42E84854514
:104F000006C6EFF0FFFA23008500B24022444101BB
:104F1000828001112317B100894506CEEFF05FF9B9
:104F20008347E1002300F5008347F100A300F5006B
:104F3000F2400561828093D78500A2050111DD8DC5
:104F40002317B100894506CEEFF09FF68347E100B5
:104F50002300F5008347F100A300F500F24005614E
:104F600082801397850193D78501C166938606F0E9
:104F7000D98F13D78500758FD98FA2053707FF000A
:104F8000F98D0111DD8D2EC6914506CEEFF05FF251
:104F90006C001146EF603148F240056182801C418F
:104FA000411106C622C403C407008545EFF0BFEBDC
:104FB0002285B2402244410182801C41011106CE6B
:104FC00003C7070083C7170089452307E100A3072C
:104FD000F100EFF05FE9F2400355E10005618280E6
:104FE0001C41011106CE03C7070083C7170089457E
:104FF0002307E100A307F100EFF0FFE68357E1008C
:10500000F24013D58700A2075D8D420541810561FD
:1050100082800C41011122CC11462A84680006CE00
:10502000EF60713F22859145EFF0FFE3B247C16623
:10503000938606F01397870113D58701598D13D7EF
:105040008700758FF2406244598DA2073707FF0031
:10505000F98F5D8D056182801C45BE950CC18280F3
:10506000AE87944391E6584101EF0CC15CC1828048
:1050700003C7570013671700A382E700B687D5B7A9
:105080000CC3EDB7AA87084119CD1841D44398C382
:105090006313D500D8C32A870346570093761600BA
:1050A00081E6232007008280944381CA8C4203A8B2
:1050B00047008CC363930601CCC3799A14C3A3023F
:1050C000C7003687D1BF1C45DC471D8DB777DBB6DF
:1050D000938777DB09853305F5024205418182809C
:1050E000F147B385F50248452E95828083474500F8
:1050F00085072302F5008280411122C406C62A8456
:1051000009E4B24022444101828083474400F5DB38
:10511000FD1793F7F70F2302F400E5F71C4403D7BC
:10512000270005072391E700DC4399C32285829776
:105130004C4889CD83475400898B99E71C442285CC
:105140009C479C439C478297232A040000402320CD
:1051500004007DB783572500011106CE22CC26CA54
:105160002EC681EB01442285F2406244D24405619F
:105170008280035705008147F146E305F7FEB385BA
:10518000D702404585072E948345440008C4F5F5B1
:10519000B247AA8481E7232A040009A81C456C00B1
:1051A00022859C439C43829748C84DDD8547231246
:1051B000F400B24723200400231804002319F4004C
:1051C0005C485CC483D72400FD172391F40061BFC1
:1051D0009387818988432326050023240500410500
:1051E0006F008101011122CC138481891C4006CEFD
:1051F00095C39C472300B5002AC65CC1EFF05FFD54
:105200001C4003A347006307030062443245F24099
:1052100005610283F24062440561828003474500D4
:1052200015EB584DAA877D5505CB411106C61CC309
:10523000DC4723ACE188F156130507012390D70022
:10524000970500009385A501EFF0906DB2400145F0
:10525000410182807D5582808280797161468145DD
:10526000280006D6EFC0EF98938781899C432800D9
:105270009305F00FDC473EC6EFF0DFF6B250456114
:105280008280938781899C43D847A1679387C7020F
:105290006312F70A397106DE22DC26DA80004AD86A
:1052A0004ED652D456D23285B284EFF05FCFAA895F
:1052B0002685EFF09FD02318A4FC2685EFF0FFCFC2
:1052C0002319A4FC2685EFF05FCF83D744000A8A18
:1052D000231AA4FC858393F7F70F230EF4FC8607AB
:1052E000BD0793F7073F3301F1408A8A014983479D
:1052F000C4FD6365F902CE85130584FC232C54FD9F
:10530000EFF05FEE5281130104FCF2506254D2546C
:105310004259B259225A925A216182802685EFF071
:10532000DFC993171900D69705092390A7001379B1
:10533000F90F75BF8280938781899C43D847A16705
:105340009387A7026310F70A397106DE22DC26DA9A
:1053500080004AD84ED652D456D23285B284EFF06D
:105360001FC4AA892685EFF05FC5FD572318A4FC4A
:1053700026852319F4FCEFF05FC483D744000A8A22
:10538000231AA4FC858393F7F70F230EF4FC8607FA
:10539000BD0793F7073F3301F1408A8A01498347EC
:1053A000C4FD6365F902CE85130584FC232C54FDEE
:1053B000EFF05FE35281130104FCF2506254D254C7
:1053C0004259B259225A925A216182802685EFF0C1
:1053D000DFBE93171900D69705092390A70013790C
:1053E000F90F75BF8280938781899C43D847A16755
:1053F00089076318F708397106DE22DC26DA800097
:105400004AD84ED652D456D232853289EFF03FB9BF
:10541000AA894A85EFF07FBA835749000A8A231880
:10542000A4FC858393F7F70F230CF4FC8607BD07D4
:1054300093F7073F3301F1408A8A8144834784FD13
:1054400063E5F402CE85130584FC232A54FDEFF0B6
:105450007FD95281130104FCF2506254D254425954
:10546000B259225A925A216182804A85EFF0FFB4E4
:1054700093971400D69785042390A70093F4F40F14
:1054800075BF8280938781899C43D847A1679387A2
:10549000E7046312F70A397106DE22DC26DA80009F
:1054A0004AD84ED652D456D23285B284EFF03FAFAE
:1054B000AA892685EFF07FB02318A4FC2685EFF09B
:1054C000DFAF231AA4FC2685EFF03FAF83D744005B
:1054D0000A8A2319A4FC858393F7F70F230EF4FCA3
:1054E0008607BD0793F7073F3301F1408A8A0149D8
:1054F0008347C4FD6365F902CE85130584FC232C24
:1055000054FDEFF03FCE5281130104FCF25062547F
:10551000D2544259B259225A925A21618280268528
:10552000EFF0BFA993171900D69705092390A7009C
:105530001379F90F75BF8280938781899C43D8477F
:10554000A1679387C7046310F70A397106DE22DC6E
:1055500026DA80004AD84ED652D456D23285B2844A
:10556000EFF0FFA3AA892685EFF03FA5FD5723188A
:10557000A4FC2685231AF4FCEFF03FA483D7440053
:105580000A8A2319A4FC858393F7F70F230EF4FCF2
:105590008607BD0793F7073F3301F1408A8A014927
:1055A0008347C4FD6365F902CE85130584FC232C73
:1055B00054FDEFF03FC35281130104FCF2506254DA
:1055C000D2544259B259225A925A21618280268578
:1055D000EFF0BF9E93171900D69705092390A700F7
:1055E0001379F90F75BF8280938781899C43D847CF
:1055F000A167DD07631CF7023971328506DE22DC04
:105600003284EFF0DF992AC62285EFF01F9B231129
:10561000A1022285EFF0BF98B2452300A10228081D
:10562000EFF05FBCF25062542161828082809387E8
:1056300081899C43D847A16793878704631CF7023D
:105640003971328506DE22DC3284EFF05F952AC69E
:105650002285EFF09F962311A1022285EFF03F945F
:10566000B2452300A1022808EFF0DFB7F2506254E0
:10567000216182808280938781899C43D847A1677A
:105680009387A704631BF70079712800814506D62C
:10569000EFF05FB5B2504561828082809387818947
:1056A0009C43D847A167938757026310F70279712B
:1056B000328506D6EFF0BF8E2308A1008145280071
:1056C000EFF05FB2B250456182808280938781891A
:1056D0009C43D847A1679387E7026312F704797167
:1056E000328506D622D426D23284EFF01F8DAA84CA
:1056F0002285EFF09F8C854719E52285EFF03F8AE0
:105700004205B337A00028008145231891003ECA06
:10571000EFF05FADB2502254925445618280828096
:10572000938781899C43D84799476310F70639715D
:10573000328506DE22DC3284EFF07F862AC622859F
:10574000EFF0BF872310A1022285EFF05F852301D0
:10575000A1022285EFF0BF84A301A1022285EFF010
:105760001F842302A1022285EFF07F832313A1026D
:105770002285EFF0DF82B2452314A1022808EFF062
:105780007FA6F25062542161828082809387818952
:105790009C43D847A1679387C7036310F706397105
:1057A000328506DE22DC3284EFF06FFF2AC62285C6
:1057B000EFF0BF802310A1022285EFF01F8023119C
:1057C000A1022285EFF0AFFD2302A1022285EFF0B6
:1057D0000FFDA302A1022285EFF06FFC2303A102BB
:1057E0002285EFF0CFFBB245A303A1022808EFF01A
:1057F0007F9FF2506254216182808280797106D647
:1058000022D426D22A84EFF08FF9AA842285EFF0E1
:10581000CFFA2285EFF06FFA035744008D4763F506
:10582000E7002285EFF06FF92285EFF00FF9A685EA
:105830002800EFF03F9BB250225492544561828081
:10584000938781899C43D847A167FD076315F700BB
:1058500032856FF0BFFA8280938781899C43D84755
:10586000A167E5076312F7063971328506DE22DC8F
:105870003284EFF0CFF22AC62285EFF00FF42285B2
:10588000EFF0AFF32310A1022285EFF00FF35205E2
:1058900051812311A102228523020102EFF02FF092
:1058A000A302A1022285EFF08FEF2303A10222853C
:1058B000EFF0EFEEB245A303A1022808EFF09F92AC
:1058C000F2506254216182808280938781899C4357
:1058D000D847A1679387E7036315F70032856FF018
:1058E000FFF18280938781899C43D847A167938782
:1058F00047046315F7023971328506DE22DC3284F3
:10590000EFF0EFE92AC62285EFF02FEBB245280829
:10591000EFF05F8DF2506254216182808280938724
:1059200081899C43D847A167938787026317F70251
:105930003971328506DE22DC3284EFF04FE62AC66A
:105940002285EFF0CFE5B2452300A1022808EFF051
:105950007F89F2506254216182808280797106D6FB
:10596000EFF0EFE3AA852800EFF0DF87B250456142
:105970008280938781899C43D847A167D1076315AB
:10598000F70032856FF09FFD8280938781899C4369
:10599000D847A167C5076315F70032856FF01FFC74
:1059A0008280938781899C43D847A167B907631593
:1059B000F70032856FF09FFA8280938781899C433C
:1059C000D847A167AD076315F70032856FF01FF95F
:1059D0008280938781899C43D8478947631FF7005A
:1059E0007971328506D632C8EFF06FDBAA852800C0
:1059F000EFF04FFFB25045618280828093878189AA
:105A00009C43D847A1678D07631AF70279713285E5
:105A100006D622D426D23284EFF06FD8AA84130699
:105A200061004C002285EF209040A6852800EFF011
:105A30006FFBB250225492544561828082809387DA
:105A4000C1899C4391C703A34700630303000283FA
:105A5000828039713C0826DA3ED2AE84B7070A004C
:105A6000A16522DC3ED42A843C084810DD0506DE10
:105A70003ED636C432C63AC2EFD05FB112474810A4
:105A8000BA85EFF06FC732464810B285EFF06FC8A5
:105A9000A2464810B685EFF02FC65010A685228585
:105AA00001478146EFD07FD1F2506254D254216138
:105AB000828079717C0026D24AD0AE840329C50148
:105AC0003ECAA165B707070022D43ECC2A847C00D9
:105AD0004808C50506D63ECEEFD05FAB8345D9005A
