:020000021000EC
:100000006FD0416800000000001801180028012886
:100010000228032800290129022903290429052986
:10002000062907290829002A012A022A032A042A64
:10003000052AA62AFCDC0200EA0E0100D610010007
:100040001611010086100100741001006E390020A5
:100050003A110100041201002C1201008613010064
:1000600012140100FA0D01002A0D0100940D010087
:10007000560D0100B2170100AA3900203411010009
:100080006E1501003CA30200FAA402006CA5020058
:10009000626202007262020078FE0100E0F101007B
:1000A0008C9902009C150100A868020034AF010081
:1000B000BAAF010012B001003A1D0100861D010017
:1000C000FC1B0100FE6E0100006A0100F4770100D4
:1000D000C07B0100687F0100765C0100145C0100B8
:1000E000FA5F0100C25C0100EA5B01006E5C010086
:1000F0009C5B01003E5D0100965D0100465D0100D4
:100100004A5D0100E65D01009E5D0100D05D0100D9
:10011000F2620100FA6201003A5D0100425D0100F5
:10012000E25D0100F6620100965E01002E640100AE
:10013000608D0100DA8D0100088E0100DE70010083
:10014000F67001003271010058560100205701007D
:10015000785701002E390100A43401000850010035
:10016000163501005C4F010016BE02009ABB02006A
:1001700078C50200D6D102000AD1020048D402009C
:1001800044D40200DEAE0200DCD4020050AC020017
:100190006CD402007ECA020098CA0200BCCA0200E7
:1001A0004CD5020042CF0200D8CE0200BCD50200DE
:1001B0005EAE0200E6AE02000AAF0200ACAE020084
:1001C000947E0200786D0200B0730200586E020047
:1001D000A67802002C9A02002A99020080AC020044
:1001E0002A190100026402008C6802005E690200A4
:1001F0003C95020068950200E0950200C47401007D
:10020000547E02001E790200B27002004A7B020096
:10021000306D020086140100C0640200F480020008
:100220005A830200A28302000882020058130100D0
:100230002C7201008AF101000000000000000000A3
:100240006373B60082801C419105110523AEF5FE53
:10025000C5BF938781B4138781FF6373F7008280E2
:0802600023A007009107D5BFA0
:1002680049C5AA870145C1C58D07C207C183F19B4E
:10027800C207C183130740036366F70203A501B5EC
:1002880083A681B46393A60203A741D3014525C37E
:100298004111C20706C60545DD8D0297B2400145EA
:1002A8004101828003A5C1B4E1BF0357650005EF92
:1002B800035745006369F702B306F74021466370A8
:1002C800D6021041938687001D8FAA96611790C2A7
:1002D8002392E6002393060014C12312F50023138A
:1002E800B50021058280084171BF01458280828066
:1002F80009C903A801B583A581B40147C28763E38F
:10030800B70082809443636DF50663EBA6061386F7
:100318008700E368C5FE03D56700216605066317F5
:10032800C50003C601C105062388C1C02393070081
:100338006383070303A6C1B4630FF600035667007F
:1003480019EA83D7470014C383564700B697A10715
:100358002312F700BA879843E305B7FA83A6C1B416
:10036800E301D7FA83566700C9FE83D647000356D0
:1003780047001843A106B2962392D70098C38280FB
:100388003E87B687ADBF19CDB71700401307700574
:100398002380E704130780FA2380E7042396A70243
:1003A80023800704828019C1814799E982803387B5
:1003B800F500834607003307F50085072300D700BB
:1003C800E397C7FEE5B719C1FD5781E9828091051A
:1003D80003A7C5FF1105232EE5FE7D16E319F6FEDA
:1003E800F5B7797126D283A701D606D622D44AD08A
:1003F8004ECE52CC938401D681C7829723A00400A5
:10040800DC4089CB03D5C1B5BD3FDC40829703D51D
:10041800E1B5953F9C4063990714938701F483C71E
:100428005700138901F4858B85C303477900A3021C
:100438000900914763FAE7002D2383477900F917EC
:100448008A07A6979C43829783C701F9918B89C72E
:10045800973002E0E78060169C4491C382979386A8
:1004680001D403A781B503C61600138A81B5138486
:1004780001D48347040093961700BA9683D60600E2
:10048800638C060C8347040063F2C70686073E9711
:10049800835507002310070003D5C1B52EC6E535DF
:1004A8000345040083A7C1B613172500B245BA97C0
:1004B8009C438297AA8903D5E1B5F13583470400A7
:1004C8001397170083270A00BA9703D70700B3E9E1
:1004D800E900239037018347040003471400850788
:1004E80093F7F70F2300F40063E4E7002300040008
:1004F8009C40BDEB03A741B6938441B635C78347FB
:10050800B90081CB8347790089E7973002E0E7801B
:1005180020B59C408297AA8421C91C48AA971CC868
:1005280083A781B6B1C303D5C1B5B13D268597D0A0
:1005380000E0E780806683A781D289C797D000E072
:10054800E78080422254B25092540259F249624ADA
:1005580003D5E1B5456105BD850793F7F70F23007E
:10056800F400E3E8C7F039BFB2502254925402595C
:10057800F249624A456182809167B7C60040938715
:10058800373023A6F6200F100000938701D4884F38
:1005980083A741C6316713073730F053B7071000F8
:1005A800FD17918F99833A0523A6E6205D8D8280F9
:1005B8004111B7170040985F3AC6945F3247E39CF1
:1005C800E6FE324541018280411106C6D53703C691
:1005D80081D1058A15CA930730333307F502B3373B
:1005E800F5023983CA07938501D4D98FD8499386F0
:1005F80001D401456307F7006370F7023385E740CC
:10060800DCC9B24041018280E5473307F502B337C0
:10061800F5022583DE07C1BF37653D0809C6378562
:100628006F0813050590198D3E95DCCAD9BF0327BD
:10063800C50F8346B50083A781F5584393861602F4
:1006480095829043FD1693F6F60F10C3D04350C31E
:10065800904710C7D04750C7904B10CBD04B50CBCA
:10066800904F10CFD04F50CF91C6130707029387F2
:100678000702C1BF82808347E50193F7E70F91CB5B
:10068800014582800145B240224492440249410119
:1006980082808347F501EDF783460501034785000E
:1006A80099C60346A50283C791D16367F60093777D
:1006B8000701F9D7814789CA834705158346F51489
:1006C800418BA207D58F01CB0347451583463515C6
:1006D8002207558FBA97CDD74111938641D006C6C8
:1006E80022C426C24AC083C64601138741D0139646
:1006F80086016186635F06029387C71313D4570088
:100708008344E70183A7C1ED7D5903A707086373F5
:1007180027013A899C43F5FB83A701B78297E363D6
:10072800A9F63305A94026943334850013451400EF
:1007380099BF858A9387C71289CA8A071384F703E2
:100748009307D0073354F40265BF86071384F70173
:100758009307D003C5BF5D7126DC3AD203A741C514
:100768003ED04EC81C5F86C696C499839AC29EC066
:1007780022DE2ADA2ED832D636D442CE46CC4ACA1F
:1007880072C676C47AC27EC0858B938441C5B9CFC0
:100798001C5F138401F493F7F7F91CDF83C701F496
:1007A80093F7070499CB83A701B7829708C883C733
:1007B80001F493F7F70B2380F1F48547A302F400C3
:1007C8008347440093F7070489EB83A741C658443D
:1007D800B8D3930700FC2302F4008307640063D7AF
:1007E800070083A701C59C432303F40098401C5FBE
:1007F8008583858BC1CBF5571CDF01000100010003
:1008080001000100010001000100010001000100D8
:1008180001000100010001000100010001000100C8
:1008280001000100010001000100010001000100B8
:1008380001000100010001000100010001000100A8
:100848000100010001000100010001000100010098
:100858000100010001000100010001000100010088
:100868000100010001000100010001000100010078
:100878000100010001000100010083A741C6130720
:100888005004B8CB98401C5F9183858B81CFBD57AE
:100898001CDF83A741C6054723A80704938701F4F3
:1008A8002382E70083A701C5D8430583058B19C7B1
:1008B800D843759BD8C3D843799BD8C37254B640E4
:1008C800A64216438643E2545255C2553256A256A2
:1008D800125782577248E2485249C249324EA24ED4
:1008E800124F824F61617300203083A641C69387FF
:1008F80001F4B85219CB03C72700058B19E703C7C2
:100908003700058B7DD723820700828083A701C625
:1009180099CB944BD04B9842518F98C294439C47A3
:100928009842D98F9CC283A741C6B7C60040A8CBBE
:100938009305C00313062003138701F483A78620B9
:10094800C18393F7F70363E9F50083A78620C18382
:1009580093F7F7036366F60083474700858BF9DF53
:10096800828083A641C6938701F4B85219C703C78A
:100978000700058B11C723820700A3820700828026
:1009880003C71700058B75D3FDB783A701C699CB9D
:10099800944BD04B9842518F98C294439C479842AD
:1009A800D98F9CC283A641C637C70040C145A8CA93
:1009B800654683278720C18393F7F70363FBF50018
:1009C80083278720C18393F7F7036364F600BC523B
:1009D800EDF3828003A741C5AA87185F1583058BAD
:1009E80025EF0345150015051377C51F19C6B386EE
:1009F800E70083C626002300D60085C583C661F4B8
:100A0800094593F60604B1CAB386E70083C63600E3
:100A1800054693F5F6066392C504E206E18663CEC1
:100A280006023385E7008347150003470500A20740
:100A380093F70770D98F93960701C18213F6064082
:100A48001387C1C519C693E606802310D700014550
:100A580082802310F700E5BF0545828001113EC45E
:100A68002ECC83A541C636C83AC694452ACE32CA8A
:100A78001397060142C246C0418393F81620138893
:100A880041C63A86938701F4638F080293F60620DD
:100A9800DDCE83C62700B708001093E61600238131
:100AA800D70093060019B4D1930600F82382D70023
:100AB80083A541C5D455F19A93E62600D4D594412F
:100AC800B3E6160194C19376261081CE13760610EC
:100AD80051CA83C601F493E616002380D1F4239407
:100AE800070003C647001347F7FF420762066186FF
:100AF800418383260800635F060013161701635AB3
:100B08000606AC520D466367B60005462382C70049
:100B1800BC52FDFF838781D163DD0700931707016E
:100B2800C18763DC0704F052894763E4C700FC52BD
:100B3800FDFF9C467245E2457D8F98C65246C246E7
:100B48003247A2471248824805617300203083C6A5
:100B580017002394070093E61600A380D70023828A
:100B6800070095B783C6370093E61600A381D70020
:100B7800BDB705462382C70071BFDC46139607013F
:100B8800635C0600B7071000FD17FCD2938701D4F9
:100B9800904F050690CF71BFA1675D8F59BF9387AE
:100BA800C1F71386C1F50346B60183C7570193867B
:100BB800C1F71387C1F5B29793F7F70F7D466361C5
:100BC800F604A300F70083471700484B0546331681
:100BD800F600A38AF600698E05EE03C6960113088F
:100BE8000002814633F6C7028147B355F50085896F
:100BF80093F8F70F99C96317D600A30017018280ED
:100C08008117C1B7850693F6F60F8507E39F07FDA1
:100C1800828003A7C1C6B75702009387079F832620
:100C2800070913965600635806008326070913968A
:0C0C3800660063440600FD17FDF3828097
:100C440083A541D0938741D01386052223A8C1B43C
:100C540003D74700938785FFBA97056523A4F1B4AA
:100C64001D05930600206364E5009356370033079F
:100C7400D60023A6E1B423A0E522E1162312D60070
:100C8400231306001CC3998FE1172312F7002313C3
:100C94000700828083A701B503A781B401456313CC
:100CA400F700828083D6670081E683D647003695B5
:100CB4009C43F5B783A701B583A681B4014563932B
:100CC400F600828003D7670011E703D747006373F8
:100CD400E5003A859C43E5B783A701B503A681B433
:100CE4002A87B305B5406314F6003A8529A893868C
:100CF40087009C43E369D7FEE377F7FE2E85E3E4A0
:100D0400D5FEE3F2F5FE828023AC05FE1C4191E79B
:100D1400010001000CC18280BA8703A787FF6DFF21
:100D240023ACB7FE82801DC18346E5FF1307F00F95
:100D34009147639EE600411106C69730FF1FE78086
:100D4400A0B7B24081473E854101828095473E85E8
:100D5400828001E9014582800145B240224441017B
:100D64008280411122C42A84210542059305D004BE
:100D7400418106C69730FF1FE78000AB71DDFD5748
:100D840023200500231285002303F5002105F1B774
:100D9400411126C222C44AC083A741B506C60144F4
:100DA4000149938441B589E7A165E12B05C401A8F4
:100DB40003C7E7FF6317A70215C8A165AD2E9840C6
:100DC400832784FF6316E4029CC0FD57232C04FE92
:100DD400230FF4FE2285B240224492440249410189
:100DE400828011E03E8983A787FF75BF3E84E5BFFB
:100DF400232CF9FED9BFB9C583C711D4411122C42C
:100E040006C62A842E856368F400313F0D45B2403E
:100E140022444101828083A785FF99E703C7E5FF48
:100E24009307F00F6305F700FD3D1545CDB7238FFC
:100E340085FE138541B5C93D22852244B240A16592
:100E44004101D5AC1545828023AA01B4828083A7D1
:100E540081B699E33E85828003D727006316B700E5
:100E640003C70700E308A7FEDC47E5B741119397E2
:100E740005014AC006C622C426C2C1872E8963DE84
:100E84000700393711C1453521653345A900B24002
:100E940022449244024941018280AA860145E5D94F
:100EA40001443D47B3578940858B8DCB83A401B65C
:100EB400BD4791E28147A2978E070545BE9433153D
:100EC4008500131405019C40C8404180829723A0EB
:100ED400040023A204003345240155BF0504E31391
:100EE400E4FC0144CDBF83A741D2411122C406C60C
:100EF400138481B085C7829708C00840B7470300B0
:100F04009387D73F3305F502B7A72600938737ECBD
:100F1400B2403E9508C0224441018280184083A714
:100F240001D5BA971CC0D1BF011122CC938701D43B
:100F340006CE26CA4AC883C6170003A681B5138401
:100F440001D4814713F7F70F6362D708938701F43D
:100F540003C777009147138901F463E0E70883C767
:100F640001F9918BBDEB6800EFE0105FFD56630063
:100F7400D50C938741D083C737013247938441D03E
:100F840063FDE704404403C744016304D406058BAE
:100F940039CB51473304E40263F187049730FF1FD0
:100FA400E78080BDB2476373F400A28703C73401AE
:100FB400998F3E958387440163C20704B707C0A88D
:100FC400636EF502B70740573E950DA88507139742
:100FD400170032970357E7FF35D7F2406244D244F3
:100FE400424905618280130790023304E4020580BC
:100FF40065B762076187635707001D8D19E93705D7
:10100400C0A801A8E37BF5FE3707C0A8B307F740E3
:101014003E9583A781D2829769F183278901D5DF21
:10102400EF50C13EEF505125EF50E1317DB75C44A4
:10103400E385A7FA138741D003474701938441D03E
:10104400058B0DC351443384870283C73401E3F60F
:1010540087F89730FF1FE78020B283C734011D8CC7
:10106400229589BF13049002338487020580F1BF5F
:101074002A9609E582800505A30FB5FEE31DC5FE8A
:10108400D5BF81473307F5000307070019E33E8501
:1010940082808507C5BF01112E8626CAAA8413152E
:1010A40006019305F004418122CC06CE32C6972076
:1010B400FF1FE78060772A8419C53246A6859730DA
:1010C400FF1FE780C08A2285F2406244D244056152
:1010D400828081476314F600054582803307F5005A
:1010E4008507B386F5000347070083C6F6FFE3834D
:1010F400E6FE014582809307F6FFBE952A966313A8
:10110400C5008280FD1583C715000505A30FF5FEF4
:10111400FDB7814711E9014582803307F500034794
:101124000700E31AB7FE8507E319F6FE054582803A
:1011340003A501D5828083C711D4637EF50093177C
:10114400150003A581B53E9583570500DD8D231059
:10115400B500014582800D458280011126CA93871E
:1011640001D422CC4AC84EC652C456C206CE5AC076
:101174007D57D8C703A481B62A8A0149938401D430
:10118400938A81B6938941D0184481476374EA00F5
:10119400B307474103A749021CC409C7D84463F3F2
:1011A400E700DCC4B1E3835524008DE95C44631695
:1011B400090423A0FA00032BC40022859720FF1FF3
:1011C400E780806F5A8469F0F2406244D244424915
:1011D400B249224A924A024B0561828003450400C7
:1011E400993F5C4081CB1CC483572400E1D32289FE
:1011F4004044D1BF1C44DDDBC5BF2326F90065BFD5
:1012040083C711D46370F5029317150003A581B544
:1012140093C5F5FF3E9583570500FD8D2310B5005A
:10122400014582800D45828083C711D46364F50033
:1012340001458280411122C426C24AC006C62A84BE
:101244002E89B284293101C504C5054515A09365CD
:1012540004F0C205C18141459720FF1FE780C05CAF
:1012640011ED83A741D381C7A2851145829701451A
:10127400B24022449244024941018280138781B6DC
:101284001C4385E308C385472326050004C52311B1
:10129400250123008500A300F5002322050075B76E
:1012A400BA87D84775FFC8C7F9BF5DC1397122DC59
:1012B40026DA4AD84ED652D45AD05ECE66CA6AC806
:1012C40006DE56D262CC6EC63689328AAE89AA84CC
:1012D4000144394D854BF94C03A701B6131C340066
:1012E400937AF40F62971C43938D01B6A9EF13B55B
:1012F400FA0013451500B3978B0063765D019307DD
:1013040014FFB397FB0093950701C1815286293FCF
:101314001DC983A70D000145E29784C323A23701A9
:101324006304090023005901F2506254D254425913
:10133400B259225A925A025BF24B624CD24C424D41
:10134400B24D216182800504E31894F92145E9BF77
:1013540009458280411122C426C24AC006C6AA8415
:101364002E893284D135CA852685D53409C940C130
:101374000145B24022449244024941018280214500
:10138400CDBF411122C426C24AC006C6AA842E89F2
:101394007D3C2A8419C123110500CA8526858D3513
:1013A400014511E01945B2402244924402494101E9
:1013B40082807547636BA70483A601B6411126C2D8
:1013C40093143500A696944222C406C6AA871384B1
:1013D40001B6094595C613B5F700394713451500FD
:1013E4006373F700C5178545B395F500C205C18140
:1013F400493F1C400145A69723A0070023A20700EC
:10140400B2402244924441018280094582804111C4
:1014140006C6353C09C50845B240410182800145F4
:10142400E5BFF54763ECA70483A701B6131735009E
:10143400BA979843894721C7011126CA06CE933427
:10144400F50022CCB94793C4140063F3A7004515F3
:1014540005443314A400420441802EC62685A28587
:101464007D378947324609C5A2852685753B814764
:10147400F2406244D2443E850561828089473E85BC
:101484008280239EA1B4239FB1B48280411106C6F9
:1014940023A2A1B60295B24023AAA1D401454101D9
:1014A4008280994763E8B70093972500938501D616
:1014B400BE9588C18280411106C622C426C2EFF0BF
:1014C4002FF871468145138501D65D36138401D406
:1014D400130600028145138501D4593E23A401B6A5
:1014E40023A201B683C701D29305101013D5270098
:1014F4008D8B3E958D473305F50299479384C1B68C
:1015040035051375F50F2301A4003305F502130502
:10151400050F9720FF1FE780203123A0A1B6834742
:1015240024001305050F88C08A073E9523ACA1B497
:10153400EFF09F91D12C834714009840B716010017
:10154400139627003A96938606E714C2138627005B
:10155400850793F7F70FA300C400B24022448A071B
:10156400BA9794C3924441018280138701D483477C
:1015740017008346270063FED70083A6C1B61386EF
:101584001700A300C70013972700369708C33E85AA
:1015940082809307F00FE5BF1C41638C070E4177EF
:1015A4007D8FB706002089476316D70E0357450081
:1015B40075C3411126C21946AA849305F00F590533
:1015C40006C622C44AC0B13605478D47630CE50AF6
:1015D4001306C0038145138541D0593C1306C0034B
:1015E400A685138541D09720FF1FE78040381389D3
:1015F40041D00357C900938741D009E7130700205E
:101604002396E70003C7E70001E705472387E700C0
:1016140003C7F70001E76D47A387E70003C7070186
:1016240001E715472388E70003C7170101E70547CA
:10163400A388E70003C7570109E703C70701A38A83
:10164400E70003C7270101E751472389E70003C7E0
:10165400E70109E713078002238FE70003C7370177
:1016640009E71307D002A389E70003C7D40101E700
:101674000947A38EE7009C5781C782972393A1D47F
:101684001D3D8147B2402244924402493E854101B6
:10169400828089473E858280011122CC06CE2A842D
:1016A4002EC6EFF05F84B245F240818D33A5A502CA
:1016B400229562441375F50F05618280011122CCD5
:1016C40006CE2A842EC6EFF01F82B245F240818DE9
:1016D40033A5A502229562444205418105618280B9
:1016E400011122CC06CE2A842EC6EFF0CFFFB245DC
:1016F400F240818D33B5A502229562440561828052
:10170400138741D01857011122CC06CE26CA4AC8E5
:101714004EC6138401F431CF138941D00297138745
:1017240001D403576700AA84938901D42DCFBA87C3
:101734006373A700AA87C207C183BA8663F3E40070
:10174400A686C206C182958F5147635EF70483273C
:10175400C90291C3829785472304F400EF50E11F27
:1017640023939900F2406244D2444249B24905614C
:101774008280834784008DE783479400850793F72D
:10178400F70FA304F400A18BF1DF85472314F400C1
:101794006244F240D2444249B24905616F5061212A
:1017A400A3040400F5B783478400CDDFD5B71387BE
:1017B40041D05857011122CC06CE138441D001C721
:1017C4002AC602973245938701B701CD88C33745AE
:1017D4000020130505B95D39F240624401450561F5
:1017E400828003074401635C0700138701D4232C20
:1017F400070037470020130707B498C3C9BF37470A
:101804000020130787B7D5BF011122CC138441D020
:10181400084406CE26CA19E50545F2406244D2447E
:10182400056182805C58EDDB185C7DD770008545CE
:1018340082971844B247E301F7FE0345E400835757
:10184400C4009305E0043305F502938401D44205F2
:1018540041819720FF1FE78020FDC8CC55DD8357C9
:10186400C4000346E4009305F00F3306F602EFF0DC
:101874003F80D04C08448357C40008C28345E40029
:10188400B385F5021C5C89818297C84C9720FF1FA1
:10189400E7808002014523AE040041B7411122C410
:1018A400938741D09C4726C206C6938401D4B1CF06
:1018B400138441D01C5CB1CBDC4C85E30345E400CC
:1018C4008357C4009305E0043305F50242054181C2
:1018D4009720FF1FE78040F5C8CCC84C1DC583572F
:1018E400C4000346E4009305F00F3306F602EFF05C
:1018F4002FF8D04C08448357C40008C28345E40041
:10190400B385F5021C5C89818297C84C19C5972060
:10191400FF1FE78060FA23AE0400B24022449244E1
:1019240001454101828001114AC8938701D422CC28
:10193400C04F4EC652C456C206CE26CAAA8AAE8923
:10194400328A138901D439E0938441D09C4499E3C9
:10195400A944BDA803C5E40083D7C4009305E004EB
:101964003305F502420541819720FF1FE780C0EB54
:101974002A8441C1DC58B5CF83C5E40003D7C40031
:101984002A868844B385E5028981829791451307A5
:10199400A005898193972500A29783C607006396C3
:1019A400E60483C61700639F560385058A054E86A1
:1019B400A29552859720FF1FE78060FB8327C9010A
:1019C40081446387870022859720FF1FE780C0EE4C
:1019D400F240624426854249D244B249224A924A9C
:1019E4000561828083D527006DB78327C901E38110
:1019F40087F622859720FF1FE78000EC91BF93872D
:101A040041D09447A9C2985F1DCF0546631DC50206
:101A1400411122C4138401D4504C06C60DC283C59F
:101A2400E70083D7C7003685B385F502898102971D
:101A3400484C9720FF1FE78020E8232E0400B24083
:101A4400224441018280828001114EC6938701D4D1
:101A5400DC4F22CC4AC852C406CE26CA2A8A2E8912
:101A64003284938901D4B1EB938441D003C5E4005B
:101A740083D7C4009305E0043305F5024205418190
:101A84009720FF1FE78040DA23AEA9002A8611E9D8
:101A94002945F2406244D2444249B249224A05618E
:101AA4008280884419C9DC5889CB83C5E40003D7F4
:101AB400C400B385E5028981829703A5C9019146D3
:101AC4001308A005FD5593D72600C207C1831397B9
:101AD40027002A9703460700631B06038348170061
:101AE4000356270063934803B306D64063CD26010B
:101AF40085078A073E954A86A2859720FF1FE780BF
:101B040000E7014579B7A300B700B2866DBF13861D
:101B140041D08345E6000356C600B385C50233862B
:101B240026011106E3E6C5F613063900719A11067B
:101B3400B29623000701A30047012311D7004DBF2C
:101B440083A6C1D58DCE91471306A0059305F00F4A
:101B540089838A07B69703D7270003C5070009833B
:101B64000A073697631DC500034517006316B500C1
:101B7400035727002391E70083D72700D1BF0145EE
:101B8400828083C705002300F50083D72500A300C6
:101B9400F50083D72500A1832301F50083C7450001
:101BA400A301F5001145828023AC01B623AA01B636
:101BB400828029C1411126C206C622C4AA840145D5
:101BC4008DC52E84B7E5020022854146938545B430
:101BD4009720FF1FE780A0D983C70400054523068B
:101BE400F40083C71400A306F400B24022449244D4
:101BF4004101828001458280011122CC26CA06CE91
:101C04000947AA8432846381E50441468147639B82
:101C1400C500638FE6006397B6000DA8414781476E
:101C2400638EE600F2406244D2443E8505618280C0
:101C34008A852285BD3F41468A8519A88A85953FB4
:101C440041468A85228531A0E39AB6FC2E86A28578
:101C54002685EFF00FC8AA87F1B723AAA1B6828020
:101C640023ACA1B68280011122CC0354650006CEB8
:101C740026CA4AC84EC641C083298500AE842A8834
:101C840003C9090081471317890161876355070256
:101C9400B147054563FA87045114420403552800EB
:101CA400418033878900A2864E868545EFB0F02CAB
:101CB400B337A00085077D141355690042040589D4
:101CC4001379F90341802380F400A380A4002381C5
:101CD400240123928400014719C01387190098C472
:101CE40009476383E7000145F2406244D244424914
:101CF400B249056182800545C5BFC167F917630A0A
:101D0400F502D94763F7B702011122CC2EC606CEDD
:101D14002A84EF701029B2456368B50022856244B5
:101D2400F24005616F90202CF24062440545056144
:101D3400828005458280C167F9176314F5006F70CE
:101D44005026411106C6EF90001A11E15D45B240DC
:101D54004101828091476394F50283470500230083
:101D6400F6008347250003471500A207D98F2311E6
:101D7400F6008347350001452302F60082801145B1
:101D840082804111814522C426C206C6AA84312D0F
:101D94002A8419E583A741B781C7F9452685829727
:101DA4002285B240224492444101828039714ED648
:101DB40056D25AD006DE22DC26DA4AD852D4AA8A6F
:101DC4002E8BB28941EF36C6BD379145EF70D02CCA
:101DD400AA844D492DC9B246054A238034010544DD
:101DE400630A0B00B68513851400029B05051314C2
:101DF40005014180E20993D9894163D30902C145B0
:101E04005685EF90401B654905E933868400A28519
:101E14002685EFB0005B2A8905E131044204418044
:101E240091472C085685231CF10026CE231D8100E2
:101E3400EF80D0312A8901C963070A0026859720DB
:101E4400FF1FE78060A7F25062544A85D25442597A
:101E5400B259225A925A025B21618280BA84014AA1
:101E6400ADBF011122CC26CA4AC84EC606CE2A8965
:101E74003284B689253FAA8419ED83A781B781CF1F
:101E840005476317E40003C4090005041374F40F41
:101E9400A2854A858297F240624426854249D2440B
:101EA400B24905618280AE86B72501000147054627
:101EB400938565B87DB783D705002300F50083D7E4
:101EC4000500A183A300F5000945828083D705009E
:101ED4002300F50083D70500A183A300F50083D771
:101EE40025002301F50083D72500A183A301F50074
:101EF4001145828083D705002300F50083D70500B0
:101F0400A183A300F50083D725002301F50083D71F
:101F14002500A183A301F50083C755002302F50022
:101F240083C76500A302F50003D5850019054205A2
:101F34004181828083D705002300F50083D7050003
:101F4400A183A300F5000945828083D705002300FF
:101F5400F50083D70500A183A300F50083D72500EE
:101F64002301F50083D72500A183A301F5001145C2
:101F7400828003D54500060542054181828083D7CE
:101F840005002300F50083D70500A183A300F50015
:101F940003D52500090542054181828083D70500C8
:101FA4002300F50083D70500A183A300F50083D7A0
:101FB40025002301F50083D72500A183A301F500A3
:101FC40003D54500110542054181828083C7050080
:101FD4002300F5000545828083D70500411122C402
:101FE40006C62300F50083D705002E841105A183BE
:101FF400A30EF5FE83D725009505230FF5FE83D7A1
:10200400D5FFA183A30FF5FE03C6F5FF9720FF1F9D
:10201400E780E09503454400B240224411054101A4
:1020240082808947639CF5008347150003470500B8
:102034000145A207D98F2310F600828011458280C2
:1020440003D70500D94763FEE702011122CC06CE6F
:102054002EC62A84EF70E074B24683D70600636DFF
:10206400F50022856244F240B72501000147094684
:102074009385A5EB05611DBBF240624409450561EA
:1020840082800945828091479DC583460500FD15E0
:10209400C2058547C1816392F60213D725008D8955
:1020A400914791E9914701CB05052301D6002310FF
:1020B400E60048C281473E85828009479147E39CF8
:1020C400E6FEC94733D7F502B3F5F502D1BFAE86B4
:1020D400B725010001471146938505EDC1B993F772
:1020E400350091EB8981914789C52310B60048C218
:1020F40081473E8582809147EDBF03C745008947EC
:10210400631AF702011122CC2A84C84506CEAE8692
:10211400014719C52EC69D45EFE01FBCB2462A876C
:1021240022856244F240B72501001946938585EF64
:102134000561ADB90945828099E1114582808347E3
:10214400050005472311F600E379F7FEFD1593F525
:10215400F50F33D7F502B387E702E390F5FE0505E3
:1021640048C22310E6000145828083C74500094721
:10217400AE866385E70041476399E700B725010010
:10218400014721469385C5FD15B109458280231079
:10219400B60091E1014548C201458280AE86B7256B
:1021A400010001472946938585F309B12310B60040
:1021B40091E1014548C201458280AE86B725010000
:1021C400014731469385E5F4D5B62310B60091E175
:1021D400014548C20145828003D74500854763FD18
:1021E400E702011122CC2A84884106CE0DC12EC6F5
:1021F4008545EFE07FAE2A8722856244B246F240ED
:10220400B72501003946938565F7056145B6F24067
:1022140062440945056182800945828091479DC5D4
:10222400034705008D46914763F2E602FD15C2059A
:10223400C181B3C6E5023308D702639905010505D8
:102244002310D6002311E60048C281473E858280D0
:1022540083C745000947AE866385E7004147639914
:10226400E700B7250100014741469385C5FD3DBE02
:1022740009458280B335B000139525008280011191
:1022840022CC26CA06CE03C785008547AA842E849D
:1022940049466310F7024534835724004915130651
:1022A400200963C8A700F2406244D244094505618D
:1022B40082800347940085476314F700136606047D
:1022C400484011C58D4532C6EFE01FA13246A286B3
:1022D4006244F2402A872685D244B72501009385BB
:1022E40025F80561E1B48D4763FFB7028347150004
:1022F40003470500F115A207D98F2310F600834781
:10230400350003472500C205A207C181D98F2311D7
:10231400F6002312B60089C5110508C6014582805E
:1023240023240600E5BF11458280011122CC2A84B2
:10233400884506CEAE8611C52EC69545EFE0DF99D9
:10234400B2462A8722856244F240B72501005946E5
:10235400938505FA05616FF07FA5B335B000139539
:1023640025008280AE86B72501000147614693852A
:1023740005FD6FF0BFA38547114563F4D70283477A
:10238400160083450600A207CD8F2310F70093871C
:10239400E6FF2311F70089476386F600090650C358
:1023A4000145828023220700E5BF01478146794623
:1023B40081456FF0BF9F83D705002300F50083D7C5
:1023C4000500A183A300F5000945828083C7250089
:1023D40005472300F50003D505006397E7000A05C8
:1023E4000505420541818280C9473305F502CDBF09
:1023F40003D505000A0542054181828083D7250063
:102404002300F50003D5050083D725003305F50225
:10241400050542054181828003D50500828003D5EC
:102424000500828003D50500828083D72500230020
:10243400F50003D5050083D725003305F50205050E
:1024440042054181828083D705002300F50083D7AC
:102454000500A183A300F50083D725002301F5001F
:1024640083D72500A183A301F50003D545001105F9
:1024740042054181828083D705002300F50083D77C
:102484000500A183A300F50003D525000905420535
:102494004181828089471145639BF600834716007A
:1024A400834606000145A207D58F2310F7008280DA
:1024B40003D70500D947AE8663FAE700B7250100C4
:1024C40001470D469385A53B6FF0BF99094582806E
:1024D40011456393A602834716008346060001450F
:1024E400A207D58F2310F7008347360083462600C2
:1024F400A207D58F2311F700828083C725000547E3
:10250400FD1793F7F70F6361F70483D705008DCFA9
:10251400011122CC2A84C84106CE15C12EC6894594
:10252400EFE08FFB2A8722856244B246F240B7254A
:10253400010015469385053D05616FF09F92F240B9
:1025440062440945056182800945828095471145A9
:1025540063F9D706411122C426C24AC006C683477E
:102564001600BA8403470600A2073284D98F239049
:10257400F400834736000347260093054400A2076E
:10258400D98F2391F40089472382F40009461385E7
:10259400540036899710FF1FE780603D9307A9FF19
:1025A4002394F4009947631BF90023A60400B24066
:1025B4002244924402490145410182801904C0C465
:1025C400FDB7828083D705008DCF011122CC2A84E8
:1025D400C84106CE15C12EC68545EFE0EFEF2A8728
:1025E40022856244B246F240B72501001D46938518
:1025F400453F05616FF0FF86F2406244094505617D
:1026040082800945828099476395F6048947411180
:1026140006C62302F7008347160083460600B285E8
:10262400A207D58F2310F700834736008346260080
:1026340003464700A207D58F130557002311F7005F
:1026440091059710FF1FE7808032B2400145410198
:102654008280D14711456394F600C1474DBF828003
:1026640083D705008DCF011122CC2A84C84106CE20
:1026740015C12EC68945EFE02FE62A8722856244DC
:10268400B246F240B7250100254693850540056111
:102694006FF02FFDF24062440945056182800945CF
:1026A400828089471145639BF60083471600834661
:1026B40006000145A207D58F2310F700828001117F
:1026C40022CC2A84C84106CEAE86014719C52EC63F
:1026D4008545EFE06FE0B2462A8722856244F240E6
:1026E400B72501002D469385C54105616FF06FF74D
:1026F40011456393A60283471600834606000145ED
:10270400A207D58F2310F70083473600834626009F
:10271400A207D58F2311F7008280011122CC2A84CD
:10272400C84106CEAE8611C52EC68545EFE0CFDA88
:10273400B2462A8722856244F240B7250100354615
:102744009385254205616FF0CFF193F7160011458B
:1027540089EB89476387F60085822312D70010C36B
:1027640001458280011122CC2A84C84106CE15C1BC
:102774002EC68545EFE04FD62A8722856244B246AD
:10278400F240B72501003D469385854205616FF00F
:102794004FEDF240624409450561828083D705000C
:1027A4008DCF011122CC2A84C84106CE15C12EC674
:1027B4008945EFE06FD22A8722856244B246F2400F
:1027C400B725010045469385E54205616FF06FE941
:1027D400F24062440945056182800945828085474B
:1027E40063FCD7022304A700A304B70083471600A1
:1027F40083450600A207CD8F2310F7009387E6FFD9
:102804002311F70089476386F600090650C3014582
:10281400828023220700E5BF11458280014781465B
:102824004D4681456FF0EFE38D47114563FBD702B9
:102834008347160083450600A207CD8F2310F700B7
:102844008347360083452600A207CD8F2311F70066
:102854009387C6FF2312F7006386A600110610C7EC
:102864000145828023240700E5BF011122CC2A847C
:10287400884506CEAE8611C52EC69545EFE0CFC578
:10288400B2462A8722856244F240B72501005D469C
:102894009385A54405616FF0CFDC854711456397A7
:1028A400F6008347060001452300F70082800147B4
:1028B4008146654681456FF0CFDA011122CC2A8426
:1028C400C84106CEAE86014719C52EC68D45EFE038
:1028D400AFC0B2462A8722856244F240B725010080
:1028E4006D469385A54705616FF04FCC011122CC4D
:1028F4002A84C84106CEAE86014719C52EC68D4529
:10290400EFE08FBDB2462A8722856244F240B725A4
:10291400010075469385A54705616FF02FC9011124
:1029240006CE2EC6EF80C05801C9B245F240035509
:10293400250005616FB0F00BF240494505618280C6
:10294400A38201BA238201BA23A601B823A801B83D
:1029540023AA01B823AC01B823A401B823A201B867
:102964009387C1D73707B40098C33747A000D8C3AB
:10297400370710009306070A94C7B7065000C1062C
:10298400D4C7930607054107D8CB3707D0074107BB
:1029940098CF3707840398D337C70700130707B8BE
:1029A400D8D3416794CB93060701130717F8D8D7F8
:1029B400417723AE070094D798DB8280011126CAA1
:1029C400AA84214522CC06CE2E8432C636C43AC20D
:1029D400EFE02FB81DC9A24612473246930700FD07
:1029E4002300F5009947A30095002301F500230374
:1029F400D500A303E5002312C500AA8522856244FD
:102A0400F240D24405616FE00FBFF2406244D24409
:102A14000561828023A6A1B8828023A8A1B8828000
:102A240023AAA1B8828023ACA1B88280011122CC50
:102A34004AC806CE26CA2A890144B30489006368B9
:102A4400B400F2406244D2444249056182802EC6F9
:102A5400EFE06FC993170501C183A183B2452380B9
:102A6400F4009307140093F7F70F850463F9B70094
:102A7400CA9709042380A7001374F40F7DBF3E8412
:102A84007DBF411122C4138401DB03556400C16777
:102A940006C6FD17630BF50003C681C39385C1B950
:102AA400EF80C02BFD572313F400B24022444101B0
:102AB400828009C925151375F50F1335850E134545
:102AC400150082800145828023800500F94763E276
:102AD400C708797122D426D24ECE56CA5AC806D611
:102AE4004AD052CC5EC63684B289AE8A2A8B8144DF
:102AF40063FF3405B307940003CA07001389140065
:102B04001379F90F63050A04B3072A0163C1F904B1
:102B1400B307240183CB07005E85613F0DC993078A
:102B2400FAFF2380FA0063906B03130519002295C2
:102B3400B250225492540259F249624AD24A424B48
:102B4400B24B45618280D29493F4F40F55B701459A
:102B5400C5B701458280011122CC26CA4AC84EC697
:102B6400938701DB06CE2E89D0CB8CCBC8C7AA8431
:102B740041469305F00F4A85EFE0AFD985491384A8
:102B840001DB631735030848C1454D3541469305BC
:102B9400F00F2685EFE0EFD705496313250348447A
:102BA4006244F240D2444249B249C1450561BDBDC7
:102BB400414681454A85EFE0CFD5E31935FDE1B7BC
:102BC400414681452685EFE0CFD4E30A25FDF24056
:102BD4006244D2444249B24905618280011122CC47
:102BE40026CA4EC6AE84AA8913060002138501DBE9
:102BF400814506CE4AC8EFE0AFC7138901DBA38D38
:102C040091C2A3013901EFB04060138401DB854711
:102C140019C1814749452300F400F2406244D2447B
:102C24004249B24905618280814781CD19C98547EE
:102C3400631BF50083C7550093E707FCA382F500E7
:102C440085473E85828089476317F50083C7550011
:102C540093F7F703E5B70D478547E314E5FE03C78C
:102C640055001377F70313670704A382E500D1BF68
:102C740081478DC105C103C755009306000C8547E4
:102C84001377070C6308D700930600048D4763038A
:102C9400D70089473E858280411122C4005D06C663
:102CA40026C21DC8AA84085009C59710FF1FE780D3
:102CB400A0C0485009C59710FF1FE780E0BF085423
:102CC40009C59710FF1FE78020BF22859710FF1FBB
:102CD400E78080BE23AC0402B24022449244410106
:102CE4008280938701DB09E903C7270013858701E5
:102CF40011C71385C1B7828013858701828003C5FC
:102D040021DB828003A5C1DB828003A501DC8280F4
:102D140083A741DC88438280938701DBD44B9842AC
:102D2400050798C203C537009307F00F6305F50044
:102D340091656FE04FC08280011122CC06CE2E84B3
:102D440032C6EF80C0259147B245631EF50083A7C4
:102D540081B985C303A30700630D03002285624480
:102D6400F2400561028383A701B981C703A3470029
:102D7400E5B7F2406244054505618280011122CC29
:102D84002A840355450006CE26CA4AC84EC6EF809B
:102D9400C00935C52A89834405008349C500ED3D32
:102DA4004A85EF80107803554400EF80C01A1389D8
:102DB40041BA83470900A1CB6397970483C551BAED
:102DC4002685EFF0DFB519E123000900035544001F
:102DD400EF80E01C9147631DF500938701DB835668
:102DE400440003D767006395E6007D572393E7000B
:102DF400F2406244D2444249B24905618280814929
:102E04009304F00F6DB79307F00FE381F4FC83464E
:102E1400640003564400034524004E87A685EFF062
:102E2400FFB96DB779715EC6AA8B2E8552CC56CA8E
:102E34005AC806D622D426D24AD04ECEAE8A328B77
:102E4400368AEF70907E79CD045D2A89E1CC9C505E
:102E5400614599C3130540039C5481C7510542053C
:102E6400418163050A00710542054181DC5081C737
:102E7400590542054181EFD0DFED2A8445C56146FD
:102E84008145EFE0EF9E83C9C1DA63940900834969
:102E94000900930700FD2300F400A947A30074016F
:102EA4002301F400230364018C50231254011305FD
:102EB400840191C908C47146930A44039710FF1F03
:102EC400E780E0AA56858C5491C948C45146930AB8
:102ED40045019710FF1FE78080A95685630C0A00FF
:102EE40008C87146D285930AC5019710FF1FE78071
:102EF40000A85685CC5099C548C859469710FF1F5D
:102F0400E780E0A6A2854E85EFD0FFEE2254B250B2
:102F14009254F249624AD24A424BB24B4A85025910
:102F240045619DBBB250225492540259F249624AFF
:102F3400D24A424BB24B4561828001114EC6AA89E6
:102F44002E854AC806CE22CC26CA2E89EF70F06D93
:102F540021C583C4C1DA99E0834405001945EFD043
:102F64005FDF2A8415C981451946EFE06F90930706
:102F740000FD2300F400B947A30034012301F40049
:102F840023122401A2856244F2404249B2492685B3
:102F9400D24405616FD03FE6F2406244D2444249D4
:102FA400B2490561828039715ECEAA8B2E8526DAFC
:102FB4004ED652D456D25AD006DE22DC4AD8AE843B
:102FC400328BB68A3A8ABE8942C6EF70106621C92E
:102FD4002A894145EFD0FFD72A8431C14146814532
:102FE400EFE00F8903C5C1DA19E10345090093072E
:102FF40000FD2300F400BD472301F400B247A30001
:1030040074012312940023046401A30454012305CE
:103014004401A30534015CC4A285EFD0DFDDF25086
:103024006254D2544259B259225A925A025BF24B18
:1030340021618280797126D2AA8439454AD04ECE44
:1030440006D622D42EC6B2893689EFD09FD021C1AC
:10305400B2459307000D2310F500B1472A842312CB
:10306400B5002301F500CE85190519469710FF1FF9
:10307400E780E08F23062401A2852254B25002592E
:10308400F24913F5F40F925445616FD0DFD6B25074
:10309400225492540259F24945618280411126C258
:1030A400938401DB03C7340006C622C44AC09307D5
:1030B400F00F630AF7042A893945EFD09FC92A849F
:1030C40039C1930700FD2300F500A3002501230166
:1030D4000500938584010D0519469710FF1FE780AD
:1030E400008983D78400A28503C534002315F40026
:1030F40083C714002306F4002244B24092440249D8
:1031040041016FD05FCFB240224492440249410151
:103114008280011156C2AA8A314526CA4AC84EC6BF
:1031240052C406CE22CCAE84328AB6893A89EFD014
:103134005FC239C52A842685EF70304F1DCD034503
:103144000500930700FD2300F4009D47A3005401EC
:103154002301F400231294002313440123143401A3
:1031640023152401A2856244F240D2444249B24963
:10317400224A924A05616FD01FC803C531DBD1B71B
:10318400F2406244D2444249B249224A924A056119
:103194008280397162CC2A8C594526DA4AD84ED6B7
:1031A40052D456D25AD05ECE06DE22DCAE8432C66B
:1031B40036C4BA8B3E8BC28A468A835901040349BA
:1031C4004104EFD01FB935C53246930700FDA2462E
:1031D4002300F5009547A301C500A3008501230141
:1031E400F5002A8419461105A9C2B6859700FF1F68
:1031F400E780E07723066401230A24012315740180
:10320400231754012318440123193401A28562545D
:10321400F2504259B259225A925A025BF24B624C12
:103224002685D25421616FD01FBD8145EFD05FE464
:10323400D1B7F2506254D2544259B259225A925AD6
:10324400025BF24B624C21618280411122C41384DF
:1032540001DB8347240006C626C29DC7AA851946FA
:103264001385C1B79700FF1FE780607003452400F2
:103274009385C1B7EFF05F9B2244B2401385C1B779
:10328400924441016FA03079B240224492440145F6
:1032940041018280411126C2938701DB06C622C404
:1032A4004AC003C737009307F00F938401DB63021E
:1032B400F7042A892945EFD0DFA92A841DC9930779
:1032C40000FD2300F500A147A30025012301F5001B
:1032D40083C724009385C1B7A301F50019461105DE
:1032E4009700FF1FE780A06803C53400A285EFD0D4
:1032F4009FB003C724008D47631FF70083A741B91C
:1033040099CB03A38700630803002244B24092448C
:10331400024941010283B2402244924402494101DC
:103324008280797122D406D626D24AD04ECE52CC8F
:1033340056CA09445DC92A8903550500AE8951441A
:10334400EF70B02EAA8455C1938781C383C7370019
:103354008546BA8AFD1793F7F70F494463F7F608D1
:103364000347C500A1476314F700639009089C5CF8
:103374004544A5EF9165938545711305C0029700F7
:10338400FF1FE780604A88DC2A8A4D4439CD130642
:10339400C0028145EFD0DFCD8357090093064A0070
:1033A40036852311FA0071469305490036C6970005
:1033B400FF1FE780C05B89472300FA0003C5C400F0
:1033C400B2460356090083C581C361151335150040
:1033D400EFA0E02D2A8463860900CE852685EF8040
:1033E400303F01C42685EFF03F8B2285B250225432
:1033F40092540259F249624AD24A4561828083C793
:10340400B1C30547FD1793F7F70F6378F7088947AA
:1034140051C6011122CC26CA4AC84EC652C406CE91
:10342400AA89368AB2842E89EF7030202A84D14743
:1034340029C9485509C59700FF1FE780E047F145B2
:103444002685EFD05FC548D4CD4705CD8346C4005B
:1034540021478147639FE600630D0A000347A501E6
:103464000356050193062501AA854E85EF80A02EFB
:10347400AA8703474400630F090013676700230208
:10348400E400F2406244D2444249B249224A3E85B1
:103494000561828013674700DDB7C9473E85828096
:1034A400E14763EAA700931715001385C1D73E953A
:1034B40003550500828041657D158280011122CC6F
:1034C4002A842E8526CA06CEAE84EF7010160DCD42
:1034D400B7470F009387F723094563E287028145C5
:1034E4000A854146EFD0DFB8A685231081000A85FE
:1034F400418023018100A3010100EF90D07DF240BF
:103504006244D244056182804945D5BFA38CA1C2DF
:1035140082806FA0E012797152CC2A8A328522D43B
:1035240026D24AD04ECE56CA5AC85EC606D662C401
:10353400AE8BB28A368BBA843E89C2894684EF70D8
:10354400D00E15C92A8C63140A0213774B008347E3
:10355400450015CF93E727012302FC008DEC631C83
:103564000902639A090205E8ED9B2302FC00832B00
:103574008C03639F0B06B250225492540259F249B1
:10358400624AD24A424BB24B224C45618280F59B3F
:1035940093E70701D1B793E747002302FC0001CC6E
:1035A4001C484146A2852324FC0213058C01970084
:1035B400FF1FE780C03B63910B02D5D80325CC02E3
:1035C40009C59700FF1FE780202FF1452685EFD01E
:1035D4009FAC2326AC0261BFE30B09F80325CC02A0
:1035E40009C59700FF1FE780202DF1454A85C5B71F
:1035F4009DC483A70B0299EB916593853571714541
:103604009700FF1FE780402223A0AB0203A50B0213
:1036140019C57146A6859700FF1FE780403563886A
:10362400090283A74B0299EB91659385257159454E
:103634009700FF1FE780401F23A2AB0203A54B02A4
:1036440019C55946CE859700FF1FE78040321DC437
:1036540083A78B0299EB916593851571514597006A
:10366400FF1FE780601C23A4AB0203A58B0219C5CE
:103674005146A2859700FF1FE780602F2254B25065
:103684009254F249B24B224CCA865A860259424B92
:10369400D6855285D24A624A45616FF0AFF801116E
:1036A40026CA52C406CE22CC4AC84EC62A8AAE8442
:1036B400EF70A07735C1AA893945EFD08FE92A8404
:1036C40021CD03C9C1DA6314090003C909009307B2
:1036D400000D2310F400AD472301F4009385690025
:1036E4001305340019469700FF1FE780402893F71D
:1036F4001400858085882306F400A306940023150E
:103704004401A2856244F240D244B249224A4A8525
:10371400424905616FD02FEEF2406244D2444249DF
:10372400B249224A05618280411122C4138441B8FE
:10373400084006C619C59700FF1FE780E01723203D
:103744000400B240224441018280011106CE22CC01
:1037540026CA4AC82EC6EF70406D29CDB24503C9AA
:10376400C1DA0CD5AA846314090003490500414554
:10377400EFD02FDE2A841DCD9307000D2310F50012
:10378400A5472301F50083C7540093856400110500
:10379400A30FF5FE19469700FF1FE780401D9C54B8
:1037A400A285F2405CC46244D2444A854249056120
:1037B4006FD06FE4F2406244D24442490561828092
:1037C400797122D406D62A842EC6EF7000660DCDF8
:1037D4008346C5001147AA8749456393E6029C5F67
:1037E400B24599C383C567010808EF805007B7D66F
:1037F40001009386068B100889452285EF70507A64
:10380400B2502254456182805145DDBF83C7B1C3A4
:103814000547FD1793F7F70F637AF704894721CA21
:10382400411122C426C24AC006C6B2842E89EF7052
:10383400C05F2A84D14705C5630809008347450052
:1038440093E727002302F5004146A685130584016A
:103854009700FF1FE780A0119C481CD48147B24009
:103864002244924402493E8541018280C9473E85F3
:103874008280797122D406D62A842EC6EF70E05A4B
:1038840001CDB2452285230EB1006C08EF80C070D3
:10389400B2502254456182805145DDBF6F7020666D
:1038A400C1671387E7FF6393E50283A701B991EB2F
:1038B400494582804945B24022449244024941012B
:1038C400828003A30700E30503FE0283411122C49F
:1038D40026C24AC006C6FD172A892E84B284639480
:1038E400F50283A701B991CB9C4381CB829711E563
:1038F400238221BBA38291BA7DBFA6854A85EFF0BE
:103904000F8255F9F5B72E85EF70205245D58347C0
:1039140005000D45E39127FB22852244B24002496C
:10392400A685924441016FA0D00C61476360A7044F
:103934004111416722C406C626C27D172A8409455F
:103944006381E502C547AE846315F4002E85EFA0BC
:103954001014931714001384C1D7A29723909700CF
:103964000145B2402244924441018280094582804B
:10397400011106CE2AC6EFE0BFFCEF10A01CED2516
:10398400EF90A16D938701DB130700F02391E7000B
:10399400238207003245138781C3FD56A300D70055
:1039A400F240238CA1C2954505616F50306B59716B
:1039B40093970501CAD086D6A2D4A6D2CECED2CCB5
:1039C400D6CADAC8DEC6E2C4E6C2EAC06EDEC18781
:1039D4002E8963DB074603C581C3EFD06FBB2A84FE
:1039E400138A41E5938401DB1DE021653345A90079
:1039F400B650265496540659F649664AD64A464B5A
:103A0400B64B264C964C064DF25D65618280834729
:103A140004001307200A639CE70083CB340003559A
:103A24002400C1652286FD15EFF00FB131AA13877A
:103A340081C3834B1700130710096393E71483476B
:103A440014001547639EE7002285EFF02FB322850B
:103A5400EFD06FAD03C581C3EFD08FB32A8469B7AC
:103A640039476393E714035544008567A507631337
:103A7400F5040C4403CD0500631B0D00850581C9C5
:103A84001946138581DC9700FF1FE78040EE03C7CA
:103A9400040085476316F70E63080D0023800400B5
:103AA4006A85EFF0AFDF65B789472380F400EFA0A4
:103AB400407671BF096793072700631CF504032D43
:103AC4008400630F0D0A83470D0089EF83472D009F
:103AD40003471D00A207D98F2394F40083473D00B8
:103AE400A380F40003C704008947631BF7088347D6
:103AF4000D0091C72380040003450D005DB783C505
:103B0400140003D584008D472380F400EF50D05770
:103B1400E5B7930757006318F5001C4403C5070075
:103B2400EFF04FF72DB7F977E917AA97C207C183CA
:103B3400914663EEF60083A741B9E38A07F09C43FC
:103B4400E38707F022858297E31305F015A82D0774
:103B5400631EE50083A7C1B8E38B07EE9C43E388AB
:103B640007EE0965A2852D058297F9BF896713873A
:103B7400C7006310E5021C4483C70700E38907EC10
:103B84009307F00FE385FBECA2855E85EFD0AFA62B
:103B9400D1B5B907E316F5FE83A701B9E38907EAAE
:103BA400DC43A285F1F365B53D476397E70403550C
:103BB400440089671387D700E300E5FE1387970164
:103BC400E30CE5FCCD07E31DF5FA03D76400C167F8
:103BD400FD17631DF70083A701B9E38A07E6DC43F9
:103BE400E38707E60965A2854D05BDBF83A781B9B3
:103BF400E38F07E49C43EDB71307E003E392E7F890
:103C04008347240005476393E70E83476400938D3D
:103C140041B8F1E383A70D00C5CF03CD0700A14B45
:103C240003457400930C8400E685EFF06F848347AA
:103C34004401A303A400835804010358E400035778
:103C440044002A86034534003EC283572401E68695
:103C5400EA853EC0DE87EFF0CFD38347340095E793
:103C6400DD47835804010358E400834674008355F8
:103C740044003EC28357240166873EC0DE87054662
:103C84006A85EF700047A301A40083A70D0081C7D4
:103C94001145EFF07FA9138D41BA03450D00E308E8
:103CA40005DA83C551BAEFE09FC7E30205DA83461C
:103CB400340093071003638AF600035644008345D7
:103CC4000D005E873685EFE07FCF238201BA41B3D2
:103CD40003CD3400A9B783A741B903CD3400914B78
:103CE400A1D3DC4395DF014582971DBF2947639A21
:103CF400E70883476400938D41B8ADEB83A70D00BB
:103D0400BDC303CD0700A14B0346740083470402DF
:103D14008358C401058AA303C4000358A4010357AC
:103D24004400034534003EC28357E4011303840076
:103D34009A863EC0EA85DE871ACEEFF08FC58347A8
:103D440034007243B9F3DD478358C4010358A40116
:103D540083467400835544003EC28357E4011A87A6
:103D64003EC0DE8729BF03CD340071BF83A741B9AC
:103D740003CD3400914BC9DBDC43D9D7014582978D
:103D840061B70947639CE70083A7C1B8E38107CC07
:103D9400DC43E38E07CA2285829755B92D47639881
:103DA400E70083A7C1B8E38407CA9C47DDB70D4782
:103DB4006397E70022868D4503554400B5B1194742
:103DC4006395E7069305610213051031EF90A13363
:103DD4002C1013052031EF900133035664008357F0
:103DE40081020355440063E8C700835684000357E7
:103DF400610263F7E60093050002EFA0404881B931
:103E04006374E6002313E40063F4D7002314F4007E
:103E14000357C4008356A4000356840083556400EA
:103E240001488147EFA060451DB11D47E39AE7D4DF
:103E340003574400E3E6E7D4835764000607529728
:103E4400F1172310F7002DBB93F7150099CB83A727
:103E5400C1B889C7DC4399C301458297134519004A
:103E640041BE93F7250099CB83A741B989C7DC43A9
:103E740099C305458297134529009DBE93F74500D4
:103E84000145E38707B683A781B8138401DB99CB87
:103E940085472302F40083A741B989C7DC4399C34A
:103EA4000545829748442C10EF90604C2810EFF0A1
:103EB400CFB983D7E1D991CB130600643386C70207
:103EC40003C581C39145EFD02FB6134549000DB604
:103ED400411122C42A84554506C6EFF06FDCB33580
:103EE400A00022852244B24041016FA04034797180
:103EF40022D406D68D472E84631FF50003D7A50070
:103F040083D6850003D665000345340083D5450078
:103F1400EFF02FA009A889671387D700631FE50274
:103F240003C5250019E58547B25022543E854561F5
:103F3400828083A641B8E5DA03C6360083C506004D
:103F4400814802C202C00148814701479106EFF04F
:103F54004FA40545EFF04FFDF9B71387E700E304DD
:103F6400E5FC13873701631AE50003C5250045DD29
:103F7400014781460146814561BFE507E305F5FA3E
:103F840041677D178147E311E5FA03C75500C94727
:103F9400E31BF7F883D6E50003D6C5000355840078
:103FA40083D5A500EFA0202F51C15D45EFF04FCF81
:103FB4003335A000231CA10083454400035524008D
:103FC4003008EF60105B83578101B1FF6C08130563
:103FD4001031EF9041139305E10113052031EF9067
:103FE40081128357C101035784006374F7002314BB
:103FF400F4008357E1010357A40063F4E700231599
:10400400F400835584008357A40063F4B700231598
:10401400B4000357E4008356C4000356A4000355B8
:10402400240001488147EFA04023F5BD8547231CA8
:10403400F10059B7C1671387E7FF639CE50083A7C5
:1040440041B88DC383C707000D47639BA7006FA0CA
:104054000020FD1749476395F50083A741B8E5FBA8
:104064003A8582804947EDBF238801BA23AC01BA5F
:1040740023AA01BA37470100938701DD130747508C
:1040840098C3374701001307C753D8C33747010004
:104094001307076598C737470100938781BA130749
:1040A400870398C337470100130727EFD8C38280DB
:1040B40039714AD883A781BB06DE22DC26DA4ED6C4
:1040C40052D456D25AD05ECE89EF0545F25062548E
:1040D400D2544259B259225A925A025BF24B21618C
:1040E4008280034705008547138981BB2A846300C6
:1040F400F70403468500930695009305F1000545F2
:10410400EFE09F9C814719C1834705008346040063
:1041140011476386E60203A741BB8D460347170098
:10412400630FD70089CF01CF11E5014545B781471A
:104134000145E9BF8546631AD7088D8BFDD7034532
:104144001400130B2400DA85EFE09FB2A300A4004F
:10415400832709002A8A8149A1C3930BF00F83C7DF
:1041640001BB63FBF90203250900939A49005695A4
:10417400834705006380770783471500639C4705E1
:104184001946DA850905EFC0DFF429C5832409003F
:1041940003470400D694A9E4834604009147E386C8
:1041A400F6F883270900D1D303C601BB9305F00FAA
:1041B4000147E30CE6F6BE84C10703C507FF6305A8
:1041C400B50C05071377F70FEDB78946E31FD7F44E
:1041D400858BADB7850993F9F90F51B788C4E5A06C
:1041E4009147631AF706C84405C58347840003460C
:1041F40005006304F606034704009147631BF706B2
:10420400C84419C597F0FE1FE780006B23A604007D
:104214000345840091659385E571050597F0FE1FBC
:10422400E780806005C5034704009147631CF704D9
:10423400C8C483478400930594000505A30FF5FEC5
:104244000346840097F0FE1FE780607203458400F4
:104254003335A000A5BD884441BF930594000505EE
:10426400EFC03FE78547E318F5F85545EFF04FA356
:10427400BDA8884451DD97F0FE1FE780E06323A4C6
:10428400040079B788C475B72380D4008347140029
:10429400DA8513852400A380F400194697F0FE1FE5
:1042A400E780E06C0345840091659385F57105050D
:1042B40097F0FE1FE780405705C503470400914768
:1042C400E31EF7F0C8C483478400930594000505F2
:1042D400A30FF5FE0346840097F0FE1FE7802069D4
:1042E40083478400E39307DE034504007D151335FB
:1042F4001500E9BB011122CC83A781BB06CE26CAD7
:104304004AC84EC652C48DC3138481BB2E8AAA8464
:104314000149084063129902630C0A0497F0FE1FD6
:10432400E780805923200400F2406244D244424989
:10433400B249224A0561828093194900B3073501C5
:10434400884709C997F0FE1FE78000571C40CE97A5
:1043540023A407001C40CE97C84709C997F0FE1F45
:10436400E78080551C40BE9923A60900050955B76E
:1043740045DD139644008145EFC09FCF144081472B
:104384007D5613F7F70FE37197FA139747003697A3
:104394002300C7008507F5B779714AD083A741BBCD
:1043A40006D622D426D24ECE52CC56CA5AC85EC69F
:1043B400D1CFAA89138941BB938A01BB014411ED72
:1043C40083A681BB99CA03C60A002A848147930540
:1043D400F00F13F7F70F6366C708131534002105B0
:1043E400EFC03F97AA8401E92145EFC09F96AA84B4
:1043F40031C10144CD49930700FD2380F400854772
:10440400A38034012381F400A381840055C49389DB
:10441400840023A23401014A930BF00F83C70A00DE
:104424006373FA0039E883270900A68503C50700EA
:10443400EFC07F9C03C50A0081456D3D032509003B
:1044440097F0FE1FE780404723200900B250225412
:1044540092540259F249624AD24A424BB24B4561E4
:104464008280139747003697034707006305B70018
:1044740005041374F40F8507A9BF83A781BB9315A3
:104484004A00BE9583C70500638477032380F9003F
:1044940083C71500138529007D14A380F9001946EC
:1044A40089051374F40F97F0FE1FE780404CA109AF
:1044B400050A137AFA0F9DB723A20400ADB7411180
:1044C40022C406C62A8405E10945EFE07FFD2A8659
:1044D40011C503C581C38545EFC01FD50545EFF060
:1044E4003F9F2A8409C903C581C38545EFC07FE97D
:1044F4002285EFF07FEAB2402244054541018280E3
:1045040089671387B7006319E50083A741BB95C387
:104514009C4503C5070065B71387C7008147631B24
:10452400E5009C4503C50700854709C583A741BB32
:10453400FDF381473E858280797106D622D426D246
:104544004AD04ECE52CC56CA5AC85EC662C461CD59
:1045540083473500AA8995C3404105C05945EFE01A
:104564003FF4931A850193DA8A410149130B000D34
:10457400B54B83C73900636EF900B250225492548C
:104584000259F249624AD24A424BB24B224C45612B
:1045940082808307840263CF570783A741BB138CB0
:1045A40041BBADCB2285EFF0BFB02DC503458400E0
:1045B4005105EFC00FFAAA8431CD23106501230100
:1045C400750183470400194693052400A301F500EF
:1045D4008307840215052303F50083471400A30F02
:1045E400F5FE97F0FE1FE78080380346840023869B
:1045F400C4001DC61385440188C89305940097F030
:10460400FE1FE780C03683270C00A68503C507007C
:10461400EFC06FFE0509130494021379F90F91BFDB
:1046240023A80400CDB783A741BBA1DBEFF0DFD6FD
:104634002254B25092540259F249624AD24A424B2D
:10464400B24B224C014545616FF09F88797106D6C3
:1046540022D426D24AD04ECE52CC56CA5AC85EC6AE
:1046640062C479C183473500AA8995C3444185C092
:104674005945EFE0FFE2931A850193DA8A41014933
:10468400930B00FD414C83C73900636EF900B250AF
:10469400225492540259F249624AD24A424BB24BD2
:1046A400224C456182808387F40063CA5707138ACA
:1046B40041BB83270A00A5C75145EFC08FE92A846F
:1046C40039CD23007501A30005002301850183C7AB
:1046D4000400194693852400A301F5008387F400A0
:1046E4001505A306F50083C71400A30FF5FE97F084
:1046F400FE1FE780C02783C78400938594001305B9
:10470400C400A305F400194697F0FE1FE780202695
:1047140083270A00A28503C50700EFC0CFED050972
:10472400C1041379F90F85B783A741BBADD3EFF06B
:10473400BFC62254B25092540259F249624AD24A34
:10474400424BB24B224C014545616FF06FF883A791
:1047540041BB95C703C707008D476313A70203C571
:1047640081C34111854506C6EFC0BFC113050003CF
:10477400EFF09FC2B240014541016FF06FF5C947A8
:104784003E858280797126D2938441BB9C4006D6B3
:1047940022D4BDEF03C7B1C3C947298B25C791658F
:1047A4002A849385D571114597F0FE1FE780C007D1
:1047B40088C0CD4721C91146A28597F0FE1FE78026
:1047C400001B1545EFE0DFCDAA841945EFE05FCD6E
:1047D4002AC69305F1011305F041EF70C13B93879D
:1047E40001DB83C627000347F1013246B336D0000C
:1047F40011C389060347340003452400A685EF90BE
:10480400D022AA87B250225492543E8545618280B8
:10481400C547CDBF83C7B1C35D71A2C486C6A6C256
:10482400CAC04EDE52DC56DA5AD8A18B4944638A98
:10483400070E83A741BB41446395070E2A89EFF015
:10484400EF8583C741C25544637DF50C83A741B806
:1048540045446398070C91659385C571294597F084
:10486400FE1FE78060FC23A2A1B84D445DC9294620
:10487400CA8597F0FE1FE780800F83A741B883C7DE
:104884001700DDCB2D45EFE0BFC12A843145EFE0B1
:104894003FC12A899305F1021305F041EF70A12F5E
:1048A400938701DB83C727000347F102B337F00086
:1048B40011C3890741453ECEEFE09FBE2A8B3D459B
:1048C400EFE01FBEAA8A3545EFE09FBD2A8A39452D
:1048D400EFE01FBDAA892145EFE09FBC2ACC1D450E
:1048E400EFE01FBC03A741B82ACA0345370093056C
:1048F4004700EFE06FB303A741B8E24852480346CC
:104904002700F247AA865AC6228556C452C24EC010
:104914001107CA85EF90F0112A8401C50D45EFE017
:10492400BFE02285B640264496440649F259625AAD
:10493400D25A425B616182802545EFE07FB62A84CA
:104944002945B1B783C7B1C30145A18B99C3138569
:1049540081BA6FE08F8C411122C4138401BB26C23B
:10496400AA8403450400854506C6EFF0BF9883C7B3
:10497400B1C3A98BB5C723009400138501DDEFE013
:104984006F89938481BB9C4099C74D45B2402244B2
:104994009244410182800345040019E10145FDB7B9
:1049A40091659385B571120597F0FE1FE780C0E706
:1049B40088C061DD0346040081451206EFC04FEB59
:1049C4008346040090408147FD5513F7F70FE377C2
:1049D400D7FC1397470032972300B7008507F5B734
:1049E400014523000400EFE0EF824DBF411122C4D2
:1049F40003A581B806C619C597F0FE1FE780C0EB72
:104A040023A401B8B240224441018280011122CC86
:104A140006CE26CA8D472E846313F50603C73500D8
:104A2400E94703D54500938401DB6316F70083D778
:104A340064006382A706EF60403F09C583576400A2
:104A44002317F5000357A40083568400035664001B
:104A54008355440003453400EFE0AFEB03574400B3
:104A640083D764006309F7008547F2406244D24467
:104A74003E8505618280FD572393F400F5B789676D
:104A8400CD07631DF50083C7250031476385E70023
:104A94004547E39BE7FCEFD0DFFEF9B741677D179D
:104AA4008147E314E5FC83C655004947E39FE6FAD2
:104AB40083C5450003552400300023140100EF6032
:104AC40020265DB7797122D483A781B806D626D271
:104AD4004AD00545B5C30D45EFE09F9CAA84114516
:104AE400EFE01F9C2A899305F1011305F041EF7053
:104AF400810A938701DB83C627000347F101B3369C
:104B0400D00011C3890683A781B836C603C5370010
:104B140093854700EFE04F9103A681B8B2462A87F8
:104B24008348B6000348A6009307460003462600C0
:104B3400CA852685EF90606EB25022549254025971
:104B4400456182807D572386E1B0239E01BA23A26A
:104B540001BC23A401BC23A601BC375701009387E1
:104B6400C1DD1307E7BD98C3375701001307C7EB2F
:104B7400D8C337570100130787AC98C7B75701004C
:104B8400938707A123A0F1BC8280411126C283A789
:104B940081B806C622C48DCF2A840D45EFC06F9B11
:104BA400AA8505C1930700FD2300F5008D47A300E6
:104BB40085002301F50083A781B803C50700EFC072
:104BC4008FA319C42244B240924441016FF01FE202
:104BD400B2402244924441018280797126D28354A6
:104BE4004500896706D622D44AD04ECE52CC56CA46
:104BF40013876700639EE40283A781B8014481CFD1
:104C040018450345070015E10547A380E70005455E
:104C1400EF90606105442285B250225492540259A7
:104C2400F249624AD24A45618280EFF01FF6DDB74D
:104C340013879700636797041384C1B00347040084
:104C44009307F00FE308F7FC1C45114503C907005F
:104C5400EFC02F90AA855DDD930700FD2300F500CA
:104C640089472301F500F977E117BE9493B4140042
:104C7400A3002501A301950003450400EFC0AF97ED
:104C840051BFA9070144E398F4F883A781B8CE8AF9
:104C9400D9D3184503C417008547034A070013896D
:104CA40001DB630CF40283474900ADF70D45EFC007
:104CB4004F8AAA8505C1930700FD2300F50091479B
:104CC400A30045012301F50083A781B803C50700AC
:104CD400EFC06F92EFF09FD135BF83A741BC91EF36
:104CE4000145EFE0EFFB2A8611C603C581C3894560
:104CF400EFC08FD383A781B8A9A003C6070093860A
:104D040017009305F1000545EFD01FDC71D98347E7
:104D14000500858BF1D70545EFE08FF89307B003C5
:104D2400AA8463F9A70203C581C35D6613060670EE
:104D34008945EFC02FE2938444FC239E91BA83A754
:104D440081B80947A380E7008347490089CB230240
:104D54000900D1B5130600643306C50271B7528544
:104D6400EFF0BFE24DBD79714ECE83A781B822D456
:104D740006D626D24AD052CC454489EB938781C3C8
:104D840083C7370013F7570019EB49442285B25003
:104D9400225492540259F249624A4561828003A71F
:104DA40041BC414465D7034707006DD3858B2E89E9
:104DB4002A8AC9C7834709000547F91793F7F70FEC
:104DC400E365F7FC916593857571314597F0FE1F96
:104DD400E78080A523A4A1B84D444DD92300450103
:104DE400A30005002946CA85090597F0FE1FE78040
:104DF40000B8930571001305F041EF60D159834762
:104E04007100A9E703C721DB8D476311F704EFD0D5
:104E14007FEF2C00EF80A0552800EFE00FC345453D
:104E2400EFE00FE801443DD1130600643306C502E8
:104E340003C581C39145EFC02FBF89BFEFE01FA613
:104E44002A84EF60800EE377A4F6ADBFEFF09FC72E
:104E54002A840DDDEFF09FB915BF411126C283A747
:104E640081B806C622C44AC0A1C383C707000D4443
:104E7400639DA70203C581C38945EFC08FD003C5D5
:104E840081C39145239E01BAEFC0AFCFA38A01DA53
:104E940083A781B80145A38087002244B24092448D
:104EA400024941016F90203849442285B24022448E
:104EB4009244024941018280411106C622C426C29D
:104EC40085476315F5061384C1BB83570400A1C746
:104ED40003C741DB29E31307B0036369F70203C582
:104EE40081C38945EFC0EFC90356040093070064EA
:104EF40003C581C33306F6028945EFC0EFB2231020
:104F04000400B2402244924441018280938747FCCA
:104F14002310F400FDB783A781B8E5D72244B2403B
:104F2400924403C5070041016FF03FF383A781B8A2
:104F3400E9DB938781C383C73700918BF9D303C51A
:104F440081C38945EFC0EFC32244B2409244239EFB
:104F540001BA41016FF09FA983C7B1C3958BD9CF23
:104F6400B9CD83A741BCD9CBFD4763EBC70811C2B8
:104F7400C1CA411122C44AC006C626C22386A1B0B2
:104F840036893284A1C1938441BC88407D468145E1
:104F94000505EFC0EF8D8840CA852286050597F088
:104FA400FE1FE780C09C8C4022852380850022441C
:104FB400B24092440249850541016F90402683A77F
:104FC400C1BC55B79384C1BC88407D468145050565
:104FD400EFC00F8A8840CA852286050597F0FE1F18
:104FE400E780E0988C402285238085002244B240EB
:104FF40092440249850541016F90A022494582806F
:1050040009458280797106D622D426D24AD04ECE62
:1050140052CC8D4763FCA70009442285B250225428
:1050240092540259F249624A4561828003C701DB06
:105034004144E314F7FE938701DB83C927009307F8
:10504400F5FF93F7F70F85462E842A89938401DBB5
:1050540063E4F60695E199452800EFD03F9D03C52A
:1050640081C3914523812401EFC0AFB1A382040021
:1050740029CC2381340155B7194681452800EFB066
:105084003FFF19462C002285EFC0AF8451F5194625
:105094009305F00F2800EFB0BFFD19462C002285C0
:1050A400EFC02F8335F9A2851946280097F0FE1F1B
:1050B400E780E08B014465B70144E312E5FAC84494
:1050C4002C00EF80C02A2A8459BF631409000144CC
:1050D400A9B72800EFE06F972A8441FD8D47E318B4
:1050E400F9FE4545EFE0CFBB1375F50FA382A4008D
:1050F40079DD03C581C35D66130606709145EFC073
:105104006FA521BF83C7B1C3918B89CF411113858B
:1051140001BC06C6EFD03F91B2407D57239BE1DA34
:105124004101828001456FD01F90411122C403A523
:1051340041BC06C626C24AC0138441BC19C597E0C7
:10514400FE1FE78060772320040003A5C1BC93847D
:10515400C1BC19C597E0FE1FE780007623A00400B8
:10516400138981C383473900958BADCB1385C1DD8A
:10517400EFD01F8B83473900958B81EB4D45B240AF
:105184002244924402494101828011699305697164
:105194001305000297E0FE1FE780006908C079DD6F
:1051A400130600028145EFB0BFEC93055971130556
:1051B400000297E0FE1FE780206788C001C913063C
:1051C40000028145EFB0DFEA014555BF084097E092
:1051D400FE1FE780606E232004004DB70145EFD029
:1051E4003F84DDB703C70500937625009377D70F77
:1051F40099C293672700131885011358884113F740
:10520400F7076354080013E707089376850093773C
:10521400770F99C2936787001377050293F6F70D0A
:1052240019C393E607022380D500634508009377EA
:10523400A50281CB8347060093E7C7002300F6004D
:1052440082807DFD83470600CD9BCDBF2D4563172E
:10525400071403C805000947631EE812C841034741
:105264001500034505002207498F42070D65418754
:10527400930825A06309170B011122CC26CA4AC83A
:105284004EC606CEBE89B68432842E8963CEE8002B
:10529400930705A0630DF702130515A0630EA70479
:1052A400239004000545A5A0930745A06307F708CC
:1052B4006346F706130565AAE314A7FE8547239002
:1052C400F600DC4583C707002300F60081A0C8452B
:1052D400EFB03FDB420541814E86637335012A8678
:1052E4002390C400420641828325C900228597E0A9
:1052F400FE1FE780C06719A8DC4583D70700239009
:1053040006012300F600A183A300F6000145F24044
:105314006244D2444249B24905618280994723904C
:10532400F6001946D1B785472390F600DC450145C0
:1053340083C707002300F6008280DC45A9CB214700
:105344002390E60003D707002300E60003D70700F5
:105354002183A300E60003D727002301E60003D737
:1053640027002183A301E60003D747002302E600B8
:1053740003D747002183A302E60003D76700230372
:10538400E60083D76700A183A303F60041B7239007
:105394000600ADBF2390060005458280828083C845
:1053A400050089476391F814DC41797122D406D64B
:1053B40026D24AD04ECE52CC03C8170083C707006A
:1053C4002E8422083368F80042088D671358084178
:1053D400138327A0630A680E2A8A3A89B684B285A1
:1053E400634C0301138707A0630AE802938717A09D
:1053F4006303F808854711A8138737A06303E80AF5
:10540400138767AA8D47E317E8FEB25022549254DB
:105414000259F249624A3E8545618280484432C657
:10542400EFB03FC6420541819D47E36025FFB309C4
:105434009900D547B24563D43701B547F9B7484415
:105444002686C2094A9597E0FE1FE78040524844E9
:1054540093D9090159463306364181454E95EFB03B
:105464003FC183A741BD99E3814745B79C4381452B
:10547400E5DF52852DA0AD47E31909F8E39F16FB3C
:1054840083471600834606005844A207D58F23108D
:10549400F70083A741BDE9DB9C438545F1D782979B
:1054A400E1B7AD47E31309F69947E398F6F84844A2
:1054B400194697E0FE1FE780804B83A741BDCDD7F7
:1054C4009C43DDD38D4575B7AD4721F38547E396FE
:1054D400F6F60347060093070008E3E8E6F2DC4526
:1054E4002380E70051B785473E85828023AA01BC0B
:1054F40089472388F1B0138F01B18147938E81DEF0
:105504005947B386FE00238006008507E39BE7FE28
:10551400B707A000938541B1938707059CC1B707DE
:10552400E803DCC1238901BC37E60200938741A06C
:1055340013060602D0C337E602000947138ED1B022
:10554400130646FF2300EE00D0C723AEE70123AEC7
:10555400C70337E6020037EF020037EE0200854644
:1055640013064600938811B1138301BD1388F1B06B
:105574001385E1B0130FCF00130ECEFF2380E80094
:105584002380E7002388E7002380E7022388E702DB
:105594002380E7042300E8002384D7002395070031
:1055A400D0CB238CD700239D070023A2E7032384B9
:1055B400D7022395070223A6D703D0DB238CD70277
:1055C400239D070223A2C7052384D7042395070438
:1055D400231003002300D50023A667042388E704CF
:1055E40023AE17052380E7062388E7062380E70810
:1055F400B7E8020037E70200130707009388C801E1
:1056040023A2E708F0CB238CD704239D070423A20D
:1056140017072384D70623950706ECD7F0DB238CE2
:10562400D706239D070623AE07072384D7082395AF
:10563400070823A6A70837570100938741A9130732
:10564400072598C3375701001307273AD8C323A463
:1056540007008280A54763E1A70CB7E702009387A0
:1056640047B50A053E951C41411122C426C206C60F
:105674004AC0B2842E848287D547614563E1B7026C
:1056840059468145138581DEEFB09F9E2286A6850B
:10569400138581DE97E0FE1FE780602D0145B2404F
:1056A4002244924402494101828089476145E3983A
:1056B400F5FE035706002398E1BCCDB7A147614529
:1056C400E39FF5FC2146A685138541B1EF80C13BDC
:1056D400F1B785476145E394F5FC938541A0D04D2E
:1056E4009385850203C50400EFF0DFAF45BF85470E
:1056F4006145E396F5FA938541A0D05D93858504D1
:10570400D5B785476145E39CF5F803470600238731
:10571400E1B069B7094561B7094582800547630A65
:10572400E5024111AA8706C62E8599CB11476388E5
:10573400E7022547638BE7020945B24041018280B5
:105744005546938581DE97E0FE1FE78040220145A0
:10575400EDB783D701BD01452390F5008280214632
:10576400938541B1EF804132DDB783C7E1B0238037
:10577400F500F1BF938721BD03C7070011EF05476B
:105784002380E700058909C9938641A94146A545B7
:10579400138541A06F30805C01458280011113881C
:1057A400F5FF06CE22CC26CA4AC84EC652C4137888
:1057B400F80FAD4563ED050BB7E502000A089385C4
:1057C400C5B72E983E8A83270800BA893689B284E1
:1057D40082878545EFD08FC02A8419E1EFF0FF94CA
:1057E4002285F2406244D2444249B249224A0561C8
:1057F40082808945EFD08FBE2A847DF12685EFF023
:105804008F95F9BF9145EFD06FBD2A8471F9528607
:10581400CE854A85EFD02FB4EFF03F91EFF09F8E05
:10582400EF70B06775BFA145EFD04FBB2A844DF927
:105834005286CE854A85EFD00FB22685EFF0AF9120
:10584400EFF04F90EF70F04761BFB145EFD00FB963
:105854002A8459F55286CE854A85EFD0CFAF268566
:10586400EFF06F8FEFF00F8EEF70B04575B709440E
:1058740085BF79714ECEAE896C0022D426D24AD02F
:1058840006D62A89B284EF0070752A840DE1CE858C
:105894004A85EFC0BF902A8419E93245B726010032
:1058A4002687938626192D468145EF10000E228502
:1058B400B250225492540259F2494561828079715E
:1058C4004ECEAE896C0022D426D24AD006D62A897E
:1058D400B284EF00B0702A840DE1CE854A85EFC012
:1058E4001F9A2A8419E93245B72601002687938630
:1058F40086274D468145EF1040092285B250225437
:1059040092540259F24945618280397126DAAE8493
:105914004C0022DC4AD84ED652D406DEAA893289FB
:10592400368AEF00B06B2A8431EDA6856303090241
:1059340083D704002C002314F10083D724002315FB
:10594400F100930720302316F10093078002230708
:10595400F1004E85EFC07F812A840DE55946A68566
:105964001305A1002304210197E0FE1FE780200016
:105974001245B726010052879386C61325462C008C
:10598400EF10A0002285F2506254D2544259B25909
:10599400225A21618280797126D2AE846C0022D48D
:1059A4004AD04ECE06D6AA893289EF0030632A84C3
:1059B4000DE1A6854E85EFC05F802A8419E9324542
:1059C400B72601004A879386061B3546A685EF0055
:1059D400D07B2285B250225492540259F249456137
:1059E4008280BD47638CF50663E9B702A5476387E8
:1059F400F50663EDB7009947638CF5049D47638F03
:105A0400F5049547638CF50401458280B5476387A7
:105A1400F50463E1B704AD47F5B7DD47638EF502DE
:105A240063EAB700C947638BF502D9476386F50279
:105A3400C547C9BFF5476383F50263E4B700ED4783
:105A4400D1B793072005638BF5009307200D5DBF45
:105A5400484582800841828008458280484182808E
:105A64009307F00F630CF506011126CAAA841305E7
:105A7400000222CC4AC84EC652C456C206CE3A8947
:105A8400B689B28A2E8AEFB0CFAC2A844D4515C8A8
:105A9400930700FB2300F400A300540123114401E5
:105AA4002302340113058400614663050902CA8593
:105AB40097E0FE1FE780A0EBA2852685EFB0AFB389
:105AC4000145F2406244D2444249B249224A924AD0
