:040000006F10003548
:1000040000000000000000006F0080086F00E02284
:1000140000000000000000000000000000000000DC
:1000240000000000000000000000000000000000CC
:100034006F004006000000006F00E00500000000B3
:100044006F0080056F0060056F0040056F0020059C
:100054006F0000056F00E0046F00C00400000000A2
:100064006F0060046F0040046F0020046F00000400
:100074006F0060236F00C003000000006F00600386
:100084006F0040036F0020036F0000036F00E00265
:1000940001A001A001A001A001A001A001A001A054
:1000A40001A001A001A001A001A001A001A001A044
:1000B40001A001A001A001A001A001A0B717004068
:1000C400130770052380E704130780FA2380E704ED
:1000D4002396A70223800704371700408347270588
:1000E400898BEDDF835707053717004083472705C2
:1000F400898BEDFF3717004083472705898BEDDF98
:10010400035507058280B7170040930670052380C6
:10011400D704130780FA2380E70403C6B7041376D1
:10012400F60DA385C70423800704137605022DC6A4
:1001340003C6A700118A0DE22380D7042380E704B5
:1001440003C7A700136747002385E7009307004B05
:1001540001000100FD17EDFFB7170040930670057D
:100164002380D704130780FA2380E7047D8923942E
:10017400A70001000100010001002380070423807F
:10018400D7042380E7049306100537270040A30310
:10019400D780238007048280137605046DDE03C6AE
:1001A400A700418A0DE22380D7042380E70403C714
:1001B400A700136707012385E7009307007D01006B
:1001C4000100FD17EDFFB71700409306700523806B
:1001D400D704130780FA7D892380E7041365050497
:1001E4002394A700010001000100010023800704FB
:1001F4002380D7042380E704930630053727004083
:1002040079B74111814601468145114506C6AD22A3
:10021400B7170040130770052380E704130780FA1B
:100224002380E70403C76704136717002383E704E5
:1002340023800704B2404101828081460146814502
:1002440011451D2AB7170040130770052380E704E2
:10025400130780FA2380E7047D572396E70203C738
:100264006704136717002383E7042380070401A0AE
:10027400BD473305F50201007D1575FD82804111EE
:1002840022C426C206C6AA84014463179400B2405D
:10029400224492444101828005041305803E4204B5
:1002A400C13F4180DDB7B71700401307000323881F
:1002B400E702854723A8F1847300203023030480D8
:1002C40015472303E48001002302A480828083076E
:1002D4006480E3CE07FE2303048082808307648066
:1002E400E3CE07FE03454480828083076480E3CE27
:1002F40007FE2302A4808280411126C44AC24EC054
:1003040006C61377F50BAD47AA892E899544630673
:10031400F70019456537653F8D444E854537FD59CE
:10032400FD1463983401B240A24412498249410148
:100334008280135509011375F50F453F2209CDB786
:10034400011126CC06CEB704080051371545BD3738
:10035400713769372AC6A53F32459377150089EB73
:10036400136515001375F50FF240E24405618280B0
:10037400FD14E9FC0145CDBF397126DC4ADA4ED8BB
:1003840052D656D45AD25ED006DE62CE66CCB7E7D9
:1003940000E07D5783AA070022C603AA470023A0D2
:1003A400E71823A2E718B717004013077005238046
:1003B400E704130780FA2380E70483C74704930BF9
:1003C40075FFB684E20793FBFB0F8546AA892E8B43
:1003D400328937240040E187015763FA76016308C4
:1003E400D5008946130700026313D5000157D98F3E
:1003F40093F7F70FB71C00402382FC041147230333
:10040400E4801305F00F5D3D094CD13563697C111F
:10041400B70707003E9B378707007955637EEB02D9
:10042400B3079B00636AF702A9476399F90689E455
:100434008144713D26850DA0DA850945753D050980
:100444000345F9FFFD14050B4D3581C49377FB0F6C
:10045400FDF7FD3569FD7D55B7170040130770059D
:100464002380E704130780FA2380E70403C74704C3
:10047400418B2382E704F250B7E700E023A0571131
:1004840023A24711E25432445259C259325AA25A51
:10049400125B825B724CE24C21618280A5476395BA
:1004A400F90685691309F00FB3069900B3742B019B
:1004B400B6941349F9FFB3749900856B33796901D4
:1004C400416B9387F9FFB3F7270199E363FC340188
:1004D40093D94900C147E3E637FF99BF0569C1696C
:1004E4007D19D9B71305800D6388690113050002CE
:1004F4006384790113051008CA85FD3B913521DD1C
:100504004E99B3843441D9B7DA852D45F533CA946D
:10051400E30099F20509D933A30FA9FED5BF938748
:10052400F9FF93F7F70F636CFC0803C75C04B70784
:1005340008001377070219E3B78707007955E37DAD
:10054400FBF033079B00E3E9E7F089476390F90484
:100554008980D549E38E04ECDA850945713B11099C
:100564000327C9FF91472320E48003076480E34EF7
:1005740007FE23033481FD17EDFBFD14110B81C429
:100584009377FB0FE9FF6D3B71F5F1B58547E38781
:10059400F9F4DA852D458D339389F4FFE38A04E871
:1005A400353B93F7390091EB832604800327090038
:1005B40093074900E39FE6E63E89CE84F1BFB54741
:1005C4006396F9001305900BD5399DB5B147130512
:1005D400B00AE38BF9FE9947639EF902DA852D454B
:1005E400213B81448D4BA149D539639674018327FE
:1005F40004802320F9008504E39834FF83270480D2
:1006040013172B01635507002312F90015B5232294
:10061400F90039BD9D476399F90281451305B0047A
:10062400E139BD442320090023220900FD597D310D
:1006340093F77400CA9703C70700FD14398D23800C
:10064400A700E39634FFEDB3A1476392F904CD39D3
:100654008144630D0B008D479304C0036308FB00C2
:100664009304000563048B01930440041375C507C8
:10067400E30095DC19459931993905458131268581
:10068400AD3109459D316D39E31405DAE9B391477C
:100694006399F9001305600615311539130590099E
:1006A40025B7E38709D8F15469B37D1662066186DC
:1006B40093178601E18763D407000145828093176D
:1006C40026003307F500AE9718439C4363E7E70021
:1006D4007D16E37FF7FC7D55828005458280814746
:1006E4001397870161876343B700828013972700BC
:1006F4002A97232007008507E5B78147014793968A
:100704008701E18663C5B60013351700828093968E
:100714002700AA9694428507558FD5B793D755409D
:100724008A07AA979C4305453315B5007D8D8280C1
:10073400FD15E2052A87E18593968501E18693F705
:10074400F50F63C80600FD1593962500BA96D442AA
:10075400E5D68507E207E187014591CF1395270088
:100764002A978326C7FF014781EA1385F7FF1605F9
:100774003A9542054185828085820507F5B7814710
:100784001397870161876343C7008280139727000B
:10079400B386E50094422A97850714C3D5B77D161E
:1007A40062066186014793178601E18763D50700D6
:1007B40013351700828093172600B306F500AE9711
:1007C40094429C437D16B58F5D8FF1BF8A05AA952F
:1007D40001476363B500828083A6C5FFF11593D7F3
:1007E4001600D98F9CC11397F601E5B72A830148F7
:1007F400014701456343D7008280B387050183A87D
:100804000700B30706019C43C697AA976384F800C0
:1008140033B517010507B3080301620723A0F800E5
:1008240061871108C1BF2A8301478147014563C31A
:10083400D70082803388E50083280800330EE60061
:10084400032E0E003388A8403308C841638408018E
:1008540033B508018507B308E300E20723A00801C4
:10086400E1871107E9B7797126D2B286B2842E8660
:10087400AA850A8506D622D47D372A84A6850A85C8
:10088400AD3D33348000060413351500018DB2509C
:100894002254925445618280411122C626C40143E8
:1008A400014F81471314830161846347D402939FEA
:1008B4001600FD1F854E9382F6FFF15333875E00C9
:1008C400620761876348F70732448E06AA9623AE0F
:1008D400F6FEA24441018280131E2300B302C60126
:1008E400814E814F13972E002E9703A802001843C0
:1008F400B3030703333707039E97B3B8770033086E
:10090400E701469885486367E8006314070163E3D9
:1009140077008148850E13978E016187C69F428FA9
:10092400F112E351E4FC2A9E2320FE000503C28752
:100934007E8F8DBF13948E01FA88618493142700EF
:10094400014F1318840113588841634AD8000A07D9
:100954002A97850E1CC393FEFE0FC68785B73308FE
:100964007402131324002E93032303002698329851
:1009740003280800330E680233386802F29733B351
:10098400C701C2989A98054363E7080163141801E4
:1009940063E3C70101431A9F050465B719CDB7176F
:1009A4000040130770052380E704130780FA2380AF
:1009B400E7042396A70223800704828019C1814794
:1009C40099E982803387F500834607003307F500F1
:1009D40085072300D700E397C7FEE5B719C1FD5784
:1009E40081E98280910503A7C5FF1105232EE5FE49
:1009F4007D16E319F6FEF5B7797122D41734000099
:100A0400130444C51C4006D626D24AD04ECE91C704
:100A140082979737000023AF07C25C4089CB03D588
:100A2400C192AD3F5C40829703D5E192853F1C4063
:100A3400639C07189737000083C7D7C5858B95C774
:100A440097370000A38807C4173700000347B7C4CB
:100A5400914763FCE70051219737000083C7B7C370
:100A6400F9178A07A2979C4382979737000083C798
:100A740027C7918B89C7974001E0E78020E11C4498
:100A840091C3829793878192984317360000034657
:100A940076BA3E89973400009384C4B9973700002E
:100AA40083C747B993961700BA9683D60600638323
:100AB40006109737000083C7E7B763FBC7068607AE
:100AC4003E97835507002310070003D5C1922EC615
:100AD400F1359387C1939C4317350000034585B5D1
:100AE40013172500BA979C43B2458297AA8903D568
:100AF400E1926D359737000083C7C7B3139717008A
:100B040083270900BA9703D70700B3E9E9002390C4
:100B1400370183C70400850793F7F70F17370000E1
:100B2400230AF7B0173700000347D7B063E6E7009E
:100B340097370000238007B01C40D9E7938741937F
:100B440098433E8451C39737000083C717B591CBB0
:100B54009737000083C737B489E7974001E0E780FF
:100B6400809C1C4082972A8425C19C48AA971737E9
:100B740000002329F7AC938781939C43B1C703D525
:100B8400C192293D2285972001E0E780001897371C
:100B94000000938767A6DC5389C7972001E0E780AC
:100BA400E0F42254B25092540259F24903D5E1922E
:100BB4004561EDB3850793F7F70F97360000238B54
:100BC400F6A6E3EDC7ECF5B5B2502254925402599F
:100BD400F249456182809167B7C6004093873730F8
:100BE40023A6F6200F10000097370000938787A4F0
:100BF400884F938701989C43316713073730F0532C
:100C0400B7071000FD17918F99833A0523A6E620B4
:100C14005D8D82804111B7170040985F3AC6945F9A
:100C24003247E39CE6FE324541018280411106C60B
:100C3400D5379736000083C6669D858AB1C693076B
:100C440030333307F502B337F5023983CA07D98F36
:100C5400173700001307079E584B01456303F7023B
:100C64003385E740636BF70037653D0889C63785F0
:100C74006F0813050590198D3E951737000023253D
:100C8400F79CB24041018280E5473307F502B33750
:100C9400F5022583DE0765BF5D7122DE13840197AB
:100CA4003AD218403ED04ACA1C5F86C696C499837D
:100CB4009AC29EC026DC2ADA2ED832D636D442CE48
:100CC40046CC72C876C67AC47EC2858B1389C19617
:100CD400C1C31C5F973400009384849B93F7F7F996
:100CE4001CDF9737000083C7A79A93F707048DC3C7
:100CF400938701949C4382979737000023A2A79A75
:100D040083C7040093F7F70B173700002302F79803
:100D1400854717370000A30FF79683C7440093F75E
:100D2400070481EF938701989C43D844B8D3930771
:100D340000FC17370000230FF7948387640063D9FE
:100D44000700832709009C43173700002305F79405
:100D540018401C5F8583858BC9CBF5571CDF0100C8
:100D64000100010001000100010001000100010077
:100D74000100010001000100010001000100010067
:100D84000100010001000100010001000100010057
:100D94000100010001000100010001000100010047
:100DA4000100010001000100010001000100010037
:100DB4000100010001000100010001000100010027
:100DC4000100010001000100010001000100010017
:100DD40001000100010001000100010001009387EE
:100DE40001989C4313075004B8CB18401C5F9183AF
:100DF400858B89CFBD571CDF938701989C4323A81B
:100E040007048547173700002306F788832709005E
:100E1400D8430583058B19C7D843759BD8C3D843DA
:100E2400799BD8C37254B640A64216438643E25413
:100E34005255C2553256A256125782577248E2484A
:100E44005249424EB24E224F924F6161730020309C
:100E54009387019894431737000013076783BC52A4
:100E640089CF83472700858B89EB83473700858BA0
:100E7400FDD797370000238F078082809387C1971F
:100E84009C4399CB944BD04B9842518F98C2944336
:100E94009C479842D98F9CC2938701989C4337C73B
:100EA40000401306C003A8CB930620039725000037
:100EB4009385057E83278720C18393F7F7036369AE
:100EC400F60083278720C18393F7F70363E6F600D0
:100ED40083C74500858BF9DF82809387019894430B
:100EE400172700001307C77ABC5289CB8347070032
:100EF400858B91CB97270000238E077897270000D6
:100F0400A38A0778828083471700858BF1DFDDB7DA
:100F14009387C1979C4399CB944BD04B9842518F64
:100F240098C294439C479842D98F9CC29387019856
:100F3400944337C70040C145A8CA65468327872024
:100F4400C18393F7F70363FBF50083278720C183ED
:100F540093F7F7036364F600BC52EDF382801387C2
:100F640001971843AA87185F1583058B25EF03455E
:100F7400150015051377C51F19C6B386E70083C688
:100F840026002300D60095C59726000083C6A670C8
:100F940093F606040945A1CAB386E70083C6360062
:100FA400054693F5F6066390C504E206E18663CC34
:100FB40006023385E7008347150003470500A207AF
:100FC40093F70770D98F13970701418393760740EE
:100FD40099C613670780239CE19601458280239C70
:100FE400F196E5BF05458280011136C893860198C4
:100FF4002ECC8C423AC63EC498452ACE32CA9317A8
:10100400070142C2C1831378172036853E8697268E
:1010140000009386E667630408041377072061CF12
:1010240003C7260013671700172800002303E86688
:1010340013070019B8D1130700F897250000238B74
:10104400E564138701970C4337080010D855719B4A
:1010540013672700D8D598413367070198C11377E0
:10106400261005C31376061045CA03C70600136786
:10107400170017260000230DE66017270000231D24
:10108400076083C6460093C7F7FFC207E206E186FE
:10109400C183184163D106029396170163D70608EA
:1010A40030538D4663E9C6008546172600002303A6
:1010B400D65E3453FDFE972600009386E65383865E
:1010C400460163DD060093960701C18663D50606D3
:1010D4007053894663E4C6007453FDFE1447724599
:1010E400E245F58F1CC75246C2463247A247124812
:1010F40005617300203003C7160013671700972596
:101104000000A387E5581727000023050758172771
:10111400000023130758A1B703C73600136717004D
:1011240017260000A307E65689BF85461726000048
:101134002302D65649B75447139606016351060253
:10114400B7061000FD1674D3972600009386864ECA
:10115400944E850617260000232AD64E41B7A16671
:10116400D58FADBF17270000130747548346B70137
:101174009727000083C7D756B69793F7F70FFD4616
:1011840063EAF6044C4B97260000A381F652972796
:10119400000083C7B75105473317F70097260000AF
:1011A400A380F6546D8F1DEF9726000083C69653D7
:1011B400B3F6D70213050002814733D6F500058A3A
:1011C40013F8F70F09CE6399E60097270000A38F61
:1011D400074D828081177DB705071377F70F8507C1
:1011E400E39DA7FC8280938781989843B7570200B8
:1011F4009387079F832607091396560063580600B2
:10120400832607091396660063440600FD17FDF361
:10121400828051C9AA870145C9C98D07C207C18304
:10122400F19BC207C18313074003636BF702138763
:10123400C19908431387419914436396A60217275B
:1012440000001307673B185B014525C34111C20722
:1012540006C60545DD8D0297B240014541018280F5
:1012640013878199F9B70357650005EF03574500C4
:101274006369F702B306F74021466370D602104152
:10128400938687001D8FAA96611790C22392E60069
:101294002393060014C12312F5002313B50021057E
:1012A4008280084159BF01458280828001CD9387A5
:1012B400C19903A80700938741998C430147C287CA
:1012C40063E3B70082809443636FF50663EDA6067B
:1012D40013868700E368C5FE03D56700216605060B
:1012E4006317C50003C6B1950506A38DC194239366
:1012F400070063840703138681991042630FF60085
:101304000356670019EA83D7470014C3835647007E
:10131400B697A1072312F700BA879843E304B7FAF4
:10132400938681999442E30FD7F883566700D9FADC
:1013340083D64700035647001843A106B29623926A
:0C134400D70098C382803E87B6879DBF0B
:10135000974100209381013317710020130181CA46
:1013600013054000972500209385C54917360020B6
:101370001306067E63FAC5008322050023A05500EC
:1013800011059105E3EAC5FE17C501001305455592
:10139000973500209385057C1386C18363FAC500C9
:1013A0008322050023A0550011059105E3EAC5FE3F
:1013B0001385018497650020938505BE6377B5008A
:1013C000232005001105E36DB5FE9302800873A08C
:1013D0000230972200209382E24293E2120073903F
:1013E0005230972200009382A299739012347300B6
:1013F00020303D432A876373C3029377F700BDEF24
:10140000ADE5937606FF3D8ABA960CC34CC30CC774
:101410004CC74107E36BD7FE11E28280B306C3409D
:101420008A069702000096966780A6002307B700F9
:10143000A306B7002306B700A305B7002305B7002E
:10144000A304B7002304B700A303B7002303B70026
:10145000A302B7002302B700A301B7002301B7001E
:10146000A300B7002300B700828093F5F50F939691
:101470008500D58D93960501D58D61B7939627008C
:101480009702000096968682E78086FA9680C117BA
:101490001D8F3E96E374C3F8A5B73367B500FD53BF
:1014A0000D8B79E7B7877F7F9387F7F710419441DA
:1014B000B372F6003363F600BE92B3E26200639744
:1014C000720C6318D6065041D441B372F6003363F0
:1014D000F600BE92B3E262006398720A631BD60400
:1014E00010459445B372F6003363F600BE92B3E242
:1014F00062006391720A631ED6025045D445B372EE
:10150000F6003363F600BE92B3E26200639A72089B
:101510006311D60210499449B372F6003363F600A2
:10152000BE92B3E26200639372085105D105E30FE6
:10153000D6F61317060193970601631CF70013579D
:10154000060193D706013305F7409375F50F91E92E
:1015500082804183C1833305F7409375F50F91E194
:1015600082801377F70F93F7F70F3305F7408280E8
:101570000346050083C60500050585056313D600EF
:1015800065FA3305D640828011059105E312D6FE37
:10159000014582802105A105E31CD6FC014582801E
:1015A0003105B105E316D6FC014582804105C10530
:1015B000E310D6FC01458280B717004003C77705CA
:1015C0001377E70FA38BE704130700F8A38DE70455
:1015D0003D47238CE70413077003A38CE704828044
:1015E000B717004003D587005D714EDE420541818B
:1015F00086C6A2C4A6C2CAC052DC56DA5AD85ED683
:1016000062D466D26AD06ECE9377050C13070008B9
:1016100081496386E71813070004639AE714B72427
:101620000D8F7D8993840480B3D4A402916793873E
:1016300007E8BE94A167938707D0B3D4F402EF9074
:10164000C15B97B70100938767059043D443EF9040
:10165000810FEF90111DAA8B939C040103D9018483
:1016600093DC0C0163150900056913090980B7179C
:101670000040130770052380E704130780FA2380D6
:10168000E704B71A00400547939D0401096C2389BC
:10169000E704514B01438145138D0A04130670057D
:1016A000930680FA094893DD0D01130C0C71A948CB
:1016B0002300CD002300DD0023962A0323000D0024
:1016C00083C72A05898BEDDF83D70A0583C72A05DF
:1016D000898BEDFF83C72A05898BEDDF83D70A0548
:1016E00023902185C207C18333859741131A0501D1
:1016F000135A0A41630B0A143307BA02635E070CDC
:1017000005034203135303016368680C63D9050A98
:101710003305B04093150501C185C204C18063D76C
:10172000450B0965130505713385A502B717004000
:10173000130770052380E704130780FA2380E7046A
:1017400023963703238007043345950242054181E0
:10175000B640264496440649F259625AD25A425B30
:10176000B25B225C925C025DF24D61618280B1E30A
:10177000B77489097D8993840480B3C4A4029167F6
:10178000938707E8BE94A167938707D0B3C4F40298
:10179000EF90A14697B701009387C7F07DB597B743
:1017A0000100938727EF856483AB07009384843817
:1017B00065B5930B0000954445B53A89D5BDB3870F
:1017C000FC40139A0701135A0A4181BF09651305AA
:1017D00005713305AA028DBF3385B74163E4FC0070
:1017E0003385FD40330585033344B50363C5880065
:1017F00013150401A9BF528532C636C4EF90017695
:10180000DE85EF908146EF90416F1313050113536E
:1018100003413307694042074183A24632460948E3
:10182000A948631AE900130719006344400113072C
:10183000F9FF420741837D1B137BFB0FCA89D285C9
:10184000E31D0BF62390E18465B7014511B7B71787
:10185000004003D5870039715ECE4205418106DE26
:1018600022DC26DA4AD84ED652D456D25AD062CC8E
:1018700066CA6AC86EC69377050C13070008814BC9
:101880006388E71413070004639CE710B7240D8FE7
:101890007D8993840480B3D4A4029167938707E879
:1018A000BE94A167938707D0B3D4F402EF90E134DC
:1018B00097B70100938787DE9043D443EF80B168E8
:1018C000EF902176AA89939A040103D9218493DAAF
:1018D0000A0163150900056913090980B71700405B
:1018E000130770052380E704130780FA2380E704B9
:1018F000139B04010547096A2389E704D14D014D73
:10190000814C135B0B01130A0A714A859720002052
:10191000E78000FB330C5541420C135C0C412391D2
:101920002185630A0C14B3079C0363D0070E050DD1
:10193000420D135D0D01894763E9A70D63DA0C0AB7
:1019400033059041931C050193DC0C41C204C18016
:1019500063D78C0B0965130505713385AC02B71786
:101960000040130770052380E704130780FA2380E3
:10197000E704239677032380070433459502420545
:101980004181F2506254D2544259B259225A925A69
:10199000025BF24B624CD24C424DB24D21618280CF
:1019A000B1E3B77489097D8993840480B3C4A40228
:1019B0009167938707E8BE94A167938707D0B3C464
:1019C000F402EF90812397B701009387A7CDEDB57F
:1019D00097B70100938707CC856483A90700938498
:1019E0008438D5B5930900009544F1BD3E8931BFD7
:1019F0003385AA40131C0501135C0C4181BF0965A6
:101A0000130505713305AC028DBF63FEAA003305D3
:101A1000654133054503A9473344650363C887001F
:101A200013150401B1BF3305AB40E5B76285EF90F4
:101A3000E152CE85EF906123EF90214C131D0501FB
:101A4000135D0D41B307A941C207C183631AF900B1
:101A500093071900634480019307F9FFC207C1830C
:101A60001387FDFF937DF70FCA8BE28CE3900DF88F
:101A70002391F18475B7014529B741112A83014E9D
:101A8000930E407E130F0019930F400663EB6E0A0E
:101A90009308001913034006B3781503854E0D4FC4
:101AA000A14F337365020D891335150063E5BE0C34
:101AB0001308F6FF79467298420813580801330755
:101AC000C70213D61700BE0732976146B3F6C602A7
:101AD00013068070B386C6023697A166F58F42075B
:101AE0005D8FB717004083C6F70293F60608A30779
:101AF000D1000346F10083C6F70293F60608E3948B
:101B0000C6FE8346F10093F6F60FF1DE93067005EC
:101B10002380D704930680FA2380D70423AA0703DF
:101B200083C6170393E60608A388D702D8DB03C74A
:101B3000170313670704A388E70223800704410102
:101B400082807D133368E3039308E016630E080078
:101B50003368F3039308D0166308080093783300C2
:101B600093B818009388D81633081E01131E080175
:101B7000135E0E0121BF6393E503054863860800E9
:101B80000148630303002A8871087298FD15131E2B
:101B90000801C205135E0E01C18109BF13F81500CB
:101BA00063F4BF007908D5B713381800E5BF914733
:101BB00063EEB70217B70100130747AF8A05BA955E
:101BC0009C41BA978287B717004003A7470B13457C
:101BD000F5FF698F23AAE70A03A7070B698F23A8DC
:101BE000E70A03A7070A798D23A0A70A8280B717FF
:101BF000004083A6470B1347F5FFF98E23AAD70AA7
:101C000083A6070B558D23A8A70A83A6070A758FFD
:101C100023A0E70A8280B717004003A7470B498F2C
:101C200023AAE70A03A7070B1345F5FF45BFB7171C
:101C3000004083A6470B1347F5FF758F23AAE70AD9
:101C400003A7070A598D4DB7B717004003A7470BE5
:101C5000498FEDB7914763EEB70217B7010013073D
:101C600027A68A05BA959C41BA978287B717004084
:101C700003A7470D1345F5FF698F23AAE70C03A7B8
:101C8000070D698F23A8E70C03A7070C798D23A004
:101C9000A70C8280B717004083A6470D1347F5FFB6
:101CA000F98E23AAD70C83A6070D558D23A8A70C60
:101CB00083A6070C758F23A0E70C8280B71700401E
:101CC00003A7470D498F23AAE70C03A7070D134568
:101CD000F5FF45BFB717004083A6470D1347F5FF33
:101CE000758F23AAE70C03A7070C598D4DB7B717BB
:101CF000004003A7470D498FEDB7B717004003D544
:101D00008700420541819377050491EB9377F501B4
:101D10003755E801130505803345F5028280937736
:101D2000050C130700046397E7009377F501374527
:101D30009C1CCDB72165130505D08280B7F700E064
:101D4000C8439C478280814737370040A14663C41F
:101D5000C700328582800345B740E38EA6FE3385F7
:101D6000F5000345050085072304A740CDB74111C1
:101D700022C406C62A8451372947B307E502B24078
:101D80008D83B3D7870222449507B3D7E70237374D
:101D90000040C207C1832316F7404101828071656C
:101DA00041111305052006C6D937B7370040130780
:101DB00070F82381E7400D47A381E7401307000433
:101DC000A380E74005472387E740B2404101828076
:101DD0002382018423A40184B717004003A7070CC2
:101DE000B706C0FFFD16758F23A0E70C03A7070DEC
:101DF000B7064000558F23A8E70C03A7070C3D9BAF
:101E000023A0E70C03A7070D1367070123A8E70C1E
:101E1000828023A4A18413064006894503C5C1849A
:101E20006F40417CB717004003A5470C83A7470CC0
:101E3000598113451500C18B058999E31365250068
:101E400083C74184638CA7002382A18401C993873F
:101E5000818403A30700630303000283828041118E
:101E600006C6EFF0EFF7BD4763F4A700EFF04FF7BA
:101E7000F93ABD4763F3A700D93AB24083D521842C
:101E800003D5018441016F409103411193962500D0
:101E9000AA852D4506C697200020E78020CEB240B7
:101EA000014541018280411122C426C24AC02A84D0
:101EB0002E89B284AA85930600200146254506C6D0
:101EC00097200020E78080CB931629002686A285E4
:101ED000294597200020E78060CAB24022449244FE
:101EE0000249014541018280011122CC06CE3714FE
:101EF000004026CA4AC84EC652C483447405034AE9
:101F0000B4058349840503499405EFF0EFEA83475C
:101F1000A40593F4F40F137AFA0F93E71700230D37
:101F2000F40493F9F90F1379F90FB717004003C7B9
:101F3000A705058B6DFF03D5C705A38D4705238C2A
:101F40003705A38C2705A38B9704F2406244D24443
:101F50004249B249224A05618280411193970501A5
:101F600022C406C6C1872E8463DA0700EF40E11B56
:101F700019C1EF40E1142165218D1DA093F71500D3
:101F800013C5150091EF93F7250099CF613D130616
:101F9000000A894503C5C184EF40C164134524008C
:101FA000B2402244410182809397250163D0070209
:101FB000EF5091686D3537F60200130606E089652B
:101FC00003C5C184EF40016209657DB79397150190
:101FD0000145E3D707FC17A5010013052574EF9011
:101FE000414413060064916503C5C184EF40815FDD
:101FF000116559B71D71494697A501009385856DF7
:1020000017B501001305456086CEA2CCEF406146AE
:1020100001E917A501001305256DEF90814001A08E
:1020200037F700E0F9575CC7FD571CCB0564B7E7ED
:1020300000E023A087109306701014C3B843C14674
:10204000B4C323A08718B8C3010001001306C0035E
:1020500081454808EF40C140974700209387C786D5
:102060003ECAED47A301F1029307A0102312F1022B
:10207000D1472303F102A167938707E03ECE97077C
:1020800000009387C7E0BEC4970700009387E7E18D
:10209000BEC685472304F102B5472308F10297071E
:1020A00000009387E7C93EDAB7F5070097070000FD
:1020B0009387C7E33EDE814697070000938767DA80
:1020C0007000E1051945BEC0231C81009720002047
:1020D000E780C0AA58088147994670003E9603469B
:1020E000060085070507A30AC700E398D7FED24775
:1020F00091C70357810185676373F70001A0480802
:10210000EF40216FAA8501C917A501001305055FDE
:10211000EF90E11C01A0F6406644256182804111E8
:10212000170500001305A5E306C622C4EF40E168C9
:102130001384C1842300A4003128593903450400C5
:102140002244B24037F60200130606E089654101D9
:102150006F404149411106C6B7170040130770058B
:102160002380E704130780FA2380E70403C7F702FC
:102170001377A70FA387E70203C7F70213672700A8
:10218000A387E702E9391305407E8147014781466D
:1021900005468545EFF07F8EB240014541016F4015
:1021A000D106411197A501009385C55A17A50100D5
:1021B0001305457106C6EF90811217A5010013059E
:1021C0006571EF90C1112945EF906115B240410151
:1021D0006F20101D411197A501009385E55517A5A6
:1021E00001001305256E06C6EF90610F130500026E
:1021F000EF90E1122945EF908112EF40A109856728
:10220000138607773376C502B2409387873803C5B4
:102210004185854541013E966F40C13C411197A5DE
:1022200001009385E54F17A501001305A56906C6B2
:10223000EF90E10A13050002EF90610E2945EF903F
:10224000010EB24003C54185854541016F40814281
:102250009747002083C75774411193F7E70F06C6CD
:1022600017470020A30AF772EF90907105E1EF2065
:102270000041EF209074B2403726090003C5418524
:102280001306067C854541016F40C135B2404101CE
:102290008280411197A501009385054B17A5010088
:1022A0001305456206C6EF9081032945EF9021078B
:1022B000B240410171BF411197A5010093850547C7
:1022C00017A501001305056006C622C426C24AC030
:1022D000EF90E1002945EF908104EF90706A19E5D5
:1022E0002244B2409244024941019DB71734002074
:1022F000130484903C487179F5741D09FD142390F2
:10230000270123919700173500201305E592EFD0A0
:1023100070177C44173500201305059217340020F0
:102320001304449423900700EFD0B0141C48228576
:102330002390270123919700EFD0D0145C4422858D
:102340002244B240924402492390070041016FD0D9
:102350005012411197A501009385854017A50100F2
:102360001305455606C622C426C2EF80517729457B
:10237000EF80F17AEF90D06005E997A50100938591
:10238000253E17A501001305E553EF80517517A5EC
:1023900001001305E555EF8091742244B240924448
:1023A000294541016F80B17713050002EF10A008A5
:1023B0002A8405E197A501009385853A17A50100B8
:1023C00013054550EF80B17117A501001305C553E2
:1023D000D9B7A547A300F5009307C0125CC1FD570C
:1023E0002306F500EF1000042300A400084CB705F5
:1023F000D4009385851A3105EF102062084C83457F
:1024000004003105EF20F077084C930500103105EA
:10241000EF20D078044C0565EF00007AB104AA855E
:102420002685EF201076084C9305A0103105EF208B
:10243000F076044CF92EAA85B1042685EF2070743D
:1024400022852244B240924441016F10600493F708
:102450001500B9CB411122C417A50100130585460B
:102460002E8497A501009385E53306C6EF8031677A
:102470002945EF80D16AEF90B05001C9D93D13458D
:102480001400B2402244410182809747002083C754
:10249000B75093F7E70F93E7170017470020A30DF6
:1024A000F74EEF20601FE1BF01458280797197A54B
:1024B00001009385252C17A501001305A54006D61C
:1024C000EF80F1612945EF809165614681452800E3
:1024D000EFE03FF2EF001075A547A304F10093076A
:1024E000C0122304A1003EC60565FD57230AF10072
:1024F000EF005002EF90D0481DE597A501009385AD
:10250000652717A501001305E53BEF80515D17A571
:1025100001001305E53DEF80915C2945EF803160B6
:10252000B250456182802800EF007077D5BF41111D
:1025300097A501009385052517A50100130585388A
:1025400006C622C4EF80B1592945EF80515DEF9056
:1025500030431DE597A501009385C52217A501000D
:1025600013054536EF80B15717A50100130545380F
:10257000EF80F1562244B240294541016F80315A23
:102580004145EF00506B2A8405E197A50100938532
:10259000651F17A501001305E532EF80515417A5FB
:1025A000010013056536E9B7A547A300F5009307B9
:1025B000C0125CC197B70100938707285CC9FD571B
:1025C0002306F500EF0010662300A400084CB705B1
:1025D000D4009385851A3105EF102044084C8345BB
:1025E00004003105EF20F059084CBD65A505310503
:1025F000EF20D05A084C930530023105EF20705877
:1026000022852244B24041016F009068411122C4EA
:1026100097A50100938545182A8417A50100130585
:10262000652A06C6EF80B14BA28517A501001305E8
:10263000652BEF80D14A2945EF80714E85476309AC
:10264000F4008947630AF400B240224441018280C9
:102650002244B240410199BD2244B2404101C1BD72
:102660000111354697A501009385451B17A501006B
:102670001305056906CE22CCEF30B15F0DE597A5B5
:1026800001009385251317A501001305A523EF80ED
:10269000114517A5010013052505EF80915829451F
:1026A000EF80F14701A097370020938767983EC4D9
:1026B000856793870780340017B601001306461814
:1026C00097A501009385453E17A501001305453FD9
:1026D0003EC6EF20A01C2A840DC997A50100938552
:1026E000650D17A501001305E51DEF80513FA2857B
:1026F00017A5010013058513EF80713E2945EF8072
:102700001142F240624405618280EF80007117A59A
:1027100001001305250BEF10C036EF504034EFF0E9
:1027200060601725002013052553EFF0A04E17A574
:1027300001001305250AEFF020602A84EF10101C19
:10274000EFA03042EF10B121EF20302FEF10B07A20
:10275000EFD0604F97A501009385C50517A501002F
:102760001305451609C8EF809137A28517A501000A
:102770001305050E51B7EF80913617A5010013051B
:10278000650FEF80D1352945EF807139EFD00034E6
:10279000EF90101F29C597A501009385A50117A5E6
:1027A000010013052512EF80913317A501001305D1
:1027B000E50DEF80D1322945EF80713697A50100F4
:1027C000938545FF17A501001305C50FEF80313133
:1027D00017A501001305C50DEF80713005B78D3CBD
:1027E000F1BF4111170500001305A5C606C6EF305D
:1027F000D17C238AA184AD35EFF08FDD1705000071
:10280000130505E1EFF0EFE0B240814505654101B8
:1028100065AE411197A501009385851017A50100AC
:102820001305450A06C622C4EF80712B1384A180CC
:102830008345040017A501001305451AEF80312ACE
:102840002945EF80D12D03450400B24022444101C7
:10285000828039711C0822DC3EC22E84B70720001A
:10286000B705D30026DA9385851AAA843EC44800AA
:102870001C0806DE3EC6EF10401AEF00B03AAA85EB
:102880004800EF2010309305A0104800EF201031D1
:10289000493793150501C1814800EF20303097A5D5
:1028A00001009385E50817A501001305A501EF8038
:1028B0001123835584000356640017A501001305F6
:1028C000E50EA18193F5F507EF8071212945EF8091
:1028D0001125834794000147814693F7F707D917DD
:1028E000B337F000B307F0402305F4005000A28591
:1028F0002685EF10603515C52A8497A501009385BC
:10290000250317A501001305E5FBEF80511DA285E6
:1029100017A501001305050BEF80711C2945EF80F9
:102920001120F2506254D25421618280411122C49C
:1029300026C22A84AE8417A501001305A5F897A521
:1029400001009385650006C6EF807119130500022A
:10295000EF80F11C2945EF80911C22852244B24072
:10296000A68592444101F5B5797122D426D22E84F0
:102970004AD08145B2842A896146280006D6EFE014
:102980005FA7EF00302AA547A304F1009307C01208
:102990003EC62304A100EF30F10F930720033375E7
:1029A000F50297A50100938565FB2AC817A50100CC
:1029B000130545F1EF80B11283558400830684002E
:1029C00003566400A18193F5F50717A501001305CF
:1029D000A5FBEF80D1102945EF8071149840834703
:1029E000270083461700A207D58FBD6663C7F6048C
:1029F000834737002385F18083479400294793F765
:102A0000F7076385E700FD57230AF1008317640089
:102A10006359F000FD57230AF1009307400602C8EE
:102A20003EC62800EF007030A2854A851D35B250A1
:102A300022549254025945618280AD06E39ED7FA32
:102A400083445700F93326952385A18075B701117A
:102A500097A501009385C5F117A50100130585E62B
:102A600032C606CE22CCEF80910713050002EF801C
:102A7000110B2945EF80B10A3246184283472700DF
:102A800083461700A207D58FBD6663CAF600834749
:102A900037002385F180F240624405618280AD06F3
:102AA000E39BD7FE03445700AD3322952385A180D5
:102AB000DDB739711C0822DC3EC22E84B707200026
:102AC000A16526DA3EC4AA841C08938545204800E7
:102AD00006DE3EC6EF007074B717004083A5470CB2
:102AE0004800B18193C515008589EF20900997A50D
:102AF0000100938525F017A501001305A5DCEF80E3
:102B0000017E835584000356640017A50100130558
:102B1000E5E9A18193F5F507EF80617C2945EF8018
:102B20001100834794000147814693F7F707D917AF
:102B3000B337F000B307F0402305F4005000A2853E
:102B40002685EF10601015C52A8497A5010093858E
:102B500065EA17A501001305E5D6EF804178A28547
:102B600017A50100130505E6EF8061772945EF8081
:102B7000017BF2506254D25421618280411122C4FF
:102B800026C22A84AE8417A501001305A5D397A5F4
:102B90000100938565E706C6EF80617413050002A6
:102BA000EF80E1772945EF80817722852244B2408A
:102BB000A68592444101F5BDB717004083A7470C95
:102BC0007D8D133515008280411126C2AE848D455E
:102BD00022C406C62A84EFF0EF87B717004099C8D1
:102BE00003A5C70C418D23A6A70CB24022449244F2
:102BF0004101828003A5870C418D23A4A70CF5B762
:102C0000011197A50100938525E217A50100130581
:102C100065CB32C606CEEF80816C13050002EF80D3
:102C200001702945EF80A16F3246B717004083A796
:102C3000470C1842B1838345070093C71700858B63
:102C40006386F500F24005650561BDBFF240056190
:102C50008280797122D426D22E844AD0814532894D
:102C6000AA846146280006D6EFE0AFF8EF00807B2B
:102C7000A547A304F1009307C0123EC62304A10098
:102C8000EF304161930720033375F50297A50100EA
:102C9000938585D82AC817A501001305A5C2EF8022
:102CA0000164835584008306840003566400A18177
:102CB00093F5F50717A50100130545DBEF802162A9
:102CC0002945EF80C16583270900056583C5070095
:102CD000E53D83479400294793F7F7076385E700AD
:102CE000FD57230AF100831764006359F000FD5774
:102CF000230AF1009307400602C83EC62800EF00F1
:102D0000007AA28526857533B25022549254025916
:102D10004561828041118D4522C406C62A84EFE0B8
:102D20007FF3B717004003A5870CB240218D2244E2
:102D300023A4A70C410182800111354697A501000B
:102D40009385C5AD17A50100130585FB06CEEF30B1
:102D5000417201E917A50100130585D3EF80616C6D
:102D600001A0EF6021192AC6EF101103EF100162D4
:102D7000EF70E044F2403245056182804111130555
:102D8000800406C697100020E78020B8371700405F
:102D90008327870A8D451305002093E70720232406
:102DA000F70AEFE0DFE0EFE09FFF17B50100130542
:102DB000A585EF80016717A50100130565F4EF8075
:102DC0004166EFF02FA3EFF08FB5BD37EFF07FA195
:102DD00097100020E7808042E5BF014582804111C5
:102DE000B2862E86AA852D4506C697100020E7805C
:102DF000E0D8B240014541018280AE860146AA85F5
:102E0000254517130020670063D79307000463E686
:102E1000C7021D71A2CC2A84080886CE32C6EF8074
:102E2000A140B2461008A285294597100020E780EE
:102E3000E0D4F6406644256182803955828001479E
:102E400097A60100938606E03388E50083470800D3
:102E5000050709059183B69783C70700230FF5FE81
:102E600083470800BD8BB69783C70700A30FF5FE05
:102E700093170701C183E3E9C7FC8280411197A53D
:102E80000100938565CB17A501001305A5A306C610
:102E9000EF80E14413050002EF806148B24029450C
:102EA00041016F80C1475C49411122C406C62A8492
:102EB00091C7DC4381C72E850C4882971C4CC84BB8
:102EC000EF3001201C4CB240224423AA07004101EC
:102ED00082804111328506C622C426C22E844AC091
:102EE000EF208054AA8497A501009385E5C317A518
:102EF00001001305259DEF80813E030784000356E2
:102F0000640083554400A68617A501001305C5D6A5
:102F1000EF80E13C2945EF808140174400201304F5
:102F2000E49F17490020130969A583470400639BA8
:102F3000970081452285853F8345C40103C561858E
:102F4000EF30417313040402E31124FFB240224422
:102F500092440249410182801C42011126CA4AC89A
:102F600006CE22CC03C4270003C71700AA8422047C
:102F7000598C3D672E896378870003C4470083C757
:102F8000370022045D8C97A501009385A5B817A58D
:102F900001001305259332C6EF806134A28517A581
:102FA0000100130525D0EF8081332945EF802137BB
:102FB0009307A01032466316F400CA852685EFF009
:102FC0001FA997A501009385E5B417A50100130576
:102FD000658FEF80C13013050002EF8041346244F9
:102FE000F240D2444249294505616F8041331C4279
:102FF000011126CA4AC806CE22CC03C4270003C743
:103000001700AA842204598C3D672E8963788700B3
:1030100003C4470083C7370022045D8C97A50100D5
:10302000938585AE17A501001305C58932C6EF80CB
:10303000012BA28517A501001305C5C6EF80212A23
:103040002945EF80C12D9307A0103246631BF40081
:103050006244F240CA8526854249D24405616FF038
:10306000BF90F2406244D2444249056182801C42D2
:10307000011126CA4AC806CE22CC03C4270003C7C2
:103080001700AA842204598C3D672E896378870033
:1030900003C4470083C7370022045D8C97A5010055
:1030A0009385C5A517A501001305C58132C6EF801C
:1030B0000123A28517A501001305C5BEEF802122BB
:1030C0002945EF80C1259307A0103246631BF40009
:1030D0006244F240CA8526854249D24405616FF0B8
:1030E000FF84F2406244D2444249056182801D71EE
:1030F0009747002083C74784CEC686CEA2CCA6CAF7
:10310000CAC8D2C4ED8F9749002093892981D9EF8D
:103110009747002083C74784ED8FD9EB974700205E
:1031200083C78785ED8F0145B5CB894793945700B9
:103130001C103EC4B70720003EC6172A0020130A01
:103140006AB21C103EC88327CA0002CA02CC02CE53
:1031500083D7070033849900184C231BF100FD77B7
:10316000231CF1005C4B2E89B1E797A501009385E4
:10317000A59F179501001305E574EF80411617A56B
:1031800001001305E5A5EF8081152945EF80211980
:10319000B387990003C5C7013345A900F6406644CB
:1031A000D6444649B649264A256182808147BDBF3B
:1031B0008547ADBF83471400A555B9CFFD1703560A
:1031C00007014C47A300F4008347C4002800230FE5
:1031D000F100EF2020195285228797A601009386DF
:1031E000A66630004C08EF0030262A8A55D197A5F4
:1031F000010093856597179501001305A56CEF8075
:10320000010ED28517A501001305459EEF80210D03
:103210002945EF80C110D5552285713195BF9C4D50
:10322000DC4B81CBD04183C5C50103C561856F30BF
:10323000613B82801C4EDC4BA1CBB9C5411126C23B
:103240001795010013050568AE8497A501009385C5
:10325000E59006C622C43284EF806108A68517A5D2
:1032600001001305659FEF8081072945EF80210B41
:103270008345C4012244B240924403C561851306CC
:10328000400641016F3001368280B707B1619387F4
:10329000871A17370020232BF76EB78700209387F4
:1032A0009799173700202325F76EB7976C1415717F
:1032B000938757B617370020232EF76C8810930793
:1032C000802186CF173700202328F76CA2CDEF107E
:1032D0000158B78799619387079011464C002810D1
:1032E0003EC2EFF0DFB597A501009385A58B0818C6
:1032F000EF80E113194697A501009385E592130528
:103300001103EFF0DFB397A501009385A58913059D
:10331000D103EF80C111414697A501009385259106
:103320001305E103EFF0BFB1130660032C10881002
:10333000EF10015985476308F50A97A501009385A9
:10334000A580179501001305E557EF70517917A572
:10335000010013056585EF7091782945EF70317C88
:10336000EF2051739357850003C75185AA97BA97E9
:1033700013570501BA976181AA97A38AF1849737F9
:10338000002093876754173700202325F75A854775
:10339000173700202302F75A973700209387875466
:1033A000173700202328F75A8947173700202305AD
:1033B000F75A973700209387A75417370020232BFD
:1033C000F75A170500001305C5D29147173700209B
:1033D0002304F75AEF30613EFE406E44238BA184F4
:1033E00001452D6182802A848C102800EF10C15481
:1033F0006301850297950100938505751795010076
:103400001305454CEF70B16D179501001305457B11
:1034100099B741462C001735002013052556EF704B
:10342000B1603DBF9387518503C5070013071500A1
:103430002380E7008280011122CC1734002013047E
:10344000E44D26CA044C06CE4AC8DC484EC699CF85
:10345000045CDC4895CB244CDC488DCB0145F24024
:103460006244D2444249B249056182800149AA8935
:103470001609EF20B147C8C8330524011C4D239914
:103480003701DC4BE9FFD9BF0549D5B70949C5B7B5
:1034900010458345C50103C561856F30A1144111F5
:1034A00026C2AA84414506C622C4713705E997950C
:1034B00001009385656C179501001305A540EF7019
:1034C00011621795010013052544EF7051612244E4
:1034D000B2409244294541016F7071646146A685EE
:1034E0002A84EF707154084CB705D4009385851A6F
:1034F00031052523084C83C504003105EF107068A1
:10350000084C930500103105EF105069044C056517
:10351000EFF08FEAB104AA852685EF109066228528
:103520002244B24092444101A5B7411126C2AA8467
:10353000414506C622C4013705E9979501009385E8
:10354000E564179501001305E537EF70515917959C
:1035500001001305653BEF7091582244B24092443C
:10356000294541016F70B15B6146A6852A84EF70E1
:10357000B14B084CB705D4009385851A31057129E4
:10358000084C83C504003105EF10B05F084C93056B
:10359000A0103105EF109060044CEFF08FA7AA85C2
:1035A000B1042685EF10F05D22852244B24092449A
:1035B0004101F9BD011122CC2A8408454AC84EC6F2
:1035C00006CE26CA52C42E89B28909C900C19715F0
:1035D0000000938545826105EF00114D81447D5ABD
:1035E000EF10601863C8A4048144EF10801863CB07
:1035F000A404938781859C43DC47B307F9409187F6
:103600002302F400638809048327C900B307F44048
:103610009587A302F4001C4CD5CB03A38700630756
:10362000030A22856244F240D2444249B249224A06
:10363000056102835C44139714008504BA972390B4
:10364000470179BF1C48139714008504BA9723904B
:10365000070061BF832789000547B307F4409587BA
:10366000A302F40083570400638EE7028DC3094769
:103670006384E7040D47E390E7FA97A70100938777
:10368000E7B41CCC97A70100938747B511A897977B
:1036900001009387A77B1CCC979701009387077C39
:1036A0005CC895BF97970100938747671CCC979795
:1036B00001009387A767EDB797A701009387C7B568
:1036C0001CCC97A70100938727B6D9BFF24062446C
:1036D000D2444249B249224A056182809DE14111AA
:1036E00022C4004606C618448347940075839D8B08
:1036F0006315F700EF00F02A48C4B24022444101AC
:103700008280828079714AD01389350026D242099D
:10371000C16422D44ECE52CC06D6AA890144F114FB
:1037200013590901054A2EC6EF10E003B245634B59
:10373000A4000145B250225492540259F249624AFF
:103740004561828083A7090013171400BA9783D7B5
:1037500007006388B7006394970063742A01050427
:10376000D9B70545C1BF797126D24AD04ECE52CCC9
:1037700056CA5AC806D622D45EC6AA892E89328B6A
:10378000B6843A8ABE8AEF80B01F61C12685EF10E9
:1037900030398D4763EEA7007D55B25022549254C4
:1037A0000259F249624AD24A424BB24B4561828089
:1037B00083DB4400EF00B07F2A84EF1040009307C2
:1037C000740031443305850263C4A702EF00307EE4
:1037D000EF00F07D2A84EF00907E9307740031445F
:1037E0003305850263C4A704EF00707C110519A896
:1037F000EF00F07C330485029307F0171305C01720
:10380000E3D887FC6345750563080B022254B25068
:10381000F249424BB24BD6865286D24A624AA685BC
:103820004A859254025945616FF0101CEF003079BF
:10383000330585027115F9B7832749001385C9003F
:1038400083D52700C13579F181BF6955B9B72D55A9
:10385000A9B7239EA18493878185904381470C4615
:103860003307F500420741836393B70082805446D3
:10387000139847008507C2962390E600D5B7938733
:1038800081859C4303C58700828003D5C1858280E2
:103890004111C16706C61387D7FF6308E502636954
:1038A000A700F117630FF5000145B2404101828086
:1038B0001387E7FF630EE500FD171D8D1335150017
:1038C000EDB7EF40E0557D15D5BFEF40A031E5BF26
:1038D000EF404030CDBF011122CC26CA06CEAA84CB
:1038E00001442EC6EF00F068B2456348A4000145CC
:1038F000F2406244D244056182809C481315140052
:103900003E9583570500E385B7FE0504D9BF0348FC
:103910005500814693F7F60F63E5070181473E8521
:103920008280584593975600BA9703D727006316AD
:10393000B70003D70700E304C7FE8506E1BF83464F
:10394000450001479377F70F63E4D700814711A83B
:103950001C45131657000507B29703D60700E3135B
:10396000B6FE3E85828001119317050156C206CE30
:1039700022CC26CA4AC84EC652C4C187938A8185C2
:10398000635AF00883A70A00C0479C470357040006
:10399000198D42054181636DF50001442285F24095
:1039A0006244D2444249B249224A924A0561828025
:1039B00012052A94E5B7DC4713944900014A3E9466
:1039C000834744006341FA02014A83475400634637
:1039D000FA028509C20993D9090183A70A00984709
:1039E000E3EBE9FC5DBF1C4413195A00A6853E9920
:1039F0004A85D53509ED050AE1B75C4413195A002B
:103A0000A6853E994A85C13D19E1050A7DBFE302BD
:103A100009FC69B7AA848149C9B71C4581E79307A6
:103A2000C5001CC51C45231205001CC19307F00FDF
:103A300063E6B70093F5F50F6F10B014411126C27D
:103A400006C69394050122C4C167C18063F9F500DD
:103A50002244B240A685924441016F107016C18184
:103A600093F5F50F2A84EF10D01122852244B2403D
:103A7000A685924441016F10701293878185884317
:103A800082801C4589C723ACA184014582807D5575
:103A900082809387818598438347450048479207F2
:103AA0003E9582802171232C811A1C1800453EC648
:103AB000B70780013EC81C183ECA83574400232E16
:103AC000111A2328211B232A911A02CE02D002CCDC
:103AD000231EF100834784002A8902D22301F102C8
:103AE0003C083ED402D67537835705002316F102F1
:103AF000EF4020002307A1025C4003556400F183DE
:103B000013F717008347F10252055181F99BD98FB2
:103B1000A307F102EFF0A05C31CDAA8403550500A4
:103B2000EF80E06683D704002AD26800231CF100EE
:103B300083D72400231DF1001C4803D647008C4383
:103B4000EF1050028347B400CA8617A6010013067F
:103B500026D08117A305F4006C004810EFF0C06870
:103B60008320C11B0324811B8324411B0329011BC8
:103B7000396182802155EDB71C45B1CF03C5A7003F
:103B8000894613576500630BD7028D46630ED70233
:103B900085466300D702130740063305E50203C7D5
:103BA000B700418B15CB83C7B700BD8B3355F540AC
:103BB00082801375F5031307803EC5B70967137537
:103BC000F50313070771D1BF372709001375F503F4
:103BD0001307077CD9B70145828041114AC003A968
:103BE000850006C622C426C2630809048347B900BB
:103BF000AE8493F7070E95C3034599009305200300
:103C00000D810505B305B50288442244B2409244B3
:103C10000249610541016F00A1752E85B13F2A84DB
:103C200001CD41238325C900B307B54063FC87005C
:103C30002E94B305A440E9F9B240224492440249CB
:103C4000410182808545C9B7797126D2AA8403D5FE
:103C5000250022D42E8493053500C2054AD04ECECD
:103C600052CC06D6C18185473289B6893A8A63FB30
:103C7000B700EFF0C046AA857D55A1C183D70500E6
:103C80002310F4000355040002C202C402C6EF80F0
:103C900000502AC2268522C4ED3B83570500231617
:103CA000F100EF3010652307A100D2874E87CA8646
:103CB00001464C002685EFF01FABB25022549254BF
:103CC0000259F249624A4561828021711C183EC640
:103CD000B70780013EC81C183ECA3C08232E111AA3
:103CE000232C811A232A911A2328211B00453ED414
:103CF000AA8402CC02CE02D002D202D6EFF07FD943
:103D00008357050035592316F102EF30905E2307E3
:103D1000A10209C48357440089EF21598320C11BA4
:103D20000324811B4A858324411B0329011B39611C
:103D300082800355640052055181EFF0403A2A8990
:103D400069DD8347B40093F7070E89C71305840123
:103D5000EF00016383574400231EF1008347840072
:103D60002301F1025C4003550900D98313F70708CA
:103D700083471102231CA10093F7F707D98FA300F3
:103D8000F10283572900231DF1005C40F18313F7F2
:103D900017008347F102F99BD98FA307F102EF8047
:103DA000003F2AD23DD983479400680013975700FB
:103DB0008347B400FD8BD98FA305F4001C4803D6BC
:103DC00047008C43EF10005AA68717A7010013077E
:103DD00027A8740005464C102685EFF0DF982A8945
:103DE00015DD8347B400A685FD8BA305F400F533EC
:103DF00035B7011126CA832485FE22CC2A84268564
:103E000006CEEFF07FD7834734FF93F7070E85C7C1
:103E10002AC62685EFF01FC921C5834734FFB24566
:103E2000FD8BA309F4FE8DCD22856244F240D2447D
:103E300005616F00E1530DC58327C4FF2685829776
:103E400005E1834734FF93F7070E81C72285EF0012
:103E50002153032584FE6244F240D2440561B5B586
:103E6000F2406244D244056182809C415D71A2C4EB
:103E7000CAC086C6A6C24EDE52DC56DA5AD85ED614
:103E800062D466D26AD06ECE03C7070089472A89FA
:103E9000935667002E846386F6040D46638CC60431
:103EA0009307F0076300F7022E85EF10E057AA840E
:103EB0008149C16B130C4900938781859C439847C6
:103EC00063E8E904B640264496440649F259625A2A
:103ED000D25A425BB25B225C925C025DF24D616140
:103EE000828003D745008547E3FEE7FC2E85EF106F
:103EF000C05775BF03D74500E3F6E7FC2E85EF10EA
:103F0000A052AA842285EF10E053C204C98C4DB799
:103F1000DC470355A900139A49003E9A93170501FF
:103F2000C187635DF00083570A006395A70263E5CC
:103F300074038327CA00034D5A001DA0A16721679F
:103F4000A98F1307F7EFE374F7FE63950900EFF00D
:103F50003F9471FD85098DB783278A00034D4A0080
:103F6000835DA90003576900216A138BC7003AC615
:103F7000814A33CA4D01631C5D01938701869C43CE
:103F8000F1DBA2866286814526858297E1B7A1672B
:103F90009387F7EF930C4BFF63F04703B2455A85C5
:103FA000EFF04FF619CD03278B00104719CA1043C5
:103FB0006380C4023107D5BFEE856685EFF0BF91FF
:103FC00071FD93861A0093FAF60F130B0B0265B777
:103FD000835644005C43E3EFF6F622853AC6EF10C1
:103FE0008033A1679387D7042A8A035D4400324750
:103FF00063E897008347D90093E707F8A306F90021
:104000001C4766852286E2858297C1670844FD17B2
:10401000337AFA00529508C02312A40125BF938772
:1040200081859843814715C31447814763FFD500B5
:10403000939745004C47BE9519C903C75500814762
:104040006375E600DC451606B2973E85828003C79D
:1040500045008147E37BE6FE16069C45F5B7011156
:1040600026CA4EC652C456C206CE22CC4AC85AC030
:10407000AA892E8A8144938A818583A70A0098475A
:1040800063ECE400F2406244D2444249B249224A1D
:10409000924A024B05618280DC4713944400014937
:1040A0003E9413BB140083474400634BF90001495D
:1040B00013BB140083475400634FF900850475BF98
:1040C0000844931759005287DA860146A2853E9527
:1040D00082990509C9BF4844931759005287DA8667
:1040E0000546A2853E9582990509E9B7239E01847C
:1040F000814517F5FFFF1305254C95B793878185FB
:104100009C4399C7814517F5FFFF1305E54A81BF19
:104110008280797126D24AD04ECE2315E1002E89B5
:10412000B284B6893A8681460147ED4522D406D647
:104130002A84EF20D1422AC639C10356A100CE8578
:10414000EF70810ECA852285EF20D153058915C5F0
:10415000228501462C0023149100EF20116A2A8445
:1041600009C5ED452800EF20F14D2285B2502254BB
:1041700092540259F249456182804944DDB7655441
:10418000EDB75C41FD175CC18280411106C6EF208E
:10419000213495473305F502B240814541010D8137
:1041A0008280411106C6EF20A13295473305F50202
:1041B000B24041010D818280035505006F207116C8
:1041C000035505003287AE8617160020035626B029
:1041D000972500209385457D2DBF411106C6EF60D0
:1041E0002106B2404101828041119725002093852C
:1041F000A57B06C6EF20D167B24001454101828010
:104200004111814517150020035565A806C6EF200A
:104210009151B24041018280411197250020938540
:10422000A57906C6EF20D164B240014541018280E4
:104230004111814517150020035565AB06C6EF20D7
:10424000914EB2404101828041112E8506C6EF6039
:10425000303CB24041016F6010456F60304D5C49A9
:10426000E1175CC95CC583572501A1072319F50037
:1042700083570501A1072318F5008280F147330514
:10428000F502938741869C433E9582808D47631B50
:10429000F60803D74600854763F6E70841113685DF
:1042A00022C44AC006C626C236842E89EF10C01723
:1042B00025C58357440093140501C18063EE97041C
:1042C0002285EF106016FD14231294009307A002BC
:1042D0006302F5029307B0026308F50293079002A8
:1042E000631CF50222852244B240924402494101F6
:1042F0006FD0701922852244B2409244CA85024987
:10430000014641016F80805E22852244B240924482
:10431000024941016F00D050B24022449244024908
:10432000410182808280938681869C42014599CB9F
:104330009843D44223A4E1866394D70023A6E18660
:104340001385C7FE8280411122C406C67144F12E36
:10435000330585029145EF70502811E56555B2404F
:104360002244410182809727002023A5A766752E4D
:10437000330585029145EF7050266DD123A2A186A9
:104380006D26972700202391A764452697270020B4
:10439000239DA762979701009387C74F1727002097
:1043A0002328F762970700009387A7EB17270020C1
:1043B000232EF760014565B7AA8517250020130550
:1043C000A5606F10801A411106C6FD37EF10601B03
:1043D000938781869C4391CF1387C7FE19CBB24048
:1043E00083D5C7FF172500201305055F41016FF036
:1043F0003078B24041018280411106C622C426C2F3
:104400004AC0153721C1834785002A8493F70704E2
:1044100089EB2244B240924402490355E500410130
:104420005DB78347C50093044501138981868DE3F9
:10443000832709005CC923A491868327490099E357
:1044400023A69186B24022449244024941018280CF
:10445000FD172306F5006105EF60F0328307840045
:1044600063C107068347840093E707F82304F40039
:10447000EF1051629357050193F7F70FAA9713D5E1
:1044800087013E954205A94741813375F50283476F
:10449000840093F707FCC98F2304F4008347D400FA
:1044A0003E951C402318A40089CF984319CB83471D
:1044B000C4005040814585073305F502420541811E
:1044C0000297832709005CC823A4918683274900AB
:1044D00099E323A691868347C400ADD78355040191
:1044E0002244B24092440249172500201305C54ECC
:1044F00041016FF0F067972700209387E75C9C47A6
:10450000411122C4858306C626C2858B014481EFF2
:10451000AE84B2853A86EF10800C2A8409C5EF106C
:104520002003829408CC2285B24022449244410167
:104530008280797106D622D44AD04ECE2E8932C6D8
:1045400026D2AA89AD24324713060502CA869705EA
:1045500000009385E5D2172500201305E546613F4D
:104560002A8429CD9304C50035261946AA852685B7
:10457000EF00505F85452685EF00105C1795010020
:10458000130505304E95834505002685EF00705FC5
:104590005C4831468145A1075CC85CC4835724014F
:1045A000E1172319F40083570401E1172318F400DD
:1045B0001C4C3E85EFC0FFE3A30425012285B250C9
:1045C000225492540259F24945618280011106CE6B
:1045D00022CC26CA2EC6AA8432C4EF00D079004D60
:1045E000B2452246834784000CC050C093F7F703BE
:1045F00093E707042304F400231804002685EF0042
:10460000307583479400A9462317A40013D73700B9
:1046100005073307D7029D8B85072306F400A30601
:10462000E40083C70401D8488507230FF7FE1387EA
:1046300081865843232A04009307440105EB23A6EF
:10464000F18623A4F186172400201304E438228580
:10465000EFF090471C44858B5D8D09ED2285624407
:10466000F240D244814505616FF090501CC323A6EF
:10467000F186D1BFF2406244D2440561828041118B
:10468000970500009385C5C0014506C6EFF0DFBB66
:10469000B2400145410182806FF03FBC8347C500B5
:1046A000B1EB411122C42A840355E50006C6EFF0A0
:1046B000BFD00DCD8347840093F7F7FB2304F400AC
:1046C0001C4091C7DC4381C74C4001458297EFF005
:1046D0009FC51725002013052530EFF0704A0355BC
:1046E000E4002244B24041016FF0FFCDB2402244C9
:1046F000410182808280938781869705000093859F
:10470000E5CF172500201305252D23A0070023A2A0
:1047100007006FF070391C4D81CB03A34700630580
:1047200003008345070002838280938781879C432F
:1047300003C507008280938781879C4303C51700C8
:104740008280938781879C4303C52700828093875B
:1047500081879C4303C547008280938781879C4360
:1047600003C537008280938781879C4303C5570028
:104770008280938781879C4303C5670082809387EB
:1047800081879C4303C577008280938781879C4300
:1047900003C587008280938781879C4303C5970068
:1047A0008280938781879C4303C5A700828093877B
:1047B00081879C4303C5B70011E11D458280938723
:1047C00081879C4303C5C7008280938781879C4370
:1047D00003C5D7008280938781879C4303C5E70088
:1047E0008280938781879C4303D5070182809387CA
:1047F00081879C4303C527018280938781879C43DF
:1048000003D547018280938781879C4303D5670145
:104810008280938781879C4303D587018280938719
:1048200081879C4303C5A7018280938781879C432E
:1048300003C5B7018280938781879C4303C5C70165
:104840008280938781879C4303C5D70182809387A9
:1048500081879C4388578280938781879C4303D5B7
:10486000C7028280938781879C4303D5E70219E1C1
:104870001305800C8280938781879C4303C50703BF
:104880008280938781879C43C85B8280938701875E
:1048900088438280938741878843828019E17D55D0
:1048A0008280F5DE984265DFFDD9172700201307C7
:1048B000A7211847AA877155058B6319071E03C5E1
:1048C00007001547E37DA7FC03C737001305F00574
:1048D0007D171377F70FE364E5FC03C7570061D337
:1048E00003C767004DDF03C7770049457917137782
:1048F000F70FE366E5FA03C7A70011457D171377A5
:10490000F70FE36EE5F803C797000D457D171377A2
:10491000F70FE366E5F803C7B70001CB6517137718
:10492000F70F1305600DE36CE5F603C7C700794583
:1049300079171377F70FE364E5F603C5D7000D4742
:104940007D151375F50FE36CA7F403D50701130864
:104950004017511542054181E363A8F403C5E70000
:104960007D151375F50FE36CA7F203C527017D15BF
:104970001375F50FE365A7F203C587004548751564
:104980001375F50FE36DA8F003D5670105681308EB
:10499000B8E06D1542054181E363A8F003D54701F6
:1049A0006D1542054181E36CA8EE03D587017915A9
:1049B00042054181E365A7EE03C5A7017D15137587
:1049C000F50FE36EA7EC03C7B7011D457D171377FD
:1049D000F70FE366E5EC03C7C7010D457D171377B5
:1049E000F70FE36EE5EA03C7D7017145791713772F
:1049F000F70FE366E5EA03D7E7011305E00F7D173C
:104A000042074183E36DE5E803C70702494579178B
:104A10001377F70FE365E5E8D85301CB37C53400CA
:104A20005917130555BFE36CE5E6885737C73400BF
:104A3000130757BF5915E364A7E603C70703E3004D
:104A400007E623ACF18603C7050123AAC186854783
:104A5000E3F7E7E403D72501DC49B3F7E702E39086
:104A600007E483C71501E38C07E24111368506C6CA
:104A700023A8B18622C4EF70C03FEFE0205B2A84F8
:104A8000EF90400A2A94EFD0C04B2A94EF70C05A9E
:104A90002A94EFF05F8B2A94EF20107A2A94EF503B
:104AA00070342295B24022444101828082800111FB
:104AB00006CEA307A100EF80A07E9305F1001705A5
:104AC0000000130585C5EFF08FD9F240014505615F
:104AD0008280797122D4172400201304E4FE032875
:104AE000840026D2AE849365180006D64AD04ECEF6
:104AF00052CC56CA9728002023ACB8FC1378180073
:104B0000631E08083E899387C190BA899843B2858D
:104B1000BE8A2A86014A01CF2AC2014536C62EC462
:104B2000EFD0A068B246A2451246133A150026857A
:104B3000EF806013AA841DC51C44F99B1727002031
:104B40002328F7F883A70A0081C763030A00829726
:104B5000B2502254268502599254F249624AD24AEE
:104B6000456182804E859727002023A107F6EFE05C
:104B70005FCE4146CA8517250020130565FEEF600C
:104B8000A16AEFB0A0180325040BEFB0201A01456D
:104B9000EFB040200545EFF09FF15DBFF9544DBFE8
:104BA00097270020938747F29C47858BD5C34111F7
:104BB00017250020130505F906C69727002023A511
:104BC00007F09727002023A307F09727002023A1B1
:104BD00007F0EFF0E07AEF406037EFF0C04FEFF012
:104BE00080549387418B9C4381C70545EF704001FA
:104BF0009387018A9C4389C741657D15EF50B03F7B
:104C0000EFD02063EFB0E01097270020938787FD57
:104C10009C431397170163540700EFC0F06997276F
:104C2000002023AF07F29727002023AD07F2972734
:104C3000002023AB07F29727002023A907F2EFF00B
:104C4000BFA5E92BEFF08FCAB24041016FD0600CD5
:104C50008280397122DC2A8426DA930414024ED62B
:104C60002E85B289A68521464AD806DE36C63A89FF
:104C7000EF6021591DE5B24638082686CE8513051A
:104C80009404EF40300121462C084A85EF606157BB
:104C900013351500F2506254D2544259B259216171
:104CA00082800145C5BF93054506172500201305E1
:104CB00065D46FF0E06B011106CE2EC6EFF06FCE1B
:104CC000B245F24088C105618280411122C426C2EA
:104CD0004AC0AA842E8406C6EF70004D83C7E40143
:104CE000AA851389940899E3138904032285512D19
:104CF0002146930519022285B52597270020938721
:104D0000A7DC8C432285EF00606E22852244B240EE
:104D1000024993858402924421464101A1A559711B
:104D200086D6A2D4A6D2CAD0CECED2CCD6CADAC823
:104D3000DEC6EFC050749305400645E9EF7040446D
:104D40006302051283C7C18713B71700238EE1865C
:104D5000014489CFC164172900201309E9D69309BA
:104D6000400EFD14EFF03FA36348A408EFF06FC3BB
:104D70004169B7290900096AFD7A2A8B81447D19A6
:104D80009389F97B130A0A71938A8AC7EFF0BFA04F
:104D900063D5A4041304400EB387840217270020B0
:104DA000130787D20324070B3E948357C4016386FD
:104DB000270918403307EB4063EAE90083474400C2
:104DC0008507B3874703D6976369F7060146814590
:104DD0000945EFF00FF6AA8B29E1EF20B074854763
:104DE000631FF50489659385057117250020130558
:104DF00065C0EFF0E057A1A8B30734030327090B00
:104E0000BA9703D7C7016308970003C75700A38267
:104E100007002382E7000504B1B79305C50022858A
:104E2000EFF0BFEA5E85228697950100938585A500
:104E3000EFF0CFF95E85EF00C074850481BF97273E
:104E40000020938767C89C478D83858BC1FFB65030
:104E5000265496540659F649664AD64A464BB64BEE
:104E60006561828001468545094502D002D202D49F
:104E700002D6EFF00FECAA8479D9EFC0505F138906
:104E8000C4002A8481454A85ED290C4041464A8563
:104E9000D12983294400638709084E8502D802DAA4
:104EA00002DC02DEEF60C1592ACE141005462C0840
:104EB00008184ECCEF4000541375F50F25E58355C7
:104EC000840093E525004A85E52911460C104A85A2
:104ED00051290146979501009385459B2685EFF062
:104EE000EFEE2685792D5C40BDD3014685450D4505
:104EF000EFF02FE4AA8421DD48401389C400EF605D
:104F000021542AC64A8529293246636AC5004C4085
:104F10004A858929014681452685EFF02FEB2685B4
:104F20008D2535B78355840079BF97270020938757
:104F3000A7B99C4709CD93E78700172700202329AD
:104F4000F7B8172500201305E5AA6FF0804141113D
:104F5000DD9B06C617270020232CF7B6EF20905CB8
:104F600009E9B240172500201305C5A841016FF0DB
:104F70002041B2404101828079714AD0416926D2F4
:104F80004ECE52CC56CA5AC85EC662C466C206D657
:104F900022D4AA892E8AB28A368BBA8B8144172CE6
:104FA0000020130C6CB2930C400E7D19EFF0AFFE95
:104FB00063C4A40001442DA03384940383270C0B05
:104FC0003E948357C401638B27055A87D686528641
:104FD000CE8513050403EFF0DFC70DC123800B005E
:104FE0002285B250225492540259F249624AD24A5E
:104FF000424BB24B224C924C456182808347F40174
:1050000091CF5A87D6865286CE8513059408EFF045
:105010005FC409C585472380FB00D9B7850479B7EC
:1050200083574500638A0718397122DC06DE26DAC9
:105030004AD84ED652D456D25AD02A84F52611CD0B
:1050400085476301F506F2506254D2544259B25971
:10505000225A925A025B21618280EFC0D04165F5ED
:10506000835744004947ED9BE39FE7FCC1452285F8
:10507000492CAA842285D52E0357440002CE91479D
:105080002A896317F700228511293C082ACC3ECED5
:10509000EFC0F03D5C55C5DB74084A86A685054522
:1050A000829755B703574400D147E3FEE7F8032A38
:1050B0000400C1690149972A0020938AEAA0130BD2
:1050C000400EFD19EFF02FED6344A90C2285032A51
:1050D0000400992EA1452A8922852524AA842285A7
:1050E000752E14402A86AA8978082685CA85EFF08D
:1050F000BFE8AA8429D903C7F40189476315F700DB
:105100008347C101A9D35546D28513856400EF605A
:10511000A1110145EF70A00701C583D7C401B1EB10
:10512000972700209387479A9C47935519008589B4
:1051300013D73700058B11CB8983858B6397B70015
:1051400001452EC6EFF07FDEB2454E85EF70C00BF5
:105150000346C1012A84937519002685EF80A00DAE
:1051600031C92685EF708006268511C00145EF7094
:105170002035EF20303B8547E317F5EC83C754001B
:105180001307F00FE381E7EC8507A382F40065BD08
:10519000B304690383A70A0BBE9483D7C401638950
:1051A00037015546D28513856400EF60810571D1C2
:1051B000050909BF5DDC5DBF8280011106CE22CCEE
:1051C00026CA4AC84EC6EF60B07B11CDC164014407
:1051D000172900201309498F9309400EFD14EFF0A1
:1051E0008FDB634EA4006244F240D2444249B2498C
:1051F000172500201305058005616FF08016330523
:1052000034038327090B3E958357C50163869700B6
:1052100023120500EF60907B0504D1B7972700208B
:105220009387878A9C478D83858B99E71715002084
:105230001305457C6FF0C0148280970500009385AC
:1052400045AE171500201305E57A6FF0E00583C71A
:10525000F5FF2E858507A38FF5FE828083C7F5FFB6
:10526000FD1793F7F70FA38FF5FE89E71385F5FF79
:105270006F00116582808841411106C6050542050F
:105280004181EF00B16609C585472300F50005059A
:10529000B240410182801C41035745008D8FBA9571
:1052A0001CC12312B5003E85828093D78500A205DC
:1052B0001441DD8D835745001387E6FF18C1890728
:1052C0002312F50013D685004111238FB6FEA38F5C
:1052D000C6FE4101828018419307F7FF1CC1835726
:1052E000450085072312F500A30FB7FE8280835780
:1052F00045008D8F2312F5001C41BE950CC12E85F3
:105300008280AA8703D7470008410D8FAA95239270
:10531000E7008CC38280184108453305A74082808E
:1053200083574500035765001D8F1C410845338591
:10533000A7403305A7408280011122CC2EC606CE9D
:105340002A84EFF0FFFDB2456373B50001A08357D7
:1053500044000840F240BE952312B40062443E95DA
:1053600005618280011122CC2E84B28506CE32C620
:10537000EFF09FFCA28562443246F24005616F5017
:10538000B16A411122C42E84854506C6EFF0DFFACA
:1053900023008500B240224441018280011123177D
:1053A000B100894506CEEFF03FF98347E1002300C5
:1053B000F5008347F100A300F500F240056182800B
:1053C00093D78500A2050111DD8D2317B100894512
:1053D00006CEEFF07FF68347E1002300F500834718
:1053E000F100A300F500F24005618280139785016A
:1053F00093D78501C166938606F0D98F13D78500B0
:10540000758FD98FA2053707FF00F98D0111DD8D4A
:105410002EC6914506CEEFF03FF26C001146EF50DC
:10542000B160F240056182801C41411106C622C470
:1054300003C407008545EFF09FEB2285B24022446C
:10544000410182801C41011106CE03C7070083C7BA
:10545000170089452307E100A307F100EFF03FE9BA
:10546000F2400355E100056182801C41011106CE26
:1054700003C7070083C7170089452307E100A30777
:10548000F100EFF0DFE68357E100F24013D587002B
:10549000A2075D8D42054181056182800C410111A9
:1054A00022CC11462A84680006CEEF50F15722859F
:1054B0009145EFF0DFE3B247C166938606F013979C
:1054C000870113D58701598D13D78700758FF24057
:1054D0006244598DA2073707FF00F98F5D8D056182
:1054E00082801C45BE950CC18280AE87944391E6B4
:1054F000584101EF0CC15CC1828003C7570013679C
:105500001700A382E700B687D5B70CC3EDB7AA870B
:10551000084119CD1841D44398C36313D500D8C3AB
:105520002A87034657009376160081E6232007005A
:105530008280944381CA8C4203A847008CC3639342
:105540000601CCC3799A14C3A302C7003687D1BF22
:105550001C45DC471D8DB777DBB6938777DB098564
:105560003305F502420541818280F147B385F5029A
:1055700048452E9582808347450085072302F50024
:105580008280411122C406C62A8409E4B240224422
:105590004101828083474400F5DBFD1793F7F70F45
:1055A0002302F400E5F71C4403D7270005072391E5
:1055B000E700DC4399C3228582974C4889CD834715
:1055C0005400898B99E71C4422859C479C439C4747
:1055D0008297232A04000040232004007DB78357CC
:1055E0002500011106CE22CC26CA2EC681EB01442D
:1055F0002285F2406244D24405618280035705004F
:105600008147F146E305F7FEB385D702404585079C
:105610002E948345440008C4F5F5B247AA8481E777
:10562000232A040009A81C456C0022859C439C4346
:10563000829748C84DDD85472312F400B2472320E6
:105640000400231804002319F4005C485CC483D7C9
:105650002400FD172391F40061BF938701888843DC
:10566000232605002324050041056FE07051011138
:1056700022CC138401881C4006CE95C39C4723008E
:10568000B5002AC65CC1EFF05FFD1C4003A34700D4
:105690006307030062443245F24005610283F24031
:1056A0006244056182800347450015EB584DAA8787
:1056B0007D5505CB411106C61CC3DC4723A0E188FC
:1056C000F156130507012390D70097050000938535
:1056D000A501EFE0703DB2400145410182807D555A
:1056E00082808280797161468145280006D6EFB0BC
:1056F0005FD0938701889C4328009305F00FDC4717
:105700003EC6EFF0DFF6B250456182809387018894
:105710009C43D847A1679387C7026312F70A397180
:1057200006DE22DC26DA80004AD84ED652D456D283
:105730003285B284EFF05FCFAA892685EFF09FD043
:105740002318A4FC2685EFF0FFCF2319A4FC26859F
:10575000EFF05FCF83D744000A8A231AA4FC858325
:1057600093F7F70F230EF4FC8607BD0793F7073F67
:105770003301F1408A8A01498347C4FD6365F90218
:10578000CE85130584FC232C54FDEFF05FEE52818F
:10579000130104FCF2506254D2544259B259225AB5
:1057A000925A216182802685EFF0DFC99317190094
:1057B000D69705092390A7001379F90F75BF82804A
:1057C000938701889C43D847A1679387A7026310FA
:1057D000F70A397106DE22DC26DA80004AD84ED676
:1057E00052D456D23285B284EFF01FC4AA892685DE
:1057F000EFF05FC5FD572318A4FC26852319F4FCA0
:10580000EFF05FC483D744000A8A231AA4FC85837F
:1058100093F7F70F230EF4FC8607BD0793F7073FB6
:105820003301F1408A8A01498347C4FD6365F90267
:10583000CE85130584FC232C54FDEFF05FE35281E9
:10584000130104FCF2506254D2544259B259225A04
:10585000925A216182802685EFF0DFBE93171900EE
:10586000D69705092390A7001379F90F75BF828099
:10587000938701889C43D847A16789076318F70875
:10588000397106DE22DC26DA80004AD84ED652D4A0
:1058900056D232853289EFF03FB9AA894A85EFF0B6
:1058A0007FBA835749000A8A2318A4FC858393F79B
:1058B000F70F230CF4FC8607BD0793F7073F33016E
:1058C000F1408A8A8144834784FD63E5F402CE85F2
:1058D000130584FC232A54FDEFF07FD95281130174
:1058E00004FCF2506254D2544259B259225A925A8C
:1058F000216182804A85EFF0FFB493971400D69718
:1059000085042390A70093F4F40F75BF82809387DA
:1059100001889C43D847A1679387E7046312F70A7D
:10592000397106DE22DC26DA80004AD84ED652D4FF
:1059300056D23285B284EFF03FAFAA892685EFF0C8
:105940007FB02318A4FC2685EFF0DFAF231AA4FC58
:105950002685EFF03FAF83D744000A8A2319A4FCC1
:10596000858393F7F70F230EF4FC8607BD0793F7A3
:10597000073F3301F1408A8A01498347C4FD6365CB
:10598000F902CE85130584FC232C54FDEFF03FCEA5
:105990005281130104FCF2506254D2544259B2595C
:1059A000225A925A216182802685EFF0BFA993176F
:1059B0001900D69705092390A7001379F90F75BF31
:1059C0008280938701889C43D847A1679387C70447
:1059D0006310F70A397106DE22DC26DA80004AD825
:1059E0004ED652D456D23285B284EFF0FFA3AA89A4
:1059F0002685EFF03FA5FD572318A4FC2685231A22
:105A0000F4FCEFF03FA483D744000A8A2319A4FCD6
:105A1000858393F7F70F230EF4FC8607BD0793F7F2
:105A2000073F3301F1408A8A01498347C4FD63651A
:105A3000F902CE85130584FC232C54FDEFF03FC3FF
:105A40005281130104FCF2506254D2544259B259AB
:105A5000225A925A216182802685EFF0BF9E9317C9
:105A60001900D69705092390A7001379F90F75BF80
:105A70008280938701889C43D847A167DD07631C18
:105A8000F7023971328506DE22DC3284EFF0DF99CD
:105A90002AC62285EFF01F9B2311A1022285EFF079
:105AA000BF98B2452300A1022808EFF05FBCF25076
:105AB0006254216182808280938701889C43D84709
:105AC000A16793878704631CF7023971328506DE6C
:105AD00022DC3284EFF05F952AC62285EFF09F9694
