:040000006F108019E4
:1000040000000000000000006F0080086F00E02284
:1000140000000000000000000000000000000000DC
:1000240000000000000000000000000000000000CC
:100034006F004006000000006F00E00500000000B3
:100044006F0080056F0060056F0040056F0020059C
:100054006F0000056F00E0046F00C00400000000A2
:100064006F0060046F0040046F0020046F00000400
:100074006F0060236F00C003000000006F00600386
:100084006F0040036F0020036F0000036F00E00265
:1000940001A001A001A001A001A001A001A001A054
:1000A40001A001A001A001A001A001A001A001A044
:1000B40001A001A001A001A001A001A0B717004068
:1000C400130770052380E704130780FA2380E704ED
:1000D4002396A70223800704371700408347270588
:1000E400898BEDDF835707053717004083472705C2
:1000F400898BEDFF3717004083472705898BEDDF98
:10010400035507058280B7170040930670052380C6
:10011400D704130780FA2380E70403C6B7041376D1
:10012400F60DA385C70423800704137605022DC6A4
:1001340003C6A700118A0DE22380D7042380E704B5
:1001440003C7A700136747002385E7009307004B05
:1001540001000100FD17EDFFB7170040930670057D
:100164002380D704130780FA2380E7047D8923942E
:10017400A70001000100010001002380070423807F
:10018400D7042380E7049306100537270040A30310
:10019400D780238007048280137605046DDE03C6AE
:1001A400A700418A0DE22380D7042380E70403C714
:1001B400A700136707012385E7009307007D01006B
:1001C4000100FD17EDFFB71700409306700523806B
:1001D400D704130780FA7D892380E7041365050497
:1001E4002394A700010001000100010023800704FB
:1001F4002380D7042380E704930630053727004083
:1002040079B74111814601468145114506C6AD22A3
:10021400B7170040130770052380E704130780FA1B
:100224002380E70403C76704136717002383E704E5
:1002340023800704B2404101828081460146814502
:1002440011451D2AB7170040130770052380E704E2
:10025400130780FA2380E7047D572396E70203C738
:100264006704136717002383E7042380070401A0AE
:10027400BD473305F50201007D1575FD82804111EE
:1002840022C426C206C6AA84014463179400B2405D
:10029400224492444101828005041305803E4204B5
:1002A400C13F4180DDB7B71700401307000323881F
:1002B400E702854723AAF1887300203023030480D2
:1002C40015472303E48001002302A480828083076E
:1002D4006480E3CE07FE2303048082808307648066
:1002E400E3CE07FE03454480828083076480E3CE27
:1002F40007FE2302A4808280411126C44AC24EC054
:1003040006C61377F50BAD47AA892E899544630673
:10031400F70019456537653F8D444E854537FD59CE
:10032400FD1463983401B240A24412498249410148
:100334008280135509011375F50F453F2209CDB786
:10034400011126CC06CEB704080051371545BD3738
:10035400713769372AC6A53F32459377150089EB73
:10036400136515001375F50FF240E24405618280B0
:10037400FD14E9FC0145CDBF397126DC4ADA4ED8BB
:1003840052D656D45AD25ED006DE62CE66CCB7E7D9
:1003940000E07D5783AA070022C603AA470023A0D2
:1003A400E71823A2E718B717004013077005238046
:1003B400E704130780FA2380E70483C74704930BF9
:1003C40075FFB684E20793FBFB0F8546AA892E8B43
:1003D400328937240040E187015763FA76016308C4
:1003E400D5008946130700026313D5000157D98F3E
:1003F40093F7F70FB71C00402382FC041147230333
:10040400E4801305F00F5D3D094CD13563697C111F
:10041400B70707003E9B378707007955637EEB02D9
:10042400B3079B00636AF702A9476399F90689E455
:100434008144713D26850DA0DA850945753D050980
:100444000345F9FFFD14050B4D3581C49377FB0F6C
:10045400FDF7FD3569FD7D55B7170040130770059D
:100464002380E704130780FA2380E70403C74704C3
:10047400418B2382E704F250B7E700E023A0571131
:1004840023A24711E25432445259C259325AA25A51
:10049400125B825B724CE24C21618280A5476395BA
:1004A400F90685691309F00FB3069900B3742B019B
:1004B400B6941349F9FFB3749900856B33796901D4
:1004C400416B9387F9FFB3F7270199E363FC340188
:1004D40093D94900C147E3E637FF99BF0569C1696C
:1004E4007D19D9B71305800D6388690113050002CE
:1004F4006384790113051008CA85FD3B913521DD1C
:100504004E99B3843441D9B7DA852D45F533CA946D
:10051400E30099F20509D933A30FA9FED5BF938748
:10052400F9FF93F7F70F636CFC0803C75C04B70784
:1005340008001377070219E3B78707007955E37DAD
:10054400FBF033079B00E3E9E7F089476390F90484
:100554008980D549E38E04ECDA850945713B11099C
:100564000327C9FF91472320E48003076480E34EF7
:1005740007FE23033481FD17EDFBFD14110B81C429
:100584009377FB0FE9FF6D3B71F5F1B58547E38781
:10059400F9F4DA852D458D339389F4FFE38A04E871
:1005A400353B93F7390091EB832604800327090038
:1005B40093074900E39FE6E63E89CE84F1BFB54741
:1005C4006396F9001305900BD5399DB5B147130512
:1005D400B00AE38BF9FE9947639EF902DA852D454B
:1005E400213B81448D4BA149D539639674018327FE
:1005F40004802320F9008504E39834FF83270480D2
:1006040013172B01635507002312F90015B5232294
:10061400F90039BD9D476399F90281451305B0047A
:10062400E139BD442320090023220900FD597D310D
:1006340093F77400CA9703C70700FD14398D23800C
:10064400A700E39634FFEDB3A1476392F904CD39D3
:100654008144630D0B008D479304C0036308FB00C2
:100664009304000563048B01930440041375C507C8
:10067400E30095DC19459931993905458131268581
:10068400AD3109459D316D39E31405DAE9B391477C
:100694006399F9001305600615311539130590099E
:1006A40025B7E38709D8F15469B319CDB7170040CA
:1006B400130770052380E704130780FA2380E704F7
:1006C4002396A70223800704828019C1814799E9F0
:1006D40082803387F500834607003307F5008507DA
:1006E4002300D700E397C7FEE5B719C1FD5781E999
:1006F4008280910503A7C5FF1105232EE5FE7D1613
:10070400E319F6FEF5B7797122D417340000130407
:10071400A4911C4006D626D24AD04ECE91C78297C9
:100724009737000023A207905C4089CB03D5C18C86
:10073400AD3F5C40829703D5E18C853F1C40639CB0
:1007440007189737000083C7B7A1858B95C79737DC
:100754000000A38707A017370000034797A091471D
:1007640063FCE7007D2B9737000083C7979FF91739
:100774008A07A2979C4382979737000083C707A3F1
:10078400918B89C7970001E0E78060B51C4491C351
:1007940082979387818C9843173600000346D68648
:1007A4003E8997340000938424869737000083C7DA
:1007B400A78593961700BA9683D60600638306101E
:1007C4009737000083C7478463FBC70686073E97B5
:1007D400835507002310070003D5C18C2EC6F135BD
:1007E4009387C18D9C43173500000345E58113179A
:1007F4002500BA979C43B2458297AA8903D5E18C18
:100804006D359737000083C7278013971700832718
:100814000900BA9703D70700B3E9E9002390370129
:1008240083C70400850793F7F70F17270000230DEC
:10083400F77C172700000347377D63E6E700972717
:1008440000002383077C1C40D9E79387418D98439C
:100854003E8451C39737000083C7F79091CB9737F5
:10086400000083C7179089E797F000E0E780C06B2A
:100874001C4082972A8425C19C48AA971727000008
:10088400232CF7789387818D9C43B1C703D5C18C02
:10089400293D228597F0FFDFE78060C99727000094
:1008A4009387C772DC5389C797F0FFDFE78000A204
:1008B4002254B25092540259F24903D5E18C456155
:1008C400EDB3850793F7F70F97260000238EF67292
:1008D400E3EDC7ECF5B5B250225492540259F249F3
:1008E400456182809167B7C600409387373023A65D
:1008F400F6200F100000972700009387E770884FB9
:100904009387019C9C43316713073730F053B70733
:100914001000FD17918F99833A0523A6E6205D8D7B
:1009240082804111B7170040985F3AC6945F3247FE
:10093400E39CE6FE324541018280411106C6D5376B
:100944009726000083C6C669858AB1C693073033EB
:100954003307F502B337F5023983CA07D98F17274E
:1009640000001307676A584B01456303F702338598
:10097400E740636BF70037653D0889C637856F0824
:1009840013050590198D3E95172700002328F76855
:10099400B24041018280E5473307F502B337F502DF
:1009A4002583DE0765BF0327C50F8346B500972758
:1009B40000009387A77A9C4F58439386160295822A
:1009C4009043FD1693F6F60F10C3D04350C39047DF
:1009D40010C7D04750C7904B10CBD04B50CB904F43
:1009E40010CFD04F50CF91C6130707029387070249
:1009F400C1BF82808347E50193F7E70F91CB01459F
:100A040082800145B24022449244024941018280DD
:100A14008347F501EDF7834605010347850089CA3D
:100A24000346A5029727000083C7975B6367F60018
:100A340093770701E9D7814789CA83470515834618
:100A4400F514418BA207D58F01CB03474515834687
:100A540035152207558FBA97DDD3172700000347B2
:100A6400275841119316870106C622C426C24AC0DC
:100A7400E18663D506049387C71313D457009727D9
:100A8400000093872779BC479724000083C4E4556A
:100A94007D5903A70708637327013A899C43F5FB33
:100AA4009387018E9C438297E36DA9F43305A94093
:100AB40026943334850013451400A9B7058B938716
:100AC400C71209CB8A071384F7039307D00733545B
:100AD400F40275B786071384F7019307D003C5BFE3
:100AE4005D7122DE1384019B3AD218403ED04ACA7B
:100AF4001C5F86C696C499839AC29EC026DC2ADAF5
:100B04002ED832D636D442CE46CC72C876C67AC4F3
:100B14007EC2858B1389C19AC1C31C5F97240000D0
:100B24009384C46393F7F7F91CDF9727000083C706
:100B3400E76293F707048DC39387018E9C438297E2
:100B44009727000023A4A76283C7040093F7F70B39
:100B5400172700002304F760854717270000A30127
:100B6400F76083C7440093F7070481EF9387019CE0
:100B74009C43D844B8D3930700FC172700002301F3
:100B8400F75E8387640063D90700832709009C43C9
:100B9400172700002307F75C18401C5F8583858BAB
:100BA400C9CBF5571CDF0100010001000100010061
:100BB4000100010001000100010001000100010029
:100BC4000100010001000100010001000100010019
:100BD4000100010001000100010001000100010009
:100BE40001000100010001000100010001000100F9
:100BF40001000100010001000100010001000100E9
:100C040001000100010001000100010001000100D8
:100C140001000100010001000100010001000100C8
:100C24000100010001009387019C9C4313075004B9
:100C3400B8CB18401C5F9183858B89CFBD571CDFCF
:100C44009387019C9C4323A807048547172700002A
:100C54002308F75083270900D8430583058B19C758
:100C6400D843759BD8C3D843799BD8C37254B64034
:100C7400A64216438643E2545255C2553256A256F2
:100C8400125782577248E2485249424EB24E224F9E
:100C9400924F6161730020309387019C944317271E
:100CA40000001307A74BBC5289CF83472700858BCD
:100CB40089EB83473700858BFDD797270000238175
:100CC400074A82809387C19B9C4399CB944BD04B1A
:100CD4009842518F98C294439C479842D98F9CC2A2
:100CE4009387019C9C4337C700401306C003A8CBDD
:100CF4009306200397250000938545468327872084
:100D0400C18393F7F7036369F60083278720C183C0
:100D140093F7F70363E6F60083C74500858BF9DF95
:100D240082809387019C944317270000130707438D
:100D3400BC5289CB83470700858B91CB9727000052
:100D44002380074297270000A38C074082808347B3
:100D54001700858BF1DFDDB79387C19B9C4399CB4B
:100D6400944BD04B9842518F98C294439C479842DD
:100D7400D98F9CC29387019C944337C70040C145D7
:100D8400A8CA654683278720C18393F7F70363FBCB
:100D9400F50083278720C18393F7F7036364F60084
:100DA400BC52EDF382801387019B1843AA87185F16
:100DB4001583058B25EF0345150015051377C51F0E
:100DC40019C6B386E70083C626002300D60095C55E
:100DD4009726000083C6E63893F606040945A1CA9F
:100DE400B386E70083C63600054693F5F60663909E
:100DF400C504E206E18663CC06023385E700834737
:100E0400150003470500A20793F70770D98F1397BE
:100E1400070141839376074099C613670780239C93
:100E2400E19A01458280239CF19AE5BF05458280C1
:100E3400011136C89386019C2ECC8C423AC63EC41E
:100E440098452ACE32CA9317070142C2C183137848
:100E5400172036853E869726000093862630630445
:100E640008041377072061CF03C726001367170010
:100E7400172800002305E82E13070019B8D113071B
:100E840000F897250000238DE52C1387019B0C4364
:100E940037080010D855719B13672700D8D598419F
:100EA4003367070198C11377261005C3137606101C
:100EB40045CA03C706001367170017260000230F4F
:100EC400E62817270000231F072883C6460093C778
:100ED400F7FFC207E206E186C183184163D1060227
:100EE4009396170163D7060830538D4663E9C6000D
:100EF4008546172600002305D6263453FDFE972683
:100F040000009386A60C8386460163DD0600939653
:100F14000701C18663D506067053894663E4C6009B
:100F24007453FDFE14477245E245F58F1CC75246C3
:100F3400C2463247A247124805617300203003C7F6
:100F440016001367170097250000A389E5201727CB
:100F54000000230707201727000023150720A1B747
:100F640003C736001367170017260000A309E61EFF
:100F740089BF8546172600002304D61E49B7544767
:100F84001396060163510602B7061000FD1674D3CA
:100F94009726000093864607944E85061726000080
:100FA4002320D60841B7A166D58FADBF172700000F
:100FB4001307871C8346B7019727000083C7171FB1
:100FC400B69793F7F70FFD4663EAF6044C4B972662
:100FD4000000A383F61A9727000083C7F719054773
:100FE4003317F70097260000A382F61C6D8F1DEFC0
:100FF4009726000083C6D61BB3F6D702130500025A
:10100400814733D6F500058A13F8F70F09CE6399A3
:10101400E60097270000A3810717828081177DB718
:1010240005071377F70F8507E39DA7FC8280938755
:10103400819C9843B75702009387079F832607092B
:101044001396560063580600832607091396660014
:1010540063440600FD17FDF3828051C9AA87014548
:10106400C9C98D07C207C183F19BC207C183130796
:101074004003636BF702138781A50843138701A517
:1010840014436396A60217270000130727F4185B7E
:10109400014525C34111C20706C60545DD8D0297EA
:1010A400B240014541018280138741A5F9B7035736
:1010B400650005EF035745006369F702B306F7407F
:1010C40021466370D6021041938687001D8FAA962D
:1010D400611790C22392E6002393060014C12312E1
:1010E400F5002313B50021058280084159BF01454D
:1010F4008280828001CD938781A503A8070093870E
:1011040001A58C430147C28763E3B70082809443FF
:10111400636FF50663EDA60613868700E368C5FED4
:1011240003D56700216605066317C50003C601974A
:1011340005062388C1962393070063840703138657
:1011440041A51042630FF6000356670019EA83D7DE
:10115400470014C383564700B697A1072312F7002C
:10116400BA879843E304B7FA938641A59442E30F00
:10117400D7F883566700D9FA83D647000356470049
:101184001843A106B2962392D70098C382803E8763
:04119400B6879DBFBE
:10119800974100209381813817710020130101E6DF
:1011A80013054000972500209385456517360020D4
:1011B8001306067E63FAC5008322050023A05500A6
:1011C80011059105E3EAC5FE17C50100130505A53C
:1011D800973500209385C57B1386818663FAC50001
:1011E8008322050023A0550011059105E3EAC5FEF9
:1011F80013858186976500209385458C6377B500B4
:10120800232005001105E36DB5FE9302800873A045
:101218000230972200209382625E93E2120073905C
:101228005230971200009382226173901234730037
:1012380020303D432A876373C3029377F700BDEFDD
:10124800ADE5937606FF3D8ABA960CC34CC30CC72E
:101258004CC74107E36BD7FE11E28280B306C34057
:101268008A069702000096966780A6002307B700B3
:10127800A306B7002306B700A305B7002305B700E8
:10128800A304B7002304B700A303B7002303B700E0
:10129800A302B7002302B700A301B7002301B700D8
:1012A800A300B7002300B700828093F5F50F93964B
:1012B8008500D58D93960501D58D61B79396270046
:1012C8009702000096968682E78086FA9680C11774
:1012D8001D8F3E96E374C3F8A5B7B717004003C740
:1012E80077051377E70FA38BE704130700F8A38D9F
:1012F800E7043D47238CE70413077003A38CE70436
:101308008280B717004003D587005D714EDE420525
:10131800418186C6A2C4A6C2CAC052DC56DA5AD8CF
:101328005ED662D466D26AD06ECE9377050C130768
:10133800000881496386E71813070004639AE714D5
:10134800B7240D8F7D8993840480B3D4A402916758
:10135800938707E8BE94A167938707D0B3D4F402B4
:10136800EF90110397B701009387C7199043D443AF
:10137800EF90C136EF905144AA8B939C040103D996
:10138800818693DC0C01631509000569130909803E
:10139800B7170040130770052380E704130780FA86
:1013A8002380E704B71A00400547939D0401096CA0
:1013B8002389E704514B01438145138D0A04130621
:1013C8007005930680FA094893DD0D01130C0C7122
:1013D800A9482300CD002300DD0023962A0323001B
:1013E8000D0083C72A05898BEDDF83D70A0583C7DC
:1013F8002A05898BEDFF83C72A05898BEDDF83D703
:101408000A0523942187C207C18333859741131A9C
:101418000501135A0A41630B0A143307BA02635EC3
:10142800070C05034203135303016368680C63D96F
:10143800050A3305B04093150501C185C204C18072
:1014480063D7450B0965130505713385A502B717E1
:101458000040130770052380E704130780FA2380F0
:10146800E704239637032380070433459502420592
:101478004181B640264496440649F259625AD25AE6
:10148800425BB25B225C925C025DF24D61618280DC
:10149800B1E3B77489097D8993840480B3C4A40235
:1014A8009167938707E8BE94A167938707D0B3C471
:1014B800F402EF90E16D97B70100938727057DB59A
:1014C80097B7010093878703856483AB07009384EC
:1014D800843865B5930B0000954445B53A89D5BD68
:1014E800B387FC40139A0701135A0A4181BF096563
:1014F800130505713305AA028DBF3385B74163E42F
:10150800FC003385FD40330585033344B50363C5CB
:10151800880013150401A9BF528532C636C4EF905E
:10152800511DDE85EF90C16DEF90911613130501E3
:10153800135303413307694042074183A2463246A9
:101548000948A948631AE9001307190063444001D0
:101558001307F9FF420741837D1B137BFB0FCA89E1
:10156800D285E31D0BF62394E18665B7014511B7D3
:10157800B717004003D5870039715ECE4205418117
:1015880006DE22DC26DA4AD84ED652D456D25AD0B3
:1015980062CC66CA6AC86EC69377050C1307000842
:1015A800814B6388E71413070004639CE710B72492
:1015B8000D8F7D8993840480B3D4A40291679387A7
:1015C80007E8BE94A167938707D0B3D4F402EF90DD
:1015D800215C97B701009387E7F29043D443EF90DB
:1015E800E10FEF90711DAA89939A040103D9A1868E
:1015F80093DA0A0163150900056913090980B71709
:101608000040130770052380E704130780FA23803E
:10161800E704139B04010547096A2389E704D14DB0
:10162800014D814C135B0B01130A0A714A859720FF
:101638000020E7806028330C5541420C135C0C41B4
:1016480023952187630A0C14B3079C0363D0070E04
:10165800050D420D135D0D01894763E9A70D63DA96
:101668000C0A33059041931C050193DC0C41C2041C
:10167800C18063D78C0B0965130505713385AC02EE
:10168800B7170040130770052380E704130780FA93
:101698002380E704239677032380070433459502C4
:1016A80042054181F2506254D2544259B259225AE9
:1016B800925A025BF24B624CD24C424DB24D2161C0
:1016C8008280B1E3B77489097D8993840480B3C4A7
:1016D800A4029167938707E8BE94A167938707D010
:1016E800B3C4F402EF90C14A97B70100938707E2A9
:1016F800EDB597B70100938767E0856483A9070074
:1017080093848438D5B5930900009544F1BD3E898A
:1017180031BF3385AA40131C0501135C0C4181BFFE
:101728000965130505713305AC028DBF63FEAA0078
:101738003305654133054503A9473344650363C849
:10174800870013150401B1BF3305AB40E5B76285C7
:10175800EF90217ACE85EF90A14AEF906173131D27
:101768000501135D0D41B307A941C207C183631A7F
:10177800F90093071900634480019307F9FFC20732
:10178800C1831387FDFF937DF70FCA8BE28CE3902B
:101798000DF82395F18675B7014529B741112A83BC
:1017A800014E930E407E130F0019930F400663EB12
:1017B8006E0A9308001913034006B3781503854E83
:1017C8000D4FA14F337365020D891335150063E57D
:1017D800BE0C1308F6FF79467298420813580801A0
:1017E8003307C70213D61700BE0732976146B3F610
:1017F800C60213068070B386C6023697A166F58FB7
:1018080042075D8FB717004083C6F70293F60608B4
:10181800A307D1000346F10083C6F70293F6060832
:10182800E394C6FE8346F10093F6F60FF1DE9306C5
:1018380070052380D704930680FA2380D70423AA4F
:10184800070383C6170393E60608A388D702D8DBE5
:1018580003C7170313670704A388E7022380070455
:10186800410182807D133368E3039308E016630E19
:1018780008003368F3039308D016630808009378C8
:10188800330093B818009388D81633081E01131E26
:101898000801135E0E0121BF6393E50305486386C3
:1018A80008000148630303002A8871087298FD152F
:1018B800131E0801C205135E0E01C18109BF13F88A
:1018C800150063F4BF007908D5B713381800E5BFD1
:1018D800914763EEB70217B701001307A7C38A053C
:1018E800BA959C41BA978287B717004003A7470B60
:1018F8001345F5FF698F23AAE70A03A7070B698F2A
:1019080023A8E70A03A7070A798D23A0A70A8280DC
:10191800B717004083A6470B1347F5FFF98E23AA94
:10192800D70A83A6070B558D23A8A70A83A6070AFB
:10193800758F23A0E70A8280B717004003A7470BDB
:10194800498F23AAE70A03A7070B1345F5FF45BFED
:10195800B717004083A6470B1347F5FF758F23AAD7
:10196800E70A03A7070A598D4DB7B717004003A721
:10197800470B498FEDB7B717004003D587004205DD
:1019880041819377050491EB9377F5013755E80189
:10199800130505803345F50282809377050C1307FC
:1019A80000046397E7009377F50137459C1CCDB792
:1019B8002165130505D08280B7F700E0C8439C472E
:1019C8008280814737370040A14663C4C70032850B
:1019D80082800345B740E38EA6FE3385F5000345B4
:1019E800050085072304A740CDB7411122C406C6C8
:1019F8002A8451372947B307E502B2408D83B3D70C
:101A0800870222449507B3D7E70237370040C20759
:101A1800C1832316F7404101828071654111130586
:101A2800052006C6D937B7370040130770F8238159
:101A3800E7400D47A381E74013070004A380E74070
:101A480005472387E740B2404101828003A845004B
:101A5800411122C406C626C283471800034808005D
:101A68002D44A207B3E7070141E3C2070D67B2841B
:101A7800C1871306C7A56382C7041306D7A5638465
:101A8800C7021307279029446399E704CC45938735
:101A980081A8639FF50285472390F600EF50202721
:101AA8002380A40009A885472390F600DC4583C756
:101AB80007002380F40001440DA089472390F60015
:101AC800DC4583C70700A38004002380F400E5B742
:101AD800938781A72944E380F5FC938701889C4379
:101AE80081C78145194582972285B2402244924494
:101AF8004101828083A8450079714AD006D622D454
:101B080026D24ECE52CC83C7180083C808002D4970
:101B1800A207B3E717015DEFC2078D68C18713837A
:101B28002890B284638C6718938858A529496393D1
:101B3800170B3684854783C6518813090008638BC1
:101B4800F60893162500938781A7B69783C72700C1
:101B5800AA8913091008898BB5CF138901878327B0
:101B6800490003DAA5001374F40FA1CB8547A382BB
:101B7800F188239841878D472399F1868327490067
:101B880041472380E7000327490083C70400A300D7
:101B9800F7000D476380E70C11476389E70E054797
:101BA8006383E704094483274900854503C54188C1
:101BB80023818700EF10401419A881464546F54552
:101BC80003D5C186EF40905023AAA18645F12396FC
:101BD80031870149B25022544A8592540259F24938
:101BE800624A4561828015476360870A83D7A18767
:101BF800858BD9CB631AE40283C7240003C734005A
:101C0800A2074207BA9703C71400BA9703C744004C
:101C18006207BA973EC6938701889C4381C76C00C8
:101C280005458297054441B702C681460147814769
:101C38007D1463C58700E5D23AC6F1BFB386F400C8
:101C480083C61600139637008507B396C6003697E5
:101C58008546C5B789476319F40283D7A187918B55
:101C68000D44B1D303C7140083C661888147138626
:101C780081A9B305F60083C505006382E50A8507D7
:101C880093F7F70FE3F7F6FE0D4431BF8547E31DE1
:101C9800F4FE83D7A187918BE5DB835729000325C1
:101CA800490003C66188B297938581A90D052399D8
:101CB800F18697200020E7800021F5B583D7A5009D
:101CC80017380020035868D7631FF8008947EF507A
:101CD8004009938701889C432A89E38D07EE814553
:101CE8001D458297C5BD17380020035808CEE3125A
:101CF800F8EE8547EF50E0062A89E31D05EC938747
:101D080001889C43E38707EC03C5140003C704005C
:101D180081452205598D133515001105D9B7973717
:101D28000020A38EE7FE938701889C43E38C07EE8F
:101D380081450D45FDB5411126C2C16422C4938574
:101D480081A82A841385F4FF06C6EF60904793851F
:101D580081A71385F4FF0588EF60B0460DC02244C3
:101D6800B240924497360020938686CD4146AD45D1
:101D7800173500201305C5C141016F60B039B24065
:101D88002244924401454101828023A0A188828097
:101D98009147630AF5009D476304F5028D47630C7C
:101DA800F500094582808347060017370020A308FD
:101DB800F7F60145828083470600239DF186D5BF4B
:101DC80003C76188B547014563EDE700930717002E
:101DD8002383F18883460600938781A9BA972380D5
:101DE800D700828091476302F50295476304F502A4
:101DF8000D4789476319E5009387A18783D70700B3
:101E08002380F50081473E8582809737002083C76D
:101E180017F1FDB783C78187E5B7411122C42E8426
:101E2800938581A826C206C6AA84EF40506E05890C
:101E380015C1973700209387A7B583D7A702A28536
:101E4800B2402310F4002244268592440146410101
:101E58006F505047B2402244924449454101828024
:101E6800C167F9176301F504411122C406C6854705
:101E78002A84639FF5002285938581A8EF607034DA
:101E880022852244B240938581A741016F60703357
:101E980089476396F5008545EF80F05369DDB240C8
:101EA8002244410182808280CC41411106C632859C
:101EB80003C6150083C5050022064D8E42068D65B2
:101EC8004186138875A2630C060F6348C8041388FB
:101ED80045A26306060B634AC800938535A26309C9
:101EE800B60623900600294679A0138855A26308F0
:101EF800060B938565A2E316B6FEC1451D4663EC45
:101F0800E5064546198E63F3C7003E862390C60052
:101F180097A501009385456289A8138895A2630057
:101F2800060F634E060B1388A5A2630A060F938556
:101F380005A5E318B6FA99451D4663EEE502198E24
:101F480063F3C7003E862390C6009385C18031A8FD
:101F58009D451D4663E1E5022146198E63F3C700DE
:101F68003E862390C60093858188BA9597200020E5
:101F7800E78060F50146B240328541018280AD4577
:101F88001D46E3EAE5FE3146198E63F3C7003E8637
:101F98002390C60097A501009385C55DF9B7B145A3
:101FA8001D46E3EAE5FC3546198E63F3C7003E8615
:101FB8002390C60097A501009385C55C7DB7C145F0
:101FC8001D46E3EAE5FA4546198E63F3C7003E86E7
:101FD8002390C60097A501009385455779B7C14559
:101FE8001D46E3EAE5F84546198E63F3C7003E86C9
:101FF8002390C60097A501009385C559BDB7C14573
:102008001D46E3EAE5F64546198E63F3C7003E86AA
:102018002390C60097A5010093858554B9B7B545A7
:102028001D46E3EAE5F43946198E63F3C7003E8698
:102038002390C60097A501009385054F3DB79736B5
:1020480000209386A6B34146CD45173500201305D9
:10205800E59F6F60300C05E1B28741112E8613852C
:102068008188BE8506C697200020E780C0E5B2407B
:1020780001454101828009458280411106C6EFF081
:102088004FA8BD4763F4A700EFF0AFA7EFF04FCE1E
:10209800BD4763F4A700EFF0AFCDB24083D5A1866A
:1020A80003D5818641016F00707C4111939625000C
:1020B800AA852D4506C697200020E780A0ABB24030
:1020C800014541018280411122C426C24AC02A84A6
:1020D8002E89B284AA85930600200146254506C6A6
:1020E80097200020E78000A9931629002686A2855C
:1020F800294597200020E780E0A7B2402244924477
:102108000249014541018280011122CC06CE3714D3
:10211800004026CA4AC84EC652C483447405034ABE
:10212800B4058349840503499405EFF00F9B834761
:10213800A40593F4F40F137AFA0F93E71700230D0D
:10214800F40493F9F90F1379F90FB717004003C78F
:10215800A705058B6DFF03D5C705A38D4705238C00
:102168003705A38C2705A38B9704F2406244D24419
:102178004249B249224A056182804111939705017B
:1021880022C406C6C1872E8463DD0700EF000078ED
:1021980019C1EF0000712165218DB240224441012F
:1021A800828093F7150013C51500E5FB9397250169
:1021B80063D00702EF10E178C93537F6020013063D
:1021C80006E0896503C50189EF0070430965E9B731
:1021D800939715010145E3D207FC17A501001305E4
:1021E8002541EF90611813060064916503C50189C4
:1021F800EF00F04011654DB71D71494697A50100E4
:102208009385853A17A501001305C55586CEEF00BD
:10221800D02801E917A501001305453AEF90C1142C
:1022280001A037F700E0F9575CC7FD571CCB85665E
:10223800B7E700E023A0D7101306701010C3B84307
:102248004146B0C323A0D718B8C301000100130644
:10225800C00381454808EF00301E97370020938758
:1022680067D63ECA896793870780231CF100ED472C
:10227800A301F1029307A0102312F102D14723030F
:10228800F102A167938707E03ECE97070000938786
:1022980007E2BEC497070000938727E3BEC68547B9
:1022A8002304F102B5472308F10297F7FFFF93874C
:1022B800E7703EDAB7F5070097070000938707E550
:1022C8003EDE814697070000938767DB7000E105D3
:1022D8001945BEC097200020E780C089580881476B
:1022E800994670003E960346060085070507A30A2F
:1022F800C700E398D7FED24791C703578101856786
:102308006373F70001A04808EF005069AA8501C966
:1023180017A501001305C52BEF80717301A0F640C6
:1023280025618280411117050000130545E506C6A1
:1023380022C4EF003063138401892300A4002928F4
:10234800034504002244B24037F60200130606E0B3
:10235800896541016F00B02A411106C6B7170040D0
:10236800130770052380E704130780FA2380E70426
:1023780003C7F7021377A70FA387E70203C7F7027C
:1023880013672700A387E702CD391305407E8147ED
:102398000147814605468545EFF04FC0B2400145EB
:1023A80041016F106007011122CC06CE11472A8423
:1023B8006319E50203C725009547631EF70083D715
:1023C800A500056613068638914503C5118C23942C
:1023D800F18AEF00D02223A6818AF2406244056187
:1023E80082809387C18A9C43639DE704854789451A
:1023F80003C5118CA303F10023040100EF00B036DC
:10240800854503D5818AA93C2C0013055041EF402E
:10241800F124930500020D45EF20204F930500029B
:102428001145EF20804E8965938505710145EF20A0
:10243800C04D13067100854513055030EF50B17338
:1024480059BF09476391E7088D47631EF50603C71F
:10245800018C8547631CF700300085451305C030A3
:1024680023040100EF5031712380018C83C7618BF5
:1024780081C7238B018A85B70D45EF10B07F93077D
:1024880000026317F5028547930500020D452304F2
:10249800F100EF208047930500021145EF20E04648
:1024A8009565938505E20145EF202046300061B728
:1024B80085479305806A0D452304F100EF20E04429
:1024C8009305806AD9BF8547E317F4F02C001305FC
:1024D8004030EF50915C8347D1003000A145A307FD
:1024E800F1008347C1000145230601002307F100DD
:1024F8008347B100A3050100A306F100A93EE1BD91
:102508008D476303F50263E6A7008547630AF50074
:1025180082809147630FF50095476308F502828032
:102528009C4123AEF18882809385718B11456FF0B1
:102538007F8B9387C18A9C43639EA7001306803EC6
:10254800894503C5118C6F00900B894503C5118C13
:102558006F007021828041119397050122C406C63D
:1025680026C2C1872E8463DE070003C5118C792E2D
:1025780011C1052E2165218DB240224492444101AA
:10258800828093F7150091CF172600201306466125
:102598009385018A03C5118CEF501131134514003E
:1025A800E1BF93F725006387070E9387C18A984395
:1025B8009147631CF70C014781462D46ED4503D52D
:1025C800818AEF40A03023AEA18A4DC98D472300F0
:1025D800F5009387C18998432546A300E5009843F1
:1025E80021832301E50003D72700A301E5009443D5
:1025F80003D7218BA302E50093D786012302F500B8
:10260800935787002303F50083D7418B6362F6084D
:102618008507C207C18313070740239AF18AB69733
:1026280023AEF1882399E18A03D7818993578700DC
:102638002304F50083D7018BA303E500A304F50069
:1026480093D687000507938707409384818B2305DA
:10265800D500239CE1882398F18ADC402D05A685C6
:102668001D8D1375F50F239DA18A03D5818AEFF07F
:10267800CFFA09C5ED452685EF40E03C1306803EBC
:10268800894503C5118CEF00807713452400EDB50B
:10269800FD1741B793F7450085C383C7118C13070E
:1026A800803ED1461306800CD14503D5818AEF5070
:1026B800111913454400C9B593F785000145E38D09
:1026C80007EA03D5818AEF50D170134584006DB5B0
:1026D800011117050000130545E806CE22CC26CACD
:1026E8004AC81384118CEF00F0272300A400054981
:1026F800700085451305503023062101EF50B1477E
:10270800172600201306864ABD4513057030EF5082
:102718009146138681819D4513056030EF50B14580
:102728001726002013064646D5450145EF30B0551B
:1027380089478D447000914513057040A303F1004B
:10274800A30491002305210102C623040100A30567
:102758000100EF40911713067100854513050040ED
:10276800EF40B1163000854513051040EF40F115D4
:1027780013069100854513052040EF4011151306F7
:10278800A100854513055040EF4031141306B100F0
:10279800854513054041EF4051137D55EF30905C5E
:1027A8007D55EF60E01E7D55EFF0EFD8EFF03F89E3
:1027B80017050000130505D5EFF02FDD9D47A3038E
:1027C800F100A9472304F100A304F100954723056C
:1027D800F10013069100B14785451D45A305F10099
:1027E80023069100EFF0CFDA1306A10085451D45B9
:1027F800EFF00FDA1306B10085451D45EFF04FD90C
:10280800700085451D45EFF0AFD83000854511456E
:10281800EFF00FD81306710085450D45EFF04FD73F
:10282800034504008545C929F2406244D24442491F
:102838000561828041111305800406C697100020A7
:10284800E780200C371700408327870A8D4513053A
:10285800002093E707202324F70AEFF06F87EFF0B3
:10286800CF9B17A501001305E5EFEF80F12FEFF0DF
:10287800BF984D3CEF503158A13D97100020E7809C
:102888004068E5BF23AC05FE1C4191E7010001004B
:102898000CC18280BA8703A787FF6DFF23ACB7FE00
:1028A80082801DC18346E5FF1307F00F9147639EA1
:1028B800E600411106C697200020E7806003B24079
:1028C80081473E854101828095473E85828001E9A6
:1028D800014582800145B240224441018280411174
:1028E80022C42A84210542059305D004418106C6E5
:1028F80097200020E78020F671DDFD572320050092
:10290800231285002303F5002105F1B71387418CB5
:102918001C43411122C426C24AC006C601440149CB
:10292800BA8489E7A16581250DC401A803C7E7FF1B
:102938006318A7021DC8A165C1269840832784FF94
:102948006317E40223A2F18CFD57232C04FE230F06
:10295800F4FE2285B2402244924402494101828019
:1029680011E03E8983A787FF6DBF3E84E5BF232C16
:10297800F9FED9BFA9C9411122C406C62A849747BE
:10298800002083C7F7E72E856368F400193F0D45DB
:10299800B24022444101828083A785FF99E703C79B
:1029A800E5FF9307F00F6305F700E53D1545CDB743
:1029B800238F85FE1385418CF13522852244B24050
:1029C800A165410115AE1545828023A2018C828044
:1029D8009387818D9C4399E33E85828003D72700A6
:1029E8006316B70003C70700E308A7FEDC47E5B78F
:1029F8004111939705014AC006C622C426C2C18761
:102A08002E8963DE0700193711C1613D2165334501
:102A1800A900B24022449244024941018280AA8618
:102A28000145E5D901443D47B3578940858B95CB8E
:102A38009387018D8443BD4791E28147A2978E0712
:102A48000545BE9433158500131405019C40C84004
:102A58004180829723A0040023A204003345240167
:102A68004DBF0504E312E4FC0144CDBF97470020A5
:102A7800938747D59C53411122C406C6138401820B
:102A880095C7829723A0A1820840B7470300938780
:102A9800D73F3305F502B7A72600938737ECB24036
:102AA80022443E9523A0A1824101828097470020BD
:102AB800938707D518409C4BBA9723A0F182E9B7B2
:102AC8009387818C90439746002083C676D38147AD
:102AD80013F7F70F6360D70A174700200347F7E794
:102AE800914763E0E70A9747002083C7A7EB918BDC
:102AF800C9EB0111680006CE22CC26CAEFB0F0540B
:102B0800FD56630FD50C32479747002083C7B7CCD3
:102B180063F3E70C17470020130787CE4047174792
:102B28000020034767CB6305D406058B21CF5147A7
:102B38003304E40263F1870A97100020E780205EDF
:102B4800B2476373F400A287174700200347B7C84A
:102B5800998F3E95974700209387C7C6838747017B
:102B680063CD0702B707C0A86369F502B7074057E6
:102B78003E9525A085071397170032970357E7FF5F
:102B880021DB8280130790023304E40205805DB7DD
:102B980062076187635707001D8D19E93705C0A8CB
:102BA80001A8E37BF5FE3707C0A8B307F7403E95B9
:102BB80097470020938707C1DC53829709ED974711
:102BC8000020938727D99C4F99C7EF00B112EF00D7
:102BD800116BEF009106F2406244D2440561828095
:102BE800974700209387C7C1DC47E386A7FE1747AE
:102BF8000020130727BD83464701BA84858A9DC6EE
:102C08005144338487029747002083C7D7BCE3F435
:102C180087FC97100020E78080509747002083C7E3
:102C280097BB1D8C2295838744011DBF1304900216
:102C3800338487020580C1BF2A9609E5828005058D
:102C4800A30FB5FEE31DC5FED5BF81473307F500C9
:102C58000307070019E33E8582808507C5BF011178
:102C68002E8626CAAA84131506019305F00441810D
:102C780022CC06CE32C697200020E780C0BD2A8429
:102C880019C53246A68597100020E780C023228503
:102C9800F2406244D2440561828081476314F600A1
:102CA800054582803307F5008507B386F50003479D
:102CB800070083C6F6FFE383E6FE0145828093079B
:102CC800F6FFBE952A966313C5008280FD1583C75B
:102CD80015000505A30FF5FEFDB7814711E901456C
:102CE80082803307F50003470700E31AB7FE85071C
:102CF800E319F6FE054582809747002083C757B041
:102D0800637FF5001387818C9317150008433E9560
:102D180083570500DD8D2310B500014582800D45E0
:102D28008280FD570111174700202321F7AE9387B2
:102D3800818D22CC804326CA4AC84EC652C406CECC
:102D480056C22A898144974900209389A9A7174A1E
:102D58000020130AEAAA184481476374E900B307FC
:102D6800274103A749021CC409CB0327CA0063F6FD
:102D7800E70017470020232BF7A8A1E38355240079
:102D88009DE55C44A1E423ACF18C832AC400228530
:102D980097200020E780C0B5568455FCF240624475
:102DA800D2444249B249224A924A05618280034587
:102DB800040099375C4081CB1CC483572400F1D3AD
:102DC800A2844044D9BF1C44CDDFC5BFDCC475BF55
:102DD8009747002083C7D7A26371F5021387818CB8
:102DE80093171500084393C5F5FF3E9583570500D3
:102DF800FD8D2310B500014582800D4582809747DF
:102E0800002083C7F79F6364F50001458280411164
:102E180022C426C24AC006C62A842E89B2844D3EE0
:102E280001C504C505452DA0936504F0C205C181FF
:102E3800414597200020E78000A20DE19747002038
:102E4800938747989C5B81C7A28511458297014566
:102E5800B240224492440249410182809387818D85
:102E68009C438DE323ACA18C85472326050004C52C
:102E78002311250123008500A300F5002322050066
:102E880055B7BA87D84775FFC8C7F9BF45C539715F
:102E98005AD0138B018D22DC26DA4AD84ED652D46A
:102EA8005ECE66CA6AC86EC606DE56D262CC36895F
:102EB800328AAE89AA8401445A8DB94D854BF94CA2
:102EC80003270B00131C3400937AF40F62971C43FA
:102ED800A9EF13B5FA0013451500B3978B0063F6F5
:102EE8005D01930714FFB397FB0093950701C18118
:102EF800528631371DC983270D000145E29784C3E7
:102F080023A237016304090023005901F2506254D7
:102F1800D2544259B259225A925A025BF24B624C2D
:102F2800D24C424DB24D216182800504E31A94F9D6
:102F38002145E9BF09458280411122C426C24AC001
:102F480006C6AA842E8932845D3DCA852685493401
:102F580009C940C10145B240224492440249410195
:102F680082802145CDBF411122C426C24AC006C66F
:102F7800AA842E89EFF0DFA52A8419C12311050040
:102F8800CA852685B135014511E01945B24022446C
:102F980092440249410182807547636BA7041387F5
:102FA800018D1443411126C293143500A69694420C
:102FB80022C406C6AA873A84094595C613B5F70000
:102FC8003947134515006373F700C5178545B39551
:102FD800F500C205C181413F1C400145A69723A0C9
:102FE800070023A20700B240224492444101828094
:102FF80009458280411106C6EFF09F9D09C5084525
:10300800B240410182800145E5BFF54763EDA70461
:103018009387018D9C4313173500BA9798438947C6
:1030280021C7011126CA06CE9334F50022CCB94730
:1030380093C4140063F3A700451505443314A40092
:10304800420441802EC62685A2856D3789473246BF
:1030580009C5A285268565338147F2406244D2447A
:103068003E850561828089473E8582802396A18CB2
:103078002397B18C8280411106C623AAA18C0295A0
:10308800B2409737002023A7A778014541018280E5
:10309800994763E9B7008A059737002093874778EF
:1030A800BE9588C18280411106C622C426C2EF504F
:1030B800815B714681451735002013056576AD3E65
:1030C800173400201304C4731306000222858145B7
:1030D800A53623AC018C23AA018C9737002083C71F
:1030E800277013D527008D8B3E958D473305F50244
:1030F8009947930510109384C18D35051375F50F05
:103108002301A4003305F5021305050F97100020CD
:10311800E780607423A8A18C834724001305050F5A
:1031280088C08A073E9523A4A18CEFF01F8A9926B0
:10313800834714009840170600001306A68B939641
:103148002700BA9690C293862700850793F7F70F52
:10315800A300D400B24022448A07BA9790C392448D
:10316800410182809737002083C79769173700206D
:103178000347276963F1E7021387C18D18439386D4
:10318800170017360020A30DD666939627003697AA
:1031980008C33E8582809307F00FE5BF1C41638614
:1031A800071441777D8FB706002089476310D7142D
:1031B80003574500630C0712411122C419462A849B
:1031C8009305F00F590506C6093E05478D47630963
:1031D800E5101306C0038145173500201305855EE9
:1031E800EFF09FA51306C003A2851735002013052D
:1031F800655D97100020E78000CD17370020035742
:10320800275D973700209387E75B19E713070020AE
:1032180097360020239EE65A173700200347675B3E
:1032280011E70547973600202385E65A173700200F
:103238000347375A11E76D4797360020A38BE658A6
:10324800173700200347075911E71547973600201D
:103258002382E658173700200347D75711E7054759
:1032680097360020A388E656173700200347D7561D
:1032780019E703C7070197360020A38FE6541737CD
:1032880000200347475511E751479736002023840C
:10329800E654173700200347C75419E7130780027D
:1032A80097360020238FE652173700200347B7527E
:1032B80019E71307D00297360020A38EE65003477C
:1032C800D40111E7094797360020A38BE6509C5795
:1032D80091C78297973700202397A752E9338147F0
:1032E800B24022443E854101828089473E858280E2
:1032F800011122CC06CE2A842EC6EFF02FF7B24554
:10330800F240818D33A5A502229562441375F50F0D
:1033180005618280011122CC06CE2A842EC6EFF0E8
:10332800EFF4B245F240818D33A5A502229562449F
:103338004205418105618280011122CC06CE2A8492
:103348002EC6EFF0AFF2B245F240818D33B5A5023B
:1033580022956244056182809737002093878746CB
:10336800985725C3411122C426C206C6BE840297B7
:1033780017370020035727492A8441C7BA87637340
:10338800A700AA87C207C183BA866373E400A2862E
:10339800C206C182958F51476355F706DC5491C325
:1033A8008297854717370020230AF75AEF0061599B
:1033B8009737002023998744B24022449244410120
:1033C80082809737002083C767599DE79737002089
:1033D8009387475883C79700850793F7F70F1737E1
:1033E8000020A30DF756A18B9DC7854717370020EE
:1033F8002316F7566F00A15A97370020A380075667
:10340800D5BF9737002083C76755DDD72244B24020
:1034180092444101C5B78280973700209387873A45
:10342800D857011122CC06CE3E8401C72AC602977E
:10343800324509CD23A0A18E171500201305A5CF6D
:103448001D39F240624401450561828083074401C9
:1034580063DD07009737002023A0073C971700205B
:10346800938707C823A0F18EC1BF971700209387C1
:1034780007CBCDBF011122CC1734002013048434AC
:10348800084406CE26CA19E50545F2406244D244EE
:10349800056182805C58EDDB185C7DD7700085453E
:1034A80082971844B247E301F7FE8357C4001735E3
:1034B8000020034505329305E0043305F5029734EF
:1034C80000209384E4334205418197100020E7806F
:1034D8008038173700202323A7345DD5973700207D
:1034E80083D7072F173600200346A62E3306F60289
:1034F8009305F00FEFF04FF4D04C084497370020B5
:1035080083D7072D08C29735002083C5852CB3853E
:10351800F5021C5C89818297C84C97100020E780CF
:10352800203D01459737002023AA072EB9BF411136
:1035380022C4173400201304E4281C4426C206C6FB
:10354800973400209384C42BADCB1C5CBDC7DC4CE6
:103558008DE78357C4001735002003458527930559
:10356800E0043305F5024205418197100020E78009
:10357800802E9737002023A3A72AC84C1DCD973744
:10358800002083D7E7241736002003468624330615
:10359800F6029305F00FEFF02FEAD04C0844973766
:1035A800002083D7E72208C29735002083C565220B
:1035B800B385F5021C5C89818297C84C09C99710AC
:1035C8000020E780E0329737002023A90724B24083
:1035D80022449244014541018280011126CA973450
:1035E80000209384E42122CCC04C4EC652C456C25B
:1035F80006CE4AC8AA8AAE89328A31EC1739002029
:103608001309491C8327890099E3A94471A08357AA
:10361800C900173500200345C51B9305E004330591
:10362800F5024205418197100020E780C0222A84D4
:1036380041C583274903C9C39735002083C5651948
:10364800173700200357C718B385E5022A860325D4
:1036580089008981829791451307A00589819397ED
:103668002500A29783C607006395E60483C6170062
:10367800639E560385058A054E86A2955285971046
:103688000020E7804084DC4C8144638787002285E2
:1036980097100020E780C025F24062442685424901
:1036A800D244B249224A924A0561828083D52700D2
:1036B80075B7DC4CE38B87F4228597100020E780F0
:1036C8002023A1B7973700209387C70F984729CBA6
:1036D8009C5FB9C785466315D504411122C41734C8
:1036E80000201304E411504C06C61DC6973600206E
:1036F80083D6060E9735002083C5A50DB385D50260
:103708003A8589818297484C97100020E780401EAF
:103718009737002023A40710B24022444101828039
:103728008280973700209387A70DD84F011122CCAC
:1037380026CA4AC852C406CE4EC62A89AE843284E6
:103748003E8A35E7973900209389C90783D7C9008E
:10375800173500200345E5079305E0043305F50216
:103768004205418197100020E780E00E973700203E
:1037780023A6A70A2A8611E92945F2406244D244C1
:103788004249B249224A0561828003A5890005C1E0
:1037980083A7490389CF9735002083C58503173749
:1037A80000200357E702B385E50289818297032544
:1037B800CA0191461308A005FD5593D72600C207F4
:1037C800C183139727002A9703460700631B060344
:1037D800834817000356270063932803B306D6408F
:1037E80063CD960085078A073E952686A2859700B1
:1037F8000020E780406D014549B7A300B700B286B5
:103808006DBF173600200356A6FC9735002083C5E8
:1038180045FCB385C502338696001106E3EEC5F470
:1038280013863400719A1106B29623000701A3008B
:1038380027012311D7007DB797370020938747FCCE
:10384800D44F8DCE91471306A0059305F00F8983B9
:103858008A07B69703D7270003C5070009830A0715
:103868003697631DC500034517006316B500035757
:1038780027002391E70083D72700D1BF0145828025
:10388800011106CE2EC6EF70402401C9B245F240A0
:103898000355250005616FA02046F24049450561A2
:1038A8008280A38601902386019023AA018E23ACEF
:1038B800018E23AE018E23A0019023A8018E23A69A
:1038C800018E97370020938767F73707B40098C3AE
:1038D8003747A000D8C3370710009306070A94C7D4
:1038E800B7065000C106D4C7930607054107D8CBD1
:1038F8003707D007410798CF3707840398D337C7CE
:103908000700130707B8D8D3416794CB930607017C
:10391800130717F8D8D7417723AE070094D798DB59
:103928008280011126CAAA84214522CC06CE2E8483
:1039380032C636C43AC2EFE09FF91DC9A246124703
:103948003246930700FD2300F5009947A300950030
:103958002301F5002303D500A303E5002312C500C6
:10396800AA8522856244F240D24405616FF08F80B7
:10397800F2406244D2440561828023AAA18E8280EB
:1039880023ACA18E828023AEA18E828023A0A19039
:103998008280011122CC4AC806CE26CA2A8901444F
:1039A800B30489006368B400F2406244D2444249D7
:1039B800056182802EC6EFF06F8B93170501C183D6
:1039C800A183B2452380F4009307140093F7F70FFF
:1039D800850463F9B700CA9709042380A700137404
:1039E800F40F7DBF3E847DBFC167173500200355A6
:1039F80085E8FD176302F502411103C68199938595
:103A0800419006C6EF603076B240FD571737002068
:103A18002313F7E641018280828009C925151375B1
:103A2800F50F1335850E13451500828001458280F8
:103A380023800500F94763E2C708797122D426D2AA
:103A48004ECE56CA5AC806D64AD052CC5EC636841E
:103A5800B289AE8A2A8B814463FF3405B307940088
:103A680003CA0700138914001379F90F63050A04C0
:103A7800B3072A0163C1F904B307240183CB070004
:103A88005E85613F0DC99307FAFF2380FA006390B2
:103A98006B03130519002295B2502254925402590F
:103AA800F249624AD24A424BB24B45618280D29473
:103AB80093F4F40F55B70145C5B70145828041110C
:103AC80026C2AE8422C49737002023ADC7DA9737C1
:103AD800002023A7B7DA9737002023A1A7DA2A8482
:103AE80041469305F00F26854AC006C60549EFF002
:103AF800CF9E631E250397370020938767D7884B8F
:103B0800C145413D41469305F00F2285EFF0EF9CFA
:103B1800854463169502224497370020938747D53A
:103B2800B24092440249C847C14541019DB541464A
:103B380081452685EFF06F9AE31625FD6DBF414656
:103B480081452285EFF06F99E30795FCB240224446
:103B58009244024941018280411122C426C22E8426
:103B6800AA8413060002814517350020130545D0A5
:103B780006C6EFF06F8C97370020A38C97CEA38DE5
:103B88008198EFA0E018854719C181474945B2409F
:103B9800224417370020230DF7CC9244410182803C
:103BA800814781CD19C98547631BF50083C7550037
:103BB80093E707FCA382F50085473E858280894705
:103BC8006317F50083C7550093F7F703E5B70D476B
:103BD8008547E314E5FE03C755001377F70313671A
:103BE8000704A382E500D1BF81478DC105C103C782
:103BF80055009306000C85471377070C6308D70018
:103C0800930600048D476303D70089473E85828069
:103C1800411122C4005D06C626C21DC8AA840850E8
:103C280009C597100020E780A0CC485009C5971017
:103C38000020E780E0CB085409C597100020E780F2
:103C480020CB228597100020E78080CA23AC04028D
:103C5800B240224492444101828009ED9737002006
:103C680083C727C117350020130505C281CB1385EB
:103C7800418E828017350020130505C182801735D3
:103C88000020034505BF828097370020938747BEF1
:103C9800C847828097370020938787BD884B8280EA
:103CA800973700209387C7BCDC4B884382809737BF
:103CB80000209387E7BBD84B1C4385071CC31735E7
:103CC8000020034515BB9307F00F6305F5009165C8
:103CD8006FF08F828280011122CC06CE2E8432C6EC
:103CE800EF60F06D9147B245631FF500938701902F
:103CF8009C438DC303A30700630E0300228562441F
:103D0800F240056102839387818F9C4381C703A397
:103D18004700DDB7F2406244054505618280011124
:103D280022CC2A840355450006CE26CA4AC84EC668
:103D3800EF60305135C52A89834405008349C500A1
:103D4800C13D4A85EF70304103554400EF60B062D1
:103D580083C7C190B1CB6399970483C5D190268559
:103D6800EFF01FB219E12386019003554400EF607C
:103D780010659147631FF5000357440097370020EB
:103D880083D767AF6317F700FD5717370020231451
:103D9800F7AEF2406244D2444249B249056182809A
:103DA80081499304F00F6DB79307F00FE38FF4FA8E
:103DB8008346640003564400034524004E87A685C5
:103DC8008D3665B779715EC6AA8B2E8552CC56CAD8
:103DD8005AC806D622D426D24AD04ECEAE8A328BC4
:103DE800368AEF6010466DC1045D2A89F1CC9C507B
:103DF800614599C3130540039C5481C75105420589
:103E0800418163050A00710542054181DC5081C783
:103E1800590542054181EFE09FAB2A8455C56146AB
:103E28008145EFE07FE19739002083C929A4639495
:103E3800090083490900930700FD2300F400A947FE
:103E4800A30074012301F400230364018C5023129E
:103E580054011305840191C908C47146930A4403A7
:103E680097000020E780200656858C5491C948C4E5
:103E78005146930A450197000020E780C004568503
:103E8800630C0A0008C87146D285930AC5019700D9
:103E98000020E78040035685CC5099C548C859464C
:103EA80097000020E7802002A2854E85EFE09FACB6
:103EB8002254B2509254F249624AD24A424BB24B0F
:103EC8004A8502594561A9B3B25022549254025905
:103ED800F249624AD24A424BB24B45618280011193
:103EE8004EC6AA892E854AC806CE22CC26CA2E8955
:103EF800EF60303531C59734002083C4249799E0AA
:103F0800834405001945EFE09F9C2A8415C9814523
:103F18001946EFE07FD2930700FD2300F400B9476C
:103F2800A30034012301F40023122401A285624472
:103F3800F2404249B2492685D24405616FE09FA309
:103F4800F2406244D2444249B249056182803971E3
:103F58005ECEAA8B2E8526DA4ED652D456D25AD0A9
:103F680006DE22DC4AD8AE84328BB68A3A8ABE890B
:103F780042C6EF60102D31C92A894145EFE03F95CF
:103F88002A8421C541468145EFE01FCB1735002023
:103F98000345C58D19E103450900930700FD23007A
:103FA800F400BD472301F400B247A30074012312B3
:103FB800940023046401A304540123054401A305C8
:103FC80034015CC4A285EFE0FF9AF2506254D254E7
:103FD8004259B259225A925A025BF24B21618280AD
:103FE800797126D2AA8439454AD04ECE06D622D433
:103FF8002EC6B2893689EFE09F8D21C1B24593075D
:10400800000D2310F500B1472A842312B5002301BF
:10401800F500CE851905194697000020E780A0EA2B
:1040280023062401A2852254B2500259F24913F5FD
:10403800F40F925445616FE0FF93B25022549254AA
:104048000259F24945618280173700200347778279
:104058009307F00F630DF706411126C2AA8439456C
:1040680022C406C64AC0EFE09F862A8439C993074E
:1040780000FD2300F500A3009500230105009735F6
:104088000020938565800D05194697000020E7807C
:1040980080E3172900201309A97D83578900A28589
:1040A800172500200345F57C2315F40083471900E4
:1040B8002306F4002244B2409244024941016FE0D1
:1040C8007F8BB2402244924402494101828082801F
:1040D800011156C2AA8A314526CA4AC84EC652C4D8
:1040E80006CE22CCAE84328AB6893A89EFE02FFE1A
:1040F80029C92A842685EF60D0141DCD0345050003
:10410800930700FD2300F4009D47A30054012301F9
:10411800F4002312940023134401231434012315BB
:104128002401A2856244F240D2444249B249224A5B
:10413800924A05616FE01F841725002003457573B7
:10414800C1B7F2406244D2444249B249224A924A33
:1041580005618280397162CC2A8C594526DA4AD8A1
:104168004ED652D456D25AD05ECE06DE22DCAE846B
:1041780032C636C4BA8B3E8BC28A468A835901043A
:1041880003494104EFE0AFF435C53246930700FD1B
:10419800A2462300F5009547A301C500A3008501A9
:1041A8002301F5002A8419461105A9C2B68597008E
:1041B8000020E78040D123066401230A2401231547
:1041C8007401231754012318440123193401A285CB
:1041D8006254F2504259B259225A925A025BF24B37
:1041E800624C2685D25421616FE0CFF88145EFE01B
:1041F800BFA4D1B7F2506254D2544259B259225A8C
:10420800925A025BF24B624C216182809727002010
:1042180083C727668DCB4111AA8519461385418E20
:1042280006C697000020E78000CA9385418E1725AF
:10423800002003450564EFF0BF96B2401385418E18
:1042480041016F90702D0145828017270020034798
:1042580057629307F00F6305F708411126C2AA8435
:10426800294522C406C6EFE08FE62A8429C19307B0
:1042780000FD2300F500A1472301F500A3009500E8
:10428800972700209387C75E83C727009385418EB1
:104298001105A30FF5FE194697000020E780A0C27C
:1042A800A285172500200345D55CEFE0AFEC172762
:1042B80000200347075C8D47631FF7009387C18F72
:1042C8009C4391CB03A38700630703002244B240B9
:1042D800924441010283B2402244924441018280C7
:1042E800172700200347E7588D47631AF70093877D
:1042F800C18F9C4389C703A38700E31D03FC828009
:10430800797122D406D626D24AD04ECE52CC094450
:1043180045C92A89035505002E8A5144EF60607209
:10432800AA8459CD83C7B199FD1793F7F70F0547AD
:1043380049446377F7080347C500A1476314F700AA
:1043480063100A089C5C4544A5EF91659385457107
:104358001305C00297000020E780E04F88DCAA8997
:104368004D4439CD1306C0028145EFE0FF8C8357D9
:1043780009009386490036852391F9007146930513
:10438800490036C697000020E780E0B389472380BC
:10439800F90003C5C400B24603560900611583C578
:1043A800819913351500EF8030762A8463060A0058
:1043B800D2852685EF70500501C42685EFF05F850C
:1043C8002285B250225492540259F249624A4561F8
:1043D800828083C7B199FD1793F7F70F0547637874
:1043E800F708894751C6011122CC26CA4AC84EC6C9
:1043F80052C406CEAA89368AB2842E89EF606064D8
:104408002A84D14729C9485509C597000020E78063
:10441800204EF1452685EFE09F8448D4CD4705CD51
:104428008346C40021478147639FE600630D0A0065
:104438000347A5010356050193062501AA854E8564
:10444800EF607074AA8703474400630F090013677D
:1044580067002302E400F2406244D2444249B24970
:10446800224A3E850561828013674700DDB7C94748
:104478003E858280E14763EBA7009727002093875A
:10448800E73B06053E9503550500828041657D158D
:104498008280011122CC2A842E8526CA06CEAE84BB
:1044A800EF60205A0DCDB7470F009387F7230945D2
:1044B80063E2870281450A854146EFE0EFF7A6856A
:1044C800231081000A85418023018100A301010096
:1044D800EF80F045F2406244D2440561828049454C
:1044E800D5BFA38CA19882806F80D05A797152CCA5
:1044F8002A8A328522D426D24AD04ECE56CA5AC8E3
:104508005EC606D662C4AE8BB28A368BBA843E8942
:10451800C2894684EF60E05215C92A8C63140A02E6
:1045280013774B008347450015CF93E727012302F4
:10453800FC008DEC631C0902639A090205E8ED9BF7
:104548002302FC00832B8C03639F0B06B25022547A
:1045580092540259F249624AD24A424BB24B224C17
:1045680045618280F59B93E70701D1B793E7470040
:104578002302FC0001CC1C484146A2852324FC02EE
:1045880013058C0197000020E780E09363910B02EC
:10459800D5D80325CC0209C597000020E78040350F
:1045A800F1452685EFE0AFEB2326AC0261BFE30BB4
:1045B80009F80325CC0209C597000020E78040339D
:1045C800F1454A85C5B79DC483A70B0299EB916550
:1045D80093853571714597000020E780C02723A097
:1045E800AB0203A50B0219C57146A68597000020EA
:1045F800E780608D6388090283A74B0299EB916578
:1046080093852571594597000020E780C02423A28F
:10461800AB0203A54B0219C55946CE859700002069
:10462800E780608A1DC483A78B0299EB9165938507
:104638001571514597000020E780E02123A4AB02C3
:1046480003A58B0219C55146A28597000020E78073
:1046580080872254B2509254F249B24B224CCA86F7
:104668005A860259424BD6855285D24A624A4561DA
:104678006FF04FF5011126CA52C406CE22CC4AC8A3
:104688004EC62A8AAE84EF60C03B25C5AA89394543
:10469800EFE0EFA32A8431CD172900200349091D33
:1046A8006314090003C909009307000D2310F400DF
:1046B800AD472301F40093856900130534001946BA
:1046C80097000020E780208093F714008580858874
:1046D8002306F400A306940023154401A28562442E
:1046E800F240D244B249224A4A85424905616FE004
:1046F8006FA8F2406244D2444249B249224A056155
:1047080082809387C18E884301CD411106C69700E8
:104718000020E780E01DB24023A6018E410182807F
:104728008280011106CE22CC26CA4AC82EC6EF6066
:10473800403139CDB2451729002003492913AA84ED
:104748000CD563140900034905004145EFE02F9893
:104758002A841DCD9307000D2310F500A5472301DA
:10476800F50083C75400938564001105A30FF5FE77
:10477800194697F0FF1FE78000759C54A285F24008
:104788005CC46244D2444A85424905616FE08F9E09
:10479800F2406244D244424905618280797122D450
:1047A80006D62A842EC6EF60C0290DCD8346C500E3
:1047B8001147AA8749456393E6029C5FB24599C3AE
:1047C80083C567010808EF70204D9786000093861F
:1047D800A6D2100889452285EF60B03FB250225416
:1047E800456182805145DDBF83C7B199FD1793F7B5
:1047F800F70F0547637AF704894721CA411122C494
:1048080026C24AC006C6B2842E89EF6080232A8455
:10481800D14705C5630809008347450093E727008A
:104828002302F5004146A6851305840197F0FF1F72
:10483800E78060699C481CD48147B2402244924476
:1048480002493E8541018280C9473E85828079714F
:1048580022D406D62A842EC6EF60A01E01CDB2450A
:104868002285230EB1006C08EF708036B2502254B6
:10487800456182805145DDBF6F60202AC16713877B
:10488800E7FF6394E5029387818F9C4391EB494549
:1048980082804945B24022449244024941018280C3
:1048A80003A30700E30503FE0283411122C426C2C5
:1048B8004AC006C6FD172A892E84B2846395F5027C
:1048C8009387818F9C4391CB9C4381CB829711E541
:1048D80023862191A386919075BFA6854A85EFE02E
:1048E8003FFA4DF9F5B72E85EF60A0155DD18347E6
:1048F80005000D45E39027FB22852244B24002497A
:10490800A685924441016F90203F61476362A704E6
:104918004111416722C406C626C27D172A8409456B
:104928006383E502C547AE846315F4002E85EF90D6
:1049380020449317140017240020130424F0A2978E
:10494800239097000145B24022449244410182805D
:1049580009458280011106CE2AC6EFE09FF4EF10C8
:104968000004EF002076EF305108324597270020E9
:10497800938707F0130700F02391E70023820700CD
:104988007D5793878199A380E7002380A700F24091
:10499800954505616F40302D5D7193970501CAC03B
:1049A80086C6A2C4A6C24EDE52DC56DA5AD85ED6F5
:1049B80062D466D26AD0C1872E8963D8074C03C5F2
:1049C8008199EFD0BFF48964416A856A797B2A842A
:1049D800938BD4007D1AA50A691B15E02165334520
:1049E800A900B640264496440649F259625AD25A5A
:1049F800425BB25B225C925C025D616182808347AC
:104A080004001307200A639DE70003552400172CB0
:104A18000020034C1CE62286D285EFF0CFAB3DAADE
:104A28001307100903CC91996397E716834714007D
:104A38001547639EE7002285EFF06FAE2285EFD021
:104A48005FE603C58199EFD07FEC2A8479B73947AF
:104A58006399E71603554400631B55050C4483C945
:104A68000500639D0900850591C919461725002091
:104A7800130585E197F0FF1FE780E0441727002022
:104A8800034707DF85476318F710638A09009727EC
:104A98000020238F07DC4E85EFF00FDB45B78947F1
:104AA800172700202306F7DCEF90C02641BF938725
:104AB8002400631AF50683298400638E090C83C7D2
:104AC80009008DE383C7290003C71900A207D98FFE
:104AD800172700202312F7DA83C739001727002089
:104AE800A308F7D817270020034787D889476314F6
:104AF800F70A83C7090081CB97270020238A07D6A6
:104B080003C5090051BF8D479725002083C555D699
:104B180017250020035545D617270020230AF7D468
:104B2800EF407017F1BF938754006318F5001C44D9
:104B380003C50700EFF06FF111B7B3076501C207AE
:104B4800C1831147636FF7009387C18F9C43E38745
:104B580007EE9C43E38407EE22858297E31005EE77
:104B68001DA89387B400631FF5009387418F9C436A
:104B7800E38607EC9C43E38307ECA2851385B40026
:104B88008297E9BF9387C4006310F5021C4483C76A
:104B98000700E38507EA9307F00FE301FCEAA28523
:104BA8006285EFD03FDD71BD9387E400E315F5FE24
:104BB8009387818F9C43E38307E8DC43A285E9F36D
:104BC800B5BD3D476397E70403554400E30275FF0D
:104BD80093879401E30EF5FC93873401E31DF5FAFE
:104BE8009727002083D727C9639E47019387818F22
:104BF8009C43E38507E4DC43E38207E4A28513854D
:104C08003401BDBF938701909C43E38907E29C432D
:104C1800E5B71307E003E390E7F883472400054767
:104C28006396E70E83476400138DC18EF1E38327F3
:104C38000D00D5CB03CC0700A14903457400930CA4
:104C48008400E685EFE05FFA83474401A303A400EC
:104C5800835804010358E400035744002A86034597
:104C680034003EC283572401E686E2853EC0CE87E3
:104C7800EFF04FCE8347340095E7DD4783580401B2
:104C88000358E40083467400835544003EC28357AA
:104C98002401668705463EC06285CE87EF60A0077F
:104CA800A301A40083270D0081C71145EFF07FA55C
:104CB80003C5C190E30405D883C5D190EFE05FBC7C
:104CC800E30E05D68346340093071003638AF60083
:104CD800035644004E8783C5C1903685EFE07FC4F4
:104CE80023860190A1BB172C0020034C9CB8A9B7C0
:104CF8009387C18F9C43172C0020034C9CB7914984
:104D08008DDFDC439DDB0145829705BF294763950D
:104D1800E70A83476400938CC18EC9E383A70C001C
:104D2800ADCB03CC0700A1490346740083470402B6
:104D38008358C401058AA303C4000358A401035778
:104D48004400034534003EC28357E401130D840038
:104D5800EA863EC0E285CE87EFF0CFBF83473400B6
:104D680095E7DD478358C4010358A40183467400BE
:104D7800835544003EC28357E4016A8705463EC016
:104D88006285CE87EF503079A301A40083A70C0079
:104D980021BF172C0020034CDCAD71B79387C18F5E
:104DA8009C43172C0020034CDCAC9149B5DFDC4355
:104DB800A5DF014582978DBF0947639DE70093876B
:104DC800418F9C43E38C07C6DC43E38907C62285F1
:104DD8008297ADB12D476399E7009387418F9C4334
:104DE800E38E07C49C47D5B70D476397E700228633
:104DF8008D450355440015B119476395E70693059A
:104E0800610113051031EF3041492C081305203199
:104E1800EF30A148035664008357810103554400CD
:104E280063E8C700835684000357610163F7E6000F
:104E380093050002EF80D07211B16374E60023136A
:104E4800E40063F4D7002314F4000357C400835626
:104E5800A400035684008355640001488147EF800D
:104E6800F06FE9BE1D47E398E7D203574400E3E437
:104E7800E7D2972700209387E7A906073E9783572D
:104E88006400F1172310F70039B393F7150081CFA9
:104E98009387418F9C4389C7DC4399C30145829717
:104EA800134519003DBE93F7250081CF9387C18F25
:104EB8009C4389C7DC4399C305458297134529005C
:104EC8000DB693F745000145E38D07B09387018F31
:104ED8009C4391CF854717270020230DF798938788
:104EE800C18F9C4389C7DC4399C30545829797279F
:104EF80000209387E797C8472C08EF80600C2808A4
:104F0800EFF0CFB09727002083D7679591CB130692
:104F180000643386C702914503C58199EFD03FEEFF
:104F2800134549007DBC411122C42A84554506C653
:104F3800EFF04FD4B335A00022852244B24041019E
:104F48006F80D05E797122D406D68D472E84631F78
:104F5800F50003D7A50083D6850003D66500034571
:104F6800340083D54500EFF0AF9609A88967138709
:104F7800D7006310E50403C5250019E58547B2503D
:104F880022543E85456182809387C18E9443FDD625
:104F980003C6360083C50600814802C202C0014824
:104FA800814701479106EFF0EF9A0545EFF06FF55D
:104FB800F1B71387E700E303E5FC13873701631AAA
:104FC800E50003C525005DD90147814601468145B5
:104FD80059BFE507E304F5FA41677D178147E310F8
:104FE800E5FA03C75500C947E31AF7F883D6E50081
:104FF80003D6C5000355840083D5A500EF80D0579C
:1050080051C15D45EFF00FC73335A000231CA10047
:1050180083454400035524003008EF503016835769
:105028008101A9FF6C0813051031EF3001279305A2
:10503800E10113052031EF3041268357C1010357A1
:1050480084006374F7002314F4008357E1010357C5
:10505800A40063F4E7002315F40083558400835704
:10506800A40063F4B7002315B4000357E400835683
:10507800C4000356A4000355240001488147EF806B
:10508800F04BEDBD8547231CF10059B7C167138765
:10509800E7FF639DE5009387C18E9C4395C383C753
:1050A80007000D47639CA7006F809048FD1749478C
:1050B8006396F5009387C18E9C43FDF73A858280FD
:1050C8004947EDBF238C019023A0019223AE0190A4
:1050D800971700209387C77B170700001307E74738
:1050E80098C3170700001307074BD8C3170700001A
:1050F8001307475B98C793870191170700001307A9
:1051080027F998C317070000130707E4D8C382805C
:1051180079714AD0138901928327090006D622D4CF
:1051280026D24ECE52CC56CA5AC881EF0545B25047
:10513800225492540259F249624AD24A424B45617A
:1051480082800347050085472A846301F7040346E4
:105158008500930695009305F1000545EFE05F8D06
:10516800814719C1834705008346040011476387B7
:10517800E6021387C19118438D4603471700630F52
:10518800D70089CF01CF11E5014555B781470145C2
:10519800E1BF8546631DD7048D8BFDD703451400F9
:1051A800130B2400DA85EFE03FA4A300A4008327B3
:1051B80009002A8A81499304F00FB1E38346040069
:1051C8009147E383F6FC83270900DDDF03C681915D
:1051D80001479305F00FE309E6FABE84C10703C54A
:1051E80007FF6301B51005071377F70FEDB7894679
:1051F800E31CD7F8858B55B7850993F9F90F83C751
:105208008191E3FDF9FA03250900939A490056951F
:1052180083470500E38297FE83471500E39E47FD19
:105228001946DA850905EFD05FA779D583240900E7
:1052380003470400D694D9D09147631CF706C844A5
:1052480005C583478400034605006306F606034741
:1052580004009147631DF706C84419C597F0FF1F5E
:10526800E780006923A604000345840091659385BF
:10527800E571050597F0FF1FE780E05D05C5034769
:1052880004009147631EF704C8C48347840093054C
:1052980094000505A30FF5FE0346840097F0FF1F51
:1052A800E78060C2034584003335A00049B588C44F
:1052B8008DA8884471B7930594000505EFD0FF9D2C
:1052C8008547E316F5F85545EFF0CF9ABDA8884411
:1052D80041DD97F0FF1FE780A06123A4040069B7B0
:1052E80088C465B72380D40083471400DA85138502
:1052F8002400A380F400194697F0FF1FE780A0BCA4
:105308000345840091659385F571050597F0FF1FA6
:10531800E780605405C5034704009147E319F7F88F
:10532800C8C483478400930594000505A30FF5FEC0
:105338000346840097F0FF1FE780E0B883478400A6
:10534800E39607DE034504007D1513351500C5B344
:10535800011122CC138401921C4006CE26CA4AC8E9
:105368004EC652C499CF2E8AAA84014908406312B6
:105378009902630C0A0497F0FF1FE780605723A087
:105388000192F2406244D2444249B249224A05613C
:10539800828093194900B3073501884709C997F0F6
:1053A800FF1FE780E0541C40CE9723A407001C4051
:1053B800CE97C84709C997F0FF1FE78060531C4084
:1053C800BE9923A60900050955B745DD1396440083
:1053D8008145EFD07F86144081477D5613F7F70F3C
:1053E800E37197FA1397470036972300C70085079C
:1053F800F5B7011152C4138AC19183270A0006CE5A
:1054080022CC26CA4AC84EC656C25AC0C9CF2A8913
:10541800014419ED93870192944399CA03C6819177
:105428002A8481479305F00F13F7F70F6367C708BE
:10543800131534002105EFD08FC9AA8401E921454D
:10544800EFD0EFC8AA8421C501444D49930700FD58
:105458002380F4008547A38024012381F400A381DD
:1054680084005DC41389840023A224018149938A9E
:105478000192130BF00F83C7819163F3F90031E8B0
:1054880083270A00A68503C50700EFD0AFCE814564
:1054980003C58191753D03250A0097F0FF1FE7803A
:1054A800204523AE0190F2406244D2444249B249B9
:1054B800224A924A024B0561828013974700369729
:1054C800034707006305B70005041374F40F850745
:1054D800A1BF83A70A0093954900BE9583C705001D
:1054E800638467032300F90083C7150013052900A7
:1054F8007D14A300F900194689051374F40F97F079
:10550800FF1FE780409C2109850993F9F90FA5B78A
:1055180023A20400B5B7411122C406C62A8405E1B6
:105528000945EFE03FF52A8611C5854503C58199F0
:10553800EFD0FF8C0545EFF01F9F2A8401C98545F0
:1055480003C58199EFD03FA222856535B240224438
:1055580005454101828089671387B700631AE50012
:105568009387C1919C439DC39C4503C5070065B7BC
:105578001387C7008147631CE5009C4503C50700E6
:10558800854711C59387C1919C43F5F381473E85B3
:105598008280797106D622D426D24AD04ECE52CCF9
:1055A80056CA5AC85EC679C983473500AA8985C7CD
:1055B800404115C05945EFE0FFEB931A850193DA96
:1055C8008A410149138AC191130B000DB54B83C75A
:1055D8003900636DF900B250225492540259F249CD
:1055E800624AD24A424BB24B4561828083078402A9
:1055F80063CD570783270A00ADCB2285EFF05FB153
:105608002DC5034584005105EFD06FACAA8431CD78
:10561800231065012301750183470400194693058A
:105628002400A301F5008307840215052303F50070
:1056380083471400A30FF5FE97F0FF1FE780A088AB
:10564800034684002386C4001DC61385440188C808
:105658009305940097F0FF1FE780E08683270A00F0
:10566800A68503C50700EFD0EFB00509130494021F
:105678001379F90FA9BF23A80400CDB79387C19167
:105688009C43B1DBBD332254B25092540259F249C3
:10569800624AD24A424BB24B014545616FF0BF881E
:1056A800797106D622D426D24AD04ECE52CC56CACA
:1056B8005AC85EC671C183473500AA8985C7444167
:1056C80095C05945EFE01FDB931A850193DA8A41AB
:1056D8000149138AC191130B00FDC14B83C73900DF
:1056E800636DF900B250225492540259F249624A49
:1056F800D24A424BB24B456182808387F40063C82B
:10570800570783270A00A5C75145EFD04F9C2A8425
:1057180039CD23006501A30005002301750183C766
:105728000400194693852400A301F5008387F4003B
:105738001505A306F50083C71400A30FF5FE97E02F
:10574800FF1FE780407883C7840093859400130582
:10575800C400A305F400194697E0FF1FE780A07670
:1057680083270A00A28503C50700EFD0AFA005096B
:10577800C1041379F90F9DB79387C1919C43BDD399
:10578800EFF03FC72254B25092540259F249624A8C
:10579800D24A424BB24B014545616FF0CFF883C7FF
:1057A800B199A18B1385019191E301456FE04F9D5C
:1057B800411122C485452A8403C5819106C6EFF0AC
:1057C8003FB983C7B199A98BA5CB1715002013053D
:1057D800250C238C8190EFE04F9A138401921C4092
:1057E80091C74D45B24022444101828003C5819151
:1057F80019E10145C5BF91659385B571120597F00B
:10580800FF1FE780400523A0A19261DD03C68191B7
:1058180012068145EFD04FC2104083C6819181475F
:10582800FD5513F7F70FE376D7FC13974700329728
:105838002300B7008507F5B70145238C0190EFE0F9
:10584800CF9345BF9387018F884301CD411106C689
:1058580097F0FF1FE780C009B24023A8018E4101DD
:1058680082808280011122CC06CE8D472E84631659
:10587800F50603C73500E94703D545006318F70067
:105888009717002083D727FF6385A706EF50601B73
:1058980009C5835764002317F5000357A4008356EE
:1058A8008400035664008355440003453400EFE048
:1058B8003F82035744009717002083D7C7FB63082C
:1058C800F7008547F24062443E8505618280FD57B6
:1058D800171700202311F7FAEDB78967CD07631D65
:1058E800F50083C7250031476385E7004547E39AFC
:1058F800E7FCEFE06F8FF1B741677D178147E3134E
:10590800E5FC83C655004947E39EE6FA83C5450092
:1059180003552400300023140100EF50000155B74F
:10592800797122D41384018F1C4006D626D24AD01E
:105938000545A5C30D45EFE0FFB3AA841145EFE087
:105948007FB32A899305F1011305F041EF10015146
:105958000347F1019717002083C7A7F1B336F0007A
:1059680011C389061C4036C603C537009385470016
:10597800EFE00FA31040B2462A878348B6000348D9
:10598800A6009307460003462600CA852685EF80B1
:10599800E038B25022549254025945618280FD5732
:1059A8002382F1822392019223A6019223A80192D5
:1059B80023AA019297170020938747EE1707000044
:1059C8001307A70798C3170700001307C734D8C3DE
:1059D80017070000130707F598C797070000938774
:1059E800A7E823A4F1928280411126C29384018FF3
:1059F8009C4006C622C49DCB2A840D45EFC03FEDCE
:105A0800AA8519CD930700FD2300F5008D47A30053
:105A180085002301F5009C4003C50700EFC09FF5F2
:105A280011C42244B2409244410129BDB2402244EB
:105A3800924441018280797126D283544500896756
:105A480006D622D44AD04ECE52CC13876700639D27
:105A5800E4029387018F9C43014481CF1845034595
:105A680007000DE10547A380E7000545EF80C02B3F
:105A780005442285B250225492540259F249624A8E
:105A8800456182809537EDB7138797006365970462
:105A980003C741829307F00FE30CF7FC1C4511453F
:105AA80003C40700EFC0BFE2AA8579D1930700FDC0
:105AB8002300F50089472301F500F977E117BE9423
:105AC80093B41400A3008500A301950003C5418287
