:040000006F00006528
:1000040000000000000000006F0080086F00401E28
:1000140000000000000000000000000000000000DC
:1000240000000000000000000000000000000000CC
:100034006F004006000000006F00E00500000000B3
:100044006F0080056F0060056F0040056F0020059C
:100054006F0000056F00E0046F00C00400000000A2
:100064006F0060046F0040046F0020046F00000400
:100074006F00E0036F00C003000000006F00600326
:100084006F0040036F0020036F0000036F00E00265
:1000940001A001A001A001A001A001A001A001A054
:1000A40001A001A001A001A001A001A001A001A044
:1000B40001A001A001A001A001A001A0B717004068
:1000C400930670052380D704130780FA2380E7047E
:1000D40003C6B7041376F60DA385C704238007046B
:1000E400137605022DC603C6A700118A0DE22380EC
:1000F400D7042380E70403C7A700136747002385B9
:10010400E7009307004B01000100FD17EDFFB7174F
:100114000040930670052380D704130780FA2380D8
:10012400E7047D892394A700010001000100010078
:10013400238007042380D7042380E7049306100553
:1001440037270040A303D7802380070482801376D7
:1001540005046DDE03C6A700418A0DE22380D7049F
:100164002380E70403C7A700136707012385E7007B
:100174009307007D01000100FD17EDFFB717004054
:10018400930670052380D704130780FA7D892380A2
:10019400E704136505042394A7000100010001008E
:1001A4000100238007042380D7042380E7049306F7
:1001B40030053727004079B7411181460146814512
:1001C400114506C6912AB71700401307700523800E
:1001D400E704130780FA2380E70403C7670413675F
:1001E40017002383E70423800704B240410182807F
:1001F40081460146814511450522B7170040130782
:1002040070052380E704130780FA2380E7047D57F1
:100214002396E70203C76704136717002383E704E1
:100224002380070401A0BD473305F50201007D15B5
:1002340075FD8280411122C426C206C6AA840144E7
:1002440063179400B2402244924441018280050421
:100254001305803E4204C13F4180DDB7230304807F
:1002640015472303E48001002302A48082808307CE
:100274006480E3CE07FE23030480828083076480C6
:10028400E3CE07FE03454480828083076480E3CE87
:1002940007FE2302A4808280411126C44AC24EC0B4
:1002A40006C61377F50BAD47AA892E8995446306D4
:1002B400F70019456537653F8D444E854537FD592F
:1002C400FD1463983401B240A244124982494101A9
:1002D4008280135509011375F50F453F2209CDB7E7
:1002E400011126CC06CEB704080051371545BD3799
:1002F400713769372AC6A53F32459377150089EBD4
:10030400136515001375F50FF240E2440561828010
:10031400FD14E9FC0145CDBF397126DC4ADA4ED81B
:1003240052D656D45AD25ED006DE62CE66CCB7E739
:1003340000E07D5783AA070022C603AA470023A032
:10034400E71823A2E718B7170040130770052380A6
:10035400E704130780FA2380E70483C74704930B59
:1003640075FFB684E20793FBFB0F8546AA892E8BA3
:10037400328937240040E187015763FA7601630824
:10038400D5008946130700026313D5000157D98F9E
:1003940093F7F70FB71C00402382FC041147230393
:1003A400E4801305F00F5D3D094CD13563697C1180
:1003B400B70707003E9B378707007955637EEB023A
:1003C400B3079B00636AF702A9476399F90689E4B6
:1003D4008144713D26850DA0DA850945753D0509E1
:1003E4000345F9FFFD14050B4D3581C49377FB0FCD
:1003F400FDF7FD3569FD7D55B717004013077005FE
:100404002380E704130780FA2380E70403C7470423
:10041400418B2382E704F250B7E700E023A0571191
:1004240023A24711E25432445259C259325AA25AB1
:10043400125B825B724CE24C21618280A54763951A
:10044400F90685691309F00FB3069900B3742B01FB
:10045400B6941349F9FFB3749900856B3379690134
:10046400416B9387F9FFB3F7270199E363FC3401E8
:1004740093D94900C147E3E637FF99BF0569C169CC
:100484007D19D9B71305800D63886901130500022E
:100494006384790113051008CA85FD3B913521DD7C
:1004A4004E99B3843441D9B7DA852D45F533CA94CE
:1004B400E30099F20509D933A30FA9FED5BF9387A9
:1004C400F9FF93F7F70F636CFC0803C75C04B707E5
:1004D40008001377070219E3B78707007955E37D0E
:1004E400FBF033079B00E3E9E7F089476390F904E5
:1004F4008980D549E38E04ECDA850945713B1109FD
:100504000327C9FF91472320E48003076480E34E57
:1005140007FE23033481FD17EDFBFD14110B81C489
:100524009377FB0FE9FF6D3B71F5F1B58547E387E1
:10053400F9F4DA852D458D339389F4FFE38A04E8D1
:10054400353B93F7390091EB832604800327090098
:1005540093074900E39FE6E63E89CE84F1BFB547A1
:100564006396F9001305900BD5399DB5B147130572
:10057400B00AE38BF9FE9947639EF902DA852D45AB
:10058400213B81448D4BA149D5396396740183275E
:1005940004802320F9008504E39834FF8327048032
:1005A40013172B01635507002312F90015B52322F5
:1005B400F90039BD9D476399F90281451305B004DB
:1005C400E139BD442320090023220900FD597D316E
:1005D40093F77400CA9703C70700FD14398D23806D
:1005E400A700E39634FFEDB3A1476392F904CD3934
:1005F4008144630D0B008D479304C0036308FB0023
:100604009304000563048B01930440041375C50728
:10061400E30095DC194599319939054581312685E1
:10062400AD3109459D316D39E31405DAE9B39147DC
:100634006399F900130560061531153913059009FE
:0C06440025B7E38709D8F15469B3000022
:100650009741002093810121178100201301819A85
:1006600013054000973500209385C51917360020E3
:100670001306067E63FAC5008322050023A05500F9
:1006800011059105E3EAC5FE175500001305850F16
:1006900097450020938505971386818063FAC500EE
:1006A0008322050023A0550011059105E3EAC5FE4C
:1006B00013858180938501076377B50023200500AA
:1006C0001105E36DB5FE9302800873A002309732E6
:1006D00000209382221393E21200739052309712FB
:1006E00000009382429273901234730020303D4395
:1006F0002A876373C3029377F700BDEFADE5937666
:1007000006FF3D8ABA960CC34CC30CC74CC74107C1
:10071000E36BD7FE11E28280B306C3408A069702DC
:10072000000096966780A6002307B700A306B700CF
:100730002306B700A305B7002305B700A304B7003D
:100740002304B700A303B7002303B700A302B70035
:100750002302B700A301B7002301B700A300B7002D
:100760002300B700828093F5F50F93968500D58D11
:1007700093960501D58D61B79396270097020000E7
:1007800096968682E78086FA9680C1171D8F3E96E0
:10079000E374C3F8A5B701478147AD46B305E5004B
:1007A00083C50500139677008583AE97B29705073A
:1007B00093F7F70FE314D7FE3E858280397126DA6E
:1007C0004ED652D456D25AD05ECE62CC06DE22DC51
:1007D0004AD8AA898144130B500E130AF00F954B87
:1007E000194CC14A83C70900638A671385E393E400
:1007F0000408F250625426854259D254B259225A02
:10080000925A025BF24B624C2161828083C7B9002D
:10081000138717FF63040710E11763810710FDE0DA
:100820001384051E3D494E852EC6B537B2459387C4
:1008300001C2834604000347B4001386B6F145178E
:10084000133717003336C000718F69CB0347D400CC
:100850006316A70C014613181600229803472800B8
:100860008348180003D8070022073367170101CB1C
:1008700063070800630547016312070B8907050634
:10088000E31B76FD01461318160022980347F80073
:100890008348E80003D8070022073367170101CB1C
:1008A0006307080063054701631A07078907050600
:1008B000E31B86FD0347D4010346C4012207518F81
:1008C00003D6070019C611C7630547016318E6047C
:1008D00089070347F4010346E4012207518F03D639
:1008E000070019C711C6630547016319C7028907C5
:1008F00093F60604E39F06EE631D09001384051EAC
:100900003D4905BF1389F4FF1379F90F138409FEDC
:1009100019BF7D191379F90F011421BF850493F4D0
:10092000F40F93890902E39F54EB9304F00FD1B5C0
:1009300041111386C1F026C24AC006C62A8922C4C4
:1009400081471307F00FB2841305C0051308F002A6
:1009500093050004B386C70083C6060013F4F70F9F
:10096000A1CA6385A600638306013A848507639F55
:10097000B70211C88947631FF40203C7D1F0930778
:10098000A003631DF7029307F0022396F1F0EF2016
:10099000B008930710046313F50001452300890094
:1009A000B2402244924402494101828022875DB7CD
:1009B0003A84C1B79307F00FE301F4FEB3878400D4
:1009C00023800700EF20500501CD93071004631327
:1009D000F5000145A2949307C0052380F4007DBF74
:1009E0001305300BC5BF35714EC706CF22CD26CBC0
:1009F0004AC952C556C35AC1DEDEE2DCE6DAEAD89D
:100A0000EED6EF10E0591387C1F08147930600043A
:100A1000BA89B385E70083C5050010103E96230010
:100A2000B6008507E397D7FE1305F10111372A8930
:100A30001DC11304E00F2285FA406A44DA444A4992
:100A4000BA492A4A9A4A0A4BF65B665CD65C465D0E
:100A5000B65D0D61828013840182938501A2955752
:100A60002380F1A2014D014B228AAE8A930BF00F35
:100A7000854D228CAE8C85472386F1F02EC623A8A7
:100A800081F0050BEF30A03693441D00420B03C7E5
:100A9000C1F093F4F40F135B0B0119CBB24522851F
:100AA000313B63007505BD4763F6A7041379F50074
:100AB000EF20D05F81471307000410103E960346D5
:100AC0000600B386F90085072380C600E397E7FE9A
:100AD00093041003930CE007130CA00313041003FA
:100AE000D1A06306BD016684E285268D69B7628464
:100AF000E685E5BF0347F10116052A949307170021
:100B000063157709CE970147930500022146B30686
:100B1000E40083C606006385B6002380D7008507FE
:100B20000507E316C7FE83468400130700026387A8
:100B3000E6001307E0022380E700850721479305BD
:100B400000022D46B306E40083C606006385B600A6
:100B50002380D70085070507E316C7FEEF20105551
:100B6000EF20706B2A84175500001305A5A3EF3002
:100B7000B004D1B59410CA9683C606FC3387290108
:100B800005092300D7001379F90FE315F9FE9DBF7E
:100B9000850B93FBFB0F63998B0105041374F40F12
:100BA000630E8425930B10038347F101CE97A38333
:100BB000770123839701A382870023829700EF2088
:100BC000A06579D5EF2030652A84E31605E68147D4
:100BD000130700043386F900034606001410BE967E
:100BE0002380C6008507E397E7FE1305F1018933EB
:100BF0007D1B23A661F1EF30601B2A84E31D05E213
:100C000085472386F1F023A841F1EF30401E2A8466
:100C1000E31305E2938701C23E869306500383D512
:100C20000700130714001377F70F89C589073A8463
:100C3000E317D7FE9307140093F7F70F93065003BB
:100C4000FD556393D71CB547B354F4023374F402D3
:100C500093F4F40F01C4850493F4F40FCA9493F44D
:100C6000F40FBD4763EB971A13945400B30B8A003B
:100C70000114529493175900D29703C7C7005E8599
:100C80002386EB0003C7D700A386EB0003D7E7005A
:100C90002397EB0003D707012398EB0003D7270125
:100CA0002399EB0003D74701239AEB0003D7670191
:100CB000239BEB0003D78701239CEB0003D7A701FD
:100CC000239DEB00D84F23AEEB0003C7B700A385ED
:100CD000EB0003C707002380EB0003C71700A380C6
:100CE000EB0003C727002381EB0003C73700A38174
:100CF000EB0003C747002382EB0003C75700A38222
:100D0000EB0003C767002383EB0003C77700A383CF
:100D1000EB0003C787002384EB0003C79700A3847D
:100D2000EB0083C7A7002385FB00B534C14763F6FA
:100D3000972C938701C205473D46C51483D607000B
:100D40002300E400A305C400A300D400A182230172
:100D5000D40083D6270023060400A306A400A30121
:100D6000D400A1822302D40083D64700230D0400BF
:100D70000507A302D400A1822303D40083D6670011
:100D80001377F70FE907A303D400A1822304D4004B
:100D900083D6E7FE0114A304D402A1822305D40262
:100DA00083D607FF2317D40283D627FF2318D40244
:100DB00083D647FF2319D40283D667FF231AD402B0
:100DC00083D687FF231BD40283D6A7FF231CD4021C
:100DD000A30D040283D6C7FF231ED40283D6E7FFE8
:100DE000231FD402E31C97F4138401A0C144054CD3
:100DF000330CEC40B38424413D4D5DA8850493F44D
:100E0000F40FE39D84CD35B1139717003297850712
:100E10002310B70093F7F70F2DB5C147638BF4008C
:100E200013945400130404E0B38B8A000114569405
:100E300091B5938B01A2138401A02DBD2300E40082
:100E4000A3010401A302B400A303C400A304D400BB
:100E500013588800A1812182A1820507A300B40153
:100E600023011401230204012303B4002304C4005A
:100E70002305D400A305A40123060400A306A400AF
:100E8000231724012318740023195400231AF40192
:100E9000231BE401231CD401230D0400A30D040033
:100EA000231EC401231F6400E90701141377F70F01
:100EB00083D80700B30C870193FCFC0F93FDF80F58
:100EC00003D8270083D5470003D6670083D6870061
:100ED00003D9A70083D3C70083D2E70083DF0701CC
:100EE00003DF270183DE470103DE670103D38701A8
:100EF00093D88800E3949CF4BD4713670704A301CB
:100F00000401A302B40013588800A181A303C40004
:100F1000A304D4002182A182A305F400A306A400A7
:100F20002300E400A300B4012301140123020401FF
:100F30002303B4002304C4002305D40023060400C3
:100F4000231724012318740023195400231AF401D1
:100F5000231BE401231CD401231D0400231EC40110
:100F6000231F640013850B02938701A2637DF5069E
:100F7000231005000905E31DF5FE23A661F1EF101E
:100F80002002EF20B0622A84E31705AA8544238655
:100F900091F023A841F1EF10A000EF20107D2A84EA
:100FA000EF100000E31904A883D701A289CB2386A0
:100FB00091F023A851F1EF20507BEF00707EEF20DD
:100FC000F00E81471307000410103E9603460600FA
:100FD000B386F90085072380C600E397E7FEEF207C
:100FE000A0232A8489BC938701C2E378F5F82310F3
:100FF00005000905E31DF5FE49B7938701C20547C2
:10100000FDB301111305800406CE22CC26CA371485
:1010100000404AC84EC652C456C25AC0973000203B
:10102000E780008A8327840A85451305001093E72B
:1010300007202324F40A35298D451305002015299E
:101040008D2B834514041745000013052556B7045E
:101050004300EF30A0219387C1C823A6F180938776
:10106000C1CC23A8F18037094400EF009034B709C0
:101070006400370A7400512E93844405973700208A
:10108000238607FE130929049389F905130A1A0612
:1010900037870040834767000145858B81CF054432
:1010A00023038700A123D5476316F5009737002057
:1010B000238E87FA9737002083C747FB81E7D54700
:1010C0006311F50E1305800C97370020238007FA73
:1010D00097300020E7804096EF0070336313050CD3
:1010E0009147238CF1002944174B0000130B8B4DC3
:1010F000974A0000938A0A4E5A85EF30E02BEF1092
:101100006074AA8511CD5685EF3040167D14130505
:1011100020031374F40F97300020E780E09169FCFE
:1011200003C78101914763FEE706174500001305D9
:10113000E54AEF306028974500009385654B13859D
:10114000C1F0EF30602823A091C223A221C323A4C1
:1011500031C323A641C3B7075F009387170623A8AF
:10116000F1C2B70761009387470623AAF1C2B70708
:101170002E009387970723ACF1C2B70773009387BC
:10118000370623AEF1C29307600723A0F1C4EFF046
:101190009F85AA8505C11745000013052546EF3038
:1011A000E00C1305400697300020E780E0880545F5
:1011B0007529F9BD1745000013054545EF30C01FDF
:1011C000CDB76F00700C797122D426D24AD04ECEA2
:1011D00052CC56CA5AC85EC662C466C206D6AA8433
:1011E0002E8C0144930900F8138A8104A94A130B39
:1011F0008002938B4101938C01020D4983C7D10575
:10120000B397F400238AF1CC13D78700A38AE1CCEB
:1012100013D70701E183238BE1CCA38BF1CC238C83
:1012200031CD83470A006285A38CF1CC238D51CD4B
:10123000A38D61CD238E01CC83A70B0013D787012B
:10124000A38EE1CC13D70701238FE1CC13D78700FE
:10125000A38FE1CC2380F1CEA38001CE238101CEE8
:10126000A38191CE238201CEEF00905483C70C005E
:1012700093F7F70FB1C72285EF10801F2380A102DB
:1012800083C70C0093F7F70F95C303C50C001375C4
:10129000F50FB250225492540259F249624AD24A8E
:1012A000424BB24B224C924C456182800504137430
:1012B000F40FE31524F5FD472380F1027D45D1BFEE
:1012C0000145C1BF797122D426D24AD04ECE52CC2C
:1012D00056CA5AC85EC662C406D6AA84AE8B0144FA
:1012E00093898104294A930AA002138B4101138C2C
:1012F00001020D4983C7D105B397F400238AF1CCCD
:1013000013D78700A38AE1CC13D70701E183238B8E
:10131000E1CCA38BF1CC238C01CC83C709005E8583
:10132000A38CF1CC238D41CDA38D51CD238E01CC47
:1013300083270B0013D78701A38EE1CC13D70701B6
:10134000238FE1CC13D78700A38FE1CC2380F1CE8C
:10135000A38001CE238101CEA38191CE238201CE31
:10136000EF00104583470C0093F7F70F85E713054F
:10137000800C97200020E780406B0145B25022543A
:1013800092540259F249624AD24A424BB24B224C21
:10139000456182802285EF10A00D2380A102834742
:1013A0000C0093F7F70F91C703450C001375F50F69
:1013B000F1B705041374F40FE31E24F3FD472380F3
:1013C000F1027D4565BF3787004083473700894676
:1013D00093F7F707A301F700834757000347370048
:1013E00093F7F70F1377F70F631BD70093F61700E8
:1013F00099C6918B014581CB238CE1008280854782
:10140000238CF100594582808280411106C6EF008D
:10141000F0383D479307F00F6379A7049387C1D055
:1014200023A0F10023A4F1FE238C0100A547A38E85
:10143000F104930700202396F10223AE01029307E3
:1014400000042391F104B78700401387C70123AE3E
:10145000E1FE1387870123A2E1061387C702A107D4
:1014600023AEE1FC23A4F1008147B2403E85410157
:101470008280914763EEB702174700001307C71930
:101480008A05BA959C41BA978287B717004003A78F
:10149000470B1345F5FF698F23AAE70A03A7070B3C
:1014A000698F23A8E70A03A7070A798D23A0A70A53
:1014B0008280B717004083A6470B1347F5FFF98ECC
:1014C00023AAD70A83A6070B558D23A8A70A83A6AC
:1014D000070A758F23A0E70A8280B717004003A789
:1014E000470B498F23AAE70A03A7070B1345F5FF0C
:1014F00045BFB717004083A6470B1347F5FF758F0D
:1015000023AAE70A03A7070A598D4DB7B71700406A
:1015100003A7470B498FEDB7B717004003D58700E6
:10152000420541819377050491EB9377F501375597
:10153000E801130505803345F50282809377050C99
:10154000130700046397E7009377F50137459C1C68
:10155000CDB72165130505D082808147373700401C
:10156000A14663C4C700328582800345B740E38E3D
:10157000A6FE3385F5000345050085072304A74033
:10158000CDB7411122C406C62A8479372947B3074B
:10159000E502B2408D83B3D7870222449507B3D7C3
:1015A000E70237370040C207C1832316F7404101E5
:1015B0008280716541111305052006C6D937B737FA
:1015C0000040130770F82381E7400D47A381E740EF
:1015D00013070004A380E74005472387E740B24094
:1015E000410182808547238CF1008280411106C62B
:1015F000B786004083C7560013878101858B9DCB3A
:101600008347070005476307F70083C716000145B6
:10161000858B91EF8547238CF1001745000013055A
:10162000E5008947238CF100EF2010595545B24061
:10163000410182800347070085470145E3F9E7FE42
:1016400017450000130545FF238CF100EF20D0560D
:101650005945F1BF37870040834737001375F507B9
:1016600093F70708C98FA301F70082808280411198
:10167000A147014506C622C4A384F18037840040F7
:10168000D13F834714003D4593F7E70FA300F400D3
:101690008347140093F7970F93E72700A300F40004
:1016A00097200020E7804039834714001305A00FDE
:1016B00093F7D70FA300F40097200020E780E036CF
:1016C00085472303F400B24022444101828003C7CE
:1016D0008101854763E5E7008947238CF100B787DF
:1016E000004003C757005945058B01CB03C71700BE
:1016F000014513671700A380E7008280397122DC5F
:1017000026DA4AD84ED652D456D25AD05ECE62CCC1
:1017100066CA6AC86EC606DEB78700402387B7026E
:10172000B78D00402A8A328D2385B70213594500B0
:10173000014493846D00094C854AD54C138B81017B
:10174000854B894923844D0323808401930700320C
:1017500003C70400098B09E7FD17C207C183EDFB2E
:1017600023840D0283C70400898BE5C783C7040067
:10177000858B95C723805401953D6314950123847F
:10178000518183470B00638AFB0A83470B00638800
:10179000F90A1305800C97200020E780002983C7F1
:1017A0000400898BD9C783C77D0093F70704D1EB69
:1017B00083C77D00394793F7F70F13F5F7006304EC
:1017C000E50829476318E50263020D08FD57630326
:1017D000FD007D1D7D141374F40F05043D45137445
:1017E000F40F97200020E7804024E3FD89F41305DF
:1017F000000221A825476309E902B5476304F900FF
:101800006319790579D913650502F2506254D254EF
:101810004259B259225A925A025BF24B624CD24C54
:10182000424DB24D216182809D8B0D47E39CE7FCC8
:101830006DB7FD572380F4004DB75945F9B75545AD
:10184000E9B70145D9B71305E002C1B71305A002F6
:101850006DBF1305E00F55BF011126CA4AC8AE84FB
:101860002A891305800C06CE22CC4EC652C456C21D
:101870005AC097200020E780401B99C023800400B5
:1018800037840040A14789692306F4021386097151
:1018900081451305000D9D3563150514930700FD63
:1018A0002307F4022305F40285472306F402938AF2
:1018B000018183A70A0003C4770003C767002204DD
:1018C000598C61CC630B090C83870700378A004071
:1018D0009389097163CA07041305800C97200020BF
:1018E000E780A01483C791806374F4009377F40FAA
:1018F0002306FA0281470347CA026399E71083452A
:10190000EA024E864145DD3B69ED8347CA021D8CE4
:101910004204418081C88347CA0203C70400BA97C2
:101920002380F40055F895A8938AC1801305800C94
:1019300097200020E780600F8345AA024E8613059A
:1019400000096D3B59ED03478A009377F40F6376E6
:10195000870083478A0093F7F70F1D8C420441806C
:1019600091C403C704003E972380E40001479376A7
:10197000F70F6392D7083E9983478A0093F7F70FD2
:1019800089CB03478A0083C79180FD17F98F91E3C4
:1019900051FCB7870040238607021305800C97206F
:1019A0000020E7808008B787004083C7C70213057F
:1019B000000993F7F70F91E3414509661306067195
:1019C0009305000C253B11ED378700408347C70284
:1019D00093F7F70F99C78347870093F7F70F91C3E2
:1019E0005D45F2406244D2444249B249224A924A99
:1019F000024B0561828083A60A00BA9603C60600E0
:101A0000B306E90005072380C60095B703A70A00BF
:101A10008346090005093E9785072300D70093F701
:101A2000F70FD1BD814793850181A1463307F500AA
:101A30000346070098413E972300C7008507E397B8
:101A4000D7FE82800111A147174500001305C5D1BB
:101A500006CEA384F180F9379305F1001385C1F513
:101A6000E53B05E19387C1F583C77700A384F18047
:101A70000347F1009747000083D767CF6373F700F0
:101A80005D45F24005618280011117450000130594
:101A900025CD06CE22CC79379305F1001385C1F50B
:101AA000653B2A843DE10347F1009747000083D757
:101AB00087CB5D44636BF70483C7E1F517450000EE
:101AC000130505CAA307F100B13F938701819C4329
:101AD0000347F1009305F100A38307002383E70088
:101AE0001385C1F5953B2A840DE10347F100930767
:101AF000000463F4E700A307F1000346F1009385B7
:101B0000C1F51385C1CCEF20006B2285F240624401
:101B100005618280411126C2AA8417450000130581
:101B200025C506C622C4FD3D938701819C4381459E
:101B3000014523819700A3810700393B2A8401E9ED
:101B40002685093E294597200020E780E0EE228582
:101B5000B2402244924441018280411122C42A842D
:101B600017450000130545C106C66D3D93870181E9
:101B70009C43B2408145238187002244A381070012
:101B800001454101D1B9411122C42A841745000001
:101B9000130585BC06C67935938701819C43B24005
:101BA0008145238287002244A38207000145410129
:101BB00065B1B7870040130700F82380E700A380D2
:101BC0000700A381070013078004A386E70003D75B
:101BD000C180239CE70003D70181239EE700238572
:101BE000070223870702130790F82380E7001307F3
:101BF00000042383E7027D572383E7000547238CF6
:101C0000E1000D472381E7002384018082800111D8
:101C100017450000130505A306CE22CC26CA4AC8E4
:101C20004EC6EF206079A134814401441309400677
:101C3000054597200020E78020E0513C19E5850408
:101C400093F4F40F636C990E014405041374F40FBC
:101C5000E31024FFEFF01F9917450000130585A23C
:101C6000EF2080755944D9A0B307890083C50700C8
:101C70004E850504EF20805F1374F40F9317040161
:101C8000C183E3E397FE2945EF20806283578900F3
:101C90009744000083C4E4AD26852398F1F483576C
:101CA000A90083C901F62399F1F4AD352A8405E131
:101CB000174500001305859AA38691F4EF20005B79
:101CC000E1332A84974400009384C4980DC9A28507
:101CD0001745000013058599EF20405989470545B0
:101CE000238CF100EFF09F9891A0B307890083C582
:101CF000070026850504EF2060571374F40F93172F
:101D0000040103D7E1F5C183E3E1E7FE2945EF20B4
:101D1000205A1304B00F639B090003C7A1F6A14723
:101D20006316F7009147238CF10001442285F240AD
:101D30006244D2444249B2490561828003C5E1F45C
:101D4000EFF0DF921745000013054596EF20005293
:101D5000D5392A842DFD9744000083C454A1A204E0
:101D60009747000083C7A7A0DD8C1389C1F5974969
:101D700000009389298E19B74111094506C622C46E
:101D800026C297200020E78020CB83C70102A385CD
:101D9000F106EFF04FE3AA873DE503C781018D46C9
:101DA0009307300863F1E60683C681061306100226
:101DB0002386C1CC7D569387C1CCA386C1CC238119
:101DC0000700A38107002382D700A3820700238393
:101DD0000700A3830700814541342380A1025947AE
:101DE000AA876302E50203C5C1003D89693B03C5BB
:101DF000C1053D8913650508793383C7B106A385FD
:101E000001062380F102B240224492443E85410102
:101E100082804111054706C6238CE100EFF0AFDA5E
:101E200019E113053008B24041018280411122C4FA
:101E300083A7410103A7010506C601456384E702A4
:101E400083A581FE03A7010023A8F1046308B7025C
:101E50000545EFF04FB72380A10209E903C5010250
:101E60001375F50FB2402244410182807D5723A0B3
:101E7000E10623A8E104238601FECDB7054523A092
:101E8000F106EFF04FB42380A10269D9C5B7411123
:101E900022C483A7410103A7010606C60145638446
:101EA000E70283A5010003A781FE23A0F1066308D2
:101EB000B7020545EFF02FB12380A10209E903C560
:101EC00001021375F50FB2402244410182807D5713
:101ED00023A0E10623A8E104238601FECDB7054532
:101EE00023A8F104EFF02FAE2380A10269D9C5B772
:101EF00083A7410183A581FE411103A7010022C4EC
:101F000006C623A8F1046305B7020545EFF08FBBB1
:101F10002380A10201C97D5723A0E10623A8E10483
:101F2000238601FEB240224403C5010241018280A2
:101F300023A0F106D9BF83A7410183A50100411168
:101F400003A781FE22C406C623A0F1066305B702DB
:101F50000545EFF02FB72380A10201C97D5723A0CB
:101F6000E10623A8E104238601FEB240224403C512
:101F700001024101828023A8F104D9BF03C641FEBA
:101F800083A7410303C7910683A64105F917B397B9
:101F9000C7003697BA9723AAF10082804145828014
:101FA000FD5723A0F10623A8F104238601FE8280B9
:101FB000797126D21307500556CA2386E1CC130740
:101FC0003005A386E1CC83A7C1FD13072004238736
:101FD000E1CC1307300422D44AD04ECE52CCA38792
:101FE000E1CC06D67D475AC85EC662C42390E7009E
:101FF0002A8483C5B10603C5C10037060200EFF08D
:10200000EFEF2380A1025947630FE514938BC1CCF6
:1020100015CD9387C1CC9384C1CE98439107D8CF77
:10202000E39D97FE913BDE879853910723AEE7FE31
:10203000E39C97FE83C5B10603C5C10037060200C5
:10204000EFF0CFEB2380A102631B051683C49B0036
:1020500003C68B0083C7AB0003C7B10683C6BB00B2
:10206000A204D18CC207C58F13470704939486013D
:10207000A385E106DD8C638404108386CB0083D7BF
:10208000210463D40608138BC1C891A000C383C583
:10209000B10603C5C10537060200EFF02FE6238025
:1020A000A102631E051403C7B10683A6810083D76E
:1020B000210413470708A385E10683D6060063E1E0
:1020C000F4189D8C639ED7143E94638B041403A76D
:1020D0004106E3FDF4FA2320670155BF23A08800E1
:1020E0002390F60083D721049D8C3E94EFF00FE1FE
:1020F0002380A1022DE103C7B10613470704A3857E
:10210000E1066386040E83D7210403C8C100BA85A3
:102110003706020083A8C1FF83A6C1FD4285E3FF05
:10212000F4FA23A078012390960081470346040027
:10213000B38677018507C2072380C600C1830504E3
:10214000E39697FE37060200BA854285EFF00FDB73
:102150002380A10279C903A7C1FF9307E0022320CE
:102160007701630FF506B250225492540259F24996
:10217000624AD24A424BB24B224C4561828003C52F
:10218000C10537060200BA85EFF04FD72380A102C0
:1021900079F983C7B10603A7810093C707F8A38520
:1021A000F106FD472380F10203570700B54763148A
:1021B000F70203C581C929C1854763FEA7002254E0
:1021C000B25092540259F249624AD24A424BB24B3F
:1021D000224C456155B603C501021375F50F61B771
:1021E00003C5C1003D89EFF01F9A03C7B10683A75D
:1021F000C1FF23A0770161B723800102ADB783A699
:1022000041061307E00223A06601E31EE5F403C5BF
:10221000C1053D8913650508EFF0FF9603C7B106B8
:1022200083A7410623A0670199BF03C7B10683A70F
:10223000C1FF13470704A385E10623A0770181B7F7
:1022400063E5D402F1DE9387F6FFC207C1838507F9
:10225000A2975A878346070005040507A30FD4FEFB
:10226000E39A87FE03C7B10665BF93960401C18256
:10227000D9BF4111294506C697100020E780C07BD1
:1022800003C781049387C1CCA386E700C9461947D9
:102290002384D7002387E700930600F80D47A38720
:1022A000E700A3840700494723850700A3850700AB
:1022B0002386D7001385C1CEA389E70023880700B2
:1022C000A388070023890700238A0700A38A070041
:1022D000238B0700A38B0700238C0700D1391545FA
:1022E00097100020E780407583C70102014593F7EE
:1022F000F70F81CF03C50102D9471375F50F6309A5
:10230000F500D547630CF5000145B24041018280DC
:102310000547238CE10023AE0102C5BF0947238C8A
:10232000E100E5B73971A54722DCA38EF104BD4772
:10233000238CF1FE26DA4AD84ED652D456D25AD041
:102340005ECE62CC66CA6AC86EC606DE938DC1CC0C
:10235000938481FF214B930A00F8130A5002A94984
:10236000854C4D4D81A063FADC0A6308A70BA3805E
:10237000E400013703C581FF03C7140072057D85A2
:10238000137585F71305850C2380E1029710002053
:10239000E780806A03C781FF7D171377F70F238CCF
:1023A000E1FE25CF03C781041385C1CE23846D01CF
:1023B000A386ED00A3840D0023850D00A3850D00E9
:1023C00023865D01A3874D0123880D00A3880D009E
:1023D00023890D00238A0D00A38A0D00238B0D0095
:1023E000A38B0D00238C0D0023873D01A3890D00D5
:1023F000C13603C701021377F70F9306B7FE93F6B2
:10240000F60F35F383C76D0211476382E704214756
:102410006384E70441476388E70403C7D105854720
:10242000B397E700C207C183F25062542396F102CA
:1024300003C514004259D254B259225A925A025B2F
:10244000F24B624CD24C424DB24D21618280A38E40
:10245000310593070040C9BFAD47A38EF1048567DE
:1024600093870780D1B7B147A38EF10485676DBF0D
:10247000411126C2AA84054506C622C49710002031
:10248000E780805B854763F3970683C78101C94670
:1024900093F7F70F6388D700C14663F8F600238CE3
:1024A000D10021A09547238CF10083C7010293F747
:1024B000F70FAD1793F7F70F05476374F700553B18
:1024C00005C1094597100020E780005703C50102A8
:1024D000D9471375F50F630CF502D5476303F5046F
:1024E000B2402244924401454101828083C70102E7
:1024F00093F7F70FDDFC094597100020E780C053E4
:1025000003C50102D9471375F50FE318F5FCB24076
:1025100022440547238CE10023AE0102924441018D
:102520008280B24022440947238CE1009244410159
:10253000828039716EC606DE22DC26DA4AD84ED693
:1025400052D456D25AD05ECE62CC66CA6AC8EFE088
:102550009FE7AA8D71E983C781010D476376F70E66
:102560009147238CF100EFE0DFC52380A102AA8D03
:1025700045ED938CC1CC83C6EC002147639DE60CEE
:1025800003C6FC002388010299466315D6008546E0
:102590002388D10203C77C0183C5BC0003C66C013C
:1025A00083C6EC0103C8DC0103D321042207A20681
:1025B0002384B106518F238C01FEB3E6060103C6C6
:1025C0004C0183C5BC0103C8C10003CEC105631023
:1025D0006708620661861373F6006346060813688F
:1025E0000301014605436390E62013978501618747
:1025F0009376F700138B81FF634607080947238C06
:10260000E1FEA300BB0013E806016311061A23864E
:10261000010161A083C601021306E0026300D62215
:1026200003C70102937DF70FF25062546E85D254B6
:102630004259B259225A925A025BF24B624CD24C26
:10264000424DB24D21618280930D3008F1BF138954
:1026500081FFA300C900FD472380F10203C70102E7
:10266000937DF70FD1B7136E030905460143E38E3F
:10267000E6F6938781FF238CC1FEA380B700238EEB
:10268000C105D1BF93E606F90947238CE1FEA300FB
:10269000BB00238ED104E31C03F603C55C00EFF0FE
:1026A000CFCB2380A102AA8D41F183C681061306F8
:1026B00010FA03A501002386C1CC7956A386C1CCAC
:1026C000854A938591FF238C01FE23810C00A38111
:1026D0000C002382DC00A3820C0023835C01A38313
:1026E0000C00EFF06F972380A1020DF583461B00CD
:1026F0006398560183A6010083C60600238CD1FE91
:10270000154597100020E7802033FD5623A0D10601
:1027100023A8D10403A50100238601FEA385010699
:10272000238401040146130C4002930B00F8194B5B
:10273000C94A130A4002A386CC0023848C01A384D7
:102740000C0023850C00A3850C0023867C012387C5
:102750006C01A3875C0123880C00A3880C002389EB
:102760000C00A3894C01238A0C00A38A0C00238B44
:102770000C00A38B0C00238C0C00EFF07F8383C62E
:102780000102054693F6F60F8DE683C681FFB9C2B6
:1027900083C68104A1E203A5010095478346050095
:1027A000639AF60285472384F10471B7238EC1052D
:1027B000B9BD83C681FFA9C283C681048947138638
:1027C00016001376F60F63E9D7022384C10403A52C
:1027D000010095B783C781018D4663F1F6049547E3
:1027E000238CF10091B5938781FF238C61FEA38038
:1027F000B7002386010185B5625423840104F25099
:10280000D2544259B259225A925A025BF24B624C4C
:10281000D24C424DB24D0545216199B96254F250F6
:10282000D2544259B259225A925A025BF24B624C2C
:10283000D24C424DB24D21616FF0AFDD0145EFF05A
:102840008FB47DBD411126C222C406C623A601F065
:10285000EFE07FB72A8441E183C7810111476372AA
:10286000F7089387C1CC03C7810423840700A3869C
:10287000E7001947A384070023850700A385070005
:10288000238607002387E7001385C1CEA3870700AF
:1028900023880700A388070023890700A38907006E
:1028A000238A0700A38A0700238B0700A38B070056
:1028B000238C0700EFF0CFEF83C7010293F7F70FE8
:1028C00099CB83C70102238CF1FEEFF09F9A03C4DA
:1028D00081FF238081022285B2402244924441013B
:1028E0008280813919C91305000497100020E78000
:1028F000A014813119C12A84F9BFEFF0BFA205E508
:102900009387C1CC03C6170283C5070283C627027B
:1029100003C7370222064D8EC206D18E6207558F3D
:1029200023A6E1F089B703C401021374F40F65B75D
:1029300083C78101397106DE22DC26DA4AD84ED6F9
:1029400052D456D25AD05ECE62CC66CA6AC86EC61F
:1029500011476374F73803A7C103FD5723A0F1069D
:1029600023A8F104238601FEB7573412937607FF9C
:1029700093870767638AF6369384C101A3800400B6
:1029800023800104A384010623A401022D6A130AF3
:102990005AA5138D81FF23AA0100930B900E930D6E
:1029A0000004EFF0CFCE6314051283C6140003A613
:1029B000010099E68347060093F7D70F638B7717DB
:1029C0008357E61F6398473183CE0104238ED101DC
:1029D000638FBE2F9387EE1BB29783C5A70003C7F3
:1029E000B70003C8870003C59700A301ED00238C3F
:1029F00001FFA300AD002301BD0083A581FF83C7B4
:102A00004700154723AAB100238CF1FE6387E72A0C
:102A10003D476384E72A7687014F01433545054EDC
:102A20001548BD489DA083C781FFFD1793F7F70F99
:102A3000930F07019382F6FF6367F500637EDE0E56
:102A400093F6F20F054F13F7FF0F9307E71BB297AB
:102A50006306B70B03C3A70083C5B70083CF9700F6
:102A600023016D00A301BD00A300FD0183C5870004
:102A700083C747000543238CB1FE83A581FF238CC8
:102A8000F1FE638F0701638D1701939F870193DF29
:102A90008F4193F7F703E3D80FF8238CF1FE71B75A
:102AA00023AAB10063040F00A380D400238EE100A9
:102AB00083A7810283C69106BE9523AAB100E39243
:102AC00006EE4107A384E10623A4B102F9B5EFF0B5
:102AD000AFAAEFF03F85EFF08FBBE30805ECF250B3
:102AE0006254D2544259B259225A925A025BF24B62
:102AF000624CD24C424DB24D21618280630403008E
:102B000023AAB10063040F00A380D40083C79106F9
:102B100013070004238EE100638B071A63990E1AD2
:102B200003C714002380F10423A40102BD47E3146A
:102B3000F7E683A5410105A06302031E23AAB100A5
:102B400063040F00A380D400238EE10083A7010655
:102B5000BE9523AAB10023AEB102EFF04FB341F10D
:102B600083A501001307900E83C7050093F7D70FC5
:102B70006390E71A83C7D500139787012380F10478
:102B8000618763420718194786072382E1FE93F79E
:102B9000F70F0145194793968701E1861306F7FF62
:102BA000860763C706101377F60F93F7F70F0545EF
:102BB0007DF38547238201FE2380F10403D565015F
:102BC00023A2A10201E5C85123A2A10283C74501A6
:102BD00003C63501A207D18F23A2F10081E79C51E2
:102BE00023A2F10003C6250183C8150183D6C102C3
:102BF00003C3D105220633661601958283D8E5000A
:102C0000B296FD161306B3FFB3D6C640338616013F
:102C100003CF05012A9623A8D1FE23A8110123ACD6
:102C2000C1FE8946630DDF0823A2010283A641018C
:102C3000918F33D7E700369623AAC10423A6E10477
:102C4000C167D11763EBE704239301048567D117AC
:102C500063EBE7060547A386E1FE6383080283A7CB
:102C600001FF99CF85476305FF0083A7410289CB08
:102C700003C5B50011E503C7C500854763E5E70A4D
:102C800083C71400C9EB8547A380F40023800104A7
:102C9000A384010623A40102D5B9DC5503D605039C
:102CA00023A8F1FE2393C1040D47A386E1FE75B767
:102CB000E30605F02382E1FE11B77687D5BB2A969D
:102CC00023ACC1FEA5B70947A386E1FE79B713057A
:102CD000200931B51305100919B5EFF09F85E310F0
:102CE00005E0EFF02FE485B93D8B9384C101A3800B
:102CF000E40023800104A384010623A40102BD474C
:102D0000E316F7C83DB51D472382E1FE1D477DB59B
:102D10001305100AE9B31305300AD1B3E3080FE233
:102D2000A380D40025B583C78101B69823A81101DB
:102D300011476376F700C147238CF1004DB362540D
:102D4000F250D2544259B259225A925A025BF24B73
:102D5000624CD24C424DB24D21616FF08F8B01110C
:102D60004AC883A7010526CA22CC06CE4EC623AA8E
:102D7000F100EFF0EF972A8411E583A7410299EB68
:102D8000238601FE2285F2406244D2444249B24980
:102D90000561828003A7410183A581FEBA9705459D
:102DA00023AAF100EFE00FD203A741012380A10283
:102DB00003A6410283C70102118F23AAE10093F702
:102DC000F70FDDDF03C40102FD5723A0F10623A89E
:102DD000F104238601FE1374F40F6DB7797152CCA0
:102DE00003C8D1FE22D426D24AD006D64ECE56CA29
:102DF0005AC85EC689472A89014403A701FE6300B9
:102E0000F8128D47630BF8109357170013741700CF
:102E10003E9783D6C10283C7D10583A581FE03A651
:102E20000101FD16F98EB357F70003A70105AE9611
:102E3000B29723AED10023A0F1FE6382E70203C75D
:102E4000C1FE09C7293F5DED83A701FE23AAF1005A
:102E5000EFE0DFFD45E903C8D1FE83A6C101630FA2
:102E6000090091476308F9168547630FF90E83A798
:102E7000410323A0F1FE05472386E1FE23820104DE
:102E800089476300F80A0D4783A701FE6301E80E36
:102E900003C5060013F8F70F83D5C1021377F500B9
:102EA0009318480003A681FE33671701938481FFBE
:102EB00091831377F70FFD15A380F4002381A400FD
:102EC000238CE1FEB307B600638AF61083C71600B1
:102ED000A381F400631009086309040E83D724005A
:102EE000918305672391F4005917636CF70A03C7B0
:102EF000410423ACF1FE3369E900631B090423AAF2
:102F0000F1020145B250225492540259F249624AE8
:102F1000D24A424BB24B456182800A07DDBD0607AB
:102F2000CDBD03D7060023ACE1FEC167D91763FD11
:102F3000E70085472382F104630C090083A701FEA3
:102F400001452390F6007DBFE31A09FE23AAE102A2
:102F500001454DBF31CC2380E60083A7C10103C7E3
:102F60001400A380E7009DBF23A001FE29B798426B
:102F7000370600101305F6FFB70500F0F98DE98F4D
:102F8000CD8F698F23A0F1FE23ACE1FE5916637C3F
:102F9000E60605472382E104E30C09FA9CC20145D9
:102FA00095B705472382E10423ACF1FE014599BFA3
:102FB0002380060183C7340003C7140083A6C10120
:102FC000C19B1183D98FA380F60083D72400D20739
:102FD000D18301BFFD5723A0F1FE71BD6318090223
:102FE00083C7C1FE85EB83A70105850723AAF100EE
:102FF000EFE0DFE3E31805F083A781FE83C7070056
:10300000A381F400D1BDE31B09F889B711E0428721
:103010002380E600A933E31705EE83A701058507A2
:1030200023AAF100EFE09FE0E31E05EC83A681FEFA
:1030300003C70600A381E400E30009EA83C7140084
:1030400001E4419B9183D98F2380F60005472386B5
:10305000E1FE59B5797122D466C262C403A8C104E5
:1030600003AC41036AC026D24AD04ECE52CC56CAD7
:103070005AC85EC606D68549938A81FF6364881361
:10308000050C014523A081FFEFF05FD523AA810342
:1030900059ED83A781FF6380071403A8C1049367D8
:1030A000FC0F1367F80FE38BE7FC83C6D1FEE387C1
:1030B00036FD83A781FE094603D7C10223AEF10086
:1030C0006385C60893562700FD16C206C182370ED7
:1030D0000010239CD1FE2391DA003687814E7D1E9D
:1030E00039A0131703014183AE87854E5DCFD043CE
:1030F0001303F7FF93854700B378C601E39308FEF7
:1031000023AEB10063850E0C239CE1FEB7050010D1
:10311000B3E68601FD153387E6404D8E0507D0C323
:1031200023AAE1026360E80805472386E1FEB25066
:10313000225492540259F249624AD24A424BB24B4B
:10314000224C924C024D45618280135617007D1629
:1031500042064182239CC1FE2391CA00328701436B
:1031600039A0139708014183AE87054321CB83D64D
:1031700027009308F7FF93852700E5F623AEB100FB
:1031800063090304239CE1FEFD562391D70083D6F7
:103190002A00B3E686013387E640050723AAE10249
:1031A000E374E8F81305100B59B7336CDC0023AE59
:1031B000B100239C01FE23AA8103C9B5336CCC0066
:1031C00023AEB100239C01FE23AA810345BD3687AF
:1031D00035BF328755BF225423A081FFB25092548D
:1031E0000259F249624AD24A424BB24B224C924CAB
:1031F000024D114545616FF07FBE411106C6993DF4
:103200009307100B6305F500B24041018280B24084
:1032100023AA010241013DBD5D7156DA83C78101D8
:1032200086C6A2C4A6C2CAC04EDE52DC5AD85ED63A
:1032300062D466D26AD06ECE3D47637CF72C83C7DA
:1032400081013D47637DF710C147238CF10083C6A0
:10325000C1F023850106638606301307C005638726
:10326000E6301307F0026383E6301387C1F00346AC
:1032700017009307A0036306F62A3EC483A641FF06
:1032800083A7410532C623ACE104138481FF638D1B
:10329000061C83C541FE03C601041387E6FF3317EE
:1032A000B700BA97A384C10623ACF10263020624D7
:1032B00023AAF100EFE0BFBD5DE583D7C1022397EC
:1032C00001026384072083A5010023AEB10083C7F8
:1032D0000500B9CB930D500E2D45930BC0056381AE
:1032E000B70315476394E7009307500E03A88105C1
:1032F000834608006388F6081307A0026384E60883
:1033000083D7E10203D7C10293870702C207C183B3
:103310002397F10263FBE71A83A50100BE9523AE54
:10332000B10083C70500C5FF83A681058147130649
:10333000A0029305C0051305F00239A0630EC70073
:103340006303B7226301A7223387F6000347070010
:10335000850793F7F70F7DF31305200429A0EFE00D
:103360005FABE30605EEB640264496440649F259A3
:10337000625AD25A425BB25B225C925C025DF24DB1
:10338000616182809D8E93B6160036872301D4003A
:103390003386D500B307E80083C70700034606005D
:1033A0009308F0021303E002214E930E0002130F64
:1033B0001700638EC702F9C76386770D6384170D04
:1033C000639D670C6304C701631AD6152301E401EA
:1033D000A146034724003386D50003460600B30701
:1033E000E80083C70700130F1700E396C7FC050723
:1033F00085061377F70F2301E40093F6F60FE39A9F
:10340000A6FC429783470700A301F40083C7B500D9
:10341000A18BE39707EE2382010483A7C101A24594
:1034200083D6A70103C6D1FE0D4723AAD1FE631898
:10343000E60003D747014207D98E23AAD1FE0347EE
:103440003400630B072403C74104631707240347B1
:10345000240083A781050507BA9723ACF104B2477E
:1034600083A74105E39706E203A701FF9376F70FD1
:10347000958F1377F70FA384E10623ACF102E319CC
:1034800007E25DB513070002631EE6021D47E36D08
:10349000D7F603C78500E309C7F6A301F4001307B5
:1034A000A002E39FE7E483C7B500A18BE39A07E49A
:1034B00083A781026389071463C10712FD1723A440
:1034C000F1023DBDA301F40025BD03C7910683A70A
:1034D00081037D1785071377F70F23ACF102A384CF
:1034E000E106E31707DCA24783A641FFE38E06E26D
:1034F000014523A0D1FEEFF07F8EE31605E683C7DA
:103500004104E39307E283A681FFA24723AAD1FEE9
:10351000B9B7EFF0EFC1E30405D2B1B5A301640080
:10352000C5B393072004E3FAD7D41387F1F023AC93
:10353000E1049387F1F089A0D84F23A4E10291E63A
:103540007D57A384E10623A4010283C781013D477F
:103550006378F718D147238CF10083C7410463993E
:103560000716014509B51305300BF5BB1387D1F0DC
:1035700023ACE1049387D1F083C6D1FE0D47638469
:10358000E60603C707003EC436C623AA01FE83A78A
:1035900041058146E31B07CE83A601FF03C6D10583
:1035A000A24513F7F60F998F3317C700094623AAD0
:1035B000C1FE2380D104B24623AAF10423A4E10270
:1035C000894623AAD10223A20100A3840106C94788
:1035D000238CF1001305100479B3EFD0FFE283A729
:1035E00081022D45E1BD83A601FF83C707003AC4D0
:1035F00023AAD1FE89C73EC683A7410579B17D576D
:1036000023A4E1027DBF238C01FE83A7810501472E
:10361000130500022148154E15539308E002AD45ED
:103620001DA82300D60083C781FF83A6810599EBDF
:1036300003C606006318C6012380660083C781FFA6
:1036400083A68105850793F7F70F238CF1FEB697C4
:103650000507630DB70283A6C1013E86BA9683C6ED
:103660000600E387A6FEE31E07FB2380170183C73E
:1036700081FF83A6C10103A68105850793F7F70F94
:10368000238CF1FE83C686003E9661BF238007002F
:1036900085472382F10451B303C7B70023AAD1029F
:1036A00023A20100A3840106418BE30707E883C737
:1036B0008101FD5623A4D1023D47637EF700CD472B
:1036C000238CF10083C7410413051004E38D07C860
:1036D0001305300449B9EFE0CFF3E31605C8DDB7B1
:1036E000EFE02FF3E31105C88DBD83A641FF011163
:1036F00022CC26CA06CE4AC84EC652C456C2B9CA41
:103700009387C1F083C5D105D84303C6910683A72B
:10371000C1F03357B700B305C74063FDB70423AA10
:10372000D10203C7010463EEE70421A883A7C1F017
:1037300003C7010483A64103998F23A6F1F063E236
:10374000E704014523A0D1FEEFF04FE919E983C753
:103750004104E9DFFD57A384F106FD5723A6F1F0EC
:103760000145F2406244D2444249B249224A924A57
:1037700005618280B297998F23A6F1F083A6410359
:103780004DB783C541FE03A641051387E6FF3317F6
:10379000B700B386C7003697A384F10623AAE100D9
:1037A00023A6E1F0014575BF411106C622C4EFF022
:1037B0007F8A11CD9307100B6306F500B2402244B7
:1037C0004101828023AA0102EFF0DF8865F9EFF062
:1037D0000FD96DF583A7410303A7810323AAF1FE47
:1037E00023AAE100EFE0AFEA71F903D6E10283A773
:1037F000010003A741FF2244B29793560701239D7E
:10380000E700B2400546D0CF239AD70023AEF1009F
:1038100041016FE04FF2411183D7610422C423AC10
:10382000A1FE06C6014589E7B240224441018280DB
:1038300003A7C103BA9723AAF100EFE04FE56DF5A6
:1038400003A7010083A681FF22448327871EB2407D
:10385000B6972324F71E41016FE0EFED83C7810186
:10386000238501064D476364F7000145828003A765
:103870008103411106C623AAE100EFE04FE109ED03
:1038800003D7E10283A701000145BA9703C7B70038
:1038900023AEF100418B01C7B2404101828003A7F2
:1038A0008102B240D8CF41016FE0EFE8411122C45C
:1038B00083C7810106C6454793F7F70F6371F70881
:1038C0004947638AE70483C781014D4793F7F70FA0
:1038D0006361F7022385010683C781013D47637752
:1038E000F702C147238CF1000145B2402244410157
:1038F00082805147638BE70483C7A106F1DFB93F9C
:103900006DF583C781013D47E36DF7FC2244B2406A
:1039100041016FE00FD003C7D1FE8D47E305F7FAF1
:1039200083C541FE03A6410583C701FF0547331741
:10393000B700B2972380E10423AAF10469B7B2402B
:1039400022441305400B4101828083C7C1F0CDF7AB
:1039500051B7011122CC83C7810106CE26CA4AC8BD
:103960004EC64947637FF70883C781013D476370AF
:10397000F708C147238CF10003A7810323AAE100C4
:10398000EFE0EFD025E903D7E10283A70100BA9762
:1039900015572380E700EFE00FDA29ED83A741FFF9
:1039A00023ACF1FEA1CB9386F7FF23AAD1FE23AA75
:1039B000010219A083A781FF054523A0F1FEEFF0C6
:1039C000EFC10DE983A7410303C74104850723AA7B
:1039D000F1026DD3EFF0AFB811ED03A541036244DE
:1039E000F240D2444249B24905616FF0DFE2EFE0B4
:1039F0004FC259D1F2406244D2444249B2490561B2
:103A00008280EFF07F812DD1F2406244D24442495E
:103A1000B24905618280797122D406D626D24AD075
:103A20004ECE52CC56CA5AC85EC6EFF0EFFEA38403
:103A3000A106630F051093072004630DF500B25033
:103A4000225492540259F249624AD24A424BB24B32
:103A50004561828083D6E10283D7C10203A741FF7B
:103A600063E0F6086319071083A701FFA384F1063A
:103A7000130A500E83A78103FD1723ACF10223AA7A
:103A8000F100EFE0CFC045FD03D6C102239701024C
:103A90000DCA83A5010083C70500638847259307E6
:103AA000000201A883C606004207418363864603DD
:103AB000BA87B386F50013870702E3E5C7FE2397AD
:103AC000F10283C79106FD1793F7F70FA384F10660
:103AD000D5F31305200BA5B703A741FF2397F102E8
:103AE00023AAE102EFF00FD79307100B6300F5084C
:103AF00039F5EFF0CFA621F583A741037D5523AA21
:103B0000F1FEEFF05FD105FD03A7810323AAE100D9
:103B1000EFE0EFB7E31505F283D6E10203A701005A
:103B20008147369723AEE100A945930800027D48FE
:103B300001A8230007006380061103A7C1018507C0
:103B40003E9793F6F70FE3E6F5FE23001701F5B76E
:103B5000EFF03FE0E31505EE03A741FF23AAE102E2
:103B6000EFF04FCF9307100BE314F5F823AA0102EF
:103B7000EFF04FCEB5BF014523A0E1FEEFF00FA659
:103B8000E31F05EA83C7410403A741FFB1DB23AA72
:103B9000E102EFF02FCC9307100B6309F508E31057
:103BA00005EA83A741FF094523A0F1FEEFF00FA32B
:103BB000E31705E8EFF0AF9AE31305E883D6C102F7
:103BC00089CE03A6010081473307F6009107C2079B
:103BD00023200700C183E399D7FE83A7410303C6CF
:103BE00041FE83A64105F91703C70104B397C70037
:103BF000B697A384010623AAF1002397010223AC00
:103C0000F102238CE1FE19EFE5A083C781FF03A732
:103C10004101FD17050793F7F70F23AAE100238C55
:103C2000F1FEF9C7EFE02FB16DD111BD23AA01025A
:103C3000EFF04FC2ADB703A6C1018D67938717029E
:103C4000231CF60085475CCE83A781059308E0021C
:103C50002D4303C70700B305A60005051375F50F2F
:103C600009CF93861700630917052380E50023AC6D
:103C7000D10463046500B687E9BF83A741FF13D76A
:103C80000701231DF600231AE600EFE0CFAAE31890
:103C900005DA83A641FF03C7810123AAD10223A429
:103CA000010223A20100A3840106BD4663F3E602DC
:103CB0005147238CE10061B323ACD10403C7170043
:103CC0009386270023ACD1042304E6002545B6875C
:103CD00049B72254B25092540259F249624AD24A28
:103CE000424BB24B45616FE0CF9203A741FFCDBB82
:103CF0007D55EFF05FB2E31405D403A741FFCDB3C8
:103D0000411126C222C41384C1F018444C4003451B
:103D1000240006C623AAE100EFD0EFCA05E9034755
:103D2000240083C7D105504083A6410003C8C1F0D9
:103D3000B317F700C207C1833E964297B69750C0AB
:103D400023A2F1002386E1F023010400B2402244C3
:103D5000924441018280411126C222C41384C1F0E1
:103D600018444C400345240006C623AAE100EFD0C6
:103D70006FD505E90347240083C7D105504083A6CA
:103D8000410003C8C1F0B317F700C207C1833E96D4
:103D90004297B69750C023A2F1002386E1F0230199
:103DA0000400B240224492444101828083C78101D1
:103DB0004547637BF70283C5D10503A7810203A8AA
:103DC000410083A7C1F01385C1F0232205013357B9
:103DD000B7006375F70023A6E1F0BA87B397B70081
:103DE00023A2F1006FF07F901305400B828003C780
:103DF0008101D14663E8E61683C7810145476373B5
:103E0000F716797122D456CA83A5410083A781028F
:103E100003C7C1F003C6D1059386C1F006D626D2EA
:103E20004AD04ECE52CC5AC85EC662C48D8F23860D
:103E300001F0B3D7C700A380E60023810600130674
:103E4000F00F1384C1F06369F60EA381F6009304AA
:103E5000F00F130B000471C383473400DDCF83C719
:103E60009106638C970AEFE06F9183452400D5C1DA
:103E700083C7D10503A74101DD17B357FB4063D6C4
:103E8000F5001C44AE97638CE70023ACE1FEEFF035
:103E90003FE759E583A781FF834524001CC403C580
:103EA000010483C69106034634003307D5401377D7
:103EB000F70F9377F60F6374C7009377F70F0347F5
:103EC0001400636EF7061D8FBE96BE951377F70F2D
:103ED000B307F64093F6F60FA300E4002301B40005
:103EE000A301F400A384D106E317D5F683A7410309
:103EF000014523A0F1FEEFE07FEE1DE183C7410401
:103F000003471400B337F000B307F040A384F10671
:103F10003DBF83A741011CC459B70345240015E5E3
:103F2000B250225492540259F249624AD24A424B48
:103F3000B24B224C456182809307F00F39B7BA9596
:103F4000BA962301B400A384D1062254B2509254ED
:103F50000259F249624AD24A424BB24B224C456165
:103F60006FF01FDA1305400B8280797156CA83C740
:103F7000810106D622D426D24AD04ECE52CC5AC87F
:103F80005EC662C466C26AC051476360F71A83C7DF
:103F900081014547637BF71803C7C1F0138DC1F05A
:103FA000A300ED006301071283C68101238601F09F
:103FB00023110D00C9476381D71A83C7910655A005
:103FC00083C7D10503A64101138777FF9307000438
:103FD000B3D7E74063D7F60083278D00B697638E8B
:103FE000C70023ACC1FEEFF01FD76319051083A7EC
:103FF00081FF83462D002324FD0083C7910683C5DE
:10400000010403461D003387F5401377F70FB2977D
:1040100093F7F70F636EE6108D8F369793F7F70FD0
:104020002301ED00A300FD0099E703274D0083A7BE
:1040300001006307F70E83A74103014523A0F1FEAA
:10404000EFE0DFD945ED83C7410403471D00B337D7
:10405000F000B307F04093F7F70FA384F106630F66
:10406000070C1307F00F6395E70483A741FFCDC743
:1040700083C7810149476317F70003C7D1FE8D4706
:104080006318F71283A741032326FD00EFF0EF9694
:1040900035E58327CD00094523A0F1FEEFE01FD4CD
:1040A00031ED83473D00A3840106FD17A301FD0008
:1040B000EFD0DFEC83462D00E39406F083A74101A7
:1040C0002324FD001DBF03C7A10661E7238601F07D
:1040D00083C7810123110D0083C7C1FEB5EB0345E2
:1040E0003D0055E103A7410083A6810263F7E60086
:1040F00023A4E10205472385E1060145B25022547D
:1041000092540259F249624AD24A424BB24B224C73
:10411000924C024D45618280EFF00FE959D1F9BF11
:10412000EFF07FC3E30905F0D1BF1305400BF9B7EA
:104130003307D6002301ED00A384F10683C7C1FE37
:1041400081EB83472D00C1DFEFF0FFC049D97DB778
:10415000EFE0FFC07DD55DB783C6D1FE8D47E38E0E
:10416000F6E403C6D10583A7810283C69106B3D7BF
:10417000C700958F93F7F70FE3F1E7E4A300FD0085
:10418000E39D07E291BF136505F0EFF0CFE839D961
:10419000B5B72254B25092540259F249624AD24AF7
:1041A000424BB24B224C924C024D45616FF00FEBEB
:1041B0001305100BA1B7B3C7A5008D8B3307C5003E
:1041C00081E78D4763EEC700AA876370E50A83C65F
:1041D000050085078505A38FD7FEE3EAE7FE828009
:1041E00093763500AA8791CA83C6050085078505A1
:1041F000A38FD7FE93F63700FDB79376C7FF1386DC
:1042000006FE63F0C70683A3050083A2450083AFC3
:10421000850003AFC50083AE050103AE450103A3CE
:10422000850183A8C5019385450223A0770003A8D3
:10423000C5FF23A2570023A4F70123A6E70123A863
:10424000D70123AAC70123AC670023AE17019387C8
:10425000470223AE07FF75B790419107910523AE42
:10426000C7FEE3EBD7FEE3E4E7F6828039713EDA7E
:104270002ED232D436D63AD842DC46DE970700201A
:10428000938747DE22CC804326CA06CEAA8409C47F
:104290001C4C99E32285852B0C44541026862285DC
:1042A00036C6EF00D01CF2406244D24421618280C5
:1042B0000111970700209387E7DA22CC804306CECE
:1042C000AA8519C41C4C89E72AC622852D2BB24524
:1042D000104422856244F24005616F00307E011176
:1042E00026CA4AC806CE22CC4EC652C4AA842E89FB
:1042F00001C51C4D91E3012B9C4C804499E326851C
:104300001923971700009387673D631CF402C04090
:104310008357C400A18BB1C71C48A1C7FD59294AC6
:104320001C4483450900FD17B1E91CC463DE070680
:104330002286A94526855520FD576308F5022945A3
:1043400035A0971700009387673B6314F4008044FF
:10435000C1B79717000093876736E31BF4FAC04490
:1043600045BFA2852685152A55D97D55F240624460
:10437000D2444249B249224A056182801CC40509DF
:1043800063D70700184C63CBE700638945011C40E5
:104390001387170018C02380B70059B722862685D7
:1043A0002D28E31F35F7D1B71C401387170018C01D
:1043B00029472380E70061B797070020938787CAC2
:1043C000AA8588436FF0BFF1AA8703C70500850758
:1043D0008505A38FE7FE75FB8280011122CC26CADA
:1043E0004AC806CE4EC6AA842E89328401C51C4D09
:1043F00091E31129971700009387472E6319F4065C
:10440000C0401C4C1CC48357C400A18BC9C31C48AA
:10441000BDCF1C4808409379F90F1379F90F1D8D12
:104420005C486346F500A2852685752C2DE51C4465
:104430000505FD171CC41C401387170018C02380F6
:1044400037015C486389A7008357C400858B81CB03
:10445000A9476316F900A285268571240DEDF24067
:1044600062444A85D2444249B24905618280971725
:1044700000009387A7286314F400804459B7971766
:1044800000009387A723E31EF4F6C0449DBFA285D6
:10449000268521203DDD7D59D9B7411197070020A0
:1044A000938747BC26C2844322C44AC006C62A89D1
:1044B0002E8489C49C4C99E32685B1269717000069
:1044C0009387C721631CF402C0400317C4009317ED
:1044D0000701C18393F68700B5EE93F607019DEEC1
:1044E000A5472320F900136707042316E4007D5530
:1044F000B240224492440249410182809717000051
:104500009387C71F6314F4008044C1B79717000056
:104510009387C71AE31BF4FAC04445BF918B8DC73C
:104520004C5889C9930744046384F5004A85892B54
:10453000232A04028357C4002322040093F7B7FD03
:104540002316F4001C481CC08357C40093E787005F
:104550002316F4001C4881EF8357C4001307002082
:1045600093F707286385E700A2854A859529835735
:10457000C40013F7170005C75C4823240400B307E1
:10458000F0401CCC1C480145A5F78317C40013F765
:10459000070839DF93E707042316F40089BF898BE6
:1045A000014791E3584818C4F1BF83D7C5000111F2
:1045B00022CC26CA06CE4AC84EC613F78700AA8464
:1045C0002E8471EFD841634DE000B841634AE000AA
:1045D0000145F2406244D2444249B24905618280B9
:1045E00058547DD703A904009396370123A00400F3
:1045F00063DD060670488357C400918B99C75C4001
:104600001D8E5C5899C33C401D8E5C540C508146F5
:1046100026858297FD570357C400631DF50094401B
:10462000F54763E8D706B70740208507B3D7D7001B
:10463000858BA5C31C48232204001CC09317370197
:1046400063D80700FD576314F5009C4091E368C8E8
:104650004C5823A02401ADDD930744046384F50086
:1046600026853929232A0402A5B70C500146854620
:1046700026850297FD572A86E31FF5F69C40A5DFA5
:1046800075476385E70059476394E70423A0240135
:1046900081B7136707042316E4007D551DBF83A966
:1046A0000501E38709F203A905008D8B23A03501DD
:1046B00033093941014791E3D84918C4E35A20F13D
:1046C0001C540C50CA864E86268582976349A000EA
:1046D0008357C40093E707042316F4007DBFAA990B
:1046E0003309A940E1BF9C49A5C3011122CC06CEE4
:1046F0002A8411C51C4D81E72EC63122B245971779
:1047000000009387A7FD639CF5004C408397C5008C
:104710009DC722856244F24005616FF01FE997173B
:1047200000009387A7FD6394F5000C44C5B7971765
:1047300000009387A7F8E39BF5FC4C44C1BFF2400F
:10474000624401450561828001458280411122C495
:1047500006C62A842316B5002317C50023200500AA
:104760002322050023240500232205062328050013
:10477000232A0500232C0500214681451305C50584
:10478000EFB0FFF697170000938767BE5CD09717CE
:1047900000009387C7C01CD497170000938707C5F4
:1047A0005CD4971700009387C7C700D01CD8B240CD
:1047B00022444101828097050000938505F3B1AA48
:1047C000411126C2130680069384F5FFB384C40208
:1047D0004AC02E8922C406C693854407B1262A847E
:1047E00001CD2320050023222501310508C41386AD
:1047F00084068145EFB0BFEF2285B2402244924447
:104800000249410182801C4DB5E7411106C622C410
:1048100097070000938767FA1CD5971700009387C6
:1048200027F69C4323240504232605042328050496
:104830006314F50085471CCD2A84352848C022859D
:104840001D2808C42285052848C4484001469145D2
:10485000EFF0DFEF08440546A545EFF03FEF484491
:104860000946C945EFF09FEE85471CCCB240224473
:10487000410182808280411197170000938747F0A1
:1048800026C284434AC006C69C4C22C42A8981E7BA
:104890002685EFF05FF7938484048044DC40FD17A5
:1048A00063D607009C40B9CF8440C5BF0317C4003E
:1048B00039E7C17785072322040623200400232239
:1048C0000400232404005CC423280400232A0400D9
:1048D000232C0400214681451305C405EFB03FE1B8
:1048E000232A0402232C0402232404042326040480
:1048F0002285B2402244924402494101828013043D
:10490000840671BF91454A85EFF09FEB88C049FD51
:10491000B1472320F9000144E1BF797122D44AD084
:1049200052CC56CA5AC85EC606D626D24ECE2A8A5F
:10493000AE8A130485040149054BFD5B09ECB250B6
:1049400022544A8592540259F249624AD24A424B51
:10495000B24B45618280044483294400FD1963D42D
:1049600009000040E1BF83D7C400637BFB0083974D
:10497000E40063877701A6855285829A3369A9008E
:1049800093848406E1BF1971A6DAAE848395E500AD
:10499000A2DC86DE328463DC050083D7C40023A05A
:1049A000060093F7070885E7930700401DA030082D
:1049B00036C6EF00902CB246E34105FE7247BD6754
:1049C000F98F7977BA9793B717009CC2F1BF930715
:1049D00000041CC0F6506654D6540145096182801B
:1049E00083D7C500011122CC06CE26CA4AC8898BBE
:1049F0002E8489CF930774041CC01CC885475CC8EB
:104A0000F2406244D2444249056182807400300021
:104A1000AA84EFF05FF7A2452A892685312201EDAD
:104A20008317C40013F7072061FFF19B93E727006A
:104A30002316F400C1B797070000938707D89CD4CA
:104A40008357C40008C008C893E707082316F4007A
:104A5000A2475CC8B24791CF8315E4002685EF00DA
:104A6000702401C98357C400F19B93E717002316F4
:104A7000F4008357C4003369F9002316240149B7B1
:104A8000DDC183A7C5FF411122C406C626C2138417
:104A9000C5FF63D307003E94AA84EF009027938755
:104AA00041819C4381EF2322040023AA8180224478
:104AB000B2402685924441016F00D025637EF40008
:104AC00014403307D4006396E7009843DC433697DD
:104AD00018C05CC0D9BFBA87D84319C3E37DE4FED0
:104AE00094433386D700631F86001040B29694C368
:104AF0003386D700E31DC7FA10435843B29694C3D8
:104B0000D8C375B76375C400B1479CC04DB710409A
:104B1000B306C4006316D70014435843B29614C0BA
:104B200058C0C0C369B78280011126CA938435007A
:104B3000F19806CE22CC4AC84EC6A104B14763F50F
:104B4000F404B14463E4B4042A89EF00901C938711
:104B5000418198433A8429E4938781819C4399E772
:104B600081454A85EF00E07D23ACA180A6854A857A
:104B7000EF00207DFD5963193507B1472320F90067
:104B80004A85EF00301929A0E3DE04FAB1471CC1C1
:104B90000145F2406244D2444249B24905618280F3
:104BA0001C40858F63CF0702AD4663F6F6001CC03C
:104BB0003E9404C031A05C406313870223AAF180B5
:104BC0004A85EF0030151305B4009307440061993E
:104BD0003307F5405DDF3A94898F1CC05DBF5CC32D
:104BE000C5B72287404085BF130435007198E302A2
:104BF00085FCB305A4404A85A927E31C35FBB5BF56
:104C00001C46FD171CC663DA0700184E63C5E70093
:104C1000A9476394F5006FF04FFC1C422E85138763
:104C2000170018C22380B7008280011122CC26CA47
:104C30004AC84EC652C406CE2A89AE893284B3040D
:104C4000D6007D5A63149400014511A883450400E1
:104C50004E864A85EFF0DFFA0504E31545FFF24082
:104C60006244D2444249B249224A05618280357188
:104C700022CD26CB4AC94EC706CF52C556C35AC10C
:104C8000DEDEE2DCE6DAAA89AE843289368409C542
:104C90001C4D99E3EFF03FB797170000938707A4E7
:104CA000639DF40C83A4490083D7C400A18BE5CB9A
:104CB0009C48F5C793070002A304F1029307000381
:104CC00002D22305F10222C6930B5002971A00006C
:104CD000938ACAA4054C294B4A848347040099C38C
:104CE0006392770FB30C2441638E0C00E6864A86EC
:104CF000A6854E85EFF07FF3FD576307F51E9256AC
:104D0000E69636D2834704006380071EFD571309D9
:104D1000140002C802CE3ECA02CCA309010482D408
:104D20008345090015465685EF00007D13041900E0
:104D3000C24759E913F7070109C713070002A3097E
:104D4000E10413F7870009C71307B002A309E104C0
:104D5000834609001307A0026380E608F2474A84ED
:104D6000814625460347040093051400130707FDF9
:104D70006379E60AB5CA3ECE85A8971700009387E7
:104D8000E7976395F40083A4890039BF9717000063
:104D90009387C792E39AF4F083A4C90031B7A6853C
:104DA0004E85EFF08FEF19D57D55FA406A44DA440D
:104DB0004A49BA492A4A9A4A0A4BF65B665CD65C6B
:104DC0000D618280050411BF330555413315AC00D8
:104DD000C98F3EC82289A9B73247930647001843B6
:104DE00036C6634907023ACE034704009307E00240
:104DF000631FF704034714009307A002631BF70225
:104E0000B2470904138747009C433AC663C10702AF
:104E10003ECA35A83307E04093E727003ACE3EC8A4
:104E2000E1B7B387670385462E84BA9725BFFD5740
:104E3000C5B7050402CA81468147254603470400D9
:104E400093051400130707FD6376E606F1F2834528
:104E500004000D46171500001305C58C712D11CDEA
:104E6000971700009387078C1D8D93070004B39755
:104E7000A700424505045D8D2AC8834504001946F4
:104E8000171500001305458A130914002304B10205
:104E9000A5253DC197B7FFFF9387C71695E7424702
:104EA000B2471377071009CF91073EC69257D297A2
:104EB0003ED21DB5B387670385462E84BA97BDBF22
:104EC0009D07E19BA107D5B7780097060000938660
:104ED00006D626860C084E8597000000E7000000E5
:104EE000FD572A8AE314F5FC83D7C40093F707041F
:104EF000E39C07EA125555BD78009706000093869B
:104F000006D326860C084E85012AD9BF797156CA68
:104F10009C49BA8A984522D426D24ECE52CC06D687
:104F20004AD05AC85EC6AA892E84B284368A63D310
:104F3000E700BA879CC00347340419C385079CC0A7
:104F40001C4093F7070281C79C4089079CC0032936
:104F5000040013796900631A0900130B9401FD5BC7
:104F60005C449840998F634CF9041C408346340498
:104F700093F70702B336D000A5EB13063404D285AD
:104F80004E85829AFD576303F5041C4011469840F4
:104F9000998B544481446397C700B384E64063D33C
:104FA000040081441C4418486354F700998FBE9450
:104FB000014969047D5B63982405014509A885467C
:104FC0005A86D2854E85829A631E75017D55B250F0
:104FD000225492540259F249624AD24A424BB24B8D
:104FE000456182800509ADBF3307D4001306000375
:104FF000A301C7040347540493871600A2978906A8
:10500000A381E7049DBF85462286D2854E85829A7C
:10501000E30E65FB050945B7797122D426D24AD043
:105020004ECE06D652CC56CA5AC8B68983C685011A
:105030009307E0063289AA842E841386350463819F
:10504000F61E63E2D706930730066382F60A63ED25
:10505000D700638B061E930780056387F616930AB5
:1050600024042301D40469A8930740066386F6004C
:1050700093079006E395F6FE1C40084393F6070855
:1050800093054500C1C21C410CC363D80700130738
:10509000D002B307F040A301E40497060000938612
:1050A0002669294765A0930730076383F61A63EFE3
:1050B000D7009307F006638FF60493070007E39089
:1050C000F6FA9C4193E707029CC109A89307500791
:1050D0006382F60493078007E393F6F8930780074B
:1050E000A302F404970600009386C665E5A01C435E
:1050F000938A2504938647009C4314C32381F504B7
:105100008547B5A293F607041C410CC3BDDEC20758
:10511000C187A5BF0C401C4313F805081385470041
:105120006305080008C39C4339A093F5050408C330
:10513000FDD983D707001307F006638BE60C9706AB
:1051400000009386E65E2947A30104044C400CC48A
:1051500063C5050008406D9908C099E3B28A91CDF6
:10516000B28AB3F5E702FD1AB69583C50500238020
:10517000BA00B3D5E70263F3E70AA147631EF7005D
:105180001C40858B91CB58401C4863C7E7009307B0
:105190000003A38FFAFEFD1A3306564110C84E874E
:1051A000CA867000A2852685EFF05FD67D5A63140B
:1051B000450D7D55B250225492540259F249624A2B
:1051C000D24A424B45618280A382D50497060000F3
:1051D000938606560C40084313F805081C41110538
:1051E0006300080208C313F7150001C793E5050221
:1051F0000CC04147B1FB0C4093F5F5FD0CC0A9B7BD
:1052000013F8050408C3E30008FEC207C183E1BF29
:10521000970600009386C65121473DB7AE8791B7E8
:1052200094411C43CC4913F80608138547006306D4
:10523000080008C39C438CC301A808C393F6060466
:105240009C43F5DA2390B70023280400B28A81BF7B
:105250001C43D04181459386470014C383AA0700AD
:105260005685592C01C53305554148C05C401CC8C2
:10527000A30104042DB714485686CA852685829951
:10528000E30945F31C40898B8DE7B2474844E3535B
:10529000F5F23E8505B785465686CA8526858299EC
:1052A000E30965F1050A5C443247998FE345FAFE4C
:1052B000E9BF014A930A94017D5BF5B7011122CC45
:1052C00006CE2A8409C91C4D99E732C62EC4EFF0D8
:1052D0008FD33246A2459707000093872740631675
:1052E000F60250401C46FD171CC663D00704184E3A
:1052F00063C7E70093F7F50F29476398E702228514
:105300006244F24005616FF04F8D9707000093876C
:10531000E73E6314F6001044F1B797070000938747
:10532000E739E311F6FC504475BF1C4213F5F50F45
:105330001387170018C22380B700F240624405614A
:105340008280411122C42A842E8523A6010606C626
:105350003D24FD576317F5009387C1069C4391C315
:105360001CC0B240224441018280411122C42E84DB
:105370008395E50006C64522634905007C48AA9747
:105380007CC8B2402244410182808357C4007D77AB
:105390007D17F98F2316F400EDB783D7C5000111EF
:1053A00022CC26CA4AC84EC606CE93F70710AA8456
:1053B0002E843289B68991C78395E50089460146D6
:1053C00031228357C4007D777D17F98F2316F400AF
:1053D0008315E4006244F240CE864A86B2494249CF
:1053E0002685D24405613DA8411122C42E848395AF
:1053F000E50006C6E128FD570357C400631BF5000E
:10540000FD77FD17F98F2316F400B24022444101C5
:1054100082808567D98F2316F40068C8FDB783950D
:10542000E50005A8411122C42A842E85B28536865E
:1054300023A6010606C6EFC04F92FD576317F5007D
:105440009387C1069C4391C31CC0B24022444101D2
:105450008280411122C42A842E8523A6010606C615
:10546000CD20FD576317F5009387C1069C4391C378
:105470001CC0B240224441018280411122C42A84CE
:105480002E85B28523A6010606C6D120FD576317D7
:10549000F5009387C1069C4391C31CC0B2402244CF
:1054A00041018280411122C42A842E8523A601064F
:1054B00006C66520FD576317F5009387C1069C4318
:1054C00091C31CC0B240224441018280411122C4D8
:1054D0002A842E85B285368623A6010606C661205B
:1054E000FD576317F5009387C1069C4391C31CC009
:1054F000B24022444101828093F5F50F2A9663144D
:10550000C5000145828083470500E38DB7FE050590
:10551000FDB782808280411122C42A842E85B28503
:10552000368623A6010606C6A920FD576317F50097
:105530009387C1069C4391C31CC0B24022444101E1
:1055400082809307800523A6F1067D55828093070C
:10555000800523A6F1067D5582809307800523A64A
:10556000F106014582809307800523A6F1067D554B
:1055700082809307800523A6F1067D55828093875C
:10558000C1819C4391C73E9523AEA1803E85828018
:10559000938701073E9523AEA1803E85828000005F
:1055A0006B3C31360D00000053746172742040432F
:1055B00068697049443D25303258200A00000000D7
:1055C00057616974204469736B52656164790000A6
:1055D000253032780A000000437265617465204C02
:1055E0006F6E67204E616D65000000002F544342CE
:1055F000447E312E435356004572726F723A202515
:105600003032780A00000000437265617420656ED4
:105610006400000076BEFFFF9EBEFFFFC6BEFFFF18
:10562000DEBEFFFFF8BEFFFF5553422064657620C3
:10563000696E000055534220646576206F757400D2
:10564000526573657420686F737420706F72740094
:1056500078253032582000004765744366674465FA
:105660007363723A20000000496E6974526F6F7460
:1056700044657620457272203D20253032580A005C
:1056800044697361626C6520686F737420706F7217
:10569000742062656361757365206F662064697349
:1056A000636F6E6E65637400476574446576446528
:1056B0007363723A20000000000000000000000048
:1056C00000000000000000000000000000000000DA
:1056D00000000000000000000000000000000000CA
:1056E00000000000000000000000000000000000BA
:1056F00000000000000000000000000000000000AA
:105700000000000000000000000000000000000099
:105710000000000000000000232D302B20000000BE
:10572000686C4C006566674546470000303132338F
:10573000343536373839414243444546000000008D
:1057400030313233343536373839616263646566F7
:1057500000000000020100000000000080060002BE
:105760000000040080060001000012000005020095
:1057700000000000000900000000000000400020C0
:1057800000000000D8560000F8560000B85600008F
:105790000000000000000000000000000000000009
:1057A00000000000000000000000000000000000F9
:1057B00000000000000000000000000000000000E9
:1057C00000000000000000000000000000000000D9
:1057D00000000000000000000000000000000000C9
:0857E000004000200000000061
:00000001FF
